{
  "_format": "hh-sol-artifact-1",
  "contractName": "AionisAgentManager",
  "sourceName": "contracts/AionisAgentManager.sol",
  "abi": [
    {
      "anonymous": false,
      "inputs": [
        {
          "indexed": true,
          "internalType": "address",
          "name": "follower",
          "type": "address"
        },
        {
          "indexed": true,
          "internalType": "address",
          "name": "leader",
          "type": "address"
        },
        {
          "indexed": false,
          "internalType": "uint256",
          "name": "usdcSpent",
          "type": "uint256"
        },
        {
          "indexed": false,
          "internalType": "uint256",
          "name": "wsomiReceived",
          "type": "uint256"
        },
        {
          "indexed": false,
          "internalType": "uint8",
          "name": "copyScore",
          "type": "uint8"
        }
      ],
      "name": "CopyTradeExecuted",
      "type": "event"
    },
    {
      "anonymous": false,
      "inputs": [
        {
          "indexed": true,
          "internalType": "address",
          "name": "follower",
          "type": "address"
        },
        {
          "indexed": true,
          "internalType": "address",
          "name": "leader",
          "type": "address"
        },
        {
          "indexed": false,
          "internalType": "uint8",
          "name": "copyScore",
          "type": "uint8"
        },
        {
          "indexed": false,
          "internalType": "string",
          "name": "reason",
          "type": "string"
        }
      ],
      "name": "CopyTradeSkipped",
      "type": "event"
    },
    {
      "anonymous": false,
      "inputs": [
        {
          "indexed": true,
          "internalType": "address",
          "name": "follower",
          "type": "address"
        },
        {
          "indexed": true,
          "internalType": "address",
          "name": "leader",
          "type": "address"
        },
        {
          "indexed": false,
          "internalType": "uint8",
          "name": "riskTolerance",
          "type": "uint8"
        },
        {
          "indexed": false,
          "internalType": "uint256",
          "name": "maxAllocationUsdc",
          "type": "uint256"
        }
      ],
      "name": "FollowingStarted",
      "type": "event"
    },
    {
      "anonymous": false,
      "inputs": [
        {
          "indexed": true,
          "internalType": "address",
          "name": "follower",
          "type": "address"
        },
        {
          "indexed": true,
          "internalType": "address",
          "name": "leader",
          "type": "address"
        }
      ],
      "name": "FollowingStopped",
      "type": "event"
    },
    {
      "anonymous": false,
      "inputs": [
        {
          "indexed": true,
          "internalType": "address",
          "name": "follower",
          "type": "address"
        },
        {
          "indexed": false,
          "internalType": "uint256",
          "name": "amount",
          "type": "uint256"
        }
      ],
      "name": "FundsDeposited",
      "type": "event"
    },
    {
      "anonymous": false,
      "inputs": [
        {
          "indexed": true,
          "internalType": "address",
          "name": "follower",
          "type": "address"
        },
        {
          "indexed": false,
          "internalType": "uint256",
          "name": "amount",
          "type": "uint256"
        }
      ],
      "name": "FundsWithdrawn",
      "type": "event"
    },
    {
      "anonymous": false,
      "inputs": [
        {
          "indexed": true,
          "internalType": "bytes32",
          "name": "requestId",
          "type": "bytes32"
        },
        {
          "indexed": true,
          "internalType": "address",
          "name": "follower",
          "type": "address"
        },
        {
          "indexed": false,
          "internalType": "string",
          "name": "prompt",
          "type": "string"
        }
      ],
      "name": "StrategistRequestSent",
      "type": "event"
    },
    {
      "anonymous": false,
      "inputs": [
        {
          "indexed": true,
          "internalType": "bytes32",
          "name": "requestId",
          "type": "bytes32"
        },
        {
          "indexed": true,
          "internalType": "address",
          "name": "follower",
          "type": "address"
        },
        {
          "indexed": false,
          "internalType": "uint8",
          "name": "copyScore",
          "type": "uint8"
        },
        {
          "indexed": false,
          "internalType": "bool",
          "name": "willExecute",
          "type": "bool"
        }
      ],
      "name": "StrategistResponseReceived",
      "type": "event"
    },
    {
      "anonymous": false,
      "inputs": [
        {
          "indexed": true,
          "internalType": "bytes32",
          "name": "requestId",
          "type": "bytes32"
        },
        {
          "indexed": true,
          "internalType": "address",
          "name": "follower",
          "type": "address"
        },
        {
          "indexed": true,
          "internalType": "address",
          "name": "leader",
          "type": "address"
        }
      ],
      "name": "WatcherRequestSent",
      "type": "event"
    },
    {
      "anonymous": false,
      "inputs": [
        {
          "indexed": true,
          "internalType": "bytes32",
          "name": "requestId",
          "type": "bytes32"
        },
        {
          "indexed": false,
          "internalType": "address",
          "name": "tokenIn",
          "type": "address"
        },
        {
          "indexed": false,
          "internalType": "address",
          "name": "tokenOut",
          "type": "address"
        },
        {
          "indexed": false,
          "internalType": "uint256",
          "name": "amountIn",
          "type": "uint256"
        },
        {
          "indexed": false,
          "internalType": "uint256",
          "name": "tradeTimestamp",
          "type": "uint256"
        }
      ],
      "name": "WatcherResponseReceived",
      "type": "event"
    },
    {
      "inputs": [],
      "name": "AGENT_PLATFORM",
      "outputs": [
        {
          "internalType": "address",
          "name": "",
          "type": "address"
        }
      ],
      "stateMutability": "view",
      "type": "function"
    },
    {
      "inputs": [],
      "name": "AIONIS_API",
      "outputs": [
        {
          "internalType": "string",
          "name": "",
          "type": "string"
        }
      ],
      "stateMutability": "view",
      "type": "function"
    },
    {
      "inputs": [],
      "name": "JSON_API_AGENT_ID",
      "outputs": [
        {
          "internalType": "uint256",
          "name": "",
          "type": "uint256"
        }
      ],
      "stateMutability": "view",
      "type": "function"
    },
    {
      "inputs": [],
      "name": "LLM_AGENT_ID",
      "outputs": [
        {
          "internalType": "uint256",
          "name": "",
          "type": "uint256"
        }
      ],
      "stateMutability": "view",
      "type": "function"
    },
    {
      "inputs": [],
      "name": "MAX_TRADE_AGE",
      "outputs": [
        {
          "internalType": "uint256",
          "name": "",
          "type": "uint256"
        }
      ],
      "stateMutability": "view",
      "type": "function"
    },
    {
      "inputs": [],
      "name": "MIN_EXECUTE_SCORE",
      "outputs": [
        {
          "internalType": "uint8",
          "name": "",
          "type": "uint8"
        }
      ],
      "stateMutability": "view",
      "type": "function"
    },
    {
      "inputs": [],
      "name": "QUICKSWAP_ROUTER",
      "outputs": [
        {
          "internalType": "address",
          "name": "",
          "type": "address"
        }
      ],
      "stateMutability": "view",
      "type": "function"
    },
    {
      "inputs": [],
      "name": "USDCE",
      "outputs": [
        {
          "internalType": "address",
          "name": "",
          "type": "address"
        }
      ],
      "stateMutability": "view",
      "type": "function"
    },
    {
      "inputs": [],
      "name": "WSOMI",
      "outputs": [
        {
          "internalType": "address",
          "name": "",
          "type": "address"
        }
      ],
      "stateMutability": "view",
      "type": "function"
    },
    {
      "inputs": [
        {
          "internalType": "address",
          "name": "",
          "type": "address"
        }
      ],
      "name": "activeRequest",
      "outputs": [
        {
          "internalType": "bytes32",
          "name": "",
          "type": "bytes32"
        }
      ],
      "stateMutability": "view",
      "type": "function"
    },
    {
      "inputs": [
        {
          "internalType": "address",
          "name": "follower",
          "type": "address"
        }
      ],
      "name": "checkLeaderActivity",
      "outputs": [],
      "stateMutability": "payable",
      "type": "function"
    },
    {
      "inputs": [
        {
          "internalType": "uint256",
          "name": "amount",
          "type": "uint256"
        }
      ],
      "name": "deposit",
      "outputs": [],
      "stateMutability": "nonpayable",
      "type": "function"
    },
    {
      "inputs": [
        {
          "internalType": "address",
          "name": "follower",
          "type": "address"
        }
      ],
      "name": "getProfile",
      "outputs": [
        {
          "components": [
            {
              "internalType": "address",
              "name": "leader",
              "type": "address"
            },
            {
              "internalType": "uint8",
              "name": "riskTolerance",
              "type": "uint8"
            },
            {
              "internalType": "uint256",
              "name": "maxAllocationUsdc",
              "type": "uint256"
            },
            {
              "internalType": "uint256",
              "name": "depositedUsdc",
              "type": "uint256"
            },
            {
              "internalType": "bool",
              "name": "active",
              "type": "bool"
            },
            {
              "internalType": "uint256",
              "name": "openPositionWsomi",
              "type": "uint256"
            }
          ],
          "internalType": "struct AionisAgentManager.FollowerProfile",
          "name": "",
          "type": "tuple"
        }
      ],
      "stateMutability": "view",
      "type": "function"
    },
    {
      "inputs": [
        {
          "internalType": "address",
          "name": "follower",
          "type": "address"
        }
      ],
      "name": "getRequestStage",
      "outputs": [
        {
          "internalType": "enum AionisAgentManager.RequestStage",
          "name": "stage",
          "type": "uint8"
        },
        {
          "internalType": "bytes32",
          "name": "requestId",
          "type": "bytes32"
        }
      ],
      "stateMutability": "view",
      "type": "function"
    },
    {
      "inputs": [
        {
          "internalType": "bytes32",
          "name": "requestId",
          "type": "bytes32"
        },
        {
          "internalType": "bytes",
          "name": "response",
          "type": "bytes"
        }
      ],
      "name": "onStrategistResponse",
      "outputs": [],
      "stateMutability": "nonpayable",
      "type": "function"
    },
    {
      "inputs": [
        {
          "internalType": "bytes32",
          "name": "requestId",
          "type": "bytes32"
        },
        {
          "internalType": "bytes",
          "name": "response",
          "type": "bytes"
        }
      ],
      "name": "onWatcherResponse",
      "outputs": [],
      "stateMutability": "nonpayable",
      "type": "function"
    },
    {
      "inputs": [
        {
          "internalType": "bytes32",
          "name": "",
          "type": "bytes32"
        }
      ],
      "name": "pendingRequests",
      "outputs": [
        {
          "internalType": "address",
          "name": "follower",
          "type": "address"
        },
        {
          "internalType": "address",
          "name": "leader",
          "type": "address"
        },
        {
          "internalType": "bytes",
          "name": "tradeData",
          "type": "bytes"
        },
        {
          "internalType": "enum AionisAgentManager.RequestStage",
          "name": "stage",
          "type": "uint8"
        },
        {
          "internalType": "uint256",
          "name": "createdAt",
          "type": "uint256"
        }
      ],
      "stateMutability": "view",
      "type": "function"
    },
    {
      "inputs": [
        {
          "internalType": "address",
          "name": "",
          "type": "address"
        }
      ],
      "name": "profiles",
      "outputs": [
        {
          "internalType": "address",
          "name": "leader",
          "type": "address"
        },
        {
          "internalType": "uint8",
          "name": "riskTolerance",
          "type": "uint8"
        },
        {
          "internalType": "uint256",
          "name": "maxAllocationUsdc",
          "type": "uint256"
        },
        {
          "internalType": "uint256",
          "name": "depositedUsdc",
          "type": "uint256"
        },
        {
          "internalType": "bool",
          "name": "active",
          "type": "bool"
        },
        {
          "internalType": "uint256",
          "name": "openPositionWsomi",
          "type": "uint256"
        }
      ],
      "stateMutability": "view",
      "type": "function"
    },
    {
      "inputs": [
        {
          "internalType": "address",
          "name": "leader",
          "type": "address"
        },
        {
          "internalType": "uint8",
          "name": "riskTolerance",
          "type": "uint8"
        },
        {
          "internalType": "uint256",
          "name": "maxAllocationUsdc",
          "type": "uint256"
        },
        {
          "internalType": "uint256",
          "name": "initialDeposit",
          "type": "uint256"
        }
      ],
      "name": "startFollowing",
      "outputs": [],
      "stateMutability": "nonpayable",
      "type": "function"
    },
    {
      "inputs": [],
      "name": "stopFollowing",
      "outputs": [],
      "stateMutability": "nonpayable",
      "type": "function"
    },
    {
      "stateMutability": "payable",
      "type": "receive"
    }
  ],
  "bytecode": "0x608080604052346100165761237b908161001c8239f35b600080fdfe6101006040818152600480361015610022575b505050361561002057600080fd5b005b600092833560e01c908163011f8b1b14610f8c575080630f53a47014610eb1578063195187e114610e825780631e13c6c314610e665780632795ad2014610d565780632e90c1a914610d3a578063503ee6301461091257806382cb455b146108dd5780638b50817b146108a65780639530b30f1461088a578063b6b55f2514610757578063b765e313146105cc578063bbe1562714610556578063c2c779381461051e578063d0919116146104ef578063d5a53bbb146104c0578063e55ee7eb1461048d578063e9e4259614610453578063f4cce57e146104195763fdb1e58b03610012573461041557608036600319011261041557610120610fa7565b916024359060ff8216809203610411576001600160a01b0393841692604435906064359085156103d8573386146103955760018510158061038a575b1561035657821561031c57878261022a575b7fa632ff4f31efe35c19d3dfe479239a82e9f487e3b437687615d4d25a0a71ba6095969785519361019e85610ffc565b8985526020850189815287860190878252606087019283526080870193600185528960a0890196808852338152806020522097511687549160ff60a01b905160a01b16916affffffffffffffffffffff60a81b1617178655516001860155516002850155600384019051151560ff8019835416911617905551910155815193845260208401523392a380f35b84516323b872dd60e01b8152338382019081523060208281019190915260408201869052919991908a9081906060010381857328bec7e30e6faee657a03e19bf1128aad7632a005af1988915610312577fa632ff4f31efe35c19d3dfe479239a82e9f487e3b437687615d4d25a0a71ba609798996102af9184916102e3575b50611b3b565b85518481527f543ba50a5eec5e6178218e364b1d0f396157b3c8fa278522c2cb7fd99407d47460203392a29796955061016e565b610305915060203d60201161030b575b6102fd8183611066565b810190611b23565b386102a9565b503d6102f3565b86513d84823e3d90fd5b606490602085519162461bcd60e51b8352820152601460248201527329a0a69d103d32b9379030b63637b1b0ba34b7b760611b6044820152fd5b606490602085519162461bcd60e51b8352820152600e60248201526d053414d3a207269736b20312d31360941b6044820152fd5b50600a85111561015c565b606490602085519162461bcd60e51b8352820152601b60248201527f53414d3a2063616e6e6f7420666f6c6c6f7720796f757273656c6600000000006044820152fd5b606490602085519162461bcd60e51b8352820152601360248201527229a0a69d1034b73b30b634b2103632b0b232b960691b6044820152fd5b8480fd5b8280fd5b828434610450576020366003190112610450575061043d610438610fa7565b611cf9565b610449835180936110d0565b6020820152f35b80fd5b83346104505761048a61046536611152565b9161048573037bb9c718f3f7fe5ecbdb0b600d607b5270677633146111fd565b611b8a565b80f35b5050346104bc57816003193601126104bc576020905173037bb9c718f3f7fe5ecbdb0b600d607b527067768152f35b5080fd5b5050346104bc57816003193601126104bc576020905173046ede9564a72571df6f5e44d0405360c0f4dcab8152f35b5050346104bc57816003193601126104bc5760209051731582f6f3d26658f7208a799be46e34b1f366ce448152f35b5050346104bc5760203660031901126104bc5760209181906001600160a01b03610546610fa7565b1681526002845220549051908152f35b509190346104bc5760203660031901126104bc5760c0926001600160a01b0392829084610581610fa7565b16815280602052209081549260018301549060ff60028501549381600387015416950154958251978116885260a01c16602087015285015260608401521515608083015260a0820152f35b503461041557826003193601126104155733835260208381528284209260038401805460ff81161561071f5760ff191690556002840192858454945583610643575b845486906001600160a01b0316337f56fe74051b56c316f13ccdc09e12c003dd7a1d971132b7a360099c9c9373bf8c8380a380f35b815163a9059cbb60e01b815233828201526024810185905283816044818a7328bec7e30e6faee657a03e19bf1128aad7632a005af19081156107155787916106f8575b50156106c05750907feaff4b37086828766ad3268786972c0cd24259d4c87a80f9d3963a3c3d999b0d91519283523392a23880808061060e565b82606492519162461bcd60e51b8352820152601460248201527314d0534e881dda5d1a191c985dc819985a5b195960621b6044820152fd5b61070f9150843d861161030b576102fd8183611066565b38610686565b83513d89823e3d90fd5b50505162461bcd60e51b815291820152601260248201527153414d3a206e6f7420666f6c6c6f77696e6760701b604482015260649150fd5b5034610415576020806003193601126108865781359133855284825260ff6003858720015416156108455783516323b872dd60e01b81523391810191825230602083015260408201849052908290829081906060010381887328bec7e30e6faee657a03e19bf1128aad7632a005af190811561083b577f543ba50a5eec5e6178218e364b1d0f396157b3c8fa278522c2cb7fd99407d4749394916108019187916108245750611b3b565b338552848252600281862001610818858254611b7d565b9055519283523392a280f35b6103059150843d861161030b576102fd8183611066565b84513d87823e3d90fd5b60649184519162461bcd60e51b8352820152601a60248201527f53414d3a20737461727420666f6c6c6f77696e672066697273740000000000006044820152fd5b8380fd5b5050346104bc57816003193601126104bc5760209051601e8152f35b83346104505761048a6108b836611152565b916108d873037bb9c718f3f7fe5ecbdb0b600d607b5270677633146111fd565b61128a565b5050346104bc57816003193601126104bc5761090e906108fb61110f565b90519182916020835260208301906110ab565b0390f35b5090602080600319360112610886576001600160a01b039081610933610fa7565b16928386528582528086209160ff60038401541615610cff578487526002815281872054610cbd576109ff61096661110f565b966109c7602c61097888885416611d5b565b9986519a816109908d935180928a8087019101611088565b82016109a4825180938a8085019101611088565b016b02f6c61746573742d737761760a41b8782015203600c81018b520189611066565b610a1d8451986109d68a61102e565b60068a52650242e737761760d41b858b0152610a118651948592888885015260608401906110ab565b601f199b8c84830301898501526110ab565b03898101845283611066565b8351976322e05a0160e21b8952838980610a4960019687878401526080602484015260848301906110ab565b306044830152638b50817b60e01b606483015203813473037bb9c718f3f7fe5ecbdb0b600d607b527067765af1988915610cb3578a99610c80575b50868654169085519360a085019067ffffffffffffffff9186811083821117610c6d5788528a865286860193845287519387850185811084821117610c5a57918d9593918f95938b528585528a89019485528c8b60608b019784895260808c0199428b528152848d52209951166bffffffffffffffffffffffff60a01b90818b5416178a558d838b0192511690825416179055600288019351908151928311610c46578f90610b3d84610b378854610fc2565b886111b6565b8a94601f8511600114610be6575050928291610b6e9492610bdb575b50508160011b916000199060031b1c19161790565b90555b60038401905183811015610bc857815460ff191660ff91909116179055519101558487526002905285208490555416917fcf5049019cf7659010e4a5f9638f071339a89fc1f0f77be053ee91034cdadcf98480a480f35b634e487b7160e01b8c526021845260248cfd5b015190503880610b59565b8490819693949296168785528c8520945b8d88838310610c2f5750505010610c16575b505050811b019055610b71565b015160001960f88460031b161c19169055388080610c09565b868601518855909601959485019487935001610bf7565b50634e487b7160e01b8f526041875260248ffd5b634e487b7160e01b8f526041875260248ffd5b634e487b7160e01b8e526041865260248efd5b9098508381813d8311610cac575b610c988183611066565b81010312610ca857519738610a84565b8980fd5b503d610c8e565b85513d8c823e3d90fd5b8590606492519162461bcd60e51b8352820152601e60248201527f53414d3a207265717565737420616c726561647920696e20666c6967687400006044820152fd5b8590606492519162461bcd60e51b8352820152601660248201527553414d3a20666f6c6c6f77657220696e61637469766560501b6044820152fd5b5050346104bc57816003193601126104bc576020905160028152f35b5090346104155760209283600319360112610450578235815260018085528282209260018060a01b0394858554169560018601541693876002870184519583825492610da184610fc2565b808a529360018116908115610e435750600114610e0c575b5050505050610df8928492610dd5610e039660a0940385611066565b60ff600389015416970154958151998a998a5289015287015260a08601906110ab565b9260608501906110d0565b60808301520390f35b9080949550528383205b828410610e30575050508401018782610dd58660a0610db9565b8054888501860152928401928101610e16565b60ff1916868b015250505050151560051b85010190508782610dd58660a0610db9565b5050346104bc57816003193601126104bc5760209051600a8152f35b5050346104bc57816003193601126104bc57602090517328bec7e30e6faee657a03e19bf1128aad7632a008152f35b509190346104bc5760203660031901126104bc5760c09281610ed1610fa7565b938060a08351610ee081610ffc565b8281528260208201528285820152826060820152826080820152015260018060a01b038095168152806020522090825192610f1a84610ffc565b82549485169485855260ff602086019160a01c16815260ff60018501549183870192835260a060028701549560608901968752836003890154169760808a01981515895201549701968752835197885251166020870152519085015251606084015251151560808301525160a0820152f35b8490346104bc57816003193601126104bc5780600160209252f35b600435906001600160a01b0382168203610fbd57565b600080fd5b90600182811c92168015610ff2575b6020831014610fdc57565b634e487b7160e01b600052602260045260246000fd5b91607f1691610fd1565b60c0810190811067ffffffffffffffff82111761101857604052565b634e487b7160e01b600052604160045260246000fd5b6040810190811067ffffffffffffffff82111761101857604052565b6060810190811067ffffffffffffffff82111761101857604052565b90601f8019910116810190811067ffffffffffffffff82111761101857604052565b60005b83811061109b5750506000910152565b818101518382015260200161108b565b906020916110c481518092818552858086019101611088565b601f01601f1916010190565b9060048210156110dd5752565b634e487b7160e01b600052602160045260246000fd5b67ffffffffffffffff811161101857601f01601f191660200190565b6040519061111c8261104a565b60218252602f60f81b6040837f68747470733a2f2f6170692e61696f6e69732e78797a2f76312f6c656164657260208201520152565b6040600319820112610fbd576004359160243567ffffffffffffffff92838211610fbd5780602383011215610fbd578160040135938411610fbd5760248483010111610fbd576024019190565b8181106111aa575050565b6000815560010161119f565b9190601f81116111c557505050565b6111f1926000526020600020906020601f840160051c830193106111f3575b601f0160051c019061119f565b565b90915081906111e4565b1561120457565b60405162461bcd60e51b815260206004820152602160248201527f53414d3a2063616c6c6572206973206e6f74206167656e7420706c6174666f726044820152606d60f81b6064820152608490fd5b35906001600160a01b0382168203610fbd57565b9190820391821161127457565b634e487b7160e01b600052601160045260246000fd5b91909160c052600060c0518152600160a052602060805260a0516080515260409081812060e052600360e051019360ff8554166004811015611b0f5760a05103611aca5760a08185810103126104bc576112e381611253565b946112f16080518301611253565b90848301359260808101359660018060a01b0380809a1694169387518181528560805182015286898201528960608201527fe749f5137156531ea5889480e8efebcae165f1505a891ea7654695636a1e4470608060c05192a2601e6113568a42611267565b11611a6b577328bec7e30e6faee657a03e19bf1128aad7632a00948582149586928397611a4d575b8315611a1a575b505050156119b957600260e051019167ffffffffffffffff82116119a5576113b7826113b18554610fc2565b856111b6565b8690601f831160011461193157826117f69795936101d89795936113f0938b926119265750508160011b916000199060031b1c19161790565b90555b600260ff198254161790558760e05154169760a05160e051015416918886528560805152868620916000146119005761144787516114308161102e565b600381526242555960e81b60805182015293611d5b565b9261146961146461145d620f4240809504612266565b9a42611267565b612266565b9161149961147d60ff865460a01c16612266565b9160026114908260a05189015404612266565b96015404612266565b9289519a8b967f596f7520617265206120636f70792d74726164696e67207269736b20656e67696080518901527f6e652e20526573706f6e642077697468204f4e4c5920612073696e676c6520698c8901526d0373a32b3b2b910181698981817160951b60608901527f30203d20736b69702c20312d313030203d20636f70792070657263656e746167606e89015275329037b31036b0bc1030b63637b1b0ba34b7b717050560511b608e8901526702632b0b232b91d160c51b60a489015261156d8151809260ac8b019060805101611088565b870193600560f91b948560ac8201526602a3930b2329d160cd1b60ad8201526115a18251809360b484019060805101611088565b0166102ba9a7a6a48560c91b60b482015269020b6b7bab73a24b71d160b51b60bb8201526115da8251809360c584019060805101611088565b016e102aa9a221901430b8383937bc148560891b60c58201526a02a3930b2329030b3b29d160ad1b60d482015261161c8251809360df84019060805101611088565b0161398560f11b60df8201527f466f6c6c6f776572207269736b546f6c6572616e63653a20000000000000000060e18201526116638251809360f984019060805101611088565b0192631798980560e11b60f98501527f466f6c6c6f776572206d6178416c6c6f636174696f6e3a20240000000000000060fd850152610116936116b0825180938784019060805101611088565b01928301527f466f6c6c6f77657220555344432062616c616e63653a2024000000000000000061011783015261012f916116f4825180938584019060805101611088565b019061050560f11b908201527f52756c65733a207269736b546f6c6572616e636520312d33202d3e3e206d61786101318201526a0101a181039b1b7b93297160ad1b6101518201527f7269736b546f6c6572616e636520372d3130202d3e3e2063616e20726574757261015c8201526c037103ab8103a3790189818171609d1b61017c8201527f53454c4c207472616465732073686f756c642072657475726e203020756e6c6561018982015274039b9903934b9b5aa37b632b930b731b29f1e9c171605d1b6101a98201527f526573706f6e64207769746820696e7465676572206f6e6c792e0000000000006101be820152036101b8810186520184611066565b81516080518082015261181d8161180f818601876110ab565b03601f198101835282611066565b82516322e05a0160e21b81526002600482015260806024820152906118469060848301906110ab565b3060448301526374f212cb60e11b606483015281806080519203818573037bb9c718f3f7fe5ecbdb0b600d607b527067765af180156118f6576118c6575b50507fd3e7a0095b210e7ef5b3879cf7aea23db5ec3184775333b16bcc708a15ace72590516080518152806118c160c051946080518301906110ab565b0390a3565b608051903d82116118ee575b6118dc8282611066565b60805191810103126104505780611884565b3d91506118d2565b83513d84823e3d90fd5b611447875161190e8161102e565b600481526314d1531360e21b60805182015293611d5b565b013590503880610b59565b838852608051882091601f198416895b81811061198c5750916101d897959391856117f69a98969410611972575b50505060a0519060a0511b0190556113f3565b0135600019600384901b60f8161c1916905538808061195f565b83830135855560a0516080519501949283019201611941565b634e487b7160e01b87526041600452602487fd5b5050505050600f92509260008051602061232683398151915260806111f1958360e051541695869460a05160e0510154169580519283528084518401528201526e34b93932b632bb30b73a103830b4b960891b6060820152a360c051611e8c565b73046ede9564a72571df6f5e44d0405360c0f4dcab1492509082611a43575b5050388080611385565b1490503880611a39565b73046ede9564a72571df6f5e44d0405360c0f4dcab8314935061137e565b505050505050600c92509260008051602061232683398151915260806111f1958360e051541695869460a05160e0510154169580519283528084518401528201526b1cdd185b19481cda59db985b60a21b6060820152a360c051611e8c565b825162461bcd60e51b81526080516004820152601a60248201527f53414d3a20756e657870656374656420776174636865722063620000000000006044820152606490fd5b634e487b7160e01b83526021600452602483fd5b90816020910312610fbd57518015158103610fbd5790565b15611b4257565b60405162461bcd60e51b815260206004820152601360248201527214d0534e8819195c1bdcda5d0819985a5b1959606a1b6044820152606490fd5b9190820180921161127457565b919091600091818352600160205260409384842090600382019260ff8454166004811015611ce557600203611ca1578160209181010312610411573560ff81169485820361045057506064909411611c98575b60ff8416600a81109160018060a01b0390818154169384877f822a77c1206275a8317399c6767734ce30774ff289de39a882aebe1bd663f3568b805188815285156020820152a3611c4157505050506111f19350600360ff19825416179055611f19565b8396506111f1979450916015608092600160008051602061232683398151915295015416958051928352806020840152820152741cd8dbdc994818995b1bddc81d1a1c995cda1bdb19605a1b6060820152a3611e8c565b60649350611bdd565b865162461bcd60e51b815260206004820152601d60248201527f53414d3a20756e657870656374656420737472617465676973742063620000006044820152606490fd5b634e487b7160e01b87526021600452602487fd5b6001600160a01b0316600090815260026020526040812054908115611d2e5760036040828460ff945260016020522001541691565b91829150565b908151811015611d45570160200190565b634e487b7160e01b600052603260045260246000fd5b604051906bffffffffffffffffffffffff199060601b1660208201526014808252611d858261102e565b60405190611d928261102e565b601082526f181899199a1a9b1b9c1cb0b131b232b360811b602083015260405192611dbc8461104a565b602a8452602084016040368237845115611d45576030905383519260019360011015611d45576078602186015360005b838110611dfb57505050505090565b6001600160f81b03199081611e1d611e138387611d34565b5160fc1c85611d34565b51169181871b926002908385048214841517156112745784820180921161127457611e4c9060001a918a611d34565b53611e67600f611e5c8488611d34565b5160f81c1685611d34565b511691600390810180911161127457611e85879360001a9189611d34565b5301611dec565b9060009182526001602052816004604082208281558260018201558260028201611eb68154610fc2565b80611edc575b5050600382015501556001600160a01b0316815260026020526040812055565b82601f8211600114611ef4575050555b823880611ebc565b9091808252611f12601f60208420940160051c84016001850161119f565b5555611eec565b600081815260016020818152604080842080546001600160a01b0390811680875286855283872095860154600287018054999a9699949894979290918881101561225c5760ff90975b16968781029080820489149015171561224857606490049788801591821561223e575b50506121e65750611f97878254611267565b905583519063095ea7b360e01b8252731582f6f3d26658f7208a799be46e34b1f366ce449160049280848301528860248301527328bec7e30e6faee657a03e19bf1128aad7632a00918b816044818a875af19081156121dc5787916121bf575b501561218657848a5416603c4201908142116121735788519360e0850185811067ffffffffffffffff821117612160578a52845273046ede9564a72571df6f5e44d0405360c0f4dcab848e01908152848a0191825260608501928352608085018c815260a086018a815260c087018b81528c5163178ca23160e31b815297518b16888b015292518a16602488015292518916604487015292516064860152915160848501525160a484015251851660c48301528a90829081885a9260e493f1948515612155578095612122575b50509360609360019997936111f19b9997937f3f88bdd6633cd54b71b7cae22eae61c3b2c6560fc2f44d5b631985520f9ad9969701612104838254611b7d565b9055808854169a8b98015416978251948552840152820152a3611e8c565b909194508982813d831161214e575b61213b8183611066565b81010312610450575051928060016120c4565b503d612131565b8651903d90823e3d90fd5b634e487b7160e01b8a526041885260248afd5b634e487b7160e01b885260118652602488fd5b865162461bcd60e51b81528085018c9052601360248201527214d0534e88185c1c1c9bdd994819985a5b1959606a1b6044820152606490fd5b6121d691508c8d3d1061030b576102fd8183611066565b38611ff7565b88513d89823e3d90fd5b9896505050608091509260148360008051602061232683398151915294899660016111f19c9a01541697815194855284015282015273696e73756666696369656e742062616c616e636560601b6060820152a3611e8c565b1090508838611f85565b634e487b7160e01b86526011600452602486fd5b5060ff8897611f62565b80156123075780816000925b6122ef575080612281836110f3565b9261228f6040519485611066565b808452601f1961229e826110f3565b01366020860137905b6122b057505090565b8015611274576000190190600a90603082820681018091116112745760f81b6001600160f81b03191660001a6122e68486611d34565b530490816122a7565b916000198114611274576001600a9101920480612272565b506040516123148161102e565b60018152600360fc1b60208201529056fee1eb86b493665260f23a08f75ecd7e5de3b75eb90129dbc0741d062961d43095a26469706673582212202cf716b83f444c155ce9bb0b17e17fc9571b8333b4ab8eaad4eeb6d610d501bc64736f6c63430008180033",
  "linkReferences": {},
  "deployedLinkReferences": {}
}