{"contracts/AionisAgentManager.sol":{"AionisAgentManager":{"abi":[{"anonymous":false,"inputs":[{"indexed":true,"internalType":"address","name":"follower","type":"address"},{"indexed":true,"internalType":"address","name":"leader","type":"address"},{"indexed":false,"internalType":"uint256","name":"usdcSpent","type":"uint256"},{"indexed":false,"internalType":"uint256","name":"wsomiReceived","type":"uint256"},{"indexed":false,"internalType":"uint8","name":"copyScore","type":"uint8"}],"name":"CopyTradeExecuted","type":"event"},{"anonymous":false,"inputs":[{"indexed":true,"internalType":"address","name":"follower","type":"address"},{"indexed":true,"internalType":"address","name":"leader","type":"address"},{"indexed":false,"internalType":"uint8","name":"copyScore","type":"uint8"},{"indexed":false,"internalType":"string","name":"reason","type":"string"}],"name":"CopyTradeSkipped","type":"event"},{"anonymous":false,"inputs":[{"indexed":true,"internalType":"address","name":"follower","type":"address"},{"indexed":true,"internalType":"address","name":"leader","type":"address"},{"indexed":false,"internalType":"uint8","name":"riskTolerance","type":"uint8"},{"indexed":false,"internalType":"uint256","name":"maxAllocationUsdc","type":"uint256"}],"name":"FollowingStarted","type":"event"},{"anonymous":false,"inputs":[{"indexed":true,"internalType":"address","name":"follower","type":"address"},{"indexed":true,"internalType":"address","name":"leader","type":"address"}],"name":"FollowingStopped","type":"event"},{"anonymous":false,"inputs":[{"indexed":true,"internalType":"address","name":"follower","type":"address"},{"indexed":false,"internalType":"uint256","name":"amount","type":"uint256"}],"name":"FundsDeposited","type":"event"},{"anonymous":false,"inputs":[{"indexed":true,"internalType":"address","name":"follower","type":"address"},{"indexed":false,"internalType":"uint256","name":"amount","type":"uint256"}],"name":"FundsWithdrawn","type":"event"},{"anonymous":false,"inputs":[{"indexed":true,"internalType":"bytes32","name":"requestId","type":"bytes32"},{"indexed":true,"internalType":"address","name":"follower","type":"address"},{"indexed":false,"internalType":"string","name":"prompt","type":"string"}],"name":"StrategistRequestSent","type":"event"},{"anonymous":false,"inputs":[{"indexed":true,"internalType":"bytes32","name":"requestId","type":"bytes32"},{"indexed":true,"internalType":"address","name":"follower","type":"address"},{"indexed":false,"internalType":"uint8","name":"copyScore","type":"uint8"},{"indexed":false,"internalType":"bool","name":"willExecute","type":"bool"}],"name":"StrategistResponseReceived","type":"event"},{"anonymous":false,"inputs":[{"indexed":true,"internalType":"bytes32","name":"requestId","type":"bytes32"},{"indexed":true,"internalType":"address","name":"follower","type":"address"},{"indexed":true,"internalType":"address","name":"leader","type":"address"}],"name":"WatcherRequestSent","type":"event"},{"anonymous":false,"inputs":[{"indexed":true,"internalType":"bytes32","name":"requestId","type":"bytes32"},{"indexed":false,"internalType":"address","name":"tokenIn","type":"address"},{"indexed":false,"internalType":"address","name":"tokenOut","type":"address"},{"indexed":false,"internalType":"uint256","name":"amountIn","type":"uint256"},{"indexed":false,"internalType":"uint256","name":"tradeTimestamp","type":"uint256"}],"name":"WatcherResponseReceived","type":"event"},{"inputs":[],"name":"AGENT_PLATFORM","outputs":[{"internalType":"address","name":"","type":"address"}],"stateMutability":"view","type":"function"},{"inputs":[],"name":"AIONIS_API","outputs":[{"internalType":"string","name":"","type":"string"}],"stateMutability":"view","type":"function"},{"inputs":[],"name":"JSON_API_AGENT_ID","outputs":[{"internalType":"uint256","name":"","type":"uint256"}],"stateMutability":"view","type":"function"},{"inputs":[],"name":"LLM_AGENT_ID","outputs":[{"internalType":"uint256","name":"","type":"uint256"}],"stateMutability":"view","type":"function"},{"inputs":[],"name":"MAX_TRADE_AGE","outputs":[{"internalType":"uint256","name":"","type":"uint256"}],"stateMutability":"view","type":"function"},{"inputs":[],"name":"MIN_EXECUTE_SCORE","outputs":[{"internalType":"uint8","name":"","type":"uint8"}],"stateMutability":"view","type":"function"},{"inputs":[],"name":"QUICKSWAP_ROUTER","outputs":[{"internalType":"address","name":"","type":"address"}],"stateMutability":"view","type":"function"},{"inputs":[],"name":"USDCE","outputs":[{"internalType":"address","name":"","type":"address"}],"stateMutability":"view","type":"function"},{"inputs":[],"name":"WSOMI","outputs":[{"internalType":"address","name":"","type":"address"}],"stateMutability":"view","type":"function"},{"inputs":[{"internalType":"address","name":"","type":"address"}],"name":"activeRequest","outputs":[{"internalType":"bytes32","name":"","type":"bytes32"}],"stateMutability":"view","type":"function"},{"inputs":[{"internalType":"address","name":"follower","type":"address"}],"name":"checkLeaderActivity","outputs":[],"stateMutability":"payable","type":"function"},{"inputs":[{"internalType":"uint256","name":"amount","type":"uint256"}],"name":"deposit","outputs":[],"stateMutability":"nonpayable","type":"function"},{"inputs":[{"internalType":"address","name":"follower","type":"address"}],"name":"getProfile","outputs":[{"components":[{"internalType":"address","name":"leader","type":"address"},{"internalType":"uint8","name":"riskTolerance","type":"uint8"},{"internalType":"uint256","name":"maxAllocationUsdc","type":"uint256"},{"internalType":"uint256","name":"depositedUsdc","type":"uint256"},{"internalType":"bool","name":"active","type":"bool"},{"internalType":"uint256","name":"openPositionWsomi","type":"uint256"}],"internalType":"struct AionisAgentManager.FollowerProfile","name":"","type":"tuple"}],"stateMutability":"view","type":"function"},{"inputs":[{"internalType":"address","name":"follower","type":"address"}],"name":"getRequestStage","outputs":[{"internalType":"enum AionisAgentManager.RequestStage","name":"stage","type":"uint8"},{"internalType":"bytes32","name":"requestId","type":"bytes32"}],"stateMutability":"view","type":"function"},{"inputs":[{"internalType":"bytes32","name":"requestId","type":"bytes32"},{"internalType":"bytes","name":"response","type":"bytes"}],"name":"onStrategistResponse","outputs":[],"stateMutability":"nonpayable","type":"function"},{"inputs":[{"internalType":"bytes32","name":"requestId","type":"bytes32"},{"internalType":"bytes","name":"response","type":"bytes"}],"name":"onWatcherResponse","outputs":[],"stateMutability":"nonpayable","type":"function"},{"inputs":[{"internalType":"bytes32","name":"","type":"bytes32"}],"name":"pendingRequests","outputs":[{"internalType":"address","name":"follower","type":"address"},{"internalType":"address","name":"leader","type":"address"},{"internalType":"bytes","name":"tradeData","type":"bytes"},{"internalType":"enum AionisAgentManager.RequestStage","name":"stage","type":"uint8"},{"internalType":"uint256","name":"createdAt","type":"uint256"}],"stateMutability":"view","type":"function"},{"inputs":[{"internalType":"address","name":"","type":"address"}],"name":"profiles","outputs":[{"internalType":"address","name":"leader","type":"address"},{"internalType":"uint8","name":"riskTolerance","type":"uint8"},{"internalType":"uint256","name":"maxAllocationUsdc","type":"uint256"},{"internalType":"uint256","name":"depositedUsdc","type":"uint256"},{"internalType":"bool","name":"active","type":"bool"},{"internalType":"uint256","name":"openPositionWsomi","type":"uint256"}],"stateMutability":"view","type":"function"},{"inputs":[{"internalType":"address","name":"leader","type":"address"},{"internalType":"uint8","name":"riskTolerance","type":"uint8"},{"internalType":"uint256","name":"maxAllocationUsdc","type":"uint256"},{"internalType":"uint256","name":"initialDeposit","type":"uint256"}],"name":"startFollowing","outputs":[],"stateMutability":"nonpayable","type":"function"},{"inputs":[],"name":"stopFollowing","outputs":[],"stateMutability":"nonpayable","type":"function"},{"stateMutability":"payable","type":"receive"}],"evm":{"bytecode":{"linkReferences":{},"object":"608080604052346100165761237b908161001c8239f35b600080fdfe6101006040818152600480361015610022575b505050361561002057600080fd5b005b600092833560e01c908163011f8b1b14610f8c575080630f53a47014610eb1578063195187e114610e825780631e13c6c314610e665780632795ad2014610d565780632e90c1a914610d3a578063503ee6301461091257806382cb455b146108dd5780638b50817b146108a65780639530b30f1461088a578063b6b55f2514610757578063b765e313146105cc578063bbe1562714610556578063c2c779381461051e578063d0919116146104ef578063d5a53bbb146104c0578063e55ee7eb1461048d578063e9e4259614610453578063f4cce57e146104195763fdb1e58b03610012573461041557608036600319011261041557610120610fa7565b916024359060ff8216809203610411576001600160a01b0393841692604435906064359085156103d8573386146103955760018510158061038a575b1561035657821561031c57878261022a575b7fa632ff4f31efe35c19d3dfe479239a82e9f487e3b437687615d4d25a0a71ba6095969785519361019e85610ffc565b8985526020850189815287860190878252606087019283526080870193600185528960a0890196808852338152806020522097511687549160ff60a01b905160a01b16916affffffffffffffffffffff60a81b1617178655516001860155516002850155600384019051151560ff8019835416911617905551910155815193845260208401523392a380f35b84516323b872dd60e01b8152338382019081523060208281019190915260408201869052919991908a9081906060010381857328bec7e30e6faee657a03e19bf1128aad7632a005af1988915610312577fa632ff4f31efe35c19d3dfe479239a82e9f487e3b437687615d4d25a0a71ba609798996102af9184916102e3575b50611b3b565b85518481527f543ba50a5eec5e6178218e364b1d0f396157b3c8fa278522c2cb7fd99407d47460203392a29796955061016e565b610305915060203d60201161030b575b6102fd8183611066565b810190611b23565b386102a9565b503d6102f3565b86513d84823e3d90fd5b606490602085519162461bcd60e51b8352820152601460248201527329a0a69d103d32b9379030b63637b1b0ba34b7b760611b6044820152fd5b606490602085519162461bcd60e51b8352820152600e60248201526d053414d3a207269736b20312d31360941b6044820152fd5b50600a85111561015c565b606490602085519162461bcd60e51b8352820152601b60248201527f53414d3a2063616e6e6f7420666f6c6c6f7720796f757273656c6600000000006044820152fd5b606490602085519162461bcd60e51b8352820152601360248201527229a0a69d1034b73b30b634b2103632b0b232b960691b6044820152fd5b8480fd5b8280fd5b828434610450576020366003190112610450575061043d610438610fa7565b611cf9565b610449835180936110d0565b6020820152f35b80fd5b83346104505761048a61046536611152565b9161048573037bb9c718f3f7fe5ecbdb0b600d607b5270677633146111fd565b611b8a565b80f35b5050346104bc57816003193601126104bc576020905173037bb9c718f3f7fe5ecbdb0b600d607b527067768152f35b5080fd5b5050346104bc57816003193601126104bc576020905173046ede9564a72571df6f5e44d0405360c0f4dcab8152f35b5050346104bc57816003193601126104bc5760209051731582f6f3d26658f7208a799be46e34b1f366ce448152f35b5050346104bc5760203660031901126104bc5760209181906001600160a01b03610546610fa7565b1681526002845220549051908152f35b509190346104bc5760203660031901126104bc5760c0926001600160a01b0392829084610581610fa7565b16815280602052209081549260018301549060ff60028501549381600387015416950154958251978116885260a01c16602087015285015260608401521515608083015260a0820152f35b503461041557826003193601126104155733835260208381528284209260038401805460ff81161561071f5760ff191690556002840192858454945583610643575b845486906001600160a01b0316337f56fe74051b56c316f13ccdc09e12c003dd7a1d971132b7a360099c9c9373bf8c8380a380f35b815163a9059cbb60e01b815233828201526024810185905283816044818a7328bec7e30e6faee657a03e19bf1128aad7632a005af19081156107155787916106f8575b50156106c05750907feaff4b37086828766ad3268786972c0cd24259d4c87a80f9d3963a3c3d999b0d91519283523392a23880808061060e565b82606492519162461bcd60e51b8352820152601460248201527314d0534e881dda5d1a191c985dc819985a5b195960621b6044820152fd5b61070f9150843d861161030b576102fd8183611066565b38610686565b83513d89823e3d90fd5b50505162461bcd60e51b815291820152601260248201527153414d3a206e6f7420666f6c6c6f77696e6760701b604482015260649150fd5b5034610415576020806003193601126108865781359133855284825260ff6003858720015416156108455783516323b872dd60e01b81523391810191825230602083015260408201849052908290829081906060010381887328bec7e30e6faee657a03e19bf1128aad7632a005af190811561083b577f543ba50a5eec5e6178218e364b1d0f396157b3c8fa278522c2cb7fd99407d4749394916108019187916108245750611b3b565b338552848252600281862001610818858254611b7d565b9055519283523392a280f35b6103059150843d861161030b576102fd8183611066565b84513d87823e3d90fd5b60649184519162461bcd60e51b8352820152601a60248201527f53414d3a20737461727420666f6c6c6f77696e672066697273740000000000006044820152fd5b8380fd5b5050346104bc57816003193601126104bc5760209051601e8152f35b83346104505761048a6108b836611152565b916108d873037bb9c718f3f7fe5ecbdb0b600d607b5270677633146111fd565b61128a565b5050346104bc57816003193601126104bc5761090e906108fb61110f565b90519182916020835260208301906110ab565b0390f35b5090602080600319360112610886576001600160a01b039081610933610fa7565b16928386528582528086209160ff60038401541615610cff578487526002815281872054610cbd576109ff61096661110f565b966109c7602c61097888885416611d5b565b9986519a816109908d935180928a8087019101611088565b82016109a4825180938a8085019101611088565b016b02f6c61746573742d737761760a41b8782015203600c81018b520189611066565b610a1d8451986109d68a61102e565b60068a52650242e737761760d41b858b0152610a118651948592888885015260608401906110ab565b601f199b8c84830301898501526110ab565b03898101845283611066565b8351976322e05a0160e21b8952838980610a4960019687878401526080602484015260848301906110ab565b306044830152638b50817b60e01b606483015203813473037bb9c718f3f7fe5ecbdb0b600d607b527067765af1988915610cb3578a99610c80575b50868654169085519360a085019067ffffffffffffffff9186811083821117610c6d5788528a865286860193845287519387850185811084821117610c5a57918d9593918f95938b528585528a89019485528c8b60608b019784895260808c0199428b528152848d52209951166bffffffffffffffffffffffff60a01b90818b5416178a558d838b0192511690825416179055600288019351908151928311610c46578f90610b3d84610b378854610fc2565b886111b6565b8a94601f8511600114610be6575050928291610b6e9492610bdb575b50508160011b916000199060031b1c19161790565b90555b60038401905183811015610bc857815460ff191660ff91909116179055519101558487526002905285208490555416917fcf5049019cf7659010e4a5f9638f071339a89fc1f0f77be053ee91034cdadcf98480a480f35b634e487b7160e01b8c526021845260248cfd5b015190503880610b59565b8490819693949296168785528c8520945b8d88838310610c2f5750505010610c16575b505050811b019055610b71565b015160001960f88460031b161c19169055388080610c09565b868601518855909601959485019487935001610bf7565b50634e487b7160e01b8f526041875260248ffd5b634e487b7160e01b8f526041875260248ffd5b634e487b7160e01b8e526041865260248efd5b9098508381813d8311610cac575b610c988183611066565b81010312610ca857519738610a84565b8980fd5b503d610c8e565b85513d8c823e3d90fd5b8590606492519162461bcd60e51b8352820152601e60248201527f53414d3a207265717565737420616c726561647920696e20666c6967687400006044820152fd5b8590606492519162461bcd60e51b8352820152601660248201527553414d3a20666f6c6c6f77657220696e61637469766560501b6044820152fd5b5050346104bc57816003193601126104bc576020905160028152f35b5090346104155760209283600319360112610450578235815260018085528282209260018060a01b0394858554169560018601541693876002870184519583825492610da184610fc2565b808a529360018116908115610e435750600114610e0c575b5050505050610df8928492610dd5610e039660a0940385611066565b60ff600389015416970154958151998a998a5289015287015260a08601906110ab565b9260608501906110d0565b60808301520390f35b9080949550528383205b828410610e30575050508401018782610dd58660a0610db9565b8054888501860152928401928101610e16565b60ff1916868b015250505050151560051b85010190508782610dd58660a0610db9565b5050346104bc57816003193601126104bc5760209051600a8152f35b5050346104bc57816003193601126104bc57602090517328bec7e30e6faee657a03e19bf1128aad7632a008152f35b509190346104bc5760203660031901126104bc5760c09281610ed1610fa7565b938060a08351610ee081610ffc565b8281528260208201528285820152826060820152826080820152015260018060a01b038095168152806020522090825192610f1a84610ffc565b82549485169485855260ff602086019160a01c16815260ff60018501549183870192835260a060028701549560608901968752836003890154169760808a01981515895201549701968752835197885251166020870152519085015251606084015251151560808301525160a0820152f35b8490346104bc57816003193601126104bc5780600160209252f35b600435906001600160a01b0382168203610fbd57565b600080fd5b90600182811c92168015610ff2575b6020831014610fdc57565b634e487b7160e01b600052602260045260246000fd5b91607f1691610fd1565b60c0810190811067ffffffffffffffff82111761101857604052565b634e487b7160e01b600052604160045260246000fd5b6040810190811067ffffffffffffffff82111761101857604052565b6060810190811067ffffffffffffffff82111761101857604052565b90601f8019910116810190811067ffffffffffffffff82111761101857604052565b60005b83811061109b5750506000910152565b818101518382015260200161108b565b906020916110c481518092818552858086019101611088565b601f01601f1916010190565b9060048210156110dd5752565b634e487b7160e01b600052602160045260246000fd5b67ffffffffffffffff811161101857601f01601f191660200190565b6040519061111c8261104a565b60218252602f60f81b6040837f68747470733a2f2f6170692e61696f6e69732e78797a2f76312f6c656164657260208201520152565b6040600319820112610fbd576004359160243567ffffffffffffffff92838211610fbd5780602383011215610fbd578160040135938411610fbd5760248483010111610fbd576024019190565b8181106111aa575050565b6000815560010161119f565b9190601f81116111c557505050565b6111f1926000526020600020906020601f840160051c830193106111f3575b601f0160051c019061119f565b565b90915081906111e4565b1561120457565b60405162461bcd60e51b815260206004820152602160248201527f53414d3a2063616c6c6572206973206e6f74206167656e7420706c6174666f726044820152606d60f81b6064820152608490fd5b35906001600160a01b0382168203610fbd57565b9190820391821161127457565b634e487b7160e01b600052601160045260246000fd5b91909160c052600060c0518152600160a052602060805260a0516080515260409081812060e052600360e051019360ff8554166004811015611b0f5760a05103611aca5760a08185810103126104bc576112e381611253565b946112f16080518301611253565b90848301359260808101359660018060a01b0380809a1694169387518181528560805182015286898201528960608201527fe749f5137156531ea5889480e8efebcae165f1505a891ea7654695636a1e4470608060c05192a2601e6113568a42611267565b11611a6b577328bec7e30e6faee657a03e19bf1128aad7632a00948582149586928397611a4d575b8315611a1a575b505050156119b957600260e051019167ffffffffffffffff82116119a5576113b7826113b18554610fc2565b856111b6565b8690601f831160011461193157826117f69795936101d89795936113f0938b926119265750508160011b916000199060031b1c19161790565b90555b600260ff198254161790558760e05154169760a05160e051015416918886528560805152868620916000146119005761144787516114308161102e565b600381526242555960e81b60805182015293611d5b565b9261146961146461145d620f4240809504612266565b9a42611267565b612266565b9161149961147d60ff865460a01c16612266565b9160026114908260a05189015404612266565b96015404612266565b9289519a8b967f596f7520617265206120636f70792d74726164696e67207269736b20656e67696080518901527f6e652e20526573706f6e642077697468204f4e4c5920612073696e676c6520698c8901526d0373a32b3b2b910181698981817160951b60608901527f30203d20736b69702c20312d313030203d20636f70792070657263656e746167606e89015275329037b31036b0bc1030b63637b1b0ba34b7b717050560511b608e8901526702632b0b232b91d160c51b60a489015261156d8151809260ac8b019060805101611088565b870193600560f91b948560ac8201526602a3930b2329d160cd1b60ad8201526115a18251809360b484019060805101611088565b0166102ba9a7a6a48560c91b60b482015269020b6b7bab73a24b71d160b51b60bb8201526115da8251809360c584019060805101611088565b016e102aa9a221901430b8383937bc148560891b60c58201526a02a3930b2329030b3b29d160ad1b60d482015261161c8251809360df84019060805101611088565b0161398560f11b60df8201527f466f6c6c6f776572207269736b546f6c6572616e63653a20000000000000000060e18201526116638251809360f984019060805101611088565b0192631798980560e11b60f98501527f466f6c6c6f776572206d6178416c6c6f636174696f6e3a20240000000000000060fd850152610116936116b0825180938784019060805101611088565b01928301527f466f6c6c6f77657220555344432062616c616e63653a2024000000000000000061011783015261012f916116f4825180938584019060805101611088565b019061050560f11b908201527f52756c65733a207269736b546f6c6572616e636520312d33202d3e3e206d61786101318201526a0101a181039b1b7b93297160ad1b6101518201527f7269736b546f6c6572616e636520372d3130202d3e3e2063616e20726574757261015c8201526c037103ab8103a3790189818171609d1b61017c8201527f53454c4c207472616465732073686f756c642072657475726e203020756e6c6561018982015274039b9903934b9b5aa37b632b930b731b29f1e9c171605d1b6101a98201527f526573706f6e64207769746820696e7465676572206f6e6c792e0000000000006101be820152036101b8810186520184611066565b81516080518082015261181d8161180f818601876110ab565b03601f198101835282611066565b82516322e05a0160e21b81526002600482015260806024820152906118469060848301906110ab565b3060448301526374f212cb60e11b606483015281806080519203818573037bb9c718f3f7fe5ecbdb0b600d607b527067765af180156118f6576118c6575b50507fd3e7a0095b210e7ef5b3879cf7aea23db5ec3184775333b16bcc708a15ace72590516080518152806118c160c051946080518301906110ab565b0390a3565b608051903d82116118ee575b6118dc8282611066565b60805191810103126104505780611884565b3d91506118d2565b83513d84823e3d90fd5b611447875161190e8161102e565b600481526314d1531360e21b60805182015293611d5b565b013590503880610b59565b838852608051882091601f198416895b81811061198c5750916101d897959391856117f69a98969410611972575b50505060a0519060a0511b0190556113f3565b0135600019600384901b60f8161c1916905538808061195f565b83830135855560a0516080519501949283019201611941565b634e487b7160e01b87526041600452602487fd5b5050505050600f92509260008051602061232683398151915260806111f1958360e051541695869460a05160e0510154169580519283528084518401528201526e34b93932b632bb30b73a103830b4b960891b6060820152a360c051611e8c565b73046ede9564a72571df6f5e44d0405360c0f4dcab1492509082611a43575b5050388080611385565b1490503880611a39565b73046ede9564a72571df6f5e44d0405360c0f4dcab8314935061137e565b505050505050600c92509260008051602061232683398151915260806111f1958360e051541695869460a05160e0510154169580519283528084518401528201526b1cdd185b19481cda59db985b60a21b6060820152a360c051611e8c565b825162461bcd60e51b81526080516004820152601a60248201527f53414d3a20756e657870656374656420776174636865722063620000000000006044820152606490fd5b634e487b7160e01b83526021600452602483fd5b90816020910312610fbd57518015158103610fbd5790565b15611b4257565b60405162461bcd60e51b815260206004820152601360248201527214d0534e8819195c1bdcda5d0819985a5b1959606a1b6044820152606490fd5b9190820180921161127457565b919091600091818352600160205260409384842090600382019260ff8454166004811015611ce557600203611ca1578160209181010312610411573560ff81169485820361045057506064909411611c98575b60ff8416600a81109160018060a01b0390818154169384877f822a77c1206275a8317399c6767734ce30774ff289de39a882aebe1bd663f3568b805188815285156020820152a3611c4157505050506111f19350600360ff19825416179055611f19565b8396506111f1979450916015608092600160008051602061232683398151915295015416958051928352806020840152820152741cd8dbdc994818995b1bddc81d1a1c995cda1bdb19605a1b6060820152a3611e8c565b60649350611bdd565b865162461bcd60e51b815260206004820152601d60248201527f53414d3a20756e657870656374656420737472617465676973742063620000006044820152606490fd5b634e487b7160e01b87526021600452602487fd5b6001600160a01b0316600090815260026020526040812054908115611d2e5760036040828460ff945260016020522001541691565b91829150565b908151811015611d45570160200190565b634e487b7160e01b600052603260045260246000fd5b604051906bffffffffffffffffffffffff199060601b1660208201526014808252611d858261102e565b60405190611d928261102e565b601082526f181899199a1a9b1b9c1cb0b131b232b360811b602083015260405192611dbc8461104a565b602a8452602084016040368237845115611d45576030905383519260019360011015611d45576078602186015360005b838110611dfb57505050505090565b6001600160f81b03199081611e1d611e138387611d34565b5160fc1c85611d34565b51169181871b926002908385048214841517156112745784820180921161127457611e4c9060001a918a611d34565b53611e67600f611e5c8488611d34565b5160f81c1685611d34565b511691600390810180911161127457611e85879360001a9189611d34565b5301611dec565b9060009182526001602052816004604082208281558260018201558260028201611eb68154610fc2565b80611edc575b5050600382015501556001600160a01b0316815260026020526040812055565b82601f8211600114611ef4575050555b823880611ebc565b9091808252611f12601f60208420940160051c84016001850161119f565b5555611eec565b600081815260016020818152604080842080546001600160a01b0390811680875286855283872095860154600287018054999a9699949894979290918881101561225c5760ff90975b16968781029080820489149015171561224857606490049788801591821561223e575b50506121e65750611f97878254611267565b905583519063095ea7b360e01b8252731582f6f3d26658f7208a799be46e34b1f366ce449160049280848301528860248301527328bec7e30e6faee657a03e19bf1128aad7632a00918b816044818a875af19081156121dc5787916121bf575b501561218657848a5416603c4201908142116121735788519360e0850185811067ffffffffffffffff821117612160578a52845273046ede9564a72571df6f5e44d0405360c0f4dcab848e01908152848a0191825260608501928352608085018c815260a086018a815260c087018b81528c5163178ca23160e31b815297518b16888b015292518a16602488015292518916604487015292516064860152915160848501525160a484015251851660c48301528a90829081885a9260e493f1948515612155578095612122575b50509360609360019997936111f19b9997937f3f88bdd6633cd54b71b7cae22eae61c3b2c6560fc2f44d5b631985520f9ad9969701612104838254611b7d565b9055808854169a8b98015416978251948552840152820152a3611e8c565b909194508982813d831161214e575b61213b8183611066565b81010312610450575051928060016120c4565b503d612131565b8651903d90823e3d90fd5b634e487b7160e01b8a526041885260248afd5b634e487b7160e01b885260118652602488fd5b865162461bcd60e51b81528085018c9052601360248201527214d0534e88185c1c1c9bdd994819985a5b1959606a1b6044820152606490fd5b6121d691508c8d3d1061030b576102fd8183611066565b38611ff7565b88513d89823e3d90fd5b9896505050608091509260148360008051602061232683398151915294899660016111f19c9a01541697815194855284015282015273696e73756666696369656e742062616c616e636560601b6060820152a3611e8c565b1090508838611f85565b634e487b7160e01b86526011600452602486fd5b5060ff8897611f62565b80156123075780816000925b6122ef575080612281836110f3565b9261228f6040519485611066565b808452601f1961229e826110f3565b01366020860137905b6122b057505090565b8015611274576000190190600a90603082820681018091116112745760f81b6001600160f81b03191660001a6122e68486611d34565b530490816122a7565b916000198114611274576001600a9101920480612272565b506040516123148161102e565b60018152600360fc1b60208201529056fee1eb86b493665260f23a08f75ecd7e5de3b75eb90129dbc0741d062961d43095a26469706673582212202cf716b83f444c155ce9bb0b17e17fc9571b8333b4ab8eaad4eeb6d610d501bc64736f6c63430008180033","opcodes":"PUSH1 0x80 DUP1 PUSH1 0x40 MSTORE CALLVALUE PUSH2 0x16 JUMPI PUSH2 0x237B SWAP1 DUP2 PUSH2 0x1C DUP3 CODECOPY RETURN JUMPDEST PUSH1 0x0 DUP1 REVERT INVALID PUSH2 0x100 PUSH1 0x40 DUP2 DUP2 MSTORE PUSH1 0x4 DUP1 CALLDATASIZE LT ISZERO PUSH2 0x22 JUMPI JUMPDEST POP POP POP CALLDATASIZE ISZERO PUSH2 0x20 JUMPI PUSH1 0x0 DUP1 REVERT JUMPDEST STOP JUMPDEST PUSH1 0x0 SWAP3 DUP4 CALLDATALOAD PUSH1 0xE0 SHR SWAP1 DUP2 PUSH4 0x11F8B1B EQ PUSH2 0xF8C JUMPI POP DUP1 PUSH4 0xF53A470 EQ PUSH2 0xEB1 JUMPI DUP1 PUSH4 0x195187E1 EQ PUSH2 0xE82 JUMPI DUP1 PUSH4 0x1E13C6C3 EQ PUSH2 0xE66 JUMPI DUP1 PUSH4 0x2795AD20 EQ PUSH2 0xD56 JUMPI DUP1 PUSH4 0x2E90C1A9 EQ PUSH2 0xD3A JUMPI DUP1 PUSH4 0x503EE630 EQ PUSH2 0x912 JUMPI DUP1 PUSH4 0x82CB455B EQ PUSH2 0x8DD JUMPI DUP1 PUSH4 0x8B50817B EQ PUSH2 0x8A6 JUMPI DUP1 PUSH4 0x9530B30F EQ PUSH2 0x88A JUMPI DUP1 PUSH4 0xB6B55F25 EQ PUSH2 0x757 JUMPI DUP1 PUSH4 0xB765E313 EQ PUSH2 0x5CC JUMPI DUP1 PUSH4 0xBBE15627 EQ PUSH2 0x556 JUMPI DUP1 PUSH4 0xC2C77938 EQ PUSH2 0x51E JUMPI DUP1 PUSH4 0xD0919116 EQ PUSH2 0x4EF JUMPI DUP1 PUSH4 0xD5A53BBB EQ PUSH2 0x4C0 JUMPI DUP1 PUSH4 0xE55EE7EB EQ PUSH2 0x48D JUMPI DUP1 PUSH4 0xE9E42596 EQ PUSH2 0x453 JUMPI DUP1 PUSH4 0xF4CCE57E EQ PUSH2 0x419 JUMPI PUSH4 0xFDB1E58B SUB PUSH2 0x12 JUMPI CALLVALUE PUSH2 0x415 JUMPI PUSH1 0x80 CALLDATASIZE PUSH1 0x3 NOT ADD SLT PUSH2 0x415 JUMPI PUSH2 0x120 PUSH2 0xFA7 JUMP JUMPDEST SWAP2 PUSH1 0x24 CALLDATALOAD SWAP1 PUSH1 0xFF DUP3 AND DUP1 SWAP3 SUB PUSH2 0x411 JUMPI PUSH1 0x1 PUSH1 0x1 PUSH1 0xA0 SHL SUB SWAP4 DUP5 AND SWAP3 PUSH1 0x44 CALLDATALOAD SWAP1 PUSH1 0x64 CALLDATALOAD SWAP1 DUP6 ISZERO PUSH2 0x3D8 JUMPI CALLER DUP7 EQ PUSH2 0x395 JUMPI PUSH1 0x1 DUP6 LT ISZERO DUP1 PUSH2 0x38A JUMPI JUMPDEST ISZERO PUSH2 0x356 JUMPI DUP3 ISZERO PUSH2 0x31C JUMPI DUP8 DUP3 PUSH2 0x22A JUMPI JUMPDEST PUSH32 0xA632FF4F31EFE35C19D3DFE479239A82E9F487E3B437687615D4D25A0A71BA60 SWAP6 SWAP7 SWAP8 DUP6 MLOAD SWAP4 PUSH2 0x19E DUP6 PUSH2 0xFFC JUMP JUMPDEST DUP10 DUP6 MSTORE PUSH1 0x20 DUP6 ADD DUP10 DUP2 MSTORE DUP8 DUP7 ADD SWAP1 DUP8 DUP3 MSTORE PUSH1 0x60 DUP8 ADD SWAP3 DUP4 MSTORE PUSH1 0x80 DUP8 ADD SWAP4 PUSH1 0x1 DUP6 MSTORE DUP10 PUSH1 0xA0 DUP10 ADD SWAP7 DUP1 DUP9 MSTORE CALLER DUP2 MSTORE DUP1 PUSH1 0x20 MSTORE KECCAK256 SWAP8 MLOAD AND DUP8 SLOAD SWAP2 PUSH1 0xFF PUSH1 0xA0 SHL SWAP1 MLOAD PUSH1 0xA0 SHL AND SWAP2 PUSH11 0xFFFFFFFFFFFFFFFFFFFFFF PUSH1 0xA8 SHL AND OR OR DUP7 SSTORE MLOAD PUSH1 0x1 DUP7 ADD SSTORE MLOAD PUSH1 0x2 DUP6 ADD SSTORE PUSH1 0x3 DUP5 ADD SWAP1 MLOAD ISZERO ISZERO PUSH1 0xFF DUP1 NOT DUP4 SLOAD AND SWAP2 AND OR SWAP1 SSTORE MLOAD SWAP2 ADD SSTORE DUP2 MLOAD SWAP4 DUP5 MSTORE PUSH1 0x20 DUP5 ADD MSTORE CALLER SWAP3 LOG3 DUP1 RETURN JUMPDEST DUP5 MLOAD PUSH4 0x23B872DD PUSH1 0xE0 SHL DUP2 MSTORE CALLER DUP4 DUP3 ADD SWAP1 DUP2 MSTORE ADDRESS PUSH1 0x20 DUP3 DUP2 ADD SWAP2 SWAP1 SWAP2 MSTORE PUSH1 0x40 DUP3 ADD DUP7 SWAP1 MSTORE SWAP2 SWAP10 SWAP2 SWAP1 DUP11 SWAP1 DUP2 SWAP1 PUSH1 0x60 ADD SUB DUP2 DUP6 PUSH20 0x28BEC7E30E6FAEE657A03E19BF1128AAD7632A00 GAS CALL SWAP9 DUP10 ISZERO PUSH2 0x312 JUMPI PUSH32 0xA632FF4F31EFE35C19D3DFE479239A82E9F487E3B437687615D4D25A0A71BA60 SWAP8 SWAP9 SWAP10 PUSH2 0x2AF SWAP2 DUP5 SWAP2 PUSH2 0x2E3 JUMPI JUMPDEST POP PUSH2 0x1B3B JUMP JUMPDEST DUP6 MLOAD DUP5 DUP2 MSTORE PUSH32 0x543BA50A5EEC5E6178218E364B1D0F396157B3C8FA278522C2CB7FD99407D474 PUSH1 0x20 CALLER SWAP3 LOG2 SWAP8 SWAP7 SWAP6 POP PUSH2 0x16E JUMP JUMPDEST PUSH2 0x305 SWAP2 POP PUSH1 0x20 RETURNDATASIZE PUSH1 0x20 GT PUSH2 0x30B JUMPI JUMPDEST PUSH2 0x2FD DUP2 DUP4 PUSH2 0x1066 JUMP JUMPDEST DUP2 ADD SWAP1 PUSH2 0x1B23 JUMP JUMPDEST CODESIZE PUSH2 0x2A9 JUMP JUMPDEST POP RETURNDATASIZE PUSH2 0x2F3 JUMP JUMPDEST DUP7 MLOAD RETURNDATASIZE DUP5 DUP3 RETURNDATACOPY RETURNDATASIZE SWAP1 REVERT JUMPDEST PUSH1 0x64 SWAP1 PUSH1 0x20 DUP6 MLOAD SWAP2 PUSH3 0x461BCD PUSH1 0xE5 SHL DUP4 MSTORE DUP3 ADD MSTORE PUSH1 0x14 PUSH1 0x24 DUP3 ADD MSTORE PUSH20 0x29A0A69D103D32B9379030B63637B1B0BA34B7B7 PUSH1 0x61 SHL PUSH1 0x44 DUP3 ADD MSTORE REVERT JUMPDEST PUSH1 0x64 SWAP1 PUSH1 0x20 DUP6 MLOAD SWAP2 PUSH3 0x461BCD PUSH1 0xE5 SHL DUP4 MSTORE DUP3 ADD MSTORE PUSH1 0xE PUSH1 0x24 DUP3 ADD MSTORE PUSH14 0x53414D3A207269736B20312D313 PUSH1 0x94 SHL PUSH1 0x44 DUP3 ADD MSTORE REVERT JUMPDEST POP PUSH1 0xA DUP6 GT ISZERO PUSH2 0x15C JUMP JUMPDEST PUSH1 0x64 SWAP1 PUSH1 0x20 DUP6 MLOAD SWAP2 PUSH3 0x461BCD PUSH1 0xE5 SHL DUP4 MSTORE DUP3 ADD MSTORE PUSH1 0x1B PUSH1 0x24 DUP3 ADD MSTORE PUSH32 0x53414D3A2063616E6E6F7420666F6C6C6F7720796F757273656C660000000000 PUSH1 0x44 DUP3 ADD MSTORE REVERT JUMPDEST PUSH1 0x64 SWAP1 PUSH1 0x20 DUP6 MLOAD SWAP2 PUSH3 0x461BCD PUSH1 0xE5 SHL DUP4 MSTORE DUP3 ADD MSTORE PUSH1 0x13 PUSH1 0x24 DUP3 ADD MSTORE PUSH19 0x29A0A69D1034B73B30B634B2103632B0B232B9 PUSH1 0x69 SHL PUSH1 0x44 DUP3 ADD MSTORE REVERT JUMPDEST DUP5 DUP1 REVERT JUMPDEST DUP3 DUP1 REVERT JUMPDEST DUP3 DUP5 CALLVALUE PUSH2 0x450 JUMPI PUSH1 0x20 CALLDATASIZE PUSH1 0x3 NOT ADD SLT PUSH2 0x450 JUMPI POP PUSH2 0x43D PUSH2 0x438 PUSH2 0xFA7 JUMP JUMPDEST PUSH2 0x1CF9 JUMP JUMPDEST PUSH2 0x449 DUP4 MLOAD DUP1 SWAP4 PUSH2 0x10D0 JUMP JUMPDEST PUSH1 0x20 DUP3 ADD MSTORE RETURN JUMPDEST DUP1 REVERT JUMPDEST DUP4 CALLVALUE PUSH2 0x450 JUMPI PUSH2 0x48A PUSH2 0x465 CALLDATASIZE PUSH2 0x1152 JUMP JUMPDEST SWAP2 PUSH2 0x485 PUSH20 0x37BB9C718F3F7FE5ECBDB0B600D607B52706776 CALLER EQ PUSH2 0x11FD JUMP JUMPDEST PUSH2 0x1B8A JUMP JUMPDEST DUP1 RETURN JUMPDEST POP POP CALLVALUE PUSH2 0x4BC JUMPI DUP2 PUSH1 0x3 NOT CALLDATASIZE ADD SLT PUSH2 0x4BC JUMPI PUSH1 0x20 SWAP1 MLOAD PUSH20 0x37BB9C718F3F7FE5ECBDB0B600D607B52706776 DUP2 MSTORE RETURN JUMPDEST POP DUP1 REVERT JUMPDEST POP POP CALLVALUE PUSH2 0x4BC JUMPI DUP2 PUSH1 0x3 NOT CALLDATASIZE ADD SLT PUSH2 0x4BC JUMPI PUSH1 0x20 SWAP1 MLOAD PUSH20 0x46EDE9564A72571DF6F5E44D0405360C0F4DCAB DUP2 MSTORE RETURN JUMPDEST POP POP CALLVALUE PUSH2 0x4BC JUMPI DUP2 PUSH1 0x3 NOT CALLDATASIZE ADD SLT PUSH2 0x4BC JUMPI PUSH1 0x20 SWAP1 MLOAD PUSH20 0x1582F6F3D26658F7208A799BE46E34B1F366CE44 DUP2 MSTORE RETURN JUMPDEST POP POP CALLVALUE PUSH2 0x4BC JUMPI PUSH1 0x20 CALLDATASIZE PUSH1 0x3 NOT ADD SLT PUSH2 0x4BC JUMPI PUSH1 0x20 SWAP2 DUP2 SWAP1 PUSH1 0x1 PUSH1 0x1 PUSH1 0xA0 SHL SUB PUSH2 0x546 PUSH2 0xFA7 JUMP JUMPDEST AND DUP2 MSTORE PUSH1 0x2 DUP5 MSTORE KECCAK256 SLOAD SWAP1 MLOAD SWAP1 DUP2 MSTORE RETURN JUMPDEST POP SWAP2 SWAP1 CALLVALUE PUSH2 0x4BC JUMPI PUSH1 0x20 CALLDATASIZE PUSH1 0x3 NOT ADD SLT PUSH2 0x4BC JUMPI PUSH1 0xC0 SWAP3 PUSH1 0x1 PUSH1 0x1 PUSH1 0xA0 SHL SUB SWAP3 DUP3 SWAP1 DUP5 PUSH2 0x581 PUSH2 0xFA7 JUMP JUMPDEST AND DUP2 MSTORE DUP1 PUSH1 0x20 MSTORE KECCAK256 SWAP1 DUP2 SLOAD SWAP3 PUSH1 0x1 DUP4 ADD SLOAD SWAP1 PUSH1 0xFF PUSH1 0x2 DUP6 ADD SLOAD SWAP4 DUP2 PUSH1 0x3 DUP8 ADD SLOAD AND SWAP6 ADD SLOAD SWAP6 DUP3 MLOAD SWAP8 DUP2 AND DUP9 MSTORE PUSH1 0xA0 SHR AND PUSH1 0x20 DUP8 ADD MSTORE DUP6 ADD MSTORE PUSH1 0x60 DUP5 ADD MSTORE ISZERO ISZERO PUSH1 0x80 DUP4 ADD MSTORE PUSH1 0xA0 DUP3 ADD MSTORE RETURN JUMPDEST POP CALLVALUE PUSH2 0x415 JUMPI DUP3 PUSH1 0x3 NOT CALLDATASIZE ADD SLT PUSH2 0x415 JUMPI CALLER DUP4 MSTORE PUSH1 0x20 DUP4 DUP2 MSTORE DUP3 DUP5 KECCAK256 SWAP3 PUSH1 0x3 DUP5 ADD DUP1 SLOAD PUSH1 0xFF DUP2 AND ISZERO PUSH2 0x71F JUMPI PUSH1 0xFF NOT AND SWAP1 SSTORE PUSH1 0x2 DUP5 ADD SWAP3 DUP6 DUP5 SLOAD SWAP5 SSTORE DUP4 PUSH2 0x643 JUMPI JUMPDEST DUP5 SLOAD DUP7 SWAP1 PUSH1 0x1 PUSH1 0x1 PUSH1 0xA0 SHL SUB AND CALLER PUSH32 0x56FE74051B56C316F13CCDC09E12C003DD7A1D971132B7A360099C9C9373BF8C DUP4 DUP1 LOG3 DUP1 RETURN JUMPDEST DUP2 MLOAD PUSH4 0xA9059CBB PUSH1 0xE0 SHL DUP2 MSTORE CALLER DUP3 DUP3 ADD MSTORE PUSH1 0x24 DUP2 ADD DUP6 SWAP1 MSTORE DUP4 DUP2 PUSH1 0x44 DUP2 DUP11 PUSH20 0x28BEC7E30E6FAEE657A03E19BF1128AAD7632A00 GAS CALL SWAP1 DUP2 ISZERO PUSH2 0x715 JUMPI DUP8 SWAP2 PUSH2 0x6F8 JUMPI JUMPDEST POP ISZERO PUSH2 0x6C0 JUMPI POP SWAP1 PUSH32 0xEAFF4B37086828766AD3268786972C0CD24259D4C87A80F9D3963A3C3D999B0D SWAP2 MLOAD SWAP3 DUP4 MSTORE CALLER SWAP3 LOG2 CODESIZE DUP1 DUP1 DUP1 PUSH2 0x60E JUMP JUMPDEST DUP3 PUSH1 0x64 SWAP3 MLOAD SWAP2 PUSH3 0x461BCD PUSH1 0xE5 SHL DUP4 MSTORE DUP3 ADD MSTORE PUSH1 0x14 PUSH1 0x24 DUP3 ADD MSTORE PUSH20 0x14D0534E881DDA5D1A191C985DC819985A5B1959 PUSH1 0x62 SHL PUSH1 0x44 DUP3 ADD MSTORE REVERT JUMPDEST PUSH2 0x70F SWAP2 POP DUP5 RETURNDATASIZE DUP7 GT PUSH2 0x30B JUMPI PUSH2 0x2FD DUP2 DUP4 PUSH2 0x1066 JUMP JUMPDEST CODESIZE PUSH2 0x686 JUMP JUMPDEST DUP4 MLOAD RETURNDATASIZE DUP10 DUP3 RETURNDATACOPY RETURNDATASIZE SWAP1 REVERT JUMPDEST POP POP MLOAD PUSH3 0x461BCD PUSH1 0xE5 SHL DUP2 MSTORE SWAP2 DUP3 ADD MSTORE PUSH1 0x12 PUSH1 0x24 DUP3 ADD MSTORE PUSH18 0x53414D3A206E6F7420666F6C6C6F77696E67 PUSH1 0x70 SHL PUSH1 0x44 DUP3 ADD MSTORE PUSH1 0x64 SWAP2 POP REVERT JUMPDEST POP CALLVALUE PUSH2 0x415 JUMPI PUSH1 0x20 DUP1 PUSH1 0x3 NOT CALLDATASIZE ADD SLT PUSH2 0x886 JUMPI DUP2 CALLDATALOAD SWAP2 CALLER DUP6 MSTORE DUP5 DUP3 MSTORE PUSH1 0xFF PUSH1 0x3 DUP6 DUP8 KECCAK256 ADD SLOAD AND ISZERO PUSH2 0x845 JUMPI DUP4 MLOAD PUSH4 0x23B872DD PUSH1 0xE0 SHL DUP2 MSTORE CALLER SWAP2 DUP2 ADD SWAP2 DUP3 MSTORE ADDRESS PUSH1 0x20 DUP4 ADD MSTORE PUSH1 0x40 DUP3 ADD DUP5 SWAP1 MSTORE SWAP1 DUP3 SWAP1 DUP3 SWAP1 DUP2 SWAP1 PUSH1 0x60 ADD SUB DUP2 DUP9 PUSH20 0x28BEC7E30E6FAEE657A03E19BF1128AAD7632A00 GAS CALL SWAP1 DUP2 ISZERO PUSH2 0x83B JUMPI PUSH32 0x543BA50A5EEC5E6178218E364B1D0F396157B3C8FA278522C2CB7FD99407D474 SWAP4 SWAP5 SWAP2 PUSH2 0x801 SWAP2 DUP8 SWAP2 PUSH2 0x824 JUMPI POP PUSH2 0x1B3B JUMP JUMPDEST CALLER DUP6 MSTORE DUP5 DUP3 MSTORE PUSH1 0x2 DUP2 DUP7 KECCAK256 ADD PUSH2 0x818 DUP6 DUP3 SLOAD PUSH2 0x1B7D JUMP JUMPDEST SWAP1 SSTORE MLOAD SWAP3 DUP4 MSTORE CALLER SWAP3 LOG2 DUP1 RETURN JUMPDEST PUSH2 0x305 SWAP2 POP DUP5 RETURNDATASIZE DUP7 GT PUSH2 0x30B JUMPI PUSH2 0x2FD DUP2 DUP4 PUSH2 0x1066 JUMP JUMPDEST DUP5 MLOAD RETURNDATASIZE DUP8 DUP3 RETURNDATACOPY RETURNDATASIZE SWAP1 REVERT JUMPDEST PUSH1 0x64 SWAP2 DUP5 MLOAD SWAP2 PUSH3 0x461BCD PUSH1 0xE5 SHL DUP4 MSTORE DUP3 ADD MSTORE PUSH1 0x1A PUSH1 0x24 DUP3 ADD MSTORE PUSH32 0x53414D3A20737461727420666F6C6C6F77696E67206669727374000000000000 PUSH1 0x44 DUP3 ADD MSTORE REVERT JUMPDEST DUP4 DUP1 REVERT JUMPDEST POP POP CALLVALUE PUSH2 0x4BC JUMPI DUP2 PUSH1 0x3 NOT CALLDATASIZE ADD SLT PUSH2 0x4BC JUMPI PUSH1 0x20 SWAP1 MLOAD PUSH1 0x1E DUP2 MSTORE RETURN JUMPDEST DUP4 CALLVALUE PUSH2 0x450 JUMPI PUSH2 0x48A PUSH2 0x8B8 CALLDATASIZE PUSH2 0x1152 JUMP JUMPDEST SWAP2 PUSH2 0x8D8 PUSH20 0x37BB9C718F3F7FE5ECBDB0B600D607B52706776 CALLER EQ PUSH2 0x11FD JUMP JUMPDEST PUSH2 0x128A JUMP JUMPDEST POP POP CALLVALUE PUSH2 0x4BC JUMPI DUP2 PUSH1 0x3 NOT CALLDATASIZE ADD SLT PUSH2 0x4BC JUMPI PUSH2 0x90E SWAP1 PUSH2 0x8FB PUSH2 0x110F JUMP JUMPDEST SWAP1 MLOAD SWAP2 DUP3 SWAP2 PUSH1 0x20 DUP4 MSTORE PUSH1 0x20 DUP4 ADD SWAP1 PUSH2 0x10AB JUMP JUMPDEST SUB SWAP1 RETURN JUMPDEST POP SWAP1 PUSH1 0x20 DUP1 PUSH1 0x3 NOT CALLDATASIZE ADD SLT PUSH2 0x886 JUMPI PUSH1 0x1 PUSH1 0x1 PUSH1 0xA0 SHL SUB SWAP1 DUP2 PUSH2 0x933 PUSH2 0xFA7 JUMP JUMPDEST AND SWAP3 DUP4 DUP7 MSTORE DUP6 DUP3 MSTORE DUP1 DUP7 KECCAK256 SWAP2 PUSH1 0xFF PUSH1 0x3 DUP5 ADD SLOAD AND ISZERO PUSH2 0xCFF JUMPI DUP5 DUP8 MSTORE PUSH1 0x2 DUP2 MSTORE DUP2 DUP8 KECCAK256 SLOAD PUSH2 0xCBD JUMPI PUSH2 0x9FF PUSH2 0x966 PUSH2 0x110F JUMP JUMPDEST SWAP7 PUSH2 0x9C7 PUSH1 0x2C PUSH2 0x978 DUP9 DUP9 SLOAD AND PUSH2 0x1D5B JUMP JUMPDEST SWAP10 DUP7 MLOAD SWAP11 DUP2 PUSH2 0x990 DUP14 SWAP4 MLOAD DUP1 SWAP3 DUP11 DUP1 DUP8 ADD SWAP2 ADD PUSH2 0x1088 JUMP JUMPDEST DUP3 ADD PUSH2 0x9A4 DUP3 MLOAD DUP1 SWAP4 DUP11 DUP1 DUP6 ADD SWAP2 ADD PUSH2 0x1088 JUMP JUMPDEST ADD PUSH12 0x2F6C61746573742D7377617 PUSH1 0xA4 SHL DUP8 DUP3 ADD MSTORE SUB PUSH1 0xC DUP2 ADD DUP12 MSTORE ADD DUP10 PUSH2 0x1066 JUMP JUMPDEST PUSH2 0xA1D DUP5 MLOAD SWAP9 PUSH2 0x9D6 DUP11 PUSH2 0x102E JUMP JUMPDEST PUSH1 0x6 DUP11 MSTORE PUSH6 0x242E7377617 PUSH1 0xD4 SHL DUP6 DUP12 ADD MSTORE PUSH2 0xA11 DUP7 MLOAD SWAP5 DUP6 SWAP3 DUP9 DUP9 DUP6 ADD MSTORE PUSH1 0x60 DUP5 ADD SWAP1 PUSH2 0x10AB JUMP JUMPDEST PUSH1 0x1F NOT SWAP12 DUP13 DUP5 DUP4 SUB ADD DUP10 DUP6 ADD MSTORE PUSH2 0x10AB JUMP JUMPDEST SUB DUP10 DUP2 ADD DUP5 MSTORE DUP4 PUSH2 0x1066 JUMP JUMPDEST DUP4 MLOAD SWAP8 PUSH4 0x22E05A01 PUSH1 0xE2 SHL DUP10 MSTORE DUP4 DUP10 DUP1 PUSH2 0xA49 PUSH1 0x1 SWAP7 DUP8 DUP8 DUP5 ADD MSTORE PUSH1 0x80 PUSH1 0x24 DUP5 ADD MSTORE PUSH1 0x84 DUP4 ADD SWAP1 PUSH2 0x10AB JUMP JUMPDEST ADDRESS PUSH1 0x44 DUP4 ADD MSTORE PUSH4 0x8B50817B PUSH1 0xE0 SHL PUSH1 0x64 DUP4 ADD MSTORE SUB DUP2 CALLVALUE PUSH20 0x37BB9C718F3F7FE5ECBDB0B600D607B52706776 GAS CALL SWAP9 DUP10 ISZERO PUSH2 0xCB3 JUMPI DUP11 SWAP10 PUSH2 0xC80 JUMPI JUMPDEST POP DUP7 DUP7 SLOAD AND SWAP1 DUP6 MLOAD SWAP4 PUSH1 0xA0 DUP6 ADD SWAP1 PUSH8 0xFFFFFFFFFFFFFFFF SWAP2 DUP7 DUP2 LT DUP4 DUP3 GT OR PUSH2 0xC6D JUMPI DUP9 MSTORE DUP11 DUP7 MSTORE DUP7 DUP7 ADD SWAP4 DUP5 MSTORE DUP8 MLOAD SWAP4 DUP8 DUP6 ADD DUP6 DUP2 LT DUP5 DUP3 GT OR PUSH2 0xC5A JUMPI SWAP2 DUP14 SWAP6 SWAP4 SWAP2 DUP16 SWAP6 SWAP4 DUP12 MSTORE DUP6 DUP6 MSTORE DUP11 DUP10 ADD SWAP5 DUP6 MSTORE DUP13 DUP12 PUSH1 0x60 DUP12 ADD SWAP8 DUP5 DUP10 MSTORE PUSH1 0x80 DUP13 ADD SWAP10 TIMESTAMP DUP12 MSTORE DUP2 MSTORE DUP5 DUP14 MSTORE KECCAK256 SWAP10 MLOAD AND PUSH12 0xFFFFFFFFFFFFFFFFFFFFFFFF PUSH1 0xA0 SHL SWAP1 DUP2 DUP12 SLOAD AND OR DUP11 SSTORE DUP14 DUP4 DUP12 ADD SWAP3 MLOAD AND SWAP1 DUP3 SLOAD AND OR SWAP1 SSTORE PUSH1 0x2 DUP9 ADD SWAP4 MLOAD SWAP1 DUP2 MLOAD SWAP3 DUP4 GT PUSH2 0xC46 JUMPI DUP16 SWAP1 PUSH2 0xB3D DUP5 PUSH2 0xB37 DUP9 SLOAD PUSH2 0xFC2 JUMP JUMPDEST DUP9 PUSH2 0x11B6 JUMP JUMPDEST DUP11 SWAP5 PUSH1 0x1F DUP6 GT PUSH1 0x1 EQ PUSH2 0xBE6 JUMPI POP POP SWAP3 DUP3 SWAP2 PUSH2 0xB6E SWAP5 SWAP3 PUSH2 0xBDB JUMPI JUMPDEST POP POP DUP2 PUSH1 0x1 SHL SWAP2 PUSH1 0x0 NOT SWAP1 PUSH1 0x3 SHL SHR NOT AND OR SWAP1 JUMP JUMPDEST SWAP1 SSTORE JUMPDEST PUSH1 0x3 DUP5 ADD SWAP1 MLOAD DUP4 DUP2 LT ISZERO PUSH2 0xBC8 JUMPI DUP2 SLOAD PUSH1 0xFF NOT AND PUSH1 0xFF SWAP2 SWAP1 SWAP2 AND OR SWAP1 SSTORE MLOAD SWAP2 ADD SSTORE DUP5 DUP8 MSTORE PUSH1 0x2 SWAP1 MSTORE DUP6 KECCAK256 DUP5 SWAP1 SSTORE SLOAD AND SWAP2 PUSH32 0xCF5049019CF7659010E4A5F9638F071339A89FC1F0F77BE053EE91034CDADCF9 DUP5 DUP1 LOG4 DUP1 RETURN JUMPDEST PUSH4 0x4E487B71 PUSH1 0xE0 SHL DUP13 MSTORE PUSH1 0x21 DUP5 MSTORE PUSH1 0x24 DUP13 REVERT JUMPDEST ADD MLOAD SWAP1 POP CODESIZE DUP1 PUSH2 0xB59 JUMP JUMPDEST DUP5 SWAP1 DUP2 SWAP7 SWAP4 SWAP5 SWAP3 SWAP7 AND DUP8 DUP6 MSTORE DUP13 DUP6 KECCAK256 SWAP5 JUMPDEST DUP14 DUP9 DUP4 DUP4 LT PUSH2 0xC2F JUMPI POP POP POP LT PUSH2 0xC16 JUMPI JUMPDEST POP POP POP DUP2 SHL ADD SWAP1 SSTORE PUSH2 0xB71 JUMP JUMPDEST ADD MLOAD PUSH1 0x0 NOT PUSH1 0xF8 DUP5 PUSH1 0x3 SHL AND SHR NOT AND SWAP1 SSTORE CODESIZE DUP1 DUP1 PUSH2 0xC09 JUMP JUMPDEST DUP7 DUP7 ADD MLOAD DUP9 SSTORE SWAP1 SWAP7 ADD SWAP6 SWAP5 DUP6 ADD SWAP5 DUP8 SWAP4 POP ADD PUSH2 0xBF7 JUMP JUMPDEST POP PUSH4 0x4E487B71 PUSH1 0xE0 SHL DUP16 MSTORE PUSH1 0x41 DUP8 MSTORE PUSH1 0x24 DUP16 REVERT JUMPDEST PUSH4 0x4E487B71 PUSH1 0xE0 SHL DUP16 MSTORE PUSH1 0x41 DUP8 MSTORE PUSH1 0x24 DUP16 REVERT JUMPDEST PUSH4 0x4E487B71 PUSH1 0xE0 SHL DUP15 MSTORE PUSH1 0x41 DUP7 MSTORE PUSH1 0x24 DUP15 REVERT JUMPDEST SWAP1 SWAP9 POP DUP4 DUP2 DUP2 RETURNDATASIZE DUP4 GT PUSH2 0xCAC JUMPI JUMPDEST PUSH2 0xC98 DUP2 DUP4 PUSH2 0x1066 JUMP JUMPDEST DUP2 ADD SUB SLT PUSH2 0xCA8 JUMPI MLOAD SWAP8 CODESIZE PUSH2 0xA84 JUMP JUMPDEST DUP10 DUP1 REVERT JUMPDEST POP RETURNDATASIZE PUSH2 0xC8E JUMP JUMPDEST DUP6 MLOAD RETURNDATASIZE DUP13 DUP3 RETURNDATACOPY RETURNDATASIZE SWAP1 REVERT JUMPDEST DUP6 SWAP1 PUSH1 0x64 SWAP3 MLOAD SWAP2 PUSH3 0x461BCD PUSH1 0xE5 SHL DUP4 MSTORE DUP3 ADD MSTORE PUSH1 0x1E PUSH1 0x24 DUP3 ADD MSTORE PUSH32 0x53414D3A207265717565737420616C726561647920696E20666C696768740000 PUSH1 0x44 DUP3 ADD MSTORE REVERT JUMPDEST DUP6 SWAP1 PUSH1 0x64 SWAP3 MLOAD SWAP2 PUSH3 0x461BCD PUSH1 0xE5 SHL DUP4 MSTORE DUP3 ADD MSTORE PUSH1 0x16 PUSH1 0x24 DUP3 ADD MSTORE PUSH22 0x53414D3A20666F6C6C6F77657220696E616374697665 PUSH1 0x50 SHL PUSH1 0x44 DUP3 ADD MSTORE REVERT JUMPDEST POP POP CALLVALUE PUSH2 0x4BC JUMPI DUP2 PUSH1 0x3 NOT CALLDATASIZE ADD SLT PUSH2 0x4BC JUMPI PUSH1 0x20 SWAP1 MLOAD PUSH1 0x2 DUP2 MSTORE RETURN JUMPDEST POP SWAP1 CALLVALUE PUSH2 0x415 JUMPI PUSH1 0x20 SWAP3 DUP4 PUSH1 0x3 NOT CALLDATASIZE ADD SLT PUSH2 0x450 JUMPI DUP3 CALLDATALOAD DUP2 MSTORE PUSH1 0x1 DUP1 DUP6 MSTORE DUP3 DUP3 KECCAK256 SWAP3 PUSH1 0x1 DUP1 PUSH1 0xA0 SHL SUB SWAP5 DUP6 DUP6 SLOAD AND SWAP6 PUSH1 0x1 DUP7 ADD SLOAD AND SWAP4 DUP8 PUSH1 0x2 DUP8 ADD DUP5 MLOAD SWAP6 DUP4 DUP3 SLOAD SWAP3 PUSH2 0xDA1 DUP5 PUSH2 0xFC2 JUMP JUMPDEST DUP1 DUP11 MSTORE SWAP4 PUSH1 0x1 DUP2 AND SWAP1 DUP2 ISZERO PUSH2 0xE43 JUMPI POP PUSH1 0x1 EQ PUSH2 0xE0C JUMPI JUMPDEST POP POP POP POP POP PUSH2 0xDF8 SWAP3 DUP5 SWAP3 PUSH2 0xDD5 PUSH2 0xE03 SWAP7 PUSH1 0xA0 SWAP5 SUB DUP6 PUSH2 0x1066 JUMP JUMPDEST PUSH1 0xFF PUSH1 0x3 DUP10 ADD SLOAD AND SWAP8 ADD SLOAD SWAP6 DUP2 MLOAD SWAP10 DUP11 SWAP10 DUP11 MSTORE DUP10 ADD MSTORE DUP8 ADD MSTORE PUSH1 0xA0 DUP7 ADD SWAP1 PUSH2 0x10AB JUMP JUMPDEST SWAP3 PUSH1 0x60 DUP6 ADD SWAP1 PUSH2 0x10D0 JUMP JUMPDEST PUSH1 0x80 DUP4 ADD MSTORE SUB SWAP1 RETURN JUMPDEST SWAP1 DUP1 SWAP5 SWAP6 POP MSTORE DUP4 DUP4 KECCAK256 JUMPDEST DUP3 DUP5 LT PUSH2 0xE30 JUMPI POP POP POP DUP5 ADD ADD DUP8 DUP3 PUSH2 0xDD5 DUP7 PUSH1 0xA0 PUSH2 0xDB9 JUMP JUMPDEST DUP1 SLOAD DUP9 DUP6 ADD DUP7 ADD MSTORE SWAP3 DUP5 ADD SWAP3 DUP2 ADD PUSH2 0xE16 JUMP JUMPDEST PUSH1 0xFF NOT AND DUP7 DUP12 ADD MSTORE POP POP POP POP ISZERO ISZERO PUSH1 0x5 SHL DUP6 ADD ADD SWAP1 POP DUP8 DUP3 PUSH2 0xDD5 DUP7 PUSH1 0xA0 PUSH2 0xDB9 JUMP JUMPDEST POP POP CALLVALUE PUSH2 0x4BC JUMPI DUP2 PUSH1 0x3 NOT CALLDATASIZE ADD SLT PUSH2 0x4BC JUMPI PUSH1 0x20 SWAP1 MLOAD PUSH1 0xA DUP2 MSTORE RETURN JUMPDEST POP POP CALLVALUE PUSH2 0x4BC JUMPI DUP2 PUSH1 0x3 NOT CALLDATASIZE ADD SLT PUSH2 0x4BC JUMPI PUSH1 0x20 SWAP1 MLOAD PUSH20 0x28BEC7E30E6FAEE657A03E19BF1128AAD7632A00 DUP2 MSTORE RETURN JUMPDEST POP SWAP2 SWAP1 CALLVALUE PUSH2 0x4BC JUMPI PUSH1 0x20 CALLDATASIZE PUSH1 0x3 NOT ADD SLT PUSH2 0x4BC JUMPI PUSH1 0xC0 SWAP3 DUP2 PUSH2 0xED1 PUSH2 0xFA7 JUMP JUMPDEST SWAP4 DUP1 PUSH1 0xA0 DUP4 MLOAD PUSH2 0xEE0 DUP2 PUSH2 0xFFC JUMP JUMPDEST DUP3 DUP2 MSTORE DUP3 PUSH1 0x20 DUP3 ADD MSTORE DUP3 DUP6 DUP3 ADD MSTORE DUP3 PUSH1 0x60 DUP3 ADD MSTORE DUP3 PUSH1 0x80 DUP3 ADD MSTORE ADD MSTORE PUSH1 0x1 DUP1 PUSH1 0xA0 SHL SUB DUP1 SWAP6 AND DUP2 MSTORE DUP1 PUSH1 0x20 MSTORE KECCAK256 SWAP1 DUP3 MLOAD SWAP3 PUSH2 0xF1A DUP5 PUSH2 0xFFC JUMP JUMPDEST DUP3 SLOAD SWAP5 DUP6 AND SWAP5 DUP6 DUP6 MSTORE PUSH1 0xFF PUSH1 0x20 DUP7 ADD SWAP2 PUSH1 0xA0 SHR AND DUP2 MSTORE PUSH1 0xFF PUSH1 0x1 DUP6 ADD SLOAD SWAP2 DUP4 DUP8 ADD SWAP3 DUP4 MSTORE PUSH1 0xA0 PUSH1 0x2 DUP8 ADD SLOAD SWAP6 PUSH1 0x60 DUP10 ADD SWAP7 DUP8 MSTORE DUP4 PUSH1 0x3 DUP10 ADD SLOAD AND SWAP8 PUSH1 0x80 DUP11 ADD SWAP9 ISZERO ISZERO DUP10 MSTORE ADD SLOAD SWAP8 ADD SWAP7 DUP8 MSTORE DUP4 MLOAD SWAP8 DUP9 MSTORE MLOAD AND PUSH1 0x20 DUP8 ADD MSTORE MLOAD SWAP1 DUP6 ADD MSTORE MLOAD PUSH1 0x60 DUP5 ADD MSTORE MLOAD ISZERO ISZERO PUSH1 0x80 DUP4 ADD MSTORE MLOAD PUSH1 0xA0 DUP3 ADD MSTORE RETURN JUMPDEST DUP5 SWAP1 CALLVALUE PUSH2 0x4BC JUMPI DUP2 PUSH1 0x3 NOT CALLDATASIZE ADD SLT PUSH2 0x4BC JUMPI DUP1 PUSH1 0x1 PUSH1 0x20 SWAP3 MSTORE RETURN JUMPDEST PUSH1 0x4 CALLDATALOAD SWAP1 PUSH1 0x1 PUSH1 0x1 PUSH1 0xA0 SHL SUB DUP3 AND DUP3 SUB PUSH2 0xFBD JUMPI JUMP JUMPDEST PUSH1 0x0 DUP1 REVERT JUMPDEST SWAP1 PUSH1 0x1 DUP3 DUP2 SHR SWAP3 AND DUP1 ISZERO PUSH2 0xFF2 JUMPI JUMPDEST PUSH1 0x20 DUP4 LT EQ PUSH2 0xFDC JUMPI JUMP JUMPDEST PUSH4 0x4E487B71 PUSH1 0xE0 SHL PUSH1 0x0 MSTORE PUSH1 0x22 PUSH1 0x4 MSTORE PUSH1 0x24 PUSH1 0x0 REVERT JUMPDEST SWAP2 PUSH1 0x7F AND SWAP2 PUSH2 0xFD1 JUMP JUMPDEST PUSH1 0xC0 DUP2 ADD SWAP1 DUP2 LT PUSH8 0xFFFFFFFFFFFFFFFF DUP3 GT OR PUSH2 0x1018 JUMPI PUSH1 0x40 MSTORE JUMP JUMPDEST PUSH4 0x4E487B71 PUSH1 0xE0 SHL PUSH1 0x0 MSTORE PUSH1 0x41 PUSH1 0x4 MSTORE PUSH1 0x24 PUSH1 0x0 REVERT JUMPDEST PUSH1 0x40 DUP2 ADD SWAP1 DUP2 LT PUSH8 0xFFFFFFFFFFFFFFFF DUP3 GT OR PUSH2 0x1018 JUMPI PUSH1 0x40 MSTORE JUMP JUMPDEST PUSH1 0x60 DUP2 ADD SWAP1 DUP2 LT PUSH8 0xFFFFFFFFFFFFFFFF DUP3 GT OR PUSH2 0x1018 JUMPI PUSH1 0x40 MSTORE JUMP JUMPDEST SWAP1 PUSH1 0x1F DUP1 NOT SWAP2 ADD AND DUP2 ADD SWAP1 DUP2 LT PUSH8 0xFFFFFFFFFFFFFFFF DUP3 GT OR PUSH2 0x1018 JUMPI PUSH1 0x40 MSTORE JUMP JUMPDEST PUSH1 0x0 JUMPDEST DUP4 DUP2 LT PUSH2 0x109B JUMPI POP POP PUSH1 0x0 SWAP2 ADD MSTORE JUMP JUMPDEST DUP2 DUP2 ADD MLOAD DUP4 DUP3 ADD MSTORE PUSH1 0x20 ADD PUSH2 0x108B JUMP JUMPDEST SWAP1 PUSH1 0x20 SWAP2 PUSH2 0x10C4 DUP2 MLOAD DUP1 SWAP3 DUP2 DUP6 MSTORE DUP6 DUP1 DUP7 ADD SWAP2 ADD PUSH2 0x1088 JUMP JUMPDEST PUSH1 0x1F ADD PUSH1 0x1F NOT AND ADD ADD SWAP1 JUMP JUMPDEST SWAP1 PUSH1 0x4 DUP3 LT ISZERO PUSH2 0x10DD JUMPI MSTORE JUMP JUMPDEST PUSH4 0x4E487B71 PUSH1 0xE0 SHL PUSH1 0x0 MSTORE PUSH1 0x21 PUSH1 0x4 MSTORE PUSH1 0x24 PUSH1 0x0 REVERT JUMPDEST PUSH8 0xFFFFFFFFFFFFFFFF DUP2 GT PUSH2 0x1018 JUMPI PUSH1 0x1F ADD PUSH1 0x1F NOT AND PUSH1 0x20 ADD SWAP1 JUMP JUMPDEST PUSH1 0x40 MLOAD SWAP1 PUSH2 0x111C DUP3 PUSH2 0x104A JUMP JUMPDEST PUSH1 0x21 DUP3 MSTORE PUSH1 0x2F PUSH1 0xF8 SHL PUSH1 0x40 DUP4 PUSH32 0x68747470733A2F2F6170692E61696F6E69732E78797A2F76312F6C6561646572 PUSH1 0x20 DUP3 ADD MSTORE ADD MSTORE JUMP JUMPDEST PUSH1 0x40 PUSH1 0x3 NOT DUP3 ADD SLT PUSH2 0xFBD JUMPI PUSH1 0x4 CALLDATALOAD SWAP2 PUSH1 0x24 CALLDATALOAD PUSH8 0xFFFFFFFFFFFFFFFF SWAP3 DUP4 DUP3 GT PUSH2 0xFBD JUMPI DUP1 PUSH1 0x23 DUP4 ADD SLT ISZERO PUSH2 0xFBD JUMPI DUP2 PUSH1 0x4 ADD CALLDATALOAD SWAP4 DUP5 GT PUSH2 0xFBD JUMPI PUSH1 0x24 DUP5 DUP4 ADD ADD GT PUSH2 0xFBD JUMPI PUSH1 0x24 ADD SWAP2 SWAP1 JUMP JUMPDEST DUP2 DUP2 LT PUSH2 0x11AA JUMPI POP POP JUMP JUMPDEST PUSH1 0x0 DUP2 SSTORE PUSH1 0x1 ADD PUSH2 0x119F JUMP JUMPDEST SWAP2 SWAP1 PUSH1 0x1F DUP2 GT PUSH2 0x11C5 JUMPI POP POP POP JUMP JUMPDEST PUSH2 0x11F1 SWAP3 PUSH1 0x0 MSTORE PUSH1 0x20 PUSH1 0x0 KECCAK256 SWAP1 PUSH1 0x20 PUSH1 0x1F DUP5 ADD PUSH1 0x5 SHR DUP4 ADD SWAP4 LT PUSH2 0x11F3 JUMPI JUMPDEST PUSH1 0x1F ADD PUSH1 0x5 SHR ADD SWAP1 PUSH2 0x119F JUMP JUMPDEST JUMP JUMPDEST SWAP1 SWAP2 POP DUP2 SWAP1 PUSH2 0x11E4 JUMP JUMPDEST ISZERO PUSH2 0x1204 JUMPI JUMP JUMPDEST PUSH1 0x40 MLOAD PUSH3 0x461BCD PUSH1 0xE5 SHL DUP2 MSTORE PUSH1 0x20 PUSH1 0x4 DUP3 ADD MSTORE PUSH1 0x21 PUSH1 0x24 DUP3 ADD MSTORE PUSH32 0x53414D3A2063616C6C6572206973206E6F74206167656E7420706C6174666F72 PUSH1 0x44 DUP3 ADD MSTORE PUSH1 0x6D PUSH1 0xF8 SHL PUSH1 0x64 DUP3 ADD MSTORE PUSH1 0x84 SWAP1 REVERT JUMPDEST CALLDATALOAD SWAP1 PUSH1 0x1 PUSH1 0x1 PUSH1 0xA0 SHL SUB DUP3 AND DUP3 SUB PUSH2 0xFBD JUMPI JUMP JUMPDEST SWAP2 SWAP1 DUP3 SUB SWAP2 DUP3 GT PUSH2 0x1274 JUMPI JUMP JUMPDEST PUSH4 0x4E487B71 PUSH1 0xE0 SHL PUSH1 0x0 MSTORE PUSH1 0x11 PUSH1 0x4 MSTORE PUSH1 0x24 PUSH1 0x0 REVERT JUMPDEST SWAP2 SWAP1 SWAP2 PUSH1 0xC0 MSTORE PUSH1 0x0 PUSH1 0xC0 MLOAD DUP2 MSTORE PUSH1 0x1 PUSH1 0xA0 MSTORE PUSH1 0x20 PUSH1 0x80 MSTORE PUSH1 0xA0 MLOAD PUSH1 0x80 MLOAD MSTORE PUSH1 0x40 SWAP1 DUP2 DUP2 KECCAK256 PUSH1 0xE0 MSTORE PUSH1 0x3 PUSH1 0xE0 MLOAD ADD SWAP4 PUSH1 0xFF DUP6 SLOAD AND PUSH1 0x4 DUP2 LT ISZERO PUSH2 0x1B0F JUMPI PUSH1 0xA0 MLOAD SUB PUSH2 0x1ACA JUMPI PUSH1 0xA0 DUP2 DUP6 DUP2 ADD SUB SLT PUSH2 0x4BC JUMPI PUSH2 0x12E3 DUP2 PUSH2 0x1253 JUMP JUMPDEST SWAP5 PUSH2 0x12F1 PUSH1 0x80 MLOAD DUP4 ADD PUSH2 0x1253 JUMP JUMPDEST SWAP1 DUP5 DUP4 ADD CALLDATALOAD SWAP3 PUSH1 0x80 DUP2 ADD CALLDATALOAD SWAP7 PUSH1 0x1 DUP1 PUSH1 0xA0 SHL SUB DUP1 DUP1 SWAP11 AND SWAP5 AND SWAP4 DUP8 MLOAD DUP2 DUP2 MSTORE DUP6 PUSH1 0x80 MLOAD DUP3 ADD MSTORE DUP7 DUP10 DUP3 ADD MSTORE DUP10 PUSH1 0x60 DUP3 ADD MSTORE PUSH32 0xE749F5137156531EA5889480E8EFEBCAE165F1505A891EA7654695636A1E4470 PUSH1 0x80 PUSH1 0xC0 MLOAD SWAP3 LOG2 PUSH1 0x1E PUSH2 0x1356 DUP11 TIMESTAMP PUSH2 0x1267 JUMP JUMPDEST GT PUSH2 0x1A6B JUMPI PUSH20 0x28BEC7E30E6FAEE657A03E19BF1128AAD7632A00 SWAP5 DUP6 DUP3 EQ SWAP6 DUP7 SWAP3 DUP4 SWAP8 PUSH2 0x1A4D JUMPI JUMPDEST DUP4 ISZERO PUSH2 0x1A1A JUMPI JUMPDEST POP POP POP ISZERO PUSH2 0x19B9 JUMPI PUSH1 0x2 PUSH1 0xE0 MLOAD ADD SWAP2 PUSH8 0xFFFFFFFFFFFFFFFF DUP3 GT PUSH2 0x19A5 JUMPI PUSH2 0x13B7 DUP3 PUSH2 0x13B1 DUP6 SLOAD PUSH2 0xFC2 JUMP JUMPDEST DUP6 PUSH2 0x11B6 JUMP JUMPDEST DUP7 SWAP1 PUSH1 0x1F DUP4 GT PUSH1 0x1 EQ PUSH2 0x1931 JUMPI DUP3 PUSH2 0x17F6 SWAP8 SWAP6 SWAP4 PUSH2 0x1D8 SWAP8 SWAP6 SWAP4 PUSH2 0x13F0 SWAP4 DUP12 SWAP3 PUSH2 0x1926 JUMPI POP POP DUP2 PUSH1 0x1 SHL SWAP2 PUSH1 0x0 NOT SWAP1 PUSH1 0x3 SHL SHR NOT AND OR SWAP1 JUMP JUMPDEST SWAP1 SSTORE JUMPDEST PUSH1 0x2 PUSH1 0xFF NOT DUP3 SLOAD AND OR SWAP1 SSTORE DUP8 PUSH1 0xE0 MLOAD SLOAD AND SWAP8 PUSH1 0xA0 MLOAD PUSH1 0xE0 MLOAD ADD SLOAD AND SWAP2 DUP9 DUP7 MSTORE DUP6 PUSH1 0x80 MLOAD MSTORE DUP7 DUP7 KECCAK256 SWAP2 PUSH1 0x0 EQ PUSH2 0x1900 JUMPI PUSH2 0x1447 DUP8 MLOAD PUSH2 0x1430 DUP2 PUSH2 0x102E JUMP JUMPDEST PUSH1 0x3 DUP2 MSTORE PUSH3 0x425559 PUSH1 0xE8 SHL PUSH1 0x80 MLOAD DUP3 ADD MSTORE SWAP4 PUSH2 0x1D5B JUMP JUMPDEST SWAP3 PUSH2 0x1469 PUSH2 0x1464 PUSH2 0x145D PUSH3 0xF4240 DUP1 SWAP6 DIV PUSH2 0x2266 JUMP JUMPDEST SWAP11 TIMESTAMP PUSH2 0x1267 JUMP JUMPDEST PUSH2 0x2266 JUMP JUMPDEST SWAP2 PUSH2 0x1499 PUSH2 0x147D PUSH1 0xFF DUP7 SLOAD PUSH1 0xA0 SHR AND PUSH2 0x2266 JUMP JUMPDEST SWAP2 PUSH1 0x2 PUSH2 0x1490 DUP3 PUSH1 0xA0 MLOAD DUP10 ADD SLOAD DIV PUSH2 0x2266 JUMP JUMPDEST SWAP7 ADD SLOAD DIV PUSH2 0x2266 JUMP JUMPDEST SWAP3 DUP10 MLOAD SWAP11 DUP12 SWAP7 PUSH32 0x596F7520617265206120636F70792D74726164696E67207269736B20656E6769 PUSH1 0x80 MLOAD DUP10 ADD MSTORE PUSH32 0x6E652E20526573706F6E642077697468204F4E4C5920612073696E676C652069 DUP13 DUP10 ADD MSTORE PUSH14 0x373A32B3B2B9101816989818171 PUSH1 0x95 SHL PUSH1 0x60 DUP10 ADD MSTORE PUSH32 0x30203D20736B69702C20312D313030203D20636F70792070657263656E746167 PUSH1 0x6E DUP10 ADD MSTORE PUSH22 0x329037B31036B0BC1030B63637B1B0BA34B7B7170505 PUSH1 0x51 SHL PUSH1 0x8E DUP10 ADD MSTORE PUSH8 0x2632B0B232B91D1 PUSH1 0xC5 SHL PUSH1 0xA4 DUP10 ADD MSTORE PUSH2 0x156D DUP2 MLOAD DUP1 SWAP3 PUSH1 0xAC DUP12 ADD SWAP1 PUSH1 0x80 MLOAD ADD PUSH2 0x1088 JUMP JUMPDEST DUP8 ADD SWAP4 PUSH1 0x5 PUSH1 0xF9 SHL SWAP5 DUP6 PUSH1 0xAC DUP3 ADD MSTORE PUSH7 0x2A3930B2329D1 PUSH1 0xCD SHL PUSH1 0xAD DUP3 ADD MSTORE PUSH2 0x15A1 DUP3 MLOAD DUP1 SWAP4 PUSH1 0xB4 DUP5 ADD SWAP1 PUSH1 0x80 MLOAD ADD PUSH2 0x1088 JUMP JUMPDEST ADD PUSH7 0x102BA9A7A6A485 PUSH1 0xC9 SHL PUSH1 0xB4 DUP3 ADD MSTORE PUSH10 0x20B6B7BAB73A24B71D1 PUSH1 0xB5 SHL PUSH1 0xBB DUP3 ADD MSTORE PUSH2 0x15DA DUP3 MLOAD DUP1 SWAP4 PUSH1 0xC5 DUP5 ADD SWAP1 PUSH1 0x80 MLOAD ADD PUSH2 0x1088 JUMP JUMPDEST ADD PUSH15 0x102AA9A221901430B8383937BC1485 PUSH1 0x89 SHL PUSH1 0xC5 DUP3 ADD MSTORE PUSH11 0x2A3930B2329030B3B29D1 PUSH1 0xAD SHL PUSH1 0xD4 DUP3 ADD MSTORE PUSH2 0x161C DUP3 MLOAD DUP1 SWAP4 PUSH1 0xDF DUP5 ADD SWAP1 PUSH1 0x80 MLOAD ADD PUSH2 0x1088 JUMP JUMPDEST ADD PUSH2 0x3985 PUSH1 0xF1 SHL PUSH1 0xDF DUP3 ADD MSTORE PUSH32 0x466F6C6C6F776572207269736B546F6C6572616E63653A200000000000000000 PUSH1 0xE1 DUP3 ADD MSTORE PUSH2 0x1663 DUP3 MLOAD DUP1 SWAP4 PUSH1 0xF9 DUP5 ADD SWAP1 PUSH1 0x80 MLOAD ADD PUSH2 0x1088 JUMP JUMPDEST ADD SWAP3 PUSH4 0x17989805 PUSH1 0xE1 SHL PUSH1 0xF9 DUP6 ADD MSTORE PUSH32 0x466F6C6C6F776572206D6178416C6C6F636174696F6E3A202400000000000000 PUSH1 0xFD DUP6 ADD MSTORE PUSH2 0x116 SWAP4 PUSH2 0x16B0 DUP3 MLOAD DUP1 SWAP4 DUP8 DUP5 ADD SWAP1 PUSH1 0x80 MLOAD ADD PUSH2 0x1088 JUMP JUMPDEST ADD SWAP3 DUP4 ADD MSTORE PUSH32 0x466F6C6C6F77657220555344432062616C616E63653A20240000000000000000 PUSH2 0x117 DUP4 ADD MSTORE PUSH2 0x12F SWAP2 PUSH2 0x16F4 DUP3 MLOAD DUP1 SWAP4 DUP6 DUP5 ADD SWAP1 PUSH1 0x80 MLOAD ADD PUSH2 0x1088 JUMP JUMPDEST ADD SWAP1 PUSH2 0x505 PUSH1 0xF1 SHL SWAP1 DUP3 ADD MSTORE PUSH32 0x52756C65733A207269736B546F6C6572616E636520312D33202D3E3E206D6178 PUSH2 0x131 DUP3 ADD MSTORE PUSH11 0x101A181039B1B7B932971 PUSH1 0xAD SHL PUSH2 0x151 DUP3 ADD MSTORE PUSH32 0x7269736B546F6C6572616E636520372D3130202D3E3E2063616E207265747572 PUSH2 0x15C DUP3 ADD MSTORE PUSH13 0x37103AB8103A3790189818171 PUSH1 0x9D SHL PUSH2 0x17C DUP3 ADD MSTORE PUSH32 0x53454C4C207472616465732073686F756C642072657475726E203020756E6C65 PUSH2 0x189 DUP3 ADD MSTORE PUSH21 0x39B9903934B9B5AA37B632B930B731B29F1E9C171 PUSH1 0x5D SHL PUSH2 0x1A9 DUP3 ADD MSTORE PUSH32 0x526573706F6E64207769746820696E7465676572206F6E6C792E000000000000 PUSH2 0x1BE DUP3 ADD MSTORE SUB PUSH2 0x1B8 DUP2 ADD DUP7 MSTORE ADD DUP5 PUSH2 0x1066 JUMP JUMPDEST DUP2 MLOAD PUSH1 0x80 MLOAD DUP1 DUP3 ADD MSTORE PUSH2 0x181D DUP2 PUSH2 0x180F DUP2 DUP7 ADD DUP8 PUSH2 0x10AB JUMP JUMPDEST SUB PUSH1 0x1F NOT DUP2 ADD DUP4 MSTORE DUP3 PUSH2 0x1066 JUMP JUMPDEST DUP3 MLOAD PUSH4 0x22E05A01 PUSH1 0xE2 SHL DUP2 MSTORE PUSH1 0x2 PUSH1 0x4 DUP3 ADD MSTORE PUSH1 0x80 PUSH1 0x24 DUP3 ADD MSTORE SWAP1 PUSH2 0x1846 SWAP1 PUSH1 0x84 DUP4 ADD SWAP1 PUSH2 0x10AB JUMP JUMPDEST ADDRESS PUSH1 0x44 DUP4 ADD MSTORE PUSH4 0x74F212CB PUSH1 0xE1 SHL PUSH1 0x64 DUP4 ADD MSTORE DUP2 DUP1 PUSH1 0x80 MLOAD SWAP3 SUB DUP2 DUP6 PUSH20 0x37BB9C718F3F7FE5ECBDB0B600D607B52706776 GAS CALL DUP1 ISZERO PUSH2 0x18F6 JUMPI PUSH2 0x18C6 JUMPI JUMPDEST POP POP PUSH32 0xD3E7A0095B210E7EF5B3879CF7AEA23DB5EC3184775333B16BCC708A15ACE725 SWAP1 MLOAD PUSH1 0x80 MLOAD DUP2 MSTORE DUP1 PUSH2 0x18C1 PUSH1 0xC0 MLOAD SWAP5 PUSH1 0x80 MLOAD DUP4 ADD SWAP1 PUSH2 0x10AB JUMP JUMPDEST SUB SWAP1 LOG3 JUMP JUMPDEST PUSH1 0x80 MLOAD SWAP1 RETURNDATASIZE DUP3 GT PUSH2 0x18EE JUMPI JUMPDEST PUSH2 0x18DC DUP3 DUP3 PUSH2 0x1066 JUMP JUMPDEST PUSH1 0x80 MLOAD SWAP2 DUP2 ADD SUB SLT PUSH2 0x450 JUMPI DUP1 PUSH2 0x1884 JUMP JUMPDEST RETURNDATASIZE SWAP2 POP PUSH2 0x18D2 JUMP JUMPDEST DUP4 MLOAD RETURNDATASIZE DUP5 DUP3 RETURNDATACOPY RETURNDATASIZE SWAP1 REVERT JUMPDEST PUSH2 0x1447 DUP8 MLOAD PUSH2 0x190E DUP2 PUSH2 0x102E JUMP JUMPDEST PUSH1 0x4 DUP2 MSTORE PUSH4 0x14D15313 PUSH1 0xE2 SHL PUSH1 0x80 MLOAD DUP3 ADD MSTORE SWAP4 PUSH2 0x1D5B JUMP JUMPDEST ADD CALLDATALOAD SWAP1 POP CODESIZE DUP1 PUSH2 0xB59 JUMP JUMPDEST DUP4 DUP9 MSTORE PUSH1 0x80 MLOAD DUP9 KECCAK256 SWAP2 PUSH1 0x1F NOT DUP5 AND DUP10 JUMPDEST DUP2 DUP2 LT PUSH2 0x198C JUMPI POP SWAP2 PUSH2 0x1D8 SWAP8 SWAP6 SWAP4 SWAP2 DUP6 PUSH2 0x17F6 SWAP11 SWAP9 SWAP7 SWAP5 LT PUSH2 0x1972 JUMPI JUMPDEST POP POP POP PUSH1 0xA0 MLOAD SWAP1 PUSH1 0xA0 MLOAD SHL ADD SWAP1 SSTORE PUSH2 0x13F3 JUMP JUMPDEST ADD CALLDATALOAD PUSH1 0x0 NOT PUSH1 0x3 DUP5 SWAP1 SHL PUSH1 0xF8 AND SHR NOT AND SWAP1 SSTORE CODESIZE DUP1 DUP1 PUSH2 0x195F JUMP JUMPDEST DUP4 DUP4 ADD CALLDATALOAD DUP6 SSTORE PUSH1 0xA0 MLOAD PUSH1 0x80 MLOAD SWAP6 ADD SWAP5 SWAP3 DUP4 ADD SWAP3 ADD PUSH2 0x1941 JUMP JUMPDEST PUSH4 0x4E487B71 PUSH1 0xE0 SHL DUP8 MSTORE PUSH1 0x41 PUSH1 0x4 MSTORE PUSH1 0x24 DUP8 REVERT JUMPDEST POP POP POP POP POP PUSH1 0xF SWAP3 POP SWAP3 PUSH1 0x0 DUP1 MLOAD PUSH1 0x20 PUSH2 0x2326 DUP4 CODECOPY DUP2 MLOAD SWAP2 MSTORE PUSH1 0x80 PUSH2 0x11F1 SWAP6 DUP4 PUSH1 0xE0 MLOAD SLOAD AND SWAP6 DUP7 SWAP5 PUSH1 0xA0 MLOAD PUSH1 0xE0 MLOAD ADD SLOAD AND SWAP6 DUP1 MLOAD SWAP3 DUP4 MSTORE DUP1 DUP5 MLOAD DUP5 ADD MSTORE DUP3 ADD MSTORE PUSH15 0x34B93932B632BB30B73A103830B4B9 PUSH1 0x89 SHL PUSH1 0x60 DUP3 ADD MSTORE LOG3 PUSH1 0xC0 MLOAD PUSH2 0x1E8C JUMP JUMPDEST PUSH20 0x46EDE9564A72571DF6F5E44D0405360C0F4DCAB EQ SWAP3 POP SWAP1 DUP3 PUSH2 0x1A43 JUMPI JUMPDEST POP POP CODESIZE DUP1 DUP1 PUSH2 0x1385 JUMP JUMPDEST EQ SWAP1 POP CODESIZE DUP1 PUSH2 0x1A39 JUMP JUMPDEST PUSH20 0x46EDE9564A72571DF6F5E44D0405360C0F4DCAB DUP4 EQ SWAP4 POP PUSH2 0x137E JUMP JUMPDEST POP POP POP POP POP POP PUSH1 0xC SWAP3 POP SWAP3 PUSH1 0x0 DUP1 MLOAD PUSH1 0x20 PUSH2 0x2326 DUP4 CODECOPY DUP2 MLOAD SWAP2 MSTORE PUSH1 0x80 PUSH2 0x11F1 SWAP6 DUP4 PUSH1 0xE0 MLOAD SLOAD AND SWAP6 DUP7 SWAP5 PUSH1 0xA0 MLOAD PUSH1 0xE0 MLOAD ADD SLOAD AND SWAP6 DUP1 MLOAD SWAP3 DUP4 MSTORE DUP1 DUP5 MLOAD DUP5 ADD MSTORE DUP3 ADD MSTORE PUSH12 0x1CDD185B19481CDA59DB985B PUSH1 0xA2 SHL PUSH1 0x60 DUP3 ADD MSTORE LOG3 PUSH1 0xC0 MLOAD PUSH2 0x1E8C JUMP JUMPDEST DUP3 MLOAD PUSH3 0x461BCD PUSH1 0xE5 SHL DUP2 MSTORE PUSH1 0x80 MLOAD PUSH1 0x4 DUP3 ADD MSTORE PUSH1 0x1A PUSH1 0x24 DUP3 ADD MSTORE PUSH32 0x53414D3A20756E65787065637465642077617463686572206362000000000000 PUSH1 0x44 DUP3 ADD MSTORE PUSH1 0x64 SWAP1 REVERT JUMPDEST PUSH4 0x4E487B71 PUSH1 0xE0 SHL DUP4 MSTORE PUSH1 0x21 PUSH1 0x4 MSTORE PUSH1 0x24 DUP4 REVERT JUMPDEST SWAP1 DUP2 PUSH1 0x20 SWAP2 SUB SLT PUSH2 0xFBD JUMPI MLOAD DUP1 ISZERO ISZERO DUP2 SUB PUSH2 0xFBD JUMPI SWAP1 JUMP JUMPDEST ISZERO PUSH2 0x1B42 JUMPI JUMP JUMPDEST PUSH1 0x40 MLOAD PUSH3 0x461BCD PUSH1 0xE5 SHL DUP2 MSTORE PUSH1 0x20 PUSH1 0x4 DUP3 ADD MSTORE PUSH1 0x13 PUSH1 0x24 DUP3 ADD MSTORE PUSH19 0x14D0534E8819195C1BDCDA5D0819985A5B1959 PUSH1 0x6A SHL PUSH1 0x44 DUP3 ADD MSTORE PUSH1 0x64 SWAP1 REVERT JUMPDEST SWAP2 SWAP1 DUP3 ADD DUP1 SWAP3 GT PUSH2 0x1274 JUMPI JUMP JUMPDEST SWAP2 SWAP1 SWAP2 PUSH1 0x0 SWAP2 DUP2 DUP4 MSTORE PUSH1 0x1 PUSH1 0x20 MSTORE PUSH1 0x40 SWAP4 DUP5 DUP5 KECCAK256 SWAP1 PUSH1 0x3 DUP3 ADD SWAP3 PUSH1 0xFF DUP5 SLOAD AND PUSH1 0x4 DUP2 LT ISZERO PUSH2 0x1CE5 JUMPI PUSH1 0x2 SUB PUSH2 0x1CA1 JUMPI DUP2 PUSH1 0x20 SWAP2 DUP2 ADD SUB SLT PUSH2 0x411 JUMPI CALLDATALOAD PUSH1 0xFF DUP2 AND SWAP5 DUP6 DUP3 SUB PUSH2 0x450 JUMPI POP PUSH1 0x64 SWAP1 SWAP5 GT PUSH2 0x1C98 JUMPI JUMPDEST PUSH1 0xFF DUP5 AND PUSH1 0xA DUP2 LT SWAP2 PUSH1 0x1 DUP1 PUSH1 0xA0 SHL SUB SWAP1 DUP2 DUP2 SLOAD AND SWAP4 DUP5 DUP8 PUSH32 0x822A77C1206275A8317399C6767734CE30774FF289DE39A882AEBE1BD663F356 DUP12 DUP1 MLOAD DUP9 DUP2 MSTORE DUP6 ISZERO PUSH1 0x20 DUP3 ADD MSTORE LOG3 PUSH2 0x1C41 JUMPI POP POP POP POP PUSH2 0x11F1 SWAP4 POP PUSH1 0x3 PUSH1 0xFF NOT DUP3 SLOAD AND OR SWAP1 SSTORE PUSH2 0x1F19 JUMP JUMPDEST DUP4 SWAP7 POP PUSH2 0x11F1 SWAP8 SWAP5 POP SWAP2 PUSH1 0x15 PUSH1 0x80 SWAP3 PUSH1 0x1 PUSH1 0x0 DUP1 MLOAD PUSH1 0x20 PUSH2 0x2326 DUP4 CODECOPY DUP2 MLOAD SWAP2 MSTORE SWAP6 ADD SLOAD AND SWAP6 DUP1 MLOAD SWAP3 DUP4 MSTORE DUP1 PUSH1 0x20 DUP5 ADD MSTORE DUP3 ADD MSTORE PUSH21 0x1CD8DBDC994818995B1BDDC81D1A1C995CDA1BDB19 PUSH1 0x5A SHL PUSH1 0x60 DUP3 ADD MSTORE LOG3 PUSH2 0x1E8C JUMP JUMPDEST PUSH1 0x64 SWAP4 POP PUSH2 0x1BDD JUMP JUMPDEST DUP7 MLOAD PUSH3 0x461BCD PUSH1 0xE5 SHL DUP2 MSTORE PUSH1 0x20 PUSH1 0x4 DUP3 ADD MSTORE PUSH1 0x1D PUSH1 0x24 DUP3 ADD MSTORE PUSH32 0x53414D3A20756E65787065637465642073747261746567697374206362000000 PUSH1 0x44 DUP3 ADD MSTORE PUSH1 0x64 SWAP1 REVERT JUMPDEST PUSH4 0x4E487B71 PUSH1 0xE0 SHL DUP8 MSTORE PUSH1 0x21 PUSH1 0x4 MSTORE PUSH1 0x24 DUP8 REVERT JUMPDEST PUSH1 0x1 PUSH1 0x1 PUSH1 0xA0 SHL SUB AND PUSH1 0x0 SWAP1 DUP2 MSTORE PUSH1 0x2 PUSH1 0x20 MSTORE PUSH1 0x40 DUP2 KECCAK256 SLOAD SWAP1 DUP2 ISZERO PUSH2 0x1D2E JUMPI PUSH1 0x3 PUSH1 0x40 DUP3 DUP5 PUSH1 0xFF SWAP5 MSTORE PUSH1 0x1 PUSH1 0x20 MSTORE KECCAK256 ADD SLOAD AND SWAP2 JUMP JUMPDEST SWAP2 DUP3 SWAP2 POP JUMP JUMPDEST SWAP1 DUP2 MLOAD DUP2 LT ISZERO PUSH2 0x1D45 JUMPI ADD PUSH1 0x20 ADD SWAP1 JUMP JUMPDEST PUSH4 0x4E487B71 PUSH1 0xE0 SHL PUSH1 0x0 MSTORE PUSH1 0x32 PUSH1 0x4 MSTORE PUSH1 0x24 PUSH1 0x0 REVERT JUMPDEST PUSH1 0x40 MLOAD SWAP1 PUSH12 0xFFFFFFFFFFFFFFFFFFFFFFFF NOT SWAP1 PUSH1 0x60 SHL AND PUSH1 0x20 DUP3 ADD MSTORE PUSH1 0x14 DUP1 DUP3 MSTORE PUSH2 0x1D85 DUP3 PUSH2 0x102E JUMP JUMPDEST PUSH1 0x40 MLOAD SWAP1 PUSH2 0x1D92 DUP3 PUSH2 0x102E JUMP JUMPDEST PUSH1 0x10 DUP3 MSTORE PUSH16 0x181899199A1A9B1B9C1CB0B131B232B3 PUSH1 0x81 SHL PUSH1 0x20 DUP4 ADD MSTORE PUSH1 0x40 MLOAD SWAP3 PUSH2 0x1DBC DUP5 PUSH2 0x104A JUMP JUMPDEST PUSH1 0x2A DUP5 MSTORE PUSH1 0x20 DUP5 ADD PUSH1 0x40 CALLDATASIZE DUP3 CALLDATACOPY DUP5 MLOAD ISZERO PUSH2 0x1D45 JUMPI PUSH1 0x30 SWAP1 MSTORE8 DUP4 MLOAD SWAP3 PUSH1 0x1 SWAP4 PUSH1 0x1 LT ISZERO PUSH2 0x1D45 JUMPI PUSH1 0x78 PUSH1 0x21 DUP7 ADD MSTORE8 PUSH1 0x0 JUMPDEST DUP4 DUP2 LT PUSH2 0x1DFB JUMPI POP POP POP POP POP SWAP1 JUMP JUMPDEST PUSH1 0x1 PUSH1 0x1 PUSH1 0xF8 SHL SUB NOT SWAP1 DUP2 PUSH2 0x1E1D PUSH2 0x1E13 DUP4 DUP8 PUSH2 0x1D34 JUMP JUMPDEST MLOAD PUSH1 0xFC SHR DUP6 PUSH2 0x1D34 JUMP JUMPDEST MLOAD AND SWAP2 DUP2 DUP8 SHL SWAP3 PUSH1 0x2 SWAP1 DUP4 DUP6 DIV DUP3 EQ DUP5 ISZERO OR ISZERO PUSH2 0x1274 JUMPI DUP5 DUP3 ADD DUP1 SWAP3 GT PUSH2 0x1274 JUMPI PUSH2 0x1E4C SWAP1 PUSH1 0x0 BYTE SWAP2 DUP11 PUSH2 0x1D34 JUMP JUMPDEST MSTORE8 PUSH2 0x1E67 PUSH1 0xF PUSH2 0x1E5C DUP5 DUP9 PUSH2 0x1D34 JUMP JUMPDEST MLOAD PUSH1 0xF8 SHR AND DUP6 PUSH2 0x1D34 JUMP JUMPDEST MLOAD AND SWAP2 PUSH1 0x3 SWAP1 DUP2 ADD DUP1 SWAP2 GT PUSH2 0x1274 JUMPI PUSH2 0x1E85 DUP8 SWAP4 PUSH1 0x0 BYTE SWAP2 DUP10 PUSH2 0x1D34 JUMP JUMPDEST MSTORE8 ADD PUSH2 0x1DEC JUMP JUMPDEST SWAP1 PUSH1 0x0 SWAP2 DUP3 MSTORE PUSH1 0x1 PUSH1 0x20 MSTORE DUP2 PUSH1 0x4 PUSH1 0x40 DUP3 KECCAK256 DUP3 DUP2 SSTORE DUP3 PUSH1 0x1 DUP3 ADD SSTORE DUP3 PUSH1 0x2 DUP3 ADD PUSH2 0x1EB6 DUP2 SLOAD PUSH2 0xFC2 JUMP JUMPDEST DUP1 PUSH2 0x1EDC JUMPI JUMPDEST POP POP PUSH1 0x3 DUP3 ADD SSTORE ADD SSTORE PUSH1 0x1 PUSH1 0x1 PUSH1 0xA0 SHL SUB AND DUP2 MSTORE PUSH1 0x2 PUSH1 0x20 MSTORE PUSH1 0x40 DUP2 KECCAK256 SSTORE JUMP JUMPDEST DUP3 PUSH1 0x1F DUP3 GT PUSH1 0x1 EQ PUSH2 0x1EF4 JUMPI POP POP SSTORE JUMPDEST DUP3 CODESIZE DUP1 PUSH2 0x1EBC JUMP JUMPDEST SWAP1 SWAP2 DUP1 DUP3 MSTORE PUSH2 0x1F12 PUSH1 0x1F PUSH1 0x20 DUP5 KECCAK256 SWAP5 ADD PUSH1 0x5 SHR DUP5 ADD PUSH1 0x1 DUP6 ADD PUSH2 0x119F JUMP JUMPDEST SSTORE SSTORE PUSH2 0x1EEC JUMP JUMPDEST PUSH1 0x0 DUP2 DUP2 MSTORE PUSH1 0x1 PUSH1 0x20 DUP2 DUP2 MSTORE PUSH1 0x40 DUP1 DUP5 KECCAK256 DUP1 SLOAD PUSH1 0x1 PUSH1 0x1 PUSH1 0xA0 SHL SUB SWAP1 DUP2 AND DUP1 DUP8 MSTORE DUP7 DUP6 MSTORE DUP4 DUP8 KECCAK256 SWAP6 DUP7 ADD SLOAD PUSH1 0x2 DUP8 ADD DUP1 SLOAD SWAP10 SWAP11 SWAP7 SWAP10 SWAP5 SWAP9 SWAP5 SWAP8 SWAP3 SWAP1 SWAP2 DUP9 DUP2 LT ISZERO PUSH2 0x225C JUMPI PUSH1 0xFF SWAP1 SWAP8 JUMPDEST AND SWAP7 DUP8 DUP2 MUL SWAP1 DUP1 DUP3 DIV DUP10 EQ SWAP1 ISZERO OR ISZERO PUSH2 0x2248 JUMPI PUSH1 0x64 SWAP1 DIV SWAP8 DUP9 DUP1 ISZERO SWAP2 DUP3 ISZERO PUSH2 0x223E JUMPI JUMPDEST POP POP PUSH2 0x21E6 JUMPI POP PUSH2 0x1F97 DUP8 DUP3 SLOAD PUSH2 0x1267 JUMP JUMPDEST SWAP1 SSTORE DUP4 MLOAD SWAP1 PUSH4 0x95EA7B3 PUSH1 0xE0 SHL DUP3 MSTORE PUSH20 0x1582F6F3D26658F7208A799BE46E34B1F366CE44 SWAP2 PUSH1 0x4 SWAP3 DUP1 DUP5 DUP4 ADD MSTORE DUP9 PUSH1 0x24 DUP4 ADD MSTORE PUSH20 0x28BEC7E30E6FAEE657A03E19BF1128AAD7632A00 SWAP2 DUP12 DUP2 PUSH1 0x44 DUP2 DUP11 DUP8 GAS CALL SWAP1 DUP2 ISZERO PUSH2 0x21DC JUMPI DUP8 SWAP2 PUSH2 0x21BF JUMPI JUMPDEST POP ISZERO PUSH2 0x2186 JUMPI DUP5 DUP11 SLOAD AND PUSH1 0x3C TIMESTAMP ADD SWAP1 DUP2 TIMESTAMP GT PUSH2 0x2173 JUMPI DUP9 MLOAD SWAP4 PUSH1 0xE0 DUP6 ADD DUP6 DUP2 LT PUSH8 0xFFFFFFFFFFFFFFFF DUP3 GT OR PUSH2 0x2160 JUMPI DUP11 MSTORE DUP5 MSTORE PUSH20 0x46EDE9564A72571DF6F5E44D0405360C0F4DCAB DUP5 DUP15 ADD SWAP1 DUP2 MSTORE DUP5 DUP11 ADD SWAP2 DUP3 MSTORE PUSH1 0x60 DUP6 ADD SWAP3 DUP4 MSTORE PUSH1 0x80 DUP6 ADD DUP13 DUP2 MSTORE PUSH1 0xA0 DUP7 ADD DUP11 DUP2 MSTORE PUSH1 0xC0 DUP8 ADD DUP12 DUP2 MSTORE DUP13 MLOAD PUSH4 0x178CA231 PUSH1 0xE3 SHL DUP2 MSTORE SWAP8 MLOAD DUP12 AND DUP9 DUP12 ADD MSTORE SWAP3 MLOAD DUP11 AND PUSH1 0x24 DUP9 ADD MSTORE SWAP3 MLOAD DUP10 AND PUSH1 0x44 DUP8 ADD MSTORE SWAP3 MLOAD PUSH1 0x64 DUP7 ADD MSTORE SWAP2 MLOAD PUSH1 0x84 DUP6 ADD MSTORE MLOAD PUSH1 0xA4 DUP5 ADD MSTORE MLOAD DUP6 AND PUSH1 0xC4 DUP4 ADD MSTORE DUP11 SWAP1 DUP3 SWAP1 DUP2 DUP9 GAS SWAP3 PUSH1 0xE4 SWAP4 CALL SWAP5 DUP6 ISZERO PUSH2 0x2155 JUMPI DUP1 SWAP6 PUSH2 0x2122 JUMPI JUMPDEST POP POP SWAP4 PUSH1 0x60 SWAP4 PUSH1 0x1 SWAP10 SWAP8 SWAP4 PUSH2 0x11F1 SWAP12 SWAP10 SWAP8 SWAP4 PUSH32 0x3F88BDD6633CD54B71B7CAE22EAE61C3B2C6560FC2F44D5B631985520F9AD996 SWAP8 ADD PUSH2 0x2104 DUP4 DUP3 SLOAD PUSH2 0x1B7D JUMP JUMPDEST SWAP1 SSTORE DUP1 DUP9 SLOAD AND SWAP11 DUP12 SWAP9 ADD SLOAD AND SWAP8 DUP3 MLOAD SWAP5 DUP6 MSTORE DUP5 ADD MSTORE DUP3 ADD MSTORE LOG3 PUSH2 0x1E8C JUMP JUMPDEST SWAP1 SWAP2 SWAP5 POP DUP10 DUP3 DUP2 RETURNDATASIZE DUP4 GT PUSH2 0x214E JUMPI JUMPDEST PUSH2 0x213B DUP2 DUP4 PUSH2 0x1066 JUMP JUMPDEST DUP2 ADD SUB SLT PUSH2 0x450 JUMPI POP MLOAD SWAP3 DUP1 PUSH1 0x1 PUSH2 0x20C4 JUMP JUMPDEST POP RETURNDATASIZE PUSH2 0x2131 JUMP JUMPDEST DUP7 MLOAD SWAP1 RETURNDATASIZE SWAP1 DUP3 RETURNDATACOPY RETURNDATASIZE SWAP1 REVERT JUMPDEST PUSH4 0x4E487B71 PUSH1 0xE0 SHL DUP11 MSTORE PUSH1 0x41 DUP9 MSTORE PUSH1 0x24 DUP11 REVERT JUMPDEST PUSH4 0x4E487B71 PUSH1 0xE0 SHL DUP9 MSTORE PUSH1 0x11 DUP7 MSTORE PUSH1 0x24 DUP9 REVERT JUMPDEST DUP7 MLOAD PUSH3 0x461BCD PUSH1 0xE5 SHL DUP2 MSTORE DUP1 DUP6 ADD DUP13 SWAP1 MSTORE PUSH1 0x13 PUSH1 0x24 DUP3 ADD MSTORE PUSH19 0x14D0534E88185C1C1C9BDD994819985A5B1959 PUSH1 0x6A SHL PUSH1 0x44 DUP3 ADD MSTORE PUSH1 0x64 SWAP1 REVERT JUMPDEST PUSH2 0x21D6 SWAP2 POP DUP13 DUP14 RETURNDATASIZE LT PUSH2 0x30B JUMPI PUSH2 0x2FD DUP2 DUP4 PUSH2 0x1066 JUMP JUMPDEST CODESIZE PUSH2 0x1FF7 JUMP JUMPDEST DUP9 MLOAD RETURNDATASIZE DUP10 DUP3 RETURNDATACOPY RETURNDATASIZE SWAP1 REVERT JUMPDEST SWAP9 SWAP7 POP POP POP PUSH1 0x80 SWAP2 POP SWAP3 PUSH1 0x14 DUP4 PUSH1 0x0 DUP1 MLOAD PUSH1 0x20 PUSH2 0x2326 DUP4 CODECOPY DUP2 MLOAD SWAP2 MSTORE SWAP5 DUP10 SWAP7 PUSH1 0x1 PUSH2 0x11F1 SWAP13 SWAP11 ADD SLOAD AND SWAP8 DUP2 MLOAD SWAP5 DUP6 MSTORE DUP5 ADD MSTORE DUP3 ADD MSTORE PUSH20 0x696E73756666696369656E742062616C616E6365 PUSH1 0x60 SHL PUSH1 0x60 DUP3 ADD MSTORE LOG3 PUSH2 0x1E8C JUMP JUMPDEST LT SWAP1 POP DUP9 CODESIZE PUSH2 0x1F85 JUMP JUMPDEST PUSH4 0x4E487B71 PUSH1 0xE0 SHL DUP7 MSTORE PUSH1 0x11 PUSH1 0x4 MSTORE PUSH1 0x24 DUP7 REVERT JUMPDEST POP PUSH1 0xFF DUP9 SWAP8 PUSH2 0x1F62 JUMP JUMPDEST DUP1 ISZERO PUSH2 0x2307 JUMPI DUP1 DUP2 PUSH1 0x0 SWAP3 JUMPDEST PUSH2 0x22EF JUMPI POP DUP1 PUSH2 0x2281 DUP4 PUSH2 0x10F3 JUMP JUMPDEST SWAP3 PUSH2 0x228F PUSH1 0x40 MLOAD SWAP5 DUP6 PUSH2 0x1066 JUMP JUMPDEST DUP1 DUP5 MSTORE PUSH1 0x1F NOT PUSH2 0x229E DUP3 PUSH2 0x10F3 JUMP JUMPDEST ADD CALLDATASIZE PUSH1 0x20 DUP7 ADD CALLDATACOPY SWAP1 JUMPDEST PUSH2 0x22B0 JUMPI POP POP SWAP1 JUMP JUMPDEST DUP1 ISZERO PUSH2 0x1274 JUMPI PUSH1 0x0 NOT ADD SWAP1 PUSH1 0xA SWAP1 PUSH1 0x30 DUP3 DUP3 MOD DUP2 ADD DUP1 SWAP2 GT PUSH2 0x1274 JUMPI PUSH1 0xF8 SHL PUSH1 0x1 PUSH1 0x1 PUSH1 0xF8 SHL SUB NOT AND PUSH1 0x0 BYTE PUSH2 0x22E6 DUP5 DUP7 PUSH2 0x1D34 JUMP JUMPDEST MSTORE8 DIV SWAP1 DUP2 PUSH2 0x22A7 JUMP JUMPDEST SWAP2 PUSH1 0x0 NOT DUP2 EQ PUSH2 0x1274 JUMPI PUSH1 0x1 PUSH1 0xA SWAP2 ADD SWAP3 DIV DUP1 PUSH2 0x2272 JUMP JUMPDEST POP PUSH1 0x40 MLOAD PUSH2 0x2314 DUP2 PUSH2 0x102E JUMP JUMPDEST PUSH1 0x1 DUP2 MSTORE PUSH1 0x3 PUSH1 0xFC SHL PUSH1 0x20 DUP3 ADD MSTORE SWAP1 JUMP INVALID 0xE1 0xEB DUP7 0xB4 SWAP4 PUSH7 0x5260F23A08F75E 0xCD PUSH31 0x5DE3B75EB90129DBC0741D062961D43095A26469706673582212202CF716B8 EXTCODEHASH PREVRANDAO 0x4C ISZERO TLOAD 0xE9 0xBB SIGNEXTEND OR 0xE1 PUSH32 0xC9571B8333B4AB8EAAD4EEB6D610D501BC64736F6C6343000818003300000000 "},"methodIdentifiers":{"AGENT_PLATFORM()":"e55ee7eb","AIONIS_API()":"82cb455b","JSON_API_AGENT_ID()":"011f8b1b","LLM_AGENT_ID()":"2e90c1a9","MAX_TRADE_AGE()":"9530b30f","MIN_EXECUTE_SCORE()":"1e13c6c3","QUICKSWAP_ROUTER()":"d0919116","USDCE()":"195187e1","WSOMI()":"d5a53bbb","activeRequest(address)":"c2c77938","checkLeaderActivity(address)":"503ee630","deposit(uint256)":"b6b55f25","getProfile(address)":"0f53a470","getRequestStage(address)":"f4cce57e","onStrategistResponse(bytes32,bytes)":"e9e42596","onWatcherResponse(bytes32,bytes)":"8b50817b","pendingRequests(bytes32)":"2795ad20","profiles(address)":"bbe15627","startFollowing(address,uint8,uint256,uint256)":"fdb1e58b","stopFollowing()":"b765e313"}}}}}