{"contracts/VaultManager.sol":{"VaultManager":{"abi":[{"inputs":[{"internalType":"address","name":"_ausd","type":"address"},{"internalType":"string","name":"_apiBase","type":"string"},{"internalType":"string","name":"_priceApiBase","type":"string"}],"stateMutability":"nonpayable","type":"constructor"},{"anonymous":false,"inputs":[{"indexed":true,"internalType":"bytes32","name":"vaultId","type":"bytes32"},{"indexed":false,"internalType":"address[]","name":"tokens","type":"address[]"}],"name":"AllowlistAdded","type":"event"},{"anonymous":false,"inputs":[{"indexed":true,"internalType":"bytes32","name":"vaultId","type":"bytes32"},{"indexed":false,"internalType":"address[]","name":"tokens","type":"address[]"}],"name":"AllowlistRemoved","type":"event"},{"anonymous":false,"inputs":[{"indexed":true,"internalType":"address","name":"follower","type":"address"},{"indexed":true,"internalType":"address","name":"keeper","type":"address"}],"name":"KeeperSet","type":"event"},{"anonymous":false,"inputs":[{"indexed":true,"internalType":"bytes32","name":"positionId","type":"bytes32"},{"indexed":true,"internalType":"bytes32","name":"vaultId","type":"bytes32"},{"indexed":false,"internalType":"int256","name":"pnl","type":"int256"},{"indexed":false,"internalType":"uint256","name":"exitPrice","type":"uint256"}],"name":"PositionClosed","type":"event"},{"anonymous":false,"inputs":[{"indexed":true,"internalType":"bytes32","name":"positionId","type":"bytes32"},{"indexed":true,"internalType":"bytes32","name":"vaultId","type":"bytes32"},{"indexed":false,"internalType":"address","name":"token","type":"address"},{"indexed":false,"internalType":"uint256","name":"ausdAllocated","type":"uint256"},{"indexed":false,"internalType":"uint256","name":"entryPrice","type":"uint256"}],"name":"PositionOpened","type":"event"},{"anonymous":false,"inputs":[{"indexed":true,"internalType":"address","name":"token","type":"address"},{"indexed":false,"internalType":"uint256","name":"price","type":"uint256"}],"name":"PriceUpdated","type":"event"},{"anonymous":false,"inputs":[{"indexed":true,"internalType":"bytes32","name":"requestId","type":"bytes32"},{"indexed":true,"internalType":"bytes32","name":"vaultId","type":"bytes32"}],"name":"StrategistRequested","type":"event"},{"anonymous":false,"inputs":[{"indexed":true,"internalType":"bytes32","name":"requestId","type":"bytes32"},{"indexed":true,"internalType":"bytes32","name":"vaultId","type":"bytes32"},{"indexed":false,"internalType":"uint8","name":"score","type":"uint8"},{"indexed":false,"internalType":"bool","name":"willExecute","type":"bool"}],"name":"StrategistResponse","type":"event"},{"anonymous":false,"inputs":[{"indexed":true,"internalType":"bytes32","name":"vaultId","type":"bytes32"},{"indexed":true,"internalType":"address","name":"token","type":"address"},{"indexed":false,"internalType":"uint256","name":"ausdAllocated","type":"uint256"},{"indexed":false,"internalType":"uint8","name":"copyScore","type":"uint8"}],"name":"TradeCopied","type":"event"},{"anonymous":false,"inputs":[{"indexed":true,"internalType":"bytes32","name":"vaultId","type":"bytes32"},{"indexed":false,"internalType":"string","name":"reason","type":"string"}],"name":"TradeSkipped","type":"event"},{"anonymous":false,"inputs":[{"indexed":true,"internalType":"bytes32","name":"vaultId","type":"bytes32"}],"name":"VaultClosed","type":"event"},{"anonymous":false,"inputs":[{"indexed":true,"internalType":"address","name":"follower","type":"address"},{"indexed":true,"internalType":"address","name":"leader","type":"address"},{"indexed":true,"internalType":"bytes32","name":"vaultId","type":"bytes32"},{"indexed":false,"internalType":"uint256","name":"amount","type":"uint256"}],"name":"VaultCreated","type":"event"},{"anonymous":false,"inputs":[{"indexed":true,"internalType":"bytes32","name":"vaultId","type":"bytes32"},{"indexed":false,"internalType":"uint256","name":"amount","type":"uint256"}],"name":"VaultDeposited","type":"event"},{"anonymous":false,"inputs":[{"indexed":true,"internalType":"bytes32","name":"vaultId","type":"bytes32"}],"name":"VaultPaused","type":"event"},{"anonymous":false,"inputs":[{"indexed":true,"internalType":"bytes32","name":"vaultId","type":"bytes32"}],"name":"VaultResumed","type":"event"},{"anonymous":false,"inputs":[{"indexed":true,"internalType":"bytes32","name":"vaultId","type":"bytes32"},{"indexed":false,"internalType":"uint256","name":"amount","type":"uint256"}],"name":"VaultWithdrawn","type":"event"},{"anonymous":false,"inputs":[{"indexed":true,"internalType":"bytes32","name":"requestId","type":"bytes32"},{"indexed":true,"internalType":"bytes32","name":"vaultId","type":"bytes32"}],"name":"WatcherRequested","type":"event"},{"anonymous":false,"inputs":[{"indexed":true,"internalType":"bytes32","name":"requestId","type":"bytes32"},{"indexed":true,"internalType":"bytes32","name":"vaultId","type":"bytes32"},{"indexed":false,"internalType":"address","name":"tokenIn","type":"address"},{"indexed":false,"internalType":"address","name":"tokenOut","type":"address"},{"indexed":false,"internalType":"uint256","name":"usdValue","type":"uint256"},{"indexed":false,"internalType":"uint256","name":"tradeTimestamp","type":"uint256"}],"name":"WatcherResponse","type":"event"},{"inputs":[],"name":"AGENT_PLATFORM","outputs":[{"internalType":"address","name":"","type":"address"}],"stateMutability":"view","type":"function"},{"inputs":[],"name":"API_BASE","outputs":[{"internalType":"string","name":"","type":"string"}],"stateMutability":"view","type":"function"},{"inputs":[],"name":"AUSD","outputs":[{"internalType":"address","name":"","type":"address"}],"stateMutability":"view","type":"function"},{"inputs":[],"name":"JSON_API_AGENT_ID","outputs":[{"internalType":"uint256","name":"","type":"uint256"}],"stateMutability":"view","type":"function"},{"inputs":[],"name":"LLM_AGENT_ID","outputs":[{"internalType":"uint256","name":"","type":"uint256"}],"stateMutability":"view","type":"function"},{"inputs":[],"name":"MAX_TRADE_AGE","outputs":[{"internalType":"uint256","name":"","type":"uint256"}],"stateMutability":"view","type":"function"},{"inputs":[],"name":"MIN_COPY_SCORE","outputs":[{"internalType":"uint8","name":"","type":"uint8"}],"stateMutability":"view","type":"function"},{"inputs":[],"name":"MIN_TRADE_AUSD","outputs":[{"internalType":"uint256","name":"","type":"uint256"}],"stateMutability":"view","type":"function"},{"inputs":[],"name":"PRICE_API_BASE","outputs":[{"internalType":"string","name":"","type":"string"}],"stateMutability":"view","type":"function"},{"inputs":[{"internalType":"address","name":"leader","type":"address"},{"internalType":"address[]","name":"tokens","type":"address[]"}],"name":"addToAllowlist","outputs":[],"stateMutability":"nonpayable","type":"function"},{"inputs":[{"internalType":"address","name":"follower","type":"address"},{"internalType":"address","name":"leader","type":"address"}],"name":"checkLeaderActivity","outputs":[],"stateMutability":"payable","type":"function"},{"inputs":[{"internalType":"bytes32","name":"positionId","type":"bytes32"}],"name":"closePosition","outputs":[],"stateMutability":"nonpayable","type":"function"},{"inputs":[{"internalType":"address","name":"leader","type":"address"},{"internalType":"uint256","name":"amount","type":"uint256"},{"internalType":"uint8","name":"riskLevel","type":"uint8"},{"internalType":"uint8","name":"maxPerTradePct","type":"uint8"},{"internalType":"address[]","name":"allowlist","type":"address[]"}],"name":"createVault","outputs":[],"stateMutability":"nonpayable","type":"function"},{"inputs":[{"internalType":"address","name":"leader","type":"address"},{"internalType":"uint256","name":"amount","type":"uint256"}],"name":"deposit","outputs":[],"stateMutability":"nonpayable","type":"function"},{"inputs":[{"internalType":"address","name":"","type":"address"},{"internalType":"uint256","name":"","type":"uint256"}],"name":"followerVaults","outputs":[{"internalType":"bytes32","name":"","type":"bytes32"}],"stateMutability":"view","type":"function"},{"inputs":[{"internalType":"address","name":"follower","type":"address"},{"internalType":"address","name":"leader","type":"address"}],"name":"getAllowlist","outputs":[{"internalType":"address[]","name":"","type":"address[]"}],"stateMutability":"view","type":"function"},{"inputs":[{"internalType":"address","name":"follower","type":"address"}],"name":"getFollowerVaults","outputs":[{"internalType":"bytes32[]","name":"","type":"bytes32[]"}],"stateMutability":"view","type":"function"},{"inputs":[{"internalType":"address","name":"follower","type":"address"},{"internalType":"address","name":"leader","type":"address"}],"name":"getFreeBalance","outputs":[{"internalType":"uint256","name":"","type":"uint256"}],"stateMutability":"view","type":"function"},{"inputs":[{"internalType":"address","name":"follower","type":"address"},{"internalType":"address","name":"leader","type":"address"}],"name":"getOpenPositions","outputs":[{"internalType":"bytes32[]","name":"openIds","type":"bytes32[]"}],"stateMutability":"view","type":"function"},{"inputs":[{"internalType":"address","name":"follower","type":"address"},{"internalType":"address","name":"leader","type":"address"}],"name":"getUnrealizedPnL","outputs":[{"internalType":"int256","name":"totalPnl","type":"int256"}],"stateMutability":"view","type":"function"},{"inputs":[{"internalType":"address","name":"follower","type":"address"},{"internalType":"address","name":"leader","type":"address"}],"name":"getVault","outputs":[{"components":[{"internalType":"address","name":"follower","type":"address"},{"internalType":"address","name":"leader","type":"address"},{"internalType":"uint256","name":"ausdLocked","type":"uint256"},{"internalType":"uint256","name":"ausdAllocated","type":"uint256"},{"internalType":"uint8","name":"riskLevel","type":"uint8"},{"internalType":"uint8","name":"maxPerTradePct","type":"uint8"},{"internalType":"address[]","name":"allowlist","type":"address[]"},{"internalType":"enum VaultManager.VaultStatus","name":"status","type":"uint8"}],"internalType":"struct VaultManager.VaultConfig","name":"","type":"tuple"}],"stateMutability":"view","type":"function"},{"inputs":[{"internalType":"address","name":"","type":"address"}],"name":"keeperOf","outputs":[{"internalType":"address","name":"","type":"address"}],"stateMutability":"view","type":"function"},{"inputs":[{"internalType":"address","name":"","type":"address"}],"name":"latestPrice","outputs":[{"internalType":"uint256","name":"","type":"uint256"}],"stateMutability":"view","type":"function"},{"inputs":[{"internalType":"bytes32","name":"requestId","type":"bytes32"},{"internalType":"bytes","name":"response","type":"bytes"}],"name":"onPriceUpdate","outputs":[],"stateMutability":"nonpayable","type":"function"},{"inputs":[{"internalType":"bytes32","name":"requestId","type":"bytes32"},{"internalType":"bytes","name":"response","type":"bytes"}],"name":"onStrategistResponse","outputs":[],"stateMutability":"nonpayable","type":"function"},{"inputs":[{"internalType":"bytes32","name":"requestId","type":"bytes32"},{"internalType":"bytes","name":"response","type":"bytes"}],"name":"onWatcherResponse","outputs":[],"stateMutability":"nonpayable","type":"function"},{"inputs":[{"internalType":"address","name":"leader","type":"address"}],"name":"pauseVault","outputs":[],"stateMutability":"nonpayable","type":"function"},{"inputs":[{"internalType":"bytes32","name":"","type":"bytes32"}],"name":"pipelineActive","outputs":[{"internalType":"bool","name":"","type":"bool"}],"stateMutability":"view","type":"function"},{"inputs":[{"internalType":"bytes32","name":"","type":"bytes32"}],"name":"positions","outputs":[{"internalType":"address","name":"follower","type":"address"},{"internalType":"address","name":"leader","type":"address"},{"internalType":"bytes32","name":"vaultId","type":"bytes32"},{"internalType":"address","name":"token","type":"address"},{"internalType":"uint256","name":"ausdAllocated","type":"uint256"},{"internalType":"uint256","name":"entryPrice","type":"uint256"},{"internalType":"uint256","name":"exitPrice","type":"uint256"},{"internalType":"int256","name":"pnl","type":"int256"},{"internalType":"enum VaultManager.PositionStatus","name":"status","type":"uint8"},{"internalType":"uint256","name":"openedAt","type":"uint256"},{"internalType":"uint256","name":"closedAt","type":"uint256"}],"stateMutability":"view","type":"function"},{"inputs":[{"internalType":"address","name":"leader","type":"address"},{"internalType":"address[]","name":"tokens","type":"address[]"}],"name":"removeFromAllowlist","outputs":[],"stateMutability":"nonpayable","type":"function"},{"inputs":[{"internalType":"bytes32","name":"","type":"bytes32"}],"name":"requestToVault","outputs":[{"internalType":"bytes32","name":"","type":"bytes32"}],"stateMutability":"view","type":"function"},{"inputs":[{"internalType":"address","name":"leader","type":"address"}],"name":"resumeVault","outputs":[],"stateMutability":"nonpayable","type":"function"},{"inputs":[{"internalType":"address","name":"keeper","type":"address"}],"name":"setKeeper","outputs":[],"stateMutability":"nonpayable","type":"function"},{"inputs":[{"internalType":"address","name":"token","type":"address"}],"name":"updatePrice","outputs":[],"stateMutability":"payable","type":"function"},{"inputs":[{"internalType":"address","name":"follower","type":"address"},{"internalType":"address","name":"leader","type":"address"}],"name":"vaultId","outputs":[{"internalType":"bytes32","name":"","type":"bytes32"}],"stateMutability":"pure","type":"function"},{"inputs":[{"internalType":"bytes32","name":"","type":"bytes32"},{"internalType":"uint256","name":"","type":"uint256"}],"name":"vaultPositions","outputs":[{"internalType":"bytes32","name":"","type":"bytes32"}],"stateMutability":"view","type":"function"},{"inputs":[{"internalType":"bytes32","name":"","type":"bytes32"}],"name":"vaults","outputs":[{"internalType":"address","name":"follower","type":"address"},{"internalType":"address","name":"leader","type":"address"},{"internalType":"uint256","name":"ausdLocked","type":"uint256"},{"internalType":"uint256","name":"ausdAllocated","type":"uint256"},{"internalType":"uint8","name":"riskLevel","type":"uint8"},{"internalType":"uint8","name":"maxPerTradePct","type":"uint8"},{"internalType":"enum VaultManager.VaultStatus","name":"status","type":"uint8"}],"stateMutability":"view","type":"function"},{"inputs":[{"internalType":"address","name":"leader","type":"address"}],"name":"withdraw","outputs":[],"stateMutability":"nonpayable","type":"function"},{"stateMutability":"payable","type":"receive"}],"evm":{"bytecode":{"linkReferences":{},"object":"60a060405234620003a75762004d9f803803806200001d81620003ac565b9283398101606082820312620003a7578151916001600160a01b038316808403620003a75760208281015190946001600160401b03939091848111620003a757856200006b918301620003d2565b946040820151858111620003a757620000859201620003d2565b911562000362576080528251908282116200034c5760008054926001958685811c9516801562000341575b888610146200032d578190601f95868111620002da575b508890868311600114620002765784926200026a575b5050600019600383901b1c191690861b1781555b8151938411620002565784548581811c911680156200024b575b878210146200023757838111620001ef575b50859284116001146200018a5783949550926200017e575b5050600019600383901b1c191690821b1790555b60405161495a908162000445823960805181818161048101528181611182015281816118d201528181611faf01526121050152f35b01519050388062000135565b9190601f1984169585845280842093905b878210620001d757505083859610620001bd575b505050811b01905562000149565b015160001960f88460031b161c19169055388080620001af565b8087859682949686015181550195019301906200019b565b8582528682208480870160051c8201928988106200022d575b0160051c019086905b828110620002215750506200011d565b83815501869062000211565b9250819262000208565b634e487b7160e01b82526022600452602482fd5b90607f16906200010b565b634e487b7160e01b81526041600452602490fd5b015190503880620000dd565b8480528985208994509190601f198416865b8c828210620002c35750508411620002a9575b505050811b018155620000f1565b015160001960f88460031b161c191690553880806200029b565b8385015186558c9790950194938401930162000288565b9091508380528884208680850160051c8201928b861062000323575b918a91869594930160051c01915b82811062000314575050620000c7565b8681558594508a910162000304565b92508192620002f6565b634e487b7160e01b83526022600452602483fd5b94607f1694620000b0565b634e487b7160e01b600052604160045260246000fd5b60405162461bcd60e51b815260048101869052601560248201527f564d3a207a65726f2061555344206164647265737300000000000000000000006044820152606490fd5b600080fd5b6040519190601f01601f191682016001600160401b038111838210176200034c57604052565b919080601f84011215620003a75782516001600160401b0381116200034c5760209062000408601f8201601f19168301620003ac565b92818452828287010111620003a75760005b8181106200043057508260009394955001015290565b85810183015184820184015282016200041a56fe608080604052600436101561001d575b50361561001b57600080fd5b005b600090813560e01c908163011f8b1b146123e9575080631aac9197146122725780631fb3e24e1461222a57806322edf01a1461217f5780632c493e90146121505780632e90c1a9146121345780632fd7d1fd146120ef5780633c4ce221146120b357806347e7ef2414611f2c5780634e17707a14611bda5780634e6ec0e614611b05578063514ea4bf14611a3c57806351cff8d91461183257806353084eff146117f9578063572fcdcd146117775780635a2d6f5d14611759578063748747e6146116ef5780637c42e644146115bc57806385f9805d146110855780638b50817b1461104e57806392bc691414610f365780639530b30f14610f1957806396e85ced14610ce5578063989a83bf14610c01578063b8ff783d14610be5578063bbd7edc514610a6e578063bd44815f14610a4f578063c0bd6f9e14610960578063c81e62e614610918578063c8f6fcdf146108ee578063cca23bf214610869578063d01ec4a61461081f578063d4805742146106f9578063de700da6146106c0578063e54a2ad5146103bb578063e55ee7eb1461038c578063e8134712146102045763e9e425960361000f5734610201576101fe6101d936612631565b916101f973037bb9c718f3f7fe5ecbdb0b600d607b527067763314612889565b61407a565b80f35b80fd5b50346102015760403660031901126102015761022f610221612404565b61022961241f565b90613fd3565b8152600560209060056020526040832090839284928054935b84811061032c5750610259856128d4565b94610267604051968761258c565b808652610276601f19916128d4565b013660208701378590865b85811061029a576040518061029689826125f5565b0390f35b6102a481836124bc565b9054600391821b1c895280855260ff600860408b20015416600281101561031857156102d4575b50600101610281565b6102de82846124bc565b9054911b1c6102ec84614022565b93885181101561030457861b880185015260016102cb565b634e487b7160e01b8a52603260045260248afd5b634e487b7160e01b8a52602160045260248afd5b61033681836124bc565b9054600391821b1c8852835260ff60086040892001541660028110156103785715610364575b600101610248565b94610370600191614022565b95905061035c565b634e487b7160e01b88526021600452602488fd5b5034610201578060031936011261020157602060405173037bb9c718f3f7fe5ecbdb0b600d607b527067768152f35b5034610201576020806003193601126106bc576004358083526003825260408320916008830160ff81541660028110156106a85761066b5783546001600160a01b03929083163381148015610653575b6104159150612848565b600285015494858752600282526040872092846003830154168852600a835260408820549384156105f7576004830180549661045f610454888a6128eb565b600587015490612957565b6104698982614009565b98808211156105945750825461047e9161294a565b907f000000000000000000000000000000000000000000000000000000000000000016803b15610590576040516340c10f1960e01b815230600482015260248101839052908c908290604490829084905af1801561058557610554575b509161052960037fb8afeb408acd10e29c21161f211b1e177a3ce18923199654650821f940cff38a99979593604099979561051b60028601918254612825565b90555b54920191825461294a565b9055836006830155846007830155600160ff19825416179055600a429101558351928352820152a380f35b6001600160401b03819c929c1161057157604052996105296104db565b634e487b7160e01b82526041600452602482fd5b6040513d8e823e3d90fd5b8b80fd5b604098969492507fb8afeb408acd10e29c21161f211b1e177a3ce18923199654650821f940cff38a99979593818360039361052995106105d6575b505061051e565b6105df9161294a565b6105ee6002860191825461294a565b905538806105cf565b60405162461bcd60e51b815260048101859052602e60248201527f564d3a206e6f20707269636520617661696c61626c652c2063616c6c2075706460448201526d185d19541c9a58d948199a5c9cdd60921b6064820152608490fd5b5086526006815261041583604088205416331461040b565b60405162461bcd60e51b81526004810183905260156024820152742b269d103837b9b4ba34b7b7103737ba1037b832b760591b6044820152606490fd5b634e487b7160e01b86526021600452602486fd5b5080fd5b5034610201576040366003190112610201576106f160406020926106e5610221612404565b81526002845220614211565b604051908152f35b503461020157604036600319011261020157610713612404565b61072561071e61241f565b8392613fd3565b825260056020906005602052604084209084928254925b83851061074e57602086604051908152f35b909192939461075d86836124bc565b9054600391821b1c8852808452604088209060ff600883015416600281101561031857610809578101546001600160a01b03168852600a845260408820549081158015610814575b61080957906107ca82876107c160046107cf96015494856128eb565b91015490612957565b614009565b908782820192831291129080158216911516176107f557600190955b019392919061073c565b634e487b7160e01b87526011600452602487fd5b5050946001906107eb565b5085810154156107a5565b5034610201576040366003190112610201576108556005604061029693610847610221612404565b815260026020522001613f77565b60405191829160208352602083019061267d565b503461020157602036600319011261020157604060e09160043581526002602052206108ec60018060a01b039160ff838254169360018301541691600281015460038201549083600660048501549401541694604051978852602088015260408701526060860152818116608086015260081c1660a084015260c08301906126ba565bf35b50346102015760203660031901126102015760406020916004358152600783522054604051908152f35b50346102015760403660031901126102015760243590600435815260056020526040812090815483101561020157602061095284846124bc565b90546040519160031b1c8152f35b50346102015760203660031901126102015761098361097d612404565b33613fd3565b808252600260205260408220546109a4906001600160a01b0316331461271b565b808252600260205260ff6006604084200154166003811015610a3b57610a0557808252600260205260408220600601805460ff191660011790557f7ca948eddccf3a65f738292fe09d47dd38a0616763f1a1a78715430c7a18a18b8280a280f35b60405162461bcd60e51b815260206004820152600e60248201526d564d3a206e6f742061637469766560901b6044820152606490fd5b634e487b7160e01b83526021600452602483fd5b50346102015760403660031901126102015760206106f1610221612404565b503461020157604036600319011261020157610ad2610a8b612404565b610a9361241f565b908360e0604051610aa381612524565b8281528260208201528260408201528260608201528260808201528260a0820152606060c08201520152613fd3565b815260026020526040812060405190610aea82612524565b60018060a01b039081815416835281600182015416916020840192835260028201549060408501918252600383015460608601908152600484015492608087019260ff8516845260ff60a089019560081c16855260ff6006610b4e60058901613f77565b9760c08b019889520154169660e08901976003811015610bd15793610296969360ff95938a999793879560209c52816040519d8e9d8e52511660208d0152511660408b01525160608a0152516080890152511660a0870152511660c085015251610bc6610100918260e087015261012086019061267d565b9251908401906126ba565b634e487b7160e01b8b52602160045260248bfd5b50346102015780600319360112610201576020604051600a8152f35b503461020157806003193601126102015760405190808260019260015493610c28856124ea565b9384845260209586600182169182600014610cc3575050600114610c69575b5050610c559250038361258c565b6102966040519282849384528301906125d0565b90859250600182527fb10e2d527612073b26eecdfd717e6a320cf44b4afac2b0732d9fcbe2b7fa0cf65b858310610cab575050610c5593508201013880610c47565b80548389018501528794508693909201918101610c93565b9250935050610c5594915060ff191682840152151560051b8201013880610c47565b506020908160031936011261020157610cfc612404565b6001600160a01b038116908115610ee357610d1690614263565b92604051836001805490610d29826124ea565b9160018116908115610ec55750600114610e6f575b505090610db06040828585610d5f8b8398610dd99b9c9d51948592016125ad565b0103610d73601f199182810186528561258c565b66242e707269636560c81b85610d94845196858389015260608801906125d0565b868103938401858801526007815201528481018452018261258c565b604051809481926322e05a0160e21b8352600160048401526080602484015260848301906125d0565b306044830152631f10b99160e21b606483015203813473037bb9c718f3f7fe5ecbdb0b600d607b527067765af18015610e64578490610e32575b8452600b9052506040822080546001600160a01b031916909117905580f35b508082813d8311610e5d575b610e48818361258c565b81010312610e5957600b9151610e13565b8380fd5b503d610e3e565b6040513d86823e3d90fd5b6001875290915085907fb10e2d527612073b26eecdfd717e6a320cf44b4afac2b0732d9fcbe2b7fa0cf65b838310610eb25750505081018201610db06040610d3e565b8054858401870152918501918101610e9a565b60ff191686860152505080151502820183019050610db06040610d3e565b60405162461bcd60e51b815260048101859052600e60248201526d2b269d103d32b937903a37b5b2b760911b6044820152606490fd5b5034610201578060031936011261020157602060405161012c8152f35b503461020157610f56610f4836612479565b92909161097d8415156126dd565b80845260026020526040842054909290610f7a906001600160a01b0316331461271b565b828452600260205260408420600501845b82811061102957505415610fd0577f89216286babe3a315db35c8a44501c50b04e4af6db52228800178fa93abbcfa691610fca60405192839283612780565b0390a280f35b60405162461bcd60e51b815260206004820152602b60248201527f564d3a2063616e6e6f742072656d6f766520616c6c20746f6b656e732066726f60448201526a1b48185b1b1bdddb1a5cdd60aa1b6064820152608490fd5b8061104861104261103d600194878961275c565b61276c565b8461438f565b01610f8b565b5034610201576101fe61106036612631565b9161108073037bb9c718f3f7fe5ecbdb0b600d607b527067763314612889565b612977565b50346102015760a03660031901126102015761109f612404565b6024604491823560ff81168091036115b8576064803560ff81168091036115b4576084356001600160401b0381116115b0576110df903690600401612449565b90929091906001600160a01b03861615158061159d575b156115685760018510158061155d575b156115285760018210158061151e575b156114eb57821561149857863515611465576111328633613fd3565b808a52600260205260408a20549098906001600160a01b03166114245750506040516323b872dd60e01b8152336004820152306024820152863560448201526020816064818c6001600160a01b037f0000000000000000000000000000000000000000000000000000000000000000165af18015611419576111bb918a916113ea575b506127e4565b604051936111c885612524565b3385526001600160a01b03861660208601528635604086015260608501899052608085015260a08401526111fb816128d4565b91611209604051938461258c565b8183526020830190368360051b8201116113e65780915b8360051b820183106113ce575050505060c08201528460e082015283855260026020526040852060018060a01b038251166001600160601b0360a01b9081835416178255600182019060018060a01b036020850151169082541617905560408201516002820155606082015160038201556004810160ff60808401511681549061ff0060a086015160081b169161ffff1916171790556005810160c0830151908151916001600160401b0383116113bb57600160401b83116113bb5760209082548484558085106113a1575b500190885260208820885b8381106113845750505050600660e0910191015160038110156113715760ff8019835416911617905533845260046020526113358360408620612915565b604051913582526001600160a01b03169033907f6195d111f124dc39cb1ab083f9f1b6664e415bf60b71499b3a4b24cf07c337a890602090a480f35b634e487b7160e01b865260216004528386fd5b82516001600160a01b0316818301556020909201916001016112f7565b838b52828b206113b59181019086016128fe565b386112ec565b634e487b7160e01b895260416004528689fd5b602080916113db85612435565b815201920191611220565b8880fd5b61140c915060203d602011611412575b611404818361258c565b8101906127cc565b386111b5565b503d6113fa565b6040513d8b823e3d90fd5b7f564d3a207661756c7420616c7265616479206578697374730000000000000000889160186040519362461bcd60e51b855260206004860152840152820152fd5b60405162461bcd60e51b8152602060048201526010818901526f15934e881e995c9bc819195c1bdcda5d60821b818a0152fd5b8667696c6c20636f707960c01b6084927f564d3a20616c6c6f776c69737420656d7074792c206e6f2074726164657320778b60286040519562461bcd60e51b875260206004880152860152840152820152fd5b60405162461bcd60e51b8152602060048201526010818901526f0564d3a206d617850637420312d3130360841b818a0152fd5b5080821115611116565b60405162461bcd60e51b815260206004820152601281890152710564d3a207269736b4c6576656c20312d31360741b818a0152fd5b50600a851115611106565b60405162461bcd60e51b815260206004820152601281890152712b269d1034b73b30b634b2103632b0b232b960711b818a0152fd5b506001600160a01b0386163314156110f6565b8780fd5b8680fd5b8480fd5b5034610201576115cb36612631565b906115eb73037bb9c718f3f7fe5ecbdb0b600d607b527067763314612889565b828452600b602090815260408520546001600160a01b03169390929084156116aa578552600b83526040852080546001600160a01b031916905581018190038213610e595735801561167157907f0d86730737b142fc160892fa8a0f2db687a92a0e294d1ad70624cf5acef03b8491838552600a8252806040862055604051908152a280f35b60405162461bcd60e51b8152600481018390526011602482015270564d3a20696e76616c696420707269636560781b6044820152606490fd5b60405162461bcd60e51b815260048101859052601960248201527f564d3a20756e6b6e6f776e2070726963652072657175657374000000000000006044820152606490fd5b503461020157602036600319011261020157611709612404565b3380835260066020526040832080546001600160a01b0319166001600160a01b0390931692831790557f50697e88bd427923002f5d3844f352091c05c0c9c3b69e43830863d2224631738380a380f35b50346102015780600319360112610201576020604051620f42408152f35b5034610201576020806003193601126106bc576001600160a01b0361179a612404565b1682526004602052604082209160405180926020855492838152019483526020832092905b8282106117e257610296856117d68189038261258c565b604051918291826125f5565b8354865294850194600193840193909101906117bf565b5034610201576020366003190112610201576020906040906001600160a01b03611821612404565b168152600a83522054604051908152f35b5034610201576020806003193601126106bc5761185061097d612404565b90818352600281526040832060018060a01b0361187133828454161461271b565b6006820180549260ff8416600381101561037857600214611a025760038101546119bd57600290810180549088905560ff199490941617905560405163a9059cbb60e01b8152336004820152602481018390529083908290604490829089907f0000000000000000000000000000000000000000000000000000000000000000165af19081156119b2578591611995575b501561195a5782917f1de10dc7adf633383767e576a9953d1b3c4f31a05c1635d7656d25604aca6b1f91604051908152a27fd06ef1be920eaf099a4e446ec48846abae39f5eb6b0877fea0913a68731af5518280a280f35b60405162461bcd60e51b815260048101839052601360248201527215934e881dda5d1a191c985dc819985a5b1959606a1b6044820152606490fd5b6119ac9150833d851161141257611404818361258c565b38611902565b6040513d87823e3d90fd5b60405162461bcd60e51b815260048101869052601e60248201527f564d3a20636c6f7365206f70656e20706f736974696f6e7320666972737400006044820152606490fd5b60405162461bcd60e51b815260048101869052601260248201527115934e88185b1c9958591e4818db1bdcd95960721b6044820152606490fd5b503461020157602036600319011261020157600435815260036020526040812060018060a01b03808254169181600182015416916002820154906003830154166004830154600584015460068501549160078601549360ff60088801541695600a6009890154980154986040519a8b5260208b015260408a01526060890152608088015260a087015260c086015260e08501526002811015611af1576101609450610100840152610120830152610140820152f35b634e487b7160e01b85526021600452602485fd5b503461020157602036600319011261020157611b2261097d612404565b80825260026020526040822054611b43906001600160a01b0316331461271b565b808252600260205260ff6006604084200154166003811015610a3b57600103611ba457808252600260205260408220600601805460ff191690557fa7b437a7c0be1eaaad481743f822acf86d00e9707a0c18a609f0e3ad97370ba88280a280f35b60405162461bcd60e51b815260206004820152600e60248201526d15934e881b9bdd081c185d5cd95960921b6044820152606490fd5b50604036600319011261020157611bef612404565b90611c24611bfb61241f565b928390611c1f336001600160a01b03808416918214918215611f13575b5050612848565b613fd3565b8082526020600281526040832060ff6006820154166003811015611af157611ed7578284526009825260ff604085205416611e9257611c66620f424091614211565b1115611e4e578183526009815260408320611c8f60019560ff1992600184825416179055614263565b946040519185918654611ca1816124ea565b9260018216918215611e33575050600114611dde575b505090611cfa600c828585611cd88b8398611d3e9b9c9d51948592016125ad565b016b02f6c61746573742d737761760a41b81520360131981018452018261258c565b610db06040611d14815193828686015260608501906125d0565b650242e737761760d41b8585830392601f198401858801526006815201528481018452018261258c565b306044830152638b50817b60e01b606483015203813473037bb9c718f3f7fe5ecbdb0b600d607b527067765af1918215610e64578492611dae575b50600790828552528160408420557f475c2a67ead2c59d50f20474835961db7e1689b6b1972ff56ef9fc5309ce7be78380a380f35b9080925081813d8311611dd7575b611dc6818361258c565b81010312610e595751906007611d79565b503d611dbc565b86805290915085907f290decd9548b62a8d60345a988386fc84ba6bc95484008f6362f93160ef3e5635b838310611e205750505081018201611cfa600c611cb7565b8054858401870152918501918101611e08565b1686860152505080151502820183019050611cfa600c611cb7565b6064906040519062461bcd60e51b82526004820152601d60248201527f564d3a20696e73756666696369656e7420667265652062616c616e63650000006044820152fd5b60405162461bcd60e51b815260048101839052601c60248201527f564d3a20706970656c696e6520616c72656164792072756e6e696e67000000006044820152606490fd5b60405162461bcd60e51b8152600481018390526014602482015273564d3a207661756c74206e6f742061637469766560601b6044820152606490fd5b9091508652600660205260408620541633143880611c18565b503461020157604036600319011261020157611f46612404565b611f536024359133613fd3565b9081835260206002815260ff6006604086200154166003811015611af15760021461207c578115612046576040516323b872dd60e01b815233600482015230602482015260448101839052918183606481886001600160a01b037f0000000000000000000000000000000000000000000000000000000000000000165af19283156119b2577ff4d5f4313db9d90750b55863740862117f1a26005f470df515d532580be167b29361200a91879161202f57506127e4565b8385526002825260026040862001612023828254612825565b9055604051908152a280f35b61140c9150843d861161141257611404818361258c565b6064906040519062461bcd60e51b82526004820152600f60248201526e15934e881e995c9bc8185b5bdd5b9d608a1b6044820152fd5b6064906040519062461bcd60e51b82526004820152601060248201526f15934e881d985d5b1d0818db1bdcd95960821b6044820152fd5b5034610201576020366003190112610201576020906001600160a01b0390604090826120dd612404565b16815260068452205416604051908152f35b50346102015780600319360112610201576040517f00000000000000000000000000000000000000000000000000000000000000006001600160a01b03168152602090f35b5034610201578060031936011261020157602060405160028152f35b50346102015760203660031901126102015760ff60406020926004358152600984522054166040519015158152f35b50346102015780600319360112610201576040519080828254916121a2836124ea565b9283835260209460019186600182169182600014610cc35750506001146121d1575050610c559250038361258c565b908592508180527f290decd9548b62a8d60345a988386fc84ba6bc95484008f6362f93160ef3e5635b858310612212575050610c5593508201013880610c47565b805483890185015287945086939092019181016121fa565b503461020157604036600319011261020157612244612404565b6001600160a01b031681526004602052604081208054602435929083101561020157602061095284846124bc565b5034610201576122949061228536612479565b9161097d8395929515156126dd565b90818352602093600260205260018060a01b036122b833826040882054161461271b565b83855260026020526040852060050195855b84811061230657505050907f6daa1ff9696b2f02619a3f88b4b180ef2a65d070354484a2689f745bd640b76491610fca60405192839283612780565b8261231561103d83888861275c565b16156123ab5761233261232c61103d83888861275c565b896141c6565b15612340575b6001016122ca565b61234e61103d82878761275c565b8854600160401b8110156123975760019291612372828561239094018d558c6124bc565b90919060018060a01b038084549260031b9316831b921b1916179055565b9050612338565b634e487b7160e01b89526041600452602489fd5b60405162461bcd60e51b8152600481018390526016602482015275564d3a207a65726f20746f6b656e206164647265737360501b6044820152606490fd5b9050346106bc57816003193601126106bc5780600160209252f35b600435906001600160a01b038216820361241a57565b600080fd5b602435906001600160a01b038216820361241a57565b35906001600160a01b038216820361241a57565b9181601f8401121561241a578235916001600160401b03831161241a576020808501948460051b01011161241a57565b90604060031983011261241a576004356001600160a01b038116810361241a5791602435906001600160401b03821161241a576124b891600401612449565b9091565b80548210156124d45760005260206000200190600090565b634e487b7160e01b600052603260045260246000fd5b90600182811c9216801561251a575b602083101461250457565b634e487b7160e01b600052602260045260246000fd5b91607f16916124f9565b61010081019081106001600160401b0382111761254057604052565b634e487b7160e01b600052604160045260246000fd5b606081019081106001600160401b0382111761254057604052565b604081019081106001600160401b0382111761254057604052565b90601f801991011681019081106001600160401b0382111761254057604052565b60005b8381106125c05750506000910152565b81810151838201526020016125b0565b906020916125e9815180928185528580860191016125ad565b601f01601f1916010190565b602090602060408183019282815285518094520193019160005b82811061261d575050505090565b83518552938101939281019260010161260f565b604060031982011261241a57600435916024356001600160401b039283821161241a578060238301121561241a57816004013593841161241a576024848301011161241a576024019190565b90815180825260208080930193019160005b82811061269d575050505090565b83516001600160a01b03168552938101939281019260010161268f565b9060038210156126c75752565b634e487b7160e01b600052602160045260246000fd5b156126e457565b60405162461bcd60e51b815260206004820152600f60248201526e564d3a20656d70747920617272617960881b6044820152606490fd5b1561272257565b60405162461bcd60e51b815260206004820152601260248201527115934e881b9bdd081e5bdd5c881d985d5b1d60721b6044820152606490fd5b91908110156124d45760051b0190565b356001600160a01b038116810361241a5790565b909160406020928260208201602083525201929160005b8281106127a5575050505090565b909192938280600192838060a01b036127bd89612435565b16815201950193929101612797565b9081602091031261241a5751801515810361241a5790565b156127eb57565b60405162461bcd60e51b815260206004820152601260248201527115934e8819195c1bdcda5d0819985a5b195960721b6044820152606490fd5b9190820180921161283257565b634e487b7160e01b600052601160045260246000fd5b1561284f57565b60405162461bcd60e51b815260206004820152601260248201527115934e881b9bdd08185d5d1a1bdc9a5e995960721b6044820152606490fd5b1561289057565b606460405162461bcd60e51b815260206004820152602060248201527f564d3a2063616c6c6572206973206e6f74206167656e7420706c6174666f726d6044820152fd5b6001600160401b0381116125405760051b60200190565b8181029291811591840414171561283257565b818110612909575050565b600081556001016128fe565b8054600160401b81101561254057612932916001820181556124bc565b819291549060031b91821b91600019901b1916179055565b9190820391821161283257565b8115612961570490565b634e487b7160e01b600052601260045260246000fd5b60008181526007602052604090205492918315613f325781600052600760205260006040812055836000526002602052604060002060a082858101031261241a57846129c283612435565b937fa84f2d5f6dc3e2d48faf97fdf254a0792c7bc3785bee1df107ff0d1ee596453e60806129f260208701612435565b604080516001600160a01b03998a16815298821660208a0152878101359089015281870135606089015296a361012c612a2f60808401354261294a565b11613ee257612a4a6001600160a01b038416600583016141c6565b15613e8757612a5881614211565b93620f4240851115613e24578560005260086020526040600020906001600160401b03811161254057612a8b82546124ea565b601f8111613de7575b50806000601f8211600114613d7f57600091613d74575b508160011b916000199060031b1c19161790555b6002810154906004810154936064612add60ff8760081c16856128eb565b0491868311613d6c575b600101546001600160a01b038281166000908152600a60205260409020549116959094612b1860808201354261294a565b948015613d64578860648102046064148915171561283257612b3d8160648b02612957565b935b8115613d5c5760408301356064808202829004149015171561283257612b6c826064604086013502612957565b975b8a15613d555760408401356064808202829004149015171561283257612b9b8b6064604087013502612957565b612ba9620f42408904614849565b99612bb8621e84808a04614849565b604080517f596f75206172652061207269736b206d616e6167656d656e7420656e67696e656020808301919091527f20666f722041696f6e69732c206120636f70792d74726164696e6720706c6174928201929092526f3337b9369037b71029b7b6b734b0970560811b60608201527f4576616c75617465207468652074726164652062656c6f7720616e642064656360708201527f69646520776861742070657263656e74616765206f662074686520666f6c6c6f60908201527f776572207661756c7420746f20616c6c6f636174652e0a0a000000000000000060b08201527f4f55545055543a20526573706f6e642077697468204f4e4c5920612073696e6760c88201527f6c6520696e746567657220302d3130302e204e6f206578706c616e6174696f6e60e88201527f2e204e6f20746578742e204a75737420746865206e756d6265722e0a0a0000006101088201526e29a1a7a924a7239029a1a0a6229d0560891b6101258201527f20203020202020202020203d20736b6970207468697320747261646520656e746101348201526534b932b63c8560d11b6101548201527f2020312d333320202020203d206c6f7720636f6e666964656e6365202028736d61015a8201526f30b6361030b63637b1b0ba34b7b7148560811b61017a8201527f202033342d3636202020203d206d656469756d20636f6e666964656e6365202061018a820152751436b7b232b930ba329030b63637b1b0ba34b7b7148560511b6101aa8201527f202036372d3939202020203d206869676820636f6e666964656e6365202028736101c08201527f69676e69666963616e7420616c6c6f636174696f6e290a0000000000000000006101e08201527f20203130302020202020203d206d6178696d756d20636f6e666964656e6365206101f78201527f202866756c6c206d61782d7065722d747261646520616c6c6f636174696f6e2961021782015261050560f11b6102378201527320a62627a1a0aa24a7a7102327a926aaa6209d0560611b6102398201527f2020616c6c6f636174696f6e203d202873636f7265202f20313030292078206d61024d8201526c30bc2fb832b92fba3930b2328560991b61026d820152720808105d081cd8dbdc994f4c4c0c080b4f8809606a1b61027a8201528d51929e909d90928e92909161028d91612f2591849184870191016125ad565b6a1030b63637b1b0ba32b20560a91b90828401015280820161029801720808105d081cd8dbdc994f4d4c08080b4f8809606a1b90526102ab9e8f918151918284838701019160200191612f77926125ad565b830101906b1030b63637b1b0ba32b2050560a11b908201520361029781018d526102b701612fa5908d61258c565b612fae90614263565b93612fc1906001600160a01b0316614263565b9560400135620f42409004612fd590614849565b99612fdf90614849565b926402540be4009004612ff190614849565b90612ffb90614849565b9161300590614849565b926040519a8b956d169696902a2920a222901696968560911b6020880152602e87017f4c65616465722077616c6c65743a202020202020202020202020200000000000905280519081604989019160200191613060926125ad565b860197600560f91b98896049820152604a81017f546f6b656e20626f756768743a202020202020202020202020202000000000009052815191826065830191602001916130ac926125ad565b01886065820152606681017f5472616465205553442076616c75653a202020202020202020202024000000009052815191826082830191602001916130f0926125ad565b01876082820152608381017f5472616465206167653a20202020202020202020202020202020200000000000905281519182609e83019160200191613134926125ad565b0165399030b3b78560d11b609e82015260a481017f43757272656e7420746f6b656e2070726963653a20202020202020240000000090528151918260c083019160200191613181926125ad565b016e10143c18b29898103ab734ba39948560891b60c082015260cf81017f54726164652073697a6520767320666f6c6c6f776572207661756c743a20000090528151918260ed830191602001916131d7926125ad565b01906a129037b3103b30bab63a0560a91b60ed83015260f882017f54726164652073697a6520767320667265652062616c616e63653a202020000090526101169181519182848301916020019161322d926125ad565b019072129037b310333932b29031b0b834ba30b6050560691b90820152036101098101875261012901613260908761258c565b620f4240900461326f90614849565b97620f4240900461327f90614849565b9261328990614849565b93620f4240900461329990614849565b9160ff166132a690614849565b91604051948594602086019a7f2d2d2d20464f4c4c4f574552205641554c54202d2d2d0a0000000000000000008c52603787017215985d5b1d081d1bdd185b0e88080808080809606a1b905280519081604a89019160200191613308926125ad565b860184604a820152604b810172119c99594818985b185b98d94e880808080809606a1b905281519182605e83019160200191613343926125ad565b01605e810161040560f31b905281519182606083019160200191613366926125ad565b016b129037b3103b30bab63a148560a11b6060820152606c81017213585e081c195c881d1c9859194e8808080809606a1b905281519182607f830191602001916133af926125ad565b0190607f820152608081017102934b9b5903a37b632b930b731b29d1010160751b9052815191826092830191602001916133e8926125ad565b0164179898050560d91b60928201520360778101825260970161340b908261258c565b604080517f2d2d2d2052554c455320286170706c79207374726963746c7920696e206f7264602082019081526732b914901696968560c11b928201929092527f312e20496620667265652062616c616e6365203c202431202d3e207265747572604882015264371018170560d91b60688201527f322e20496620747261646520616765203e2031323073202d3e2072657475726e606d820152721018101439ba30b6329039b4b3b730b614970560691b608d8201527f332e204966207472616465205553442076616c7565203c202435202d3e20726560a08201527f7475726e203020286e6f6973652074726164652c2069676e6f7265292e0a000060c08201527f342e20496620667265652062616c616e6365203c20243130202d3e207265747560de8201527f726e203020287661756c74206e6561726c7920656d707479292e0a0a0000000060fe820152732924a9a59029a1a7a9229021a2a4a624a7239d0560611b61011a8201527f20205269736b20312d3220202d3e206d61782073636f72652032300a0000000061012e8201527f20205269736b20332d3420202d3e206d61782073636f72652034300a0000000061014a8201527f20205269736b20352d3620202d3e206d61782073636f72652036350a000000006101668201527f20205269736b20372d3820202d3e206d61782073636f72652038350a000000006101828201527f20205269736b20392d3130202d3e206d61782073636f7265203130300a0a000061019e8201527f465245452042414c414e43452050454e414c544945533a0a00000000000000006101bc8201527f2020467265652062616c616e6365203c20313025206f66207661756c742020206101d48201527f2020202020202d3e207265647563652073636f7265206279203330250a0000006101f48201527f202054726164652073697a65203e20353025206f6620667265652062616c616e6102118201527f6365202020202d3e207265647563652073636f72652062792032302520286c616102318201527f7267652072656c6174697665206578706f73757265290a0000000000000000006102518201527f202054726164652073697a65203e2031303025206f6620667265652062616c616102688201527f6e63652020202d3e2072657475726e2030202863616e6e6f74206166666f72646102888201526214850560e91b6102a88201527f5349474e414c20535452454e47544820287573652074726164652073697a6520958101959095527f767320666f6c6c6f776572207661756c742c204e4f542072617720646f6c6c616102cb860152643939949d0560d91b6102eb8601527f20205472616465203c203525206f6620666f6c6c6f776572207661756c7420206102f08601527f2020202020202d3e207765616b207369676e616c2c206c65616e20636f6e736561031086015267393b30ba34bb328560c11b6103308601527f2020547261646520352d323025206f6620666f6c6c6f776572207661756c74206103388601527f2020202020202d3e206d6f646572617465207369676e616c0a000000000000006103588601527f20205472616465203e20323025206f6620666f6c6c6f776572207661756c74206103718601527f2020202020202d3e207374726f6e67207369676e616c2c206c6561646572206961039186015273399036b0b5b4b7339030903134b39036b7bb328560611b6103b18601527f20205472616465203e20353025206f6620666f6c6c6f776572207661756c74206103c58601527f2020202020202d3e2076657279207374726f6e67207369676e616c0a0a0000006103e586015270232922a9a42722a9a9902127a72aa99d0560791b6104028601527f2020547261646520616765203c203130732020202020202020202020202020206104138601527f2020202020202d3e2061646420757020746f20313020746f2066696e616c20736104338601526431b7b9328560d91b6104538601527f20205472616465206167652031302d33307320202020202020202020202020206104588601527f2020202020202d3e206e6f2061646a7573746d656e740a0000000000000000006104788601527f20205472616465206167652033302d313230732020202020202020202020202061048f8601527f2020202020202d3e207265647563652073636f72652062792031300a0a0000006104af8601527f494d504f5254414e543a20446f204e4f542074726561742024313030302061736104cc8601527f20696e686572656e746c79207369676e69666963616e742e0a000000000000006104ec8601527f202041202431303030207472616465206973207374726f6e67206966207468656105058601527f20666f6c6c6f776572207661756c742069732024323030302028353025292e0a6105258601527f202041202431303030207472616465206973207765616b2069662074686520666105458601527f6f6c6c6f776572207661756c74206973202431303030303020283125292e0a006105658601527f2020416c7761797320726561736f6e20696e2070657263656e74616765732c206105848601527f6e6f74206162736f6c75746520646f6c6c617220616d6f756e74732e0a0a00006105a48601527f526573706f6e64207769746820612073696e676c6520696e746567657220302d6105c2860152631898181760e11b6105e28601526105c6855293946106008601916001600160401b0383118784101761254057613ca296602096613c6b96613c4a613c56958a95613c3b613c799a8a60405261062095613c19815180928c8a8d0191016125ad565b8801613c2d825180938c8a850191016125ad565b0191518093868401906125ad565b019184519384918401906125ad565b0103808452018261258c565b604051928391858084015260408301906125d0565b03601f19810183528261258c565b604051809381926322e05a0160e21b8352600260048401526080602484015260848301906125d0565b3060448301526374f212cb60e11b60648301520381600073037bb9c718f3f7fe5ecbdb0b600d607b527067765af1908115613d4957600091613d17575b50806000526007602052816040600020557f8df036c7f8f7abba90aaa45adc08c00dc16e017713fd45e09ae7422c4d113a49600080a3565b90506020813d602011613d41575b81613d326020938361258c565b8101031261241a575138613cdf565b3d9150613d25565b6040513d6000823e3d90fd5b6000612b9b565b600097612b6e565b600093612b3f565b869250612ae7565b905084013538612aab565b91508260005260206000206000925b601f1983168410613dcf576001935082601f19811610613db5575b5050811b019055612abf565b860135600019600384901b60f8161c191690553880613da9565b86810135825560209384019360019092019101613d8e565b613e1490836000526020600020601f840160051c81019160208510613e1a575b601f0160051c01906128fe565b38612a94565b9091508190613e07565b505050505080600080516020614905833981519152606060405160208152601960208201527f696e73756666696369656e7420667265652062616c616e6365000000000000006040820152a26000526009602052604060002060ff198154169055565b505050508060008051602061490583398151915260606040516020815260166020820152751d1bdad95b881b9bdd081a5b88185b1b1bdddb1a5cdd60521b6040820152a26000526009602052604060002060ff198154169055565b5050505080600080516020614905833981519152606060405160208152600b60208201526a7374616c6520747261646560a81b6040820152a26000526009602052604060002060ff198154169055565b60405162461bcd60e51b815260206004820152601b60248201527f564d3a20756e6b6e6f776e2077617463686572207265717565737400000000006044820152606490fd5b90604051918281549182825260209260208301916000526020600020936000905b828210613fb057505050613fae9250038361258c565b565b85546001600160a01b031684526001958601958895509381019390910190613f98565b6040519060208201926001600160601b0319809260601b16845260601b1660348201526028815261400381612556565b51902090565b8181039291600013801582851316918412161761283257565b60001981146128325760010190565b61403b81546124ea565b9081614045575050565b81601f60009311600114614057575055565b908083918252614076601f60208420940160051c8401600185016128fe565b5555565b919091600091818352602091600783526040948585205492831561418257818591848852600783528789812055810103126115b85760099392919035606481111561417957506064905b8260ff8316917ffa8cd370ed165419bee5744cd0cf123578c057a1384f8aee00a20891dfc6fbce89600a8510948151908152851589820152a361412b5761410b9082614454565b8084526008825261411d858520614031565b83525220805460ff19169055565b508060008051602061490583398151915260608751858152601586820152741cd8dbdc994818995b1bddc81d1a1c995cda1bdb19605a1b89820152a28084526008825261411d858520614031565b60ff16906140c4565b865162461bcd60e51b815260048101869052601e60248201527f564d3a20756e6b6e6f776e2073747261746567697374207265717565737400006044820152606490fd5b9060005b8254811015614209576141dd81846124bc565b905460039190911b1c6001600160a01b0390811690831614614201576001016141ca565b505050600190565b505050600090565b6002600382015491015490818110156142305761422d9161294a565b90565b5050600090565b6001600160401b03811161254057601f01601f191660200190565b9081518110156124d4570160200190565b604051906001600160601b03199060601b166020820152601480825261428882612571565b6040519061429582612571565b601082526f181899199a1a9b1b9c1cb0b131b232b360811b6020830152604051926142bf84612556565b602a84526020840160403682378451156124d45760309053835192600193600110156124d4576078602186015360005b8381106142fe57505050505090565b6001600160f81b031990816143206143168387614252565b5160fc1c85614252565b51169181871b92600290838504821484151715612832578482018092116128325761434f9060001a918a614252565b5361436a600f61435f8488614252565b5160f81c1685614252565b511691600390810180911161283257614388879360001a9189614252565b53016142ef565b6000915b8154928381101561443a576143a881846124bc565b90546003956001600160a01b0392909190871b1c8216848316146143d25750506001019250614393565b9092506000199182820191821161283257612372846143f461440294886124bc565b905490891b1c1691866124bc565b8254801561442457019261441684846124bc565b81939154921b1b1916905555565b634e487b7160e01b600052603160045260246000fd5b50505050565b51906001600160a01b038216820361241a57565b8060005260026020526040600020916008602052604060002060405190600082825491614480836124ea565b92838352602083019460019160018116908160001461482757506001146147e5575b50506144b09250038361258c565b60a08280518101031261241a576144c690614440565b5060806144d560408301614440565b9101516001600160a01b038216946144ec81614211565b916064614508600284015460ff600486015460081c16906128eb565b048381116147de575b61452160649160ff8816906128eb565b0492620f4240841061478e57808411614786575b506000878152600a602052604090205490811561477e5750935b61455a600c54614022565b9384600c556040519460208601918883524260408801526001600160601b03199060601b16606087015260748601526074855260a08501906001600160401b039086831082841117612540576040839052865190208454600186015491926001600160a01b0392831692919091169061020089019081118582101761254057604052835260c087015260e086018881528961010088015285610120880152876101408801526000610160880152600061018088015260006101a0880152426101c088015260006101e088015281600052600360205260406000209260018060a01b03905116906001600160601b0360a01b91828554161784556001840160018060a01b0360c08a01511683825416179055516002840155600383019060018060a01b0361010089015116908254161790556101208601516004830155610140860151600583015561016086015160068301556101808601516007830155600882016101a087015160028110156126c7577f0fac05f01c50ae793f1a1fb2912053546d62525ac2dfad4adbc641f37c09bf8a98600360ff978c96600a6101e060409d7fb1eefddb5e15079c801481dd2d9558f62b8d6e4ba1d15d3e8da341e1d07ccd18986060988e801983541691161790556101c081015160098501550151910155866000526005602052614751868c600020612915565b0161475d898254612825565b90558851908c825288602083015289820152a38351928352166020820152a3565b90509361454f565b925038614535565b5050505050509050600080516020614905833981519152606060405160208152601e60208201527f616c6c6f636174656420616d6f756e742062656c6f77206d696e696d756d00006040820152a2565b5082614511565b6000908152602081209092505b84831061480c57506144b0935050810160200138806144a2565b81935090816020925483858a010152019101909185926147f2565b60ff19168752506144b094151560051b840160200192503891508190506144a2565b80156148e65780816000925b6148d257508061486483614237565b92614872604051948561258c565b808452601f1961488182614237565b01366020860137905b61489357505090565b8015612832576000190190600a90603082820681018091116128325760f81b6001600160f81b03191660001a6148c98486614252565b5304908161488a565b916148de600a91614022565b920480614855565b506040516148f381612571565b60018152600360fc1b60208201529056fe161609ed0659583c4124f93794aade207fa9fe3124c4ee08cb05a724f0e760caa2646970667358221220d0ae939e4e78205cf7e53be0ffa44ef88ec7306e9831522063dc8dad80fcc1ef64736f6c63430008180033","opcodes":"PUSH1 0xA0 PUSH1 0x40 MSTORE CALLVALUE PUSH3 0x3A7 JUMPI PUSH3 0x4D9F DUP1 CODESIZE SUB DUP1 PUSH3 0x1D DUP2 PUSH3 0x3AC JUMP JUMPDEST SWAP3 DUP4 CODECOPY DUP2 ADD PUSH1 0x60 DUP3 DUP3 SUB SLT PUSH3 0x3A7 JUMPI DUP2 MLOAD SWAP2 PUSH1 0x1 PUSH1 0x1 PUSH1 0xA0 SHL SUB DUP4 AND DUP1 DUP5 SUB PUSH3 0x3A7 JUMPI PUSH1 0x20 DUP3 DUP2 ADD MLOAD SWAP1 SWAP5 PUSH1 0x1 PUSH1 0x1 PUSH1 0x40 SHL SUB SWAP4 SWAP1 SWAP2 DUP5 DUP2 GT PUSH3 0x3A7 JUMPI DUP6 PUSH3 0x6B SWAP2 DUP4 ADD PUSH3 0x3D2 JUMP JUMPDEST SWAP5 PUSH1 0x40 DUP3 ADD MLOAD DUP6 DUP2 GT PUSH3 0x3A7 JUMPI PUSH3 0x85 SWAP3 ADD PUSH3 0x3D2 JUMP JUMPDEST SWAP2 ISZERO PUSH3 0x362 JUMPI PUSH1 0x80 MSTORE DUP3 MLOAD SWAP1 DUP3 DUP3 GT PUSH3 0x34C JUMPI PUSH1 0x0 DUP1 SLOAD SWAP3 PUSH1 0x1 SWAP6 DUP7 DUP6 DUP2 SHR SWAP6 AND DUP1 ISZERO PUSH3 0x341 JUMPI JUMPDEST DUP9 DUP7 LT EQ PUSH3 0x32D JUMPI DUP2 SWAP1 PUSH1 0x1F SWAP6 DUP7 DUP2 GT PUSH3 0x2DA JUMPI JUMPDEST POP DUP9 SWAP1 DUP7 DUP4 GT PUSH1 0x1 EQ PUSH3 0x276 JUMPI DUP5 SWAP3 PUSH3 0x26A JUMPI JUMPDEST POP POP PUSH1 0x0 NOT PUSH1 0x3 DUP4 SWAP1 SHL SHR NOT AND SWAP1 DUP7 SHL OR DUP2 SSTORE JUMPDEST DUP2 MLOAD SWAP4 DUP5 GT PUSH3 0x256 JUMPI DUP5 SLOAD DUP6 DUP2 DUP2 SHR SWAP2 AND DUP1 ISZERO PUSH3 0x24B JUMPI JUMPDEST DUP8 DUP3 LT EQ PUSH3 0x237 JUMPI DUP4 DUP2 GT PUSH3 0x1EF JUMPI JUMPDEST POP DUP6 SWAP3 DUP5 GT PUSH1 0x1 EQ PUSH3 0x18A JUMPI DUP4 SWAP5 SWAP6 POP SWAP3 PUSH3 0x17E JUMPI JUMPDEST POP POP PUSH1 0x0 NOT PUSH1 0x3 DUP4 SWAP1 SHL SHR NOT AND SWAP1 DUP3 SHL OR SWAP1 SSTORE JUMPDEST PUSH1 0x40 MLOAD PUSH2 0x495A SWAP1 DUP2 PUSH3 0x445 DUP3 CODECOPY PUSH1 0x80 MLOAD DUP2 DUP2 DUP2 PUSH2 0x481 ADD MSTORE DUP2 DUP2 PUSH2 0x1182 ADD MSTORE DUP2 DUP2 PUSH2 0x18D2 ADD MSTORE DUP2 DUP2 PUSH2 0x1FAF ADD MSTORE PUSH2 0x2105 ADD MSTORE RETURN JUMPDEST ADD MLOAD SWAP1 POP CODESIZE DUP1 PUSH3 0x135 JUMP JUMPDEST SWAP2 SWAP1 PUSH1 0x1F NOT DUP5 AND SWAP6 DUP6 DUP5 MSTORE DUP1 DUP5 KECCAK256 SWAP4 SWAP1 JUMPDEST DUP8 DUP3 LT PUSH3 0x1D7 JUMPI POP POP DUP4 DUP6 SWAP7 LT PUSH3 0x1BD JUMPI JUMPDEST POP POP POP DUP2 SHL ADD SWAP1 SSTORE PUSH3 0x149 JUMP JUMPDEST ADD MLOAD PUSH1 0x0 NOT PUSH1 0xF8 DUP5 PUSH1 0x3 SHL AND SHR NOT AND SWAP1 SSTORE CODESIZE DUP1 DUP1 PUSH3 0x1AF JUMP JUMPDEST DUP1 DUP8 DUP6 SWAP7 DUP3 SWAP5 SWAP7 DUP7 ADD MLOAD DUP2 SSTORE ADD SWAP6 ADD SWAP4 ADD SWAP1 PUSH3 0x19B JUMP JUMPDEST DUP6 DUP3 MSTORE DUP7 DUP3 KECCAK256 DUP5 DUP1 DUP8 ADD PUSH1 0x5 SHR DUP3 ADD SWAP3 DUP10 DUP9 LT PUSH3 0x22D JUMPI JUMPDEST ADD PUSH1 0x5 SHR ADD SWAP1 DUP7 SWAP1 JUMPDEST DUP3 DUP2 LT PUSH3 0x221 JUMPI POP POP PUSH3 0x11D JUMP JUMPDEST DUP4 DUP2 SSTORE ADD DUP7 SWAP1 PUSH3 0x211 JUMP JUMPDEST SWAP3 POP DUP2 SWAP3 PUSH3 0x208 JUMP JUMPDEST PUSH4 0x4E487B71 PUSH1 0xE0 SHL DUP3 MSTORE PUSH1 0x22 PUSH1 0x4 MSTORE PUSH1 0x24 DUP3 REVERT JUMPDEST SWAP1 PUSH1 0x7F AND SWAP1 PUSH3 0x10B JUMP JUMPDEST PUSH4 0x4E487B71 PUSH1 0xE0 SHL DUP2 MSTORE PUSH1 0x41 PUSH1 0x4 MSTORE PUSH1 0x24 SWAP1 REVERT JUMPDEST ADD MLOAD SWAP1 POP CODESIZE DUP1 PUSH3 0xDD JUMP JUMPDEST DUP5 DUP1 MSTORE DUP10 DUP6 KECCAK256 DUP10 SWAP5 POP SWAP2 SWAP1 PUSH1 0x1F NOT DUP5 AND DUP7 JUMPDEST DUP13 DUP3 DUP3 LT PUSH3 0x2C3 JUMPI POP POP DUP5 GT PUSH3 0x2A9 JUMPI JUMPDEST POP POP POP DUP2 SHL ADD DUP2 SSTORE PUSH3 0xF1 JUMP JUMPDEST ADD MLOAD PUSH1 0x0 NOT PUSH1 0xF8 DUP5 PUSH1 0x3 SHL AND SHR NOT AND SWAP1 SSTORE CODESIZE DUP1 DUP1 PUSH3 0x29B JUMP JUMPDEST DUP4 DUP6 ADD MLOAD DUP7 SSTORE DUP13 SWAP8 SWAP1 SWAP6 ADD SWAP5 SWAP4 DUP5 ADD SWAP4 ADD PUSH3 0x288 JUMP JUMPDEST SWAP1 SWAP2 POP DUP4 DUP1 MSTORE DUP9 DUP5 KECCAK256 DUP7 DUP1 DUP6 ADD PUSH1 0x5 SHR DUP3 ADD SWAP3 DUP12 DUP7 LT PUSH3 0x323 JUMPI JUMPDEST SWAP2 DUP11 SWAP2 DUP7 SWAP6 SWAP5 SWAP4 ADD PUSH1 0x5 SHR ADD SWAP2 JUMPDEST DUP3 DUP2 LT PUSH3 0x314 JUMPI POP POP PUSH3 0xC7 JUMP JUMPDEST DUP7 DUP2 SSTORE DUP6 SWAP5 POP DUP11 SWAP2 ADD PUSH3 0x304 JUMP JUMPDEST SWAP3 POP DUP2 SWAP3 PUSH3 0x2F6 JUMP JUMPDEST PUSH4 0x4E487B71 PUSH1 0xE0 SHL DUP4 MSTORE PUSH1 0x22 PUSH1 0x4 MSTORE PUSH1 0x24 DUP4 REVERT JUMPDEST SWAP5 PUSH1 0x7F AND SWAP5 PUSH3 0xB0 JUMP JUMPDEST PUSH4 0x4E487B71 PUSH1 0xE0 SHL PUSH1 0x0 MSTORE PUSH1 0x41 PUSH1 0x4 MSTORE PUSH1 0x24 PUSH1 0x0 REVERT JUMPDEST PUSH1 0x40 MLOAD PUSH3 0x461BCD PUSH1 0xE5 SHL DUP2 MSTORE PUSH1 0x4 DUP2 ADD DUP7 SWAP1 MSTORE PUSH1 0x15 PUSH1 0x24 DUP3 ADD MSTORE PUSH32 0x564D3A207A65726F206155534420616464726573730000000000000000000000 PUSH1 0x44 DUP3 ADD MSTORE PUSH1 0x64 SWAP1 REVERT JUMPDEST PUSH1 0x0 DUP1 REVERT JUMPDEST PUSH1 0x40 MLOAD SWAP2 SWAP1 PUSH1 0x1F ADD PUSH1 0x1F NOT AND DUP3 ADD PUSH1 0x1 PUSH1 0x1 PUSH1 0x40 SHL SUB DUP2 GT DUP4 DUP3 LT OR PUSH3 0x34C JUMPI PUSH1 0x40 MSTORE JUMP JUMPDEST SWAP2 SWAP1 DUP1 PUSH1 0x1F DUP5 ADD SLT ISZERO PUSH3 0x3A7 JUMPI DUP3 MLOAD PUSH1 0x1 PUSH1 0x1 PUSH1 0x40 SHL SUB DUP2 GT PUSH3 0x34C JUMPI PUSH1 0x20 SWAP1 PUSH3 0x408 PUSH1 0x1F DUP3 ADD PUSH1 0x1F NOT AND DUP4 ADD PUSH3 0x3AC JUMP JUMPDEST SWAP3 DUP2 DUP5 MSTORE DUP3 DUP3 DUP8 ADD ADD GT PUSH3 0x3A7 JUMPI PUSH1 0x0 JUMPDEST DUP2 DUP2 LT PUSH3 0x430 JUMPI POP DUP3 PUSH1 0x0 SWAP4 SWAP5 SWAP6 POP ADD ADD MSTORE SWAP1 JUMP JUMPDEST DUP6 DUP2 ADD DUP4 ADD MLOAD DUP5 DUP3 ADD DUP5 ADD MSTORE DUP3 ADD PUSH3 0x41A JUMP INVALID PUSH1 0x80 DUP1 PUSH1 0x40 MSTORE PUSH1 0x4 CALLDATASIZE LT ISZERO PUSH2 0x1D JUMPI JUMPDEST POP CALLDATASIZE ISZERO PUSH2 0x1B JUMPI PUSH1 0x0 DUP1 REVERT JUMPDEST STOP JUMPDEST PUSH1 0x0 SWAP1 DUP2 CALLDATALOAD PUSH1 0xE0 SHR SWAP1 DUP2 PUSH4 0x11F8B1B EQ PUSH2 0x23E9 JUMPI POP DUP1 PUSH4 0x1AAC9197 EQ PUSH2 0x2272 JUMPI DUP1 PUSH4 0x1FB3E24E EQ PUSH2 0x222A JUMPI DUP1 PUSH4 0x22EDF01A EQ PUSH2 0x217F JUMPI DUP1 PUSH4 0x2C493E90 EQ PUSH2 0x2150 JUMPI DUP1 PUSH4 0x2E90C1A9 EQ PUSH2 0x2134 JUMPI DUP1 PUSH4 0x2FD7D1FD EQ PUSH2 0x20EF JUMPI DUP1 PUSH4 0x3C4CE221 EQ PUSH2 0x20B3 JUMPI DUP1 PUSH4 0x47E7EF24 EQ PUSH2 0x1F2C JUMPI DUP1 PUSH4 0x4E17707A EQ PUSH2 0x1BDA JUMPI DUP1 PUSH4 0x4E6EC0E6 EQ PUSH2 0x1B05 JUMPI DUP1 PUSH4 0x514EA4BF EQ PUSH2 0x1A3C JUMPI DUP1 PUSH4 0x51CFF8D9 EQ PUSH2 0x1832 JUMPI DUP1 PUSH4 0x53084EFF EQ PUSH2 0x17F9 JUMPI DUP1 PUSH4 0x572FCDCD EQ PUSH2 0x1777 JUMPI DUP1 PUSH4 0x5A2D6F5D EQ PUSH2 0x1759 JUMPI DUP1 PUSH4 0x748747E6 EQ PUSH2 0x16EF JUMPI DUP1 PUSH4 0x7C42E644 EQ PUSH2 0x15BC JUMPI DUP1 PUSH4 0x85F9805D EQ PUSH2 0x1085 JUMPI DUP1 PUSH4 0x8B50817B EQ PUSH2 0x104E JUMPI DUP1 PUSH4 0x92BC6914 EQ PUSH2 0xF36 JUMPI DUP1 PUSH4 0x9530B30F EQ PUSH2 0xF19 JUMPI DUP1 PUSH4 0x96E85CED EQ PUSH2 0xCE5 JUMPI DUP1 PUSH4 0x989A83BF EQ PUSH2 0xC01 JUMPI DUP1 PUSH4 0xB8FF783D EQ PUSH2 0xBE5 JUMPI DUP1 PUSH4 0xBBD7EDC5 EQ PUSH2 0xA6E JUMPI DUP1 PUSH4 0xBD44815F EQ PUSH2 0xA4F JUMPI DUP1 PUSH4 0xC0BD6F9E EQ PUSH2 0x960 JUMPI DUP1 PUSH4 0xC81E62E6 EQ PUSH2 0x918 JUMPI DUP1 PUSH4 0xC8F6FCDF EQ PUSH2 0x8EE JUMPI DUP1 PUSH4 0xCCA23BF2 EQ PUSH2 0x869 JUMPI DUP1 PUSH4 0xD01EC4A6 EQ PUSH2 0x81F JUMPI DUP1 PUSH4 0xD4805742 EQ PUSH2 0x6F9 JUMPI DUP1 PUSH4 0xDE700DA6 EQ PUSH2 0x6C0 JUMPI DUP1 PUSH4 0xE54A2AD5 EQ PUSH2 0x3BB JUMPI DUP1 PUSH4 0xE55EE7EB EQ PUSH2 0x38C JUMPI DUP1 PUSH4 0xE8134712 EQ PUSH2 0x204 JUMPI PUSH4 0xE9E42596 SUB PUSH2 0xF JUMPI CALLVALUE PUSH2 0x201 JUMPI PUSH2 0x1FE PUSH2 0x1D9 CALLDATASIZE PUSH2 0x2631 JUMP JUMPDEST SWAP2 PUSH2 0x1F9 PUSH20 0x37BB9C718F3F7FE5ECBDB0B600D607B52706776 CALLER EQ PUSH2 0x2889 JUMP JUMPDEST PUSH2 0x407A JUMP JUMPDEST DUP1 RETURN JUMPDEST DUP1 REVERT JUMPDEST POP CALLVALUE PUSH2 0x201 JUMPI PUSH1 0x40 CALLDATASIZE PUSH1 0x3 NOT ADD SLT PUSH2 0x201 JUMPI PUSH2 0x22F PUSH2 0x221 PUSH2 0x2404 JUMP JUMPDEST PUSH2 0x229 PUSH2 0x241F JUMP JUMPDEST SWAP1 PUSH2 0x3FD3 JUMP JUMPDEST DUP2 MSTORE PUSH1 0x5 PUSH1 0x20 SWAP1 PUSH1 0x5 PUSH1 0x20 MSTORE PUSH1 0x40 DUP4 KECCAK256 SWAP1 DUP4 SWAP3 DUP5 SWAP3 DUP1 SLOAD SWAP4 JUMPDEST DUP5 DUP2 LT PUSH2 0x32C JUMPI POP PUSH2 0x259 DUP6 PUSH2 0x28D4 JUMP JUMPDEST SWAP5 PUSH2 0x267 PUSH1 0x40 MLOAD SWAP7 DUP8 PUSH2 0x258C JUMP JUMPDEST DUP1 DUP7 MSTORE PUSH2 0x276 PUSH1 0x1F NOT SWAP2 PUSH2 0x28D4 JUMP JUMPDEST ADD CALLDATASIZE PUSH1 0x20 DUP8 ADD CALLDATACOPY DUP6 SWAP1 DUP7 JUMPDEST DUP6 DUP2 LT PUSH2 0x29A JUMPI PUSH1 0x40 MLOAD DUP1 PUSH2 0x296 DUP10 DUP3 PUSH2 0x25F5 JUMP JUMPDEST SUB SWAP1 RETURN JUMPDEST PUSH2 0x2A4 DUP2 DUP4 PUSH2 0x24BC JUMP JUMPDEST SWAP1 SLOAD PUSH1 0x3 SWAP2 DUP3 SHL SHR DUP10 MSTORE DUP1 DUP6 MSTORE PUSH1 0xFF PUSH1 0x8 PUSH1 0x40 DUP12 KECCAK256 ADD SLOAD AND PUSH1 0x2 DUP2 LT ISZERO PUSH2 0x318 JUMPI ISZERO PUSH2 0x2D4 JUMPI JUMPDEST POP PUSH1 0x1 ADD PUSH2 0x281 JUMP JUMPDEST PUSH2 0x2DE DUP3 DUP5 PUSH2 0x24BC JUMP JUMPDEST SWAP1 SLOAD SWAP2 SHL SHR PUSH2 0x2EC DUP5 PUSH2 0x4022 JUMP JUMPDEST SWAP4 DUP9 MLOAD DUP2 LT ISZERO PUSH2 0x304 JUMPI DUP7 SHL DUP9 ADD DUP6 ADD MSTORE PUSH1 0x1 PUSH2 0x2CB JUMP JUMPDEST PUSH4 0x4E487B71 PUSH1 0xE0 SHL DUP11 MSTORE PUSH1 0x32 PUSH1 0x4 MSTORE PUSH1 0x24 DUP11 REVERT JUMPDEST PUSH4 0x4E487B71 PUSH1 0xE0 SHL DUP11 MSTORE PUSH1 0x21 PUSH1 0x4 MSTORE PUSH1 0x24 DUP11 REVERT JUMPDEST PUSH2 0x336 DUP2 DUP4 PUSH2 0x24BC JUMP JUMPDEST SWAP1 SLOAD PUSH1 0x3 SWAP2 DUP3 SHL SHR DUP9 MSTORE DUP4 MSTORE PUSH1 0xFF PUSH1 0x8 PUSH1 0x40 DUP10 KECCAK256 ADD SLOAD AND PUSH1 0x2 DUP2 LT ISZERO PUSH2 0x378 JUMPI ISZERO PUSH2 0x364 JUMPI JUMPDEST PUSH1 0x1 ADD PUSH2 0x248 JUMP JUMPDEST SWAP5 PUSH2 0x370 PUSH1 0x1 SWAP2 PUSH2 0x4022 JUMP JUMPDEST SWAP6 SWAP1 POP PUSH2 0x35C JUMP JUMPDEST PUSH4 0x4E487B71 PUSH1 0xE0 SHL DUP9 MSTORE PUSH1 0x21 PUSH1 0x4 MSTORE PUSH1 0x24 DUP9 REVERT JUMPDEST POP CALLVALUE PUSH2 0x201 JUMPI DUP1 PUSH1 0x3 NOT CALLDATASIZE ADD SLT PUSH2 0x201 JUMPI PUSH1 0x20 PUSH1 0x40 MLOAD PUSH20 0x37BB9C718F3F7FE5ECBDB0B600D607B52706776 DUP2 MSTORE RETURN JUMPDEST POP CALLVALUE PUSH2 0x201 JUMPI PUSH1 0x20 DUP1 PUSH1 0x3 NOT CALLDATASIZE ADD SLT PUSH2 0x6BC JUMPI PUSH1 0x4 CALLDATALOAD DUP1 DUP4 MSTORE PUSH1 0x3 DUP3 MSTORE PUSH1 0x40 DUP4 KECCAK256 SWAP2 PUSH1 0x8 DUP4 ADD PUSH1 0xFF DUP2 SLOAD AND PUSH1 0x2 DUP2 LT ISZERO PUSH2 0x6A8 JUMPI PUSH2 0x66B JUMPI DUP4 SLOAD PUSH1 0x1 PUSH1 0x1 PUSH1 0xA0 SHL SUB SWAP3 SWAP1 DUP4 AND CALLER DUP2 EQ DUP1 ISZERO PUSH2 0x653 JUMPI JUMPDEST PUSH2 0x415 SWAP2 POP PUSH2 0x2848 JUMP JUMPDEST PUSH1 0x2 DUP6 ADD SLOAD SWAP5 DUP6 DUP8 MSTORE PUSH1 0x2 DUP3 MSTORE PUSH1 0x40 DUP8 KECCAK256 SWAP3 DUP5 PUSH1 0x3 DUP4 ADD SLOAD AND DUP9 MSTORE PUSH1 0xA DUP4 MSTORE PUSH1 0x40 DUP9 KECCAK256 SLOAD SWAP4 DUP5 ISZERO PUSH2 0x5F7 JUMPI PUSH1 0x4 DUP4 ADD DUP1 SLOAD SWAP7 PUSH2 0x45F PUSH2 0x454 DUP9 DUP11 PUSH2 0x28EB JUMP JUMPDEST PUSH1 0x5 DUP8 ADD SLOAD SWAP1 PUSH2 0x2957 JUMP JUMPDEST PUSH2 0x469 DUP10 DUP3 PUSH2 0x4009 JUMP JUMPDEST SWAP9 DUP1 DUP3 GT ISZERO PUSH2 0x594 JUMPI POP DUP3 SLOAD PUSH2 0x47E SWAP2 PUSH2 0x294A JUMP JUMPDEST SWAP1 PUSH32 0x0 AND DUP1 EXTCODESIZE ISZERO PUSH2 0x590 JUMPI PUSH1 0x40 MLOAD PUSH4 0x40C10F19 PUSH1 0xE0 SHL DUP2 MSTORE ADDRESS PUSH1 0x4 DUP3 ADD MSTORE PUSH1 0x24 DUP2 ADD DUP4 SWAP1 MSTORE SWAP1 DUP13 SWAP1 DUP3 SWAP1 PUSH1 0x44 SWAP1 DUP3 SWAP1 DUP5 SWAP1 GAS CALL DUP1 ISZERO PUSH2 0x585 JUMPI PUSH2 0x554 JUMPI JUMPDEST POP SWAP2 PUSH2 0x529 PUSH1 0x3 PUSH32 0xB8AFEB408ACD10E29C21161F211B1E177A3CE18923199654650821F940CFF38A SWAP10 SWAP8 SWAP6 SWAP4 PUSH1 0x40 SWAP10 SWAP8 SWAP6 PUSH2 0x51B PUSH1 0x2 DUP7 ADD SWAP2 DUP3 SLOAD PUSH2 0x2825 JUMP JUMPDEST SWAP1 SSTORE JUMPDEST SLOAD SWAP3 ADD SWAP2 DUP3 SLOAD PUSH2 0x294A JUMP JUMPDEST SWAP1 SSTORE DUP4 PUSH1 0x6 DUP4 ADD SSTORE DUP5 PUSH1 0x7 DUP4 ADD SSTORE PUSH1 0x1 PUSH1 0xFF NOT DUP3 SLOAD AND OR SWAP1 SSTORE PUSH1 0xA TIMESTAMP SWAP2 ADD SSTORE DUP4 MLOAD SWAP3 DUP4 MSTORE DUP3 ADD MSTORE LOG3 DUP1 RETURN JUMPDEST PUSH1 0x1 PUSH1 0x1 PUSH1 0x40 SHL SUB DUP2 SWAP13 SWAP3 SWAP13 GT PUSH2 0x571 JUMPI PUSH1 0x40 MSTORE SWAP10 PUSH2 0x529 PUSH2 0x4DB JUMP JUMPDEST PUSH4 0x4E487B71 PUSH1 0xE0 SHL DUP3 MSTORE PUSH1 0x41 PUSH1 0x4 MSTORE PUSH1 0x24 DUP3 REVERT JUMPDEST PUSH1 0x40 MLOAD RETURNDATASIZE DUP15 DUP3 RETURNDATACOPY RETURNDATASIZE SWAP1 REVERT JUMPDEST DUP12 DUP1 REVERT JUMPDEST PUSH1 0x40 SWAP9 SWAP7 SWAP5 SWAP3 POP PUSH32 0xB8AFEB408ACD10E29C21161F211B1E177A3CE18923199654650821F940CFF38A SWAP10 SWAP8 SWAP6 SWAP4 DUP2 DUP4 PUSH1 0x3 SWAP4 PUSH2 0x529 SWAP6 LT PUSH2 0x5D6 JUMPI JUMPDEST POP POP PUSH2 0x51E JUMP JUMPDEST PUSH2 0x5DF SWAP2 PUSH2 0x294A JUMP JUMPDEST PUSH2 0x5EE PUSH1 0x2 DUP7 ADD SWAP2 DUP3 SLOAD PUSH2 0x294A JUMP JUMPDEST SWAP1 SSTORE CODESIZE DUP1 PUSH2 0x5CF JUMP JUMPDEST PUSH1 0x40 MLOAD PUSH3 0x461BCD PUSH1 0xE5 SHL DUP2 MSTORE PUSH1 0x4 DUP2 ADD DUP6 SWAP1 MSTORE PUSH1 0x2E PUSH1 0x24 DUP3 ADD MSTORE PUSH32 0x564D3A206E6F20707269636520617661696C61626C652C2063616C6C20757064 PUSH1 0x44 DUP3 ADD MSTORE PUSH14 0x185D19541C9A58D948199A5C9CDD PUSH1 0x92 SHL PUSH1 0x64 DUP3 ADD MSTORE PUSH1 0x84 SWAP1 REVERT JUMPDEST POP DUP7 MSTORE PUSH1 0x6 DUP2 MSTORE PUSH2 0x415 DUP4 PUSH1 0x40 DUP9 KECCAK256 SLOAD AND CALLER EQ PUSH2 0x40B JUMP JUMPDEST PUSH1 0x40 MLOAD PUSH3 0x461BCD PUSH1 0xE5 SHL DUP2 MSTORE PUSH1 0x4 DUP2 ADD DUP4 SWAP1 MSTORE PUSH1 0x15 PUSH1 0x24 DUP3 ADD MSTORE PUSH21 0x2B269D103837B9B4BA34B7B7103737BA1037B832B7 PUSH1 0x59 SHL PUSH1 0x44 DUP3 ADD MSTORE PUSH1 0x64 SWAP1 REVERT JUMPDEST PUSH4 0x4E487B71 PUSH1 0xE0 SHL DUP7 MSTORE PUSH1 0x21 PUSH1 0x4 MSTORE PUSH1 0x24 DUP7 REVERT JUMPDEST POP DUP1 REVERT JUMPDEST POP CALLVALUE PUSH2 0x201 JUMPI PUSH1 0x40 CALLDATASIZE PUSH1 0x3 NOT ADD SLT PUSH2 0x201 JUMPI PUSH2 0x6F1 PUSH1 0x40 PUSH1 0x20 SWAP3 PUSH2 0x6E5 PUSH2 0x221 PUSH2 0x2404 JUMP JUMPDEST DUP2 MSTORE PUSH1 0x2 DUP5 MSTORE KECCAK256 PUSH2 0x4211 JUMP JUMPDEST PUSH1 0x40 MLOAD SWAP1 DUP2 MSTORE RETURN JUMPDEST POP CALLVALUE PUSH2 0x201 JUMPI PUSH1 0x40 CALLDATASIZE PUSH1 0x3 NOT ADD SLT PUSH2 0x201 JUMPI PUSH2 0x713 PUSH2 0x2404 JUMP JUMPDEST PUSH2 0x725 PUSH2 0x71E PUSH2 0x241F JUMP JUMPDEST DUP4 SWAP3 PUSH2 0x3FD3 JUMP JUMPDEST DUP3 MSTORE PUSH1 0x5 PUSH1 0x20 SWAP1 PUSH1 0x5 PUSH1 0x20 MSTORE PUSH1 0x40 DUP5 KECCAK256 SWAP1 DUP5 SWAP3 DUP3 SLOAD SWAP3 JUMPDEST DUP4 DUP6 LT PUSH2 0x74E JUMPI PUSH1 0x20 DUP7 PUSH1 0x40 MLOAD SWAP1 DUP2 MSTORE RETURN JUMPDEST SWAP1 SWAP2 SWAP3 SWAP4 SWAP5 PUSH2 0x75D DUP7 DUP4 PUSH2 0x24BC JUMP JUMPDEST SWAP1 SLOAD PUSH1 0x3 SWAP2 DUP3 SHL SHR DUP9 MSTORE DUP1 DUP5 MSTORE PUSH1 0x40 DUP9 KECCAK256 SWAP1 PUSH1 0xFF PUSH1 0x8 DUP4 ADD SLOAD AND PUSH1 0x2 DUP2 LT ISZERO PUSH2 0x318 JUMPI PUSH2 0x809 JUMPI DUP2 ADD SLOAD PUSH1 0x1 PUSH1 0x1 PUSH1 0xA0 SHL SUB AND DUP9 MSTORE PUSH1 0xA DUP5 MSTORE PUSH1 0x40 DUP9 KECCAK256 SLOAD SWAP1 DUP2 ISZERO DUP1 ISZERO PUSH2 0x814 JUMPI JUMPDEST PUSH2 0x809 JUMPI SWAP1 PUSH2 0x7CA DUP3 DUP8 PUSH2 0x7C1 PUSH1 0x4 PUSH2 0x7CF SWAP7 ADD SLOAD SWAP5 DUP6 PUSH2 0x28EB JUMP JUMPDEST SWAP2 ADD SLOAD SWAP1 PUSH2 0x2957 JUMP JUMPDEST PUSH2 0x4009 JUMP JUMPDEST SWAP1 DUP8 DUP3 DUP3 ADD SWAP3 DUP4 SLT SWAP2 SLT SWAP1 DUP1 ISZERO DUP3 AND SWAP2 ISZERO AND OR PUSH2 0x7F5 JUMPI PUSH1 0x1 SWAP1 SWAP6 JUMPDEST ADD SWAP4 SWAP3 SWAP2 SWAP1 PUSH2 0x73C JUMP JUMPDEST PUSH4 0x4E487B71 PUSH1 0xE0 SHL DUP8 MSTORE PUSH1 0x11 PUSH1 0x4 MSTORE PUSH1 0x24 DUP8 REVERT JUMPDEST POP POP SWAP5 PUSH1 0x1 SWAP1 PUSH2 0x7EB JUMP JUMPDEST POP DUP6 DUP2 ADD SLOAD ISZERO PUSH2 0x7A5 JUMP JUMPDEST POP CALLVALUE PUSH2 0x201 JUMPI PUSH1 0x40 CALLDATASIZE PUSH1 0x3 NOT ADD SLT PUSH2 0x201 JUMPI PUSH2 0x855 PUSH1 0x5 PUSH1 0x40 PUSH2 0x296 SWAP4 PUSH2 0x847 PUSH2 0x221 PUSH2 0x2404 JUMP JUMPDEST DUP2 MSTORE PUSH1 0x2 PUSH1 0x20 MSTORE KECCAK256 ADD PUSH2 0x3F77 JUMP JUMPDEST PUSH1 0x40 MLOAD SWAP2 DUP3 SWAP2 PUSH1 0x20 DUP4 MSTORE PUSH1 0x20 DUP4 ADD SWAP1 PUSH2 0x267D JUMP JUMPDEST POP CALLVALUE PUSH2 0x201 JUMPI PUSH1 0x20 CALLDATASIZE PUSH1 0x3 NOT ADD SLT PUSH2 0x201 JUMPI PUSH1 0x40 PUSH1 0xE0 SWAP2 PUSH1 0x4 CALLDATALOAD DUP2 MSTORE PUSH1 0x2 PUSH1 0x20 MSTORE KECCAK256 PUSH2 0x8EC PUSH1 0x1 DUP1 PUSH1 0xA0 SHL SUB SWAP2 PUSH1 0xFF DUP4 DUP3 SLOAD AND SWAP4 PUSH1 0x1 DUP4 ADD SLOAD AND SWAP2 PUSH1 0x2 DUP2 ADD SLOAD PUSH1 0x3 DUP3 ADD SLOAD SWAP1 DUP4 PUSH1 0x6 PUSH1 0x4 DUP6 ADD SLOAD SWAP5 ADD SLOAD AND SWAP5 PUSH1 0x40 MLOAD SWAP8 DUP9 MSTORE PUSH1 0x20 DUP9 ADD MSTORE PUSH1 0x40 DUP8 ADD MSTORE PUSH1 0x60 DUP7 ADD MSTORE DUP2 DUP2 AND PUSH1 0x80 DUP7 ADD MSTORE PUSH1 0x8 SHR AND PUSH1 0xA0 DUP5 ADD MSTORE PUSH1 0xC0 DUP4 ADD SWAP1 PUSH2 0x26BA JUMP JUMPDEST RETURN JUMPDEST POP CALLVALUE PUSH2 0x201 JUMPI PUSH1 0x20 CALLDATASIZE PUSH1 0x3 NOT ADD SLT PUSH2 0x201 JUMPI PUSH1 0x40 PUSH1 0x20 SWAP2 PUSH1 0x4 CALLDATALOAD DUP2 MSTORE PUSH1 0x7 DUP4 MSTORE KECCAK256 SLOAD PUSH1 0x40 MLOAD SWAP1 DUP2 MSTORE RETURN JUMPDEST POP CALLVALUE PUSH2 0x201 JUMPI PUSH1 0x40 CALLDATASIZE PUSH1 0x3 NOT ADD SLT PUSH2 0x201 JUMPI PUSH1 0x24 CALLDATALOAD SWAP1 PUSH1 0x4 CALLDATALOAD DUP2 MSTORE PUSH1 0x5 PUSH1 0x20 MSTORE PUSH1 0x40 DUP2 KECCAK256 SWAP1 DUP2 SLOAD DUP4 LT ISZERO PUSH2 0x201 JUMPI PUSH1 0x20 PUSH2 0x952 DUP5 DUP5 PUSH2 0x24BC JUMP JUMPDEST SWAP1 SLOAD PUSH1 0x40 MLOAD SWAP2 PUSH1 0x3 SHL SHR DUP2 MSTORE RETURN JUMPDEST POP CALLVALUE PUSH2 0x201 JUMPI PUSH1 0x20 CALLDATASIZE PUSH1 0x3 NOT ADD SLT PUSH2 0x201 JUMPI PUSH2 0x983 PUSH2 0x97D PUSH2 0x2404 JUMP JUMPDEST CALLER PUSH2 0x3FD3 JUMP JUMPDEST DUP1 DUP3 MSTORE PUSH1 0x2 PUSH1 0x20 MSTORE PUSH1 0x40 DUP3 KECCAK256 SLOAD PUSH2 0x9A4 SWAP1 PUSH1 0x1 PUSH1 0x1 PUSH1 0xA0 SHL SUB AND CALLER EQ PUSH2 0x271B JUMP JUMPDEST DUP1 DUP3 MSTORE PUSH1 0x2 PUSH1 0x20 MSTORE PUSH1 0xFF PUSH1 0x6 PUSH1 0x40 DUP5 KECCAK256 ADD SLOAD AND PUSH1 0x3 DUP2 LT ISZERO PUSH2 0xA3B JUMPI PUSH2 0xA05 JUMPI DUP1 DUP3 MSTORE PUSH1 0x2 PUSH1 0x20 MSTORE PUSH1 0x40 DUP3 KECCAK256 PUSH1 0x6 ADD DUP1 SLOAD PUSH1 0xFF NOT AND PUSH1 0x1 OR SWAP1 SSTORE PUSH32 0x7CA948EDDCCF3A65F738292FE09D47DD38A0616763F1A1A78715430C7A18A18B DUP3 DUP1 LOG2 DUP1 RETURN JUMPDEST PUSH1 0x40 MLOAD PUSH3 0x461BCD PUSH1 0xE5 SHL DUP2 MSTORE PUSH1 0x20 PUSH1 0x4 DUP3 ADD MSTORE PUSH1 0xE PUSH1 0x24 DUP3 ADD MSTORE PUSH14 0x564D3A206E6F7420616374697665 PUSH1 0x90 SHL PUSH1 0x44 DUP3 ADD MSTORE PUSH1 0x64 SWAP1 REVERT JUMPDEST PUSH4 0x4E487B71 PUSH1 0xE0 SHL DUP4 MSTORE PUSH1 0x21 PUSH1 0x4 MSTORE PUSH1 0x24 DUP4 REVERT JUMPDEST POP CALLVALUE PUSH2 0x201 JUMPI PUSH1 0x40 CALLDATASIZE PUSH1 0x3 NOT ADD SLT PUSH2 0x201 JUMPI PUSH1 0x20 PUSH2 0x6F1 PUSH2 0x221 PUSH2 0x2404 JUMP JUMPDEST POP CALLVALUE PUSH2 0x201 JUMPI PUSH1 0x40 CALLDATASIZE PUSH1 0x3 NOT ADD SLT PUSH2 0x201 JUMPI PUSH2 0xAD2 PUSH2 0xA8B PUSH2 0x2404 JUMP JUMPDEST PUSH2 0xA93 PUSH2 0x241F JUMP JUMPDEST SWAP1 DUP4 PUSH1 0xE0 PUSH1 0x40 MLOAD PUSH2 0xAA3 DUP2 PUSH2 0x2524 JUMP JUMPDEST DUP3 DUP2 MSTORE DUP3 PUSH1 0x20 DUP3 ADD MSTORE DUP3 PUSH1 0x40 DUP3 ADD MSTORE DUP3 PUSH1 0x60 DUP3 ADD MSTORE DUP3 PUSH1 0x80 DUP3 ADD MSTORE DUP3 PUSH1 0xA0 DUP3 ADD MSTORE PUSH1 0x60 PUSH1 0xC0 DUP3 ADD MSTORE ADD MSTORE PUSH2 0x3FD3 JUMP JUMPDEST DUP2 MSTORE PUSH1 0x2 PUSH1 0x20 MSTORE PUSH1 0x40 DUP2 KECCAK256 PUSH1 0x40 MLOAD SWAP1 PUSH2 0xAEA DUP3 PUSH2 0x2524 JUMP JUMPDEST PUSH1 0x1 DUP1 PUSH1 0xA0 SHL SUB SWAP1 DUP2 DUP2 SLOAD AND DUP4 MSTORE DUP2 PUSH1 0x1 DUP3 ADD SLOAD AND SWAP2 PUSH1 0x20 DUP5 ADD SWAP3 DUP4 MSTORE PUSH1 0x2 DUP3 ADD SLOAD SWAP1 PUSH1 0x40 DUP6 ADD SWAP2 DUP3 MSTORE PUSH1 0x3 DUP4 ADD SLOAD PUSH1 0x60 DUP7 ADD SWAP1 DUP2 MSTORE PUSH1 0x4 DUP5 ADD SLOAD SWAP3 PUSH1 0x80 DUP8 ADD SWAP3 PUSH1 0xFF DUP6 AND DUP5 MSTORE PUSH1 0xFF PUSH1 0xA0 DUP10 ADD SWAP6 PUSH1 0x8 SHR AND DUP6 MSTORE PUSH1 0xFF PUSH1 0x6 PUSH2 0xB4E PUSH1 0x5 DUP10 ADD PUSH2 0x3F77 JUMP JUMPDEST SWAP8 PUSH1 0xC0 DUP12 ADD SWAP9 DUP10 MSTORE ADD SLOAD AND SWAP7 PUSH1 0xE0 DUP10 ADD SWAP8 PUSH1 0x3 DUP2 LT ISZERO PUSH2 0xBD1 JUMPI SWAP4 PUSH2 0x296 SWAP7 SWAP4 PUSH1 0xFF SWAP6 SWAP4 DUP11 SWAP10 SWAP8 SWAP4 DUP8 SWAP6 PUSH1 0x20 SWAP13 MSTORE DUP2 PUSH1 0x40 MLOAD SWAP14 DUP15 SWAP14 DUP15 MSTORE MLOAD AND PUSH1 0x20 DUP14 ADD MSTORE MLOAD AND PUSH1 0x40 DUP12 ADD MSTORE MLOAD PUSH1 0x60 DUP11 ADD MSTORE MLOAD PUSH1 0x80 DUP10 ADD MSTORE MLOAD AND PUSH1 0xA0 DUP8 ADD MSTORE MLOAD AND PUSH1 0xC0 DUP6 ADD MSTORE MLOAD PUSH2 0xBC6 PUSH2 0x100 SWAP2 DUP3 PUSH1 0xE0 DUP8 ADD MSTORE PUSH2 0x120 DUP7 ADD SWAP1 PUSH2 0x267D JUMP JUMPDEST SWAP3 MLOAD SWAP1 DUP5 ADD SWAP1 PUSH2 0x26BA JUMP JUMPDEST PUSH4 0x4E487B71 PUSH1 0xE0 SHL DUP12 MSTORE PUSH1 0x21 PUSH1 0x4 MSTORE PUSH1 0x24 DUP12 REVERT JUMPDEST POP CALLVALUE PUSH2 0x201 JUMPI DUP1 PUSH1 0x3 NOT CALLDATASIZE ADD SLT PUSH2 0x201 JUMPI PUSH1 0x20 PUSH1 0x40 MLOAD PUSH1 0xA DUP2 MSTORE RETURN JUMPDEST POP CALLVALUE PUSH2 0x201 JUMPI DUP1 PUSH1 0x3 NOT CALLDATASIZE ADD SLT PUSH2 0x201 JUMPI PUSH1 0x40 MLOAD SWAP1 DUP1 DUP3 PUSH1 0x1 SWAP3 PUSH1 0x1 SLOAD SWAP4 PUSH2 0xC28 DUP6 PUSH2 0x24EA JUMP JUMPDEST SWAP4 DUP5 DUP5 MSTORE PUSH1 0x20 SWAP6 DUP7 PUSH1 0x1 DUP3 AND SWAP2 DUP3 PUSH1 0x0 EQ PUSH2 0xCC3 JUMPI POP POP PUSH1 0x1 EQ PUSH2 0xC69 JUMPI JUMPDEST POP POP PUSH2 0xC55 SWAP3 POP SUB DUP4 PUSH2 0x258C JUMP JUMPDEST PUSH2 0x296 PUSH1 0x40 MLOAD SWAP3 DUP3 DUP5 SWAP4 DUP5 MSTORE DUP4 ADD SWAP1 PUSH2 0x25D0 JUMP JUMPDEST SWAP1 DUP6 SWAP3 POP PUSH1 0x1 DUP3 MSTORE PUSH32 0xB10E2D527612073B26EECDFD717E6A320CF44B4AFAC2B0732D9FCBE2B7FA0CF6 JUMPDEST DUP6 DUP4 LT PUSH2 0xCAB JUMPI POP POP PUSH2 0xC55 SWAP4 POP DUP3 ADD ADD CODESIZE DUP1 PUSH2 0xC47 JUMP JUMPDEST DUP1 SLOAD DUP4 DUP10 ADD DUP6 ADD MSTORE DUP8 SWAP5 POP DUP7 SWAP4 SWAP1 SWAP3 ADD SWAP2 DUP2 ADD PUSH2 0xC93 JUMP JUMPDEST SWAP3 POP SWAP4 POP POP PUSH2 0xC55 SWAP5 SWAP2 POP PUSH1 0xFF NOT AND DUP3 DUP5 ADD MSTORE ISZERO ISZERO PUSH1 0x5 SHL DUP3 ADD ADD CODESIZE DUP1 PUSH2 0xC47 JUMP JUMPDEST POP PUSH1 0x20 SWAP1 DUP2 PUSH1 0x3 NOT CALLDATASIZE ADD SLT PUSH2 0x201 JUMPI PUSH2 0xCFC PUSH2 0x2404 JUMP JUMPDEST PUSH1 0x1 PUSH1 0x1 PUSH1 0xA0 SHL SUB DUP2 AND SWAP1 DUP2 ISZERO PUSH2 0xEE3 JUMPI PUSH2 0xD16 SWAP1 PUSH2 0x4263 JUMP JUMPDEST SWAP3 PUSH1 0x40 MLOAD DUP4 PUSH1 0x1 DUP1 SLOAD SWAP1 PUSH2 0xD29 DUP3 PUSH2 0x24EA JUMP JUMPDEST SWAP2 PUSH1 0x1 DUP2 AND SWAP1 DUP2 ISZERO PUSH2 0xEC5 JUMPI POP PUSH1 0x1 EQ PUSH2 0xE6F JUMPI JUMPDEST POP POP SWAP1 PUSH2 0xDB0 PUSH1 0x40 DUP3 DUP6 DUP6 PUSH2 0xD5F DUP12 DUP4 SWAP9 PUSH2 0xDD9 SWAP12 SWAP13 SWAP14 MLOAD SWAP5 DUP6 SWAP3 ADD PUSH2 0x25AD JUMP JUMPDEST ADD SUB PUSH2 0xD73 PUSH1 0x1F NOT SWAP2 DUP3 DUP2 ADD DUP7 MSTORE DUP6 PUSH2 0x258C JUMP JUMPDEST PUSH7 0x242E7072696365 PUSH1 0xC8 SHL DUP6 PUSH2 0xD94 DUP5 MLOAD SWAP7 DUP6 DUP4 DUP10 ADD MSTORE PUSH1 0x60 DUP9 ADD SWAP1 PUSH2 0x25D0 JUMP JUMPDEST DUP7 DUP2 SUB SWAP4 DUP5 ADD DUP6 DUP9 ADD MSTORE PUSH1 0x7 DUP2 MSTORE ADD MSTORE DUP5 DUP2 ADD DUP5 MSTORE ADD DUP3 PUSH2 0x258C JUMP JUMPDEST PUSH1 0x40 MLOAD DUP1 SWAP5 DUP2 SWAP3 PUSH4 0x22E05A01 PUSH1 0xE2 SHL DUP4 MSTORE PUSH1 0x1 PUSH1 0x4 DUP5 ADD MSTORE PUSH1 0x80 PUSH1 0x24 DUP5 ADD MSTORE PUSH1 0x84 DUP4 ADD SWAP1 PUSH2 0x25D0 JUMP JUMPDEST ADDRESS PUSH1 0x44 DUP4 ADD MSTORE PUSH4 0x1F10B991 PUSH1 0xE2 SHL PUSH1 0x64 DUP4 ADD MSTORE SUB DUP2 CALLVALUE PUSH20 0x37BB9C718F3F7FE5ECBDB0B600D607B52706776 GAS CALL DUP1 ISZERO PUSH2 0xE64 JUMPI DUP5 SWAP1 PUSH2 0xE32 JUMPI JUMPDEST DUP5 MSTORE PUSH1 0xB SWAP1 MSTORE POP PUSH1 0x40 DUP3 KECCAK256 DUP1 SLOAD PUSH1 0x1 PUSH1 0x1 PUSH1 0xA0 SHL SUB NOT AND SWAP1 SWAP2 OR SWAP1 SSTORE DUP1 RETURN JUMPDEST POP DUP1 DUP3 DUP2 RETURNDATASIZE DUP4 GT PUSH2 0xE5D JUMPI JUMPDEST PUSH2 0xE48 DUP2 DUP4 PUSH2 0x258C JUMP JUMPDEST DUP2 ADD SUB SLT PUSH2 0xE59 JUMPI PUSH1 0xB SWAP2 MLOAD PUSH2 0xE13 JUMP JUMPDEST DUP4 DUP1 REVERT JUMPDEST POP RETURNDATASIZE PUSH2 0xE3E JUMP JUMPDEST PUSH1 0x40 MLOAD RETURNDATASIZE DUP7 DUP3 RETURNDATACOPY RETURNDATASIZE SWAP1 REVERT JUMPDEST PUSH1 0x1 DUP8 MSTORE SWAP1 SWAP2 POP DUP6 SWAP1 PUSH32 0xB10E2D527612073B26EECDFD717E6A320CF44B4AFAC2B0732D9FCBE2B7FA0CF6 JUMPDEST DUP4 DUP4 LT PUSH2 0xEB2 JUMPI POP POP POP DUP2 ADD DUP3 ADD PUSH2 0xDB0 PUSH1 0x40 PUSH2 0xD3E JUMP JUMPDEST DUP1 SLOAD DUP6 DUP5 ADD DUP8 ADD MSTORE SWAP2 DUP6 ADD SWAP2 DUP2 ADD PUSH2 0xE9A JUMP JUMPDEST PUSH1 0xFF NOT AND DUP7 DUP7 ADD MSTORE POP POP DUP1 ISZERO ISZERO MUL DUP3 ADD DUP4 ADD SWAP1 POP PUSH2 0xDB0 PUSH1 0x40 PUSH2 0xD3E JUMP JUMPDEST PUSH1 0x40 MLOAD PUSH3 0x461BCD PUSH1 0xE5 SHL DUP2 MSTORE PUSH1 0x4 DUP2 ADD DUP6 SWAP1 MSTORE PUSH1 0xE PUSH1 0x24 DUP3 ADD MSTORE PUSH14 0x2B269D103D32B937903A37B5B2B7 PUSH1 0x91 SHL PUSH1 0x44 DUP3 ADD MSTORE PUSH1 0x64 SWAP1 REVERT JUMPDEST POP CALLVALUE PUSH2 0x201 JUMPI DUP1 PUSH1 0x3 NOT CALLDATASIZE ADD SLT PUSH2 0x201 JUMPI PUSH1 0x20 PUSH1 0x40 MLOAD PUSH2 0x12C DUP2 MSTORE RETURN JUMPDEST POP CALLVALUE PUSH2 0x201 JUMPI PUSH2 0xF56 PUSH2 0xF48 CALLDATASIZE PUSH2 0x2479 JUMP JUMPDEST SWAP3 SWAP1 SWAP2 PUSH2 0x97D DUP5 ISZERO ISZERO PUSH2 0x26DD JUMP JUMPDEST DUP1 DUP5 MSTORE PUSH1 0x2 PUSH1 0x20 MSTORE PUSH1 0x40 DUP5 KECCAK256 SLOAD SWAP1 SWAP3 SWAP1 PUSH2 0xF7A SWAP1 PUSH1 0x1 PUSH1 0x1 PUSH1 0xA0 SHL SUB AND CALLER EQ PUSH2 0x271B JUMP JUMPDEST DUP3 DUP5 MSTORE PUSH1 0x2 PUSH1 0x20 MSTORE PUSH1 0x40 DUP5 KECCAK256 PUSH1 0x5 ADD DUP5 JUMPDEST DUP3 DUP2 LT PUSH2 0x1029 JUMPI POP SLOAD ISZERO PUSH2 0xFD0 JUMPI PUSH32 0x89216286BABE3A315DB35C8A44501C50B04E4AF6DB52228800178FA93ABBCFA6 SWAP2 PUSH2 0xFCA PUSH1 0x40 MLOAD SWAP3 DUP4 SWAP3 DUP4 PUSH2 0x2780 JUMP JUMPDEST SUB SWAP1 LOG2 DUP1 RETURN JUMPDEST PUSH1 0x40 MLOAD PUSH3 0x461BCD PUSH1 0xE5 SHL DUP2 MSTORE PUSH1 0x20 PUSH1 0x4 DUP3 ADD MSTORE PUSH1 0x2B PUSH1 0x24 DUP3 ADD MSTORE PUSH32 0x564D3A2063616E6E6F742072656D6F766520616C6C20746F6B656E732066726F PUSH1 0x44 DUP3 ADD MSTORE PUSH11 0x1B48185B1B1BDDDB1A5CDD PUSH1 0xAA SHL PUSH1 0x64 DUP3 ADD MSTORE PUSH1 0x84 SWAP1 REVERT JUMPDEST DUP1 PUSH2 0x1048 PUSH2 0x1042 PUSH2 0x103D PUSH1 0x1 SWAP5 DUP8 DUP10 PUSH2 0x275C JUMP JUMPDEST PUSH2 0x276C JUMP JUMPDEST DUP5 PUSH2 0x438F JUMP JUMPDEST ADD PUSH2 0xF8B JUMP JUMPDEST POP CALLVALUE PUSH2 0x201 JUMPI PUSH2 0x1FE PUSH2 0x1060 CALLDATASIZE PUSH2 0x2631 JUMP JUMPDEST SWAP2 PUSH2 0x1080 PUSH20 0x37BB9C718F3F7FE5ECBDB0B600D607B52706776 CALLER EQ PUSH2 0x2889 JUMP JUMPDEST PUSH2 0x2977 JUMP JUMPDEST POP CALLVALUE PUSH2 0x201 JUMPI PUSH1 0xA0 CALLDATASIZE PUSH1 0x3 NOT ADD SLT PUSH2 0x201 JUMPI PUSH2 0x109F PUSH2 0x2404 JUMP JUMPDEST PUSH1 0x24 PUSH1 0x44 SWAP2 DUP3 CALLDATALOAD PUSH1 0xFF DUP2 AND DUP1 SWAP2 SUB PUSH2 0x15B8 JUMPI PUSH1 0x64 DUP1 CALLDATALOAD PUSH1 0xFF DUP2 AND DUP1 SWAP2 SUB PUSH2 0x15B4 JUMPI PUSH1 0x84 CALLDATALOAD PUSH1 0x1 PUSH1 0x1 PUSH1 0x40 SHL SUB DUP2 GT PUSH2 0x15B0 JUMPI PUSH2 0x10DF SWAP1 CALLDATASIZE SWAP1 PUSH1 0x4 ADD PUSH2 0x2449 JUMP JUMPDEST SWAP1 SWAP3 SWAP1 SWAP2 SWAP1 PUSH1 0x1 PUSH1 0x1 PUSH1 0xA0 SHL SUB DUP7 AND ISZERO ISZERO DUP1 PUSH2 0x159D JUMPI JUMPDEST ISZERO PUSH2 0x1568 JUMPI PUSH1 0x1 DUP6 LT ISZERO DUP1 PUSH2 0x155D JUMPI JUMPDEST ISZERO PUSH2 0x1528 JUMPI PUSH1 0x1 DUP3 LT ISZERO DUP1 PUSH2 0x151E JUMPI JUMPDEST ISZERO PUSH2 0x14EB JUMPI DUP3 ISZERO PUSH2 0x1498 JUMPI DUP7 CALLDATALOAD ISZERO PUSH2 0x1465 JUMPI PUSH2 0x1132 DUP7 CALLER PUSH2 0x3FD3 JUMP JUMPDEST DUP1 DUP11 MSTORE PUSH1 0x2 PUSH1 0x20 MSTORE PUSH1 0x40 DUP11 KECCAK256 SLOAD SWAP1 SWAP9 SWAP1 PUSH1 0x1 PUSH1 0x1 PUSH1 0xA0 SHL SUB AND PUSH2 0x1424 JUMPI POP POP PUSH1 0x40 MLOAD PUSH4 0x23B872DD PUSH1 0xE0 SHL DUP2 MSTORE CALLER PUSH1 0x4 DUP3 ADD MSTORE ADDRESS PUSH1 0x24 DUP3 ADD MSTORE DUP7 CALLDATALOAD PUSH1 0x44 DUP3 ADD MSTORE PUSH1 0x20 DUP2 PUSH1 0x64 DUP2 DUP13 PUSH1 0x1 PUSH1 0x1 PUSH1 0xA0 SHL SUB PUSH32 0x0 AND GAS CALL DUP1 ISZERO PUSH2 0x1419 JUMPI PUSH2 0x11BB SWAP2 DUP11 SWAP2 PUSH2 0x13EA JUMPI JUMPDEST POP PUSH2 0x27E4 JUMP JUMPDEST PUSH1 0x40 MLOAD SWAP4 PUSH2 0x11C8 DUP6 PUSH2 0x2524 JUMP JUMPDEST CALLER DUP6 MSTORE PUSH1 0x1 PUSH1 0x1 PUSH1 0xA0 SHL SUB DUP7 AND PUSH1 0x20 DUP7 ADD MSTORE DUP7 CALLDATALOAD PUSH1 0x40 DUP7 ADD MSTORE PUSH1 0x60 DUP6 ADD DUP10 SWAP1 MSTORE PUSH1 0x80 DUP6 ADD MSTORE PUSH1 0xA0 DUP5 ADD MSTORE PUSH2 0x11FB DUP2 PUSH2 0x28D4 JUMP JUMPDEST SWAP2 PUSH2 0x1209 PUSH1 0x40 MLOAD SWAP4 DUP5 PUSH2 0x258C JUMP JUMPDEST DUP2 DUP4 MSTORE PUSH1 0x20 DUP4 ADD SWAP1 CALLDATASIZE DUP4 PUSH1 0x5 SHL DUP3 ADD GT PUSH2 0x13E6 JUMPI DUP1 SWAP2 JUMPDEST DUP4 PUSH1 0x5 SHL DUP3 ADD DUP4 LT PUSH2 0x13CE JUMPI POP POP POP POP PUSH1 0xC0 DUP3 ADD MSTORE DUP5 PUSH1 0xE0 DUP3 ADD MSTORE DUP4 DUP6 MSTORE PUSH1 0x2 PUSH1 0x20 MSTORE PUSH1 0x40 DUP6 KECCAK256 PUSH1 0x1 DUP1 PUSH1 0xA0 SHL SUB DUP3 MLOAD AND PUSH1 0x1 PUSH1 0x1 PUSH1 0x60 SHL SUB PUSH1 0xA0 SHL SWAP1 DUP2 DUP4 SLOAD AND OR DUP3 SSTORE PUSH1 0x1 DUP3 ADD SWAP1 PUSH1 0x1 DUP1 PUSH1 0xA0 SHL SUB PUSH1 0x20 DUP6 ADD MLOAD AND SWAP1 DUP3 SLOAD AND OR SWAP1 SSTORE PUSH1 0x40 DUP3 ADD MLOAD PUSH1 0x2 DUP3 ADD SSTORE PUSH1 0x60 DUP3 ADD MLOAD PUSH1 0x3 DUP3 ADD SSTORE PUSH1 0x4 DUP2 ADD PUSH1 0xFF PUSH1 0x80 DUP5 ADD MLOAD AND DUP2 SLOAD SWAP1 PUSH2 0xFF00 PUSH1 0xA0 DUP7 ADD MLOAD PUSH1 0x8 SHL AND SWAP2 PUSH2 0xFFFF NOT AND OR OR SWAP1 SSTORE PUSH1 0x5 DUP2 ADD PUSH1 0xC0 DUP4 ADD MLOAD SWAP1 DUP2 MLOAD SWAP2 PUSH1 0x1 PUSH1 0x1 PUSH1 0x40 SHL SUB DUP4 GT PUSH2 0x13BB JUMPI PUSH1 0x1 PUSH1 0x40 SHL DUP4 GT PUSH2 0x13BB JUMPI PUSH1 0x20 SWAP1 DUP3 SLOAD DUP5 DUP5 SSTORE DUP1 DUP6 LT PUSH2 0x13A1 JUMPI JUMPDEST POP ADD SWAP1 DUP9 MSTORE PUSH1 0x20 DUP9 KECCAK256 DUP9 JUMPDEST DUP4 DUP2 LT PUSH2 0x1384 JUMPI POP POP POP POP PUSH1 0x6 PUSH1 0xE0 SWAP2 ADD SWAP2 ADD MLOAD PUSH1 0x3 DUP2 LT ISZERO PUSH2 0x1371 JUMPI PUSH1 0xFF DUP1 NOT DUP4 SLOAD AND SWAP2 AND OR SWAP1 SSTORE CALLER DUP5 MSTORE PUSH1 0x4 PUSH1 0x20 MSTORE PUSH2 0x1335 DUP4 PUSH1 0x40 DUP7 KECCAK256 PUSH2 0x2915 JUMP JUMPDEST PUSH1 0x40 MLOAD SWAP2 CALLDATALOAD DUP3 MSTORE PUSH1 0x1 PUSH1 0x1 PUSH1 0xA0 SHL SUB AND SWAP1 CALLER SWAP1 PUSH32 0x6195D111F124DC39CB1AB083F9F1B6664E415BF60B71499B3A4B24CF07C337A8 SWAP1 PUSH1 0x20 SWAP1 LOG4 DUP1 RETURN JUMPDEST PUSH4 0x4E487B71 PUSH1 0xE0 SHL DUP7 MSTORE PUSH1 0x21 PUSH1 0x4 MSTORE DUP4 DUP7 REVERT JUMPDEST DUP3 MLOAD PUSH1 0x1 PUSH1 0x1 PUSH1 0xA0 SHL SUB AND DUP2 DUP4 ADD SSTORE PUSH1 0x20 SWAP1 SWAP3 ADD SWAP2 PUSH1 0x1 ADD PUSH2 0x12F7 JUMP JUMPDEST DUP4 DUP12 MSTORE DUP3 DUP12 KECCAK256 PUSH2 0x13B5 SWAP2 DUP2 ADD SWAP1 DUP7 ADD PUSH2 0x28FE JUMP JUMPDEST CODESIZE PUSH2 0x12EC JUMP JUMPDEST PUSH4 0x4E487B71 PUSH1 0xE0 SHL DUP10 MSTORE PUSH1 0x41 PUSH1 0x4 MSTORE DUP7 DUP10 REVERT JUMPDEST PUSH1 0x20 DUP1 SWAP2 PUSH2 0x13DB DUP6 PUSH2 0x2435 JUMP JUMPDEST DUP2 MSTORE ADD SWAP3 ADD SWAP2 PUSH2 0x1220 JUMP JUMPDEST DUP9 DUP1 REVERT JUMPDEST PUSH2 0x140C SWAP2 POP PUSH1 0x20 RETURNDATASIZE PUSH1 0x20 GT PUSH2 0x1412 JUMPI JUMPDEST PUSH2 0x1404 DUP2 DUP4 PUSH2 0x258C JUMP JUMPDEST DUP2 ADD SWAP1 PUSH2 0x27CC JUMP JUMPDEST CODESIZE PUSH2 0x11B5 JUMP JUMPDEST POP RETURNDATASIZE PUSH2 0x13FA JUMP JUMPDEST PUSH1 0x40 MLOAD RETURNDATASIZE DUP12 DUP3 RETURNDATACOPY RETURNDATASIZE SWAP1 REVERT JUMPDEST PUSH32 0x564D3A207661756C7420616C7265616479206578697374730000000000000000 DUP9 SWAP2 PUSH1 0x18 PUSH1 0x40 MLOAD SWAP4 PUSH3 0x461BCD PUSH1 0xE5 SHL DUP6 MSTORE PUSH1 0x20 PUSH1 0x4 DUP7 ADD MSTORE DUP5 ADD MSTORE DUP3 ADD MSTORE REVERT JUMPDEST PUSH1 0x40 MLOAD PUSH3 0x461BCD PUSH1 0xE5 SHL DUP2 MSTORE PUSH1 0x20 PUSH1 0x4 DUP3 ADD MSTORE PUSH1 0x10 DUP2 DUP10 ADD MSTORE PUSH16 0x15934E881E995C9BC819195C1BDCDA5D PUSH1 0x82 SHL DUP2 DUP11 ADD MSTORE REVERT JUMPDEST DUP7 PUSH8 0x696C6C20636F7079 PUSH1 0xC0 SHL PUSH1 0x84 SWAP3 PUSH32 0x564D3A20616C6C6F776C69737420656D7074792C206E6F207472616465732077 DUP12 PUSH1 0x28 PUSH1 0x40 MLOAD SWAP6 PUSH3 0x461BCD PUSH1 0xE5 SHL DUP8 MSTORE PUSH1 0x20 PUSH1 0x4 DUP9 ADD MSTORE DUP7 ADD MSTORE DUP5 ADD MSTORE DUP3 ADD MSTORE REVERT JUMPDEST PUSH1 0x40 MLOAD PUSH3 0x461BCD PUSH1 0xE5 SHL DUP2 MSTORE PUSH1 0x20 PUSH1 0x4 DUP3 ADD MSTORE PUSH1 0x10 DUP2 DUP10 ADD MSTORE PUSH16 0x564D3A206D617850637420312D31303 PUSH1 0x84 SHL DUP2 DUP11 ADD MSTORE REVERT JUMPDEST POP DUP1 DUP3 GT ISZERO PUSH2 0x1116 JUMP JUMPDEST PUSH1 0x40 MLOAD PUSH3 0x461BCD PUSH1 0xE5 SHL DUP2 MSTORE PUSH1 0x20 PUSH1 0x4 DUP3 ADD MSTORE PUSH1 0x12 DUP2 DUP10 ADD MSTORE PUSH18 0x564D3A207269736B4C6576656C20312D313 PUSH1 0x74 SHL DUP2 DUP11 ADD MSTORE REVERT JUMPDEST POP PUSH1 0xA DUP6 GT ISZERO PUSH2 0x1106 JUMP JUMPDEST PUSH1 0x40 MLOAD PUSH3 0x461BCD PUSH1 0xE5 SHL DUP2 MSTORE PUSH1 0x20 PUSH1 0x4 DUP3 ADD MSTORE PUSH1 0x12 DUP2 DUP10 ADD MSTORE PUSH18 0x2B269D1034B73B30B634B2103632B0B232B9 PUSH1 0x71 SHL DUP2 DUP11 ADD MSTORE REVERT JUMPDEST POP PUSH1 0x1 PUSH1 0x1 PUSH1 0xA0 SHL SUB DUP7 AND CALLER EQ ISZERO PUSH2 0x10F6 JUMP JUMPDEST DUP8 DUP1 REVERT JUMPDEST DUP7 DUP1 REVERT JUMPDEST DUP5 DUP1 REVERT JUMPDEST POP CALLVALUE PUSH2 0x201 JUMPI PUSH2 0x15CB CALLDATASIZE PUSH2 0x2631 JUMP JUMPDEST SWAP1 PUSH2 0x15EB PUSH20 0x37BB9C718F3F7FE5ECBDB0B600D607B52706776 CALLER EQ PUSH2 0x2889 JUMP JUMPDEST DUP3 DUP5 MSTORE PUSH1 0xB PUSH1 0x20 SWAP1 DUP2 MSTORE PUSH1 0x40 DUP6 KECCAK256 SLOAD PUSH1 0x1 PUSH1 0x1 PUSH1 0xA0 SHL SUB AND SWAP4 SWAP1 SWAP3 SWAP1 DUP5 ISZERO PUSH2 0x16AA JUMPI DUP6 MSTORE PUSH1 0xB DUP4 MSTORE PUSH1 0x40 DUP6 KECCAK256 DUP1 SLOAD PUSH1 0x1 PUSH1 0x1 PUSH1 0xA0 SHL SUB NOT AND SWAP1 SSTORE DUP2 ADD DUP2 SWAP1 SUB DUP3 SGT PUSH2 0xE59 JUMPI CALLDATALOAD DUP1 ISZERO PUSH2 0x1671 JUMPI SWAP1 PUSH32 0xD86730737B142FC160892FA8A0F2DB687A92A0E294D1AD70624CF5ACEF03B84 SWAP2 DUP4 DUP6 MSTORE PUSH1 0xA DUP3 MSTORE DUP1 PUSH1 0x40 DUP7 KECCAK256 SSTORE PUSH1 0x40 MLOAD SWAP1 DUP2 MSTORE LOG2 DUP1 RETURN JUMPDEST PUSH1 0x40 MLOAD PUSH3 0x461BCD PUSH1 0xE5 SHL DUP2 MSTORE PUSH1 0x4 DUP2 ADD DUP4 SWAP1 MSTORE PUSH1 0x11 PUSH1 0x24 DUP3 ADD MSTORE PUSH17 0x564D3A20696E76616C6964207072696365 PUSH1 0x78 SHL PUSH1 0x44 DUP3 ADD MSTORE PUSH1 0x64 SWAP1 REVERT JUMPDEST PUSH1 0x40 MLOAD PUSH3 0x461BCD PUSH1 0xE5 SHL DUP2 MSTORE PUSH1 0x4 DUP2 ADD DUP6 SWAP1 MSTORE PUSH1 0x19 PUSH1 0x24 DUP3 ADD MSTORE PUSH32 0x564D3A20756E6B6E6F776E207072696365207265717565737400000000000000 PUSH1 0x44 DUP3 ADD MSTORE PUSH1 0x64 SWAP1 REVERT JUMPDEST POP CALLVALUE PUSH2 0x201 JUMPI PUSH1 0x20 CALLDATASIZE PUSH1 0x3 NOT ADD SLT PUSH2 0x201 JUMPI PUSH2 0x1709 PUSH2 0x2404 JUMP JUMPDEST CALLER DUP1 DUP4 MSTORE PUSH1 0x6 PUSH1 0x20 MSTORE PUSH1 0x40 DUP4 KECCAK256 DUP1 SLOAD PUSH1 0x1 PUSH1 0x1 PUSH1 0xA0 SHL SUB NOT AND PUSH1 0x1 PUSH1 0x1 PUSH1 0xA0 SHL SUB SWAP1 SWAP4 AND SWAP3 DUP4 OR SWAP1 SSTORE PUSH32 0x50697E88BD427923002F5D3844F352091C05C0C9C3B69E43830863D222463173 DUP4 DUP1 LOG3 DUP1 RETURN JUMPDEST POP CALLVALUE PUSH2 0x201 JUMPI DUP1 PUSH1 0x3 NOT CALLDATASIZE ADD SLT PUSH2 0x201 JUMPI PUSH1 0x20 PUSH1 0x40 MLOAD PUSH3 0xF4240 DUP2 MSTORE RETURN JUMPDEST POP CALLVALUE PUSH2 0x201 JUMPI PUSH1 0x20 DUP1 PUSH1 0x3 NOT CALLDATASIZE ADD SLT PUSH2 0x6BC JUMPI PUSH1 0x1 PUSH1 0x1 PUSH1 0xA0 SHL SUB PUSH2 0x179A PUSH2 0x2404 JUMP JUMPDEST AND DUP3 MSTORE PUSH1 0x4 PUSH1 0x20 MSTORE PUSH1 0x40 DUP3 KECCAK256 SWAP2 PUSH1 0x40 MLOAD DUP1 SWAP3 PUSH1 0x20 DUP6 SLOAD SWAP3 DUP4 DUP2 MSTORE ADD SWAP5 DUP4 MSTORE PUSH1 0x20 DUP4 KECCAK256 SWAP3 SWAP1 JUMPDEST DUP3 DUP3 LT PUSH2 0x17E2 JUMPI PUSH2 0x296 DUP6 PUSH2 0x17D6 DUP2 DUP10 SUB DUP3 PUSH2 0x258C JUMP JUMPDEST PUSH1 0x40 MLOAD SWAP2 DUP3 SWAP2 DUP3 PUSH2 0x25F5 JUMP JUMPDEST DUP4 SLOAD DUP7 MSTORE SWAP5 DUP6 ADD SWAP5 PUSH1 0x1 SWAP4 DUP5 ADD SWAP4 SWAP1 SWAP2 ADD SWAP1 PUSH2 0x17BF JUMP JUMPDEST POP CALLVALUE PUSH2 0x201 JUMPI PUSH1 0x20 CALLDATASIZE PUSH1 0x3 NOT ADD SLT PUSH2 0x201 JUMPI PUSH1 0x20 SWAP1 PUSH1 0x40 SWAP1 PUSH1 0x1 PUSH1 0x1 PUSH1 0xA0 SHL SUB PUSH2 0x1821 PUSH2 0x2404 JUMP JUMPDEST AND DUP2 MSTORE PUSH1 0xA DUP4 MSTORE KECCAK256 SLOAD PUSH1 0x40 MLOAD SWAP1 DUP2 MSTORE RETURN JUMPDEST POP CALLVALUE PUSH2 0x201 JUMPI PUSH1 0x20 DUP1 PUSH1 0x3 NOT CALLDATASIZE ADD SLT PUSH2 0x6BC JUMPI PUSH2 0x1850 PUSH2 0x97D PUSH2 0x2404 JUMP JUMPDEST SWAP1 DUP2 DUP4 MSTORE PUSH1 0x2 DUP2 MSTORE PUSH1 0x40 DUP4 KECCAK256 PUSH1 0x1 DUP1 PUSH1 0xA0 SHL SUB PUSH2 0x1871 CALLER DUP3 DUP5 SLOAD AND EQ PUSH2 0x271B JUMP JUMPDEST PUSH1 0x6 DUP3 ADD DUP1 SLOAD SWAP3 PUSH1 0xFF DUP5 AND PUSH1 0x3 DUP2 LT ISZERO PUSH2 0x378 JUMPI PUSH1 0x2 EQ PUSH2 0x1A02 JUMPI PUSH1 0x3 DUP2 ADD SLOAD PUSH2 0x19BD JUMPI PUSH1 0x2 SWAP1 DUP2 ADD DUP1 SLOAD SWAP1 DUP9 SWAP1 SSTORE PUSH1 0xFF NOT SWAP5 SWAP1 SWAP5 AND OR SWAP1 SSTORE PUSH1 0x40 MLOAD PUSH4 0xA9059CBB PUSH1 0xE0 SHL DUP2 MSTORE CALLER PUSH1 0x4 DUP3 ADD MSTORE PUSH1 0x24 DUP2 ADD DUP4 SWAP1 MSTORE SWAP1 DUP4 SWAP1 DUP3 SWAP1 PUSH1 0x44 SWAP1 DUP3 SWAP1 DUP10 SWAP1 PUSH32 0x0 AND GAS CALL SWAP1 DUP2 ISZERO PUSH2 0x19B2 JUMPI DUP6 SWAP2 PUSH2 0x1995 JUMPI JUMPDEST POP ISZERO PUSH2 0x195A JUMPI DUP3 SWAP2 PUSH32 0x1DE10DC7ADF633383767E576A9953D1B3C4F31A05C1635D7656D25604ACA6B1F SWAP2 PUSH1 0x40 MLOAD SWAP1 DUP2 MSTORE LOG2 PUSH32 0xD06EF1BE920EAF099A4E446EC48846ABAE39F5EB6B0877FEA0913A68731AF551 DUP3 DUP1 LOG2 DUP1 RETURN JUMPDEST PUSH1 0x40 MLOAD PUSH3 0x461BCD PUSH1 0xE5 SHL DUP2 MSTORE PUSH1 0x4 DUP2 ADD DUP4 SWAP1 MSTORE PUSH1 0x13 PUSH1 0x24 DUP3 ADD MSTORE PUSH19 0x15934E881DDA5D1A191C985DC819985A5B1959 PUSH1 0x6A SHL PUSH1 0x44 DUP3 ADD MSTORE PUSH1 0x64 SWAP1 REVERT JUMPDEST PUSH2 0x19AC SWAP2 POP DUP4 RETURNDATASIZE DUP6 GT PUSH2 0x1412 JUMPI PUSH2 0x1404 DUP2 DUP4 PUSH2 0x258C JUMP JUMPDEST CODESIZE PUSH2 0x1902 JUMP JUMPDEST PUSH1 0x40 MLOAD RETURNDATASIZE DUP8 DUP3 RETURNDATACOPY RETURNDATASIZE SWAP1 REVERT JUMPDEST PUSH1 0x40 MLOAD PUSH3 0x461BCD PUSH1 0xE5 SHL DUP2 MSTORE PUSH1 0x4 DUP2 ADD DUP7 SWAP1 MSTORE PUSH1 0x1E PUSH1 0x24 DUP3 ADD MSTORE PUSH32 0x564D3A20636C6F7365206F70656E20706F736974696F6E732066697273740000 PUSH1 0x44 DUP3 ADD MSTORE PUSH1 0x64 SWAP1 REVERT JUMPDEST PUSH1 0x40 MLOAD PUSH3 0x461BCD PUSH1 0xE5 SHL DUP2 MSTORE PUSH1 0x4 DUP2 ADD DUP7 SWAP1 MSTORE PUSH1 0x12 PUSH1 0x24 DUP3 ADD MSTORE PUSH18 0x15934E88185B1C9958591E4818DB1BDCD959 PUSH1 0x72 SHL PUSH1 0x44 DUP3 ADD MSTORE PUSH1 0x64 SWAP1 REVERT JUMPDEST POP CALLVALUE PUSH2 0x201 JUMPI PUSH1 0x20 CALLDATASIZE PUSH1 0x3 NOT ADD SLT PUSH2 0x201 JUMPI PUSH1 0x4 CALLDATALOAD DUP2 MSTORE PUSH1 0x3 PUSH1 0x20 MSTORE PUSH1 0x40 DUP2 KECCAK256 PUSH1 0x1 DUP1 PUSH1 0xA0 SHL SUB DUP1 DUP3 SLOAD AND SWAP2 DUP2 PUSH1 0x1 DUP3 ADD SLOAD AND SWAP2 PUSH1 0x2 DUP3 ADD SLOAD SWAP1 PUSH1 0x3 DUP4 ADD SLOAD AND PUSH1 0x4 DUP4 ADD SLOAD PUSH1 0x5 DUP5 ADD SLOAD PUSH1 0x6 DUP6 ADD SLOAD SWAP2 PUSH1 0x7 DUP7 ADD SLOAD SWAP4 PUSH1 0xFF PUSH1 0x8 DUP9 ADD SLOAD AND SWAP6 PUSH1 0xA PUSH1 0x9 DUP10 ADD SLOAD SWAP9 ADD SLOAD SWAP9 PUSH1 0x40 MLOAD SWAP11 DUP12 MSTORE PUSH1 0x20 DUP12 ADD MSTORE PUSH1 0x40 DUP11 ADD MSTORE PUSH1 0x60 DUP10 ADD MSTORE PUSH1 0x80 DUP9 ADD MSTORE PUSH1 0xA0 DUP8 ADD MSTORE PUSH1 0xC0 DUP7 ADD MSTORE PUSH1 0xE0 DUP6 ADD MSTORE PUSH1 0x2 DUP2 LT ISZERO PUSH2 0x1AF1 JUMPI PUSH2 0x160 SWAP5 POP PUSH2 0x100 DUP5 ADD MSTORE PUSH2 0x120 DUP4 ADD MSTORE PUSH2 0x140 DUP3 ADD MSTORE RETURN JUMPDEST PUSH4 0x4E487B71 PUSH1 0xE0 SHL DUP6 MSTORE PUSH1 0x21 PUSH1 0x4 MSTORE PUSH1 0x24 DUP6 REVERT JUMPDEST POP CALLVALUE PUSH2 0x201 JUMPI PUSH1 0x20 CALLDATASIZE PUSH1 0x3 NOT ADD SLT PUSH2 0x201 JUMPI PUSH2 0x1B22 PUSH2 0x97D PUSH2 0x2404 JUMP JUMPDEST DUP1 DUP3 MSTORE PUSH1 0x2 PUSH1 0x20 MSTORE PUSH1 0x40 DUP3 KECCAK256 SLOAD PUSH2 0x1B43 SWAP1 PUSH1 0x1 PUSH1 0x1 PUSH1 0xA0 SHL SUB AND CALLER EQ PUSH2 0x271B JUMP JUMPDEST DUP1 DUP3 MSTORE PUSH1 0x2 PUSH1 0x20 MSTORE PUSH1 0xFF PUSH1 0x6 PUSH1 0x40 DUP5 KECCAK256 ADD SLOAD AND PUSH1 0x3 DUP2 LT ISZERO PUSH2 0xA3B JUMPI PUSH1 0x1 SUB PUSH2 0x1BA4 JUMPI DUP1 DUP3 MSTORE PUSH1 0x2 PUSH1 0x20 MSTORE PUSH1 0x40 DUP3 KECCAK256 PUSH1 0x6 ADD DUP1 SLOAD PUSH1 0xFF NOT AND SWAP1 SSTORE PUSH32 0xA7B437A7C0BE1EAAAD481743F822ACF86D00E9707A0C18A609F0E3AD97370BA8 DUP3 DUP1 LOG2 DUP1 RETURN JUMPDEST PUSH1 0x40 MLOAD PUSH3 0x461BCD PUSH1 0xE5 SHL DUP2 MSTORE PUSH1 0x20 PUSH1 0x4 DUP3 ADD MSTORE PUSH1 0xE PUSH1 0x24 DUP3 ADD MSTORE PUSH14 0x15934E881B9BDD081C185D5CD959 PUSH1 0x92 SHL PUSH1 0x44 DUP3 ADD MSTORE PUSH1 0x64 SWAP1 REVERT JUMPDEST POP PUSH1 0x40 CALLDATASIZE PUSH1 0x3 NOT ADD SLT PUSH2 0x201 JUMPI PUSH2 0x1BEF PUSH2 0x2404 JUMP JUMPDEST SWAP1 PUSH2 0x1C24 PUSH2 0x1BFB PUSH2 0x241F JUMP JUMPDEST SWAP3 DUP4 SWAP1 PUSH2 0x1C1F CALLER PUSH1 0x1 PUSH1 0x1 PUSH1 0xA0 SHL SUB DUP1 DUP5 AND SWAP2 DUP3 EQ SWAP2 DUP3 ISZERO PUSH2 0x1F13 JUMPI JUMPDEST POP POP PUSH2 0x2848 JUMP JUMPDEST PUSH2 0x3FD3 JUMP JUMPDEST DUP1 DUP3 MSTORE PUSH1 0x20 PUSH1 0x2 DUP2 MSTORE PUSH1 0x40 DUP4 KECCAK256 PUSH1 0xFF PUSH1 0x6 DUP3 ADD SLOAD AND PUSH1 0x3 DUP2 LT ISZERO PUSH2 0x1AF1 JUMPI PUSH2 0x1ED7 JUMPI DUP3 DUP5 MSTORE PUSH1 0x9 DUP3 MSTORE PUSH1 0xFF PUSH1 0x40 DUP6 KECCAK256 SLOAD AND PUSH2 0x1E92 JUMPI PUSH2 0x1C66 PUSH3 0xF4240 SWAP2 PUSH2 0x4211 JUMP JUMPDEST GT ISZERO PUSH2 0x1E4E JUMPI DUP2 DUP4 MSTORE PUSH1 0x9 DUP2 MSTORE PUSH1 0x40 DUP4 KECCAK256 PUSH2 0x1C8F PUSH1 0x1 SWAP6 PUSH1 0xFF NOT SWAP3 PUSH1 0x1 DUP5 DUP3 SLOAD AND OR SWAP1 SSTORE PUSH2 0x4263 JUMP JUMPDEST SWAP5 PUSH1 0x40 MLOAD SWAP2 DUP6 SWAP2 DUP7 SLOAD PUSH2 0x1CA1 DUP2 PUSH2 0x24EA JUMP JUMPDEST SWAP3 PUSH1 0x1 DUP3 AND SWAP2 DUP3 ISZERO PUSH2 0x1E33 JUMPI POP POP PUSH1 0x1 EQ PUSH2 0x1DDE JUMPI JUMPDEST POP POP SWAP1 PUSH2 0x1CFA PUSH1 0xC DUP3 DUP6 DUP6 PUSH2 0x1CD8 DUP12 DUP4 SWAP9 PUSH2 0x1D3E SWAP12 SWAP13 SWAP14 MLOAD SWAP5 DUP6 SWAP3 ADD PUSH2 0x25AD JUMP JUMPDEST ADD PUSH12 0x2F6C61746573742D7377617 PUSH1 0xA4 SHL DUP2 MSTORE SUB PUSH1 0x13 NOT DUP2 ADD DUP5 MSTORE ADD DUP3 PUSH2 0x258C JUMP JUMPDEST PUSH2 0xDB0 PUSH1 0x40 PUSH2 0x1D14 DUP2 MLOAD SWAP4 DUP3 DUP7 DUP7 ADD MSTORE PUSH1 0x60 DUP6 ADD SWAP1 PUSH2 0x25D0 JUMP JUMPDEST PUSH6 0x242E7377617 PUSH1 0xD4 SHL DUP6 DUP6 DUP4 SUB SWAP3 PUSH1 0x1F NOT DUP5 ADD DUP6 DUP9 ADD MSTORE PUSH1 0x6 DUP2 MSTORE ADD MSTORE DUP5 DUP2 ADD DUP5 MSTORE ADD DUP3 PUSH2 0x258C JUMP JUMPDEST ADDRESS PUSH1 0x44 DUP4 ADD MSTORE PUSH4 0x8B50817B PUSH1 0xE0 SHL PUSH1 0x64 DUP4 ADD MSTORE SUB DUP2 CALLVALUE PUSH20 0x37BB9C718F3F7FE5ECBDB0B600D607B52706776 GAS CALL SWAP2 DUP3 ISZERO PUSH2 0xE64 JUMPI DUP5 SWAP3 PUSH2 0x1DAE JUMPI JUMPDEST POP PUSH1 0x7 SWAP1 DUP3 DUP6 MSTORE MSTORE DUP2 PUSH1 0x40 DUP5 KECCAK256 SSTORE PUSH32 0x475C2A67EAD2C59D50F20474835961DB7E1689B6B1972FF56EF9FC5309CE7BE7 DUP4 DUP1 LOG3 DUP1 RETURN JUMPDEST SWAP1 DUP1 SWAP3 POP DUP2 DUP2 RETURNDATASIZE DUP4 GT PUSH2 0x1DD7 JUMPI JUMPDEST PUSH2 0x1DC6 DUP2 DUP4 PUSH2 0x258C JUMP JUMPDEST DUP2 ADD SUB SLT PUSH2 0xE59 JUMPI MLOAD SWAP1 PUSH1 0x7 PUSH2 0x1D79 JUMP JUMPDEST POP RETURNDATASIZE PUSH2 0x1DBC JUMP JUMPDEST DUP7 DUP1 MSTORE SWAP1 SWAP2 POP DUP6 SWAP1 PUSH32 0x290DECD9548B62A8D60345A988386FC84BA6BC95484008F6362F93160EF3E563 JUMPDEST DUP4 DUP4 LT PUSH2 0x1E20 JUMPI POP POP POP DUP2 ADD DUP3 ADD PUSH2 0x1CFA PUSH1 0xC PUSH2 0x1CB7 JUMP JUMPDEST DUP1 SLOAD DUP6 DUP5 ADD DUP8 ADD MSTORE SWAP2 DUP6 ADD SWAP2 DUP2 ADD PUSH2 0x1E08 JUMP JUMPDEST AND DUP7 DUP7 ADD MSTORE POP POP DUP1 ISZERO ISZERO MUL DUP3 ADD DUP4 ADD SWAP1 POP PUSH2 0x1CFA PUSH1 0xC PUSH2 0x1CB7 JUMP JUMPDEST PUSH1 0x64 SWAP1 PUSH1 0x40 MLOAD SWAP1 PUSH3 0x461BCD PUSH1 0xE5 SHL DUP3 MSTORE PUSH1 0x4 DUP3 ADD MSTORE PUSH1 0x1D PUSH1 0x24 DUP3 ADD MSTORE PUSH32 0x564D3A20696E73756666696369656E7420667265652062616C616E6365000000 PUSH1 0x44 DUP3 ADD MSTORE REVERT JUMPDEST PUSH1 0x40 MLOAD PUSH3 0x461BCD PUSH1 0xE5 SHL DUP2 MSTORE PUSH1 0x4 DUP2 ADD DUP4 SWAP1 MSTORE PUSH1 0x1C PUSH1 0x24 DUP3 ADD MSTORE PUSH32 0x564D3A20706970656C696E6520616C72656164792072756E6E696E6700000000 PUSH1 0x44 DUP3 ADD MSTORE PUSH1 0x64 SWAP1 REVERT JUMPDEST PUSH1 0x40 MLOAD PUSH3 0x461BCD PUSH1 0xE5 SHL DUP2 MSTORE PUSH1 0x4 DUP2 ADD DUP4 SWAP1 MSTORE PUSH1 0x14 PUSH1 0x24 DUP3 ADD MSTORE PUSH20 0x564D3A207661756C74206E6F7420616374697665 PUSH1 0x60 SHL PUSH1 0x44 DUP3 ADD MSTORE PUSH1 0x64 SWAP1 REVERT JUMPDEST SWAP1 SWAP2 POP DUP7 MSTORE PUSH1 0x6 PUSH1 0x20 MSTORE PUSH1 0x40 DUP7 KECCAK256 SLOAD AND CALLER EQ CODESIZE DUP1 PUSH2 0x1C18 JUMP JUMPDEST POP CALLVALUE PUSH2 0x201 JUMPI PUSH1 0x40 CALLDATASIZE PUSH1 0x3 NOT ADD SLT PUSH2 0x201 JUMPI PUSH2 0x1F46 PUSH2 0x2404 JUMP JUMPDEST PUSH2 0x1F53 PUSH1 0x24 CALLDATALOAD SWAP2 CALLER PUSH2 0x3FD3 JUMP JUMPDEST SWAP1 DUP2 DUP4 MSTORE PUSH1 0x20 PUSH1 0x2 DUP2 MSTORE PUSH1 0xFF PUSH1 0x6 PUSH1 0x40 DUP7 KECCAK256 ADD SLOAD AND PUSH1 0x3 DUP2 LT ISZERO PUSH2 0x1AF1 JUMPI PUSH1 0x2 EQ PUSH2 0x207C JUMPI DUP2 ISZERO PUSH2 0x2046 JUMPI PUSH1 0x40 MLOAD PUSH4 0x23B872DD PUSH1 0xE0 SHL DUP2 MSTORE CALLER PUSH1 0x4 DUP3 ADD MSTORE ADDRESS PUSH1 0x24 DUP3 ADD MSTORE PUSH1 0x44 DUP2 ADD DUP4 SWAP1 MSTORE SWAP2 DUP2 DUP4 PUSH1 0x64 DUP2 DUP9 PUSH1 0x1 PUSH1 0x1 PUSH1 0xA0 SHL SUB PUSH32 0x0 AND GAS CALL SWAP3 DUP4 ISZERO PUSH2 0x19B2 JUMPI PUSH32 0xF4D5F4313DB9D90750B55863740862117F1A26005F470DF515D532580BE167B2 SWAP4 PUSH2 0x200A SWAP2 DUP8 SWAP2 PUSH2 0x202F JUMPI POP PUSH2 0x27E4 JUMP JUMPDEST DUP4 DUP6 MSTORE PUSH1 0x2 DUP3 MSTORE PUSH1 0x2 PUSH1 0x40 DUP7 KECCAK256 ADD PUSH2 0x2023 DUP3 DUP3 SLOAD PUSH2 0x2825 JUMP JUMPDEST SWAP1 SSTORE PUSH1 0x40 MLOAD SWAP1 DUP2 MSTORE LOG2 DUP1 RETURN JUMPDEST PUSH2 0x140C SWAP2 POP DUP5 RETURNDATASIZE DUP7 GT PUSH2 0x1412 JUMPI PUSH2 0x1404 DUP2 DUP4 PUSH2 0x258C JUMP JUMPDEST PUSH1 0x64 SWAP1 PUSH1 0x40 MLOAD SWAP1 PUSH3 0x461BCD PUSH1 0xE5 SHL DUP3 MSTORE PUSH1 0x4 DUP3 ADD MSTORE PUSH1 0xF PUSH1 0x24 DUP3 ADD MSTORE PUSH15 0x15934E881E995C9BC8185B5BDD5B9D PUSH1 0x8A SHL PUSH1 0x44 DUP3 ADD MSTORE REVERT JUMPDEST PUSH1 0x64 SWAP1 PUSH1 0x40 MLOAD SWAP1 PUSH3 0x461BCD PUSH1 0xE5 SHL DUP3 MSTORE PUSH1 0x4 DUP3 ADD MSTORE PUSH1 0x10 PUSH1 0x24 DUP3 ADD MSTORE PUSH16 0x15934E881D985D5B1D0818DB1BDCD959 PUSH1 0x82 SHL PUSH1 0x44 DUP3 ADD MSTORE REVERT JUMPDEST POP CALLVALUE PUSH2 0x201 JUMPI PUSH1 0x20 CALLDATASIZE PUSH1 0x3 NOT ADD SLT PUSH2 0x201 JUMPI PUSH1 0x20 SWAP1 PUSH1 0x1 PUSH1 0x1 PUSH1 0xA0 SHL SUB SWAP1 PUSH1 0x40 SWAP1 DUP3 PUSH2 0x20DD PUSH2 0x2404 JUMP JUMPDEST AND DUP2 MSTORE PUSH1 0x6 DUP5 MSTORE KECCAK256 SLOAD AND PUSH1 0x40 MLOAD SWAP1 DUP2 MSTORE RETURN JUMPDEST POP CALLVALUE PUSH2 0x201 JUMPI DUP1 PUSH1 0x3 NOT CALLDATASIZE ADD SLT PUSH2 0x201 JUMPI PUSH1 0x40 MLOAD PUSH32 0x0 PUSH1 0x1 PUSH1 0x1 PUSH1 0xA0 SHL SUB AND DUP2 MSTORE PUSH1 0x20 SWAP1 RETURN JUMPDEST POP CALLVALUE PUSH2 0x201 JUMPI DUP1 PUSH1 0x3 NOT CALLDATASIZE ADD SLT PUSH2 0x201 JUMPI PUSH1 0x20 PUSH1 0x40 MLOAD PUSH1 0x2 DUP2 MSTORE RETURN JUMPDEST POP CALLVALUE PUSH2 0x201 JUMPI PUSH1 0x20 CALLDATASIZE PUSH1 0x3 NOT ADD SLT PUSH2 0x201 JUMPI PUSH1 0xFF PUSH1 0x40 PUSH1 0x20 SWAP3 PUSH1 0x4 CALLDATALOAD DUP2 MSTORE PUSH1 0x9 DUP5 MSTORE KECCAK256 SLOAD AND PUSH1 0x40 MLOAD SWAP1 ISZERO ISZERO DUP2 MSTORE RETURN JUMPDEST POP CALLVALUE PUSH2 0x201 JUMPI DUP1 PUSH1 0x3 NOT CALLDATASIZE ADD SLT PUSH2 0x201 JUMPI PUSH1 0x40 MLOAD SWAP1 DUP1 DUP3 DUP3 SLOAD SWAP2 PUSH2 0x21A2 DUP4 PUSH2 0x24EA JUMP JUMPDEST SWAP3 DUP4 DUP4 MSTORE PUSH1 0x20 SWAP5 PUSH1 0x1 SWAP2 DUP7 PUSH1 0x1 DUP3 AND SWAP2 DUP3 PUSH1 0x0 EQ PUSH2 0xCC3 JUMPI POP POP PUSH1 0x1 EQ PUSH2 0x21D1 JUMPI POP POP PUSH2 0xC55 SWAP3 POP SUB DUP4 PUSH2 0x258C JUMP JUMPDEST SWAP1 DUP6 SWAP3 POP DUP2 DUP1 MSTORE PUSH32 0x290DECD9548B62A8D60345A988386FC84BA6BC95484008F6362F93160EF3E563 JUMPDEST DUP6 DUP4 LT PUSH2 0x2212 JUMPI POP POP PUSH2 0xC55 SWAP4 POP DUP3 ADD ADD CODESIZE DUP1 PUSH2 0xC47 JUMP JUMPDEST DUP1 SLOAD DUP4 DUP10 ADD DUP6 ADD MSTORE DUP8 SWAP5 POP DUP7 SWAP4 SWAP1 SWAP3 ADD SWAP2 DUP2 ADD PUSH2 0x21FA JUMP JUMPDEST POP CALLVALUE PUSH2 0x201 JUMPI PUSH1 0x40 CALLDATASIZE PUSH1 0x3 NOT ADD SLT PUSH2 0x201 JUMPI PUSH2 0x2244 PUSH2 0x2404 JUMP JUMPDEST PUSH1 0x1 PUSH1 0x1 PUSH1 0xA0 SHL SUB AND DUP2 MSTORE PUSH1 0x4 PUSH1 0x20 MSTORE PUSH1 0x40 DUP2 KECCAK256 DUP1 SLOAD PUSH1 0x24 CALLDATALOAD SWAP3 SWAP1 DUP4 LT ISZERO PUSH2 0x201 JUMPI PUSH1 0x20 PUSH2 0x952 DUP5 DUP5 PUSH2 0x24BC JUMP JUMPDEST POP CALLVALUE PUSH2 0x201 JUMPI PUSH2 0x2294 SWAP1 PUSH2 0x2285 CALLDATASIZE PUSH2 0x2479 JUMP JUMPDEST SWAP2 PUSH2 0x97D DUP4 SWAP6 SWAP3 SWAP6 ISZERO ISZERO PUSH2 0x26DD JUMP JUMPDEST SWAP1 DUP2 DUP4 MSTORE PUSH1 0x20 SWAP4 PUSH1 0x2 PUSH1 0x20 MSTORE PUSH1 0x1 DUP1 PUSH1 0xA0 SHL SUB PUSH2 0x22B8 CALLER DUP3 PUSH1 0x40 DUP9 KECCAK256 SLOAD AND EQ PUSH2 0x271B JUMP JUMPDEST DUP4 DUP6 MSTORE PUSH1 0x2 PUSH1 0x20 MSTORE PUSH1 0x40 DUP6 KECCAK256 PUSH1 0x5 ADD SWAP6 DUP6 JUMPDEST DUP5 DUP2 LT PUSH2 0x2306 JUMPI POP POP POP SWAP1 PUSH32 0x6DAA1FF9696B2F02619A3F88B4B180EF2A65D070354484A2689F745BD640B764 SWAP2 PUSH2 0xFCA PUSH1 0x40 MLOAD SWAP3 DUP4 SWAP3 DUP4 PUSH2 0x2780 JUMP JUMPDEST DUP3 PUSH2 0x2315 PUSH2 0x103D DUP4 DUP9 DUP9 PUSH2 0x275C JUMP JUMPDEST AND ISZERO PUSH2 0x23AB JUMPI PUSH2 0x2332 PUSH2 0x232C PUSH2 0x103D DUP4 DUP9 DUP9 PUSH2 0x275C JUMP JUMPDEST DUP10 PUSH2 0x41C6 JUMP JUMPDEST ISZERO PUSH2 0x2340 JUMPI JUMPDEST PUSH1 0x1 ADD PUSH2 0x22CA JUMP JUMPDEST PUSH2 0x234E PUSH2 0x103D DUP3 DUP8 DUP8 PUSH2 0x275C JUMP JUMPDEST DUP9 SLOAD PUSH1 0x1 PUSH1 0x40 SHL DUP2 LT ISZERO PUSH2 0x2397 JUMPI PUSH1 0x1 SWAP3 SWAP2 PUSH2 0x2372 DUP3 DUP6 PUSH2 0x2390 SWAP5 ADD DUP14 SSTORE DUP13 PUSH2 0x24BC JUMP JUMPDEST SWAP1 SWAP2 SWAP1 PUSH1 0x1 DUP1 PUSH1 0xA0 SHL SUB DUP1 DUP5 SLOAD SWAP3 PUSH1 0x3 SHL SWAP4 AND DUP4 SHL SWAP3 SHL NOT AND OR SWAP1 SSTORE JUMP JUMPDEST SWAP1 POP PUSH2 0x2338 JUMP JUMPDEST PUSH4 0x4E487B71 PUSH1 0xE0 SHL DUP10 MSTORE PUSH1 0x41 PUSH1 0x4 MSTORE PUSH1 0x24 DUP10 REVERT JUMPDEST PUSH1 0x40 MLOAD PUSH3 0x461BCD PUSH1 0xE5 SHL DUP2 MSTORE PUSH1 0x4 DUP2 ADD DUP4 SWAP1 MSTORE PUSH1 0x16 PUSH1 0x24 DUP3 ADD MSTORE PUSH22 0x564D3A207A65726F20746F6B656E2061646472657373 PUSH1 0x50 SHL PUSH1 0x44 DUP3 ADD MSTORE PUSH1 0x64 SWAP1 REVERT JUMPDEST SWAP1 POP CALLVALUE PUSH2 0x6BC JUMPI DUP2 PUSH1 0x3 NOT CALLDATASIZE ADD SLT PUSH2 0x6BC JUMPI DUP1 PUSH1 0x1 PUSH1 0x20 SWAP3 MSTORE RETURN JUMPDEST PUSH1 0x4 CALLDATALOAD SWAP1 PUSH1 0x1 PUSH1 0x1 PUSH1 0xA0 SHL SUB DUP3 AND DUP3 SUB PUSH2 0x241A JUMPI JUMP JUMPDEST PUSH1 0x0 DUP1 REVERT JUMPDEST PUSH1 0x24 CALLDATALOAD SWAP1 PUSH1 0x1 PUSH1 0x1 PUSH1 0xA0 SHL SUB DUP3 AND DUP3 SUB PUSH2 0x241A JUMPI JUMP JUMPDEST CALLDATALOAD SWAP1 PUSH1 0x1 PUSH1 0x1 PUSH1 0xA0 SHL SUB DUP3 AND DUP3 SUB PUSH2 0x241A JUMPI JUMP JUMPDEST SWAP2 DUP2 PUSH1 0x1F DUP5 ADD SLT ISZERO PUSH2 0x241A JUMPI DUP3 CALLDATALOAD SWAP2 PUSH1 0x1 PUSH1 0x1 PUSH1 0x40 SHL SUB DUP4 GT PUSH2 0x241A JUMPI PUSH1 0x20 DUP1 DUP6 ADD SWAP5 DUP5 PUSH1 0x5 SHL ADD ADD GT PUSH2 0x241A JUMPI JUMP JUMPDEST SWAP1 PUSH1 0x40 PUSH1 0x3 NOT DUP4 ADD SLT PUSH2 0x241A JUMPI PUSH1 0x4 CALLDATALOAD PUSH1 0x1 PUSH1 0x1 PUSH1 0xA0 SHL SUB DUP2 AND DUP2 SUB PUSH2 0x241A JUMPI SWAP2 PUSH1 0x24 CALLDATALOAD SWAP1 PUSH1 0x1 PUSH1 0x1 PUSH1 0x40 SHL SUB DUP3 GT PUSH2 0x241A JUMPI PUSH2 0x24B8 SWAP2 PUSH1 0x4 ADD PUSH2 0x2449 JUMP JUMPDEST SWAP1 SWAP2 JUMP JUMPDEST DUP1 SLOAD DUP3 LT ISZERO PUSH2 0x24D4 JUMPI PUSH1 0x0 MSTORE PUSH1 0x20 PUSH1 0x0 KECCAK256 ADD SWAP1 PUSH1 0x0 SWAP1 JUMP JUMPDEST PUSH4 0x4E487B71 PUSH1 0xE0 SHL PUSH1 0x0 MSTORE PUSH1 0x32 PUSH1 0x4 MSTORE PUSH1 0x24 PUSH1 0x0 REVERT JUMPDEST SWAP1 PUSH1 0x1 DUP3 DUP2 SHR SWAP3 AND DUP1 ISZERO PUSH2 0x251A JUMPI JUMPDEST PUSH1 0x20 DUP4 LT EQ PUSH2 0x2504 JUMPI JUMP JUMPDEST PUSH4 0x4E487B71 PUSH1 0xE0 SHL PUSH1 0x0 MSTORE PUSH1 0x22 PUSH1 0x4 MSTORE PUSH1 0x24 PUSH1 0x0 REVERT JUMPDEST SWAP2 PUSH1 0x7F AND SWAP2 PUSH2 0x24F9 JUMP JUMPDEST PUSH2 0x100 DUP2 ADD SWAP1 DUP2 LT PUSH1 0x1 PUSH1 0x1 PUSH1 0x40 SHL SUB DUP3 GT OR PUSH2 0x2540 JUMPI PUSH1 0x40 MSTORE JUMP JUMPDEST PUSH4 0x4E487B71 PUSH1 0xE0 SHL PUSH1 0x0 MSTORE PUSH1 0x41 PUSH1 0x4 MSTORE PUSH1 0x24 PUSH1 0x0 REVERT JUMPDEST PUSH1 0x60 DUP2 ADD SWAP1 DUP2 LT PUSH1 0x1 PUSH1 0x1 PUSH1 0x40 SHL SUB DUP3 GT OR PUSH2 0x2540 JUMPI PUSH1 0x40 MSTORE JUMP JUMPDEST PUSH1 0x40 DUP2 ADD SWAP1 DUP2 LT PUSH1 0x1 PUSH1 0x1 PUSH1 0x40 SHL SUB DUP3 GT OR PUSH2 0x2540 JUMPI PUSH1 0x40 MSTORE JUMP JUMPDEST SWAP1 PUSH1 0x1F DUP1 NOT SWAP2 ADD AND DUP2 ADD SWAP1 DUP2 LT PUSH1 0x1 PUSH1 0x1 PUSH1 0x40 SHL SUB DUP3 GT OR PUSH2 0x2540 JUMPI PUSH1 0x40 MSTORE JUMP JUMPDEST PUSH1 0x0 JUMPDEST DUP4 DUP2 LT PUSH2 0x25C0 JUMPI POP POP PUSH1 0x0 SWAP2 ADD MSTORE JUMP JUMPDEST DUP2 DUP2 ADD MLOAD DUP4 DUP3 ADD MSTORE PUSH1 0x20 ADD PUSH2 0x25B0 JUMP JUMPDEST SWAP1 PUSH1 0x20 SWAP2 PUSH2 0x25E9 DUP2 MLOAD DUP1 SWAP3 DUP2 DUP6 MSTORE DUP6 DUP1 DUP7 ADD SWAP2 ADD PUSH2 0x25AD JUMP JUMPDEST PUSH1 0x1F ADD PUSH1 0x1F NOT AND ADD ADD SWAP1 JUMP JUMPDEST PUSH1 0x20 SWAP1 PUSH1 0x20 PUSH1 0x40 DUP2 DUP4 ADD SWAP3 DUP3 DUP2 MSTORE DUP6 MLOAD DUP1 SWAP5 MSTORE ADD SWAP4 ADD SWAP2 PUSH1 0x0 JUMPDEST DUP3 DUP2 LT PUSH2 0x261D JUMPI POP POP POP POP SWAP1 JUMP JUMPDEST DUP4 MLOAD DUP6 MSTORE SWAP4 DUP2 ADD SWAP4 SWAP3 DUP2 ADD SWAP3 PUSH1 0x1 ADD PUSH2 0x260F JUMP JUMPDEST PUSH1 0x40 PUSH1 0x3 NOT DUP3 ADD SLT PUSH2 0x241A JUMPI PUSH1 0x4 CALLDATALOAD SWAP2 PUSH1 0x24 CALLDATALOAD PUSH1 0x1 PUSH1 0x1 PUSH1 0x40 SHL SUB SWAP3 DUP4 DUP3 GT PUSH2 0x241A JUMPI DUP1 PUSH1 0x23 DUP4 ADD SLT ISZERO PUSH2 0x241A JUMPI DUP2 PUSH1 0x4 ADD CALLDATALOAD SWAP4 DUP5 GT PUSH2 0x241A JUMPI PUSH1 0x24 DUP5 DUP4 ADD ADD GT PUSH2 0x241A JUMPI PUSH1 0x24 ADD SWAP2 SWAP1 JUMP JUMPDEST SWAP1 DUP2 MLOAD DUP1 DUP3 MSTORE PUSH1 0x20 DUP1 DUP1 SWAP4 ADD SWAP4 ADD SWAP2 PUSH1 0x0 JUMPDEST DUP3 DUP2 LT PUSH2 0x269D JUMPI POP POP POP POP SWAP1 JUMP JUMPDEST DUP4 MLOAD PUSH1 0x1 PUSH1 0x1 PUSH1 0xA0 SHL SUB AND DUP6 MSTORE SWAP4 DUP2 ADD SWAP4 SWAP3 DUP2 ADD SWAP3 PUSH1 0x1 ADD PUSH2 0x268F JUMP JUMPDEST SWAP1 PUSH1 0x3 DUP3 LT ISZERO PUSH2 0x26C7 JUMPI MSTORE JUMP JUMPDEST PUSH4 0x4E487B71 PUSH1 0xE0 SHL PUSH1 0x0 MSTORE PUSH1 0x21 PUSH1 0x4 MSTORE PUSH1 0x24 PUSH1 0x0 REVERT JUMPDEST ISZERO PUSH2 0x26E4 JUMPI JUMP JUMPDEST PUSH1 0x40 MLOAD PUSH3 0x461BCD PUSH1 0xE5 SHL DUP2 MSTORE PUSH1 0x20 PUSH1 0x4 DUP3 ADD MSTORE PUSH1 0xF PUSH1 0x24 DUP3 ADD MSTORE PUSH15 0x564D3A20656D707479206172726179 PUSH1 0x88 SHL PUSH1 0x44 DUP3 ADD MSTORE PUSH1 0x64 SWAP1 REVERT JUMPDEST ISZERO PUSH2 0x2722 JUMPI JUMP JUMPDEST PUSH1 0x40 MLOAD PUSH3 0x461BCD PUSH1 0xE5 SHL DUP2 MSTORE PUSH1 0x20 PUSH1 0x4 DUP3 ADD MSTORE PUSH1 0x12 PUSH1 0x24 DUP3 ADD MSTORE PUSH18 0x15934E881B9BDD081E5BDD5C881D985D5B1D PUSH1 0x72 SHL PUSH1 0x44 DUP3 ADD MSTORE PUSH1 0x64 SWAP1 REVERT JUMPDEST SWAP2 SWAP1 DUP2 LT ISZERO PUSH2 0x24D4 JUMPI PUSH1 0x5 SHL ADD SWAP1 JUMP JUMPDEST CALLDATALOAD PUSH1 0x1 PUSH1 0x1 PUSH1 0xA0 SHL SUB DUP2 AND DUP2 SUB PUSH2 0x241A JUMPI SWAP1 JUMP JUMPDEST SWAP1 SWAP2 PUSH1 0x40 PUSH1 0x20 SWAP3 DUP3 PUSH1 0x20 DUP3 ADD PUSH1 0x20 DUP4 MSTORE MSTORE ADD SWAP3 SWAP2 PUSH1 0x0 JUMPDEST DUP3 DUP2 LT PUSH2 0x27A5 JUMPI POP POP POP POP SWAP1 JUMP JUMPDEST SWAP1 SWAP2 SWAP3 SWAP4 DUP3 DUP1 PUSH1 0x1 SWAP3 DUP4 DUP1 PUSH1 0xA0 SHL SUB PUSH2 0x27BD DUP10 PUSH2 0x2435 JUMP JUMPDEST AND DUP2 MSTORE ADD SWAP6 ADD SWAP4 SWAP3 SWAP2 ADD PUSH2 0x2797 JUMP JUMPDEST SWAP1 DUP2 PUSH1 0x20 SWAP2 SUB SLT PUSH2 0x241A JUMPI MLOAD DUP1 ISZERO ISZERO DUP2 SUB PUSH2 0x241A JUMPI SWAP1 JUMP JUMPDEST ISZERO PUSH2 0x27EB JUMPI JUMP JUMPDEST PUSH1 0x40 MLOAD PUSH3 0x461BCD PUSH1 0xE5 SHL DUP2 MSTORE PUSH1 0x20 PUSH1 0x4 DUP3 ADD MSTORE PUSH1 0x12 PUSH1 0x24 DUP3 ADD MSTORE PUSH18 0x15934E8819195C1BDCDA5D0819985A5B1959 PUSH1 0x72 SHL PUSH1 0x44 DUP3 ADD MSTORE PUSH1 0x64 SWAP1 REVERT JUMPDEST SWAP2 SWAP1 DUP3 ADD DUP1 SWAP3 GT PUSH2 0x2832 JUMPI JUMP JUMPDEST PUSH4 0x4E487B71 PUSH1 0xE0 SHL PUSH1 0x0 MSTORE PUSH1 0x11 PUSH1 0x4 MSTORE PUSH1 0x24 PUSH1 0x0 REVERT JUMPDEST ISZERO PUSH2 0x284F JUMPI JUMP JUMPDEST PUSH1 0x40 MLOAD PUSH3 0x461BCD PUSH1 0xE5 SHL DUP2 MSTORE PUSH1 0x20 PUSH1 0x4 DUP3 ADD MSTORE PUSH1 0x12 PUSH1 0x24 DUP3 ADD MSTORE PUSH18 0x15934E881B9BDD08185D5D1A1BDC9A5E9959 PUSH1 0x72 SHL PUSH1 0x44 DUP3 ADD MSTORE PUSH1 0x64 SWAP1 REVERT JUMPDEST ISZERO PUSH2 0x2890 JUMPI JUMP JUMPDEST PUSH1 0x64 PUSH1 0x40 MLOAD PUSH3 0x461BCD PUSH1 0xE5 SHL DUP2 MSTORE PUSH1 0x20 PUSH1 0x4 DUP3 ADD MSTORE PUSH1 0x20 PUSH1 0x24 DUP3 ADD MSTORE PUSH32 0x564D3A2063616C6C6572206973206E6F74206167656E7420706C6174666F726D PUSH1 0x44 DUP3 ADD MSTORE REVERT JUMPDEST PUSH1 0x1 PUSH1 0x1 PUSH1 0x40 SHL SUB DUP2 GT PUSH2 0x2540 JUMPI PUSH1 0x5 SHL PUSH1 0x20 ADD SWAP1 JUMP JUMPDEST DUP2 DUP2 MUL SWAP3 SWAP2 DUP2 ISZERO SWAP2 DUP5 DIV EQ OR ISZERO PUSH2 0x2832 JUMPI JUMP JUMPDEST DUP2 DUP2 LT PUSH2 0x2909 JUMPI POP POP JUMP JUMPDEST PUSH1 0x0 DUP2 SSTORE PUSH1 0x1 ADD PUSH2 0x28FE JUMP JUMPDEST DUP1 SLOAD PUSH1 0x1 PUSH1 0x40 SHL DUP2 LT ISZERO PUSH2 0x2540 JUMPI PUSH2 0x2932 SWAP2 PUSH1 0x1 DUP3 ADD DUP2 SSTORE PUSH2 0x24BC JUMP JUMPDEST DUP2 SWAP3 SWAP2 SLOAD SWAP1 PUSH1 0x3 SHL SWAP2 DUP3 SHL SWAP2 PUSH1 0x0 NOT SWAP1 SHL NOT AND OR SWAP1 SSTORE JUMP JUMPDEST SWAP2 SWAP1 DUP3 SUB SWAP2 DUP3 GT PUSH2 0x2832 JUMPI JUMP JUMPDEST DUP2 ISZERO PUSH2 0x2961 JUMPI DIV SWAP1 JUMP JUMPDEST PUSH4 0x4E487B71 PUSH1 0xE0 SHL PUSH1 0x0 MSTORE PUSH1 0x12 PUSH1 0x4 MSTORE PUSH1 0x24 PUSH1 0x0 REVERT JUMPDEST PUSH1 0x0 DUP2 DUP2 MSTORE PUSH1 0x7 PUSH1 0x20 MSTORE PUSH1 0x40 SWAP1 KECCAK256 SLOAD SWAP3 SWAP2 DUP4 ISZERO PUSH2 0x3F32 JUMPI DUP2 PUSH1 0x0 MSTORE PUSH1 0x7 PUSH1 0x20 MSTORE PUSH1 0x0 PUSH1 0x40 DUP2 KECCAK256 SSTORE DUP4 PUSH1 0x0 MSTORE PUSH1 0x2 PUSH1 0x20 MSTORE PUSH1 0x40 PUSH1 0x0 KECCAK256 PUSH1 0xA0 DUP3 DUP6 DUP2 ADD SUB SLT PUSH2 0x241A JUMPI DUP5 PUSH2 0x29C2 DUP4 PUSH2 0x2435 JUMP JUMPDEST SWAP4 PUSH32 0xA84F2D5F6DC3E2D48FAF97FDF254A0792C7BC3785BEE1DF107FF0D1EE596453E PUSH1 0x80 PUSH2 0x29F2 PUSH1 0x20 DUP8 ADD PUSH2 0x2435 JUMP JUMPDEST PUSH1 0x40 DUP1 MLOAD PUSH1 0x1 PUSH1 0x1 PUSH1 0xA0 SHL SUB SWAP10 DUP11 AND DUP2 MSTORE SWAP9 DUP3 AND PUSH1 0x20 DUP11 ADD MSTORE DUP8 DUP2 ADD CALLDATALOAD SWAP1 DUP10 ADD MSTORE DUP2 DUP8 ADD CALLDATALOAD PUSH1 0x60 DUP10 ADD MSTORE SWAP7 LOG3 PUSH2 0x12C PUSH2 0x2A2F PUSH1 0x80 DUP5 ADD CALLDATALOAD TIMESTAMP PUSH2 0x294A JUMP JUMPDEST GT PUSH2 0x3EE2 JUMPI PUSH2 0x2A4A PUSH1 0x1 PUSH1 0x1 PUSH1 0xA0 SHL SUB DUP5 AND PUSH1 0x5 DUP4 ADD PUSH2 0x41C6 JUMP JUMPDEST ISZERO PUSH2 0x3E87 JUMPI PUSH2 0x2A58 DUP2 PUSH2 0x4211 JUMP JUMPDEST SWAP4 PUSH3 0xF4240 DUP6 GT ISZERO PUSH2 0x3E24 JUMPI DUP6 PUSH1 0x0 MSTORE PUSH1 0x8 PUSH1 0x20 MSTORE PUSH1 0x40 PUSH1 0x0 KECCAK256 SWAP1 PUSH1 0x1 PUSH1 0x1 PUSH1 0x40 SHL SUB DUP2 GT PUSH2 0x2540 JUMPI PUSH2 0x2A8B DUP3 SLOAD PUSH2 0x24EA JUMP JUMPDEST PUSH1 0x1F DUP2 GT PUSH2 0x3DE7 JUMPI JUMPDEST POP DUP1 PUSH1 0x0 PUSH1 0x1F DUP3 GT PUSH1 0x1 EQ PUSH2 0x3D7F JUMPI PUSH1 0x0 SWAP2 PUSH2 0x3D74 JUMPI JUMPDEST POP DUP2 PUSH1 0x1 SHL SWAP2 PUSH1 0x0 NOT SWAP1 PUSH1 0x3 SHL SHR NOT AND OR SWAP1 SSTORE JUMPDEST PUSH1 0x2 DUP2 ADD SLOAD SWAP1 PUSH1 0x4 DUP2 ADD SLOAD SWAP4 PUSH1 0x64 PUSH2 0x2ADD PUSH1 0xFF DUP8 PUSH1 0x8 SHR AND DUP6 PUSH2 0x28EB JUMP JUMPDEST DIV SWAP2 DUP7 DUP4 GT PUSH2 0x3D6C JUMPI JUMPDEST PUSH1 0x1 ADD SLOAD PUSH1 0x1 PUSH1 0x1 PUSH1 0xA0 SHL SUB DUP3 DUP2 AND PUSH1 0x0 SWAP1 DUP2 MSTORE PUSH1 0xA PUSH1 0x20 MSTORE PUSH1 0x40 SWAP1 KECCAK256 SLOAD SWAP2 AND SWAP6 SWAP1 SWAP5 PUSH2 0x2B18 PUSH1 0x80 DUP3 ADD CALLDATALOAD TIMESTAMP PUSH2 0x294A JUMP JUMPDEST SWAP5 DUP1 ISZERO PUSH2 0x3D64 JUMPI DUP9 PUSH1 0x64 DUP2 MUL DIV PUSH1 0x64 EQ DUP10 ISZERO OR ISZERO PUSH2 0x2832 JUMPI PUSH2 0x2B3D DUP2 PUSH1 0x64 DUP12 MUL PUSH2 0x2957 JUMP JUMPDEST SWAP4 JUMPDEST DUP2 ISZERO PUSH2 0x3D5C JUMPI PUSH1 0x40 DUP4 ADD CALLDATALOAD PUSH1 0x64 DUP1 DUP3 MUL DUP3 SWAP1 DIV EQ SWAP1 ISZERO OR ISZERO PUSH2 0x2832 JUMPI PUSH2 0x2B6C DUP3 PUSH1 0x64 PUSH1 0x40 DUP7 ADD CALLDATALOAD MUL PUSH2 0x2957 JUMP JUMPDEST SWAP8 JUMPDEST DUP11 ISZERO PUSH2 0x3D55 JUMPI PUSH1 0x40 DUP5 ADD CALLDATALOAD PUSH1 0x64 DUP1 DUP3 MUL DUP3 SWAP1 DIV EQ SWAP1 ISZERO OR ISZERO PUSH2 0x2832 JUMPI PUSH2 0x2B9B DUP12 PUSH1 0x64 PUSH1 0x40 DUP8 ADD CALLDATALOAD MUL PUSH2 0x2957 JUMP JUMPDEST PUSH2 0x2BA9 PUSH3 0xF4240 DUP10 DIV PUSH2 0x4849 JUMP JUMPDEST SWAP10 PUSH2 0x2BB8 PUSH3 0x1E8480 DUP11 DIV PUSH2 0x4849 JUMP JUMPDEST PUSH1 0x40 DUP1 MLOAD PUSH32 0x596F75206172652061207269736B206D616E6167656D656E7420656E67696E65 PUSH1 0x20 DUP1 DUP4 ADD SWAP2 SWAP1 SWAP2 MSTORE PUSH32 0x20666F722041696F6E69732C206120636F70792D74726164696E6720706C6174 SWAP3 DUP3 ADD SWAP3 SWAP1 SWAP3 MSTORE PUSH16 0x3337B9369037B71029B7B6B734B09705 PUSH1 0x81 SHL PUSH1 0x60 DUP3 ADD MSTORE PUSH32 0x4576616C75617465207468652074726164652062656C6F7720616E6420646563 PUSH1 0x70 DUP3 ADD MSTORE PUSH32 0x69646520776861742070657263656E74616765206F662074686520666F6C6C6F PUSH1 0x90 DUP3 ADD MSTORE PUSH32 0x776572207661756C7420746F20616C6C6F636174652E0A0A0000000000000000 PUSH1 0xB0 DUP3 ADD MSTORE PUSH32 0x4F55545055543A20526573706F6E642077697468204F4E4C5920612073696E67 PUSH1 0xC8 DUP3 ADD MSTORE PUSH32 0x6C6520696E746567657220302D3130302E204E6F206578706C616E6174696F6E PUSH1 0xE8 DUP3 ADD MSTORE PUSH32 0x2E204E6F20746578742E204A75737420746865206E756D6265722E0A0A000000 PUSH2 0x108 DUP3 ADD MSTORE PUSH15 0x29A1A7A924A7239029A1A0A6229D05 PUSH1 0x89 SHL PUSH2 0x125 DUP3 ADD MSTORE PUSH32 0x20203020202020202020203D20736B6970207468697320747261646520656E74 PUSH2 0x134 DUP3 ADD MSTORE PUSH6 0x34B932B63C85 PUSH1 0xD1 SHL PUSH2 0x154 DUP3 ADD MSTORE PUSH32 0x2020312D333320202020203D206C6F7720636F6E666964656E6365202028736D PUSH2 0x15A DUP3 ADD MSTORE PUSH16 0x30B6361030B63637B1B0BA34B7B71485 PUSH1 0x81 SHL PUSH2 0x17A DUP3 ADD MSTORE PUSH32 0x202033342D3636202020203D206D656469756D20636F6E666964656E63652020 PUSH2 0x18A DUP3 ADD MSTORE PUSH22 0x1436B7B232B930BA329030B63637B1B0BA34B7B71485 PUSH1 0x51 SHL PUSH2 0x1AA DUP3 ADD MSTORE PUSH32 0x202036372D3939202020203D206869676820636F6E666964656E636520202873 PUSH2 0x1C0 DUP3 ADD MSTORE PUSH32 0x69676E69666963616E7420616C6C6F636174696F6E290A000000000000000000 PUSH2 0x1E0 DUP3 ADD MSTORE PUSH32 0x20203130302020202020203D206D6178696D756D20636F6E666964656E636520 PUSH2 0x1F7 DUP3 ADD MSTORE PUSH32 0x202866756C6C206D61782D7065722D747261646520616C6C6F636174696F6E29 PUSH2 0x217 DUP3 ADD MSTORE PUSH2 0x505 PUSH1 0xF1 SHL PUSH2 0x237 DUP3 ADD MSTORE PUSH20 0x20A62627A1A0AA24A7A7102327A926AAA6209D05 PUSH1 0x61 SHL PUSH2 0x239 DUP3 ADD MSTORE PUSH32 0x2020616C6C6F636174696F6E203D202873636F7265202F20313030292078206D PUSH2 0x24D DUP3 ADD MSTORE PUSH13 0x30BC2FB832B92FBA3930B23285 PUSH1 0x99 SHL PUSH2 0x26D DUP3 ADD MSTORE PUSH19 0x808105D081CD8DBDC994F4C4C0C080B4F8809 PUSH1 0x6A SHL PUSH2 0x27A DUP3 ADD MSTORE DUP14 MLOAD SWAP3 SWAP15 SWAP1 SWAP14 SWAP1 SWAP3 DUP15 SWAP3 SWAP1 SWAP2 PUSH2 0x28D SWAP2 PUSH2 0x2F25 SWAP2 DUP5 SWAP2 DUP5 DUP8 ADD SWAP2 ADD PUSH2 0x25AD JUMP JUMPDEST PUSH11 0x1030B63637B1B0BA32B205 PUSH1 0xA9 SHL SWAP1 DUP3 DUP5 ADD ADD MSTORE DUP1 DUP3 ADD PUSH2 0x298 ADD PUSH19 0x808105D081CD8DBDC994F4D4C08080B4F8809 PUSH1 0x6A SHL SWAP1 MSTORE PUSH2 0x2AB SWAP15 DUP16 SWAP2 DUP2 MLOAD SWAP2 DUP3 DUP5 DUP4 DUP8 ADD ADD SWAP2 PUSH1 0x20 ADD SWAP2 PUSH2 0x2F77 SWAP3 PUSH2 0x25AD JUMP JUMPDEST DUP4 ADD ADD SWAP1 PUSH12 0x1030B63637B1B0BA32B20505 PUSH1 0xA1 SHL SWAP1 DUP3 ADD MSTORE SUB PUSH2 0x297 DUP2 ADD DUP14 MSTORE PUSH2 0x2B7 ADD PUSH2 0x2FA5 SWAP1 DUP14 PUSH2 0x258C JUMP JUMPDEST PUSH2 0x2FAE SWAP1 PUSH2 0x4263 JUMP JUMPDEST SWAP4 PUSH2 0x2FC1 SWAP1 PUSH1 0x1 PUSH1 0x1 PUSH1 0xA0 SHL SUB AND PUSH2 0x4263 JUMP JUMPDEST SWAP6 PUSH1 0x40 ADD CALLDATALOAD PUSH3 0xF4240 SWAP1 DIV PUSH2 0x2FD5 SWAP1 PUSH2 0x4849 JUMP JUMPDEST SWAP10 PUSH2 0x2FDF SWAP1 PUSH2 0x4849 JUMP JUMPDEST SWAP3 PUSH5 0x2540BE400 SWAP1 DIV PUSH2 0x2FF1 SWAP1 PUSH2 0x4849 JUMP JUMPDEST SWAP1 PUSH2 0x2FFB SWAP1 PUSH2 0x4849 JUMP JUMPDEST SWAP2 PUSH2 0x3005 SWAP1 PUSH2 0x4849 JUMP JUMPDEST SWAP3 PUSH1 0x40 MLOAD SWAP11 DUP12 SWAP6 PUSH14 0x169696902A2920A2229016969685 PUSH1 0x91 SHL PUSH1 0x20 DUP9 ADD MSTORE PUSH1 0x2E DUP8 ADD PUSH32 0x4C65616465722077616C6C65743A202020202020202020202020200000000000 SWAP1 MSTORE DUP1 MLOAD SWAP1 DUP2 PUSH1 0x49 DUP10 ADD SWAP2 PUSH1 0x20 ADD SWAP2 PUSH2 0x3060 SWAP3 PUSH2 0x25AD JUMP JUMPDEST DUP7 ADD SWAP8 PUSH1 0x5 PUSH1 0xF9 SHL SWAP9 DUP10 PUSH1 0x49 DUP3 ADD MSTORE PUSH1 0x4A DUP2 ADD PUSH32 0x546F6B656E20626F756768743A20202020202020202020202020200000000000 SWAP1 MSTORE DUP2 MLOAD SWAP2 DUP3 PUSH1 0x65 DUP4 ADD SWAP2 PUSH1 0x20 ADD SWAP2 PUSH2 0x30AC SWAP3 PUSH2 0x25AD JUMP JUMPDEST ADD DUP9 PUSH1 0x65 DUP3 ADD MSTORE PUSH1 0x66 DUP2 ADD PUSH32 0x5472616465205553442076616C75653A20202020202020202020202400000000 SWAP1 MSTORE DUP2 MLOAD SWAP2 DUP3 PUSH1 0x82 DUP4 ADD SWAP2 PUSH1 0x20 ADD SWAP2 PUSH2 0x30F0 SWAP3 PUSH2 0x25AD JUMP JUMPDEST ADD DUP8 PUSH1 0x82 DUP3 ADD MSTORE PUSH1 0x83 DUP2 ADD PUSH32 0x5472616465206167653A20202020202020202020202020202020200000000000 SWAP1 MSTORE DUP2 MLOAD SWAP2 DUP3 PUSH1 0x9E DUP4 ADD SWAP2 PUSH1 0x20 ADD SWAP2 PUSH2 0x3134 SWAP3 PUSH2 0x25AD JUMP JUMPDEST ADD PUSH6 0x399030B3B785 PUSH1 0xD1 SHL PUSH1 0x9E DUP3 ADD MSTORE PUSH1 0xA4 DUP2 ADD PUSH32 0x43757272656E7420746F6B656E2070726963653A202020202020202400000000 SWAP1 MSTORE DUP2 MLOAD SWAP2 DUP3 PUSH1 0xC0 DUP4 ADD SWAP2 PUSH1 0x20 ADD SWAP2 PUSH2 0x3181 SWAP3 PUSH2 0x25AD JUMP JUMPDEST ADD PUSH15 0x10143C18B29898103AB734BA399485 PUSH1 0x89 SHL PUSH1 0xC0 DUP3 ADD MSTORE PUSH1 0xCF DUP2 ADD PUSH32 0x54726164652073697A6520767320666F6C6C6F776572207661756C743A200000 SWAP1 MSTORE DUP2 MLOAD SWAP2 DUP3 PUSH1 0xED DUP4 ADD SWAP2 PUSH1 0x20 ADD SWAP2 PUSH2 0x31D7 SWAP3 PUSH2 0x25AD JUMP JUMPDEST ADD SWAP1 PUSH11 0x129037B3103B30BAB63A05 PUSH1 0xA9 SHL PUSH1 0xED DUP4 ADD MSTORE PUSH1 0xF8 DUP3 ADD PUSH32 0x54726164652073697A6520767320667265652062616C616E63653A2020200000 SWAP1 MSTORE PUSH2 0x116 SWAP2 DUP2 MLOAD SWAP2 DUP3 DUP5 DUP4 ADD SWAP2 PUSH1 0x20 ADD SWAP2 PUSH2 0x322D SWAP3 PUSH2 0x25AD JUMP JUMPDEST ADD SWAP1 PUSH19 0x129037B310333932B29031B0B834BA30B60505 PUSH1 0x69 SHL SWAP1 DUP3 ADD MSTORE SUB PUSH2 0x109 DUP2 ADD DUP8 MSTORE PUSH2 0x129 ADD PUSH2 0x3260 SWAP1 DUP8 PUSH2 0x258C JUMP JUMPDEST PUSH3 0xF4240 SWAP1 DIV PUSH2 0x326F SWAP1 PUSH2 0x4849 JUMP JUMPDEST SWAP8 PUSH3 0xF4240 SWAP1 DIV PUSH2 0x327F SWAP1 PUSH2 0x4849 JUMP JUMPDEST SWAP3 PUSH2 0x3289 SWAP1 PUSH2 0x4849 JUMP JUMPDEST SWAP4 PUSH3 0xF4240 SWAP1 DIV PUSH2 0x3299 SWAP1 PUSH2 0x4849 JUMP JUMPDEST SWAP2 PUSH1 0xFF AND PUSH2 0x32A6 SWAP1 PUSH2 0x4849 JUMP JUMPDEST SWAP2 PUSH1 0x40 MLOAD SWAP5 DUP6 SWAP5 PUSH1 0x20 DUP7 ADD SWAP11 PUSH32 0x2D2D2D20464F4C4C4F574552205641554C54202D2D2D0A000000000000000000 DUP13 MSTORE PUSH1 0x37 DUP8 ADD PUSH19 0x15985D5B1D081D1BDD185B0E88080808080809 PUSH1 0x6A SHL SWAP1 MSTORE DUP1 MLOAD SWAP1 DUP2 PUSH1 0x4A DUP10 ADD SWAP2 PUSH1 0x20 ADD SWAP2 PUSH2 0x3308 SWAP3 PUSH2 0x25AD JUMP JUMPDEST DUP7 ADD DUP5 PUSH1 0x4A DUP3 ADD MSTORE PUSH1 0x4B DUP2 ADD PUSH19 0x119C99594818985B185B98D94E880808080809 PUSH1 0x6A SHL SWAP1 MSTORE DUP2 MLOAD SWAP2 DUP3 PUSH1 0x5E DUP4 ADD SWAP2 PUSH1 0x20 ADD SWAP2 PUSH2 0x3343 SWAP3 PUSH2 0x25AD JUMP JUMPDEST ADD PUSH1 0x5E DUP2 ADD PUSH2 0x405 PUSH1 0xF3 SHL SWAP1 MSTORE DUP2 MLOAD SWAP2 DUP3 PUSH1 0x60 DUP4 ADD SWAP2 PUSH1 0x20 ADD SWAP2 PUSH2 0x3366 SWAP3 PUSH2 0x25AD JUMP JUMPDEST ADD PUSH12 0x129037B3103B30BAB63A1485 PUSH1 0xA1 SHL PUSH1 0x60 DUP3 ADD MSTORE PUSH1 0x6C DUP2 ADD PUSH19 0x13585E081C195C881D1C9859194E8808080809 PUSH1 0x6A SHL SWAP1 MSTORE DUP2 MLOAD SWAP2 DUP3 PUSH1 0x7F DUP4 ADD SWAP2 PUSH1 0x20 ADD SWAP2 PUSH2 0x33AF SWAP3 PUSH2 0x25AD JUMP JUMPDEST ADD SWAP1 PUSH1 0x7F DUP3 ADD MSTORE PUSH1 0x80 DUP2 ADD PUSH18 0x2934B9B5903A37B632B930B731B29D10101 PUSH1 0x75 SHL SWAP1 MSTORE DUP2 MLOAD SWAP2 DUP3 PUSH1 0x92 DUP4 ADD SWAP2 PUSH1 0x20 ADD SWAP2 PUSH2 0x33E8 SWAP3 PUSH2 0x25AD JUMP JUMPDEST ADD PUSH5 0x1798980505 PUSH1 0xD9 SHL PUSH1 0x92 DUP3 ADD MSTORE SUB PUSH1 0x77 DUP2 ADD DUP3 MSTORE PUSH1 0x97 ADD PUSH2 0x340B SWAP1 DUP3 PUSH2 0x258C JUMP JUMPDEST PUSH1 0x40 DUP1 MLOAD PUSH32 0x2D2D2D2052554C455320286170706C79207374726963746C7920696E206F7264 PUSH1 0x20 DUP3 ADD SWAP1 DUP2 MSTORE PUSH8 0x32B9149016969685 PUSH1 0xC1 SHL SWAP3 DUP3 ADD SWAP3 SWAP1 SWAP3 MSTORE PUSH32 0x312E20496620667265652062616C616E6365203C202431202D3E207265747572 PUSH1 0x48 DUP3 ADD MSTORE PUSH5 0x3710181705 PUSH1 0xD9 SHL PUSH1 0x68 DUP3 ADD MSTORE PUSH32 0x322E20496620747261646520616765203E2031323073202D3E2072657475726E PUSH1 0x6D DUP3 ADD MSTORE PUSH19 0x1018101439BA30B6329039B4B3B730B6149705 PUSH1 0x69 SHL PUSH1 0x8D DUP3 ADD MSTORE PUSH32 0x332E204966207472616465205553442076616C7565203C202435202D3E207265 PUSH1 0xA0 DUP3 ADD MSTORE PUSH32 0x7475726E203020286E6F6973652074726164652C2069676E6F7265292E0A0000 PUSH1 0xC0 DUP3 ADD MSTORE PUSH32 0x342E20496620667265652062616C616E6365203C20243130202D3E2072657475 PUSH1 0xDE DUP3 ADD MSTORE PUSH32 0x726E203020287661756C74206E6561726C7920656D707479292E0A0A00000000 PUSH1 0xFE DUP3 ADD MSTORE PUSH20 0x2924A9A59029A1A7A9229021A2A4A624A7239D05 PUSH1 0x61 SHL PUSH2 0x11A DUP3 ADD MSTORE PUSH32 0x20205269736B20312D3220202D3E206D61782073636F72652032300A00000000 PUSH2 0x12E DUP3 ADD MSTORE PUSH32 0x20205269736B20332D3420202D3E206D61782073636F72652034300A00000000 PUSH2 0x14A DUP3 ADD MSTORE PUSH32 0x20205269736B20352D3620202D3E206D61782073636F72652036350A00000000 PUSH2 0x166 DUP3 ADD MSTORE PUSH32 0x20205269736B20372D3820202D3E206D61782073636F72652038350A00000000 PUSH2 0x182 DUP3 ADD MSTORE PUSH32 0x20205269736B20392D3130202D3E206D61782073636F7265203130300A0A0000 PUSH2 0x19E DUP3 ADD MSTORE PUSH32 0x465245452042414C414E43452050454E414C544945533A0A0000000000000000 PUSH2 0x1BC DUP3 ADD MSTORE PUSH32 0x2020467265652062616C616E6365203C20313025206F66207661756C74202020 PUSH2 0x1D4 DUP3 ADD MSTORE PUSH32 0x2020202020202D3E207265647563652073636F7265206279203330250A000000 PUSH2 0x1F4 DUP3 ADD MSTORE PUSH32 0x202054726164652073697A65203E20353025206F6620667265652062616C616E PUSH2 0x211 DUP3 ADD MSTORE PUSH32 0x6365202020202D3E207265647563652073636F72652062792032302520286C61 PUSH2 0x231 DUP3 ADD MSTORE PUSH32 0x7267652072656C6174697665206578706F73757265290A000000000000000000 PUSH2 0x251 DUP3 ADD MSTORE PUSH32 0x202054726164652073697A65203E2031303025206F6620667265652062616C61 PUSH2 0x268 DUP3 ADD MSTORE PUSH32 0x6E63652020202D3E2072657475726E2030202863616E6E6F74206166666F7264 PUSH2 0x288 DUP3 ADD MSTORE PUSH3 0x148505 PUSH1 0xE9 SHL PUSH2 0x2A8 DUP3 ADD MSTORE PUSH32 0x5349474E414C20535452454E47544820287573652074726164652073697A6520 SWAP6 DUP2 ADD SWAP6 SWAP1 SWAP6 MSTORE PUSH32 0x767320666F6C6C6F776572207661756C742C204E4F542072617720646F6C6C61 PUSH2 0x2CB DUP7 ADD MSTORE PUSH5 0x3939949D05 PUSH1 0xD9 SHL PUSH2 0x2EB DUP7 ADD MSTORE PUSH32 0x20205472616465203C203525206F6620666F6C6C6F776572207661756C742020 PUSH2 0x2F0 DUP7 ADD MSTORE PUSH32 0x2020202020202D3E207765616B207369676E616C2C206C65616E20636F6E7365 PUSH2 0x310 DUP7 ADD MSTORE PUSH8 0x393B30BA34BB3285 PUSH1 0xC1 SHL PUSH2 0x330 DUP7 ADD MSTORE PUSH32 0x2020547261646520352D323025206F6620666F6C6C6F776572207661756C7420 PUSH2 0x338 DUP7 ADD MSTORE PUSH32 0x2020202020202D3E206D6F646572617465207369676E616C0A00000000000000 PUSH2 0x358 DUP7 ADD MSTORE PUSH32 0x20205472616465203E20323025206F6620666F6C6C6F776572207661756C7420 PUSH2 0x371 DUP7 ADD MSTORE PUSH32 0x2020202020202D3E207374726F6E67207369676E616C2C206C65616465722069 PUSH2 0x391 DUP7 ADD MSTORE PUSH20 0x399036B0B5B4B7339030903134B39036B7BB3285 PUSH1 0x61 SHL PUSH2 0x3B1 DUP7 ADD MSTORE PUSH32 0x20205472616465203E20353025206F6620666F6C6C6F776572207661756C7420 PUSH2 0x3C5 DUP7 ADD MSTORE PUSH32 0x2020202020202D3E2076657279207374726F6E67207369676E616C0A0A000000 PUSH2 0x3E5 DUP7 ADD MSTORE PUSH17 0x232922A9A42722A9A9902127A72AA99D05 PUSH1 0x79 SHL PUSH2 0x402 DUP7 ADD MSTORE PUSH32 0x2020547261646520616765203C20313073202020202020202020202020202020 PUSH2 0x413 DUP7 ADD MSTORE PUSH32 0x2020202020202D3E2061646420757020746F20313020746F2066696E616C2073 PUSH2 0x433 DUP7 ADD MSTORE PUSH5 0x31B7B93285 PUSH1 0xD9 SHL PUSH2 0x453 DUP7 ADD MSTORE PUSH32 0x20205472616465206167652031302D3330732020202020202020202020202020 PUSH2 0x458 DUP7 ADD MSTORE PUSH32 0x2020202020202D3E206E6F2061646A7573746D656E740A000000000000000000 PUSH2 0x478 DUP7 ADD MSTORE PUSH32 0x20205472616465206167652033302D3132307320202020202020202020202020 PUSH2 0x48F DUP7 ADD MSTORE PUSH32 0x2020202020202D3E207265647563652073636F72652062792031300A0A000000 PUSH2 0x4AF DUP7 ADD MSTORE PUSH32 0x494D504F5254414E543A20446F204E4F54207472656174202431303030206173 PUSH2 0x4CC DUP7 ADD MSTORE PUSH32 0x20696E686572656E746C79207369676E69666963616E742E0A00000000000000 PUSH2 0x4EC DUP7 ADD MSTORE PUSH32 0x202041202431303030207472616465206973207374726F6E6720696620746865 PUSH2 0x505 DUP7 ADD MSTORE PUSH32 0x20666F6C6C6F776572207661756C742069732024323030302028353025292E0A PUSH2 0x525 DUP7 ADD MSTORE PUSH32 0x202041202431303030207472616465206973207765616B206966207468652066 PUSH2 0x545 DUP7 ADD MSTORE PUSH32 0x6F6C6C6F776572207661756C74206973202431303030303020283125292E0A00 PUSH2 0x565 DUP7 ADD MSTORE PUSH32 0x2020416C7761797320726561736F6E20696E2070657263656E74616765732C20 PUSH2 0x584 DUP7 ADD MSTORE PUSH32 0x6E6F74206162736F6C75746520646F6C6C617220616D6F756E74732E0A0A0000 PUSH2 0x5A4 DUP7 ADD MSTORE PUSH32 0x526573706F6E64207769746820612073696E676C6520696E746567657220302D PUSH2 0x5C2 DUP7 ADD MSTORE PUSH4 0x18981817 PUSH1 0xE1 SHL PUSH2 0x5E2 DUP7 ADD MSTORE PUSH2 0x5C6 DUP6 MSTORE SWAP4 SWAP5 PUSH2 0x600 DUP7 ADD SWAP2 PUSH1 0x1 PUSH1 0x1 PUSH1 0x40 SHL SUB DUP4 GT DUP8 DUP5 LT OR PUSH2 0x2540 JUMPI PUSH2 0x3CA2 SWAP7 PUSH1 0x20 SWAP7 PUSH2 0x3C6B SWAP7 PUSH2 0x3C4A PUSH2 0x3C56 SWAP6 DUP11 SWAP6 PUSH2 0x3C3B PUSH2 0x3C79 SWAP11 DUP11 PUSH1 0x40 MSTORE PUSH2 0x620 SWAP6 PUSH2 0x3C19 DUP2 MLOAD DUP1 SWAP3 DUP13 DUP11 DUP14 ADD SWAP2 ADD PUSH2 0x25AD JUMP JUMPDEST DUP9 ADD PUSH2 0x3C2D DUP3 MLOAD DUP1 SWAP4 DUP13 DUP11 DUP6 ADD SWAP2 ADD PUSH2 0x25AD JUMP JUMPDEST ADD SWAP2 MLOAD DUP1 SWAP4 DUP7 DUP5 ADD SWAP1 PUSH2 0x25AD JUMP JUMPDEST ADD SWAP2 DUP5 MLOAD SWAP4 DUP5 SWAP2 DUP5 ADD SWAP1 PUSH2 0x25AD JUMP JUMPDEST ADD SUB DUP1 DUP5 MSTORE ADD DUP3 PUSH2 0x258C JUMP JUMPDEST PUSH1 0x40 MLOAD SWAP3 DUP4 SWAP2 DUP6 DUP1 DUP5 ADD MSTORE PUSH1 0x40 DUP4 ADD SWAP1 PUSH2 0x25D0 JUMP JUMPDEST SUB PUSH1 0x1F NOT DUP2 ADD DUP4 MSTORE DUP3 PUSH2 0x258C JUMP JUMPDEST PUSH1 0x40 MLOAD DUP1 SWAP4 DUP2 SWAP3 PUSH4 0x22E05A01 PUSH1 0xE2 SHL DUP4 MSTORE PUSH1 0x2 PUSH1 0x4 DUP5 ADD MSTORE PUSH1 0x80 PUSH1 0x24 DUP5 ADD MSTORE PUSH1 0x84 DUP4 ADD SWAP1 PUSH2 0x25D0 JUMP JUMPDEST ADDRESS PUSH1 0x44 DUP4 ADD MSTORE PUSH4 0x74F212CB PUSH1 0xE1 SHL PUSH1 0x64 DUP4 ADD MSTORE SUB DUP2 PUSH1 0x0 PUSH20 0x37BB9C718F3F7FE5ECBDB0B600D607B52706776 GAS CALL SWAP1 DUP2 ISZERO PUSH2 0x3D49 JUMPI PUSH1 0x0 SWAP2 PUSH2 0x3D17 JUMPI JUMPDEST POP DUP1 PUSH1 0x0 MSTORE PUSH1 0x7 PUSH1 0x20 MSTORE DUP2 PUSH1 0x40 PUSH1 0x0 KECCAK256 SSTORE PUSH32 0x8DF036C7F8F7ABBA90AAA45ADC08C00DC16E017713FD45E09AE7422C4D113A49 PUSH1 0x0 DUP1 LOG3 JUMP JUMPDEST SWAP1 POP PUSH1 0x20 DUP2 RETURNDATASIZE PUSH1 0x20 GT PUSH2 0x3D41 JUMPI JUMPDEST DUP2 PUSH2 0x3D32 PUSH1 0x20 SWAP4 DUP4 PUSH2 0x258C JUMP JUMPDEST DUP2 ADD SUB SLT PUSH2 0x241A JUMPI MLOAD CODESIZE PUSH2 0x3CDF JUMP JUMPDEST RETURNDATASIZE SWAP2 POP PUSH2 0x3D25 JUMP JUMPDEST PUSH1 0x40 MLOAD RETURNDATASIZE PUSH1 0x0 DUP3 RETURNDATACOPY RETURNDATASIZE SWAP1 REVERT JUMPDEST PUSH1 0x0 PUSH2 0x2B9B JUMP JUMPDEST PUSH1 0x0 SWAP8 PUSH2 0x2B6E JUMP JUMPDEST PUSH1 0x0 SWAP4 PUSH2 0x2B3F JUMP JUMPDEST DUP7 SWAP3 POP PUSH2 0x2AE7 JUMP JUMPDEST SWAP1 POP DUP5 ADD CALLDATALOAD CODESIZE PUSH2 0x2AAB JUMP JUMPDEST SWAP2 POP DUP3 PUSH1 0x0 MSTORE PUSH1 0x20 PUSH1 0x0 KECCAK256 PUSH1 0x0 SWAP3 JUMPDEST PUSH1 0x1F NOT DUP4 AND DUP5 LT PUSH2 0x3DCF JUMPI PUSH1 0x1 SWAP4 POP DUP3 PUSH1 0x1F NOT DUP2 AND LT PUSH2 0x3DB5 JUMPI JUMPDEST POP POP DUP2 SHL ADD SWAP1 SSTORE PUSH2 0x2ABF JUMP JUMPDEST DUP7 ADD CALLDATALOAD PUSH1 0x0 NOT PUSH1 0x3 DUP5 SWAP1 SHL PUSH1 0xF8 AND SHR NOT AND SWAP1 SSTORE CODESIZE DUP1 PUSH2 0x3DA9 JUMP JUMPDEST DUP7 DUP2 ADD CALLDATALOAD DUP3 SSTORE PUSH1 0x20 SWAP4 DUP5 ADD SWAP4 PUSH1 0x1 SWAP1 SWAP3 ADD SWAP2 ADD PUSH2 0x3D8E JUMP JUMPDEST PUSH2 0x3E14 SWAP1 DUP4 PUSH1 0x0 MSTORE PUSH1 0x20 PUSH1 0x0 KECCAK256 PUSH1 0x1F DUP5 ADD PUSH1 0x5 SHR DUP2 ADD SWAP2 PUSH1 0x20 DUP6 LT PUSH2 0x3E1A JUMPI JUMPDEST PUSH1 0x1F ADD PUSH1 0x5 SHR ADD SWAP1 PUSH2 0x28FE JUMP JUMPDEST CODESIZE PUSH2 0x2A94 JUMP JUMPDEST SWAP1 SWAP2 POP DUP2 SWAP1 PUSH2 0x3E07 JUMP JUMPDEST POP POP POP POP POP DUP1 PUSH1 0x0 DUP1 MLOAD PUSH1 0x20 PUSH2 0x4905 DUP4 CODECOPY DUP2 MLOAD SWAP2 MSTORE PUSH1 0x60 PUSH1 0x40 MLOAD PUSH1 0x20 DUP2 MSTORE PUSH1 0x19 PUSH1 0x20 DUP3 ADD MSTORE PUSH32 0x696E73756666696369656E7420667265652062616C616E636500000000000000 PUSH1 0x40 DUP3 ADD MSTORE LOG2 PUSH1 0x0 MSTORE PUSH1 0x9 PUSH1 0x20 MSTORE PUSH1 0x40 PUSH1 0x0 KECCAK256 PUSH1 0xFF NOT DUP2 SLOAD AND SWAP1 SSTORE JUMP JUMPDEST POP POP POP POP DUP1 PUSH1 0x0 DUP1 MLOAD PUSH1 0x20 PUSH2 0x4905 DUP4 CODECOPY DUP2 MLOAD SWAP2 MSTORE PUSH1 0x60 PUSH1 0x40 MLOAD PUSH1 0x20 DUP2 MSTORE PUSH1 0x16 PUSH1 0x20 DUP3 ADD MSTORE PUSH22 0x1D1BDAD95B881B9BDD081A5B88185B1B1BDDDB1A5CDD PUSH1 0x52 SHL PUSH1 0x40 DUP3 ADD MSTORE LOG2 PUSH1 0x0 MSTORE PUSH1 0x9 PUSH1 0x20 MSTORE PUSH1 0x40 PUSH1 0x0 KECCAK256 PUSH1 0xFF NOT DUP2 SLOAD AND SWAP1 SSTORE JUMP JUMPDEST POP POP POP POP DUP1 PUSH1 0x0 DUP1 MLOAD PUSH1 0x20 PUSH2 0x4905 DUP4 CODECOPY DUP2 MLOAD SWAP2 MSTORE PUSH1 0x60 PUSH1 0x40 MLOAD PUSH1 0x20 DUP2 MSTORE PUSH1 0xB PUSH1 0x20 DUP3 ADD MSTORE PUSH11 0x7374616C65207472616465 PUSH1 0xA8 SHL PUSH1 0x40 DUP3 ADD MSTORE LOG2 PUSH1 0x0 MSTORE PUSH1 0x9 PUSH1 0x20 MSTORE PUSH1 0x40 PUSH1 0x0 KECCAK256 PUSH1 0xFF NOT DUP2 SLOAD AND SWAP1 SSTORE JUMP JUMPDEST PUSH1 0x40 MLOAD PUSH3 0x461BCD PUSH1 0xE5 SHL DUP2 MSTORE PUSH1 0x20 PUSH1 0x4 DUP3 ADD MSTORE PUSH1 0x1B PUSH1 0x24 DUP3 ADD MSTORE PUSH32 0x564D3A20756E6B6E6F776E207761746368657220726571756573740000000000 PUSH1 0x44 DUP3 ADD MSTORE PUSH1 0x64 SWAP1 REVERT JUMPDEST SWAP1 PUSH1 0x40 MLOAD SWAP2 DUP3 DUP2 SLOAD SWAP2 DUP3 DUP3 MSTORE PUSH1 0x20 SWAP3 PUSH1 0x20 DUP4 ADD SWAP2 PUSH1 0x0 MSTORE PUSH1 0x20 PUSH1 0x0 KECCAK256 SWAP4 PUSH1 0x0 SWAP1 JUMPDEST DUP3 DUP3 LT PUSH2 0x3FB0 JUMPI POP POP POP PUSH2 0x3FAE SWAP3 POP SUB DUP4 PUSH2 0x258C JUMP JUMPDEST JUMP JUMPDEST DUP6 SLOAD PUSH1 0x1 PUSH1 0x1 PUSH1 0xA0 SHL SUB AND DUP5 MSTORE PUSH1 0x1 SWAP6 DUP7 ADD SWAP6 DUP9 SWAP6 POP SWAP4 DUP2 ADD SWAP4 SWAP1 SWAP2 ADD SWAP1 PUSH2 0x3F98 JUMP JUMPDEST PUSH1 0x40 MLOAD SWAP1 PUSH1 0x20 DUP3 ADD SWAP3 PUSH1 0x1 PUSH1 0x1 PUSH1 0x60 SHL SUB NOT DUP1 SWAP3 PUSH1 0x60 SHL AND DUP5 MSTORE PUSH1 0x60 SHL AND PUSH1 0x34 DUP3 ADD MSTORE PUSH1 0x28 DUP2 MSTORE PUSH2 0x4003 DUP2 PUSH2 0x2556 JUMP JUMPDEST MLOAD SWAP1 KECCAK256 SWAP1 JUMP JUMPDEST DUP2 DUP2 SUB SWAP3 SWAP2 PUSH1 0x0 SGT DUP1 ISZERO DUP3 DUP6 SGT AND SWAP2 DUP5 SLT AND OR PUSH2 0x2832 JUMPI JUMP JUMPDEST PUSH1 0x0 NOT DUP2 EQ PUSH2 0x2832 JUMPI PUSH1 0x1 ADD SWAP1 JUMP JUMPDEST PUSH2 0x403B DUP2 SLOAD PUSH2 0x24EA JUMP JUMPDEST SWAP1 DUP2 PUSH2 0x4045 JUMPI POP POP JUMP JUMPDEST DUP2 PUSH1 0x1F PUSH1 0x0 SWAP4 GT PUSH1 0x1 EQ PUSH2 0x4057 JUMPI POP SSTORE JUMP JUMPDEST SWAP1 DUP1 DUP4 SWAP2 DUP3 MSTORE PUSH2 0x4076 PUSH1 0x1F PUSH1 0x20 DUP5 KECCAK256 SWAP5 ADD PUSH1 0x5 SHR DUP5 ADD PUSH1 0x1 DUP6 ADD PUSH2 0x28FE JUMP JUMPDEST SSTORE SSTORE JUMP JUMPDEST SWAP2 SWAP1 SWAP2 PUSH1 0x0 SWAP2 DUP2 DUP4 MSTORE PUSH1 0x20 SWAP2 PUSH1 0x7 DUP4 MSTORE PUSH1 0x40 SWAP5 DUP6 DUP6 KECCAK256 SLOAD SWAP3 DUP4 ISZERO PUSH2 0x4182 JUMPI DUP2 DUP6 SWAP2 DUP5 DUP9 MSTORE PUSH1 0x7 DUP4 MSTORE DUP8 DUP10 DUP2 KECCAK256 SSTORE DUP2 ADD SUB SLT PUSH2 0x15B8 JUMPI PUSH1 0x9 SWAP4 SWAP3 SWAP2 SWAP1 CALLDATALOAD PUSH1 0x64 DUP2 GT ISZERO PUSH2 0x4179 JUMPI POP PUSH1 0x64 SWAP1 JUMPDEST DUP3 PUSH1 0xFF DUP4 AND SWAP2 PUSH32 0xFA8CD370ED165419BEE5744CD0CF123578C057A1384F8AEE00A20891DFC6FBCE DUP10 PUSH1 0xA DUP6 LT SWAP5 DUP2 MLOAD SWAP1 DUP2 MSTORE DUP6 ISZERO DUP10 DUP3 ADD MSTORE LOG3 PUSH2 0x412B JUMPI PUSH2 0x410B SWAP1 DUP3 PUSH2 0x4454 JUMP JUMPDEST DUP1 DUP5 MSTORE PUSH1 0x8 DUP3 MSTORE PUSH2 0x411D DUP6 DUP6 KECCAK256 PUSH2 0x4031 JUMP JUMPDEST DUP4 MSTORE MSTORE KECCAK256 DUP1 SLOAD PUSH1 0xFF NOT AND SWAP1 SSTORE JUMP JUMPDEST POP DUP1 PUSH1 0x0 DUP1 MLOAD PUSH1 0x20 PUSH2 0x4905 DUP4 CODECOPY DUP2 MLOAD SWAP2 MSTORE PUSH1 0x60 DUP8 MLOAD DUP6 DUP2 MSTORE PUSH1 0x15 DUP7 DUP3 ADD MSTORE PUSH21 0x1CD8DBDC994818995B1BDDC81D1A1C995CDA1BDB19 PUSH1 0x5A SHL DUP10 DUP3 ADD MSTORE LOG2 DUP1 DUP5 MSTORE PUSH1 0x8 DUP3 MSTORE PUSH2 0x411D DUP6 DUP6 KECCAK256 PUSH2 0x4031 JUMP JUMPDEST PUSH1 0xFF AND SWAP1 PUSH2 0x40C4 JUMP JUMPDEST DUP7 MLOAD PUSH3 0x461BCD PUSH1 0xE5 SHL DUP2 MSTORE PUSH1 0x4 DUP2 ADD DUP7 SWAP1 MSTORE PUSH1 0x1E PUSH1 0x24 DUP3 ADD MSTORE PUSH32 0x564D3A20756E6B6E6F776E207374726174656769737420726571756573740000 PUSH1 0x44 DUP3 ADD MSTORE PUSH1 0x64 SWAP1 REVERT JUMPDEST SWAP1 PUSH1 0x0 JUMPDEST DUP3 SLOAD DUP2 LT ISZERO PUSH2 0x4209 JUMPI PUSH2 0x41DD DUP2 DUP5 PUSH2 0x24BC JUMP JUMPDEST SWAP1 SLOAD PUSH1 0x3 SWAP2 SWAP1 SWAP2 SHL SHR PUSH1 0x1 PUSH1 0x1 PUSH1 0xA0 SHL SUB SWAP1 DUP2 AND SWAP1 DUP4 AND EQ PUSH2 0x4201 JUMPI PUSH1 0x1 ADD PUSH2 0x41CA JUMP JUMPDEST POP POP POP PUSH1 0x1 SWAP1 JUMP JUMPDEST POP POP POP PUSH1 0x0 SWAP1 JUMP JUMPDEST PUSH1 0x2 PUSH1 0x3 DUP3 ADD SLOAD SWAP2 ADD SLOAD SWAP1 DUP2 DUP2 LT ISZERO PUSH2 0x4230 JUMPI PUSH2 0x422D SWAP2 PUSH2 0x294A JUMP JUMPDEST SWAP1 JUMP JUMPDEST POP POP PUSH1 0x0 SWAP1 JUMP JUMPDEST PUSH1 0x1 PUSH1 0x1 PUSH1 0x40 SHL SUB DUP2 GT PUSH2 0x2540 JUMPI PUSH1 0x1F ADD PUSH1 0x1F NOT AND PUSH1 0x20 ADD SWAP1 JUMP JUMPDEST SWAP1 DUP2 MLOAD DUP2 LT ISZERO PUSH2 0x24D4 JUMPI ADD PUSH1 0x20 ADD SWAP1 JUMP JUMPDEST PUSH1 0x40 MLOAD SWAP1 PUSH1 0x1 PUSH1 0x1 PUSH1 0x60 SHL SUB NOT SWAP1 PUSH1 0x60 SHL AND PUSH1 0x20 DUP3 ADD MSTORE PUSH1 0x14 DUP1 DUP3 MSTORE PUSH2 0x4288 DUP3 PUSH2 0x2571 JUMP JUMPDEST PUSH1 0x40 MLOAD SWAP1 PUSH2 0x4295 DUP3 PUSH2 0x2571 JUMP JUMPDEST PUSH1 0x10 DUP3 MSTORE PUSH16 0x181899199A1A9B1B9C1CB0B131B232B3 PUSH1 0x81 SHL PUSH1 0x20 DUP4 ADD MSTORE PUSH1 0x40 MLOAD SWAP3 PUSH2 0x42BF DUP5 PUSH2 0x2556 JUMP JUMPDEST PUSH1 0x2A DUP5 MSTORE PUSH1 0x20 DUP5 ADD PUSH1 0x40 CALLDATASIZE DUP3 CALLDATACOPY DUP5 MLOAD ISZERO PUSH2 0x24D4 JUMPI PUSH1 0x30 SWAP1 MSTORE8 DUP4 MLOAD SWAP3 PUSH1 0x1 SWAP4 PUSH1 0x1 LT ISZERO PUSH2 0x24D4 JUMPI PUSH1 0x78 PUSH1 0x21 DUP7 ADD MSTORE8 PUSH1 0x0 JUMPDEST DUP4 DUP2 LT PUSH2 0x42FE JUMPI POP POP POP POP POP SWAP1 JUMP JUMPDEST PUSH1 0x1 PUSH1 0x1 PUSH1 0xF8 SHL SUB NOT SWAP1 DUP2 PUSH2 0x4320 PUSH2 0x4316 DUP4 DUP8 PUSH2 0x4252 JUMP JUMPDEST MLOAD PUSH1 0xFC SHR DUP6 PUSH2 0x4252 JUMP JUMPDEST MLOAD AND SWAP2 DUP2 DUP8 SHL SWAP3 PUSH1 0x2 SWAP1 DUP4 DUP6 DIV DUP3 EQ DUP5 ISZERO OR ISZERO PUSH2 0x2832 JUMPI DUP5 DUP3 ADD DUP1 SWAP3 GT PUSH2 0x2832 JUMPI PUSH2 0x434F SWAP1 PUSH1 0x0 BYTE SWAP2 DUP11 PUSH2 0x4252 JUMP JUMPDEST MSTORE8 PUSH2 0x436A PUSH1 0xF PUSH2 0x435F DUP5 DUP9 PUSH2 0x4252 JUMP JUMPDEST MLOAD PUSH1 0xF8 SHR AND DUP6 PUSH2 0x4252 JUMP JUMPDEST MLOAD AND SWAP2 PUSH1 0x3 SWAP1 DUP2 ADD DUP1 SWAP2 GT PUSH2 0x2832 JUMPI PUSH2 0x4388 DUP8 SWAP4 PUSH1 0x0 BYTE SWAP2 DUP10 PUSH2 0x4252 JUMP JUMPDEST MSTORE8 ADD PUSH2 0x42EF JUMP JUMPDEST PUSH1 0x0 SWAP2 JUMPDEST DUP2 SLOAD SWAP3 DUP4 DUP2 LT ISZERO PUSH2 0x443A JUMPI PUSH2 0x43A8 DUP2 DUP5 PUSH2 0x24BC JUMP JUMPDEST SWAP1 SLOAD PUSH1 0x3 SWAP6 PUSH1 0x1 PUSH1 0x1 PUSH1 0xA0 SHL SUB SWAP3 SWAP1 SWAP2 SWAP1 DUP8 SHL SHR DUP3 AND DUP5 DUP4 AND EQ PUSH2 0x43D2 JUMPI POP POP PUSH1 0x1 ADD SWAP3 POP PUSH2 0x4393 JUMP JUMPDEST SWAP1 SWAP3 POP PUSH1 0x0 NOT SWAP2 DUP3 DUP3 ADD SWAP2 DUP3 GT PUSH2 0x2832 JUMPI PUSH2 0x2372 DUP5 PUSH2 0x43F4 PUSH2 0x4402 SWAP5 DUP9 PUSH2 0x24BC JUMP JUMPDEST SWAP1 SLOAD SWAP1 DUP10 SHL SHR AND SWAP2 DUP7 PUSH2 0x24BC JUMP JUMPDEST DUP3 SLOAD DUP1 ISZERO PUSH2 0x4424 JUMPI ADD SWAP3 PUSH2 0x4416 DUP5 DUP5 PUSH2 0x24BC JUMP JUMPDEST DUP2 SWAP4 SWAP2 SLOAD SWAP3 SHL SHL NOT AND SWAP1 SSTORE SSTORE JUMP JUMPDEST PUSH4 0x4E487B71 PUSH1 0xE0 SHL PUSH1 0x0 MSTORE PUSH1 0x31 PUSH1 0x4 MSTORE PUSH1 0x24 PUSH1 0x0 REVERT JUMPDEST POP POP POP POP JUMP JUMPDEST MLOAD SWAP1 PUSH1 0x1 PUSH1 0x1 PUSH1 0xA0 SHL SUB DUP3 AND DUP3 SUB PUSH2 0x241A JUMPI JUMP JUMPDEST DUP1 PUSH1 0x0 MSTORE PUSH1 0x2 PUSH1 0x20 MSTORE PUSH1 0x40 PUSH1 0x0 KECCAK256 SWAP2 PUSH1 0x8 PUSH1 0x20 MSTORE PUSH1 0x40 PUSH1 0x0 KECCAK256 PUSH1 0x40 MLOAD SWAP1 PUSH1 0x0 DUP3 DUP3 SLOAD SWAP2 PUSH2 0x4480 DUP4 PUSH2 0x24EA JUMP JUMPDEST SWAP3 DUP4 DUP4 MSTORE PUSH1 0x20 DUP4 ADD SWAP5 PUSH1 0x1 SWAP2 PUSH1 0x1 DUP2 AND SWAP1 DUP2 PUSH1 0x0 EQ PUSH2 0x4827 JUMPI POP PUSH1 0x1 EQ PUSH2 0x47E5 JUMPI JUMPDEST POP POP PUSH2 0x44B0 SWAP3 POP SUB DUP4 PUSH2 0x258C JUMP JUMPDEST PUSH1 0xA0 DUP3 DUP1 MLOAD DUP2 ADD SUB SLT PUSH2 0x241A JUMPI PUSH2 0x44C6 SWAP1 PUSH2 0x4440 JUMP JUMPDEST POP PUSH1 0x80 PUSH2 0x44D5 PUSH1 0x40 DUP4 ADD PUSH2 0x4440 JUMP JUMPDEST SWAP2 ADD MLOAD PUSH1 0x1 PUSH1 0x1 PUSH1 0xA0 SHL SUB DUP3 AND SWAP5 PUSH2 0x44EC DUP2 PUSH2 0x4211 JUMP JUMPDEST SWAP2 PUSH1 0x64 PUSH2 0x4508 PUSH1 0x2 DUP5 ADD SLOAD PUSH1 0xFF PUSH1 0x4 DUP7 ADD SLOAD PUSH1 0x8 SHR AND SWAP1 PUSH2 0x28EB JUMP JUMPDEST DIV DUP4 DUP2 GT PUSH2 0x47DE JUMPI JUMPDEST PUSH2 0x4521 PUSH1 0x64 SWAP2 PUSH1 0xFF DUP9 AND SWAP1 PUSH2 0x28EB JUMP JUMPDEST DIV SWAP3 PUSH3 0xF4240 DUP5 LT PUSH2 0x478E JUMPI DUP1 DUP5 GT PUSH2 0x4786 JUMPI JUMPDEST POP PUSH1 0x0 DUP8 DUP2 MSTORE PUSH1 0xA PUSH1 0x20 MSTORE PUSH1 0x40 SWAP1 KECCAK256 SLOAD SWAP1 DUP2 ISZERO PUSH2 0x477E JUMPI POP SWAP4 JUMPDEST PUSH2 0x455A PUSH1 0xC SLOAD PUSH2 0x4022 JUMP JUMPDEST SWAP4 DUP5 PUSH1 0xC SSTORE PUSH1 0x40 MLOAD SWAP5 PUSH1 0x20 DUP7 ADD SWAP2 DUP9 DUP4 MSTORE TIMESTAMP PUSH1 0x40 DUP9 ADD MSTORE PUSH1 0x1 PUSH1 0x1 PUSH1 0x60 SHL SUB NOT SWAP1 PUSH1 0x60 SHL AND PUSH1 0x60 DUP8 ADD MSTORE PUSH1 0x74 DUP7 ADD MSTORE PUSH1 0x74 DUP6 MSTORE PUSH1 0xA0 DUP6 ADD SWAP1 PUSH1 0x1 PUSH1 0x1 PUSH1 0x40 SHL SUB SWAP1 DUP7 DUP4 LT DUP3 DUP5 GT OR PUSH2 0x2540 JUMPI PUSH1 0x40 DUP4 SWAP1 MSTORE DUP7 MLOAD SWAP1 KECCAK256 DUP5 SLOAD PUSH1 0x1 DUP7 ADD SLOAD SWAP2 SWAP3 PUSH1 0x1 PUSH1 0x1 PUSH1 0xA0 SHL SUB SWAP3 DUP4 AND SWAP3 SWAP2 SWAP1 SWAP2 AND SWAP1 PUSH2 0x200 DUP10 ADD SWAP1 DUP2 GT DUP6 DUP3 LT OR PUSH2 0x2540 JUMPI PUSH1 0x40 MSTORE DUP4 MSTORE PUSH1 0xC0 DUP8 ADD MSTORE PUSH1 0xE0 DUP7 ADD DUP9 DUP2 MSTORE DUP10 PUSH2 0x100 DUP9 ADD MSTORE DUP6 PUSH2 0x120 DUP9 ADD MSTORE DUP8 PUSH2 0x140 DUP9 ADD MSTORE PUSH1 0x0 PUSH2 0x160 DUP9 ADD MSTORE PUSH1 0x0 PUSH2 0x180 DUP9 ADD MSTORE PUSH1 0x0 PUSH2 0x1A0 DUP9 ADD MSTORE TIMESTAMP PUSH2 0x1C0 DUP9 ADD MSTORE PUSH1 0x0 PUSH2 0x1E0 DUP9 ADD MSTORE DUP2 PUSH1 0x0 MSTORE PUSH1 0x3 PUSH1 0x20 MSTORE PUSH1 0x40 PUSH1 0x0 KECCAK256 SWAP3 PUSH1 0x1 DUP1 PUSH1 0xA0 SHL SUB SWAP1 MLOAD AND SWAP1 PUSH1 0x1 PUSH1 0x1 PUSH1 0x60 SHL SUB PUSH1 0xA0 SHL SWAP2 DUP3 DUP6 SLOAD AND OR DUP5 SSTORE PUSH1 0x1 DUP5 ADD PUSH1 0x1 DUP1 PUSH1 0xA0 SHL SUB PUSH1 0xC0 DUP11 ADD MLOAD AND DUP4 DUP3 SLOAD AND OR SWAP1 SSTORE MLOAD PUSH1 0x2 DUP5 ADD SSTORE PUSH1 0x3 DUP4 ADD SWAP1 PUSH1 0x1 DUP1 PUSH1 0xA0 SHL SUB PUSH2 0x100 DUP10 ADD MLOAD AND SWAP1 DUP3 SLOAD AND OR SWAP1 SSTORE PUSH2 0x120 DUP7 ADD MLOAD PUSH1 0x4 DUP4 ADD SSTORE PUSH2 0x140 DUP7 ADD MLOAD PUSH1 0x5 DUP4 ADD SSTORE PUSH2 0x160 DUP7 ADD MLOAD PUSH1 0x6 DUP4 ADD SSTORE PUSH2 0x180 DUP7 ADD MLOAD PUSH1 0x7 DUP4 ADD SSTORE PUSH1 0x8 DUP3 ADD PUSH2 0x1A0 DUP8 ADD MLOAD PUSH1 0x2 DUP2 LT ISZERO PUSH2 0x26C7 JUMPI PUSH32 0xFAC05F01C50AE793F1A1FB2912053546D62525AC2DFAD4ADBC641F37C09BF8A SWAP9 PUSH1 0x3 PUSH1 0xFF SWAP8 DUP13 SWAP7 PUSH1 0xA PUSH2 0x1E0 PUSH1 0x40 SWAP14 PUSH32 0xB1EEFDDB5E15079C801481DD2D9558F62B8D6E4BA1D15D3E8DA341E1D07CCD18 SWAP9 PUSH1 0x60 SWAP9 DUP15 DUP1 NOT DUP4 SLOAD AND SWAP2 AND OR SWAP1 SSTORE PUSH2 0x1C0 DUP2 ADD MLOAD PUSH1 0x9 DUP6 ADD SSTORE ADD MLOAD SWAP2 ADD SSTORE DUP7 PUSH1 0x0 MSTORE PUSH1 0x5 PUSH1 0x20 MSTORE PUSH2 0x4751 DUP7 DUP13 PUSH1 0x0 KECCAK256 PUSH2 0x2915 JUMP JUMPDEST ADD PUSH2 0x475D DUP10 DUP3 SLOAD PUSH2 0x2825 JUMP JUMPDEST SWAP1 SSTORE DUP9 MLOAD SWAP1 DUP13 DUP3 MSTORE DUP9 PUSH1 0x20 DUP4 ADD MSTORE DUP10 DUP3 ADD MSTORE LOG3 DUP4 MLOAD SWAP3 DUP4 MSTORE AND PUSH1 0x20 DUP3 ADD MSTORE LOG3 JUMP JUMPDEST SWAP1 POP SWAP4 PUSH2 0x454F JUMP JUMPDEST SWAP3 POP CODESIZE PUSH2 0x4535 JUMP JUMPDEST POP POP POP POP POP POP SWAP1 POP PUSH1 0x0 DUP1 MLOAD PUSH1 0x20 PUSH2 0x4905 DUP4 CODECOPY DUP2 MLOAD SWAP2 MSTORE PUSH1 0x60 PUSH1 0x40 MLOAD PUSH1 0x20 DUP2 MSTORE PUSH1 0x1E PUSH1 0x20 DUP3 ADD MSTORE PUSH32 0x616C6C6F636174656420616D6F756E742062656C6F77206D696E696D756D0000 PUSH1 0x40 DUP3 ADD MSTORE LOG2 JUMP JUMPDEST POP DUP3 PUSH2 0x4511 JUMP JUMPDEST PUSH1 0x0 SWAP1 DUP2 MSTORE PUSH1 0x20 DUP2 KECCAK256 SWAP1 SWAP3 POP JUMPDEST DUP5 DUP4 LT PUSH2 0x480C JUMPI POP PUSH2 0x44B0 SWAP4 POP POP DUP2 ADD PUSH1 0x20 ADD CODESIZE DUP1 PUSH2 0x44A2 JUMP JUMPDEST DUP2 SWAP4 POP SWAP1 DUP2 PUSH1 0x20 SWAP3 SLOAD DUP4 DUP6 DUP11 ADD ADD MSTORE ADD SWAP2 ADD SWAP1 SWAP2 DUP6 SWAP3 PUSH2 0x47F2 JUMP JUMPDEST PUSH1 0xFF NOT AND DUP8 MSTORE POP PUSH2 0x44B0 SWAP5 ISZERO ISZERO PUSH1 0x5 SHL DUP5 ADD PUSH1 0x20 ADD SWAP3 POP CODESIZE SWAP2 POP DUP2 SWAP1 POP PUSH2 0x44A2 JUMP JUMPDEST DUP1 ISZERO PUSH2 0x48E6 JUMPI DUP1 DUP2 PUSH1 0x0 SWAP3 JUMPDEST PUSH2 0x48D2 JUMPI POP DUP1 PUSH2 0x4864 DUP4 PUSH2 0x4237 JUMP JUMPDEST SWAP3 PUSH2 0x4872 PUSH1 0x40 MLOAD SWAP5 DUP6 PUSH2 0x258C JUMP JUMPDEST DUP1 DUP5 MSTORE PUSH1 0x1F NOT PUSH2 0x4881 DUP3 PUSH2 0x4237 JUMP JUMPDEST ADD CALLDATASIZE PUSH1 0x20 DUP7 ADD CALLDATACOPY SWAP1 JUMPDEST PUSH2 0x4893 JUMPI POP POP SWAP1 JUMP JUMPDEST DUP1 ISZERO PUSH2 0x2832 JUMPI PUSH1 0x0 NOT ADD SWAP1 PUSH1 0xA SWAP1 PUSH1 0x30 DUP3 DUP3 MOD DUP2 ADD DUP1 SWAP2 GT PUSH2 0x2832 JUMPI PUSH1 0xF8 SHL PUSH1 0x1 PUSH1 0x1 PUSH1 0xF8 SHL SUB NOT AND PUSH1 0x0 BYTE PUSH2 0x48C9 DUP5 DUP7 PUSH2 0x4252 JUMP JUMPDEST MSTORE8 DIV SWAP1 DUP2 PUSH2 0x488A JUMP JUMPDEST SWAP2 PUSH2 0x48DE PUSH1 0xA SWAP2 PUSH2 0x4022 JUMP JUMPDEST SWAP3 DIV DUP1 PUSH2 0x4855 JUMP JUMPDEST POP PUSH1 0x40 MLOAD PUSH2 0x48F3 DUP2 PUSH2 0x2571 JUMP JUMPDEST PUSH1 0x1 DUP2 MSTORE PUSH1 0x3 PUSH1 0xFC SHL PUSH1 0x20 DUP3 ADD MSTORE SWAP1 JUMP INVALID AND AND MULMOD 0xED MOD MSIZE PC EXTCODECOPY COINBASE 0x24 0xF9 CALLDATACOPY SWAP5 0xAA 0xDE KECCAK256 PUSH32 0xA9FE3124C4EE08CB05A724F0E760CAA2646970667358221220D0AE939E4E7820 TLOAD 0xF7 0xE5 EXTCODESIZE 0xE0 SELFDESTRUCT LOG4 0x4E 0xF8 DUP15 0xC7 ADDRESS PUSH15 0x9831522063DC8DAD80FCC1EF64736F PUSH13 0x63430008180033000000000000 "},"methodIdentifiers":{"AGENT_PLATFORM()":"e55ee7eb","API_BASE()":"22edf01a","AUSD()":"2fd7d1fd","JSON_API_AGENT_ID()":"011f8b1b","LLM_AGENT_ID()":"2e90c1a9","MAX_TRADE_AGE()":"9530b30f","MIN_COPY_SCORE()":"b8ff783d","MIN_TRADE_AUSD()":"5a2d6f5d","PRICE_API_BASE()":"989a83bf","addToAllowlist(address,address[])":"1aac9197","checkLeaderActivity(address,address)":"4e17707a","closePosition(bytes32)":"e54a2ad5","createVault(address,uint256,uint8,uint8,address[])":"85f9805d","deposit(address,uint256)":"47e7ef24","followerVaults(address,uint256)":"1fb3e24e","getAllowlist(address,address)":"d01ec4a6","getFollowerVaults(address)":"572fcdcd","getFreeBalance(address,address)":"de700da6","getOpenPositions(address,address)":"e8134712","getUnrealizedPnL(address,address)":"d4805742","getVault(address,address)":"bbd7edc5","keeperOf(address)":"3c4ce221","latestPrice(address)":"53084eff","onPriceUpdate(bytes32,bytes)":"7c42e644","onStrategistResponse(bytes32,bytes)":"e9e42596","onWatcherResponse(bytes32,bytes)":"8b50817b","pauseVault(address)":"c0bd6f9e","pipelineActive(bytes32)":"2c493e90","positions(bytes32)":"514ea4bf","removeFromAllowlist(address,address[])":"92bc6914","requestToVault(bytes32)":"c8f6fcdf","resumeVault(address)":"4e6ec0e6","setKeeper(address)":"748747e6","updatePrice(address)":"96e85ced","vaultId(address,address)":"bd44815f","vaultPositions(bytes32,uint256)":"c81e62e6","vaults(bytes32)":"cca23bf2","withdraw(address)":"51cff8d9"}}}}}