{"contracts/VaultManager.sol":{"VaultManager":{"abi":[{"inputs":[{"internalType":"address","name":"_ausd","type":"address"},{"internalType":"string","name":"_apiBase","type":"string"},{"internalType":"string","name":"_priceApiBase","type":"string"}],"stateMutability":"nonpayable","type":"constructor"},{"anonymous":false,"inputs":[{"indexed":true,"internalType":"bytes32","name":"vaultId","type":"bytes32"},{"indexed":false,"internalType":"address[]","name":"tokens","type":"address[]"}],"name":"AllowlistAdded","type":"event"},{"anonymous":false,"inputs":[{"indexed":true,"internalType":"bytes32","name":"vaultId","type":"bytes32"},{"indexed":false,"internalType":"address[]","name":"tokens","type":"address[]"}],"name":"AllowlistRemoved","type":"event"},{"anonymous":false,"inputs":[{"indexed":true,"internalType":"address","name":"follower","type":"address"},{"indexed":true,"internalType":"address","name":"keeper","type":"address"}],"name":"KeeperSet","type":"event"},{"anonymous":false,"inputs":[{"indexed":true,"internalType":"bytes32","name":"positionId","type":"bytes32"},{"indexed":true,"internalType":"bytes32","name":"vaultId","type":"bytes32"},{"indexed":false,"internalType":"int256","name":"pnl","type":"int256"},{"indexed":false,"internalType":"uint256","name":"exitPrice","type":"uint256"}],"name":"PositionClosed","type":"event"},{"anonymous":false,"inputs":[{"indexed":true,"internalType":"bytes32","name":"positionId","type":"bytes32"},{"indexed":true,"internalType":"bytes32","name":"vaultId","type":"bytes32"},{"indexed":false,"internalType":"address","name":"token","type":"address"},{"indexed":false,"internalType":"uint256","name":"ausdAllocated","type":"uint256"},{"indexed":false,"internalType":"uint256","name":"entryPrice","type":"uint256"}],"name":"PositionOpened","type":"event"},{"anonymous":false,"inputs":[{"indexed":true,"internalType":"address","name":"token","type":"address"},{"indexed":false,"internalType":"uint256","name":"price","type":"uint256"}],"name":"PriceUpdated","type":"event"},{"anonymous":false,"inputs":[{"indexed":true,"internalType":"uint256","name":"requestId","type":"uint256"},{"indexed":true,"internalType":"bytes32","name":"vaultId","type":"bytes32"}],"name":"StrategistRequested","type":"event"},{"anonymous":false,"inputs":[{"indexed":true,"internalType":"uint256","name":"requestId","type":"uint256"},{"indexed":true,"internalType":"bytes32","name":"vaultId","type":"bytes32"},{"indexed":false,"internalType":"uint8","name":"score","type":"uint8"},{"indexed":false,"internalType":"bool","name":"willExecute","type":"bool"}],"name":"StrategistResponse","type":"event"},{"anonymous":false,"inputs":[{"indexed":true,"internalType":"bytes32","name":"vaultId","type":"bytes32"},{"indexed":true,"internalType":"address","name":"token","type":"address"},{"indexed":false,"internalType":"uint256","name":"ausdAllocated","type":"uint256"},{"indexed":false,"internalType":"uint8","name":"copyScore","type":"uint8"}],"name":"TradeCopied","type":"event"},{"anonymous":false,"inputs":[{"indexed":true,"internalType":"bytes32","name":"vaultId","type":"bytes32"},{"indexed":false,"internalType":"string","name":"reason","type":"string"}],"name":"TradeSkipped","type":"event"},{"anonymous":false,"inputs":[{"indexed":true,"internalType":"bytes32","name":"vaultId","type":"bytes32"}],"name":"VaultClosed","type":"event"},{"anonymous":false,"inputs":[{"indexed":true,"internalType":"address","name":"follower","type":"address"},{"indexed":true,"internalType":"address","name":"leader","type":"address"},{"indexed":true,"internalType":"bytes32","name":"vaultId","type":"bytes32"},{"indexed":false,"internalType":"uint256","name":"amount","type":"uint256"}],"name":"VaultCreated","type":"event"},{"anonymous":false,"inputs":[{"indexed":true,"internalType":"bytes32","name":"vaultId","type":"bytes32"},{"indexed":false,"internalType":"uint256","name":"amount","type":"uint256"}],"name":"VaultDeposited","type":"event"},{"anonymous":false,"inputs":[{"indexed":true,"internalType":"bytes32","name":"vaultId","type":"bytes32"}],"name":"VaultPaused","type":"event"},{"anonymous":false,"inputs":[{"indexed":true,"internalType":"address","name":"follower","type":"address"},{"indexed":true,"internalType":"address","name":"leader","type":"address"},{"indexed":true,"internalType":"bytes32","name":"vaultId","type":"bytes32"},{"indexed":false,"internalType":"uint256","name":"amount","type":"uint256"}],"name":"VaultReopened","type":"event"},{"anonymous":false,"inputs":[{"indexed":true,"internalType":"bytes32","name":"vaultId","type":"bytes32"}],"name":"VaultResumed","type":"event"},{"anonymous":false,"inputs":[{"indexed":true,"internalType":"bytes32","name":"vaultId","type":"bytes32"},{"indexed":false,"internalType":"uint256","name":"amount","type":"uint256"}],"name":"VaultWithdrawn","type":"event"},{"anonymous":false,"inputs":[{"indexed":true,"internalType":"uint256","name":"requestId","type":"uint256"},{"indexed":true,"internalType":"bytes32","name":"vaultId","type":"bytes32"}],"name":"WatcherRequested","type":"event"},{"anonymous":false,"inputs":[{"indexed":true,"internalType":"uint256","name":"requestId","type":"uint256"},{"indexed":true,"internalType":"bytes32","name":"vaultId","type":"bytes32"},{"indexed":false,"internalType":"address","name":"tokenIn","type":"address"},{"indexed":false,"internalType":"address","name":"tokenOut","type":"address"},{"indexed":false,"internalType":"uint256","name":"usdValue","type":"uint256"},{"indexed":false,"internalType":"uint256","name":"tradeTimestamp","type":"uint256"}],"name":"WatcherResponse","type":"event"},{"inputs":[],"name":"AGENT_PLATFORM","outputs":[{"internalType":"address","name":"","type":"address"}],"stateMutability":"view","type":"function"},{"inputs":[],"name":"API_BASE","outputs":[{"internalType":"string","name":"","type":"string"}],"stateMutability":"view","type":"function"},{"inputs":[],"name":"AUSD","outputs":[{"internalType":"address","name":"","type":"address"}],"stateMutability":"view","type":"function"},{"inputs":[],"name":"JSON_API_AGENT_ID","outputs":[{"internalType":"uint256","name":"","type":"uint256"}],"stateMutability":"view","type":"function"},{"inputs":[],"name":"LLM_AGENT_ID","outputs":[{"internalType":"uint256","name":"","type":"uint256"}],"stateMutability":"view","type":"function"},{"inputs":[],"name":"MAX_TRADE_AGE","outputs":[{"internalType":"uint256","name":"","type":"uint256"}],"stateMutability":"view","type":"function"},{"inputs":[],"name":"MIN_COPY_SCORE","outputs":[{"internalType":"uint8","name":"","type":"uint8"}],"stateMutability":"view","type":"function"},{"inputs":[],"name":"MIN_TRADE_AUSD","outputs":[{"internalType":"uint256","name":"","type":"uint256"}],"stateMutability":"view","type":"function"},{"inputs":[],"name":"PIPELINE_TIMEOUT","outputs":[{"internalType":"uint256","name":"","type":"uint256"}],"stateMutability":"view","type":"function"},{"inputs":[],"name":"PRICE_API_BASE","outputs":[{"internalType":"string","name":"","type":"string"}],"stateMutability":"view","type":"function"},{"inputs":[{"internalType":"address","name":"leader","type":"address"},{"internalType":"address[]","name":"tokens","type":"address[]"}],"name":"addToAllowlist","outputs":[],"stateMutability":"nonpayable","type":"function"},{"inputs":[{"internalType":"address","name":"follower","type":"address"},{"internalType":"address","name":"leader","type":"address"}],"name":"checkLeaderActivity","outputs":[],"stateMutability":"payable","type":"function"},{"inputs":[{"internalType":"bytes32","name":"positionId","type":"bytes32"}],"name":"closePosition","outputs":[],"stateMutability":"nonpayable","type":"function"},{"inputs":[{"internalType":"address","name":"leader","type":"address"},{"internalType":"uint256","name":"amount","type":"uint256"},{"internalType":"uint8","name":"riskLevel","type":"uint8"},{"internalType":"uint8","name":"maxPerTradePct","type":"uint8"},{"internalType":"address[]","name":"allowlist","type":"address[]"}],"name":"createVault","outputs":[],"stateMutability":"nonpayable","type":"function"},{"inputs":[{"internalType":"address","name":"leader","type":"address"},{"internalType":"uint256","name":"amount","type":"uint256"}],"name":"deposit","outputs":[],"stateMutability":"nonpayable","type":"function"},{"inputs":[{"internalType":"address","name":"","type":"address"},{"internalType":"uint256","name":"","type":"uint256"}],"name":"followerVaults","outputs":[{"internalType":"bytes32","name":"","type":"bytes32"}],"stateMutability":"view","type":"function"},{"inputs":[{"internalType":"address","name":"follower","type":"address"},{"internalType":"address","name":"leader","type":"address"}],"name":"getAllowlist","outputs":[{"internalType":"address[]","name":"","type":"address[]"}],"stateMutability":"view","type":"function"},{"inputs":[{"internalType":"address","name":"follower","type":"address"}],"name":"getFollowerVaults","outputs":[{"internalType":"bytes32[]","name":"","type":"bytes32[]"}],"stateMutability":"view","type":"function"},{"inputs":[{"internalType":"address","name":"follower","type":"address"},{"internalType":"address","name":"leader","type":"address"}],"name":"getFreeBalance","outputs":[{"internalType":"uint256","name":"","type":"uint256"}],"stateMutability":"view","type":"function"},{"inputs":[{"internalType":"address","name":"follower","type":"address"},{"internalType":"address","name":"leader","type":"address"}],"name":"getOpenPositions","outputs":[{"internalType":"bytes32[]","name":"openIds","type":"bytes32[]"}],"stateMutability":"view","type":"function"},{"inputs":[{"internalType":"address","name":"follower","type":"address"},{"internalType":"address","name":"leader","type":"address"}],"name":"getUnrealizedPnL","outputs":[{"internalType":"int256","name":"totalPnl","type":"int256"}],"stateMutability":"view","type":"function"},{"inputs":[{"internalType":"address","name":"follower","type":"address"},{"internalType":"address","name":"leader","type":"address"}],"name":"getVault","outputs":[{"components":[{"internalType":"address","name":"follower","type":"address"},{"internalType":"address","name":"leader","type":"address"},{"internalType":"uint256","name":"ausdLocked","type":"uint256"},{"internalType":"uint256","name":"ausdAllocated","type":"uint256"},{"internalType":"uint8","name":"riskLevel","type":"uint8"},{"internalType":"uint8","name":"maxPerTradePct","type":"uint8"},{"internalType":"address[]","name":"allowlist","type":"address[]"},{"internalType":"enum VaultManager.VaultStatus","name":"status","type":"uint8"}],"internalType":"struct VaultManager.VaultConfig","name":"","type":"tuple"}],"stateMutability":"view","type":"function"},{"inputs":[{"internalType":"address","name":"","type":"address"}],"name":"keeperOf","outputs":[{"internalType":"address","name":"","type":"address"}],"stateMutability":"view","type":"function"},{"inputs":[{"internalType":"address","name":"","type":"address"}],"name":"latestPrice","outputs":[{"internalType":"uint256","name":"","type":"uint256"}],"stateMutability":"view","type":"function"},{"inputs":[{"internalType":"uint256","name":"requestId","type":"uint256"},{"internalType":"bytes","name":"response","type":"bytes"}],"name":"onPriceUpdate","outputs":[],"stateMutability":"nonpayable","type":"function"},{"inputs":[{"internalType":"uint256","name":"requestId","type":"uint256"},{"internalType":"bytes","name":"response","type":"bytes"}],"name":"onStrategistResponse","outputs":[],"stateMutability":"nonpayable","type":"function"},{"inputs":[{"internalType":"uint256","name":"requestId","type":"uint256"},{"internalType":"bytes","name":"response","type":"bytes"}],"name":"onWatcherResponse","outputs":[],"stateMutability":"nonpayable","type":"function"},{"inputs":[],"name":"owner","outputs":[{"internalType":"address","name":"","type":"address"}],"stateMutability":"view","type":"function"},{"inputs":[{"internalType":"address","name":"leader","type":"address"}],"name":"pauseVault","outputs":[],"stateMutability":"nonpayable","type":"function"},{"inputs":[{"internalType":"bytes32","name":"","type":"bytes32"}],"name":"pipelineActiveAt","outputs":[{"internalType":"uint256","name":"","type":"uint256"}],"stateMutability":"view","type":"function"},{"inputs":[{"internalType":"bytes32","name":"","type":"bytes32"}],"name":"positions","outputs":[{"internalType":"address","name":"follower","type":"address"},{"internalType":"address","name":"leader","type":"address"},{"internalType":"bytes32","name":"vaultId","type":"bytes32"},{"internalType":"address","name":"token","type":"address"},{"internalType":"uint256","name":"ausdAllocated","type":"uint256"},{"internalType":"uint256","name":"entryPrice","type":"uint256"},{"internalType":"uint256","name":"exitPrice","type":"uint256"},{"internalType":"int256","name":"pnl","type":"int256"},{"internalType":"enum VaultManager.PositionStatus","name":"status","type":"uint8"},{"internalType":"uint256","name":"openedAt","type":"uint256"},{"internalType":"uint256","name":"closedAt","type":"uint256"}],"stateMutability":"view","type":"function"},{"inputs":[{"internalType":"address","name":"leader","type":"address"},{"internalType":"address[]","name":"tokens","type":"address[]"}],"name":"removeFromAllowlist","outputs":[],"stateMutability":"nonpayable","type":"function"},{"inputs":[{"internalType":"address","name":"leader","type":"address"},{"internalType":"uint256","name":"amount","type":"uint256"},{"internalType":"uint8","name":"riskLevel","type":"uint8"},{"internalType":"uint8","name":"maxPerTradePct","type":"uint8"},{"internalType":"address[]","name":"allowlist","type":"address[]"}],"name":"reopenVault","outputs":[],"stateMutability":"nonpayable","type":"function"},{"inputs":[{"internalType":"uint256","name":"","type":"uint256"}],"name":"requestToVault","outputs":[{"internalType":"bytes32","name":"","type":"bytes32"}],"stateMutability":"view","type":"function"},{"inputs":[{"internalType":"address","name":"leader","type":"address"}],"name":"resumeVault","outputs":[],"stateMutability":"nonpayable","type":"function"},{"inputs":[{"internalType":"string","name":"base","type":"string"}],"name":"setApiBase","outputs":[],"stateMutability":"nonpayable","type":"function"},{"inputs":[{"internalType":"address","name":"keeper","type":"address"}],"name":"setKeeper","outputs":[],"stateMutability":"nonpayable","type":"function"},{"inputs":[{"internalType":"string","name":"base","type":"string"}],"name":"setPriceApiBase","outputs":[],"stateMutability":"nonpayable","type":"function"},{"inputs":[{"internalType":"address","name":"newOwner","type":"address"}],"name":"transferOwnership","outputs":[],"stateMutability":"nonpayable","type":"function"},{"inputs":[{"internalType":"address","name":"token","type":"address"}],"name":"updatePrice","outputs":[],"stateMutability":"payable","type":"function"},{"inputs":[{"internalType":"address","name":"follower","type":"address"},{"internalType":"address","name":"leader","type":"address"}],"name":"vaultId","outputs":[{"internalType":"bytes32","name":"","type":"bytes32"}],"stateMutability":"pure","type":"function"},{"inputs":[{"internalType":"bytes32","name":"","type":"bytes32"},{"internalType":"uint256","name":"","type":"uint256"}],"name":"vaultPositions","outputs":[{"internalType":"bytes32","name":"","type":"bytes32"}],"stateMutability":"view","type":"function"},{"inputs":[{"internalType":"bytes32","name":"","type":"bytes32"}],"name":"vaults","outputs":[{"internalType":"address","name":"follower","type":"address"},{"internalType":"address","name":"leader","type":"address"},{"internalType":"uint256","name":"ausdLocked","type":"uint256"},{"internalType":"uint256","name":"ausdAllocated","type":"uint256"},{"internalType":"uint8","name":"riskLevel","type":"uint8"},{"internalType":"uint8","name":"maxPerTradePct","type":"uint8"},{"internalType":"enum VaultManager.VaultStatus","name":"status","type":"uint8"}],"stateMutability":"view","type":"function"},{"inputs":[{"internalType":"address","name":"leader","type":"address"}],"name":"withdraw","outputs":[],"stateMutability":"nonpayable","type":"function"},{"stateMutability":"payable","type":"receive"}],"evm":{"bytecode":{"linkReferences":{},"object":"60a060405234620003b3576200574f803803806200001d81620003b8565b928339810190606081830312620003b3578051916001600160a01b03831690818403620003b35760208381015190946001600160401b03949091858111620003b357836200006d918301620003f4565b926040820151868111620003b357620000879201620003f4565b92156200036e57608052600080546001600160a01b031916331781558151929084841162000278576001938454938585811c9516801562000363575b888610146200034f578190601f95868111620002fc575b508890868311600114620002985784926200028c575b5050600019600383901b1c191690851b1784555b815194851162000278576002548481811c911680156200026d575b87821014620002595783811162000210575b5085928511600114620001a75793945084929190836200019b575b50501b916000199060031b1c1916176002555b6040516152e8908162000467823960805181818161067f01528181610fea0152818161191501528181611e360152818161265a01526127b00152f35b0151925038806200014c565b6002815285812093958591601f198316915b88838310620001f55750505010620001db575b505050811b016002556200015f565b015160001960f88460031b161c19169055388080620001cc565b858701518855909601959485019487935090810190620001b9565b600282528682208480880160051c8201928989106200024f575b0160051c019085905b8281106200024357505062000131565b83815501859062000233565b925081926200022a565b634e487b7160e01b82526022600452602482fd5b90607f16906200011f565b634e487b7160e01b81526041600452602490fd5b015190503880620000f0565b8785528985208894509190601f198416865b8c828210620002e55750508411620002cb575b505050811b01845562000104565b015160001960f88460031b161c19169055388080620002bd565b8385015186558b97909501949384019301620002aa565b9091508684528884208680850160051c8201928b861062000345575b918991869594930160051c01915b82811062000336575050620000da565b86815585945089910162000326565b9250819262000318565b634e487b7160e01b83526022600452602483fd5b94607f1694620000c3565b60405162461bcd60e51b815260048101869052601560248201527f564d3a207a65726f2061555344206164647265737300000000000000000000006044820152606490fd5b600080fd5b6040519190601f01601f191682016001600160401b03811183821017620003de57604052565b634e487b7160e01b600052604160045260246000fd5b919080601f84011215620003b35782516001600160401b038111620003de576020906200042a601f8201601f19168301620003b8565b92818452828287010111620003b35760005b8181106200045257508260009394955001015290565b85810183015184820184015282016200043c56fe608080604052600436101561001d575b50361561001b57600080fd5b005b600090813560e01c908163011f8b1b14612ab05750806312bbe10c14612a935780631aac91971461291c5780631f275413146128e55780631fb3e24e1461289d57806322edf01a146128025780632e90c1a9146127df5780632fd7d1fd1461279a5780633c4ce2211461275e57806347e7ef24146125d75780634e17707a146121525780634e6ec0e61461207d578063514ea4bf14611fb457806351cff8d914611d9657806353084eff14611d5d578063572fcdcd14611cdb5780635a2d6f5d14611cbd5780636abcf6af14611c83578063748747e614611c1957806385f9805d1461184c5780638c728541146118225780638da5cb5b146117fb57806392bc6914146116e3578063932a1276146115a45780639530b30f1461158757806396e85ced14611289578063989a83bf146111b7578063b8ff783d1461119b578063baf404d314610f17578063bbd7edc514610da0578063bd44815f14610d81578063c0bd6f9e14610c92578063c81e62e614610c4a578063cca23bf214610bc5578063d01ec4a614610b7b578063d16b692114610a44578063d480574214610921578063d9c91fea146108f7578063de700da6146108be578063e54a2ad5146105b9578063e55ee7eb1461058a578063e813471214610402578063f2fde38b1461037f5763fe202a180361000f573461037c57602090602060031936011261037c576001600160401b036004358181116103785761023e903690600401612b8a565b9161025360018060a01b0385541633146149f1565b821161036457610264600254612c14565b601f811161031c575b508293601f83116001146102b057508293829161029f94926102a5575b50508160011b916000199060031b1c19161790565b60025580f35b01359050388061028a565b601f19831694600080516020615253833981519152929185905b8782106103045750508360019596106102ea575b505050811b0160025580f35b0135600019600384901b60f8161c191690553880806102de565b806001849682949587013581550195019201906102ca565b610354906002600052600080516020615253833981519152601f850160051c8101916020861061035a575b601f0160051c0190612f76565b3861026d565b9091508190610347565b634e487b7160e01b83526041600452602483fd5b8280fd5b80fd5b503461037c57602036600319011261037c57610399612ad2565b8154906001600160a01b03906103b233838516146149f1565b169081156103ca576001600160a01b03191617815580f35b60405162461bcd60e51b815260206004820152601060248201526f564d3a207a65726f206164647265737360801b6044820152606490fd5b503461037c57604036600319011261037c5761042d61041f612ad2565b610427612aed565b90614a87565b8152602060066020526040822090829183918154925b838110610529575061045484614971565b936104626040519586612cb6565b808552610471601f1991614971565b013660208601378491855b84811061049557604051806104918882612d1f565b0390f35b61049f8183612be6565b9054600391821b1c88526004845260ff600860408a20015416600281101561051557156104d0575b5060010161047c565b6104da8284612be6565b9054911b1c6104e885614ad6565b9487518110156105015760051b870184015260016104c7565b634e487b7160e01b89526032600452602489fd5b634e487b7160e01b89526021600452602489fd5b6105338184612be6565b90549060031b1c86526004825260ff60086040882001541660028110156105765715610562575b600101610443565b9361056e600191614ad6565b94905061055a565b634e487b7160e01b87526021600452602487fd5b503461037c578060031936011261037c57602060405173037bb9c718f3f7fe5ecbdb0b600d607b527067768152f35b503461037c576020806003193601126108ba576004358083526004825260408320916008830160ff81541660028110156108a6576108695783546001600160a01b03929083163381148015610851575b6106139150614688565b600285015494858752600382526040872092846003830154168852600b835260408820549384156107f5576004830180549661065d610652888a612f8d565b600587015490612fa0565b6106678982614abd565b98808211156107925750825461067c91612f53565b907f000000000000000000000000000000000000000000000000000000000000000016803b1561078e576040516340c10f1960e01b815230600482015260248101839052908c908290604490829084905af1801561078357610752575b509161072760037fb8afeb408acd10e29c21161f211b1e177a3ce18923199654650821f940cff38a99979593604099979561071960028601918254612fc0565b90555b549201918254612f53565b9055836006830155846007830155600160ff19825416179055600a429101558351928352820152a380f35b6001600160401b03819c929c1161076f57604052996107276106d9565b634e487b7160e01b82526041600452602482fd5b6040513d8e823e3d90fd5b8b80fd5b604098969492507fb8afeb408acd10e29c21161f211b1e177a3ce18923199654650821f940cff38a99979593818360039361072795106107d4575b505061071c565b6107dd91612f53565b6107ec60028601918254612f53565b905538806107cd565b60405162461bcd60e51b815260048101859052602e60248201527f564d3a206e6f20707269636520617661696c61626c652c2063616c6c2075706460448201526d185d19541c9a58d948199a5c9cdd60921b6064820152608490fd5b50865260078152610613836040882054163314610609565b60405162461bcd60e51b81526004810183905260156024820152742b269d103837b9b4ba34b7b7103737ba1037b832b760591b6044820152606490fd5b634e487b7160e01b86526021600452602486fd5b5080fd5b503461037c57604036600319011261037c576108ef60406020926108e361041f612ad2565b81526003845220614b30565b604051908152f35b503461037c57602036600319011261037c5760406020916004358152600a83522054604051908152f35b503461037c57604036600319011261037c5761093b612ad2565b61094d610946612aed565b8392614a87565b8252602060066020526040832083918154915b82841061097257602085604051908152f35b909192936109808583612be6565b9054600391821b1c875260048452604087209060ff600883015416600281101561051557610a2d578101546001600160a01b03168752600b845260408720549081158015610a38575b610a2d57906109ef8260056109e660046109f49601549485612f8d565b91015490612fa0565b614abd565b90868282019283129112908015821691151617610a1957600190945b01929190610960565b634e487b7160e01b86526011600452602486fd5b505093600190610a10565b506005810154156109c9565b503461037c57610a5336612bb7565b90610a7373037bb9c718f3f7fe5ecbdb0b600d607b527067763314612f08565b828452600c602090815260408520546001600160a01b0316939092908415610b36578552600c83526040852080546001600160a01b031916905581018190038213610b3257358015610af957907f0d86730737b142fc160892fa8a0f2db687a92a0e294d1ad70624cf5acef03b8491838552600b8252806040862055604051908152a280f35b60405162461bcd60e51b8152600481018390526011602482015270564d3a20696e76616c696420707269636560781b6044820152606490fd5b8380fd5b60405162461bcd60e51b815260048101859052601960248201527f564d3a20756e6b6e6f776e2070726963652072657175657374000000000000006044820152606490fd5b503461037c57604036600319011261037c57610bb16005604061049193610ba361041f612ad2565b815260036020522001614a2d565b604051918291602083526020830190612db9565b503461037c57602036600319011261037c57604060e0916004358152600360205220610c4860018060a01b039160ff838254169360018301541691600281015460038201549083600660048501549401541694604051978852602088015260408701526060860152818116608086015260081c1660a084015260c0830190612df6565bf35b503461037c57604036600319011261037c5760243590600435815260066020526040812090815483101561037c576020610c848484612be6565b90546040519160031b1c8152f35b503461037c57602036600319011261037c57610cb5610caf612ad2565b33614a87565b80825260036020526040822054610cd6906001600160a01b03163314612e57565b808252600360205260ff6006604084200154166003811015610d6d57610d3757808252600360205260408220600601805460ff191660011790557f7ca948eddccf3a65f738292fe09d47dd38a0616763f1a1a78715430c7a18a18b8280a280f35b60405162461bcd60e51b815260206004820152600e60248201526d564d3a206e6f742061637469766560901b6044820152606490fd5b634e487b7160e01b83526021600452602483fd5b503461037c57604036600319011261037c5760206108ef61041f612ad2565b503461037c57604036600319011261037c57610e04610dbd612ad2565b610dc5612aed565b908360e0604051610dd581612c4e565b8281528260208201528260408201528260608201528260808201528260a0820152606060c08201520152614a87565b815260036020526040812060405190610e1c82612c4e565b60018060a01b039081815416835281600182015416916020840192835260028201549060408501918252600383015460608601908152600484015492608087019260ff8516845260ff60a089019560081c16855260ff6006610e8060058901614a2d565b9760c08b019889520154169660e08901976003811015610f035793610491969360ff95938a999793879560209c52816040519d8e9d8e52511660208d0152511660408b01525160608a0152516080890152511660a0870152511660c085015251610ef8610100918260e0870152610120860190612db9565b925190840190612df6565b634e487b7160e01b8b52602160045260248bfd5b503461037c57610f2636612d5b565b949190939260018060ff831610158061118d575b610f4390614855565b610f5c60ff841660018110159081611181575b50614896565b610f678715156148d5565b610f72851515614932565b610f7c8433614a87565b968789526020966003885260408a2094610fa03360018060a01b0388541614612e57565b60ff600687015416600381101561116d57600203611137576040516323b872dd60e01b815233600482015230602482015260448101899052908b8a83606481846001600160a01b037f0000000000000000000000000000000000000000000000000000000000000000165af1801561112a576110599361102692916110fd575b50614647565b8860028801558b60038801556004870160ff80199716878254161781559061ff0082549160081b169061ff001916179055565b60058501906001600160401b0383116110e9576110768383614988565b908a52878a208a5b8381106110d0575050506006909301805490921690915550506040519182526001600160a01b03169133917fde9d4af6dc6156415163633265210b1348683a9a7e9b955616130ce9d6c58cb29190a480f35b84908a6110dc85612ea8565b940193818401550161107e565b634e487b7160e01b8b52604160045260248bfd5b61111d91508c8d3d10611123575b6111158183612cb6565b81019061462f565b38611020565b503d61110b565b50604051903d90823e3d90fd5b60405162461bcd60e51b8152600481018a9052600e60248201526d15934e881b9bdd0818db1bdcd95960921b6044820152606490fd5b634e487b7160e01b8c52602160045260248cfd5b60649150111538610f56565b50600a60ff83161115610f3a565b503461037c578060031936011261037c576020604051600a8152f35b503461037c578060031936011261037c57604051908082600254916111db83612c14565b928383526020946001918660018216918260001461126757505060011461121f575b505061120b92500383612cb6565b610491604051928284938452830190612cfa565b90859250600282526000805160206152538339815191525b85831061124f57505061120b935082010138806111fd565b80548389018501528794508693909201918101611237565b925093505061120b94915060ff191682840152151560051b82010138806111fd565b506020806003193601126108ba5761129f612ad2565b6001600160a01b0381169190821561155157604051630ffeb17d60e11b815273037bb9c718f3f7fe5ecbdb0b600d607b5270677691908381600481865afa908115611546578691611515575b5067013fbe85edc900008101809111610a195734106114be5761130d90614b82565b9060405191859060025461132081612c14565b906001908181169081156114a0575060011461145a575b5050916113a9604085878561135888839a986113ef9c9a5194859201612cd7565b010361136c601f1991828101875286612cb6565b66242e707269636560c81b8661138d84519785838a01526060890190612cfa565b8781039384018589015260078152015285810185520183612cb6565b6040516345de5df160e11b815267b6d47da8dbbcb1b1600482015230602482015263d16b692160e01b604482015260806064820152948592839182916084830190612cfa565b039134905af1801561144f578490611421575b8452600c9052506040822080546001600160a01b031916909117905580f35b508082813d8311611448575b6114378183612cb6565b81010312610b3257600c9151611402565b503d61142d565b6040513d86823e3d90fd5b600289529192509087906000805160206152538339815191525b83831061148d5750505083018401906113a96040611337565b8054878401890152918701918101611474565b60ff1916888801525050801515028401850191506113a96040611337565b60405162461bcd60e51b815260048101849052602960248201527f564d3a20696e73756666696369656e74206465706f73697420666f722070726960448201526863652075706461746560b81b6064820152608490fd5b90508381813d831161153f575b61152c8183612cb6565b8101031261153b5751386112eb565b8580fd5b503d611522565b6040513d88823e3d90fd5b60405162461bcd60e51b815260048101839052600e60248201526d2b269d103d32b937903a37b5b2b760911b6044820152606490fd5b503461037c578060031936011261037c57602060405161012c8152f35b503461037c57602090602060031936011261037c576001600160401b03600435818111610378576115d9903690600401612b8a565b90916115ef60018060a01b0385541633146149f1565b8111610364576001916116028354612c14565b601f81116116ab575b508394601f831160011461164257508394829161163d9495926102a55750508160011b916000199060031b1c19161790565b905580f35b601f19831695600080516020615293833981519152929186905b888210611694575050838596971061167a575b505050811b01905580f35b0135600019600384901b60f8161c1916905538808061166f565b80878496829495870135815501950192019061165c565b6116dd90600080516020615293833981519152601f850160051c8101916020861061035a57601f0160051c0190612f76565b3861160b565b503461037c576117036116f536612b47565b929091610caf841515612e19565b80845260036020526040842054909290611727906001600160a01b03163314612e57565b828452600360205260408420600501845b8281106117d65750541561177d577f89216286babe3a315db35c8a44501c50b04e4af6db52228800178fa93abbcfa69161177760405192839283612ebc565b0390a280f35b60405162461bcd60e51b815260206004820152602b60248201527f564d3a2063616e6e6f742072656d6f766520616c6c20746f6b656e732066726f60448201526a1b48185b1b1bdddb1a5cdd60aa1b6064820152608490fd5b806117f56117ef6117ea6001948789612e98565b612ea8565b846150e6565b01611738565b503461037c578060031936011261037c57546040516001600160a01b039091168152602090f35b503461037c57602036600319011261037c5760406020916004358152600883522054604051908152f35b503461037c5761185b36612d5b565b94929091906001600160a01b038416151580611c06575b15611bcc5760ff80911691600183101580611bc1575b61189190614855565b1694600186101580611bb6575b6118a790614896565b6118b28115156148d5565b6118bd851515614932565b6118c78433614a87565b808852600360205260408820549096906001600160a01b0316611b71576040516323b872dd60e01b8152336004820152306024820152604481018790526020816064818c6001600160a01b037f0000000000000000000000000000000000000000000000000000000000000000165af18015611b665761194d918a91611b4d5750614647565b6040519261195a84612c4e565b3384526001600160a01b03861660208501526040840187905260608401899052608084015260a083015261198d81614971565b9261199b6040519485612cb6565b8184526020840190368360051b820111611b495780915b8360051b82018310611b31575050505060c0810191825260e08101918683528587526003602052604087209060018060a01b038351166001600160601b0360a01b9081845416178355600183019060018060a01b03602086015116908254161790556040830151600283015560608301516003830155611a5d6004830160ff60a081608088015116968219978885541617845501511661ff0082549160081b169061ff001916179055565b5180519060058301906001600160401b038311611b1d57602090611a818484614988565b0190895260208920895b838110611b00575050505060060191519060038210156105765760ff9083541691161790553384526005602052611ac583604086206149bc565b6040519182526001600160a01b03169033907f6195d111f124dc39cb1ab083f9f1b6664e415bf60b71499b3a4b24cf07c337a890602090a480f35b82516001600160a01b031681830155602090920191600101611a8b565b634e487b7160e01b8a52604160045260248afd5b60208091611b3e85612b03565b8152019201916119b2565b8880fd5b61111d915060203d602011611123576111158183612cb6565b6040513d8b823e3d90fd5b60405162461bcd60e51b815260206004820152601860248201527f564d3a207661756c7420616c72656164792065786973747300000000000000006044820152606490fd5b50606486111561189e565b50600a831115611888565b60405162461bcd60e51b81526020600482015260126024820152712b269d1034b73b30b634b2103632b0b232b960711b6044820152606490fd5b506001600160a01b038416331415611872565b503461037c57602036600319011261037c57611c33612ad2565b3380835260076020526040832080546001600160a01b0319166001600160a01b0390931692831790557f50697e88bd427923002f5d3844f352091c05c0c9c3b69e43830863d2224631738380a380f35b503461037c57611cba611c9536612bb7565b91611cb573037bb9c718f3f7fe5ecbdb0b600d607b527067763314612f08565b614713565b80f35b503461037c578060031936011261037c576020604051620f42408152f35b503461037c576020806003193601126108ba576001600160a01b03611cfe612ad2565b1682526005602052604082209160405180926020855492838152019483526020832092905b828210611d465761049185611d3a81890382612cb6565b60405191829182612d1f565b835486529485019460019384019390910190611d23565b503461037c57602036600319011261037c576020906040906001600160a01b03611d85612ad2565b168152600b83522054604051908152f35b503461037c576020806003193601126108ba57611db4610caf612ad2565b90818352600381526040832060018060a01b03611dd5338284541614612e57565b6006820180549260ff84166003811015611fa057600214611f66576003810154611f2157600290810180549088905560ff199490941617905560405163a9059cbb60e01b8152336004820152602481018390529083908290604490829089907f0000000000000000000000000000000000000000000000000000000000000000165af1908115611f16578591611ef9575b5015611ebe5782917f1de10dc7adf633383767e576a9953d1b3c4f31a05c1635d7656d25604aca6b1f91604051908152a27fd06ef1be920eaf099a4e446ec48846abae39f5eb6b0877fea0913a68731af5518280a280f35b60405162461bcd60e51b815260048101839052601360248201527215934e881dda5d1a191c985dc819985a5b1959606a1b6044820152606490fd5b611f109150833d8511611123576111158183612cb6565b38611e66565b6040513d87823e3d90fd5b60405162461bcd60e51b815260048101869052601e60248201527f564d3a20636c6f7365206f70656e20706f736974696f6e7320666972737400006044820152606490fd5b60405162461bcd60e51b815260048101869052601260248201527115934e88185b1c9958591e4818db1bdcd95960721b6044820152606490fd5b634e487b7160e01b88526021600452602488fd5b503461037c57602036600319011261037c57600435815260046020526040812060018060a01b03808254169181600182015416916002820154906003830154166004830154600584015460068501549160078601549360ff60088801541695600a6009890154980154986040519a8b5260208b015260408a01526060890152608088015260a087015260c086015260e08501526002811015612069576101609450610100840152610120830152610140820152f35b634e487b7160e01b85526021600452602485fd5b503461037c57602036600319011261037c5761209a610caf612ad2565b808252600360205260408220546120bb906001600160a01b03163314612e57565b808252600360205260ff6006604084200154166003811015610d6d5760010361211c57808252600360205260408220600601805460ff191690557fa7b437a7c0be1eaaad481743f822acf86d00e9707a0c18a609f0e3ad97370ba88280a280f35b60405162461bcd60e51b815260206004820152600e60248201526d15934e881b9bdd081c185d5cd95960921b6044820152606490fd5b50604036600319011261037c57612167612ad2565b61219b612172612aed565b918290612196336001600160a01b038084169182149182156125be575b5050614688565b614a87565b908183526020600381526040842060ff60068201541660038110156108a65761258257838552600a82526040852054801590811561256c575b5015612527576121e7620f424091614b30565b11156124e357828452600a8152604080852042905551630ffeb17d60e11b81529173037bb9c718f3f7fe5ecbdb0b600d607b52706776908284600481855afa9384156115465786946124b4575b5067013fbe85edc900008401938481116124a0576702ea11e32ad5000081018091116124a0576122649085612fc0565b3410612441576122748391614b82565b916040518793600180549061228882612c14565b916001811690811561242557506001146123df575b5050600c8285876122bb85612368999a6122dd975194859201612cd7565b016b02f6c61746573742d737761760a41b815203601319810184520182612cb6565b61232160406122f781519382888601526060850190612cfa565b650242e737761760d41b8785830392601f1984018588015260068152015286810184520182612cb6565b6040516345de5df160e11b815267b6d47da8dbbcb1b16004820152306024820152631f27541360e01b60448201526080606482015295869384928391906084830190612cfa565b03925af191821561144f5784926123af575b50600890828552528160408420557f7d0d4a45b610c689953ac3d1df4e7739f7ba0e76107b191b9170d4eb27b90b4e8380a380f35b9080925081813d83116123d8575b6123c78183612cb6565b81010312610b32575190600861237a565b503d6123bd565b60018b5290955089906000805160206152938339815191525b87831061241057505050938101830193600c8261229d565b805485840188015288969092019181016123f8565b60ff191685880152505080151502820184019450600c8261229d565b60405162461bcd60e51b815260048101849052603160248201527f564d3a20696e73756666696369656e74206465706f73697420286e656564203e6044820152703d206a736f6e4665652b6c6c6d4665652960781b6064820152608490fd5b634e487b7160e01b87526011600452602487fd5b9093508281813d83116124dc575b6124cc8183612cb6565b8101031261153b57519238612234565b503d6124c2565b6064906040519062461bcd60e51b82526004820152601d60248201527f564d3a20696e73756666696369656e7420667265652062616c616e63650000006044820152fd5b60405162461bcd60e51b815260048101839052601c60248201527f564d3a20706970656c696e6520616c72656164792072756e6e696e67000000006044820152606490fd5b90506102588101809111610a19574211386121d4565b60405162461bcd60e51b8152600481018390526014602482015273564d3a207661756c74206e6f742061637469766560601b6044820152606490fd5b909150875260076020526040872054163314388061218f565b503461037c57604036600319011261037c576125f1612ad2565b6125fe6024359133614a87565b9081835260206003815260ff6006604086200154166003811015612069576002146127275781156126f1576040516323b872dd60e01b815233600482015230602482015260448101839052918183606481886001600160a01b037f0000000000000000000000000000000000000000000000000000000000000000165af1928315611f16577ff4d5f4313db9d90750b55863740862117f1a26005f470df515d532580be167b2936126b59187916126da5750614647565b83855260038252600260408620016126ce828254612fc0565b9055604051908152a280f35b61111d9150843d8611611123576111158183612cb6565b6064906040519062461bcd60e51b82526004820152600f60248201526e15934e881e995c9bc8185b5bdd5b9d608a1b6044820152fd5b6064906040519062461bcd60e51b82526004820152601060248201526f15934e881d985d5b1d0818db1bdcd95960821b6044820152fd5b503461037c57602036600319011261037c576020906001600160a01b039060409082612788612ad2565b16815260078452205416604051908152f35b503461037c578060031936011261037c576040517f00000000000000000000000000000000000000000000000000000000000000006001600160a01b03168152602090f35b503461037c578060031936011261037c57602060405167b24ac1afbcefc7088152f35b503461037c578060031936011261037c576040519080826001926001549361282985612c14565b938484526020958660018216918260001461126757505060011461285557505061120b92500383612cb6565b90859250600182526000805160206152938339815191525b85831061288557505061120b935082010138806111fd565b8054838901850152879450869390920191810161286d565b503461037c57604036600319011261037c576128b7612ad2565b6001600160a01b031681526005602052604081208054602435929083101561037c576020610c848484612be6565b503461037c57611cba6128f736612bb7565b9161291773037bb9c718f3f7fe5ecbdb0b600d607b527067763314612f08565b612fcd565b503461037c5761293e9061292f36612b47565b91610caf839592951515612e19565b90818352602093600360205260018060a01b03612962338260408820541614612e57565b83855260036020526040852060050195855b8481106129b057505050907f6daa1ff9696b2f02619a3f88b4b180ef2a65d070354484a2689f745bd640b7649161177760405192839283612ebc565b826129bf6117ea838888612e98565b1615612a55576129dc6129d66117ea838888612e98565b89614ae5565b156129ea575b600101612974565b6129f86117ea828787612e98565b8854600160401b811015612a415760019291612a1c8285612a3a94018d558c612be6565b90919060018060a01b038084549260031b9316831b921b1916179055565b90506129e2565b634e487b7160e01b89526041600452602489fd5b60405162461bcd60e51b8152600481018390526016602482015275564d3a207a65726f20746f6b656e206164647265737360501b6044820152606490fd5b503461037c578060031936011261037c5760206040516102588152f35b9050346108ba57816003193601126108ba578067b6d47da8dbbcb1b160209252f35b600435906001600160a01b0382168203612ae857565b600080fd5b602435906001600160a01b0382168203612ae857565b35906001600160a01b0382168203612ae857565b9181601f84011215612ae8578235916001600160401b038311612ae8576020808501948460051b010111612ae857565b906040600319830112612ae8576004356001600160a01b0381168103612ae85791602435906001600160401b038211612ae857612b8691600401612b17565b9091565b9181601f84011215612ae8578235916001600160401b038311612ae85760208381860195010111612ae857565b906040600319830112612ae85760043591602435906001600160401b038211612ae857612b8691600401612b8a565b8054821015612bfe5760005260206000200190600090565b634e487b7160e01b600052603260045260246000fd5b90600182811c92168015612c44575b6020831014612c2e57565b634e487b7160e01b600052602260045260246000fd5b91607f1691612c23565b61010081019081106001600160401b03821117612c6a57604052565b634e487b7160e01b600052604160045260246000fd5b606081019081106001600160401b03821117612c6a57604052565b604081019081106001600160401b03821117612c6a57604052565b90601f801991011681019081106001600160401b03821117612c6a57604052565b60005b838110612cea5750506000910152565b8181015183820152602001612cda565b90602091612d1381518092818552858086019101612cd7565b601f01601f1916010190565b602090602060408183019282815285518094520193019160005b828110612d47575050505090565b835185529381019392810192600101612d39565b60a0600319820112612ae8576004356001600160a01b0381168103612ae857916024359160443560ff81168103612ae8579160643560ff81168103612ae85791608435906001600160401b038211612ae857612b8691600401612b17565b90815180825260208080930193019160005b828110612dd9575050505090565b83516001600160a01b031685529381019392810192600101612dcb565b906003821015612e035752565b634e487b7160e01b600052602160045260246000fd5b15612e2057565b60405162461bcd60e51b815260206004820152600f60248201526e564d3a20656d70747920617272617960881b6044820152606490fd5b15612e5e57565b60405162461bcd60e51b815260206004820152601260248201527115934e881b9bdd081e5bdd5c881d985d5b1d60721b6044820152606490fd5b9190811015612bfe5760051b0190565b356001600160a01b0381168103612ae85790565b909160406020928260208201602083525201929160005b828110612ee1575050505090565b909192938280600192838060a01b03612ef989612b03565b16815201950193929101612ed3565b15612f0f57565b606460405162461bcd60e51b815260206004820152602060248201527f564d3a2063616c6c6572206973206e6f74206167656e7420706c6174666f726d6044820152fd5b91908203918211612f6057565b634e487b7160e01b600052601160045260246000fd5b818110612f81575050565b60008155600101612f76565b81810292918115918404141715612f6057565b8115612faa570490565b634e487b7160e01b600052601260045260246000fd5b91908201809211612f6057565b918260005260086020526040600020549283156145ea578060005260086020526000604081205583600052600360205260406000209060a0848481010312612ae8578461301985612b03565b917f71ed9d4e5866fca58bdb5ed3d76986653d0b7f7776d965590aaea10fac75ce52608061304960208901612b03565b604080516001600160a01b0397881681529682166020880152898101359087015281890135606087015294a361012c613086608086013542612f53565b116145a0576130a16001600160a01b03821660058401614ae5565b1561454b576130af82614b30565b92620f42408411156144ee578560005260096020526040600020906001600160401b038111612c6a576130e28254612c14565b601f81116144bc575b506000601f821160011461445557908061311b9260009161444a575b508160011b916000199060031b1c19161790565b90555b600282015493600483015491606461313c60ff8560081c1688612f8d565b0493858511614442575b600101546001600160a01b038281166000908152600b60205260409020549116939092613177608082013542612f53565b97801561443a5787606481020460641488151715612f605761319c8160648a02612fa0565b935b811561443257604083013560648082028290041490151715612f60576131cb826064604086013502612fa0565b955b891561442b57604084013560648082028290041490151715612f60576131fa8a6064604087013502612fa0565b613208620f42408b04615197565b97613217621e84808c04615197565b604080517f596f75206172652061207269736b206d616e6167656d656e7420656e67696e656020808301919091527f20666f722041696f6e69732c206120636f70792d74726164696e6720706c6174928201929092526f3337b9369037b71029b7b6b734b0970560811b60608201527f4576616c75617465207468652074726164652062656c6f7720616e642064656360708201527f69646520776861742070657263656e74616765206f662074686520666f6c6c6f60908201527f776572207661756c7420746f20616c6c6f636174652e0a0a000000000000000060b08201527f4f55545055543a20526573706f6e642077697468204f4e4c5920612073696e6760c88201527f6c6520696e746567657220302d3130302e204e6f206578706c616e6174696f6e60e88201527f2e204e6f20746578742e204a75737420746865206e756d6265722e0a0a0000006101088201526e29a1a7a924a7239029a1a0a6229d0560891b6101258201527f20203020202020202020203d20736b6970207468697320747261646520656e746101348201526534b932b63c8560d11b6101548201527f2020312d333320202020203d206c6f7720636f6e666964656e6365202028736d61015a8201526f30b6361030b63637b1b0ba34b7b7148560811b61017a8201527f202033342d3636202020203d206d656469756d20636f6e666964656e6365202061018a820152751436b7b232b930ba329030b63637b1b0ba34b7b7148560511b6101aa8201527f202036372d3939202020203d206869676820636f6e666964656e6365202028736101c08201527f69676e69666963616e7420616c6c6f636174696f6e290a0000000000000000006101e08201527f20203130302020202020203d206d6178696d756d20636f6e666964656e6365206101f78201527f202866756c6c206d61782d7065722d747261646520616c6c6f636174696f6e2961021782015261050560f11b6102378201527320a62627a1a0aa24a7a7102327a926aaa6209d0560611b6102398201527f2020616c6c6f636174696f6e203d202873636f7265202f20313030292078206d61024d8201526c30bc2fb832b92fba3930b2328560991b61026d820152720808105d081cd8dbdc994f4c4c0c080b4f8809606a1b61027a8201528b51909c909b90928d92909161028d91613584918f918487019101612cd7565b6a1030b63637b1b0ba32b20560a91b908d840101528b820161029801720808105d081cd8dbdc994f4d4c08080b4f8809606a1b90526102ab9b818d925180938386010191602001916135d592612cd7565b8201016b1030b63637b1b0ba32b2050560a11b8c8201520361029781018c526102b701613602908c612cb6565b61360b90614b82565b9361361e906001600160a01b0316614b82565b9560400135620f4240900461363290615197565b9c61363c90615197565b926402540be400900461364e90615197565b9061365890615197565b9161366290615197565b926040519d8e956d169696902a2920a222901696968560911b6020880152602e87017f4c65616465722077616c6c65743a2020202020202020202020202000000000009052805190816049890191602001916136bd92612cd7565b860197600560f91b98896049820152604a81017f546f6b656e20626f756768743a2020202020202020202020202020000000000090528151918260658301916020019161370992612cd7565b01886065820152606681017f5472616465205553442076616c75653a2020202020202020202020240000000090528151918260828301916020019161374d92612cd7565b01876082820152608381017f5472616465206167653a20202020202020202020202020202020200000000000905281519182609e8301916020019161379192612cd7565b0165399030b3b78560d11b609e82015260a481017f43757272656e7420746f6b656e2070726963653a20202020202020240000000090528151918260c0830191602001916137de92612cd7565b016e10143c18b29898103ab734ba39948560891b60c082015260cf81017f54726164652073697a6520767320666f6c6c6f776572207661756c743a20000090528151918260ed8301916020019161383492612cd7565b01906a129037b3103b30bab63a0560a91b60ed83015260f882017f54726164652073697a6520767320667265652062616c616e63653a202020000090526101169181519182848301916020019161388a92612cd7565b019072129037b310333932b29031b0b834ba30b6050560691b908201520361010981018a52610129016138bd908a612cb6565b620f424090046138cc90615197565b96620f424090046138dc90615197565b926138e690615197565b95620f424090046138f690615197565b9160ff1661390390615197565b9160405196879460208601997f2d2d2d20464f4c4c4f574552205641554c54202d2d2d0a0000000000000000008b52603787017215985d5b1d081d1bdd185b0e88080808080809606a1b905280519081604a8901916020019161396592612cd7565b860184604a820152604b810172119c99594818985b185b98d94e880808080809606a1b905281519182605e830191602001916139a092612cd7565b01605e810161040560f31b9052815191826060830191602001916139c392612cd7565b016b129037b3103b30bab63a148560a11b6060820152606c81017213585e081c195c881d1c9859194e8808080809606a1b905281519182607f83019160200191613a0c92612cd7565b0190607f820152608081017102934b9b5903a37b632b930b731b29d1010160751b905281519182609283019160200191613a4592612cd7565b0164179898050560d91b609282015203607781018452609701613a689084612cb6565b604080517f2d2d2d2052554c455320286170706c79207374726963746c7920696e206f7264602082019081526732b914901696968560c11b928201929092527f312e20496620667265652062616c616e6365203c202431202d3e207265747572604882015264371018170560d91b60688201527f322e20496620747261646520616765203e2031323073202d3e2072657475726e606d820152721018101439ba30b6329039b4b3b730b614970560691b608d8201527f332e204966207472616465205553442076616c7565203c202435202d3e20726560a08201527f7475726e203020286e6f6973652074726164652c2069676e6f7265292e0a000060c08201527f342e20496620667265652062616c616e6365203c20243130202d3e207265747560de8201527f726e203020287661756c74206e6561726c7920656d707479292e0a0a0000000060fe820152732924a9a59029a1a7a9229021a2a4a624a7239d0560611b61011a8201527f20205269736b20312d3220202d3e206d61782073636f72652032300a0000000061012e8201527f20205269736b20332d3420202d3e206d61782073636f72652034300a0000000061014a8201527f20205269736b20352d3620202d3e206d61782073636f72652036350a000000006101668201527f20205269736b20372d3820202d3e206d61782073636f72652038350a000000006101828201527f20205269736b20392d3130202d3e206d61782073636f7265203130300a0a000061019e8201527f465245452042414c414e43452050454e414c544945533a0a00000000000000006101bc8201527f2020467265652062616c616e6365203c20313025206f66207661756c742020206101d48201527f2020202020202d3e207265647563652073636f7265206279203330250a0000006101f48201527f202054726164652073697a65203e20353025206f6620667265652062616c616e6102118201527f6365202020202d3e207265647563652073636f72652062792032302520286c616102318201527f7267652072656c6174697665206578706f73757265290a0000000000000000006102518201527f202054726164652073697a65203e2031303025206f6620667265652062616c616102688201527f6e63652020202d3e2072657475726e2030202863616e6e6f74206166666f72646102888201526214850560e91b6102a88201527f5349474e414c20535452454e47544820287573652074726164652073697a6520928101929092527f767320666f6c6c6f776572207661756c742c204e4f542072617720646f6c6c616102cb830152643939949d0560d91b6102eb8301527f20205472616465203c203525206f6620666f6c6c6f776572207661756c7420206102f08301527f2020202020202d3e207765616b207369676e616c2c206c65616e20636f6e736561031083015267393b30ba34bb328560c11b6103308301527f2020547261646520352d323025206f6620666f6c6c6f776572207661756c74206103388301527f2020202020202d3e206d6f646572617465207369676e616c0a000000000000006103588301527f20205472616465203e20323025206f6620666f6c6c6f776572207661756c74206103718301527f2020202020202d3e207374726f6e67207369676e616c2c206c6561646572206961039183015273399036b0b5b4b7339030903134b39036b7bb328560611b6103b18301527f20205472616465203e20353025206f6620666f6c6c6f776572207661756c74206103c58301527f2020202020202d3e2076657279207374726f6e67207369676e616c0a0a0000006103e583015270232922a9a42722a9a9902127a72aa99d0560791b6104028301527f2020547261646520616765203c203130732020202020202020202020202020206104138301527f2020202020202d3e2061646420757020746f20313020746f2066696e616c20736104338301526431b7b9328560d91b6104538301527f20205472616465206167652031302d33307320202020202020202020202020206104588301527f2020202020202d3e206e6f2061646a7573746d656e740a0000000000000000006104788301527f20205472616465206167652033302d313230732020202020202020202020202061048f8301527f2020202020202d3e207265647563652073636f72652062792031300a0a0000006104af8301527f494d504f5254414e543a20446f204e4f542074726561742024313030302061736104cc8301527f20696e686572656e746c79207369676e69666963616e742e0a000000000000006104ec8301527f202041202431303030207472616465206973207374726f6e67206966207468656105058301527f20666f6c6c6f776572207661756c742069732024323030302028353025292e0a6105258301527f202041202431303030207472616465206973207765616b2069662074686520666105458301527f6f6c6c6f776572207661756c74206973202431303030303020283125292e0a006105658301527f2020416c7761797320726561736f6e20696e2070657263656e74616765732c206105848301527f6e6f74206162736f6c75746520646f6c6c617220616d6f756e74732e0a0a00006105a48301527f526573706f6e64207769746820612073696e676c6520696e746567657220302d6105c2830152631898181760e11b6105e28301526105c68252610600820195919290916001600160401b03871184881017612c6a576142a89560209561428d61429c938a6040526106209561426b815180928c8a8d019101612cd7565b880161427f825180938c8a85019101612cd7565b019151809386840190612cd7565b01918451938491840190612cd7565b01038084520182612cb6565b604051630ffeb17d60e11b81529073037bb9c718f3f7fe5ecbdb0b600d607b5270677690602083600481855afa9283156143eb576000936143f7575b506702ea11e32ad500008301809311612f605760209161431961432761436e9360405192839187808401526040830190612cfa565b03601f198101835282612cb6565b6040516345de5df160e11b815267b24ac1afbcefc7086004820152306024820152636abcf6af60e01b60448201526080606482015294859384928391906084830190612cfa565b03925af19081156143eb576000916143b9575b50806000526008602052816040600020557fbd39bca4ed5e29cb7d341fec377583e2cb5a5e06015ff024e1a933e2fe29c47e600080a3565b90506020813d6020116143e3575b816143d460209383612cb6565b81010312612ae8575138614381565b3d91506143c7565b6040513d6000823e3d90fd5b9092506020813d602011614423575b8161441360209383612cb6565b81010312612ae8575191386142e4565b3d9150614406565b60006131fa565b6000956131cd565b60009361319e565b859450613146565b905087013538613107565b908260005260206000206000925b601f19831684106144a4576001935082601f1981161061448a575b5050811b01905561311e565b880135600019600384901b60f8161c19169055388061447e565b88810135825560209384019360019092019101614463565b6144e890836000526020600020601f840160051c8101916020851061035a57601f0160051c0190612f76565b386130eb565b505050505080600080516020615273833981519152606060405160208152601960208201527f696e73756666696369656e7420667265652062616c616e6365000000000000006040820152a2600052600a60205260006040812055565b505050508060008051602061527383398151915260606040516020815260166020820152751d1bdad95b881b9bdd081a5b88185b1b1bdddb1a5cdd60521b6040820152a2600052600a60205260006040812055565b5050505080600080516020615273833981519152606060405160208152600b60208201526a7374616c6520747261646560a81b6040820152a2600052600a60205260006040812055565b60405162461bcd60e51b815260206004820152601b60248201527f564d3a20756e6b6e6f776e2077617463686572207265717565737400000000006044820152606490fd5b90816020910312612ae857518015158103612ae85790565b1561464e57565b60405162461bcd60e51b815260206004820152601260248201527115934e8819195c1bdcda5d0819985a5b195960721b6044820152606490fd5b1561468f57565b60405162461bcd60e51b815260206004820152601260248201527115934e881b9bdd08185d5d1a1bdc9a5e995960721b6044820152606490fd5b6146d38154612c14565b90816146dd575050565b81601f600093116001146146f05750555b565b90808391825261470f601f60208420940160051c840160018501612f76565b5555565b6000928184526020916008835260409384862054928315614811578185918489526008835288888120558101031261153b57600a9392919035606481111561480857506064905b8260ff8316917fac7c244f5a94874741bde286781fc342da57eb796ea3b4f271ba72c0b515b10588888510948151908152851589820152a36147ba576147a09082614cc2565b808552600982526147b28486206146c9565b845252812055565b508060008051602061527383398151915260608651858152601586820152741cd8dbdc994818995b1bddc81d1a1c995cda1bdb19605a1b88820152a2808552600982526147b28486206146c9565b60ff169061475a565b855162461bcd60e51b815260048101869052601e60248201527f564d3a20756e6b6e6f776e2073747261746567697374207265717565737400006044820152606490fd5b1561485c57565b60405162461bcd60e51b81526020600482015260126024820152710564d3a207269736b4c6576656c20312d31360741b6044820152606490fd5b1561489d57565b60405162461bcd60e51b815260206004820152601060248201526f0564d3a206d617850637420312d3130360841b6044820152606490fd5b156148dc57565b60405162461bcd60e51b815260206004820152602860248201527f564d3a20616c6c6f776c69737420656d7074792c206e6f207472616465732077604482015267696c6c20636f707960c01b6064820152608490fd5b1561493957565b60405162461bcd60e51b815260206004820152601060248201526f15934e881e995c9bc819195c1bdcda5d60821b6044820152606490fd5b6001600160401b038111612c6a5760051b60200190565b90600160401b8111612c6a578154908083558181106149a657505050565b6146ee9260005260206000209182019101612f76565b8054600160401b811015612c6a576149d991600182018155612be6565b819291549060031b91821b91600019901b1916179055565b156149f857565b60405162461bcd60e51b815260206004820152600d60248201526c2b269d103737ba1037bbb732b960991b6044820152606490fd5b90604051918281549182825260209260208301916000526020600020936000905b828210614a64575050506146ee92500383612cb6565b85546001600160a01b031684526001958601958895509381019390910190614a4e565b6040519060208201926001600160601b0319809260601b16845260601b16603482015260288152614ab781612c80565b51902090565b81810392916000138015828513169184121617612f6057565b6000198114612f605760010190565b9060005b8254811015614b2857614afc8184612be6565b905460039190911b1c6001600160a01b0390811690831614614b2057600101614ae9565b505050600190565b505050600090565b600260038201549101549081811015614b4f57614b4c91612f53565b90565b5050600090565b6001600160401b038111612c6a57601f01601f191660200190565b908151811015612bfe570160200190565b604051906001600160601b03199060601b1660208201526014808252614ba782612c9b565b60405190614bb482612c9b565b601082526f181899199a1a9b1b9c1cb0b131b232b360811b602083015260405192614bde84612c80565b602a8452602084016040368237845115612bfe576030905383519260019360011015612bfe576078602186015360005b838110614c1d57505050505090565b6001600160f81b03199081614c3f614c358387614b71565b5160fc1c85614b71565b51169181871b92600290838504821484151715612f6057848201809211612f6057614c6e9060001a918a614b71565b53614c89600f614c7e8488614b71565b5160f81c1685614b71565b5116916003908101809111612f6057614ca7879360001a9189614b71565b5301614c0e565b51906001600160a01b0382168203612ae857565b8060005260036020526040600020600960205260406000209260405193600085825491614cee83612c14565b9283835260208301946001916001811690816000146150c45750600114615082575b5050614d1e92500386612cb6565b60a085805181010312612ae857614d3490614cae565b506080614d4360408601614cae565b94015193614d5083614b30565b946064614d6c600286015460ff600488015460081c1690612f8d565b0486811161507b575b614d8560649160ff861690612f8d565b0495620f4240871061502c57808711615024575b506001600160a01b0382166000908152600b602052604090205490811561501c5750925b614dc8600d54614ad6565b9283600d556040519360208501908782524260408701526001600160601b03198560601b1660608701526074860152607485526001600160401b03908560a08101108260a088011117612c6a5760a08601604081905286519091208454600186015491936001600160a01b039283169391909216916102008901908111911117612c6a57610200870160405260a087015260c08601528660e086015260018060a01b03841661010086015287610120860152856101408601526000610160860152600061018086015260006101a0860152426101c086015260006101e086015280600052600460205260406000209060018060a01b0360a0870151166001600160601b0360a01b90818454161783556001830160018060a01b0360c0890151168282541617905560e08701516002840155600383019060018060a01b0361010089015116908254161790556101208601516004830155610140860151600583015561016086015160068301556101808601516007830155600882016101a08701516002811015612e03577f0fac05f01c50ae793f1a1fb2912053546d62525ac2dfad4adbc641f37c09bf8a98600360ff978c96600a6101e060409d7fb1eefddb5e15079c801481dd2d9558f62b8d6e4ba1d15d3e8da341e1d07ccd18986060988e801983541691161790556101c081015160098501550151910155866000526006602052614fd9868c6000206149bc565b01614fe58d8254612fc0565b905588516001600160a01b0389168152602081018d9052808a0191909152a383519687521660208601526001600160a01b031693a3565b905092614dbd565b955038614d99565b50505050509050600080516020615273833981519152606060405160208152601e60208201527f616c6c6f636174656420616d6f756e742062656c6f77206d696e696d756d00006040820152a2565b5085614d75565b6000908152602081209092505b8483106150a95750614d1e93505081016020013880614d10565b81935090816020925483858d0101520191019091889261508f565b60ff1916875250614d1e94151560051b84016020019250389150819050614d10565b6000915b81549283811015615191576150ff8184612be6565b90546003956001600160a01b0392909190871b1c82168483161461512957505060010192506150ea565b90925060001991828201918211612f6057612a1c8461514b6151599488612be6565b905490891b1c169186612be6565b8254801561517b57019261516d8484612be6565b81939154921b1b1916905555565b634e487b7160e01b600052603160045260246000fd5b50505050565b80156152345780816000925b6152205750806151b283614b56565b926151c06040519485612cb6565b808452601f196151cf82614b56565b01366020860137905b6151e157505090565b8015612f60576000190190600a9060308282068101809111612f605760f81b6001600160f81b03191660001a6152178486614b71565b530490816151d8565b9161522c600a91614ad6565b9204806151a3565b5060405161524181612c9b565b60018152600360fc1b60208201529056fe405787fa12a823e0f2b7631cc41b3ba8828b3321ca811111fa75cd3aa3bb5ace161609ed0659583c4124f93794aade207fa9fe3124c4ee08cb05a724f0e760cab10e2d527612073b26eecdfd717e6a320cf44b4afac2b0732d9fcbe2b7fa0cf6a264697066735822122077f326504f51d550119d058b42c68c06d2a141784627b2c47168059906104be164736f6c63430008180033","opcodes":"PUSH1 0xA0 PUSH1 0x40 MSTORE CALLVALUE PUSH3 0x3B3 JUMPI PUSH3 0x574F DUP1 CODESIZE SUB DUP1 PUSH3 0x1D DUP2 PUSH3 0x3B8 JUMP JUMPDEST SWAP3 DUP4 CODECOPY DUP2 ADD SWAP1 PUSH1 0x60 DUP2 DUP4 SUB SLT PUSH3 0x3B3 JUMPI DUP1 MLOAD SWAP2 PUSH1 0x1 PUSH1 0x1 PUSH1 0xA0 SHL SUB DUP4 AND SWAP1 DUP2 DUP5 SUB PUSH3 0x3B3 JUMPI PUSH1 0x20 DUP4 DUP2 ADD MLOAD SWAP1 SWAP5 PUSH1 0x1 PUSH1 0x1 PUSH1 0x40 SHL SUB SWAP5 SWAP1 SWAP2 DUP6 DUP2 GT PUSH3 0x3B3 JUMPI DUP4 PUSH3 0x6D SWAP2 DUP4 ADD PUSH3 0x3F4 JUMP JUMPDEST SWAP3 PUSH1 0x40 DUP3 ADD MLOAD DUP7 DUP2 GT PUSH3 0x3B3 JUMPI PUSH3 0x87 SWAP3 ADD PUSH3 0x3F4 JUMP JUMPDEST SWAP3 ISZERO PUSH3 0x36E JUMPI PUSH1 0x80 MSTORE PUSH1 0x0 DUP1 SLOAD PUSH1 0x1 PUSH1 0x1 PUSH1 0xA0 SHL SUB NOT AND CALLER OR DUP2 SSTORE DUP2 MLOAD SWAP3 SWAP1 DUP5 DUP5 GT PUSH3 0x278 JUMPI PUSH1 0x1 SWAP4 DUP5 SLOAD SWAP4 DUP6 DUP6 DUP2 SHR SWAP6 AND DUP1 ISZERO PUSH3 0x363 JUMPI JUMPDEST DUP9 DUP7 LT EQ PUSH3 0x34F JUMPI DUP2 SWAP1 PUSH1 0x1F SWAP6 DUP7 DUP2 GT PUSH3 0x2FC JUMPI JUMPDEST POP DUP9 SWAP1 DUP7 DUP4 GT PUSH1 0x1 EQ PUSH3 0x298 JUMPI DUP5 SWAP3 PUSH3 0x28C JUMPI JUMPDEST POP POP PUSH1 0x0 NOT PUSH1 0x3 DUP4 SWAP1 SHL SHR NOT AND SWAP1 DUP6 SHL OR DUP5 SSTORE JUMPDEST DUP2 MLOAD SWAP5 DUP6 GT PUSH3 0x278 JUMPI PUSH1 0x2 SLOAD DUP5 DUP2 DUP2 SHR SWAP2 AND DUP1 ISZERO PUSH3 0x26D JUMPI JUMPDEST DUP8 DUP3 LT EQ PUSH3 0x259 JUMPI DUP4 DUP2 GT PUSH3 0x210 JUMPI JUMPDEST POP DUP6 SWAP3 DUP6 GT PUSH1 0x1 EQ PUSH3 0x1A7 JUMPI SWAP4 SWAP5 POP DUP5 SWAP3 SWAP2 SWAP1 DUP4 PUSH3 0x19B JUMPI JUMPDEST POP POP SHL SWAP2 PUSH1 0x0 NOT SWAP1 PUSH1 0x3 SHL SHR NOT AND OR PUSH1 0x2 SSTORE JUMPDEST PUSH1 0x40 MLOAD PUSH2 0x52E8 SWAP1 DUP2 PUSH3 0x467 DUP3 CODECOPY PUSH1 0x80 MLOAD DUP2 DUP2 DUP2 PUSH2 0x67F ADD MSTORE DUP2 DUP2 PUSH2 0xFEA ADD MSTORE DUP2 DUP2 PUSH2 0x1915 ADD MSTORE DUP2 DUP2 PUSH2 0x1E36 ADD MSTORE DUP2 DUP2 PUSH2 0x265A ADD MSTORE PUSH2 0x27B0 ADD MSTORE RETURN JUMPDEST ADD MLOAD SWAP3 POP CODESIZE DUP1 PUSH3 0x14C JUMP JUMPDEST PUSH1 0x2 DUP2 MSTORE DUP6 DUP2 KECCAK256 SWAP4 SWAP6 DUP6 SWAP2 PUSH1 0x1F NOT DUP4 AND SWAP2 JUMPDEST DUP9 DUP4 DUP4 LT PUSH3 0x1F5 JUMPI POP POP POP LT PUSH3 0x1DB JUMPI JUMPDEST POP POP POP DUP2 SHL ADD PUSH1 0x2 SSTORE PUSH3 0x15F JUMP JUMPDEST ADD MLOAD PUSH1 0x0 NOT PUSH1 0xF8 DUP5 PUSH1 0x3 SHL AND SHR NOT AND SWAP1 SSTORE CODESIZE DUP1 DUP1 PUSH3 0x1CC JUMP JUMPDEST DUP6 DUP8 ADD MLOAD DUP9 SSTORE SWAP1 SWAP7 ADD SWAP6 SWAP5 DUP6 ADD SWAP5 DUP8 SWAP4 POP SWAP1 DUP2 ADD SWAP1 PUSH3 0x1B9 JUMP JUMPDEST PUSH1 0x2 DUP3 MSTORE DUP7 DUP3 KECCAK256 DUP5 DUP1 DUP9 ADD PUSH1 0x5 SHR DUP3 ADD SWAP3 DUP10 DUP10 LT PUSH3 0x24F JUMPI JUMPDEST ADD PUSH1 0x5 SHR ADD SWAP1 DUP6 SWAP1 JUMPDEST DUP3 DUP2 LT PUSH3 0x243 JUMPI POP POP PUSH3 0x131 JUMP JUMPDEST DUP4 DUP2 SSTORE ADD DUP6 SWAP1 PUSH3 0x233 JUMP JUMPDEST SWAP3 POP DUP2 SWAP3 PUSH3 0x22A JUMP JUMPDEST PUSH4 0x4E487B71 PUSH1 0xE0 SHL DUP3 MSTORE PUSH1 0x22 PUSH1 0x4 MSTORE PUSH1 0x24 DUP3 REVERT JUMPDEST SWAP1 PUSH1 0x7F AND SWAP1 PUSH3 0x11F JUMP JUMPDEST PUSH4 0x4E487B71 PUSH1 0xE0 SHL DUP2 MSTORE PUSH1 0x41 PUSH1 0x4 MSTORE PUSH1 0x24 SWAP1 REVERT JUMPDEST ADD MLOAD SWAP1 POP CODESIZE DUP1 PUSH3 0xF0 JUMP JUMPDEST DUP8 DUP6 MSTORE DUP10 DUP6 KECCAK256 DUP9 SWAP5 POP SWAP2 SWAP1 PUSH1 0x1F NOT DUP5 AND DUP7 JUMPDEST DUP13 DUP3 DUP3 LT PUSH3 0x2E5 JUMPI POP POP DUP5 GT PUSH3 0x2CB JUMPI JUMPDEST POP POP POP DUP2 SHL ADD DUP5 SSTORE PUSH3 0x104 JUMP JUMPDEST ADD MLOAD PUSH1 0x0 NOT PUSH1 0xF8 DUP5 PUSH1 0x3 SHL AND SHR NOT AND SWAP1 SSTORE CODESIZE DUP1 DUP1 PUSH3 0x2BD JUMP JUMPDEST DUP4 DUP6 ADD MLOAD DUP7 SSTORE DUP12 SWAP8 SWAP1 SWAP6 ADD SWAP5 SWAP4 DUP5 ADD SWAP4 ADD PUSH3 0x2AA JUMP JUMPDEST SWAP1 SWAP2 POP DUP7 DUP5 MSTORE DUP9 DUP5 KECCAK256 DUP7 DUP1 DUP6 ADD PUSH1 0x5 SHR DUP3 ADD SWAP3 DUP12 DUP7 LT PUSH3 0x345 JUMPI JUMPDEST SWAP2 DUP10 SWAP2 DUP7 SWAP6 SWAP5 SWAP4 ADD PUSH1 0x5 SHR ADD SWAP2 JUMPDEST DUP3 DUP2 LT PUSH3 0x336 JUMPI POP POP PUSH3 0xDA JUMP JUMPDEST DUP7 DUP2 SSTORE DUP6 SWAP5 POP DUP10 SWAP2 ADD PUSH3 0x326 JUMP JUMPDEST SWAP3 POP DUP2 SWAP3 PUSH3 0x318 JUMP JUMPDEST PUSH4 0x4E487B71 PUSH1 0xE0 SHL DUP4 MSTORE PUSH1 0x22 PUSH1 0x4 MSTORE PUSH1 0x24 DUP4 REVERT JUMPDEST SWAP5 PUSH1 0x7F AND SWAP5 PUSH3 0xC3 JUMP JUMPDEST PUSH1 0x40 MLOAD PUSH3 0x461BCD PUSH1 0xE5 SHL DUP2 MSTORE PUSH1 0x4 DUP2 ADD DUP7 SWAP1 MSTORE PUSH1 0x15 PUSH1 0x24 DUP3 ADD MSTORE PUSH32 0x564D3A207A65726F206155534420616464726573730000000000000000000000 PUSH1 0x44 DUP3 ADD MSTORE PUSH1 0x64 SWAP1 REVERT JUMPDEST PUSH1 0x0 DUP1 REVERT JUMPDEST PUSH1 0x40 MLOAD SWAP2 SWAP1 PUSH1 0x1F ADD PUSH1 0x1F NOT AND DUP3 ADD PUSH1 0x1 PUSH1 0x1 PUSH1 0x40 SHL SUB DUP2 GT DUP4 DUP3 LT OR PUSH3 0x3DE JUMPI PUSH1 0x40 MSTORE JUMP JUMPDEST PUSH4 0x4E487B71 PUSH1 0xE0 SHL PUSH1 0x0 MSTORE PUSH1 0x41 PUSH1 0x4 MSTORE PUSH1 0x24 PUSH1 0x0 REVERT JUMPDEST SWAP2 SWAP1 DUP1 PUSH1 0x1F DUP5 ADD SLT ISZERO PUSH3 0x3B3 JUMPI DUP3 MLOAD PUSH1 0x1 PUSH1 0x1 PUSH1 0x40 SHL SUB DUP2 GT PUSH3 0x3DE JUMPI PUSH1 0x20 SWAP1 PUSH3 0x42A PUSH1 0x1F DUP3 ADD PUSH1 0x1F NOT AND DUP4 ADD PUSH3 0x3B8 JUMP JUMPDEST SWAP3 DUP2 DUP5 MSTORE DUP3 DUP3 DUP8 ADD ADD GT PUSH3 0x3B3 JUMPI PUSH1 0x0 JUMPDEST DUP2 DUP2 LT PUSH3 0x452 JUMPI POP DUP3 PUSH1 0x0 SWAP4 SWAP5 SWAP6 POP ADD ADD MSTORE SWAP1 JUMP JUMPDEST DUP6 DUP2 ADD DUP4 ADD MLOAD DUP5 DUP3 ADD DUP5 ADD MSTORE DUP3 ADD PUSH3 0x43C JUMP INVALID PUSH1 0x80 DUP1 PUSH1 0x40 MSTORE PUSH1 0x4 CALLDATASIZE LT ISZERO PUSH2 0x1D JUMPI JUMPDEST POP CALLDATASIZE ISZERO PUSH2 0x1B JUMPI PUSH1 0x0 DUP1 REVERT JUMPDEST STOP JUMPDEST PUSH1 0x0 SWAP1 DUP2 CALLDATALOAD PUSH1 0xE0 SHR SWAP1 DUP2 PUSH4 0x11F8B1B EQ PUSH2 0x2AB0 JUMPI POP DUP1 PUSH4 0x12BBE10C EQ PUSH2 0x2A93 JUMPI DUP1 PUSH4 0x1AAC9197 EQ PUSH2 0x291C JUMPI DUP1 PUSH4 0x1F275413 EQ PUSH2 0x28E5 JUMPI DUP1 PUSH4 0x1FB3E24E EQ PUSH2 0x289D JUMPI DUP1 PUSH4 0x22EDF01A EQ PUSH2 0x2802 JUMPI DUP1 PUSH4 0x2E90C1A9 EQ PUSH2 0x27DF JUMPI DUP1 PUSH4 0x2FD7D1FD EQ PUSH2 0x279A JUMPI DUP1 PUSH4 0x3C4CE221 EQ PUSH2 0x275E JUMPI DUP1 PUSH4 0x47E7EF24 EQ PUSH2 0x25D7 JUMPI DUP1 PUSH4 0x4E17707A EQ PUSH2 0x2152 JUMPI DUP1 PUSH4 0x4E6EC0E6 EQ PUSH2 0x207D JUMPI DUP1 PUSH4 0x514EA4BF EQ PUSH2 0x1FB4 JUMPI DUP1 PUSH4 0x51CFF8D9 EQ PUSH2 0x1D96 JUMPI DUP1 PUSH4 0x53084EFF EQ PUSH2 0x1D5D JUMPI DUP1 PUSH4 0x572FCDCD EQ PUSH2 0x1CDB JUMPI DUP1 PUSH4 0x5A2D6F5D EQ PUSH2 0x1CBD JUMPI DUP1 PUSH4 0x6ABCF6AF EQ PUSH2 0x1C83 JUMPI DUP1 PUSH4 0x748747E6 EQ PUSH2 0x1C19 JUMPI DUP1 PUSH4 0x85F9805D EQ PUSH2 0x184C JUMPI DUP1 PUSH4 0x8C728541 EQ PUSH2 0x1822 JUMPI DUP1 PUSH4 0x8DA5CB5B EQ PUSH2 0x17FB JUMPI DUP1 PUSH4 0x92BC6914 EQ PUSH2 0x16E3 JUMPI DUP1 PUSH4 0x932A1276 EQ PUSH2 0x15A4 JUMPI DUP1 PUSH4 0x9530B30F EQ PUSH2 0x1587 JUMPI DUP1 PUSH4 0x96E85CED EQ PUSH2 0x1289 JUMPI DUP1 PUSH4 0x989A83BF EQ PUSH2 0x11B7 JUMPI DUP1 PUSH4 0xB8FF783D EQ PUSH2 0x119B JUMPI DUP1 PUSH4 0xBAF404D3 EQ PUSH2 0xF17 JUMPI DUP1 PUSH4 0xBBD7EDC5 EQ PUSH2 0xDA0 JUMPI DUP1 PUSH4 0xBD44815F EQ PUSH2 0xD81 JUMPI DUP1 PUSH4 0xC0BD6F9E EQ PUSH2 0xC92 JUMPI DUP1 PUSH4 0xC81E62E6 EQ PUSH2 0xC4A JUMPI DUP1 PUSH4 0xCCA23BF2 EQ PUSH2 0xBC5 JUMPI DUP1 PUSH4 0xD01EC4A6 EQ PUSH2 0xB7B JUMPI DUP1 PUSH4 0xD16B6921 EQ PUSH2 0xA44 JUMPI DUP1 PUSH4 0xD4805742 EQ PUSH2 0x921 JUMPI DUP1 PUSH4 0xD9C91FEA EQ PUSH2 0x8F7 JUMPI DUP1 PUSH4 0xDE700DA6 EQ PUSH2 0x8BE JUMPI DUP1 PUSH4 0xE54A2AD5 EQ PUSH2 0x5B9 JUMPI DUP1 PUSH4 0xE55EE7EB EQ PUSH2 0x58A JUMPI DUP1 PUSH4 0xE8134712 EQ PUSH2 0x402 JUMPI DUP1 PUSH4 0xF2FDE38B EQ PUSH2 0x37F JUMPI PUSH4 0xFE202A18 SUB PUSH2 0xF JUMPI CALLVALUE PUSH2 0x37C JUMPI PUSH1 0x20 SWAP1 PUSH1 0x20 PUSH1 0x3 NOT CALLDATASIZE ADD SLT PUSH2 0x37C JUMPI PUSH1 0x1 PUSH1 0x1 PUSH1 0x40 SHL SUB PUSH1 0x4 CALLDATALOAD DUP2 DUP2 GT PUSH2 0x378 JUMPI PUSH2 0x23E SWAP1 CALLDATASIZE SWAP1 PUSH1 0x4 ADD PUSH2 0x2B8A JUMP JUMPDEST SWAP2 PUSH2 0x253 PUSH1 0x1 DUP1 PUSH1 0xA0 SHL SUB DUP6 SLOAD AND CALLER EQ PUSH2 0x49F1 JUMP JUMPDEST DUP3 GT PUSH2 0x364 JUMPI PUSH2 0x264 PUSH1 0x2 SLOAD PUSH2 0x2C14 JUMP JUMPDEST PUSH1 0x1F DUP2 GT PUSH2 0x31C JUMPI JUMPDEST POP DUP3 SWAP4 PUSH1 0x1F DUP4 GT PUSH1 0x1 EQ PUSH2 0x2B0 JUMPI POP DUP3 SWAP4 DUP3 SWAP2 PUSH2 0x29F SWAP5 SWAP3 PUSH2 0x2A5 JUMPI JUMPDEST POP POP DUP2 PUSH1 0x1 SHL SWAP2 PUSH1 0x0 NOT SWAP1 PUSH1 0x3 SHL SHR NOT AND OR SWAP1 JUMP JUMPDEST PUSH1 0x2 SSTORE DUP1 RETURN JUMPDEST ADD CALLDATALOAD SWAP1 POP CODESIZE DUP1 PUSH2 0x28A JUMP JUMPDEST PUSH1 0x1F NOT DUP4 AND SWAP5 PUSH1 0x0 DUP1 MLOAD PUSH1 0x20 PUSH2 0x5253 DUP4 CODECOPY DUP2 MLOAD SWAP2 MSTORE SWAP3 SWAP2 DUP6 SWAP1 JUMPDEST DUP8 DUP3 LT PUSH2 0x304 JUMPI POP POP DUP4 PUSH1 0x1 SWAP6 SWAP7 LT PUSH2 0x2EA JUMPI JUMPDEST POP POP POP DUP2 SHL ADD PUSH1 0x2 SSTORE DUP1 RETURN JUMPDEST ADD CALLDATALOAD PUSH1 0x0 NOT PUSH1 0x3 DUP5 SWAP1 SHL PUSH1 0xF8 AND SHR NOT AND SWAP1 SSTORE CODESIZE DUP1 DUP1 PUSH2 0x2DE JUMP JUMPDEST DUP1 PUSH1 0x1 DUP5 SWAP7 DUP3 SWAP5 SWAP6 DUP8 ADD CALLDATALOAD DUP2 SSTORE ADD SWAP6 ADD SWAP3 ADD SWAP1 PUSH2 0x2CA JUMP JUMPDEST PUSH2 0x354 SWAP1 PUSH1 0x2 PUSH1 0x0 MSTORE PUSH1 0x0 DUP1 MLOAD PUSH1 0x20 PUSH2 0x5253 DUP4 CODECOPY DUP2 MLOAD SWAP2 MSTORE PUSH1 0x1F DUP6 ADD PUSH1 0x5 SHR DUP2 ADD SWAP2 PUSH1 0x20 DUP7 LT PUSH2 0x35A JUMPI JUMPDEST PUSH1 0x1F ADD PUSH1 0x5 SHR ADD SWAP1 PUSH2 0x2F76 JUMP JUMPDEST CODESIZE PUSH2 0x26D JUMP JUMPDEST SWAP1 SWAP2 POP DUP2 SWAP1 PUSH2 0x347 JUMP JUMPDEST PUSH4 0x4E487B71 PUSH1 0xE0 SHL DUP4 MSTORE PUSH1 0x41 PUSH1 0x4 MSTORE PUSH1 0x24 DUP4 REVERT JUMPDEST DUP3 DUP1 REVERT JUMPDEST DUP1 REVERT JUMPDEST POP CALLVALUE PUSH2 0x37C JUMPI PUSH1 0x20 CALLDATASIZE PUSH1 0x3 NOT ADD SLT PUSH2 0x37C JUMPI PUSH2 0x399 PUSH2 0x2AD2 JUMP JUMPDEST DUP2 SLOAD SWAP1 PUSH1 0x1 PUSH1 0x1 PUSH1 0xA0 SHL SUB SWAP1 PUSH2 0x3B2 CALLER DUP4 DUP6 AND EQ PUSH2 0x49F1 JUMP JUMPDEST AND SWAP1 DUP2 ISZERO PUSH2 0x3CA JUMPI PUSH1 0x1 PUSH1 0x1 PUSH1 0xA0 SHL SUB NOT AND OR DUP2 SSTORE DUP1 RETURN JUMPDEST PUSH1 0x40 MLOAD PUSH3 0x461BCD PUSH1 0xE5 SHL DUP2 MSTORE PUSH1 0x20 PUSH1 0x4 DUP3 ADD MSTORE PUSH1 0x10 PUSH1 0x24 DUP3 ADD MSTORE PUSH16 0x564D3A207A65726F2061646472657373 PUSH1 0x80 SHL PUSH1 0x44 DUP3 ADD MSTORE PUSH1 0x64 SWAP1 REVERT JUMPDEST POP CALLVALUE PUSH2 0x37C JUMPI PUSH1 0x40 CALLDATASIZE PUSH1 0x3 NOT ADD SLT PUSH2 0x37C JUMPI PUSH2 0x42D PUSH2 0x41F PUSH2 0x2AD2 JUMP JUMPDEST PUSH2 0x427 PUSH2 0x2AED JUMP JUMPDEST SWAP1 PUSH2 0x4A87 JUMP JUMPDEST DUP2 MSTORE PUSH1 0x20 PUSH1 0x6 PUSH1 0x20 MSTORE PUSH1 0x40 DUP3 KECCAK256 SWAP1 DUP3 SWAP2 DUP4 SWAP2 DUP2 SLOAD SWAP3 JUMPDEST DUP4 DUP2 LT PUSH2 0x529 JUMPI POP PUSH2 0x454 DUP5 PUSH2 0x4971 JUMP JUMPDEST SWAP4 PUSH2 0x462 PUSH1 0x40 MLOAD SWAP6 DUP7 PUSH2 0x2CB6 JUMP JUMPDEST DUP1 DUP6 MSTORE PUSH2 0x471 PUSH1 0x1F NOT SWAP2 PUSH2 0x4971 JUMP JUMPDEST ADD CALLDATASIZE PUSH1 0x20 DUP7 ADD CALLDATACOPY DUP5 SWAP2 DUP6 JUMPDEST DUP5 DUP2 LT PUSH2 0x495 JUMPI PUSH1 0x40 MLOAD DUP1 PUSH2 0x491 DUP9 DUP3 PUSH2 0x2D1F JUMP JUMPDEST SUB SWAP1 RETURN JUMPDEST PUSH2 0x49F DUP2 DUP4 PUSH2 0x2BE6 JUMP JUMPDEST SWAP1 SLOAD PUSH1 0x3 SWAP2 DUP3 SHL SHR DUP9 MSTORE PUSH1 0x4 DUP5 MSTORE PUSH1 0xFF PUSH1 0x8 PUSH1 0x40 DUP11 KECCAK256 ADD SLOAD AND PUSH1 0x2 DUP2 LT ISZERO PUSH2 0x515 JUMPI ISZERO PUSH2 0x4D0 JUMPI JUMPDEST POP PUSH1 0x1 ADD PUSH2 0x47C JUMP JUMPDEST PUSH2 0x4DA DUP3 DUP5 PUSH2 0x2BE6 JUMP JUMPDEST SWAP1 SLOAD SWAP2 SHL SHR PUSH2 0x4E8 DUP6 PUSH2 0x4AD6 JUMP JUMPDEST SWAP5 DUP8 MLOAD DUP2 LT ISZERO PUSH2 0x501 JUMPI PUSH1 0x5 SHL DUP8 ADD DUP5 ADD MSTORE PUSH1 0x1 PUSH2 0x4C7 JUMP JUMPDEST PUSH4 0x4E487B71 PUSH1 0xE0 SHL DUP10 MSTORE PUSH1 0x32 PUSH1 0x4 MSTORE PUSH1 0x24 DUP10 REVERT JUMPDEST PUSH4 0x4E487B71 PUSH1 0xE0 SHL DUP10 MSTORE PUSH1 0x21 PUSH1 0x4 MSTORE PUSH1 0x24 DUP10 REVERT JUMPDEST PUSH2 0x533 DUP2 DUP5 PUSH2 0x2BE6 JUMP JUMPDEST SWAP1 SLOAD SWAP1 PUSH1 0x3 SHL SHR DUP7 MSTORE PUSH1 0x4 DUP3 MSTORE PUSH1 0xFF PUSH1 0x8 PUSH1 0x40 DUP9 KECCAK256 ADD SLOAD AND PUSH1 0x2 DUP2 LT ISZERO PUSH2 0x576 JUMPI ISZERO PUSH2 0x562 JUMPI JUMPDEST PUSH1 0x1 ADD PUSH2 0x443 JUMP JUMPDEST SWAP4 PUSH2 0x56E PUSH1 0x1 SWAP2 PUSH2 0x4AD6 JUMP JUMPDEST SWAP5 SWAP1 POP PUSH2 0x55A JUMP JUMPDEST PUSH4 0x4E487B71 PUSH1 0xE0 SHL DUP8 MSTORE PUSH1 0x21 PUSH1 0x4 MSTORE PUSH1 0x24 DUP8 REVERT JUMPDEST POP CALLVALUE PUSH2 0x37C JUMPI DUP1 PUSH1 0x3 NOT CALLDATASIZE ADD SLT PUSH2 0x37C JUMPI PUSH1 0x20 PUSH1 0x40 MLOAD PUSH20 0x37BB9C718F3F7FE5ECBDB0B600D607B52706776 DUP2 MSTORE RETURN JUMPDEST POP CALLVALUE PUSH2 0x37C JUMPI PUSH1 0x20 DUP1 PUSH1 0x3 NOT CALLDATASIZE ADD SLT PUSH2 0x8BA JUMPI PUSH1 0x4 CALLDATALOAD DUP1 DUP4 MSTORE PUSH1 0x4 DUP3 MSTORE PUSH1 0x40 DUP4 KECCAK256 SWAP2 PUSH1 0x8 DUP4 ADD PUSH1 0xFF DUP2 SLOAD AND PUSH1 0x2 DUP2 LT ISZERO PUSH2 0x8A6 JUMPI PUSH2 0x869 JUMPI DUP4 SLOAD PUSH1 0x1 PUSH1 0x1 PUSH1 0xA0 SHL SUB SWAP3 SWAP1 DUP4 AND CALLER DUP2 EQ DUP1 ISZERO PUSH2 0x851 JUMPI JUMPDEST PUSH2 0x613 SWAP2 POP PUSH2 0x4688 JUMP JUMPDEST PUSH1 0x2 DUP6 ADD SLOAD SWAP5 DUP6 DUP8 MSTORE PUSH1 0x3 DUP3 MSTORE PUSH1 0x40 DUP8 KECCAK256 SWAP3 DUP5 PUSH1 0x3 DUP4 ADD SLOAD AND DUP9 MSTORE PUSH1 0xB DUP4 MSTORE PUSH1 0x40 DUP9 KECCAK256 SLOAD SWAP4 DUP5 ISZERO PUSH2 0x7F5 JUMPI PUSH1 0x4 DUP4 ADD DUP1 SLOAD SWAP7 PUSH2 0x65D PUSH2 0x652 DUP9 DUP11 PUSH2 0x2F8D JUMP JUMPDEST PUSH1 0x5 DUP8 ADD SLOAD SWAP1 PUSH2 0x2FA0 JUMP JUMPDEST PUSH2 0x667 DUP10 DUP3 PUSH2 0x4ABD JUMP JUMPDEST SWAP9 DUP1 DUP3 GT ISZERO PUSH2 0x792 JUMPI POP DUP3 SLOAD PUSH2 0x67C SWAP2 PUSH2 0x2F53 JUMP JUMPDEST SWAP1 PUSH32 0x0 AND DUP1 EXTCODESIZE ISZERO PUSH2 0x78E JUMPI PUSH1 0x40 MLOAD PUSH4 0x40C10F19 PUSH1 0xE0 SHL DUP2 MSTORE ADDRESS PUSH1 0x4 DUP3 ADD MSTORE PUSH1 0x24 DUP2 ADD DUP4 SWAP1 MSTORE SWAP1 DUP13 SWAP1 DUP3 SWAP1 PUSH1 0x44 SWAP1 DUP3 SWAP1 DUP5 SWAP1 GAS CALL DUP1 ISZERO PUSH2 0x783 JUMPI PUSH2 0x752 JUMPI JUMPDEST POP SWAP2 PUSH2 0x727 PUSH1 0x3 PUSH32 0xB8AFEB408ACD10E29C21161F211B1E177A3CE18923199654650821F940CFF38A SWAP10 SWAP8 SWAP6 SWAP4 PUSH1 0x40 SWAP10 SWAP8 SWAP6 PUSH2 0x719 PUSH1 0x2 DUP7 ADD SWAP2 DUP3 SLOAD PUSH2 0x2FC0 JUMP JUMPDEST SWAP1 SSTORE JUMPDEST SLOAD SWAP3 ADD SWAP2 DUP3 SLOAD PUSH2 0x2F53 JUMP JUMPDEST SWAP1 SSTORE DUP4 PUSH1 0x6 DUP4 ADD SSTORE DUP5 PUSH1 0x7 DUP4 ADD SSTORE PUSH1 0x1 PUSH1 0xFF NOT DUP3 SLOAD AND OR SWAP1 SSTORE PUSH1 0xA TIMESTAMP SWAP2 ADD SSTORE DUP4 MLOAD SWAP3 DUP4 MSTORE DUP3 ADD MSTORE LOG3 DUP1 RETURN JUMPDEST PUSH1 0x1 PUSH1 0x1 PUSH1 0x40 SHL SUB DUP2 SWAP13 SWAP3 SWAP13 GT PUSH2 0x76F JUMPI PUSH1 0x40 MSTORE SWAP10 PUSH2 0x727 PUSH2 0x6D9 JUMP JUMPDEST PUSH4 0x4E487B71 PUSH1 0xE0 SHL DUP3 MSTORE PUSH1 0x41 PUSH1 0x4 MSTORE PUSH1 0x24 DUP3 REVERT JUMPDEST PUSH1 0x40 MLOAD RETURNDATASIZE DUP15 DUP3 RETURNDATACOPY RETURNDATASIZE SWAP1 REVERT JUMPDEST DUP12 DUP1 REVERT JUMPDEST PUSH1 0x40 SWAP9 SWAP7 SWAP5 SWAP3 POP PUSH32 0xB8AFEB408ACD10E29C21161F211B1E177A3CE18923199654650821F940CFF38A SWAP10 SWAP8 SWAP6 SWAP4 DUP2 DUP4 PUSH1 0x3 SWAP4 PUSH2 0x727 SWAP6 LT PUSH2 0x7D4 JUMPI JUMPDEST POP POP PUSH2 0x71C JUMP JUMPDEST PUSH2 0x7DD SWAP2 PUSH2 0x2F53 JUMP JUMPDEST PUSH2 0x7EC PUSH1 0x2 DUP7 ADD SWAP2 DUP3 SLOAD PUSH2 0x2F53 JUMP JUMPDEST SWAP1 SSTORE CODESIZE DUP1 PUSH2 0x7CD JUMP JUMPDEST PUSH1 0x40 MLOAD PUSH3 0x461BCD PUSH1 0xE5 SHL DUP2 MSTORE PUSH1 0x4 DUP2 ADD DUP6 SWAP1 MSTORE PUSH1 0x2E PUSH1 0x24 DUP3 ADD MSTORE PUSH32 0x564D3A206E6F20707269636520617661696C61626C652C2063616C6C20757064 PUSH1 0x44 DUP3 ADD MSTORE PUSH14 0x185D19541C9A58D948199A5C9CDD PUSH1 0x92 SHL PUSH1 0x64 DUP3 ADD MSTORE PUSH1 0x84 SWAP1 REVERT JUMPDEST POP DUP7 MSTORE PUSH1 0x7 DUP2 MSTORE PUSH2 0x613 DUP4 PUSH1 0x40 DUP9 KECCAK256 SLOAD AND CALLER EQ PUSH2 0x609 JUMP JUMPDEST PUSH1 0x40 MLOAD PUSH3 0x461BCD PUSH1 0xE5 SHL DUP2 MSTORE PUSH1 0x4 DUP2 ADD DUP4 SWAP1 MSTORE PUSH1 0x15 PUSH1 0x24 DUP3 ADD MSTORE PUSH21 0x2B269D103837B9B4BA34B7B7103737BA1037B832B7 PUSH1 0x59 SHL PUSH1 0x44 DUP3 ADD MSTORE PUSH1 0x64 SWAP1 REVERT JUMPDEST PUSH4 0x4E487B71 PUSH1 0xE0 SHL DUP7 MSTORE PUSH1 0x21 PUSH1 0x4 MSTORE PUSH1 0x24 DUP7 REVERT JUMPDEST POP DUP1 REVERT JUMPDEST POP CALLVALUE PUSH2 0x37C JUMPI PUSH1 0x40 CALLDATASIZE PUSH1 0x3 NOT ADD SLT PUSH2 0x37C JUMPI PUSH2 0x8EF PUSH1 0x40 PUSH1 0x20 SWAP3 PUSH2 0x8E3 PUSH2 0x41F PUSH2 0x2AD2 JUMP JUMPDEST DUP2 MSTORE PUSH1 0x3 DUP5 MSTORE KECCAK256 PUSH2 0x4B30 JUMP JUMPDEST PUSH1 0x40 MLOAD SWAP1 DUP2 MSTORE RETURN JUMPDEST POP CALLVALUE PUSH2 0x37C JUMPI PUSH1 0x20 CALLDATASIZE PUSH1 0x3 NOT ADD SLT PUSH2 0x37C JUMPI PUSH1 0x40 PUSH1 0x20 SWAP2 PUSH1 0x4 CALLDATALOAD DUP2 MSTORE PUSH1 0xA DUP4 MSTORE KECCAK256 SLOAD PUSH1 0x40 MLOAD SWAP1 DUP2 MSTORE RETURN JUMPDEST POP CALLVALUE PUSH2 0x37C JUMPI PUSH1 0x40 CALLDATASIZE PUSH1 0x3 NOT ADD SLT PUSH2 0x37C JUMPI PUSH2 0x93B PUSH2 0x2AD2 JUMP JUMPDEST PUSH2 0x94D PUSH2 0x946 PUSH2 0x2AED JUMP JUMPDEST DUP4 SWAP3 PUSH2 0x4A87 JUMP JUMPDEST DUP3 MSTORE PUSH1 0x20 PUSH1 0x6 PUSH1 0x20 MSTORE PUSH1 0x40 DUP4 KECCAK256 DUP4 SWAP2 DUP2 SLOAD SWAP2 JUMPDEST DUP3 DUP5 LT PUSH2 0x972 JUMPI PUSH1 0x20 DUP6 PUSH1 0x40 MLOAD SWAP1 DUP2 MSTORE RETURN JUMPDEST SWAP1 SWAP2 SWAP3 SWAP4 PUSH2 0x980 DUP6 DUP4 PUSH2 0x2BE6 JUMP JUMPDEST SWAP1 SLOAD PUSH1 0x3 SWAP2 DUP3 SHL SHR DUP8 MSTORE PUSH1 0x4 DUP5 MSTORE PUSH1 0x40 DUP8 KECCAK256 SWAP1 PUSH1 0xFF PUSH1 0x8 DUP4 ADD SLOAD AND PUSH1 0x2 DUP2 LT ISZERO PUSH2 0x515 JUMPI PUSH2 0xA2D JUMPI DUP2 ADD SLOAD PUSH1 0x1 PUSH1 0x1 PUSH1 0xA0 SHL SUB AND DUP8 MSTORE PUSH1 0xB DUP5 MSTORE PUSH1 0x40 DUP8 KECCAK256 SLOAD SWAP1 DUP2 ISZERO DUP1 ISZERO PUSH2 0xA38 JUMPI JUMPDEST PUSH2 0xA2D JUMPI SWAP1 PUSH2 0x9EF DUP3 PUSH1 0x5 PUSH2 0x9E6 PUSH1 0x4 PUSH2 0x9F4 SWAP7 ADD SLOAD SWAP5 DUP6 PUSH2 0x2F8D JUMP JUMPDEST SWAP2 ADD SLOAD SWAP1 PUSH2 0x2FA0 JUMP JUMPDEST PUSH2 0x4ABD JUMP JUMPDEST SWAP1 DUP7 DUP3 DUP3 ADD SWAP3 DUP4 SLT SWAP2 SLT SWAP1 DUP1 ISZERO DUP3 AND SWAP2 ISZERO AND OR PUSH2 0xA19 JUMPI PUSH1 0x1 SWAP1 SWAP5 JUMPDEST ADD SWAP3 SWAP2 SWAP1 PUSH2 0x960 JUMP JUMPDEST PUSH4 0x4E487B71 PUSH1 0xE0 SHL DUP7 MSTORE PUSH1 0x11 PUSH1 0x4 MSTORE PUSH1 0x24 DUP7 REVERT JUMPDEST POP POP SWAP4 PUSH1 0x1 SWAP1 PUSH2 0xA10 JUMP JUMPDEST POP PUSH1 0x5 DUP2 ADD SLOAD ISZERO PUSH2 0x9C9 JUMP JUMPDEST POP CALLVALUE PUSH2 0x37C JUMPI PUSH2 0xA53 CALLDATASIZE PUSH2 0x2BB7 JUMP JUMPDEST SWAP1 PUSH2 0xA73 PUSH20 0x37BB9C718F3F7FE5ECBDB0B600D607B52706776 CALLER EQ PUSH2 0x2F08 JUMP JUMPDEST DUP3 DUP5 MSTORE PUSH1 0xC PUSH1 0x20 SWAP1 DUP2 MSTORE PUSH1 0x40 DUP6 KECCAK256 SLOAD PUSH1 0x1 PUSH1 0x1 PUSH1 0xA0 SHL SUB AND SWAP4 SWAP1 SWAP3 SWAP1 DUP5 ISZERO PUSH2 0xB36 JUMPI DUP6 MSTORE PUSH1 0xC DUP4 MSTORE PUSH1 0x40 DUP6 KECCAK256 DUP1 SLOAD PUSH1 0x1 PUSH1 0x1 PUSH1 0xA0 SHL SUB NOT AND SWAP1 SSTORE DUP2 ADD DUP2 SWAP1 SUB DUP3 SGT PUSH2 0xB32 JUMPI CALLDATALOAD DUP1 ISZERO PUSH2 0xAF9 JUMPI SWAP1 PUSH32 0xD86730737B142FC160892FA8A0F2DB687A92A0E294D1AD70624CF5ACEF03B84 SWAP2 DUP4 DUP6 MSTORE PUSH1 0xB DUP3 MSTORE DUP1 PUSH1 0x40 DUP7 KECCAK256 SSTORE PUSH1 0x40 MLOAD SWAP1 DUP2 MSTORE LOG2 DUP1 RETURN JUMPDEST PUSH1 0x40 MLOAD PUSH3 0x461BCD PUSH1 0xE5 SHL DUP2 MSTORE PUSH1 0x4 DUP2 ADD DUP4 SWAP1 MSTORE PUSH1 0x11 PUSH1 0x24 DUP3 ADD MSTORE PUSH17 0x564D3A20696E76616C6964207072696365 PUSH1 0x78 SHL PUSH1 0x44 DUP3 ADD MSTORE PUSH1 0x64 SWAP1 REVERT JUMPDEST DUP4 DUP1 REVERT JUMPDEST PUSH1 0x40 MLOAD PUSH3 0x461BCD PUSH1 0xE5 SHL DUP2 MSTORE PUSH1 0x4 DUP2 ADD DUP6 SWAP1 MSTORE PUSH1 0x19 PUSH1 0x24 DUP3 ADD MSTORE PUSH32 0x564D3A20756E6B6E6F776E207072696365207265717565737400000000000000 PUSH1 0x44 DUP3 ADD MSTORE PUSH1 0x64 SWAP1 REVERT JUMPDEST POP CALLVALUE PUSH2 0x37C JUMPI PUSH1 0x40 CALLDATASIZE PUSH1 0x3 NOT ADD SLT PUSH2 0x37C JUMPI PUSH2 0xBB1 PUSH1 0x5 PUSH1 0x40 PUSH2 0x491 SWAP4 PUSH2 0xBA3 PUSH2 0x41F PUSH2 0x2AD2 JUMP JUMPDEST DUP2 MSTORE PUSH1 0x3 PUSH1 0x20 MSTORE KECCAK256 ADD PUSH2 0x4A2D JUMP JUMPDEST PUSH1 0x40 MLOAD SWAP2 DUP3 SWAP2 PUSH1 0x20 DUP4 MSTORE PUSH1 0x20 DUP4 ADD SWAP1 PUSH2 0x2DB9 JUMP JUMPDEST POP CALLVALUE PUSH2 0x37C JUMPI PUSH1 0x20 CALLDATASIZE PUSH1 0x3 NOT ADD SLT PUSH2 0x37C JUMPI PUSH1 0x40 PUSH1 0xE0 SWAP2 PUSH1 0x4 CALLDATALOAD DUP2 MSTORE PUSH1 0x3 PUSH1 0x20 MSTORE KECCAK256 PUSH2 0xC48 PUSH1 0x1 DUP1 PUSH1 0xA0 SHL SUB SWAP2 PUSH1 0xFF DUP4 DUP3 SLOAD AND SWAP4 PUSH1 0x1 DUP4 ADD SLOAD AND SWAP2 PUSH1 0x2 DUP2 ADD SLOAD PUSH1 0x3 DUP3 ADD SLOAD SWAP1 DUP4 PUSH1 0x6 PUSH1 0x4 DUP6 ADD SLOAD SWAP5 ADD SLOAD AND SWAP5 PUSH1 0x40 MLOAD SWAP8 DUP9 MSTORE PUSH1 0x20 DUP9 ADD MSTORE PUSH1 0x40 DUP8 ADD MSTORE PUSH1 0x60 DUP7 ADD MSTORE DUP2 DUP2 AND PUSH1 0x80 DUP7 ADD MSTORE PUSH1 0x8 SHR AND PUSH1 0xA0 DUP5 ADD MSTORE PUSH1 0xC0 DUP4 ADD SWAP1 PUSH2 0x2DF6 JUMP JUMPDEST RETURN JUMPDEST POP CALLVALUE PUSH2 0x37C JUMPI PUSH1 0x40 CALLDATASIZE PUSH1 0x3 NOT ADD SLT PUSH2 0x37C JUMPI PUSH1 0x24 CALLDATALOAD SWAP1 PUSH1 0x4 CALLDATALOAD DUP2 MSTORE PUSH1 0x6 PUSH1 0x20 MSTORE PUSH1 0x40 DUP2 KECCAK256 SWAP1 DUP2 SLOAD DUP4 LT ISZERO PUSH2 0x37C JUMPI PUSH1 0x20 PUSH2 0xC84 DUP5 DUP5 PUSH2 0x2BE6 JUMP JUMPDEST SWAP1 SLOAD PUSH1 0x40 MLOAD SWAP2 PUSH1 0x3 SHL SHR DUP2 MSTORE RETURN JUMPDEST POP CALLVALUE PUSH2 0x37C JUMPI PUSH1 0x20 CALLDATASIZE PUSH1 0x3 NOT ADD SLT PUSH2 0x37C JUMPI PUSH2 0xCB5 PUSH2 0xCAF PUSH2 0x2AD2 JUMP JUMPDEST CALLER PUSH2 0x4A87 JUMP JUMPDEST DUP1 DUP3 MSTORE PUSH1 0x3 PUSH1 0x20 MSTORE PUSH1 0x40 DUP3 KECCAK256 SLOAD PUSH2 0xCD6 SWAP1 PUSH1 0x1 PUSH1 0x1 PUSH1 0xA0 SHL SUB AND CALLER EQ PUSH2 0x2E57 JUMP JUMPDEST DUP1 DUP3 MSTORE PUSH1 0x3 PUSH1 0x20 MSTORE PUSH1 0xFF PUSH1 0x6 PUSH1 0x40 DUP5 KECCAK256 ADD SLOAD AND PUSH1 0x3 DUP2 LT ISZERO PUSH2 0xD6D JUMPI PUSH2 0xD37 JUMPI DUP1 DUP3 MSTORE PUSH1 0x3 PUSH1 0x20 MSTORE PUSH1 0x40 DUP3 KECCAK256 PUSH1 0x6 ADD DUP1 SLOAD PUSH1 0xFF NOT AND PUSH1 0x1 OR SWAP1 SSTORE PUSH32 0x7CA948EDDCCF3A65F738292FE09D47DD38A0616763F1A1A78715430C7A18A18B DUP3 DUP1 LOG2 DUP1 RETURN JUMPDEST PUSH1 0x40 MLOAD PUSH3 0x461BCD PUSH1 0xE5 SHL DUP2 MSTORE PUSH1 0x20 PUSH1 0x4 DUP3 ADD MSTORE PUSH1 0xE PUSH1 0x24 DUP3 ADD MSTORE PUSH14 0x564D3A206E6F7420616374697665 PUSH1 0x90 SHL PUSH1 0x44 DUP3 ADD MSTORE PUSH1 0x64 SWAP1 REVERT JUMPDEST PUSH4 0x4E487B71 PUSH1 0xE0 SHL DUP4 MSTORE PUSH1 0x21 PUSH1 0x4 MSTORE PUSH1 0x24 DUP4 REVERT JUMPDEST POP CALLVALUE PUSH2 0x37C JUMPI PUSH1 0x40 CALLDATASIZE PUSH1 0x3 NOT ADD SLT PUSH2 0x37C JUMPI PUSH1 0x20 PUSH2 0x8EF PUSH2 0x41F PUSH2 0x2AD2 JUMP JUMPDEST POP CALLVALUE PUSH2 0x37C JUMPI PUSH1 0x40 CALLDATASIZE PUSH1 0x3 NOT ADD SLT PUSH2 0x37C JUMPI PUSH2 0xE04 PUSH2 0xDBD PUSH2 0x2AD2 JUMP JUMPDEST PUSH2 0xDC5 PUSH2 0x2AED JUMP JUMPDEST SWAP1 DUP4 PUSH1 0xE0 PUSH1 0x40 MLOAD PUSH2 0xDD5 DUP2 PUSH2 0x2C4E JUMP JUMPDEST DUP3 DUP2 MSTORE DUP3 PUSH1 0x20 DUP3 ADD MSTORE DUP3 PUSH1 0x40 DUP3 ADD MSTORE DUP3 PUSH1 0x60 DUP3 ADD MSTORE DUP3 PUSH1 0x80 DUP3 ADD MSTORE DUP3 PUSH1 0xA0 DUP3 ADD MSTORE PUSH1 0x60 PUSH1 0xC0 DUP3 ADD MSTORE ADD MSTORE PUSH2 0x4A87 JUMP JUMPDEST DUP2 MSTORE PUSH1 0x3 PUSH1 0x20 MSTORE PUSH1 0x40 DUP2 KECCAK256 PUSH1 0x40 MLOAD SWAP1 PUSH2 0xE1C DUP3 PUSH2 0x2C4E JUMP JUMPDEST PUSH1 0x1 DUP1 PUSH1 0xA0 SHL SUB SWAP1 DUP2 DUP2 SLOAD AND DUP4 MSTORE DUP2 PUSH1 0x1 DUP3 ADD SLOAD AND SWAP2 PUSH1 0x20 DUP5 ADD SWAP3 DUP4 MSTORE PUSH1 0x2 DUP3 ADD SLOAD SWAP1 PUSH1 0x40 DUP6 ADD SWAP2 DUP3 MSTORE PUSH1 0x3 DUP4 ADD SLOAD PUSH1 0x60 DUP7 ADD SWAP1 DUP2 MSTORE PUSH1 0x4 DUP5 ADD SLOAD SWAP3 PUSH1 0x80 DUP8 ADD SWAP3 PUSH1 0xFF DUP6 AND DUP5 MSTORE PUSH1 0xFF PUSH1 0xA0 DUP10 ADD SWAP6 PUSH1 0x8 SHR AND DUP6 MSTORE PUSH1 0xFF PUSH1 0x6 PUSH2 0xE80 PUSH1 0x5 DUP10 ADD PUSH2 0x4A2D JUMP JUMPDEST SWAP8 PUSH1 0xC0 DUP12 ADD SWAP9 DUP10 MSTORE ADD SLOAD AND SWAP7 PUSH1 0xE0 DUP10 ADD SWAP8 PUSH1 0x3 DUP2 LT ISZERO PUSH2 0xF03 JUMPI SWAP4 PUSH2 0x491 SWAP7 SWAP4 PUSH1 0xFF SWAP6 SWAP4 DUP11 SWAP10 SWAP8 SWAP4 DUP8 SWAP6 PUSH1 0x20 SWAP13 MSTORE DUP2 PUSH1 0x40 MLOAD SWAP14 DUP15 SWAP14 DUP15 MSTORE MLOAD AND PUSH1 0x20 DUP14 ADD MSTORE MLOAD AND PUSH1 0x40 DUP12 ADD MSTORE MLOAD PUSH1 0x60 DUP11 ADD MSTORE MLOAD PUSH1 0x80 DUP10 ADD MSTORE MLOAD AND PUSH1 0xA0 DUP8 ADD MSTORE MLOAD AND PUSH1 0xC0 DUP6 ADD MSTORE MLOAD PUSH2 0xEF8 PUSH2 0x100 SWAP2 DUP3 PUSH1 0xE0 DUP8 ADD MSTORE PUSH2 0x120 DUP7 ADD SWAP1 PUSH2 0x2DB9 JUMP JUMPDEST SWAP3 MLOAD SWAP1 DUP5 ADD SWAP1 PUSH2 0x2DF6 JUMP JUMPDEST PUSH4 0x4E487B71 PUSH1 0xE0 SHL DUP12 MSTORE PUSH1 0x21 PUSH1 0x4 MSTORE PUSH1 0x24 DUP12 REVERT JUMPDEST POP CALLVALUE PUSH2 0x37C JUMPI PUSH2 0xF26 CALLDATASIZE PUSH2 0x2D5B JUMP JUMPDEST SWAP5 SWAP2 SWAP1 SWAP4 SWAP3 PUSH1 0x1 DUP1 PUSH1 0xFF DUP4 AND LT ISZERO DUP1 PUSH2 0x118D JUMPI JUMPDEST PUSH2 0xF43 SWAP1 PUSH2 0x4855 JUMP JUMPDEST PUSH2 0xF5C PUSH1 0xFF DUP5 AND PUSH1 0x1 DUP2 LT ISZERO SWAP1 DUP2 PUSH2 0x1181 JUMPI JUMPDEST POP PUSH2 0x4896 JUMP JUMPDEST PUSH2 0xF67 DUP8 ISZERO ISZERO PUSH2 0x48D5 JUMP JUMPDEST PUSH2 0xF72 DUP6 ISZERO ISZERO PUSH2 0x4932 JUMP JUMPDEST PUSH2 0xF7C DUP5 CALLER PUSH2 0x4A87 JUMP JUMPDEST SWAP7 DUP8 DUP10 MSTORE PUSH1 0x20 SWAP7 PUSH1 0x3 DUP9 MSTORE PUSH1 0x40 DUP11 KECCAK256 SWAP5 PUSH2 0xFA0 CALLER PUSH1 0x1 DUP1 PUSH1 0xA0 SHL SUB DUP9 SLOAD AND EQ PUSH2 0x2E57 JUMP JUMPDEST PUSH1 0xFF PUSH1 0x6 DUP8 ADD SLOAD AND PUSH1 0x3 DUP2 LT ISZERO PUSH2 0x116D JUMPI PUSH1 0x2 SUB PUSH2 0x1137 JUMPI PUSH1 0x40 MLOAD PUSH4 0x23B872DD PUSH1 0xE0 SHL DUP2 MSTORE CALLER PUSH1 0x4 DUP3 ADD MSTORE ADDRESS PUSH1 0x24 DUP3 ADD MSTORE PUSH1 0x44 DUP2 ADD DUP10 SWAP1 MSTORE SWAP1 DUP12 DUP11 DUP4 PUSH1 0x64 DUP2 DUP5 PUSH1 0x1 PUSH1 0x1 PUSH1 0xA0 SHL SUB PUSH32 0x0 AND GAS CALL DUP1 ISZERO PUSH2 0x112A JUMPI PUSH2 0x1059 SWAP4 PUSH2 0x1026 SWAP3 SWAP2 PUSH2 0x10FD JUMPI JUMPDEST POP PUSH2 0x4647 JUMP JUMPDEST DUP9 PUSH1 0x2 DUP9 ADD SSTORE DUP12 PUSH1 0x3 DUP9 ADD SSTORE PUSH1 0x4 DUP8 ADD PUSH1 0xFF DUP1 NOT SWAP8 AND DUP8 DUP3 SLOAD AND OR DUP2 SSTORE SWAP1 PUSH2 0xFF00 DUP3 SLOAD SWAP2 PUSH1 0x8 SHL AND SWAP1 PUSH2 0xFF00 NOT AND OR SWAP1 SSTORE JUMP JUMPDEST PUSH1 0x5 DUP6 ADD SWAP1 PUSH1 0x1 PUSH1 0x1 PUSH1 0x40 SHL SUB DUP4 GT PUSH2 0x10E9 JUMPI PUSH2 0x1076 DUP4 DUP4 PUSH2 0x4988 JUMP JUMPDEST SWAP1 DUP11 MSTORE DUP8 DUP11 KECCAK256 DUP11 JUMPDEST DUP4 DUP2 LT PUSH2 0x10D0 JUMPI POP POP POP PUSH1 0x6 SWAP1 SWAP4 ADD DUP1 SLOAD SWAP1 SWAP3 AND SWAP1 SWAP2 SSTORE POP POP PUSH1 0x40 MLOAD SWAP2 DUP3 MSTORE PUSH1 0x1 PUSH1 0x1 PUSH1 0xA0 SHL SUB AND SWAP2 CALLER SWAP2 PUSH32 0xDE9D4AF6DC6156415163633265210B1348683A9A7E9B955616130CE9D6C58CB2 SWAP2 SWAP1 LOG4 DUP1 RETURN JUMPDEST DUP5 SWAP1 DUP11 PUSH2 0x10DC DUP6 PUSH2 0x2EA8 JUMP JUMPDEST SWAP5 ADD SWAP4 DUP2 DUP5 ADD SSTORE ADD PUSH2 0x107E JUMP JUMPDEST PUSH4 0x4E487B71 PUSH1 0xE0 SHL DUP12 MSTORE PUSH1 0x41 PUSH1 0x4 MSTORE PUSH1 0x24 DUP12 REVERT JUMPDEST PUSH2 0x111D SWAP2 POP DUP13 DUP14 RETURNDATASIZE LT PUSH2 0x1123 JUMPI JUMPDEST PUSH2 0x1115 DUP2 DUP4 PUSH2 0x2CB6 JUMP JUMPDEST DUP2 ADD SWAP1 PUSH2 0x462F JUMP JUMPDEST CODESIZE PUSH2 0x1020 JUMP JUMPDEST POP RETURNDATASIZE PUSH2 0x110B JUMP JUMPDEST POP PUSH1 0x40 MLOAD SWAP1 RETURNDATASIZE SWAP1 DUP3 RETURNDATACOPY RETURNDATASIZE SWAP1 REVERT JUMPDEST PUSH1 0x40 MLOAD PUSH3 0x461BCD PUSH1 0xE5 SHL DUP2 MSTORE PUSH1 0x4 DUP2 ADD DUP11 SWAP1 MSTORE PUSH1 0xE PUSH1 0x24 DUP3 ADD MSTORE PUSH14 0x15934E881B9BDD0818DB1BDCD959 PUSH1 0x92 SHL PUSH1 0x44 DUP3 ADD MSTORE PUSH1 0x64 SWAP1 REVERT JUMPDEST PUSH4 0x4E487B71 PUSH1 0xE0 SHL DUP13 MSTORE PUSH1 0x21 PUSH1 0x4 MSTORE PUSH1 0x24 DUP13 REVERT JUMPDEST PUSH1 0x64 SWAP2 POP GT ISZERO CODESIZE PUSH2 0xF56 JUMP JUMPDEST POP PUSH1 0xA PUSH1 0xFF DUP4 AND GT ISZERO PUSH2 0xF3A JUMP JUMPDEST POP CALLVALUE PUSH2 0x37C JUMPI DUP1 PUSH1 0x3 NOT CALLDATASIZE ADD SLT PUSH2 0x37C JUMPI PUSH1 0x20 PUSH1 0x40 MLOAD PUSH1 0xA DUP2 MSTORE RETURN JUMPDEST POP CALLVALUE PUSH2 0x37C JUMPI DUP1 PUSH1 0x3 NOT CALLDATASIZE ADD SLT PUSH2 0x37C JUMPI PUSH1 0x40 MLOAD SWAP1 DUP1 DUP3 PUSH1 0x2 SLOAD SWAP2 PUSH2 0x11DB DUP4 PUSH2 0x2C14 JUMP JUMPDEST SWAP3 DUP4 DUP4 MSTORE PUSH1 0x20 SWAP5 PUSH1 0x1 SWAP2 DUP7 PUSH1 0x1 DUP3 AND SWAP2 DUP3 PUSH1 0x0 EQ PUSH2 0x1267 JUMPI POP POP PUSH1 0x1 EQ PUSH2 0x121F JUMPI JUMPDEST POP POP PUSH2 0x120B SWAP3 POP SUB DUP4 PUSH2 0x2CB6 JUMP JUMPDEST PUSH2 0x491 PUSH1 0x40 MLOAD SWAP3 DUP3 DUP5 SWAP4 DUP5 MSTORE DUP4 ADD SWAP1 PUSH2 0x2CFA JUMP JUMPDEST SWAP1 DUP6 SWAP3 POP PUSH1 0x2 DUP3 MSTORE PUSH1 0x0 DUP1 MLOAD PUSH1 0x20 PUSH2 0x5253 DUP4 CODECOPY DUP2 MLOAD SWAP2 MSTORE JUMPDEST DUP6 DUP4 LT PUSH2 0x124F JUMPI POP POP PUSH2 0x120B SWAP4 POP DUP3 ADD ADD CODESIZE DUP1 PUSH2 0x11FD JUMP JUMPDEST DUP1 SLOAD DUP4 DUP10 ADD DUP6 ADD MSTORE DUP8 SWAP5 POP DUP7 SWAP4 SWAP1 SWAP3 ADD SWAP2 DUP2 ADD PUSH2 0x1237 JUMP JUMPDEST SWAP3 POP SWAP4 POP POP PUSH2 0x120B SWAP5 SWAP2 POP PUSH1 0xFF NOT AND DUP3 DUP5 ADD MSTORE ISZERO ISZERO PUSH1 0x5 SHL DUP3 ADD ADD CODESIZE DUP1 PUSH2 0x11FD JUMP JUMPDEST POP PUSH1 0x20 DUP1 PUSH1 0x3 NOT CALLDATASIZE ADD SLT PUSH2 0x8BA JUMPI PUSH2 0x129F PUSH2 0x2AD2 JUMP JUMPDEST PUSH1 0x1 PUSH1 0x1 PUSH1 0xA0 SHL SUB DUP2 AND SWAP2 SWAP1 DUP3 ISZERO PUSH2 0x1551 JUMPI PUSH1 0x40 MLOAD PUSH4 0xFFEB17D PUSH1 0xE1 SHL DUP2 MSTORE PUSH20 0x37BB9C718F3F7FE5ECBDB0B600D607B52706776 SWAP2 SWAP1 DUP4 DUP2 PUSH1 0x4 DUP2 DUP7 GAS STATICCALL SWAP1 DUP2 ISZERO PUSH2 0x1546 JUMPI DUP7 SWAP2 PUSH2 0x1515 JUMPI JUMPDEST POP PUSH8 0x13FBE85EDC90000 DUP2 ADD DUP1 SWAP2 GT PUSH2 0xA19 JUMPI CALLVALUE LT PUSH2 0x14BE JUMPI PUSH2 0x130D SWAP1 PUSH2 0x4B82 JUMP JUMPDEST SWAP1 PUSH1 0x40 MLOAD SWAP2 DUP6 SWAP1 PUSH1 0x2 SLOAD PUSH2 0x1320 DUP2 PUSH2 0x2C14 JUMP JUMPDEST SWAP1 PUSH1 0x1 SWAP1 DUP2 DUP2 AND SWAP1 DUP2 ISZERO PUSH2 0x14A0 JUMPI POP PUSH1 0x1 EQ PUSH2 0x145A JUMPI JUMPDEST POP POP SWAP2 PUSH2 0x13A9 PUSH1 0x40 DUP6 DUP8 DUP6 PUSH2 0x1358 DUP9 DUP4 SWAP11 SWAP9 PUSH2 0x13EF SWAP13 SWAP11 MLOAD SWAP5 DUP6 SWAP3 ADD PUSH2 0x2CD7 JUMP JUMPDEST ADD SUB PUSH2 0x136C PUSH1 0x1F NOT SWAP2 DUP3 DUP2 ADD DUP8 MSTORE DUP7 PUSH2 0x2CB6 JUMP JUMPDEST PUSH7 0x242E7072696365 PUSH1 0xC8 SHL DUP7 PUSH2 0x138D DUP5 MLOAD SWAP8 DUP6 DUP4 DUP11 ADD MSTORE PUSH1 0x60 DUP10 ADD SWAP1 PUSH2 0x2CFA JUMP JUMPDEST DUP8 DUP2 SUB SWAP4 DUP5 ADD DUP6 DUP10 ADD MSTORE PUSH1 0x7 DUP2 MSTORE ADD MSTORE DUP6 DUP2 ADD DUP6 MSTORE ADD DUP4 PUSH2 0x2CB6 JUMP JUMPDEST PUSH1 0x40 MLOAD PUSH4 0x45DE5DF1 PUSH1 0xE1 SHL DUP2 MSTORE PUSH8 0xB6D47DA8DBBCB1B1 PUSH1 0x4 DUP3 ADD MSTORE ADDRESS PUSH1 0x24 DUP3 ADD MSTORE PUSH4 0xD16B6921 PUSH1 0xE0 SHL PUSH1 0x44 DUP3 ADD MSTORE PUSH1 0x80 PUSH1 0x64 DUP3 ADD MSTORE SWAP5 DUP6 SWAP3 DUP4 SWAP2 DUP3 SWAP2 PUSH1 0x84 DUP4 ADD SWAP1 PUSH2 0x2CFA JUMP JUMPDEST SUB SWAP2 CALLVALUE SWAP1 GAS CALL DUP1 ISZERO PUSH2 0x144F JUMPI DUP5 SWAP1 PUSH2 0x1421 JUMPI JUMPDEST DUP5 MSTORE PUSH1 0xC SWAP1 MSTORE POP PUSH1 0x40 DUP3 KECCAK256 DUP1 SLOAD PUSH1 0x1 PUSH1 0x1 PUSH1 0xA0 SHL SUB NOT AND SWAP1 SWAP2 OR SWAP1 SSTORE DUP1 RETURN JUMPDEST POP DUP1 DUP3 DUP2 RETURNDATASIZE DUP4 GT PUSH2 0x1448 JUMPI JUMPDEST PUSH2 0x1437 DUP2 DUP4 PUSH2 0x2CB6 JUMP JUMPDEST DUP2 ADD SUB SLT PUSH2 0xB32 JUMPI PUSH1 0xC SWAP2 MLOAD PUSH2 0x1402 JUMP JUMPDEST POP RETURNDATASIZE PUSH2 0x142D JUMP JUMPDEST PUSH1 0x40 MLOAD RETURNDATASIZE DUP7 DUP3 RETURNDATACOPY RETURNDATASIZE SWAP1 REVERT JUMPDEST PUSH1 0x2 DUP10 MSTORE SWAP2 SWAP3 POP SWAP1 DUP8 SWAP1 PUSH1 0x0 DUP1 MLOAD PUSH1 0x20 PUSH2 0x5253 DUP4 CODECOPY DUP2 MLOAD SWAP2 MSTORE JUMPDEST DUP4 DUP4 LT PUSH2 0x148D JUMPI POP POP POP DUP4 ADD DUP5 ADD SWAP1 PUSH2 0x13A9 PUSH1 0x40 PUSH2 0x1337 JUMP JUMPDEST DUP1 SLOAD DUP8 DUP5 ADD DUP10 ADD MSTORE SWAP2 DUP8 ADD SWAP2 DUP2 ADD PUSH2 0x1474 JUMP JUMPDEST PUSH1 0xFF NOT AND DUP9 DUP9 ADD MSTORE POP POP DUP1 ISZERO ISZERO MUL DUP5 ADD DUP6 ADD SWAP2 POP PUSH2 0x13A9 PUSH1 0x40 PUSH2 0x1337 JUMP JUMPDEST PUSH1 0x40 MLOAD PUSH3 0x461BCD PUSH1 0xE5 SHL DUP2 MSTORE PUSH1 0x4 DUP2 ADD DUP5 SWAP1 MSTORE PUSH1 0x29 PUSH1 0x24 DUP3 ADD MSTORE PUSH32 0x564D3A20696E73756666696369656E74206465706F73697420666F7220707269 PUSH1 0x44 DUP3 ADD MSTORE PUSH9 0x636520757064617465 PUSH1 0xB8 SHL PUSH1 0x64 DUP3 ADD MSTORE PUSH1 0x84 SWAP1 REVERT JUMPDEST SWAP1 POP DUP4 DUP2 DUP2 RETURNDATASIZE DUP4 GT PUSH2 0x153F JUMPI JUMPDEST PUSH2 0x152C DUP2 DUP4 PUSH2 0x2CB6 JUMP JUMPDEST DUP2 ADD SUB SLT PUSH2 0x153B JUMPI MLOAD CODESIZE PUSH2 0x12EB JUMP JUMPDEST DUP6 DUP1 REVERT JUMPDEST POP RETURNDATASIZE PUSH2 0x1522 JUMP JUMPDEST PUSH1 0x40 MLOAD RETURNDATASIZE DUP9 DUP3 RETURNDATACOPY RETURNDATASIZE SWAP1 REVERT JUMPDEST PUSH1 0x40 MLOAD PUSH3 0x461BCD PUSH1 0xE5 SHL DUP2 MSTORE PUSH1 0x4 DUP2 ADD DUP4 SWAP1 MSTORE PUSH1 0xE PUSH1 0x24 DUP3 ADD MSTORE PUSH14 0x2B269D103D32B937903A37B5B2B7 PUSH1 0x91 SHL PUSH1 0x44 DUP3 ADD MSTORE PUSH1 0x64 SWAP1 REVERT JUMPDEST POP CALLVALUE PUSH2 0x37C JUMPI DUP1 PUSH1 0x3 NOT CALLDATASIZE ADD SLT PUSH2 0x37C JUMPI PUSH1 0x20 PUSH1 0x40 MLOAD PUSH2 0x12C DUP2 MSTORE RETURN JUMPDEST POP CALLVALUE PUSH2 0x37C JUMPI PUSH1 0x20 SWAP1 PUSH1 0x20 PUSH1 0x3 NOT CALLDATASIZE ADD SLT PUSH2 0x37C JUMPI PUSH1 0x1 PUSH1 0x1 PUSH1 0x40 SHL SUB PUSH1 0x4 CALLDATALOAD DUP2 DUP2 GT PUSH2 0x378 JUMPI PUSH2 0x15D9 SWAP1 CALLDATASIZE SWAP1 PUSH1 0x4 ADD PUSH2 0x2B8A JUMP JUMPDEST SWAP1 SWAP2 PUSH2 0x15EF PUSH1 0x1 DUP1 PUSH1 0xA0 SHL SUB DUP6 SLOAD AND CALLER EQ PUSH2 0x49F1 JUMP JUMPDEST DUP2 GT PUSH2 0x364 JUMPI PUSH1 0x1 SWAP2 PUSH2 0x1602 DUP4 SLOAD PUSH2 0x2C14 JUMP JUMPDEST PUSH1 0x1F DUP2 GT PUSH2 0x16AB JUMPI JUMPDEST POP DUP4 SWAP5 PUSH1 0x1F DUP4 GT PUSH1 0x1 EQ PUSH2 0x1642 JUMPI POP DUP4 SWAP5 DUP3 SWAP2 PUSH2 0x163D SWAP5 SWAP6 SWAP3 PUSH2 0x2A5 JUMPI POP POP DUP2 PUSH1 0x1 SHL SWAP2 PUSH1 0x0 NOT SWAP1 PUSH1 0x3 SHL SHR NOT AND OR SWAP1 JUMP JUMPDEST SWAP1 SSTORE DUP1 RETURN JUMPDEST PUSH1 0x1F NOT DUP4 AND SWAP6 PUSH1 0x0 DUP1 MLOAD PUSH1 0x20 PUSH2 0x5293 DUP4 CODECOPY DUP2 MLOAD SWAP2 MSTORE SWAP3 SWAP2 DUP7 SWAP1 JUMPDEST DUP9 DUP3 LT PUSH2 0x1694 JUMPI POP POP DUP4 DUP6 SWAP7 SWAP8 LT PUSH2 0x167A JUMPI JUMPDEST POP POP POP DUP2 SHL ADD SWAP1 SSTORE DUP1 RETURN JUMPDEST ADD CALLDATALOAD PUSH1 0x0 NOT PUSH1 0x3 DUP5 SWAP1 SHL PUSH1 0xF8 AND SHR NOT AND SWAP1 SSTORE CODESIZE DUP1 DUP1 PUSH2 0x166F JUMP JUMPDEST DUP1 DUP8 DUP5 SWAP7 DUP3 SWAP5 SWAP6 DUP8 ADD CALLDATALOAD DUP2 SSTORE ADD SWAP6 ADD SWAP3 ADD SWAP1 PUSH2 0x165C JUMP JUMPDEST PUSH2 0x16DD SWAP1 PUSH1 0x0 DUP1 MLOAD PUSH1 0x20 PUSH2 0x5293 DUP4 CODECOPY DUP2 MLOAD SWAP2 MSTORE PUSH1 0x1F DUP6 ADD PUSH1 0x5 SHR DUP2 ADD SWAP2 PUSH1 0x20 DUP7 LT PUSH2 0x35A JUMPI PUSH1 0x1F ADD PUSH1 0x5 SHR ADD SWAP1 PUSH2 0x2F76 JUMP JUMPDEST CODESIZE PUSH2 0x160B JUMP JUMPDEST POP CALLVALUE PUSH2 0x37C JUMPI PUSH2 0x1703 PUSH2 0x16F5 CALLDATASIZE PUSH2 0x2B47 JUMP JUMPDEST SWAP3 SWAP1 SWAP2 PUSH2 0xCAF DUP5 ISZERO ISZERO PUSH2 0x2E19 JUMP JUMPDEST DUP1 DUP5 MSTORE PUSH1 0x3 PUSH1 0x20 MSTORE PUSH1 0x40 DUP5 KECCAK256 SLOAD SWAP1 SWAP3 SWAP1 PUSH2 0x1727 SWAP1 PUSH1 0x1 PUSH1 0x1 PUSH1 0xA0 SHL SUB AND CALLER EQ PUSH2 0x2E57 JUMP JUMPDEST DUP3 DUP5 MSTORE PUSH1 0x3 PUSH1 0x20 MSTORE PUSH1 0x40 DUP5 KECCAK256 PUSH1 0x5 ADD DUP5 JUMPDEST DUP3 DUP2 LT PUSH2 0x17D6 JUMPI POP SLOAD ISZERO PUSH2 0x177D JUMPI PUSH32 0x89216286BABE3A315DB35C8A44501C50B04E4AF6DB52228800178FA93ABBCFA6 SWAP2 PUSH2 0x1777 PUSH1 0x40 MLOAD SWAP3 DUP4 SWAP3 DUP4 PUSH2 0x2EBC JUMP JUMPDEST SUB SWAP1 LOG2 DUP1 RETURN JUMPDEST PUSH1 0x40 MLOAD PUSH3 0x461BCD PUSH1 0xE5 SHL DUP2 MSTORE PUSH1 0x20 PUSH1 0x4 DUP3 ADD MSTORE PUSH1 0x2B PUSH1 0x24 DUP3 ADD MSTORE PUSH32 0x564D3A2063616E6E6F742072656D6F766520616C6C20746F6B656E732066726F PUSH1 0x44 DUP3 ADD MSTORE PUSH11 0x1B48185B1B1BDDDB1A5CDD PUSH1 0xAA SHL PUSH1 0x64 DUP3 ADD MSTORE PUSH1 0x84 SWAP1 REVERT JUMPDEST DUP1 PUSH2 0x17F5 PUSH2 0x17EF PUSH2 0x17EA PUSH1 0x1 SWAP5 DUP8 DUP10 PUSH2 0x2E98 JUMP JUMPDEST PUSH2 0x2EA8 JUMP JUMPDEST DUP5 PUSH2 0x50E6 JUMP JUMPDEST ADD PUSH2 0x1738 JUMP JUMPDEST POP CALLVALUE PUSH2 0x37C JUMPI DUP1 PUSH1 0x3 NOT CALLDATASIZE ADD SLT PUSH2 0x37C JUMPI SLOAD PUSH1 0x40 MLOAD PUSH1 0x1 PUSH1 0x1 PUSH1 0xA0 SHL SUB SWAP1 SWAP2 AND DUP2 MSTORE PUSH1 0x20 SWAP1 RETURN JUMPDEST POP CALLVALUE PUSH2 0x37C JUMPI PUSH1 0x20 CALLDATASIZE PUSH1 0x3 NOT ADD SLT PUSH2 0x37C JUMPI PUSH1 0x40 PUSH1 0x20 SWAP2 PUSH1 0x4 CALLDATALOAD DUP2 MSTORE PUSH1 0x8 DUP4 MSTORE KECCAK256 SLOAD PUSH1 0x40 MLOAD SWAP1 DUP2 MSTORE RETURN JUMPDEST POP CALLVALUE PUSH2 0x37C JUMPI PUSH2 0x185B CALLDATASIZE PUSH2 0x2D5B JUMP JUMPDEST SWAP5 SWAP3 SWAP1 SWAP2 SWAP1 PUSH1 0x1 PUSH1 0x1 PUSH1 0xA0 SHL SUB DUP5 AND ISZERO ISZERO DUP1 PUSH2 0x1C06 JUMPI JUMPDEST ISZERO PUSH2 0x1BCC JUMPI PUSH1 0xFF DUP1 SWAP2 AND SWAP2 PUSH1 0x1 DUP4 LT ISZERO DUP1 PUSH2 0x1BC1 JUMPI JUMPDEST PUSH2 0x1891 SWAP1 PUSH2 0x4855 JUMP JUMPDEST AND SWAP5 PUSH1 0x1 DUP7 LT ISZERO DUP1 PUSH2 0x1BB6 JUMPI JUMPDEST PUSH2 0x18A7 SWAP1 PUSH2 0x4896 JUMP JUMPDEST PUSH2 0x18B2 DUP2 ISZERO ISZERO PUSH2 0x48D5 JUMP JUMPDEST PUSH2 0x18BD DUP6 ISZERO ISZERO PUSH2 0x4932 JUMP JUMPDEST PUSH2 0x18C7 DUP5 CALLER PUSH2 0x4A87 JUMP JUMPDEST DUP1 DUP9 MSTORE PUSH1 0x3 PUSH1 0x20 MSTORE PUSH1 0x40 DUP9 KECCAK256 SLOAD SWAP1 SWAP7 SWAP1 PUSH1 0x1 PUSH1 0x1 PUSH1 0xA0 SHL SUB AND PUSH2 0x1B71 JUMPI PUSH1 0x40 MLOAD PUSH4 0x23B872DD PUSH1 0xE0 SHL DUP2 MSTORE CALLER PUSH1 0x4 DUP3 ADD MSTORE ADDRESS PUSH1 0x24 DUP3 ADD MSTORE PUSH1 0x44 DUP2 ADD DUP8 SWAP1 MSTORE PUSH1 0x20 DUP2 PUSH1 0x64 DUP2 DUP13 PUSH1 0x1 PUSH1 0x1 PUSH1 0xA0 SHL SUB PUSH32 0x0 AND GAS CALL DUP1 ISZERO PUSH2 0x1B66 JUMPI PUSH2 0x194D SWAP2 DUP11 SWAP2 PUSH2 0x1B4D JUMPI POP PUSH2 0x4647 JUMP JUMPDEST PUSH1 0x40 MLOAD SWAP3 PUSH2 0x195A DUP5 PUSH2 0x2C4E JUMP JUMPDEST CALLER DUP5 MSTORE PUSH1 0x1 PUSH1 0x1 PUSH1 0xA0 SHL SUB DUP7 AND PUSH1 0x20 DUP6 ADD MSTORE PUSH1 0x40 DUP5 ADD DUP8 SWAP1 MSTORE PUSH1 0x60 DUP5 ADD DUP10 SWAP1 MSTORE PUSH1 0x80 DUP5 ADD MSTORE PUSH1 0xA0 DUP4 ADD MSTORE PUSH2 0x198D DUP2 PUSH2 0x4971 JUMP JUMPDEST SWAP3 PUSH2 0x199B PUSH1 0x40 MLOAD SWAP5 DUP6 PUSH2 0x2CB6 JUMP JUMPDEST DUP2 DUP5 MSTORE PUSH1 0x20 DUP5 ADD SWAP1 CALLDATASIZE DUP4 PUSH1 0x5 SHL DUP3 ADD GT PUSH2 0x1B49 JUMPI DUP1 SWAP2 JUMPDEST DUP4 PUSH1 0x5 SHL DUP3 ADD DUP4 LT PUSH2 0x1B31 JUMPI POP POP POP POP PUSH1 0xC0 DUP2 ADD SWAP2 DUP3 MSTORE PUSH1 0xE0 DUP2 ADD SWAP2 DUP7 DUP4 MSTORE DUP6 DUP8 MSTORE PUSH1 0x3 PUSH1 0x20 MSTORE PUSH1 0x40 DUP8 KECCAK256 SWAP1 PUSH1 0x1 DUP1 PUSH1 0xA0 SHL SUB DUP4 MLOAD AND PUSH1 0x1 PUSH1 0x1 PUSH1 0x60 SHL SUB PUSH1 0xA0 SHL SWAP1 DUP2 DUP5 SLOAD AND OR DUP4 SSTORE PUSH1 0x1 DUP4 ADD SWAP1 PUSH1 0x1 DUP1 PUSH1 0xA0 SHL SUB PUSH1 0x20 DUP7 ADD MLOAD AND SWAP1 DUP3 SLOAD AND OR SWAP1 SSTORE PUSH1 0x40 DUP4 ADD MLOAD PUSH1 0x2 DUP4 ADD SSTORE PUSH1 0x60 DUP4 ADD MLOAD PUSH1 0x3 DUP4 ADD SSTORE PUSH2 0x1A5D PUSH1 0x4 DUP4 ADD PUSH1 0xFF PUSH1 0xA0 DUP2 PUSH1 0x80 DUP9 ADD MLOAD AND SWAP7 DUP3 NOT SWAP8 DUP9 DUP6 SLOAD AND OR DUP5 SSTORE ADD MLOAD AND PUSH2 0xFF00 DUP3 SLOAD SWAP2 PUSH1 0x8 SHL AND SWAP1 PUSH2 0xFF00 NOT AND OR SWAP1 SSTORE JUMP JUMPDEST MLOAD DUP1 MLOAD SWAP1 PUSH1 0x5 DUP4 ADD SWAP1 PUSH1 0x1 PUSH1 0x1 PUSH1 0x40 SHL SUB DUP4 GT PUSH2 0x1B1D JUMPI PUSH1 0x20 SWAP1 PUSH2 0x1A81 DUP5 DUP5 PUSH2 0x4988 JUMP JUMPDEST ADD SWAP1 DUP10 MSTORE PUSH1 0x20 DUP10 KECCAK256 DUP10 JUMPDEST DUP4 DUP2 LT PUSH2 0x1B00 JUMPI POP POP POP POP PUSH1 0x6 ADD SWAP2 MLOAD SWAP1 PUSH1 0x3 DUP3 LT ISZERO PUSH2 0x576 JUMPI PUSH1 0xFF SWAP1 DUP4 SLOAD AND SWAP2 AND OR SWAP1 SSTORE CALLER DUP5 MSTORE PUSH1 0x5 PUSH1 0x20 MSTORE PUSH2 0x1AC5 DUP4 PUSH1 0x40 DUP7 KECCAK256 PUSH2 0x49BC JUMP JUMPDEST PUSH1 0x40 MLOAD SWAP2 DUP3 MSTORE PUSH1 0x1 PUSH1 0x1 PUSH1 0xA0 SHL SUB AND SWAP1 CALLER SWAP1 PUSH32 0x6195D111F124DC39CB1AB083F9F1B6664E415BF60B71499B3A4B24CF07C337A8 SWAP1 PUSH1 0x20 SWAP1 LOG4 DUP1 RETURN JUMPDEST DUP3 MLOAD PUSH1 0x1 PUSH1 0x1 PUSH1 0xA0 SHL SUB AND DUP2 DUP4 ADD SSTORE PUSH1 0x20 SWAP1 SWAP3 ADD SWAP2 PUSH1 0x1 ADD PUSH2 0x1A8B JUMP JUMPDEST PUSH4 0x4E487B71 PUSH1 0xE0 SHL DUP11 MSTORE PUSH1 0x41 PUSH1 0x4 MSTORE PUSH1 0x24 DUP11 REVERT JUMPDEST PUSH1 0x20 DUP1 SWAP2 PUSH2 0x1B3E DUP6 PUSH2 0x2B03 JUMP JUMPDEST DUP2 MSTORE ADD SWAP3 ADD SWAP2 PUSH2 0x19B2 JUMP JUMPDEST DUP9 DUP1 REVERT JUMPDEST PUSH2 0x111D SWAP2 POP PUSH1 0x20 RETURNDATASIZE PUSH1 0x20 GT PUSH2 0x1123 JUMPI PUSH2 0x1115 DUP2 DUP4 PUSH2 0x2CB6 JUMP JUMPDEST PUSH1 0x40 MLOAD RETURNDATASIZE DUP12 DUP3 RETURNDATACOPY RETURNDATASIZE SWAP1 REVERT JUMPDEST PUSH1 0x40 MLOAD PUSH3 0x461BCD PUSH1 0xE5 SHL DUP2 MSTORE PUSH1 0x20 PUSH1 0x4 DUP3 ADD MSTORE PUSH1 0x18 PUSH1 0x24 DUP3 ADD MSTORE PUSH32 0x564D3A207661756C7420616C7265616479206578697374730000000000000000 PUSH1 0x44 DUP3 ADD MSTORE PUSH1 0x64 SWAP1 REVERT JUMPDEST POP PUSH1 0x64 DUP7 GT ISZERO PUSH2 0x189E JUMP JUMPDEST POP PUSH1 0xA DUP4 GT ISZERO PUSH2 0x1888 JUMP JUMPDEST PUSH1 0x40 MLOAD PUSH3 0x461BCD PUSH1 0xE5 SHL DUP2 MSTORE PUSH1 0x20 PUSH1 0x4 DUP3 ADD MSTORE PUSH1 0x12 PUSH1 0x24 DUP3 ADD MSTORE PUSH18 0x2B269D1034B73B30B634B2103632B0B232B9 PUSH1 0x71 SHL PUSH1 0x44 DUP3 ADD MSTORE PUSH1 0x64 SWAP1 REVERT JUMPDEST POP PUSH1 0x1 PUSH1 0x1 PUSH1 0xA0 SHL SUB DUP5 AND CALLER EQ ISZERO PUSH2 0x1872 JUMP JUMPDEST POP CALLVALUE PUSH2 0x37C JUMPI PUSH1 0x20 CALLDATASIZE PUSH1 0x3 NOT ADD SLT PUSH2 0x37C JUMPI PUSH2 0x1C33 PUSH2 0x2AD2 JUMP JUMPDEST CALLER DUP1 DUP4 MSTORE PUSH1 0x7 PUSH1 0x20 MSTORE PUSH1 0x40 DUP4 KECCAK256 DUP1 SLOAD PUSH1 0x1 PUSH1 0x1 PUSH1 0xA0 SHL SUB NOT AND PUSH1 0x1 PUSH1 0x1 PUSH1 0xA0 SHL SUB SWAP1 SWAP4 AND SWAP3 DUP4 OR SWAP1 SSTORE PUSH32 0x50697E88BD427923002F5D3844F352091C05C0C9C3B69E43830863D222463173 DUP4 DUP1 LOG3 DUP1 RETURN JUMPDEST POP CALLVALUE PUSH2 0x37C JUMPI PUSH2 0x1CBA PUSH2 0x1C95 CALLDATASIZE PUSH2 0x2BB7 JUMP JUMPDEST SWAP2 PUSH2 0x1CB5 PUSH20 0x37BB9C718F3F7FE5ECBDB0B600D607B52706776 CALLER EQ PUSH2 0x2F08 JUMP JUMPDEST PUSH2 0x4713 JUMP JUMPDEST DUP1 RETURN JUMPDEST POP CALLVALUE PUSH2 0x37C JUMPI DUP1 PUSH1 0x3 NOT CALLDATASIZE ADD SLT PUSH2 0x37C JUMPI PUSH1 0x20 PUSH1 0x40 MLOAD PUSH3 0xF4240 DUP2 MSTORE RETURN JUMPDEST POP CALLVALUE PUSH2 0x37C JUMPI PUSH1 0x20 DUP1 PUSH1 0x3 NOT CALLDATASIZE ADD SLT PUSH2 0x8BA JUMPI PUSH1 0x1 PUSH1 0x1 PUSH1 0xA0 SHL SUB PUSH2 0x1CFE PUSH2 0x2AD2 JUMP JUMPDEST AND DUP3 MSTORE PUSH1 0x5 PUSH1 0x20 MSTORE PUSH1 0x40 DUP3 KECCAK256 SWAP2 PUSH1 0x40 MLOAD DUP1 SWAP3 PUSH1 0x20 DUP6 SLOAD SWAP3 DUP4 DUP2 MSTORE ADD SWAP5 DUP4 MSTORE PUSH1 0x20 DUP4 KECCAK256 SWAP3 SWAP1 JUMPDEST DUP3 DUP3 LT PUSH2 0x1D46 JUMPI PUSH2 0x491 DUP6 PUSH2 0x1D3A DUP2 DUP10 SUB DUP3 PUSH2 0x2CB6 JUMP JUMPDEST PUSH1 0x40 MLOAD SWAP2 DUP3 SWAP2 DUP3 PUSH2 0x2D1F JUMP JUMPDEST DUP4 SLOAD DUP7 MSTORE SWAP5 DUP6 ADD SWAP5 PUSH1 0x1 SWAP4 DUP5 ADD SWAP4 SWAP1 SWAP2 ADD SWAP1 PUSH2 0x1D23 JUMP JUMPDEST POP CALLVALUE PUSH2 0x37C JUMPI PUSH1 0x20 CALLDATASIZE PUSH1 0x3 NOT ADD SLT PUSH2 0x37C JUMPI PUSH1 0x20 SWAP1 PUSH1 0x40 SWAP1 PUSH1 0x1 PUSH1 0x1 PUSH1 0xA0 SHL SUB PUSH2 0x1D85 PUSH2 0x2AD2 JUMP JUMPDEST AND DUP2 MSTORE PUSH1 0xB DUP4 MSTORE KECCAK256 SLOAD PUSH1 0x40 MLOAD SWAP1 DUP2 MSTORE RETURN JUMPDEST POP CALLVALUE PUSH2 0x37C JUMPI PUSH1 0x20 DUP1 PUSH1 0x3 NOT CALLDATASIZE ADD SLT PUSH2 0x8BA JUMPI PUSH2 0x1DB4 PUSH2 0xCAF PUSH2 0x2AD2 JUMP JUMPDEST SWAP1 DUP2 DUP4 MSTORE PUSH1 0x3 DUP2 MSTORE PUSH1 0x40 DUP4 KECCAK256 PUSH1 0x1 DUP1 PUSH1 0xA0 SHL SUB PUSH2 0x1DD5 CALLER DUP3 DUP5 SLOAD AND EQ PUSH2 0x2E57 JUMP JUMPDEST PUSH1 0x6 DUP3 ADD DUP1 SLOAD SWAP3 PUSH1 0xFF DUP5 AND PUSH1 0x3 DUP2 LT ISZERO PUSH2 0x1FA0 JUMPI PUSH1 0x2 EQ PUSH2 0x1F66 JUMPI PUSH1 0x3 DUP2 ADD SLOAD PUSH2 0x1F21 JUMPI PUSH1 0x2 SWAP1 DUP2 ADD DUP1 SLOAD SWAP1 DUP9 SWAP1 SSTORE PUSH1 0xFF NOT SWAP5 SWAP1 SWAP5 AND OR SWAP1 SSTORE PUSH1 0x40 MLOAD PUSH4 0xA9059CBB PUSH1 0xE0 SHL DUP2 MSTORE CALLER PUSH1 0x4 DUP3 ADD MSTORE PUSH1 0x24 DUP2 ADD DUP4 SWAP1 MSTORE SWAP1 DUP4 SWAP1 DUP3 SWAP1 PUSH1 0x44 SWAP1 DUP3 SWAP1 DUP10 SWAP1 PUSH32 0x0 AND GAS CALL SWAP1 DUP2 ISZERO PUSH2 0x1F16 JUMPI DUP6 SWAP2 PUSH2 0x1EF9 JUMPI JUMPDEST POP ISZERO PUSH2 0x1EBE JUMPI DUP3 SWAP2 PUSH32 0x1DE10DC7ADF633383767E576A9953D1B3C4F31A05C1635D7656D25604ACA6B1F SWAP2 PUSH1 0x40 MLOAD SWAP1 DUP2 MSTORE LOG2 PUSH32 0xD06EF1BE920EAF099A4E446EC48846ABAE39F5EB6B0877FEA0913A68731AF551 DUP3 DUP1 LOG2 DUP1 RETURN JUMPDEST PUSH1 0x40 MLOAD PUSH3 0x461BCD PUSH1 0xE5 SHL DUP2 MSTORE PUSH1 0x4 DUP2 ADD DUP4 SWAP1 MSTORE PUSH1 0x13 PUSH1 0x24 DUP3 ADD MSTORE PUSH19 0x15934E881DDA5D1A191C985DC819985A5B1959 PUSH1 0x6A SHL PUSH1 0x44 DUP3 ADD MSTORE PUSH1 0x64 SWAP1 REVERT JUMPDEST PUSH2 0x1F10 SWAP2 POP DUP4 RETURNDATASIZE DUP6 GT PUSH2 0x1123 JUMPI PUSH2 0x1115 DUP2 DUP4 PUSH2 0x2CB6 JUMP JUMPDEST CODESIZE PUSH2 0x1E66 JUMP JUMPDEST PUSH1 0x40 MLOAD RETURNDATASIZE DUP8 DUP3 RETURNDATACOPY RETURNDATASIZE SWAP1 REVERT JUMPDEST PUSH1 0x40 MLOAD PUSH3 0x461BCD PUSH1 0xE5 SHL DUP2 MSTORE PUSH1 0x4 DUP2 ADD DUP7 SWAP1 MSTORE PUSH1 0x1E PUSH1 0x24 DUP3 ADD MSTORE PUSH32 0x564D3A20636C6F7365206F70656E20706F736974696F6E732066697273740000 PUSH1 0x44 DUP3 ADD MSTORE PUSH1 0x64 SWAP1 REVERT JUMPDEST PUSH1 0x40 MLOAD PUSH3 0x461BCD PUSH1 0xE5 SHL DUP2 MSTORE PUSH1 0x4 DUP2 ADD DUP7 SWAP1 MSTORE PUSH1 0x12 PUSH1 0x24 DUP3 ADD MSTORE PUSH18 0x15934E88185B1C9958591E4818DB1BDCD959 PUSH1 0x72 SHL PUSH1 0x44 DUP3 ADD MSTORE PUSH1 0x64 SWAP1 REVERT JUMPDEST PUSH4 0x4E487B71 PUSH1 0xE0 SHL DUP9 MSTORE PUSH1 0x21 PUSH1 0x4 MSTORE PUSH1 0x24 DUP9 REVERT JUMPDEST POP CALLVALUE PUSH2 0x37C JUMPI PUSH1 0x20 CALLDATASIZE PUSH1 0x3 NOT ADD SLT PUSH2 0x37C JUMPI PUSH1 0x4 CALLDATALOAD DUP2 MSTORE PUSH1 0x4 PUSH1 0x20 MSTORE PUSH1 0x40 DUP2 KECCAK256 PUSH1 0x1 DUP1 PUSH1 0xA0 SHL SUB DUP1 DUP3 SLOAD AND SWAP2 DUP2 PUSH1 0x1 DUP3 ADD SLOAD AND SWAP2 PUSH1 0x2 DUP3 ADD SLOAD SWAP1 PUSH1 0x3 DUP4 ADD SLOAD AND PUSH1 0x4 DUP4 ADD SLOAD PUSH1 0x5 DUP5 ADD SLOAD PUSH1 0x6 DUP6 ADD SLOAD SWAP2 PUSH1 0x7 DUP7 ADD SLOAD SWAP4 PUSH1 0xFF PUSH1 0x8 DUP9 ADD SLOAD AND SWAP6 PUSH1 0xA PUSH1 0x9 DUP10 ADD SLOAD SWAP9 ADD SLOAD SWAP9 PUSH1 0x40 MLOAD SWAP11 DUP12 MSTORE PUSH1 0x20 DUP12 ADD MSTORE PUSH1 0x40 DUP11 ADD MSTORE PUSH1 0x60 DUP10 ADD MSTORE PUSH1 0x80 DUP9 ADD MSTORE PUSH1 0xA0 DUP8 ADD MSTORE PUSH1 0xC0 DUP7 ADD MSTORE PUSH1 0xE0 DUP6 ADD MSTORE PUSH1 0x2 DUP2 LT ISZERO PUSH2 0x2069 JUMPI PUSH2 0x160 SWAP5 POP PUSH2 0x100 DUP5 ADD MSTORE PUSH2 0x120 DUP4 ADD MSTORE PUSH2 0x140 DUP3 ADD MSTORE RETURN JUMPDEST PUSH4 0x4E487B71 PUSH1 0xE0 SHL DUP6 MSTORE PUSH1 0x21 PUSH1 0x4 MSTORE PUSH1 0x24 DUP6 REVERT JUMPDEST POP CALLVALUE PUSH2 0x37C JUMPI PUSH1 0x20 CALLDATASIZE PUSH1 0x3 NOT ADD SLT PUSH2 0x37C JUMPI PUSH2 0x209A PUSH2 0xCAF PUSH2 0x2AD2 JUMP JUMPDEST DUP1 DUP3 MSTORE PUSH1 0x3 PUSH1 0x20 MSTORE PUSH1 0x40 DUP3 KECCAK256 SLOAD PUSH2 0x20BB SWAP1 PUSH1 0x1 PUSH1 0x1 PUSH1 0xA0 SHL SUB AND CALLER EQ PUSH2 0x2E57 JUMP JUMPDEST DUP1 DUP3 MSTORE PUSH1 0x3 PUSH1 0x20 MSTORE PUSH1 0xFF PUSH1 0x6 PUSH1 0x40 DUP5 KECCAK256 ADD SLOAD AND PUSH1 0x3 DUP2 LT ISZERO PUSH2 0xD6D JUMPI PUSH1 0x1 SUB PUSH2 0x211C JUMPI DUP1 DUP3 MSTORE PUSH1 0x3 PUSH1 0x20 MSTORE PUSH1 0x40 DUP3 KECCAK256 PUSH1 0x6 ADD DUP1 SLOAD PUSH1 0xFF NOT AND SWAP1 SSTORE PUSH32 0xA7B437A7C0BE1EAAAD481743F822ACF86D00E9707A0C18A609F0E3AD97370BA8 DUP3 DUP1 LOG2 DUP1 RETURN JUMPDEST PUSH1 0x40 MLOAD PUSH3 0x461BCD PUSH1 0xE5 SHL DUP2 MSTORE PUSH1 0x20 PUSH1 0x4 DUP3 ADD MSTORE PUSH1 0xE PUSH1 0x24 DUP3 ADD MSTORE PUSH14 0x15934E881B9BDD081C185D5CD959 PUSH1 0x92 SHL PUSH1 0x44 DUP3 ADD MSTORE PUSH1 0x64 SWAP1 REVERT JUMPDEST POP PUSH1 0x40 CALLDATASIZE PUSH1 0x3 NOT ADD SLT PUSH2 0x37C JUMPI PUSH2 0x2167 PUSH2 0x2AD2 JUMP JUMPDEST PUSH2 0x219B PUSH2 0x2172 PUSH2 0x2AED JUMP JUMPDEST SWAP2 DUP3 SWAP1 PUSH2 0x2196 CALLER PUSH1 0x1 PUSH1 0x1 PUSH1 0xA0 SHL SUB DUP1 DUP5 AND SWAP2 DUP3 EQ SWAP2 DUP3 ISZERO PUSH2 0x25BE JUMPI JUMPDEST POP POP PUSH2 0x4688 JUMP JUMPDEST PUSH2 0x4A87 JUMP JUMPDEST SWAP1 DUP2 DUP4 MSTORE PUSH1 0x20 PUSH1 0x3 DUP2 MSTORE PUSH1 0x40 DUP5 KECCAK256 PUSH1 0xFF PUSH1 0x6 DUP3 ADD SLOAD AND PUSH1 0x3 DUP2 LT ISZERO PUSH2 0x8A6 JUMPI PUSH2 0x2582 JUMPI DUP4 DUP6 MSTORE PUSH1 0xA DUP3 MSTORE PUSH1 0x40 DUP6 KECCAK256 SLOAD DUP1 ISZERO SWAP1 DUP2 ISZERO PUSH2 0x256C JUMPI JUMPDEST POP ISZERO PUSH2 0x2527 JUMPI PUSH2 0x21E7 PUSH3 0xF4240 SWAP2 PUSH2 0x4B30 JUMP JUMPDEST GT ISZERO PUSH2 0x24E3 JUMPI DUP3 DUP5 MSTORE PUSH1 0xA DUP2 MSTORE PUSH1 0x40 DUP1 DUP6 KECCAK256 TIMESTAMP SWAP1 SSTORE MLOAD PUSH4 0xFFEB17D PUSH1 0xE1 SHL DUP2 MSTORE SWAP2 PUSH20 0x37BB9C718F3F7FE5ECBDB0B600D607B52706776 SWAP1 DUP3 DUP5 PUSH1 0x4 DUP2 DUP6 GAS STATICCALL SWAP4 DUP5 ISZERO PUSH2 0x1546 JUMPI DUP7 SWAP5 PUSH2 0x24B4 JUMPI JUMPDEST POP PUSH8 0x13FBE85EDC90000 DUP5 ADD SWAP4 DUP5 DUP2 GT PUSH2 0x24A0 JUMPI PUSH8 0x2EA11E32AD50000 DUP2 ADD DUP1 SWAP2 GT PUSH2 0x24A0 JUMPI PUSH2 0x2264 SWAP1 DUP6 PUSH2 0x2FC0 JUMP JUMPDEST CALLVALUE LT PUSH2 0x2441 JUMPI PUSH2 0x2274 DUP4 SWAP2 PUSH2 0x4B82 JUMP JUMPDEST SWAP2 PUSH1 0x40 MLOAD DUP8 SWAP4 PUSH1 0x1 DUP1 SLOAD SWAP1 PUSH2 0x2288 DUP3 PUSH2 0x2C14 JUMP JUMPDEST SWAP2 PUSH1 0x1 DUP2 AND SWAP1 DUP2 ISZERO PUSH2 0x2425 JUMPI POP PUSH1 0x1 EQ PUSH2 0x23DF JUMPI JUMPDEST POP POP PUSH1 0xC DUP3 DUP6 DUP8 PUSH2 0x22BB DUP6 PUSH2 0x2368 SWAP10 SWAP11 PUSH2 0x22DD SWAP8 MLOAD SWAP5 DUP6 SWAP3 ADD PUSH2 0x2CD7 JUMP JUMPDEST ADD PUSH12 0x2F6C61746573742D7377617 PUSH1 0xA4 SHL DUP2 MSTORE SUB PUSH1 0x13 NOT DUP2 ADD DUP5 MSTORE ADD DUP3 PUSH2 0x2CB6 JUMP JUMPDEST PUSH2 0x2321 PUSH1 0x40 PUSH2 0x22F7 DUP2 MLOAD SWAP4 DUP3 DUP9 DUP7 ADD MSTORE PUSH1 0x60 DUP6 ADD SWAP1 PUSH2 0x2CFA JUMP JUMPDEST PUSH6 0x242E7377617 PUSH1 0xD4 SHL DUP8 DUP6 DUP4 SUB SWAP3 PUSH1 0x1F NOT DUP5 ADD DUP6 DUP9 ADD MSTORE PUSH1 0x6 DUP2 MSTORE ADD MSTORE DUP7 DUP2 ADD DUP5 MSTORE ADD DUP3 PUSH2 0x2CB6 JUMP JUMPDEST PUSH1 0x40 MLOAD PUSH4 0x45DE5DF1 PUSH1 0xE1 SHL DUP2 MSTORE PUSH8 0xB6D47DA8DBBCB1B1 PUSH1 0x4 DUP3 ADD MSTORE ADDRESS PUSH1 0x24 DUP3 ADD MSTORE PUSH4 0x1F275413 PUSH1 0xE0 SHL PUSH1 0x44 DUP3 ADD MSTORE PUSH1 0x80 PUSH1 0x64 DUP3 ADD MSTORE SWAP6 DUP7 SWAP4 DUP5 SWAP3 DUP4 SWAP2 SWAP1 PUSH1 0x84 DUP4 ADD SWAP1 PUSH2 0x2CFA JUMP JUMPDEST SUB SWAP3 GAS CALL SWAP2 DUP3 ISZERO PUSH2 0x144F JUMPI DUP5 SWAP3 PUSH2 0x23AF JUMPI JUMPDEST POP PUSH1 0x8 SWAP1 DUP3 DUP6 MSTORE MSTORE DUP2 PUSH1 0x40 DUP5 KECCAK256 SSTORE PUSH32 0x7D0D4A45B610C689953AC3D1DF4E7739F7BA0E76107B191B9170D4EB27B90B4E DUP4 DUP1 LOG3 DUP1 RETURN JUMPDEST SWAP1 DUP1 SWAP3 POP DUP2 DUP2 RETURNDATASIZE DUP4 GT PUSH2 0x23D8 JUMPI JUMPDEST PUSH2 0x23C7 DUP2 DUP4 PUSH2 0x2CB6 JUMP JUMPDEST DUP2 ADD SUB SLT PUSH2 0xB32 JUMPI MLOAD SWAP1 PUSH1 0x8 PUSH2 0x237A JUMP JUMPDEST POP RETURNDATASIZE PUSH2 0x23BD JUMP JUMPDEST PUSH1 0x1 DUP12 MSTORE SWAP1 SWAP6 POP DUP10 SWAP1 PUSH1 0x0 DUP1 MLOAD PUSH1 0x20 PUSH2 0x5293 DUP4 CODECOPY DUP2 MLOAD SWAP2 MSTORE JUMPDEST DUP8 DUP4 LT PUSH2 0x2410 JUMPI POP POP POP SWAP4 DUP2 ADD DUP4 ADD SWAP4 PUSH1 0xC DUP3 PUSH2 0x229D JUMP JUMPDEST DUP1 SLOAD DUP6 DUP5 ADD DUP9 ADD MSTORE DUP9 SWAP7 SWAP1 SWAP3 ADD SWAP2 DUP2 ADD PUSH2 0x23F8 JUMP JUMPDEST PUSH1 0xFF NOT AND DUP6 DUP9 ADD MSTORE POP POP DUP1 ISZERO ISZERO MUL DUP3 ADD DUP5 ADD SWAP5 POP PUSH1 0xC DUP3 PUSH2 0x229D JUMP JUMPDEST PUSH1 0x40 MLOAD PUSH3 0x461BCD PUSH1 0xE5 SHL DUP2 MSTORE PUSH1 0x4 DUP2 ADD DUP5 SWAP1 MSTORE PUSH1 0x31 PUSH1 0x24 DUP3 ADD MSTORE PUSH32 0x564D3A20696E73756666696369656E74206465706F73697420286E656564203E PUSH1 0x44 DUP3 ADD MSTORE PUSH17 0x3D206A736F6E4665652B6C6C6D46656529 PUSH1 0x78 SHL PUSH1 0x64 DUP3 ADD MSTORE PUSH1 0x84 SWAP1 REVERT JUMPDEST PUSH4 0x4E487B71 PUSH1 0xE0 SHL DUP8 MSTORE PUSH1 0x11 PUSH1 0x4 MSTORE PUSH1 0x24 DUP8 REVERT JUMPDEST SWAP1 SWAP4 POP DUP3 DUP2 DUP2 RETURNDATASIZE DUP4 GT PUSH2 0x24DC JUMPI JUMPDEST PUSH2 0x24CC DUP2 DUP4 PUSH2 0x2CB6 JUMP JUMPDEST DUP2 ADD SUB SLT PUSH2 0x153B JUMPI MLOAD SWAP3 CODESIZE PUSH2 0x2234 JUMP JUMPDEST POP RETURNDATASIZE PUSH2 0x24C2 JUMP JUMPDEST PUSH1 0x64 SWAP1 PUSH1 0x40 MLOAD SWAP1 PUSH3 0x461BCD PUSH1 0xE5 SHL DUP3 MSTORE PUSH1 0x4 DUP3 ADD MSTORE PUSH1 0x1D PUSH1 0x24 DUP3 ADD MSTORE PUSH32 0x564D3A20696E73756666696369656E7420667265652062616C616E6365000000 PUSH1 0x44 DUP3 ADD MSTORE REVERT JUMPDEST PUSH1 0x40 MLOAD PUSH3 0x461BCD PUSH1 0xE5 SHL DUP2 MSTORE PUSH1 0x4 DUP2 ADD DUP4 SWAP1 MSTORE PUSH1 0x1C PUSH1 0x24 DUP3 ADD MSTORE PUSH32 0x564D3A20706970656C696E6520616C72656164792072756E6E696E6700000000 PUSH1 0x44 DUP3 ADD MSTORE PUSH1 0x64 SWAP1 REVERT JUMPDEST SWAP1 POP PUSH2 0x258 DUP2 ADD DUP1 SWAP2 GT PUSH2 0xA19 JUMPI TIMESTAMP GT CODESIZE PUSH2 0x21D4 JUMP JUMPDEST PUSH1 0x40 MLOAD PUSH3 0x461BCD PUSH1 0xE5 SHL DUP2 MSTORE PUSH1 0x4 DUP2 ADD DUP4 SWAP1 MSTORE PUSH1 0x14 PUSH1 0x24 DUP3 ADD MSTORE PUSH20 0x564D3A207661756C74206E6F7420616374697665 PUSH1 0x60 SHL PUSH1 0x44 DUP3 ADD MSTORE PUSH1 0x64 SWAP1 REVERT JUMPDEST SWAP1 SWAP2 POP DUP8 MSTORE PUSH1 0x7 PUSH1 0x20 MSTORE PUSH1 0x40 DUP8 KECCAK256 SLOAD AND CALLER EQ CODESIZE DUP1 PUSH2 0x218F JUMP JUMPDEST POP CALLVALUE PUSH2 0x37C JUMPI PUSH1 0x40 CALLDATASIZE PUSH1 0x3 NOT ADD SLT PUSH2 0x37C JUMPI PUSH2 0x25F1 PUSH2 0x2AD2 JUMP JUMPDEST PUSH2 0x25FE PUSH1 0x24 CALLDATALOAD SWAP2 CALLER PUSH2 0x4A87 JUMP JUMPDEST SWAP1 DUP2 DUP4 MSTORE PUSH1 0x20 PUSH1 0x3 DUP2 MSTORE PUSH1 0xFF PUSH1 0x6 PUSH1 0x40 DUP7 KECCAK256 ADD SLOAD AND PUSH1 0x3 DUP2 LT ISZERO PUSH2 0x2069 JUMPI PUSH1 0x2 EQ PUSH2 0x2727 JUMPI DUP2 ISZERO PUSH2 0x26F1 JUMPI PUSH1 0x40 MLOAD PUSH4 0x23B872DD PUSH1 0xE0 SHL DUP2 MSTORE CALLER PUSH1 0x4 DUP3 ADD MSTORE ADDRESS PUSH1 0x24 DUP3 ADD MSTORE PUSH1 0x44 DUP2 ADD DUP4 SWAP1 MSTORE SWAP2 DUP2 DUP4 PUSH1 0x64 DUP2 DUP9 PUSH1 0x1 PUSH1 0x1 PUSH1 0xA0 SHL SUB PUSH32 0x0 AND GAS CALL SWAP3 DUP4 ISZERO PUSH2 0x1F16 JUMPI PUSH32 0xF4D5F4313DB9D90750B55863740862117F1A26005F470DF515D532580BE167B2 SWAP4 PUSH2 0x26B5 SWAP2 DUP8 SWAP2 PUSH2 0x26DA JUMPI POP PUSH2 0x4647 JUMP JUMPDEST DUP4 DUP6 MSTORE PUSH1 0x3 DUP3 MSTORE PUSH1 0x2 PUSH1 0x40 DUP7 KECCAK256 ADD PUSH2 0x26CE DUP3 DUP3 SLOAD PUSH2 0x2FC0 JUMP JUMPDEST SWAP1 SSTORE PUSH1 0x40 MLOAD SWAP1 DUP2 MSTORE LOG2 DUP1 RETURN JUMPDEST PUSH2 0x111D SWAP2 POP DUP5 RETURNDATASIZE DUP7 GT PUSH2 0x1123 JUMPI PUSH2 0x1115 DUP2 DUP4 PUSH2 0x2CB6 JUMP JUMPDEST PUSH1 0x64 SWAP1 PUSH1 0x40 MLOAD SWAP1 PUSH3 0x461BCD PUSH1 0xE5 SHL DUP3 MSTORE PUSH1 0x4 DUP3 ADD MSTORE PUSH1 0xF PUSH1 0x24 DUP3 ADD MSTORE PUSH15 0x15934E881E995C9BC8185B5BDD5B9D PUSH1 0x8A SHL PUSH1 0x44 DUP3 ADD MSTORE REVERT JUMPDEST PUSH1 0x64 SWAP1 PUSH1 0x40 MLOAD SWAP1 PUSH3 0x461BCD PUSH1 0xE5 SHL DUP3 MSTORE PUSH1 0x4 DUP3 ADD MSTORE PUSH1 0x10 PUSH1 0x24 DUP3 ADD MSTORE PUSH16 0x15934E881D985D5B1D0818DB1BDCD959 PUSH1 0x82 SHL PUSH1 0x44 DUP3 ADD MSTORE REVERT JUMPDEST POP CALLVALUE PUSH2 0x37C JUMPI PUSH1 0x20 CALLDATASIZE PUSH1 0x3 NOT ADD SLT PUSH2 0x37C JUMPI PUSH1 0x20 SWAP1 PUSH1 0x1 PUSH1 0x1 PUSH1 0xA0 SHL SUB SWAP1 PUSH1 0x40 SWAP1 DUP3 PUSH2 0x2788 PUSH2 0x2AD2 JUMP JUMPDEST AND DUP2 MSTORE PUSH1 0x7 DUP5 MSTORE KECCAK256 SLOAD AND PUSH1 0x40 MLOAD SWAP1 DUP2 MSTORE RETURN JUMPDEST POP CALLVALUE PUSH2 0x37C JUMPI DUP1 PUSH1 0x3 NOT CALLDATASIZE ADD SLT PUSH2 0x37C JUMPI PUSH1 0x40 MLOAD PUSH32 0x0 PUSH1 0x1 PUSH1 0x1 PUSH1 0xA0 SHL SUB AND DUP2 MSTORE PUSH1 0x20 SWAP1 RETURN JUMPDEST POP CALLVALUE PUSH2 0x37C JUMPI DUP1 PUSH1 0x3 NOT CALLDATASIZE ADD SLT PUSH2 0x37C JUMPI PUSH1 0x20 PUSH1 0x40 MLOAD PUSH8 0xB24AC1AFBCEFC708 DUP2 MSTORE RETURN JUMPDEST POP CALLVALUE PUSH2 0x37C JUMPI DUP1 PUSH1 0x3 NOT CALLDATASIZE ADD SLT PUSH2 0x37C JUMPI PUSH1 0x40 MLOAD SWAP1 DUP1 DUP3 PUSH1 0x1 SWAP3 PUSH1 0x1 SLOAD SWAP4 PUSH2 0x2829 DUP6 PUSH2 0x2C14 JUMP JUMPDEST SWAP4 DUP5 DUP5 MSTORE PUSH1 0x20 SWAP6 DUP7 PUSH1 0x1 DUP3 AND SWAP2 DUP3 PUSH1 0x0 EQ PUSH2 0x1267 JUMPI POP POP PUSH1 0x1 EQ PUSH2 0x2855 JUMPI POP POP PUSH2 0x120B SWAP3 POP SUB DUP4 PUSH2 0x2CB6 JUMP JUMPDEST SWAP1 DUP6 SWAP3 POP PUSH1 0x1 DUP3 MSTORE PUSH1 0x0 DUP1 MLOAD PUSH1 0x20 PUSH2 0x5293 DUP4 CODECOPY DUP2 MLOAD SWAP2 MSTORE JUMPDEST DUP6 DUP4 LT PUSH2 0x2885 JUMPI POP POP PUSH2 0x120B SWAP4 POP DUP3 ADD ADD CODESIZE DUP1 PUSH2 0x11FD JUMP JUMPDEST DUP1 SLOAD DUP4 DUP10 ADD DUP6 ADD MSTORE DUP8 SWAP5 POP DUP7 SWAP4 SWAP1 SWAP3 ADD SWAP2 DUP2 ADD PUSH2 0x286D JUMP JUMPDEST POP CALLVALUE PUSH2 0x37C JUMPI PUSH1 0x40 CALLDATASIZE PUSH1 0x3 NOT ADD SLT PUSH2 0x37C JUMPI PUSH2 0x28B7 PUSH2 0x2AD2 JUMP JUMPDEST PUSH1 0x1 PUSH1 0x1 PUSH1 0xA0 SHL SUB AND DUP2 MSTORE PUSH1 0x5 PUSH1 0x20 MSTORE PUSH1 0x40 DUP2 KECCAK256 DUP1 SLOAD PUSH1 0x24 CALLDATALOAD SWAP3 SWAP1 DUP4 LT ISZERO PUSH2 0x37C JUMPI PUSH1 0x20 PUSH2 0xC84 DUP5 DUP5 PUSH2 0x2BE6 JUMP JUMPDEST POP CALLVALUE PUSH2 0x37C JUMPI PUSH2 0x1CBA PUSH2 0x28F7 CALLDATASIZE PUSH2 0x2BB7 JUMP JUMPDEST SWAP2 PUSH2 0x2917 PUSH20 0x37BB9C718F3F7FE5ECBDB0B600D607B52706776 CALLER EQ PUSH2 0x2F08 JUMP JUMPDEST PUSH2 0x2FCD JUMP JUMPDEST POP CALLVALUE PUSH2 0x37C JUMPI PUSH2 0x293E SWAP1 PUSH2 0x292F CALLDATASIZE PUSH2 0x2B47 JUMP JUMPDEST SWAP2 PUSH2 0xCAF DUP4 SWAP6 SWAP3 SWAP6 ISZERO ISZERO PUSH2 0x2E19 JUMP JUMPDEST SWAP1 DUP2 DUP4 MSTORE PUSH1 0x20 SWAP4 PUSH1 0x3 PUSH1 0x20 MSTORE PUSH1 0x1 DUP1 PUSH1 0xA0 SHL SUB PUSH2 0x2962 CALLER DUP3 PUSH1 0x40 DUP9 KECCAK256 SLOAD AND EQ PUSH2 0x2E57 JUMP JUMPDEST DUP4 DUP6 MSTORE PUSH1 0x3 PUSH1 0x20 MSTORE PUSH1 0x40 DUP6 KECCAK256 PUSH1 0x5 ADD SWAP6 DUP6 JUMPDEST DUP5 DUP2 LT PUSH2 0x29B0 JUMPI POP POP POP SWAP1 PUSH32 0x6DAA1FF9696B2F02619A3F88B4B180EF2A65D070354484A2689F745BD640B764 SWAP2 PUSH2 0x1777 PUSH1 0x40 MLOAD SWAP3 DUP4 SWAP3 DUP4 PUSH2 0x2EBC JUMP JUMPDEST DUP3 PUSH2 0x29BF PUSH2 0x17EA DUP4 DUP9 DUP9 PUSH2 0x2E98 JUMP JUMPDEST AND ISZERO PUSH2 0x2A55 JUMPI PUSH2 0x29DC PUSH2 0x29D6 PUSH2 0x17EA DUP4 DUP9 DUP9 PUSH2 0x2E98 JUMP JUMPDEST DUP10 PUSH2 0x4AE5 JUMP JUMPDEST ISZERO PUSH2 0x29EA JUMPI JUMPDEST PUSH1 0x1 ADD PUSH2 0x2974 JUMP JUMPDEST PUSH2 0x29F8 PUSH2 0x17EA DUP3 DUP8 DUP8 PUSH2 0x2E98 JUMP JUMPDEST DUP9 SLOAD PUSH1 0x1 PUSH1 0x40 SHL DUP2 LT ISZERO PUSH2 0x2A41 JUMPI PUSH1 0x1 SWAP3 SWAP2 PUSH2 0x2A1C DUP3 DUP6 PUSH2 0x2A3A SWAP5 ADD DUP14 SSTORE DUP13 PUSH2 0x2BE6 JUMP JUMPDEST SWAP1 SWAP2 SWAP1 PUSH1 0x1 DUP1 PUSH1 0xA0 SHL SUB DUP1 DUP5 SLOAD SWAP3 PUSH1 0x3 SHL SWAP4 AND DUP4 SHL SWAP3 SHL NOT AND OR SWAP1 SSTORE JUMP JUMPDEST SWAP1 POP PUSH2 0x29E2 JUMP JUMPDEST PUSH4 0x4E487B71 PUSH1 0xE0 SHL DUP10 MSTORE PUSH1 0x41 PUSH1 0x4 MSTORE PUSH1 0x24 DUP10 REVERT JUMPDEST PUSH1 0x40 MLOAD PUSH3 0x461BCD PUSH1 0xE5 SHL DUP2 MSTORE PUSH1 0x4 DUP2 ADD DUP4 SWAP1 MSTORE PUSH1 0x16 PUSH1 0x24 DUP3 ADD MSTORE PUSH22 0x564D3A207A65726F20746F6B656E2061646472657373 PUSH1 0x50 SHL PUSH1 0x44 DUP3 ADD MSTORE PUSH1 0x64 SWAP1 REVERT JUMPDEST POP CALLVALUE PUSH2 0x37C JUMPI DUP1 PUSH1 0x3 NOT CALLDATASIZE ADD SLT PUSH2 0x37C JUMPI PUSH1 0x20 PUSH1 0x40 MLOAD PUSH2 0x258 DUP2 MSTORE RETURN JUMPDEST SWAP1 POP CALLVALUE PUSH2 0x8BA JUMPI DUP2 PUSH1 0x3 NOT CALLDATASIZE ADD SLT PUSH2 0x8BA JUMPI DUP1 PUSH8 0xB6D47DA8DBBCB1B1 PUSH1 0x20 SWAP3 MSTORE RETURN JUMPDEST PUSH1 0x4 CALLDATALOAD SWAP1 PUSH1 0x1 PUSH1 0x1 PUSH1 0xA0 SHL SUB DUP3 AND DUP3 SUB PUSH2 0x2AE8 JUMPI JUMP JUMPDEST PUSH1 0x0 DUP1 REVERT JUMPDEST PUSH1 0x24 CALLDATALOAD SWAP1 PUSH1 0x1 PUSH1 0x1 PUSH1 0xA0 SHL SUB DUP3 AND DUP3 SUB PUSH2 0x2AE8 JUMPI JUMP JUMPDEST CALLDATALOAD SWAP1 PUSH1 0x1 PUSH1 0x1 PUSH1 0xA0 SHL SUB DUP3 AND DUP3 SUB PUSH2 0x2AE8 JUMPI JUMP JUMPDEST SWAP2 DUP2 PUSH1 0x1F DUP5 ADD SLT ISZERO PUSH2 0x2AE8 JUMPI DUP3 CALLDATALOAD SWAP2 PUSH1 0x1 PUSH1 0x1 PUSH1 0x40 SHL SUB DUP4 GT PUSH2 0x2AE8 JUMPI PUSH1 0x20 DUP1 DUP6 ADD SWAP5 DUP5 PUSH1 0x5 SHL ADD ADD GT PUSH2 0x2AE8 JUMPI JUMP JUMPDEST SWAP1 PUSH1 0x40 PUSH1 0x3 NOT DUP4 ADD SLT PUSH2 0x2AE8 JUMPI PUSH1 0x4 CALLDATALOAD PUSH1 0x1 PUSH1 0x1 PUSH1 0xA0 SHL SUB DUP2 AND DUP2 SUB PUSH2 0x2AE8 JUMPI SWAP2 PUSH1 0x24 CALLDATALOAD SWAP1 PUSH1 0x1 PUSH1 0x1 PUSH1 0x40 SHL SUB DUP3 GT PUSH2 0x2AE8 JUMPI PUSH2 0x2B86 SWAP2 PUSH1 0x4 ADD PUSH2 0x2B17 JUMP JUMPDEST SWAP1 SWAP2 JUMP JUMPDEST SWAP2 DUP2 PUSH1 0x1F DUP5 ADD SLT ISZERO PUSH2 0x2AE8 JUMPI DUP3 CALLDATALOAD SWAP2 PUSH1 0x1 PUSH1 0x1 PUSH1 0x40 SHL SUB DUP4 GT PUSH2 0x2AE8 JUMPI PUSH1 0x20 DUP4 DUP2 DUP7 ADD SWAP6 ADD ADD GT PUSH2 0x2AE8 JUMPI JUMP JUMPDEST SWAP1 PUSH1 0x40 PUSH1 0x3 NOT DUP4 ADD SLT PUSH2 0x2AE8 JUMPI PUSH1 0x4 CALLDATALOAD SWAP2 PUSH1 0x24 CALLDATALOAD SWAP1 PUSH1 0x1 PUSH1 0x1 PUSH1 0x40 SHL SUB DUP3 GT PUSH2 0x2AE8 JUMPI PUSH2 0x2B86 SWAP2 PUSH1 0x4 ADD PUSH2 0x2B8A JUMP JUMPDEST DUP1 SLOAD DUP3 LT ISZERO PUSH2 0x2BFE JUMPI PUSH1 0x0 MSTORE PUSH1 0x20 PUSH1 0x0 KECCAK256 ADD SWAP1 PUSH1 0x0 SWAP1 JUMP JUMPDEST PUSH4 0x4E487B71 PUSH1 0xE0 SHL PUSH1 0x0 MSTORE PUSH1 0x32 PUSH1 0x4 MSTORE PUSH1 0x24 PUSH1 0x0 REVERT JUMPDEST SWAP1 PUSH1 0x1 DUP3 DUP2 SHR SWAP3 AND DUP1 ISZERO PUSH2 0x2C44 JUMPI JUMPDEST PUSH1 0x20 DUP4 LT EQ PUSH2 0x2C2E JUMPI JUMP JUMPDEST PUSH4 0x4E487B71 PUSH1 0xE0 SHL PUSH1 0x0 MSTORE PUSH1 0x22 PUSH1 0x4 MSTORE PUSH1 0x24 PUSH1 0x0 REVERT JUMPDEST SWAP2 PUSH1 0x7F AND SWAP2 PUSH2 0x2C23 JUMP JUMPDEST PUSH2 0x100 DUP2 ADD SWAP1 DUP2 LT PUSH1 0x1 PUSH1 0x1 PUSH1 0x40 SHL SUB DUP3 GT OR PUSH2 0x2C6A JUMPI PUSH1 0x40 MSTORE JUMP JUMPDEST PUSH4 0x4E487B71 PUSH1 0xE0 SHL PUSH1 0x0 MSTORE PUSH1 0x41 PUSH1 0x4 MSTORE PUSH1 0x24 PUSH1 0x0 REVERT JUMPDEST PUSH1 0x60 DUP2 ADD SWAP1 DUP2 LT PUSH1 0x1 PUSH1 0x1 PUSH1 0x40 SHL SUB DUP3 GT OR PUSH2 0x2C6A JUMPI PUSH1 0x40 MSTORE JUMP JUMPDEST PUSH1 0x40 DUP2 ADD SWAP1 DUP2 LT PUSH1 0x1 PUSH1 0x1 PUSH1 0x40 SHL SUB DUP3 GT OR PUSH2 0x2C6A JUMPI PUSH1 0x40 MSTORE JUMP JUMPDEST SWAP1 PUSH1 0x1F DUP1 NOT SWAP2 ADD AND DUP2 ADD SWAP1 DUP2 LT PUSH1 0x1 PUSH1 0x1 PUSH1 0x40 SHL SUB DUP3 GT OR PUSH2 0x2C6A JUMPI PUSH1 0x40 MSTORE JUMP JUMPDEST PUSH1 0x0 JUMPDEST DUP4 DUP2 LT PUSH2 0x2CEA JUMPI POP POP PUSH1 0x0 SWAP2 ADD MSTORE JUMP JUMPDEST DUP2 DUP2 ADD MLOAD DUP4 DUP3 ADD MSTORE PUSH1 0x20 ADD PUSH2 0x2CDA JUMP JUMPDEST SWAP1 PUSH1 0x20 SWAP2 PUSH2 0x2D13 DUP2 MLOAD DUP1 SWAP3 DUP2 DUP6 MSTORE DUP6 DUP1 DUP7 ADD SWAP2 ADD PUSH2 0x2CD7 JUMP JUMPDEST PUSH1 0x1F ADD PUSH1 0x1F NOT AND ADD ADD SWAP1 JUMP JUMPDEST PUSH1 0x20 SWAP1 PUSH1 0x20 PUSH1 0x40 DUP2 DUP4 ADD SWAP3 DUP3 DUP2 MSTORE DUP6 MLOAD DUP1 SWAP5 MSTORE ADD SWAP4 ADD SWAP2 PUSH1 0x0 JUMPDEST DUP3 DUP2 LT PUSH2 0x2D47 JUMPI POP POP POP POP SWAP1 JUMP JUMPDEST DUP4 MLOAD DUP6 MSTORE SWAP4 DUP2 ADD SWAP4 SWAP3 DUP2 ADD SWAP3 PUSH1 0x1 ADD PUSH2 0x2D39 JUMP JUMPDEST PUSH1 0xA0 PUSH1 0x3 NOT DUP3 ADD SLT PUSH2 0x2AE8 JUMPI PUSH1 0x4 CALLDATALOAD PUSH1 0x1 PUSH1 0x1 PUSH1 0xA0 SHL SUB DUP2 AND DUP2 SUB PUSH2 0x2AE8 JUMPI SWAP2 PUSH1 0x24 CALLDATALOAD SWAP2 PUSH1 0x44 CALLDATALOAD PUSH1 0xFF DUP2 AND DUP2 SUB PUSH2 0x2AE8 JUMPI SWAP2 PUSH1 0x64 CALLDATALOAD PUSH1 0xFF DUP2 AND DUP2 SUB PUSH2 0x2AE8 JUMPI SWAP2 PUSH1 0x84 CALLDATALOAD SWAP1 PUSH1 0x1 PUSH1 0x1 PUSH1 0x40 SHL SUB DUP3 GT PUSH2 0x2AE8 JUMPI PUSH2 0x2B86 SWAP2 PUSH1 0x4 ADD PUSH2 0x2B17 JUMP JUMPDEST SWAP1 DUP2 MLOAD DUP1 DUP3 MSTORE PUSH1 0x20 DUP1 DUP1 SWAP4 ADD SWAP4 ADD SWAP2 PUSH1 0x0 JUMPDEST DUP3 DUP2 LT PUSH2 0x2DD9 JUMPI POP POP POP POP SWAP1 JUMP JUMPDEST DUP4 MLOAD PUSH1 0x1 PUSH1 0x1 PUSH1 0xA0 SHL SUB AND DUP6 MSTORE SWAP4 DUP2 ADD SWAP4 SWAP3 DUP2 ADD SWAP3 PUSH1 0x1 ADD PUSH2 0x2DCB JUMP JUMPDEST SWAP1 PUSH1 0x3 DUP3 LT ISZERO PUSH2 0x2E03 JUMPI MSTORE JUMP JUMPDEST PUSH4 0x4E487B71 PUSH1 0xE0 SHL PUSH1 0x0 MSTORE PUSH1 0x21 PUSH1 0x4 MSTORE PUSH1 0x24 PUSH1 0x0 REVERT JUMPDEST ISZERO PUSH2 0x2E20 JUMPI JUMP JUMPDEST PUSH1 0x40 MLOAD PUSH3 0x461BCD PUSH1 0xE5 SHL DUP2 MSTORE PUSH1 0x20 PUSH1 0x4 DUP3 ADD MSTORE PUSH1 0xF PUSH1 0x24 DUP3 ADD MSTORE PUSH15 0x564D3A20656D707479206172726179 PUSH1 0x88 SHL PUSH1 0x44 DUP3 ADD MSTORE PUSH1 0x64 SWAP1 REVERT JUMPDEST ISZERO PUSH2 0x2E5E JUMPI JUMP JUMPDEST PUSH1 0x40 MLOAD PUSH3 0x461BCD PUSH1 0xE5 SHL DUP2 MSTORE PUSH1 0x20 PUSH1 0x4 DUP3 ADD MSTORE PUSH1 0x12 PUSH1 0x24 DUP3 ADD MSTORE PUSH18 0x15934E881B9BDD081E5BDD5C881D985D5B1D PUSH1 0x72 SHL PUSH1 0x44 DUP3 ADD MSTORE PUSH1 0x64 SWAP1 REVERT JUMPDEST SWAP2 SWAP1 DUP2 LT ISZERO PUSH2 0x2BFE JUMPI PUSH1 0x5 SHL ADD SWAP1 JUMP JUMPDEST CALLDATALOAD PUSH1 0x1 PUSH1 0x1 PUSH1 0xA0 SHL SUB DUP2 AND DUP2 SUB PUSH2 0x2AE8 JUMPI SWAP1 JUMP JUMPDEST SWAP1 SWAP2 PUSH1 0x40 PUSH1 0x20 SWAP3 DUP3 PUSH1 0x20 DUP3 ADD PUSH1 0x20 DUP4 MSTORE MSTORE ADD SWAP3 SWAP2 PUSH1 0x0 JUMPDEST DUP3 DUP2 LT PUSH2 0x2EE1 JUMPI POP POP POP POP SWAP1 JUMP JUMPDEST SWAP1 SWAP2 SWAP3 SWAP4 DUP3 DUP1 PUSH1 0x1 SWAP3 DUP4 DUP1 PUSH1 0xA0 SHL SUB PUSH2 0x2EF9 DUP10 PUSH2 0x2B03 JUMP JUMPDEST AND DUP2 MSTORE ADD SWAP6 ADD SWAP4 SWAP3 SWAP2 ADD PUSH2 0x2ED3 JUMP JUMPDEST ISZERO PUSH2 0x2F0F JUMPI JUMP JUMPDEST PUSH1 0x64 PUSH1 0x40 MLOAD PUSH3 0x461BCD PUSH1 0xE5 SHL DUP2 MSTORE PUSH1 0x20 PUSH1 0x4 DUP3 ADD MSTORE PUSH1 0x20 PUSH1 0x24 DUP3 ADD MSTORE PUSH32 0x564D3A2063616C6C6572206973206E6F74206167656E7420706C6174666F726D PUSH1 0x44 DUP3 ADD MSTORE REVERT JUMPDEST SWAP2 SWAP1 DUP3 SUB SWAP2 DUP3 GT PUSH2 0x2F60 JUMPI JUMP JUMPDEST PUSH4 0x4E487B71 PUSH1 0xE0 SHL PUSH1 0x0 MSTORE PUSH1 0x11 PUSH1 0x4 MSTORE PUSH1 0x24 PUSH1 0x0 REVERT JUMPDEST DUP2 DUP2 LT PUSH2 0x2F81 JUMPI POP POP JUMP JUMPDEST PUSH1 0x0 DUP2 SSTORE PUSH1 0x1 ADD PUSH2 0x2F76 JUMP JUMPDEST DUP2 DUP2 MUL SWAP3 SWAP2 DUP2 ISZERO SWAP2 DUP5 DIV EQ OR ISZERO PUSH2 0x2F60 JUMPI JUMP JUMPDEST DUP2 ISZERO PUSH2 0x2FAA JUMPI DIV SWAP1 JUMP JUMPDEST PUSH4 0x4E487B71 PUSH1 0xE0 SHL PUSH1 0x0 MSTORE PUSH1 0x12 PUSH1 0x4 MSTORE PUSH1 0x24 PUSH1 0x0 REVERT JUMPDEST SWAP2 SWAP1 DUP3 ADD DUP1 SWAP3 GT PUSH2 0x2F60 JUMPI JUMP JUMPDEST SWAP2 DUP3 PUSH1 0x0 MSTORE PUSH1 0x8 PUSH1 0x20 MSTORE PUSH1 0x40 PUSH1 0x0 KECCAK256 SLOAD SWAP3 DUP4 ISZERO PUSH2 0x45EA JUMPI DUP1 PUSH1 0x0 MSTORE PUSH1 0x8 PUSH1 0x20 MSTORE PUSH1 0x0 PUSH1 0x40 DUP2 KECCAK256 SSTORE DUP4 PUSH1 0x0 MSTORE PUSH1 0x3 PUSH1 0x20 MSTORE PUSH1 0x40 PUSH1 0x0 KECCAK256 SWAP1 PUSH1 0xA0 DUP5 DUP5 DUP2 ADD SUB SLT PUSH2 0x2AE8 JUMPI DUP5 PUSH2 0x3019 DUP6 PUSH2 0x2B03 JUMP JUMPDEST SWAP2 PUSH32 0x71ED9D4E5866FCA58BDB5ED3D76986653D0B7F7776D965590AAEA10FAC75CE52 PUSH1 0x80 PUSH2 0x3049 PUSH1 0x20 DUP10 ADD PUSH2 0x2B03 JUMP JUMPDEST PUSH1 0x40 DUP1 MLOAD PUSH1 0x1 PUSH1 0x1 PUSH1 0xA0 SHL SUB SWAP8 DUP9 AND DUP2 MSTORE SWAP7 DUP3 AND PUSH1 0x20 DUP9 ADD MSTORE DUP10 DUP2 ADD CALLDATALOAD SWAP1 DUP8 ADD MSTORE DUP2 DUP10 ADD CALLDATALOAD PUSH1 0x60 DUP8 ADD MSTORE SWAP5 LOG3 PUSH2 0x12C PUSH2 0x3086 PUSH1 0x80 DUP7 ADD CALLDATALOAD TIMESTAMP PUSH2 0x2F53 JUMP JUMPDEST GT PUSH2 0x45A0 JUMPI PUSH2 0x30A1 PUSH1 0x1 PUSH1 0x1 PUSH1 0xA0 SHL SUB DUP3 AND PUSH1 0x5 DUP5 ADD PUSH2 0x4AE5 JUMP JUMPDEST ISZERO PUSH2 0x454B JUMPI PUSH2 0x30AF DUP3 PUSH2 0x4B30 JUMP JUMPDEST SWAP3 PUSH3 0xF4240 DUP5 GT ISZERO PUSH2 0x44EE JUMPI DUP6 PUSH1 0x0 MSTORE PUSH1 0x9 PUSH1 0x20 MSTORE PUSH1 0x40 PUSH1 0x0 KECCAK256 SWAP1 PUSH1 0x1 PUSH1 0x1 PUSH1 0x40 SHL SUB DUP2 GT PUSH2 0x2C6A JUMPI PUSH2 0x30E2 DUP3 SLOAD PUSH2 0x2C14 JUMP JUMPDEST PUSH1 0x1F DUP2 GT PUSH2 0x44BC JUMPI JUMPDEST POP PUSH1 0x0 PUSH1 0x1F DUP3 GT PUSH1 0x1 EQ PUSH2 0x4455 JUMPI SWAP1 DUP1 PUSH2 0x311B SWAP3 PUSH1 0x0 SWAP2 PUSH2 0x444A JUMPI JUMPDEST POP DUP2 PUSH1 0x1 SHL SWAP2 PUSH1 0x0 NOT SWAP1 PUSH1 0x3 SHL SHR NOT AND OR SWAP1 JUMP JUMPDEST SWAP1 SSTORE JUMPDEST PUSH1 0x2 DUP3 ADD SLOAD SWAP4 PUSH1 0x4 DUP4 ADD SLOAD SWAP2 PUSH1 0x64 PUSH2 0x313C PUSH1 0xFF DUP6 PUSH1 0x8 SHR AND DUP9 PUSH2 0x2F8D JUMP JUMPDEST DIV SWAP4 DUP6 DUP6 GT PUSH2 0x4442 JUMPI JUMPDEST PUSH1 0x1 ADD SLOAD PUSH1 0x1 PUSH1 0x1 PUSH1 0xA0 SHL SUB DUP3 DUP2 AND PUSH1 0x0 SWAP1 DUP2 MSTORE PUSH1 0xB PUSH1 0x20 MSTORE PUSH1 0x40 SWAP1 KECCAK256 SLOAD SWAP2 AND SWAP4 SWAP1 SWAP3 PUSH2 0x3177 PUSH1 0x80 DUP3 ADD CALLDATALOAD TIMESTAMP PUSH2 0x2F53 JUMP JUMPDEST SWAP8 DUP1 ISZERO PUSH2 0x443A JUMPI DUP8 PUSH1 0x64 DUP2 MUL DIV PUSH1 0x64 EQ DUP9 ISZERO OR ISZERO PUSH2 0x2F60 JUMPI PUSH2 0x319C DUP2 PUSH1 0x64 DUP11 MUL PUSH2 0x2FA0 JUMP JUMPDEST SWAP4 JUMPDEST DUP2 ISZERO PUSH2 0x4432 JUMPI PUSH1 0x40 DUP4 ADD CALLDATALOAD PUSH1 0x64 DUP1 DUP3 MUL DUP3 SWAP1 DIV EQ SWAP1 ISZERO OR ISZERO PUSH2 0x2F60 JUMPI PUSH2 0x31CB DUP3 PUSH1 0x64 PUSH1 0x40 DUP7 ADD CALLDATALOAD MUL PUSH2 0x2FA0 JUMP JUMPDEST SWAP6 JUMPDEST DUP10 ISZERO PUSH2 0x442B JUMPI PUSH1 0x40 DUP5 ADD CALLDATALOAD PUSH1 0x64 DUP1 DUP3 MUL DUP3 SWAP1 DIV EQ SWAP1 ISZERO OR ISZERO PUSH2 0x2F60 JUMPI PUSH2 0x31FA DUP11 PUSH1 0x64 PUSH1 0x40 DUP8 ADD CALLDATALOAD MUL PUSH2 0x2FA0 JUMP JUMPDEST PUSH2 0x3208 PUSH3 0xF4240 DUP12 DIV PUSH2 0x5197 JUMP JUMPDEST SWAP8 PUSH2 0x3217 PUSH3 0x1E8480 DUP13 DIV PUSH2 0x5197 JUMP JUMPDEST PUSH1 0x40 DUP1 MLOAD PUSH32 0x596F75206172652061207269736B206D616E6167656D656E7420656E67696E65 PUSH1 0x20 DUP1 DUP4 ADD SWAP2 SWAP1 SWAP2 MSTORE PUSH32 0x20666F722041696F6E69732C206120636F70792D74726164696E6720706C6174 SWAP3 DUP3 ADD SWAP3 SWAP1 SWAP3 MSTORE PUSH16 0x3337B9369037B71029B7B6B734B09705 PUSH1 0x81 SHL PUSH1 0x60 DUP3 ADD MSTORE PUSH32 0x4576616C75617465207468652074726164652062656C6F7720616E6420646563 PUSH1 0x70 DUP3 ADD MSTORE PUSH32 0x69646520776861742070657263656E74616765206F662074686520666F6C6C6F PUSH1 0x90 DUP3 ADD MSTORE PUSH32 0x776572207661756C7420746F20616C6C6F636174652E0A0A0000000000000000 PUSH1 0xB0 DUP3 ADD MSTORE PUSH32 0x4F55545055543A20526573706F6E642077697468204F4E4C5920612073696E67 PUSH1 0xC8 DUP3 ADD MSTORE PUSH32 0x6C6520696E746567657220302D3130302E204E6F206578706C616E6174696F6E PUSH1 0xE8 DUP3 ADD MSTORE PUSH32 0x2E204E6F20746578742E204A75737420746865206E756D6265722E0A0A000000 PUSH2 0x108 DUP3 ADD MSTORE PUSH15 0x29A1A7A924A7239029A1A0A6229D05 PUSH1 0x89 SHL PUSH2 0x125 DUP3 ADD MSTORE PUSH32 0x20203020202020202020203D20736B6970207468697320747261646520656E74 PUSH2 0x134 DUP3 ADD MSTORE PUSH6 0x34B932B63C85 PUSH1 0xD1 SHL PUSH2 0x154 DUP3 ADD MSTORE PUSH32 0x2020312D333320202020203D206C6F7720636F6E666964656E6365202028736D PUSH2 0x15A DUP3 ADD MSTORE PUSH16 0x30B6361030B63637B1B0BA34B7B71485 PUSH1 0x81 SHL PUSH2 0x17A DUP3 ADD MSTORE PUSH32 0x202033342D3636202020203D206D656469756D20636F6E666964656E63652020 PUSH2 0x18A DUP3 ADD MSTORE PUSH22 0x1436B7B232B930BA329030B63637B1B0BA34B7B71485 PUSH1 0x51 SHL PUSH2 0x1AA DUP3 ADD MSTORE PUSH32 0x202036372D3939202020203D206869676820636F6E666964656E636520202873 PUSH2 0x1C0 DUP3 ADD MSTORE PUSH32 0x69676E69666963616E7420616C6C6F636174696F6E290A000000000000000000 PUSH2 0x1E0 DUP3 ADD MSTORE PUSH32 0x20203130302020202020203D206D6178696D756D20636F6E666964656E636520 PUSH2 0x1F7 DUP3 ADD MSTORE PUSH32 0x202866756C6C206D61782D7065722D747261646520616C6C6F636174696F6E29 PUSH2 0x217 DUP3 ADD MSTORE PUSH2 0x505 PUSH1 0xF1 SHL PUSH2 0x237 DUP3 ADD MSTORE PUSH20 0x20A62627A1A0AA24A7A7102327A926AAA6209D05 PUSH1 0x61 SHL PUSH2 0x239 DUP3 ADD MSTORE PUSH32 0x2020616C6C6F636174696F6E203D202873636F7265202F20313030292078206D PUSH2 0x24D DUP3 ADD MSTORE PUSH13 0x30BC2FB832B92FBA3930B23285 PUSH1 0x99 SHL PUSH2 0x26D DUP3 ADD MSTORE PUSH19 0x808105D081CD8DBDC994F4C4C0C080B4F8809 PUSH1 0x6A SHL PUSH2 0x27A DUP3 ADD MSTORE DUP12 MLOAD SWAP1 SWAP13 SWAP1 SWAP12 SWAP1 SWAP3 DUP14 SWAP3 SWAP1 SWAP2 PUSH2 0x28D SWAP2 PUSH2 0x3584 SWAP2 DUP16 SWAP2 DUP5 DUP8 ADD SWAP2 ADD PUSH2 0x2CD7 JUMP JUMPDEST PUSH11 0x1030B63637B1B0BA32B205 PUSH1 0xA9 SHL SWAP1 DUP14 DUP5 ADD ADD MSTORE DUP12 DUP3 ADD PUSH2 0x298 ADD PUSH19 0x808105D081CD8DBDC994F4D4C08080B4F8809 PUSH1 0x6A SHL SWAP1 MSTORE PUSH2 0x2AB SWAP12 DUP2 DUP14 SWAP3 MLOAD DUP1 SWAP4 DUP4 DUP7 ADD ADD SWAP2 PUSH1 0x20 ADD SWAP2 PUSH2 0x35D5 SWAP3 PUSH2 0x2CD7 JUMP JUMPDEST DUP3 ADD ADD PUSH12 0x1030B63637B1B0BA32B20505 PUSH1 0xA1 SHL DUP13 DUP3 ADD MSTORE SUB PUSH2 0x297 DUP2 ADD DUP13 MSTORE PUSH2 0x2B7 ADD PUSH2 0x3602 SWAP1 DUP13 PUSH2 0x2CB6 JUMP JUMPDEST PUSH2 0x360B SWAP1 PUSH2 0x4B82 JUMP JUMPDEST SWAP4 PUSH2 0x361E SWAP1 PUSH1 0x1 PUSH1 0x1 PUSH1 0xA0 SHL SUB AND PUSH2 0x4B82 JUMP JUMPDEST SWAP6 PUSH1 0x40 ADD CALLDATALOAD PUSH3 0xF4240 SWAP1 DIV PUSH2 0x3632 SWAP1 PUSH2 0x5197 JUMP JUMPDEST SWAP13 PUSH2 0x363C SWAP1 PUSH2 0x5197 JUMP JUMPDEST SWAP3 PUSH5 0x2540BE400 SWAP1 DIV PUSH2 0x364E SWAP1 PUSH2 0x5197 JUMP JUMPDEST SWAP1 PUSH2 0x3658 SWAP1 PUSH2 0x5197 JUMP JUMPDEST SWAP2 PUSH2 0x3662 SWAP1 PUSH2 0x5197 JUMP JUMPDEST SWAP3 PUSH1 0x40 MLOAD SWAP14 DUP15 SWAP6 PUSH14 0x169696902A2920A2229016969685 PUSH1 0x91 SHL PUSH1 0x20 DUP9 ADD MSTORE PUSH1 0x2E DUP8 ADD PUSH32 0x4C65616465722077616C6C65743A202020202020202020202020200000000000 SWAP1 MSTORE DUP1 MLOAD SWAP1 DUP2 PUSH1 0x49 DUP10 ADD SWAP2 PUSH1 0x20 ADD SWAP2 PUSH2 0x36BD SWAP3 PUSH2 0x2CD7 JUMP JUMPDEST DUP7 ADD SWAP8 PUSH1 0x5 PUSH1 0xF9 SHL SWAP9 DUP10 PUSH1 0x49 DUP3 ADD MSTORE PUSH1 0x4A DUP2 ADD PUSH32 0x546F6B656E20626F756768743A20202020202020202020202020200000000000 SWAP1 MSTORE DUP2 MLOAD SWAP2 DUP3 PUSH1 0x65 DUP4 ADD SWAP2 PUSH1 0x20 ADD SWAP2 PUSH2 0x3709 SWAP3 PUSH2 0x2CD7 JUMP JUMPDEST ADD DUP9 PUSH1 0x65 DUP3 ADD MSTORE PUSH1 0x66 DUP2 ADD PUSH32 0x5472616465205553442076616C75653A20202020202020202020202400000000 SWAP1 MSTORE DUP2 MLOAD SWAP2 DUP3 PUSH1 0x82 DUP4 ADD SWAP2 PUSH1 0x20 ADD SWAP2 PUSH2 0x374D SWAP3 PUSH2 0x2CD7 JUMP JUMPDEST ADD DUP8 PUSH1 0x82 DUP3 ADD MSTORE PUSH1 0x83 DUP2 ADD PUSH32 0x5472616465206167653A20202020202020202020202020202020200000000000 SWAP1 MSTORE DUP2 MLOAD SWAP2 DUP3 PUSH1 0x9E DUP4 ADD SWAP2 PUSH1 0x20 ADD SWAP2 PUSH2 0x3791 SWAP3 PUSH2 0x2CD7 JUMP JUMPDEST ADD PUSH6 0x399030B3B785 PUSH1 0xD1 SHL PUSH1 0x9E DUP3 ADD MSTORE PUSH1 0xA4 DUP2 ADD PUSH32 0x43757272656E7420746F6B656E2070726963653A202020202020202400000000 SWAP1 MSTORE DUP2 MLOAD SWAP2 DUP3 PUSH1 0xC0 DUP4 ADD SWAP2 PUSH1 0x20 ADD SWAP2 PUSH2 0x37DE SWAP3 PUSH2 0x2CD7 JUMP JUMPDEST ADD PUSH15 0x10143C18B29898103AB734BA399485 PUSH1 0x89 SHL PUSH1 0xC0 DUP3 ADD MSTORE PUSH1 0xCF DUP2 ADD PUSH32 0x54726164652073697A6520767320666F6C6C6F776572207661756C743A200000 SWAP1 MSTORE DUP2 MLOAD SWAP2 DUP3 PUSH1 0xED DUP4 ADD SWAP2 PUSH1 0x20 ADD SWAP2 PUSH2 0x3834 SWAP3 PUSH2 0x2CD7 JUMP JUMPDEST ADD SWAP1 PUSH11 0x129037B3103B30BAB63A05 PUSH1 0xA9 SHL PUSH1 0xED DUP4 ADD MSTORE PUSH1 0xF8 DUP3 ADD PUSH32 0x54726164652073697A6520767320667265652062616C616E63653A2020200000 SWAP1 MSTORE PUSH2 0x116 SWAP2 DUP2 MLOAD SWAP2 DUP3 DUP5 DUP4 ADD SWAP2 PUSH1 0x20 ADD SWAP2 PUSH2 0x388A SWAP3 PUSH2 0x2CD7 JUMP JUMPDEST ADD SWAP1 PUSH19 0x129037B310333932B29031B0B834BA30B60505 PUSH1 0x69 SHL SWAP1 DUP3 ADD MSTORE SUB PUSH2 0x109 DUP2 ADD DUP11 MSTORE PUSH2 0x129 ADD PUSH2 0x38BD SWAP1 DUP11 PUSH2 0x2CB6 JUMP JUMPDEST PUSH3 0xF4240 SWAP1 DIV PUSH2 0x38CC SWAP1 PUSH2 0x5197 JUMP JUMPDEST SWAP7 PUSH3 0xF4240 SWAP1 DIV PUSH2 0x38DC SWAP1 PUSH2 0x5197 JUMP JUMPDEST SWAP3 PUSH2 0x38E6 SWAP1 PUSH2 0x5197 JUMP JUMPDEST SWAP6 PUSH3 0xF4240 SWAP1 DIV PUSH2 0x38F6 SWAP1 PUSH2 0x5197 JUMP JUMPDEST SWAP2 PUSH1 0xFF AND PUSH2 0x3903 SWAP1 PUSH2 0x5197 JUMP JUMPDEST SWAP2 PUSH1 0x40 MLOAD SWAP7 DUP8 SWAP5 PUSH1 0x20 DUP7 ADD SWAP10 PUSH32 0x2D2D2D20464F4C4C4F574552205641554C54202D2D2D0A000000000000000000 DUP12 MSTORE PUSH1 0x37 DUP8 ADD PUSH19 0x15985D5B1D081D1BDD185B0E88080808080809 PUSH1 0x6A SHL SWAP1 MSTORE DUP1 MLOAD SWAP1 DUP2 PUSH1 0x4A DUP10 ADD SWAP2 PUSH1 0x20 ADD SWAP2 PUSH2 0x3965 SWAP3 PUSH2 0x2CD7 JUMP JUMPDEST DUP7 ADD DUP5 PUSH1 0x4A DUP3 ADD MSTORE PUSH1 0x4B DUP2 ADD PUSH19 0x119C99594818985B185B98D94E880808080809 PUSH1 0x6A SHL SWAP1 MSTORE DUP2 MLOAD SWAP2 DUP3 PUSH1 0x5E DUP4 ADD SWAP2 PUSH1 0x20 ADD SWAP2 PUSH2 0x39A0 SWAP3 PUSH2 0x2CD7 JUMP JUMPDEST ADD PUSH1 0x5E DUP2 ADD PUSH2 0x405 PUSH1 0xF3 SHL SWAP1 MSTORE DUP2 MLOAD SWAP2 DUP3 PUSH1 0x60 DUP4 ADD SWAP2 PUSH1 0x20 ADD SWAP2 PUSH2 0x39C3 SWAP3 PUSH2 0x2CD7 JUMP JUMPDEST ADD PUSH12 0x129037B3103B30BAB63A1485 PUSH1 0xA1 SHL PUSH1 0x60 DUP3 ADD MSTORE PUSH1 0x6C DUP2 ADD PUSH19 0x13585E081C195C881D1C9859194E8808080809 PUSH1 0x6A SHL SWAP1 MSTORE DUP2 MLOAD SWAP2 DUP3 PUSH1 0x7F DUP4 ADD SWAP2 PUSH1 0x20 ADD SWAP2 PUSH2 0x3A0C SWAP3 PUSH2 0x2CD7 JUMP JUMPDEST ADD SWAP1 PUSH1 0x7F DUP3 ADD MSTORE PUSH1 0x80 DUP2 ADD PUSH18 0x2934B9B5903A37B632B930B731B29D10101 PUSH1 0x75 SHL SWAP1 MSTORE DUP2 MLOAD SWAP2 DUP3 PUSH1 0x92 DUP4 ADD SWAP2 PUSH1 0x20 ADD SWAP2 PUSH2 0x3A45 SWAP3 PUSH2 0x2CD7 JUMP JUMPDEST ADD PUSH5 0x1798980505 PUSH1 0xD9 SHL PUSH1 0x92 DUP3 ADD MSTORE SUB PUSH1 0x77 DUP2 ADD DUP5 MSTORE PUSH1 0x97 ADD PUSH2 0x3A68 SWAP1 DUP5 PUSH2 0x2CB6 JUMP JUMPDEST PUSH1 0x40 DUP1 MLOAD PUSH32 0x2D2D2D2052554C455320286170706C79207374726963746C7920696E206F7264 PUSH1 0x20 DUP3 ADD SWAP1 DUP2 MSTORE PUSH8 0x32B9149016969685 PUSH1 0xC1 SHL SWAP3 DUP3 ADD SWAP3 SWAP1 SWAP3 MSTORE PUSH32 0x312E20496620667265652062616C616E6365203C202431202D3E207265747572 PUSH1 0x48 DUP3 ADD MSTORE PUSH5 0x3710181705 PUSH1 0xD9 SHL PUSH1 0x68 DUP3 ADD MSTORE PUSH32 0x322E20496620747261646520616765203E2031323073202D3E2072657475726E PUSH1 0x6D DUP3 ADD MSTORE PUSH19 0x1018101439BA30B6329039B4B3B730B6149705 PUSH1 0x69 SHL PUSH1 0x8D DUP3 ADD MSTORE PUSH32 0x332E204966207472616465205553442076616C7565203C202435202D3E207265 PUSH1 0xA0 DUP3 ADD MSTORE PUSH32 0x7475726E203020286E6F6973652074726164652C2069676E6F7265292E0A0000 PUSH1 0xC0 DUP3 ADD MSTORE PUSH32 0x342E20496620667265652062616C616E6365203C20243130202D3E2072657475 PUSH1 0xDE DUP3 ADD MSTORE PUSH32 0x726E203020287661756C74206E6561726C7920656D707479292E0A0A00000000 PUSH1 0xFE DUP3 ADD MSTORE PUSH20 0x2924A9A59029A1A7A9229021A2A4A624A7239D05 PUSH1 0x61 SHL PUSH2 0x11A DUP3 ADD MSTORE PUSH32 0x20205269736B20312D3220202D3E206D61782073636F72652032300A00000000 PUSH2 0x12E DUP3 ADD MSTORE PUSH32 0x20205269736B20332D3420202D3E206D61782073636F72652034300A00000000 PUSH2 0x14A DUP3 ADD MSTORE PUSH32 0x20205269736B20352D3620202D3E206D61782073636F72652036350A00000000 PUSH2 0x166 DUP3 ADD MSTORE PUSH32 0x20205269736B20372D3820202D3E206D61782073636F72652038350A00000000 PUSH2 0x182 DUP3 ADD MSTORE PUSH32 0x20205269736B20392D3130202D3E206D61782073636F7265203130300A0A0000 PUSH2 0x19E DUP3 ADD MSTORE PUSH32 0x465245452042414C414E43452050454E414C544945533A0A0000000000000000 PUSH2 0x1BC DUP3 ADD MSTORE PUSH32 0x2020467265652062616C616E6365203C20313025206F66207661756C74202020 PUSH2 0x1D4 DUP3 ADD MSTORE PUSH32 0x2020202020202D3E207265647563652073636F7265206279203330250A000000 PUSH2 0x1F4 DUP3 ADD MSTORE PUSH32 0x202054726164652073697A65203E20353025206F6620667265652062616C616E PUSH2 0x211 DUP3 ADD MSTORE PUSH32 0x6365202020202D3E207265647563652073636F72652062792032302520286C61 PUSH2 0x231 DUP3 ADD MSTORE PUSH32 0x7267652072656C6174697665206578706F73757265290A000000000000000000 PUSH2 0x251 DUP3 ADD MSTORE PUSH32 0x202054726164652073697A65203E2031303025206F6620667265652062616C61 PUSH2 0x268 DUP3 ADD MSTORE PUSH32 0x6E63652020202D3E2072657475726E2030202863616E6E6F74206166666F7264 PUSH2 0x288 DUP3 ADD MSTORE PUSH3 0x148505 PUSH1 0xE9 SHL PUSH2 0x2A8 DUP3 ADD MSTORE PUSH32 0x5349474E414C20535452454E47544820287573652074726164652073697A6520 SWAP3 DUP2 ADD SWAP3 SWAP1 SWAP3 MSTORE PUSH32 0x767320666F6C6C6F776572207661756C742C204E4F542072617720646F6C6C61 PUSH2 0x2CB DUP4 ADD MSTORE PUSH5 0x3939949D05 PUSH1 0xD9 SHL PUSH2 0x2EB DUP4 ADD MSTORE PUSH32 0x20205472616465203C203525206F6620666F6C6C6F776572207661756C742020 PUSH2 0x2F0 DUP4 ADD MSTORE PUSH32 0x2020202020202D3E207765616B207369676E616C2C206C65616E20636F6E7365 PUSH2 0x310 DUP4 ADD MSTORE PUSH8 0x393B30BA34BB3285 PUSH1 0xC1 SHL PUSH2 0x330 DUP4 ADD MSTORE PUSH32 0x2020547261646520352D323025206F6620666F6C6C6F776572207661756C7420 PUSH2 0x338 DUP4 ADD MSTORE PUSH32 0x2020202020202D3E206D6F646572617465207369676E616C0A00000000000000 PUSH2 0x358 DUP4 ADD MSTORE PUSH32 0x20205472616465203E20323025206F6620666F6C6C6F776572207661756C7420 PUSH2 0x371 DUP4 ADD MSTORE PUSH32 0x2020202020202D3E207374726F6E67207369676E616C2C206C65616465722069 PUSH2 0x391 DUP4 ADD MSTORE PUSH20 0x399036B0B5B4B7339030903134B39036B7BB3285 PUSH1 0x61 SHL PUSH2 0x3B1 DUP4 ADD MSTORE PUSH32 0x20205472616465203E20353025206F6620666F6C6C6F776572207661756C7420 PUSH2 0x3C5 DUP4 ADD MSTORE PUSH32 0x2020202020202D3E2076657279207374726F6E67207369676E616C0A0A000000 PUSH2 0x3E5 DUP4 ADD MSTORE PUSH17 0x232922A9A42722A9A9902127A72AA99D05 PUSH1 0x79 SHL PUSH2 0x402 DUP4 ADD MSTORE PUSH32 0x2020547261646520616765203C20313073202020202020202020202020202020 PUSH2 0x413 DUP4 ADD MSTORE PUSH32 0x2020202020202D3E2061646420757020746F20313020746F2066696E616C2073 PUSH2 0x433 DUP4 ADD MSTORE PUSH5 0x31B7B93285 PUSH1 0xD9 SHL PUSH2 0x453 DUP4 ADD MSTORE PUSH32 0x20205472616465206167652031302D3330732020202020202020202020202020 PUSH2 0x458 DUP4 ADD MSTORE PUSH32 0x2020202020202D3E206E6F2061646A7573746D656E740A000000000000000000 PUSH2 0x478 DUP4 ADD MSTORE PUSH32 0x20205472616465206167652033302D3132307320202020202020202020202020 PUSH2 0x48F DUP4 ADD MSTORE PUSH32 0x2020202020202D3E207265647563652073636F72652062792031300A0A000000 PUSH2 0x4AF DUP4 ADD MSTORE PUSH32 0x494D504F5254414E543A20446F204E4F54207472656174202431303030206173 PUSH2 0x4CC DUP4 ADD MSTORE PUSH32 0x20696E686572656E746C79207369676E69666963616E742E0A00000000000000 PUSH2 0x4EC DUP4 ADD MSTORE PUSH32 0x202041202431303030207472616465206973207374726F6E6720696620746865 PUSH2 0x505 DUP4 ADD MSTORE PUSH32 0x20666F6C6C6F776572207661756C742069732024323030302028353025292E0A PUSH2 0x525 DUP4 ADD MSTORE PUSH32 0x202041202431303030207472616465206973207765616B206966207468652066 PUSH2 0x545 DUP4 ADD MSTORE PUSH32 0x6F6C6C6F776572207661756C74206973202431303030303020283125292E0A00 PUSH2 0x565 DUP4 ADD MSTORE PUSH32 0x2020416C7761797320726561736F6E20696E2070657263656E74616765732C20 PUSH2 0x584 DUP4 ADD MSTORE PUSH32 0x6E6F74206162736F6C75746520646F6C6C617220616D6F756E74732E0A0A0000 PUSH2 0x5A4 DUP4 ADD MSTORE PUSH32 0x526573706F6E64207769746820612073696E676C6520696E746567657220302D PUSH2 0x5C2 DUP4 ADD MSTORE PUSH4 0x18981817 PUSH1 0xE1 SHL PUSH2 0x5E2 DUP4 ADD MSTORE PUSH2 0x5C6 DUP3 MSTORE PUSH2 0x600 DUP3 ADD SWAP6 SWAP2 SWAP3 SWAP1 SWAP2 PUSH1 0x1 PUSH1 0x1 PUSH1 0x40 SHL SUB DUP8 GT DUP5 DUP9 LT OR PUSH2 0x2C6A JUMPI PUSH2 0x42A8 SWAP6 PUSH1 0x20 SWAP6 PUSH2 0x428D PUSH2 0x429C SWAP4 DUP11 PUSH1 0x40 MSTORE PUSH2 0x620 SWAP6 PUSH2 0x426B DUP2 MLOAD DUP1 SWAP3 DUP13 DUP11 DUP14 ADD SWAP2 ADD PUSH2 0x2CD7 JUMP JUMPDEST DUP9 ADD PUSH2 0x427F DUP3 MLOAD DUP1 SWAP4 DUP13 DUP11 DUP6 ADD SWAP2 ADD PUSH2 0x2CD7 JUMP JUMPDEST ADD SWAP2 MLOAD DUP1 SWAP4 DUP7 DUP5 ADD SWAP1 PUSH2 0x2CD7 JUMP JUMPDEST ADD SWAP2 DUP5 MLOAD SWAP4 DUP5 SWAP2 DUP5 ADD SWAP1 PUSH2 0x2CD7 JUMP JUMPDEST ADD SUB DUP1 DUP5 MSTORE ADD DUP3 PUSH2 0x2CB6 JUMP JUMPDEST PUSH1 0x40 MLOAD PUSH4 0xFFEB17D PUSH1 0xE1 SHL DUP2 MSTORE SWAP1 PUSH20 0x37BB9C718F3F7FE5ECBDB0B600D607B52706776 SWAP1 PUSH1 0x20 DUP4 PUSH1 0x4 DUP2 DUP6 GAS STATICCALL SWAP3 DUP4 ISZERO PUSH2 0x43EB JUMPI PUSH1 0x0 SWAP4 PUSH2 0x43F7 JUMPI JUMPDEST POP PUSH8 0x2EA11E32AD50000 DUP4 ADD DUP1 SWAP4 GT PUSH2 0x2F60 JUMPI PUSH1 0x20 SWAP2 PUSH2 0x4319 PUSH2 0x4327 PUSH2 0x436E SWAP4 PUSH1 0x40 MLOAD SWAP3 DUP4 SWAP2 DUP8 DUP1 DUP5 ADD MSTORE PUSH1 0x40 DUP4 ADD SWAP1 PUSH2 0x2CFA JUMP JUMPDEST SUB PUSH1 0x1F NOT DUP2 ADD DUP4 MSTORE DUP3 PUSH2 0x2CB6 JUMP JUMPDEST PUSH1 0x40 MLOAD PUSH4 0x45DE5DF1 PUSH1 0xE1 SHL DUP2 MSTORE PUSH8 0xB24AC1AFBCEFC708 PUSH1 0x4 DUP3 ADD MSTORE ADDRESS PUSH1 0x24 DUP3 ADD MSTORE PUSH4 0x6ABCF6AF PUSH1 0xE0 SHL PUSH1 0x44 DUP3 ADD MSTORE PUSH1 0x80 PUSH1 0x64 DUP3 ADD MSTORE SWAP5 DUP6 SWAP4 DUP5 SWAP3 DUP4 SWAP2 SWAP1 PUSH1 0x84 DUP4 ADD SWAP1 PUSH2 0x2CFA JUMP JUMPDEST SUB SWAP3 GAS CALL SWAP1 DUP2 ISZERO PUSH2 0x43EB JUMPI PUSH1 0x0 SWAP2 PUSH2 0x43B9 JUMPI JUMPDEST POP DUP1 PUSH1 0x0 MSTORE PUSH1 0x8 PUSH1 0x20 MSTORE DUP2 PUSH1 0x40 PUSH1 0x0 KECCAK256 SSTORE PUSH32 0xBD39BCA4ED5E29CB7D341FEC377583E2CB5A5E06015FF024E1A933E2FE29C47E PUSH1 0x0 DUP1 LOG3 JUMP JUMPDEST SWAP1 POP PUSH1 0x20 DUP2 RETURNDATASIZE PUSH1 0x20 GT PUSH2 0x43E3 JUMPI JUMPDEST DUP2 PUSH2 0x43D4 PUSH1 0x20 SWAP4 DUP4 PUSH2 0x2CB6 JUMP JUMPDEST DUP2 ADD SUB SLT PUSH2 0x2AE8 JUMPI MLOAD CODESIZE PUSH2 0x4381 JUMP JUMPDEST RETURNDATASIZE SWAP2 POP PUSH2 0x43C7 JUMP JUMPDEST PUSH1 0x40 MLOAD RETURNDATASIZE PUSH1 0x0 DUP3 RETURNDATACOPY RETURNDATASIZE SWAP1 REVERT JUMPDEST SWAP1 SWAP3 POP PUSH1 0x20 DUP2 RETURNDATASIZE PUSH1 0x20 GT PUSH2 0x4423 JUMPI JUMPDEST DUP2 PUSH2 0x4413 PUSH1 0x20 SWAP4 DUP4 PUSH2 0x2CB6 JUMP JUMPDEST DUP2 ADD SUB SLT PUSH2 0x2AE8 JUMPI MLOAD SWAP2 CODESIZE PUSH2 0x42E4 JUMP JUMPDEST RETURNDATASIZE SWAP2 POP PUSH2 0x4406 JUMP JUMPDEST PUSH1 0x0 PUSH2 0x31FA JUMP JUMPDEST PUSH1 0x0 SWAP6 PUSH2 0x31CD JUMP JUMPDEST PUSH1 0x0 SWAP4 PUSH2 0x319E JUMP JUMPDEST DUP6 SWAP5 POP PUSH2 0x3146 JUMP JUMPDEST SWAP1 POP DUP8 ADD CALLDATALOAD CODESIZE PUSH2 0x3107 JUMP JUMPDEST SWAP1 DUP3 PUSH1 0x0 MSTORE PUSH1 0x20 PUSH1 0x0 KECCAK256 PUSH1 0x0 SWAP3 JUMPDEST PUSH1 0x1F NOT DUP4 AND DUP5 LT PUSH2 0x44A4 JUMPI PUSH1 0x1 SWAP4 POP DUP3 PUSH1 0x1F NOT DUP2 AND LT PUSH2 0x448A JUMPI JUMPDEST POP POP DUP2 SHL ADD SWAP1 SSTORE PUSH2 0x311E JUMP JUMPDEST DUP9 ADD CALLDATALOAD PUSH1 0x0 NOT PUSH1 0x3 DUP5 SWAP1 SHL PUSH1 0xF8 AND SHR NOT AND SWAP1 SSTORE CODESIZE DUP1 PUSH2 0x447E JUMP JUMPDEST DUP9 DUP2 ADD CALLDATALOAD DUP3 SSTORE PUSH1 0x20 SWAP4 DUP5 ADD SWAP4 PUSH1 0x1 SWAP1 SWAP3 ADD SWAP2 ADD PUSH2 0x4463 JUMP JUMPDEST PUSH2 0x44E8 SWAP1 DUP4 PUSH1 0x0 MSTORE PUSH1 0x20 PUSH1 0x0 KECCAK256 PUSH1 0x1F DUP5 ADD PUSH1 0x5 SHR DUP2 ADD SWAP2 PUSH1 0x20 DUP6 LT PUSH2 0x35A JUMPI PUSH1 0x1F ADD PUSH1 0x5 SHR ADD SWAP1 PUSH2 0x2F76 JUMP JUMPDEST CODESIZE PUSH2 0x30EB JUMP JUMPDEST POP POP POP POP POP DUP1 PUSH1 0x0 DUP1 MLOAD PUSH1 0x20 PUSH2 0x5273 DUP4 CODECOPY DUP2 MLOAD SWAP2 MSTORE PUSH1 0x60 PUSH1 0x40 MLOAD PUSH1 0x20 DUP2 MSTORE PUSH1 0x19 PUSH1 0x20 DUP3 ADD MSTORE PUSH32 0x696E73756666696369656E7420667265652062616C616E636500000000000000 PUSH1 0x40 DUP3 ADD MSTORE LOG2 PUSH1 0x0 MSTORE PUSH1 0xA PUSH1 0x20 MSTORE PUSH1 0x0 PUSH1 0x40 DUP2 KECCAK256 SSTORE JUMP JUMPDEST POP POP POP POP DUP1 PUSH1 0x0 DUP1 MLOAD PUSH1 0x20 PUSH2 0x5273 DUP4 CODECOPY DUP2 MLOAD SWAP2 MSTORE PUSH1 0x60 PUSH1 0x40 MLOAD PUSH1 0x20 DUP2 MSTORE PUSH1 0x16 PUSH1 0x20 DUP3 ADD MSTORE PUSH22 0x1D1BDAD95B881B9BDD081A5B88185B1B1BDDDB1A5CDD PUSH1 0x52 SHL PUSH1 0x40 DUP3 ADD MSTORE LOG2 PUSH1 0x0 MSTORE PUSH1 0xA PUSH1 0x20 MSTORE PUSH1 0x0 PUSH1 0x40 DUP2 KECCAK256 SSTORE JUMP JUMPDEST POP POP POP POP DUP1 PUSH1 0x0 DUP1 MLOAD PUSH1 0x20 PUSH2 0x5273 DUP4 CODECOPY DUP2 MLOAD SWAP2 MSTORE PUSH1 0x60 PUSH1 0x40 MLOAD PUSH1 0x20 DUP2 MSTORE PUSH1 0xB PUSH1 0x20 DUP3 ADD MSTORE PUSH11 0x7374616C65207472616465 PUSH1 0xA8 SHL PUSH1 0x40 DUP3 ADD MSTORE LOG2 PUSH1 0x0 MSTORE PUSH1 0xA PUSH1 0x20 MSTORE PUSH1 0x0 PUSH1 0x40 DUP2 KECCAK256 SSTORE JUMP JUMPDEST PUSH1 0x40 MLOAD PUSH3 0x461BCD PUSH1 0xE5 SHL DUP2 MSTORE PUSH1 0x20 PUSH1 0x4 DUP3 ADD MSTORE PUSH1 0x1B PUSH1 0x24 DUP3 ADD MSTORE PUSH32 0x564D3A20756E6B6E6F776E207761746368657220726571756573740000000000 PUSH1 0x44 DUP3 ADD MSTORE PUSH1 0x64 SWAP1 REVERT JUMPDEST SWAP1 DUP2 PUSH1 0x20 SWAP2 SUB SLT PUSH2 0x2AE8 JUMPI MLOAD DUP1 ISZERO ISZERO DUP2 SUB PUSH2 0x2AE8 JUMPI SWAP1 JUMP JUMPDEST ISZERO PUSH2 0x464E JUMPI JUMP JUMPDEST PUSH1 0x40 MLOAD PUSH3 0x461BCD PUSH1 0xE5 SHL DUP2 MSTORE PUSH1 0x20 PUSH1 0x4 DUP3 ADD MSTORE PUSH1 0x12 PUSH1 0x24 DUP3 ADD MSTORE PUSH18 0x15934E8819195C1BDCDA5D0819985A5B1959 PUSH1 0x72 SHL PUSH1 0x44 DUP3 ADD MSTORE PUSH1 0x64 SWAP1 REVERT JUMPDEST ISZERO PUSH2 0x468F JUMPI JUMP JUMPDEST PUSH1 0x40 MLOAD PUSH3 0x461BCD PUSH1 0xE5 SHL DUP2 MSTORE PUSH1 0x20 PUSH1 0x4 DUP3 ADD MSTORE PUSH1 0x12 PUSH1 0x24 DUP3 ADD MSTORE PUSH18 0x15934E881B9BDD08185D5D1A1BDC9A5E9959 PUSH1 0x72 SHL PUSH1 0x44 DUP3 ADD MSTORE PUSH1 0x64 SWAP1 REVERT JUMPDEST PUSH2 0x46D3 DUP2 SLOAD PUSH2 0x2C14 JUMP JUMPDEST SWAP1 DUP2 PUSH2 0x46DD JUMPI POP POP JUMP JUMPDEST DUP2 PUSH1 0x1F PUSH1 0x0 SWAP4 GT PUSH1 0x1 EQ PUSH2 0x46F0 JUMPI POP SSTORE JUMPDEST JUMP JUMPDEST SWAP1 DUP1 DUP4 SWAP2 DUP3 MSTORE PUSH2 0x470F PUSH1 0x1F PUSH1 0x20 DUP5 KECCAK256 SWAP5 ADD PUSH1 0x5 SHR DUP5 ADD PUSH1 0x1 DUP6 ADD PUSH2 0x2F76 JUMP JUMPDEST SSTORE SSTORE JUMP JUMPDEST PUSH1 0x0 SWAP3 DUP2 DUP5 MSTORE PUSH1 0x20 SWAP2 PUSH1 0x8 DUP4 MSTORE PUSH1 0x40 SWAP4 DUP5 DUP7 KECCAK256 SLOAD SWAP3 DUP4 ISZERO PUSH2 0x4811 JUMPI DUP2 DUP6 SWAP2 DUP5 DUP10 MSTORE PUSH1 0x8 DUP4 MSTORE DUP9 DUP9 DUP2 KECCAK256 SSTORE DUP2 ADD SUB SLT PUSH2 0x153B JUMPI PUSH1 0xA SWAP4 SWAP3 SWAP2 SWAP1 CALLDATALOAD PUSH1 0x64 DUP2 GT ISZERO PUSH2 0x4808 JUMPI POP PUSH1 0x64 SWAP1 JUMPDEST DUP3 PUSH1 0xFF DUP4 AND SWAP2 PUSH32 0xAC7C244F5A94874741BDE286781FC342DA57EB796EA3B4F271BA72C0B515B105 DUP9 DUP9 DUP6 LT SWAP5 DUP2 MLOAD SWAP1 DUP2 MSTORE DUP6 ISZERO DUP10 DUP3 ADD MSTORE LOG3 PUSH2 0x47BA JUMPI PUSH2 0x47A0 SWAP1 DUP3 PUSH2 0x4CC2 JUMP JUMPDEST DUP1 DUP6 MSTORE PUSH1 0x9 DUP3 MSTORE PUSH2 0x47B2 DUP5 DUP7 KECCAK256 PUSH2 0x46C9 JUMP JUMPDEST DUP5 MSTORE MSTORE DUP2 KECCAK256 SSTORE JUMP JUMPDEST POP DUP1 PUSH1 0x0 DUP1 MLOAD PUSH1 0x20 PUSH2 0x5273 DUP4 CODECOPY DUP2 MLOAD SWAP2 MSTORE PUSH1 0x60 DUP7 MLOAD DUP6 DUP2 MSTORE PUSH1 0x15 DUP7 DUP3 ADD MSTORE PUSH21 0x1CD8DBDC994818995B1BDDC81D1A1C995CDA1BDB19 PUSH1 0x5A SHL DUP9 DUP3 ADD MSTORE LOG2 DUP1 DUP6 MSTORE PUSH1 0x9 DUP3 MSTORE PUSH2 0x47B2 DUP5 DUP7 KECCAK256 PUSH2 0x46C9 JUMP JUMPDEST PUSH1 0xFF AND SWAP1 PUSH2 0x475A JUMP JUMPDEST DUP6 MLOAD PUSH3 0x461BCD PUSH1 0xE5 SHL DUP2 MSTORE PUSH1 0x4 DUP2 ADD DUP7 SWAP1 MSTORE PUSH1 0x1E PUSH1 0x24 DUP3 ADD MSTORE PUSH32 0x564D3A20756E6B6E6F776E207374726174656769737420726571756573740000 PUSH1 0x44 DUP3 ADD MSTORE PUSH1 0x64 SWAP1 REVERT JUMPDEST ISZERO PUSH2 0x485C JUMPI JUMP JUMPDEST PUSH1 0x40 MLOAD PUSH3 0x461BCD PUSH1 0xE5 SHL DUP2 MSTORE PUSH1 0x20 PUSH1 0x4 DUP3 ADD MSTORE PUSH1 0x12 PUSH1 0x24 DUP3 ADD MSTORE PUSH18 0x564D3A207269736B4C6576656C20312D313 PUSH1 0x74 SHL PUSH1 0x44 DUP3 ADD MSTORE PUSH1 0x64 SWAP1 REVERT JUMPDEST ISZERO PUSH2 0x489D JUMPI JUMP JUMPDEST PUSH1 0x40 MLOAD PUSH3 0x461BCD PUSH1 0xE5 SHL DUP2 MSTORE PUSH1 0x20 PUSH1 0x4 DUP3 ADD MSTORE PUSH1 0x10 PUSH1 0x24 DUP3 ADD MSTORE PUSH16 0x564D3A206D617850637420312D31303 PUSH1 0x84 SHL PUSH1 0x44 DUP3 ADD MSTORE PUSH1 0x64 SWAP1 REVERT JUMPDEST ISZERO PUSH2 0x48DC JUMPI JUMP JUMPDEST PUSH1 0x40 MLOAD PUSH3 0x461BCD PUSH1 0xE5 SHL DUP2 MSTORE PUSH1 0x20 PUSH1 0x4 DUP3 ADD MSTORE PUSH1 0x28 PUSH1 0x24 DUP3 ADD MSTORE PUSH32 0x564D3A20616C6C6F776C69737420656D7074792C206E6F207472616465732077 PUSH1 0x44 DUP3 ADD MSTORE PUSH8 0x696C6C20636F7079 PUSH1 0xC0 SHL PUSH1 0x64 DUP3 ADD MSTORE PUSH1 0x84 SWAP1 REVERT JUMPDEST ISZERO PUSH2 0x4939 JUMPI JUMP JUMPDEST PUSH1 0x40 MLOAD PUSH3 0x461BCD PUSH1 0xE5 SHL DUP2 MSTORE PUSH1 0x20 PUSH1 0x4 DUP3 ADD MSTORE PUSH1 0x10 PUSH1 0x24 DUP3 ADD MSTORE PUSH16 0x15934E881E995C9BC819195C1BDCDA5D PUSH1 0x82 SHL PUSH1 0x44 DUP3 ADD MSTORE PUSH1 0x64 SWAP1 REVERT JUMPDEST PUSH1 0x1 PUSH1 0x1 PUSH1 0x40 SHL SUB DUP2 GT PUSH2 0x2C6A JUMPI PUSH1 0x5 SHL PUSH1 0x20 ADD SWAP1 JUMP JUMPDEST SWAP1 PUSH1 0x1 PUSH1 0x40 SHL DUP2 GT PUSH2 0x2C6A JUMPI DUP2 SLOAD SWAP1 DUP1 DUP4 SSTORE DUP2 DUP2 LT PUSH2 0x49A6 JUMPI POP POP POP JUMP JUMPDEST PUSH2 0x46EE SWAP3 PUSH1 0x0 MSTORE PUSH1 0x20 PUSH1 0x0 KECCAK256 SWAP2 DUP3 ADD SWAP2 ADD PUSH2 0x2F76 JUMP JUMPDEST DUP1 SLOAD PUSH1 0x1 PUSH1 0x40 SHL DUP2 LT ISZERO PUSH2 0x2C6A JUMPI PUSH2 0x49D9 SWAP2 PUSH1 0x1 DUP3 ADD DUP2 SSTORE PUSH2 0x2BE6 JUMP JUMPDEST DUP2 SWAP3 SWAP2 SLOAD SWAP1 PUSH1 0x3 SHL SWAP2 DUP3 SHL SWAP2 PUSH1 0x0 NOT SWAP1 SHL NOT AND OR SWAP1 SSTORE JUMP JUMPDEST ISZERO PUSH2 0x49F8 JUMPI JUMP JUMPDEST PUSH1 0x40 MLOAD PUSH3 0x461BCD PUSH1 0xE5 SHL DUP2 MSTORE PUSH1 0x20 PUSH1 0x4 DUP3 ADD MSTORE PUSH1 0xD PUSH1 0x24 DUP3 ADD MSTORE PUSH13 0x2B269D103737BA1037BBB732B9 PUSH1 0x99 SHL PUSH1 0x44 DUP3 ADD MSTORE PUSH1 0x64 SWAP1 REVERT JUMPDEST SWAP1 PUSH1 0x40 MLOAD SWAP2 DUP3 DUP2 SLOAD SWAP2 DUP3 DUP3 MSTORE PUSH1 0x20 SWAP3 PUSH1 0x20 DUP4 ADD SWAP2 PUSH1 0x0 MSTORE PUSH1 0x20 PUSH1 0x0 KECCAK256 SWAP4 PUSH1 0x0 SWAP1 JUMPDEST DUP3 DUP3 LT PUSH2 0x4A64 JUMPI POP POP POP PUSH2 0x46EE SWAP3 POP SUB DUP4 PUSH2 0x2CB6 JUMP JUMPDEST DUP6 SLOAD PUSH1 0x1 PUSH1 0x1 PUSH1 0xA0 SHL SUB AND DUP5 MSTORE PUSH1 0x1 SWAP6 DUP7 ADD SWAP6 DUP9 SWAP6 POP SWAP4 DUP2 ADD SWAP4 SWAP1 SWAP2 ADD SWAP1 PUSH2 0x4A4E JUMP JUMPDEST PUSH1 0x40 MLOAD SWAP1 PUSH1 0x20 DUP3 ADD SWAP3 PUSH1 0x1 PUSH1 0x1 PUSH1 0x60 SHL SUB NOT DUP1 SWAP3 PUSH1 0x60 SHL AND DUP5 MSTORE PUSH1 0x60 SHL AND PUSH1 0x34 DUP3 ADD MSTORE PUSH1 0x28 DUP2 MSTORE PUSH2 0x4AB7 DUP2 PUSH2 0x2C80 JUMP JUMPDEST MLOAD SWAP1 KECCAK256 SWAP1 JUMP JUMPDEST DUP2 DUP2 SUB SWAP3 SWAP2 PUSH1 0x0 SGT DUP1 ISZERO DUP3 DUP6 SGT AND SWAP2 DUP5 SLT AND OR PUSH2 0x2F60 JUMPI JUMP JUMPDEST PUSH1 0x0 NOT DUP2 EQ PUSH2 0x2F60 JUMPI PUSH1 0x1 ADD SWAP1 JUMP JUMPDEST SWAP1 PUSH1 0x0 JUMPDEST DUP3 SLOAD DUP2 LT ISZERO PUSH2 0x4B28 JUMPI PUSH2 0x4AFC DUP2 DUP5 PUSH2 0x2BE6 JUMP JUMPDEST SWAP1 SLOAD PUSH1 0x3 SWAP2 SWAP1 SWAP2 SHL SHR PUSH1 0x1 PUSH1 0x1 PUSH1 0xA0 SHL SUB SWAP1 DUP2 AND SWAP1 DUP4 AND EQ PUSH2 0x4B20 JUMPI PUSH1 0x1 ADD PUSH2 0x4AE9 JUMP JUMPDEST POP POP POP PUSH1 0x1 SWAP1 JUMP JUMPDEST POP POP POP PUSH1 0x0 SWAP1 JUMP JUMPDEST PUSH1 0x2 PUSH1 0x3 DUP3 ADD SLOAD SWAP2 ADD SLOAD SWAP1 DUP2 DUP2 LT ISZERO PUSH2 0x4B4F JUMPI PUSH2 0x4B4C SWAP2 PUSH2 0x2F53 JUMP JUMPDEST SWAP1 JUMP JUMPDEST POP POP PUSH1 0x0 SWAP1 JUMP JUMPDEST PUSH1 0x1 PUSH1 0x1 PUSH1 0x40 SHL SUB DUP2 GT PUSH2 0x2C6A JUMPI PUSH1 0x1F ADD PUSH1 0x1F NOT AND PUSH1 0x20 ADD SWAP1 JUMP JUMPDEST SWAP1 DUP2 MLOAD DUP2 LT ISZERO PUSH2 0x2BFE JUMPI ADD PUSH1 0x20 ADD SWAP1 JUMP JUMPDEST PUSH1 0x40 MLOAD SWAP1 PUSH1 0x1 PUSH1 0x1 PUSH1 0x60 SHL SUB NOT SWAP1 PUSH1 0x60 SHL AND PUSH1 0x20 DUP3 ADD MSTORE PUSH1 0x14 DUP1 DUP3 MSTORE PUSH2 0x4BA7 DUP3 PUSH2 0x2C9B JUMP JUMPDEST PUSH1 0x40 MLOAD SWAP1 PUSH2 0x4BB4 DUP3 PUSH2 0x2C9B JUMP JUMPDEST PUSH1 0x10 DUP3 MSTORE PUSH16 0x181899199A1A9B1B9C1CB0B131B232B3 PUSH1 0x81 SHL PUSH1 0x20 DUP4 ADD MSTORE PUSH1 0x40 MLOAD SWAP3 PUSH2 0x4BDE DUP5 PUSH2 0x2C80 JUMP JUMPDEST PUSH1 0x2A DUP5 MSTORE PUSH1 0x20 DUP5 ADD PUSH1 0x40 CALLDATASIZE DUP3 CALLDATACOPY DUP5 MLOAD ISZERO PUSH2 0x2BFE JUMPI PUSH1 0x30 SWAP1 MSTORE8 DUP4 MLOAD SWAP3 PUSH1 0x1 SWAP4 PUSH1 0x1 LT ISZERO PUSH2 0x2BFE JUMPI PUSH1 0x78 PUSH1 0x21 DUP7 ADD MSTORE8 PUSH1 0x0 JUMPDEST DUP4 DUP2 LT PUSH2 0x4C1D JUMPI POP POP POP POP POP SWAP1 JUMP JUMPDEST PUSH1 0x1 PUSH1 0x1 PUSH1 0xF8 SHL SUB NOT SWAP1 DUP2 PUSH2 0x4C3F PUSH2 0x4C35 DUP4 DUP8 PUSH2 0x4B71 JUMP JUMPDEST MLOAD PUSH1 0xFC SHR DUP6 PUSH2 0x4B71 JUMP JUMPDEST MLOAD AND SWAP2 DUP2 DUP8 SHL SWAP3 PUSH1 0x2 SWAP1 DUP4 DUP6 DIV DUP3 EQ DUP5 ISZERO OR ISZERO PUSH2 0x2F60 JUMPI DUP5 DUP3 ADD DUP1 SWAP3 GT PUSH2 0x2F60 JUMPI PUSH2 0x4C6E SWAP1 PUSH1 0x0 BYTE SWAP2 DUP11 PUSH2 0x4B71 JUMP JUMPDEST MSTORE8 PUSH2 0x4C89 PUSH1 0xF PUSH2 0x4C7E DUP5 DUP9 PUSH2 0x4B71 JUMP JUMPDEST MLOAD PUSH1 0xF8 SHR AND DUP6 PUSH2 0x4B71 JUMP JUMPDEST MLOAD AND SWAP2 PUSH1 0x3 SWAP1 DUP2 ADD DUP1 SWAP2 GT PUSH2 0x2F60 JUMPI PUSH2 0x4CA7 DUP8 SWAP4 PUSH1 0x0 BYTE SWAP2 DUP10 PUSH2 0x4B71 JUMP JUMPDEST MSTORE8 ADD PUSH2 0x4C0E JUMP JUMPDEST MLOAD SWAP1 PUSH1 0x1 PUSH1 0x1 PUSH1 0xA0 SHL SUB DUP3 AND DUP3 SUB PUSH2 0x2AE8 JUMPI JUMP JUMPDEST DUP1 PUSH1 0x0 MSTORE PUSH1 0x3 PUSH1 0x20 MSTORE PUSH1 0x40 PUSH1 0x0 KECCAK256 PUSH1 0x9 PUSH1 0x20 MSTORE PUSH1 0x40 PUSH1 0x0 KECCAK256 SWAP3 PUSH1 0x40 MLOAD SWAP4 PUSH1 0x0 DUP6 DUP3 SLOAD SWAP2 PUSH2 0x4CEE DUP4 PUSH2 0x2C14 JUMP JUMPDEST SWAP3 DUP4 DUP4 MSTORE PUSH1 0x20 DUP4 ADD SWAP5 PUSH1 0x1 SWAP2 PUSH1 0x1 DUP2 AND SWAP1 DUP2 PUSH1 0x0 EQ PUSH2 0x50C4 JUMPI POP PUSH1 0x1 EQ PUSH2 0x5082 JUMPI JUMPDEST POP POP PUSH2 0x4D1E SWAP3 POP SUB DUP7 PUSH2 0x2CB6 JUMP JUMPDEST PUSH1 0xA0 DUP6 DUP1 MLOAD DUP2 ADD SUB SLT PUSH2 0x2AE8 JUMPI PUSH2 0x4D34 SWAP1 PUSH2 0x4CAE JUMP JUMPDEST POP PUSH1 0x80 PUSH2 0x4D43 PUSH1 0x40 DUP7 ADD PUSH2 0x4CAE JUMP JUMPDEST SWAP5 ADD MLOAD SWAP4 PUSH2 0x4D50 DUP4 PUSH2 0x4B30 JUMP JUMPDEST SWAP5 PUSH1 0x64 PUSH2 0x4D6C PUSH1 0x2 DUP7 ADD SLOAD PUSH1 0xFF PUSH1 0x4 DUP9 ADD SLOAD PUSH1 0x8 SHR AND SWAP1 PUSH2 0x2F8D JUMP JUMPDEST DIV DUP7 DUP2 GT PUSH2 0x507B JUMPI JUMPDEST PUSH2 0x4D85 PUSH1 0x64 SWAP2 PUSH1 0xFF DUP7 AND SWAP1 PUSH2 0x2F8D JUMP JUMPDEST DIV SWAP6 PUSH3 0xF4240 DUP8 LT PUSH2 0x502C JUMPI DUP1 DUP8 GT PUSH2 0x5024 JUMPI JUMPDEST POP PUSH1 0x1 PUSH1 0x1 PUSH1 0xA0 SHL SUB DUP3 AND PUSH1 0x0 SWAP1 DUP2 MSTORE PUSH1 0xB PUSH1 0x20 MSTORE PUSH1 0x40 SWAP1 KECCAK256 SLOAD SWAP1 DUP2 ISZERO PUSH2 0x501C JUMPI POP SWAP3 JUMPDEST PUSH2 0x4DC8 PUSH1 0xD SLOAD PUSH2 0x4AD6 JUMP JUMPDEST SWAP3 DUP4 PUSH1 0xD SSTORE PUSH1 0x40 MLOAD SWAP4 PUSH1 0x20 DUP6 ADD SWAP1 DUP8 DUP3 MSTORE TIMESTAMP PUSH1 0x40 DUP8 ADD MSTORE PUSH1 0x1 PUSH1 0x1 PUSH1 0x60 SHL SUB NOT DUP6 PUSH1 0x60 SHL AND PUSH1 0x60 DUP8 ADD MSTORE PUSH1 0x74 DUP7 ADD MSTORE PUSH1 0x74 DUP6 MSTORE PUSH1 0x1 PUSH1 0x1 PUSH1 0x40 SHL SUB SWAP1 DUP6 PUSH1 0xA0 DUP2 ADD LT DUP3 PUSH1 0xA0 DUP9 ADD GT OR PUSH2 0x2C6A JUMPI PUSH1 0xA0 DUP7 ADD PUSH1 0x40 DUP2 SWAP1 MSTORE DUP7 MLOAD SWAP1 SWAP2 KECCAK256 DUP5 SLOAD PUSH1 0x1 DUP7 ADD SLOAD SWAP2 SWAP4 PUSH1 0x1 PUSH1 0x1 PUSH1 0xA0 SHL SUB SWAP3 DUP4 AND SWAP4 SWAP2 SWAP1 SWAP3 AND SWAP2 PUSH2 0x200 DUP10 ADD SWAP1 DUP2 GT SWAP2 GT OR PUSH2 0x2C6A JUMPI PUSH2 0x200 DUP8 ADD PUSH1 0x40 MSTORE PUSH1 0xA0 DUP8 ADD MSTORE PUSH1 0xC0 DUP7 ADD MSTORE DUP7 PUSH1 0xE0 DUP7 ADD MSTORE PUSH1 0x1 DUP1 PUSH1 0xA0 SHL SUB DUP5 AND PUSH2 0x100 DUP7 ADD MSTORE DUP8 PUSH2 0x120 DUP7 ADD MSTORE DUP6 PUSH2 0x140 DUP7 ADD MSTORE PUSH1 0x0 PUSH2 0x160 DUP7 ADD MSTORE PUSH1 0x0 PUSH2 0x180 DUP7 ADD MSTORE PUSH1 0x0 PUSH2 0x1A0 DUP7 ADD MSTORE TIMESTAMP PUSH2 0x1C0 DUP7 ADD MSTORE PUSH1 0x0 PUSH2 0x1E0 DUP7 ADD MSTORE DUP1 PUSH1 0x0 MSTORE PUSH1 0x4 PUSH1 0x20 MSTORE PUSH1 0x40 PUSH1 0x0 KECCAK256 SWAP1 PUSH1 0x1 DUP1 PUSH1 0xA0 SHL SUB PUSH1 0xA0 DUP8 ADD MLOAD AND PUSH1 0x1 PUSH1 0x1 PUSH1 0x60 SHL SUB PUSH1 0xA0 SHL SWAP1 DUP2 DUP5 SLOAD AND OR DUP4 SSTORE PUSH1 0x1 DUP4 ADD PUSH1 0x1 DUP1 PUSH1 0xA0 SHL SUB PUSH1 0xC0 DUP10 ADD MLOAD AND DUP3 DUP3 SLOAD AND OR SWAP1 SSTORE PUSH1 0xE0 DUP8 ADD MLOAD PUSH1 0x2 DUP5 ADD SSTORE PUSH1 0x3 DUP4 ADD SWAP1 PUSH1 0x1 DUP1 PUSH1 0xA0 SHL SUB PUSH2 0x100 DUP10 ADD MLOAD AND SWAP1 DUP3 SLOAD AND OR SWAP1 SSTORE PUSH2 0x120 DUP7 ADD MLOAD PUSH1 0x4 DUP4 ADD SSTORE PUSH2 0x140 DUP7 ADD MLOAD PUSH1 0x5 DUP4 ADD SSTORE PUSH2 0x160 DUP7 ADD MLOAD PUSH1 0x6 DUP4 ADD SSTORE PUSH2 0x180 DUP7 ADD MLOAD PUSH1 0x7 DUP4 ADD SSTORE PUSH1 0x8 DUP3 ADD PUSH2 0x1A0 DUP8 ADD MLOAD PUSH1 0x2 DUP2 LT ISZERO PUSH2 0x2E03 JUMPI PUSH32 0xFAC05F01C50AE793F1A1FB2912053546D62525AC2DFAD4ADBC641F37C09BF8A SWAP9 PUSH1 0x3 PUSH1 0xFF SWAP8 DUP13 SWAP7 PUSH1 0xA PUSH2 0x1E0 PUSH1 0x40 SWAP14 PUSH32 0xB1EEFDDB5E15079C801481DD2D9558F62B8D6E4BA1D15D3E8DA341E1D07CCD18 SWAP9 PUSH1 0x60 SWAP9 DUP15 DUP1 NOT DUP4 SLOAD AND SWAP2 AND OR SWAP1 SSTORE PUSH2 0x1C0 DUP2 ADD MLOAD PUSH1 0x9 DUP6 ADD SSTORE ADD MLOAD SWAP2 ADD SSTORE DUP7 PUSH1 0x0 MSTORE PUSH1 0x6 PUSH1 0x20 MSTORE PUSH2 0x4FD9 DUP7 DUP13 PUSH1 0x0 KECCAK256 PUSH2 0x49BC JUMP JUMPDEST ADD PUSH2 0x4FE5 DUP14 DUP3 SLOAD PUSH2 0x2FC0 JUMP JUMPDEST SWAP1 SSTORE DUP9 MLOAD PUSH1 0x1 PUSH1 0x1 PUSH1 0xA0 SHL SUB DUP10 AND DUP2 MSTORE PUSH1 0x20 DUP2 ADD DUP14 SWAP1 MSTORE DUP1 DUP11 ADD SWAP2 SWAP1 SWAP2 MSTORE LOG3 DUP4 MLOAD SWAP7 DUP8 MSTORE AND PUSH1 0x20 DUP7 ADD MSTORE PUSH1 0x1 PUSH1 0x1 PUSH1 0xA0 SHL SUB AND SWAP4 LOG3 JUMP JUMPDEST SWAP1 POP SWAP3 PUSH2 0x4DBD JUMP JUMPDEST SWAP6 POP CODESIZE PUSH2 0x4D99 JUMP JUMPDEST POP POP POP POP POP SWAP1 POP PUSH1 0x0 DUP1 MLOAD PUSH1 0x20 PUSH2 0x5273 DUP4 CODECOPY DUP2 MLOAD SWAP2 MSTORE PUSH1 0x60 PUSH1 0x40 MLOAD PUSH1 0x20 DUP2 MSTORE PUSH1 0x1E PUSH1 0x20 DUP3 ADD MSTORE PUSH32 0x616C6C6F636174656420616D6F756E742062656C6F77206D696E696D756D0000 PUSH1 0x40 DUP3 ADD MSTORE LOG2 JUMP JUMPDEST POP DUP6 PUSH2 0x4D75 JUMP JUMPDEST PUSH1 0x0 SWAP1 DUP2 MSTORE PUSH1 0x20 DUP2 KECCAK256 SWAP1 SWAP3 POP JUMPDEST DUP5 DUP4 LT PUSH2 0x50A9 JUMPI POP PUSH2 0x4D1E SWAP4 POP POP DUP2 ADD PUSH1 0x20 ADD CODESIZE DUP1 PUSH2 0x4D10 JUMP JUMPDEST DUP2 SWAP4 POP SWAP1 DUP2 PUSH1 0x20 SWAP3 SLOAD DUP4 DUP6 DUP14 ADD ADD MSTORE ADD SWAP2 ADD SWAP1 SWAP2 DUP9 SWAP3 PUSH2 0x508F JUMP JUMPDEST PUSH1 0xFF NOT AND DUP8 MSTORE POP PUSH2 0x4D1E SWAP5 ISZERO ISZERO PUSH1 0x5 SHL DUP5 ADD PUSH1 0x20 ADD SWAP3 POP CODESIZE SWAP2 POP DUP2 SWAP1 POP PUSH2 0x4D10 JUMP JUMPDEST PUSH1 0x0 SWAP2 JUMPDEST DUP2 SLOAD SWAP3 DUP4 DUP2 LT ISZERO PUSH2 0x5191 JUMPI PUSH2 0x50FF DUP2 DUP5 PUSH2 0x2BE6 JUMP JUMPDEST SWAP1 SLOAD PUSH1 0x3 SWAP6 PUSH1 0x1 PUSH1 0x1 PUSH1 0xA0 SHL SUB SWAP3 SWAP1 SWAP2 SWAP1 DUP8 SHL SHR DUP3 AND DUP5 DUP4 AND EQ PUSH2 0x5129 JUMPI POP POP PUSH1 0x1 ADD SWAP3 POP PUSH2 0x50EA JUMP JUMPDEST SWAP1 SWAP3 POP PUSH1 0x0 NOT SWAP2 DUP3 DUP3 ADD SWAP2 DUP3 GT PUSH2 0x2F60 JUMPI PUSH2 0x2A1C DUP5 PUSH2 0x514B PUSH2 0x5159 SWAP5 DUP9 PUSH2 0x2BE6 JUMP JUMPDEST SWAP1 SLOAD SWAP1 DUP10 SHL SHR AND SWAP2 DUP7 PUSH2 0x2BE6 JUMP JUMPDEST DUP3 SLOAD DUP1 ISZERO PUSH2 0x517B JUMPI ADD SWAP3 PUSH2 0x516D DUP5 DUP5 PUSH2 0x2BE6 JUMP JUMPDEST DUP2 SWAP4 SWAP2 SLOAD SWAP3 SHL SHL NOT AND SWAP1 SSTORE SSTORE JUMP JUMPDEST PUSH4 0x4E487B71 PUSH1 0xE0 SHL PUSH1 0x0 MSTORE PUSH1 0x31 PUSH1 0x4 MSTORE PUSH1 0x24 PUSH1 0x0 REVERT JUMPDEST POP POP POP POP JUMP JUMPDEST DUP1 ISZERO PUSH2 0x5234 JUMPI DUP1 DUP2 PUSH1 0x0 SWAP3 JUMPDEST PUSH2 0x5220 JUMPI POP DUP1 PUSH2 0x51B2 DUP4 PUSH2 0x4B56 JUMP JUMPDEST SWAP3 PUSH2 0x51C0 PUSH1 0x40 MLOAD SWAP5 DUP6 PUSH2 0x2CB6 JUMP JUMPDEST DUP1 DUP5 MSTORE PUSH1 0x1F NOT PUSH2 0x51CF DUP3 PUSH2 0x4B56 JUMP JUMPDEST ADD CALLDATASIZE PUSH1 0x20 DUP7 ADD CALLDATACOPY SWAP1 JUMPDEST PUSH2 0x51E1 JUMPI POP POP SWAP1 JUMP JUMPDEST DUP1 ISZERO PUSH2 0x2F60 JUMPI PUSH1 0x0 NOT ADD SWAP1 PUSH1 0xA SWAP1 PUSH1 0x30 DUP3 DUP3 MOD DUP2 ADD DUP1 SWAP2 GT PUSH2 0x2F60 JUMPI PUSH1 0xF8 SHL PUSH1 0x1 PUSH1 0x1 PUSH1 0xF8 SHL SUB NOT AND PUSH1 0x0 BYTE PUSH2 0x5217 DUP5 DUP7 PUSH2 0x4B71 JUMP JUMPDEST MSTORE8 DIV SWAP1 DUP2 PUSH2 0x51D8 JUMP JUMPDEST SWAP2 PUSH2 0x522C PUSH1 0xA SWAP2 PUSH2 0x4AD6 JUMP JUMPDEST SWAP3 DIV DUP1 PUSH2 0x51A3 JUMP JUMPDEST POP PUSH1 0x40 MLOAD PUSH2 0x5241 DUP2 PUSH2 0x2C9B JUMP JUMPDEST PUSH1 0x1 DUP2 MSTORE PUSH1 0x3 PUSH1 0xFC SHL PUSH1 0x20 DUP3 ADD MSTORE SWAP1 JUMP INVALID BLOCKHASH JUMPI DUP8 STATICCALL SLT 0xA8 0x23 0xE0 CALLCODE 0xB7 PUSH4 0x1CC41B3B 0xA8 DUP3 DUP12 CALLER 0x21 0xCA DUP2 GT GT STATICCALL PUSH22 0xCD3AA3BB5ACE161609ED0659583C4124F93794AADE20 PUSH32 0xA9FE3124C4EE08CB05A724F0E760CAB10E2D527612073B26EECDFD717E6A320C DELEGATECALL 0x4B BLOBBASEFEE STATICCALL 0xC2 0xB0 PUSH20 0x2D9FCBE2B7FA0CF6A264697066735822122077F3 0x26 POP 0x4F MLOAD 0xD5 POP GT SWAP14 SDIV DUP12 TIMESTAMP 0xC6 DUP13 MOD 0xD2 LOG1 COINBASE PUSH25 0x4627B2C47168059906104BE164736F6C634300081800330000 "},"methodIdentifiers":{"AGENT_PLATFORM()":"e55ee7eb","API_BASE()":"22edf01a","AUSD()":"2fd7d1fd","JSON_API_AGENT_ID()":"011f8b1b","LLM_AGENT_ID()":"2e90c1a9","MAX_TRADE_AGE()":"9530b30f","MIN_COPY_SCORE()":"b8ff783d","MIN_TRADE_AUSD()":"5a2d6f5d","PIPELINE_TIMEOUT()":"12bbe10c","PRICE_API_BASE()":"989a83bf","addToAllowlist(address,address[])":"1aac9197","checkLeaderActivity(address,address)":"4e17707a","closePosition(bytes32)":"e54a2ad5","createVault(address,uint256,uint8,uint8,address[])":"85f9805d","deposit(address,uint256)":"47e7ef24","followerVaults(address,uint256)":"1fb3e24e","getAllowlist(address,address)":"d01ec4a6","getFollowerVaults(address)":"572fcdcd","getFreeBalance(address,address)":"de700da6","getOpenPositions(address,address)":"e8134712","getUnrealizedPnL(address,address)":"d4805742","getVault(address,address)":"bbd7edc5","keeperOf(address)":"3c4ce221","latestPrice(address)":"53084eff","onPriceUpdate(uint256,bytes)":"d16b6921","onStrategistResponse(uint256,bytes)":"6abcf6af","onWatcherResponse(uint256,bytes)":"1f275413","owner()":"8da5cb5b","pauseVault(address)":"c0bd6f9e","pipelineActiveAt(bytes32)":"d9c91fea","positions(bytes32)":"514ea4bf","removeFromAllowlist(address,address[])":"92bc6914","reopenVault(address,uint256,uint8,uint8,address[])":"baf404d3","requestToVault(uint256)":"8c728541","resumeVault(address)":"4e6ec0e6","setApiBase(string)":"932a1276","setKeeper(address)":"748747e6","setPriceApiBase(string)":"fe202a18","transferOwnership(address)":"f2fde38b","updatePrice(address)":"96e85ced","vaultId(address,address)":"bd44815f","vaultPositions(bytes32,uint256)":"c81e62e6","vaults(bytes32)":"cca23bf2","withdraw(address)":"51cff8d9"}}}}}