{"contracts/VaultManager.sol":{"VaultManager":{"abi":[{"inputs":[{"internalType":"address","name":"_ausd","type":"address"},{"internalType":"string","name":"_apiBase","type":"string"},{"internalType":"string","name":"_priceApiBase","type":"string"}],"stateMutability":"nonpayable","type":"constructor"},{"anonymous":false,"inputs":[{"indexed":true,"internalType":"bytes32","name":"vaultId","type":"bytes32"},{"indexed":false,"internalType":"address[]","name":"tokens","type":"address[]"}],"name":"AllowlistAdded","type":"event"},{"anonymous":false,"inputs":[{"indexed":true,"internalType":"bytes32","name":"vaultId","type":"bytes32"},{"indexed":false,"internalType":"address[]","name":"tokens","type":"address[]"}],"name":"AllowlistRemoved","type":"event"},{"anonymous":false,"inputs":[{"indexed":true,"internalType":"address","name":"follower","type":"address"},{"indexed":true,"internalType":"address","name":"keeper","type":"address"}],"name":"KeeperSet","type":"event"},{"anonymous":false,"inputs":[{"indexed":true,"internalType":"bytes32","name":"positionId","type":"bytes32"},{"indexed":true,"internalType":"bytes32","name":"vaultId","type":"bytes32"},{"indexed":false,"internalType":"int256","name":"pnl","type":"int256"},{"indexed":false,"internalType":"uint256","name":"exitPrice","type":"uint256"}],"name":"PositionClosed","type":"event"},{"anonymous":false,"inputs":[{"indexed":true,"internalType":"bytes32","name":"positionId","type":"bytes32"},{"indexed":true,"internalType":"bytes32","name":"vaultId","type":"bytes32"},{"indexed":false,"internalType":"address","name":"token","type":"address"},{"indexed":false,"internalType":"uint256","name":"ausdAllocated","type":"uint256"},{"indexed":false,"internalType":"uint256","name":"entryPrice","type":"uint256"}],"name":"PositionOpened","type":"event"},{"anonymous":false,"inputs":[{"indexed":true,"internalType":"address","name":"token","type":"address"},{"indexed":false,"internalType":"uint256","name":"price","type":"uint256"}],"name":"PriceUpdated","type":"event"},{"anonymous":false,"inputs":[{"indexed":true,"internalType":"uint256","name":"requestId","type":"uint256"},{"indexed":true,"internalType":"bytes32","name":"vaultId","type":"bytes32"}],"name":"StrategistRequested","type":"event"},{"anonymous":false,"inputs":[{"indexed":true,"internalType":"uint256","name":"requestId","type":"uint256"},{"indexed":true,"internalType":"bytes32","name":"vaultId","type":"bytes32"},{"indexed":false,"internalType":"uint8","name":"score","type":"uint8"},{"indexed":false,"internalType":"bool","name":"willExecute","type":"bool"}],"name":"StrategistResponse","type":"event"},{"anonymous":false,"inputs":[{"indexed":true,"internalType":"bytes32","name":"vaultId","type":"bytes32"},{"indexed":true,"internalType":"address","name":"token","type":"address"},{"indexed":false,"internalType":"uint256","name":"ausdAllocated","type":"uint256"},{"indexed":false,"internalType":"uint8","name":"copyScore","type":"uint8"}],"name":"TradeCopied","type":"event"},{"anonymous":false,"inputs":[{"indexed":true,"internalType":"bytes32","name":"vaultId","type":"bytes32"},{"indexed":false,"internalType":"string","name":"reason","type":"string"}],"name":"TradeSkipped","type":"event"},{"anonymous":false,"inputs":[{"indexed":true,"internalType":"bytes32","name":"vaultId","type":"bytes32"}],"name":"VaultClosed","type":"event"},{"anonymous":false,"inputs":[{"indexed":true,"internalType":"address","name":"follower","type":"address"},{"indexed":true,"internalType":"address","name":"leader","type":"address"},{"indexed":true,"internalType":"bytes32","name":"vaultId","type":"bytes32"},{"indexed":false,"internalType":"uint256","name":"amount","type":"uint256"}],"name":"VaultCreated","type":"event"},{"anonymous":false,"inputs":[{"indexed":true,"internalType":"bytes32","name":"vaultId","type":"bytes32"},{"indexed":false,"internalType":"uint256","name":"amount","type":"uint256"}],"name":"VaultDeposited","type":"event"},{"anonymous":false,"inputs":[{"indexed":true,"internalType":"bytes32","name":"vaultId","type":"bytes32"}],"name":"VaultPaused","type":"event"},{"anonymous":false,"inputs":[{"indexed":true,"internalType":"bytes32","name":"vaultId","type":"bytes32"}],"name":"VaultResumed","type":"event"},{"anonymous":false,"inputs":[{"indexed":true,"internalType":"bytes32","name":"vaultId","type":"bytes32"},{"indexed":false,"internalType":"uint256","name":"amount","type":"uint256"}],"name":"VaultWithdrawn","type":"event"},{"anonymous":false,"inputs":[{"indexed":true,"internalType":"uint256","name":"requestId","type":"uint256"},{"indexed":true,"internalType":"bytes32","name":"vaultId","type":"bytes32"}],"name":"WatcherRequested","type":"event"},{"anonymous":false,"inputs":[{"indexed":true,"internalType":"uint256","name":"requestId","type":"uint256"},{"indexed":true,"internalType":"bytes32","name":"vaultId","type":"bytes32"},{"indexed":false,"internalType":"address","name":"tokenIn","type":"address"},{"indexed":false,"internalType":"address","name":"tokenOut","type":"address"},{"indexed":false,"internalType":"uint256","name":"usdValue","type":"uint256"},{"indexed":false,"internalType":"uint256","name":"tradeTimestamp","type":"uint256"}],"name":"WatcherResponse","type":"event"},{"inputs":[],"name":"AGENT_PLATFORM","outputs":[{"internalType":"address","name":"","type":"address"}],"stateMutability":"view","type":"function"},{"inputs":[],"name":"API_BASE","outputs":[{"internalType":"string","name":"","type":"string"}],"stateMutability":"view","type":"function"},{"inputs":[],"name":"AUSD","outputs":[{"internalType":"address","name":"","type":"address"}],"stateMutability":"view","type":"function"},{"inputs":[],"name":"JSON_API_AGENT_ID","outputs":[{"internalType":"uint256","name":"","type":"uint256"}],"stateMutability":"view","type":"function"},{"inputs":[],"name":"LLM_AGENT_ID","outputs":[{"internalType":"uint256","name":"","type":"uint256"}],"stateMutability":"view","type":"function"},{"inputs":[],"name":"MAX_TRADE_AGE","outputs":[{"internalType":"uint256","name":"","type":"uint256"}],"stateMutability":"view","type":"function"},{"inputs":[],"name":"MIN_COPY_SCORE","outputs":[{"internalType":"uint8","name":"","type":"uint8"}],"stateMutability":"view","type":"function"},{"inputs":[],"name":"MIN_TRADE_AUSD","outputs":[{"internalType":"uint256","name":"","type":"uint256"}],"stateMutability":"view","type":"function"},{"inputs":[],"name":"PIPELINE_TIMEOUT","outputs":[{"internalType":"uint256","name":"","type":"uint256"}],"stateMutability":"view","type":"function"},{"inputs":[],"name":"PRICE_API_BASE","outputs":[{"internalType":"string","name":"","type":"string"}],"stateMutability":"view","type":"function"},{"inputs":[{"internalType":"address","name":"leader","type":"address"},{"internalType":"address[]","name":"tokens","type":"address[]"}],"name":"addToAllowlist","outputs":[],"stateMutability":"nonpayable","type":"function"},{"inputs":[{"internalType":"address","name":"follower","type":"address"},{"internalType":"address","name":"leader","type":"address"}],"name":"checkLeaderActivity","outputs":[],"stateMutability":"payable","type":"function"},{"inputs":[{"internalType":"bytes32","name":"positionId","type":"bytes32"}],"name":"closePosition","outputs":[],"stateMutability":"nonpayable","type":"function"},{"inputs":[{"internalType":"address","name":"leader","type":"address"},{"internalType":"uint256","name":"amount","type":"uint256"},{"internalType":"uint8","name":"riskLevel","type":"uint8"},{"internalType":"uint8","name":"maxPerTradePct","type":"uint8"},{"internalType":"address[]","name":"allowlist","type":"address[]"}],"name":"createVault","outputs":[],"stateMutability":"nonpayable","type":"function"},{"inputs":[{"internalType":"address","name":"leader","type":"address"},{"internalType":"uint256","name":"amount","type":"uint256"}],"name":"deposit","outputs":[],"stateMutability":"nonpayable","type":"function"},{"inputs":[{"internalType":"address","name":"","type":"address"},{"internalType":"uint256","name":"","type":"uint256"}],"name":"followerVaults","outputs":[{"internalType":"bytes32","name":"","type":"bytes32"}],"stateMutability":"view","type":"function"},{"inputs":[{"internalType":"address","name":"follower","type":"address"},{"internalType":"address","name":"leader","type":"address"}],"name":"getAllowlist","outputs":[{"internalType":"address[]","name":"","type":"address[]"}],"stateMutability":"view","type":"function"},{"inputs":[{"internalType":"address","name":"follower","type":"address"}],"name":"getFollowerVaults","outputs":[{"internalType":"bytes32[]","name":"","type":"bytes32[]"}],"stateMutability":"view","type":"function"},{"inputs":[{"internalType":"address","name":"follower","type":"address"},{"internalType":"address","name":"leader","type":"address"}],"name":"getFreeBalance","outputs":[{"internalType":"uint256","name":"","type":"uint256"}],"stateMutability":"view","type":"function"},{"inputs":[{"internalType":"address","name":"follower","type":"address"},{"internalType":"address","name":"leader","type":"address"}],"name":"getOpenPositions","outputs":[{"internalType":"bytes32[]","name":"openIds","type":"bytes32[]"}],"stateMutability":"view","type":"function"},{"inputs":[{"internalType":"address","name":"follower","type":"address"},{"internalType":"address","name":"leader","type":"address"}],"name":"getUnrealizedPnL","outputs":[{"internalType":"int256","name":"totalPnl","type":"int256"}],"stateMutability":"view","type":"function"},{"inputs":[{"internalType":"address","name":"follower","type":"address"},{"internalType":"address","name":"leader","type":"address"}],"name":"getVault","outputs":[{"components":[{"internalType":"address","name":"follower","type":"address"},{"internalType":"address","name":"leader","type":"address"},{"internalType":"uint256","name":"ausdLocked","type":"uint256"},{"internalType":"uint256","name":"ausdAllocated","type":"uint256"},{"internalType":"uint8","name":"riskLevel","type":"uint8"},{"internalType":"uint8","name":"maxPerTradePct","type":"uint8"},{"internalType":"address[]","name":"allowlist","type":"address[]"},{"internalType":"enum VaultManager.VaultStatus","name":"status","type":"uint8"}],"internalType":"struct VaultManager.VaultConfig","name":"","type":"tuple"}],"stateMutability":"view","type":"function"},{"inputs":[{"internalType":"address","name":"","type":"address"}],"name":"keeperOf","outputs":[{"internalType":"address","name":"","type":"address"}],"stateMutability":"view","type":"function"},{"inputs":[{"internalType":"address","name":"","type":"address"}],"name":"latestPrice","outputs":[{"internalType":"uint256","name":"","type":"uint256"}],"stateMutability":"view","type":"function"},{"inputs":[{"internalType":"uint256","name":"requestId","type":"uint256"},{"internalType":"bytes","name":"response","type":"bytes"}],"name":"onPriceUpdate","outputs":[],"stateMutability":"nonpayable","type":"function"},{"inputs":[{"internalType":"uint256","name":"requestId","type":"uint256"},{"internalType":"bytes","name":"response","type":"bytes"}],"name":"onStrategistResponse","outputs":[],"stateMutability":"nonpayable","type":"function"},{"inputs":[{"internalType":"uint256","name":"requestId","type":"uint256"},{"internalType":"bytes","name":"response","type":"bytes"}],"name":"onWatcherResponse","outputs":[],"stateMutability":"nonpayable","type":"function"},{"inputs":[],"name":"owner","outputs":[{"internalType":"address","name":"","type":"address"}],"stateMutability":"view","type":"function"},{"inputs":[{"internalType":"address","name":"leader","type":"address"}],"name":"pauseVault","outputs":[],"stateMutability":"nonpayable","type":"function"},{"inputs":[{"internalType":"bytes32","name":"","type":"bytes32"}],"name":"pipelineActiveAt","outputs":[{"internalType":"uint256","name":"","type":"uint256"}],"stateMutability":"view","type":"function"},{"inputs":[{"internalType":"bytes32","name":"","type":"bytes32"}],"name":"positions","outputs":[{"internalType":"address","name":"follower","type":"address"},{"internalType":"address","name":"leader","type":"address"},{"internalType":"bytes32","name":"vaultId","type":"bytes32"},{"internalType":"address","name":"token","type":"address"},{"internalType":"uint256","name":"ausdAllocated","type":"uint256"},{"internalType":"uint256","name":"entryPrice","type":"uint256"},{"internalType":"uint256","name":"exitPrice","type":"uint256"},{"internalType":"int256","name":"pnl","type":"int256"},{"internalType":"enum VaultManager.PositionStatus","name":"status","type":"uint8"},{"internalType":"uint256","name":"openedAt","type":"uint256"},{"internalType":"uint256","name":"closedAt","type":"uint256"}],"stateMutability":"view","type":"function"},{"inputs":[{"internalType":"address","name":"leader","type":"address"},{"internalType":"address[]","name":"tokens","type":"address[]"}],"name":"removeFromAllowlist","outputs":[],"stateMutability":"nonpayable","type":"function"},{"inputs":[{"internalType":"uint256","name":"","type":"uint256"}],"name":"requestToVault","outputs":[{"internalType":"bytes32","name":"","type":"bytes32"}],"stateMutability":"view","type":"function"},{"inputs":[{"internalType":"address","name":"leader","type":"address"}],"name":"resumeVault","outputs":[],"stateMutability":"nonpayable","type":"function"},{"inputs":[{"internalType":"string","name":"base","type":"string"}],"name":"setApiBase","outputs":[],"stateMutability":"nonpayable","type":"function"},{"inputs":[{"internalType":"address","name":"keeper","type":"address"}],"name":"setKeeper","outputs":[],"stateMutability":"nonpayable","type":"function"},{"inputs":[{"internalType":"string","name":"base","type":"string"}],"name":"setPriceApiBase","outputs":[],"stateMutability":"nonpayable","type":"function"},{"inputs":[{"internalType":"address","name":"newOwner","type":"address"}],"name":"transferOwnership","outputs":[],"stateMutability":"nonpayable","type":"function"},{"inputs":[{"internalType":"address","name":"token","type":"address"}],"name":"updatePrice","outputs":[],"stateMutability":"payable","type":"function"},{"inputs":[{"internalType":"address","name":"follower","type":"address"},{"internalType":"address","name":"leader","type":"address"}],"name":"vaultId","outputs":[{"internalType":"bytes32","name":"","type":"bytes32"}],"stateMutability":"pure","type":"function"},{"inputs":[{"internalType":"bytes32","name":"","type":"bytes32"},{"internalType":"uint256","name":"","type":"uint256"}],"name":"vaultPositions","outputs":[{"internalType":"bytes32","name":"","type":"bytes32"}],"stateMutability":"view","type":"function"},{"inputs":[{"internalType":"bytes32","name":"","type":"bytes32"}],"name":"vaults","outputs":[{"internalType":"address","name":"follower","type":"address"},{"internalType":"address","name":"leader","type":"address"},{"internalType":"uint256","name":"ausdLocked","type":"uint256"},{"internalType":"uint256","name":"ausdAllocated","type":"uint256"},{"internalType":"uint8","name":"riskLevel","type":"uint8"},{"internalType":"uint8","name":"maxPerTradePct","type":"uint8"},{"internalType":"enum VaultManager.VaultStatus","name":"status","type":"uint8"}],"stateMutability":"view","type":"function"},{"inputs":[{"internalType":"address","name":"leader","type":"address"}],"name":"withdraw","outputs":[],"stateMutability":"nonpayable","type":"function"},{"stateMutability":"payable","type":"receive"}],"evm":{"bytecode":{"linkReferences":{},"object":"60a060405234620003ac5762005475803803806200001d81620003b1565b928339810190606081830312620003ac578051916001600160a01b03831690818403620003ac5760208381015190946001600160401b03949091858111620003ac57836200006d918301620003ed565b926040820151868111620003ac57620000879201620003ed565b92156200036757608052600080546001600160a01b031916331781558151929084841162000271576001938454938585811c951680156200035c575b8886101462000348578190601f95868111620002f5575b5088908683116001146200029157849262000285575b5050600019600383901b1c191690851b1784555b815194851162000271576002548481811c9116801562000266575b87821014620002525783811162000209575b5085928511600114620001a057939450849291908362000194575b50501b916000199060031b1c1916176002555b6040516150159081620004608239608051818181610674015281816116ba01528181611d1101528181612535015261268b0152f35b0151925038806200014c565b6002815285812093958591601f198316915b88838310620001ee5750505010620001d4575b505050811b016002556200015f565b015160001960f88460031b161c19169055388080620001c5565b858701518855909601959485019487935090810190620001b2565b600282528682208480880160051c82019289891062000248575b0160051c019085905b8281106200023c57505062000131565b8381550185906200022c565b9250819262000223565b634e487b7160e01b82526022600452602482fd5b90607f16906200011f565b634e487b7160e01b81526041600452602490fd5b015190503880620000f0565b8785528985208894509190601f198416865b8c828210620002de5750508411620002c4575b505050811b01845562000104565b015160001960f88460031b161c19169055388080620002b6565b8385015186558b97909501949384019301620002a3565b9091508684528884208680850160051c8201928b86106200033e575b918991869594930160051c01915b8281106200032f575050620000da565b8681558594508991016200031f565b9250819262000311565b634e487b7160e01b83526022600452602483fd5b94607f1694620000c3565b60405162461bcd60e51b815260048101869052601560248201527f564d3a207a65726f2061555344206164647265737300000000000000000000006044820152606490fd5b600080fd5b6040519190601f01601f191682016001600160401b03811183821017620003d757604052565b634e487b7160e01b600052604160045260246000fd5b919080601f84011215620003ac5782516001600160401b038111620003d75760209062000423601f8201601f19168301620003b1565b92818452828287010111620003ac5760005b8181106200044b57508260009394955001015290565b85810183015184820184015282016200043556fe608080604052600436101561001d575b50361561001b57600080fd5b005b600090813560e01c908163011f8b1b1461298b5750806312bbe10c1461296e5780631aac9197146127f75780631f275413146127c05780631fb3e24e1461277857806322edf01a146126dd5780632e90c1a9146126ba5780632fd7d1fd146126755780633c4ce2211461263957806347e7ef24146124b25780634e17707a1461202d5780634e6ec0e614611f58578063514ea4bf14611e8f57806351cff8d914611c7157806353084eff14611c38578063572fcdcd14611bb65780635a2d6f5d14611b985780636abcf6af14611b5e578063748747e614611af457806385f9805d146115bd5780638c728541146115935780638da5cb5b1461156c57806392bc691414611454578063932a1276146113155780639530b30f146112f857806396e85ced14610ffa578063989a83bf14610f28578063b8ff783d14610f0c578063bbd7edc514610d95578063bd44815f14610d76578063c0bd6f9e14610c87578063c81e62e614610c3f578063cca23bf214610bba578063d01ec4a614610b70578063d16b692114610a39578063d480574214610916578063d9c91fea146108ec578063de700da6146108b3578063e54a2ad5146105ae578063e55ee7eb1461057f578063e8134712146103f7578063f2fde38b146103745763fe202a180361000f5734610371576020906020600319360112610371576001600160401b0360043581811161036d57610233903690600401612a65565b9161024860018060a01b03855416331461471e565b821161035957610259600254612aef565b601f8111610311575b508293601f83116001146102a5575082938291610294949261029a575b50508160011b916000199060031b1c19161790565b60025580f35b01359050388061027f565b601f19831694600080516020614f80833981519152929185905b8782106102f95750508360019596106102df575b505050811b0160025580f35b0135600019600384901b60f8161c191690553880806102d3565b806001849682949587013581550195019201906102bf565b610349906002600052600080516020614f80833981519152601f850160051c8101916020861061034f575b601f0160051c0190612df3565b38610262565b909150819061033c565b634e487b7160e01b83526041600452602483fd5b8280fd5b80fd5b50346103715760203660031901126103715761038e6129ad565b8154906001600160a01b03906103a7338385161461471e565b169081156103bf576001600160a01b03191617815580f35b60405162461bcd60e51b815260206004820152601060248201526f564d3a207a65726f206164647265737360801b6044820152606490fd5b5034610371576040366003190112610371576104226104146129ad565b61041c6129c8565b906147b4565b8152602060066020526040822090829183918154925b83811061051e5750610449846146d2565b936104576040519586612b91565b808552610466601f19916146d2565b013660208601378491855b84811061048a57604051806104868882612bfa565b0390f35b6104948183612ac1565b9054600391821b1c88526004845260ff600860408a20015416600281101561050a57156104c5575b50600101610471565b6104cf8284612ac1565b9054911b1c6104dd85614803565b9487518110156104f65760051b870184015260016104bc565b634e487b7160e01b89526032600452602489fd5b634e487b7160e01b89526021600452602489fd5b6105288184612ac1565b90549060031b1c86526004825260ff600860408820015416600281101561056b5715610557575b600101610438565b93610563600191614803565b94905061054f565b634e487b7160e01b87526021600452602487fd5b5034610371578060031936011261037157602060405173037bb9c718f3f7fe5ecbdb0b600d607b527067768152f35b5034610371576020806003193601126108af576004358083526004825260408320916008830160ff815416600281101561089b5761085e5783546001600160a01b03929083163381148015610846575b6106089150614505565b600285015494858752600382526040872092846003830154168852600b835260408820549384156107ea5760048301805496610652610647888a612e0a565b600587015490612e1d565b61065c89826147ea565b98808211156107875750825461067191612dd0565b907f000000000000000000000000000000000000000000000000000000000000000016803b15610783576040516340c10f1960e01b815230600482015260248101839052908c908290604490829084905af1801561077857610747575b509161071c60037fb8afeb408acd10e29c21161f211b1e177a3ce18923199654650821f940cff38a99979593604099979561070e60028601918254612e3d565b90555b549201918254612dd0565b9055836006830155846007830155600160ff19825416179055600a429101558351928352820152a380f35b6001600160401b03819c929c11610764576040529961071c6106ce565b634e487b7160e01b82526041600452602482fd5b6040513d8e823e3d90fd5b8b80fd5b604098969492507fb8afeb408acd10e29c21161f211b1e177a3ce18923199654650821f940cff38a99979593818360039361071c95106107c9575b5050610711565b6107d291612dd0565b6107e160028601918254612dd0565b905538806107c2565b60405162461bcd60e51b815260048101859052602e60248201527f564d3a206e6f20707269636520617661696c61626c652c2063616c6c2075706460448201526d185d19541c9a58d948199a5c9cdd60921b6064820152608490fd5b508652600781526106088360408820541633146105fe565b60405162461bcd60e51b81526004810183905260156024820152742b269d103837b9b4ba34b7b7103737ba1037b832b760591b6044820152606490fd5b634e487b7160e01b86526021600452602486fd5b5080fd5b5034610371576040366003190112610371576108e460406020926108d86104146129ad565b8152600384522061485d565b604051908152f35b50346103715760203660031901126103715760406020916004358152600a83522054604051908152f35b5034610371576040366003190112610371576109306129ad565b61094261093b6129c8565b83926147b4565b8252602060066020526040832083918154915b82841061096757602085604051908152f35b909192936109758583612ac1565b9054600391821b1c875260048452604087209060ff600883015416600281101561050a57610a22578101546001600160a01b03168752600b845260408720549081158015610a2d575b610a2257906109e48260056109db60046109e99601549485612e0a565b91015490612e1d565b6147ea565b90868282019283129112908015821691151617610a0e57600190945b01929190610955565b634e487b7160e01b86526011600452602486fd5b505093600190610a05565b506005810154156109be565b503461037157610a4836612a92565b90610a6873037bb9c718f3f7fe5ecbdb0b600d607b527067763314612d85565b828452600c602090815260408520546001600160a01b0316939092908415610b2b578552600c83526040852080546001600160a01b031916905581018190038213610b2757358015610aee57907f0d86730737b142fc160892fa8a0f2db687a92a0e294d1ad70624cf5acef03b8491838552600b8252806040862055604051908152a280f35b60405162461bcd60e51b8152600481018390526011602482015270564d3a20696e76616c696420707269636560781b6044820152606490fd5b8380fd5b60405162461bcd60e51b815260048101859052601960248201527f564d3a20756e6b6e6f776e2070726963652072657175657374000000000000006044820152606490fd5b503461037157604036600319011261037157610ba66005604061048693610b986104146129ad565b81526003602052200161475a565b604051918291602083526020830190612c36565b503461037157602036600319011261037157604060e0916004358152600360205220610c3d60018060a01b039160ff838254169360018301541691600281015460038201549083600660048501549401541694604051978852602088015260408701526060860152818116608086015260081c1660a084015260c0830190612c73565bf35b503461037157604036600319011261037157602435906004358152600660205260408120908154831015610371576020610c798484612ac1565b90546040519160031b1c8152f35b503461037157602036600319011261037157610caa610ca46129ad565b336147b4565b80825260036020526040822054610ccb906001600160a01b03163314612cd4565b808252600360205260ff6006604084200154166003811015610d6257610d2c57808252600360205260408220600601805460ff191660011790557f7ca948eddccf3a65f738292fe09d47dd38a0616763f1a1a78715430c7a18a18b8280a280f35b60405162461bcd60e51b815260206004820152600e60248201526d564d3a206e6f742061637469766560901b6044820152606490fd5b634e487b7160e01b83526021600452602483fd5b50346103715760403660031901126103715760206108e46104146129ad565b503461037157604036600319011261037157610df9610db26129ad565b610dba6129c8565b908360e0604051610dca81612b29565b8281528260208201528260408201528260608201528260808201528260a0820152606060c082015201526147b4565b815260036020526040812060405190610e1182612b29565b60018060a01b039081815416835281600182015416916020840192835260028201549060408501918252600383015460608601908152600484015492608087019260ff8516845260ff60a089019560081c16855260ff6006610e756005890161475a565b9760c08b019889520154169660e08901976003811015610ef85793610486969360ff95938a999793879560209c52816040519d8e9d8e52511660208d0152511660408b01525160608a0152516080890152511660a0870152511660c085015251610eed610100918260e0870152610120860190612c36565b925190840190612c73565b634e487b7160e01b8b52602160045260248bfd5b50346103715780600319360112610371576020604051600a8152f35b503461037157806003193601126103715760405190808260025491610f4c83612aef565b9283835260209460019186600182169182600014610fd8575050600114610f90575b5050610f7c92500383612b91565b610486604051928284938452830190612bd5565b9085925060028252600080516020614f808339815191525b858310610fc0575050610f7c93508201013880610f6e565b80548389018501528794508693909201918101610fa8565b9250935050610f7c94915060ff191682840152151560051b8201013880610f6e565b506020806003193601126108af576110106129ad565b6001600160a01b038116919082156112c257604051630ffeb17d60e11b815273037bb9c718f3f7fe5ecbdb0b600d607b5270677691908381600481865afa9081156112b7578691611286575b5067013fbe85edc900008101809111610a0e57341061122f5761107e906148af565b9060405191859060025461109181612aef565b9060019081811690811561121157506001146111cb575b50509161111a60408587856110c988839a986111609c9a5194859201612bb2565b01036110dd601f1991828101875286612b91565b66242e707269636560c81b866110fe84519785838a01526060890190612bd5565b8781039384018589015260078152015285810185520183612b91565b6040516345de5df160e11b815267b6d47da8dbbcb1b1600482015230602482015263d16b692160e01b604482015260806064820152948592839182916084830190612bd5565b039134905af180156111c0578490611192575b8452600c9052506040822080546001600160a01b031916909117905580f35b508082813d83116111b9575b6111a88183612b91565b81010312610b2757600c9151611173565b503d61119e565b6040513d86823e3d90fd5b60028952919250908790600080516020614f808339815191525b8383106111fe57505050830184019061111a60406110a8565b80548784018901529187019181016111e5565b60ff19168888015250508015150284018501915061111a60406110a8565b60405162461bcd60e51b815260048101849052602960248201527f564d3a20696e73756666696369656e74206465706f73697420666f722070726960448201526863652075706461746560b81b6064820152608490fd5b90508381813d83116112b0575b61129d8183612b91565b810103126112ac57513861105c565b8580fd5b503d611293565b6040513d88823e3d90fd5b60405162461bcd60e51b815260048101839052600e60248201526d2b269d103d32b937903a37b5b2b760911b6044820152606490fd5b5034610371578060031936011261037157602060405161012c8152f35b5034610371576020906020600319360112610371576001600160401b0360043581811161036d5761134a903690600401612a65565b909161136060018060a01b03855416331461471e565b8111610359576001916113738354612aef565b601f811161141c575b508394601f83116001146113b35750839482916113ae94959261029a5750508160011b916000199060031b1c19161790565b905580f35b601f19831695600080516020614fc0833981519152929186905b88821061140557505083859697106113eb575b505050811b01905580f35b0135600019600384901b60f8161c191690553880806113e0565b8087849682949587013581550195019201906113cd565b61144e90600080516020614fc0833981519152601f850160051c8101916020861061034f57601f0160051c0190612df3565b3861137c565b50346103715761147461146636612a22565b929091610ca4841515612c96565b80845260036020526040842054909290611498906001600160a01b03163314612cd4565b828452600360205260408420600501845b828110611547575054156114ee577f89216286babe3a315db35c8a44501c50b04e4af6db52228800178fa93abbcfa6916114e860405192839283612d39565b0390a280f35b60405162461bcd60e51b815260206004820152602b60248201527f564d3a2063616e6e6f742072656d6f766520616c6c20746f6b656e732066726f60448201526a1b48185b1b1bdddb1a5cdd60aa1b6064820152608490fd5b8061156661156061155b6001948789612d15565b612d25565b84614e13565b016114a9565b5034610371578060031936011261037157546040516001600160a01b039091168152602090f35b50346103715760203660031901126103715760406020916004358152600883522054604051908152f35b50346103715760a0366003190112610371576115d76129ad565b6024604491823560ff8116809103611af0576064803560ff8116809103611aec576084356001600160401b038111611ae8576116179036906004016129f2565b90929091906001600160a01b038616151580611ad5575b15611aa057600185101580611a95575b15611a6057600182101580611a56575b15611a235782156119d05786351561199d5761166a86336147b4565b808a52600360205260408a20549098906001600160a01b031661195c5750506040516323b872dd60e01b8152336004820152306024820152863560448201526020816064818c6001600160a01b037f0000000000000000000000000000000000000000000000000000000000000000165af18015611951576116f3918a91611922575b506144c4565b6040519361170085612b29565b3385526001600160a01b03861660208601528635604086015260608501899052608085015260a0840152611733816146d2565b916117416040519384612b91565b8183526020830190368360051b82011161191e5780915b8360051b82018310611906575050505060c08201528460e082015283855260036020526040852060018060a01b038251166001600160601b0360a01b9081835416178255600182019060018060a01b036020850151169082541617905560408201516002820155606082015160038201556004810160ff60808401511681549061ff0060a086015160081b169161ffff1916171790556005810160c0830151908151916001600160401b0383116118f357600160401b83116118f35760209082548484558085106118d9575b500190885260208820885b8381106118bc5750505050600660e0910191015160038110156118a95760ff80198354169116179055338452600560205261186d83604086206146e9565b604051913582526001600160a01b03169033907f6195d111f124dc39cb1ab083f9f1b6664e415bf60b71499b3a4b24cf07c337a890602090a480f35b634e487b7160e01b865260216004528386fd5b82516001600160a01b03168183015560209092019160010161182f565b838b52828b206118ed918101908601612df3565b38611824565b634e487b7160e01b895260416004528689fd5b60208091611913856129de565b815201920191611758565b8880fd5b611944915060203d60201161194a575b61193c8183612b91565b8101906144ac565b386116ed565b503d611932565b6040513d8b823e3d90fd5b7f564d3a207661756c7420616c7265616479206578697374730000000000000000889160186040519362461bcd60e51b855260206004860152840152820152fd5b60405162461bcd60e51b8152602060048201526010818901526f15934e881e995c9bc819195c1bdcda5d60821b818a0152fd5b8667696c6c20636f707960c01b6084927f564d3a20616c6c6f776c69737420656d7074792c206e6f2074726164657320778b60286040519562461bcd60e51b875260206004880152860152840152820152fd5b60405162461bcd60e51b8152602060048201526010818901526f0564d3a206d617850637420312d3130360841b818a0152fd5b508082111561164e565b60405162461bcd60e51b815260206004820152601281890152710564d3a207269736b4c6576656c20312d31360741b818a0152fd5b50600a85111561163e565b60405162461bcd60e51b815260206004820152601281890152712b269d1034b73b30b634b2103632b0b232b960711b818a0152fd5b506001600160a01b03861633141561162e565b8780fd5b8680fd5b8480fd5b503461037157602036600319011261037157611b0e6129ad565b3380835260076020526040832080546001600160a01b0319166001600160a01b0390931692831790557f50697e88bd427923002f5d3844f352091c05c0c9c3b69e43830863d2224631738380a380f35b503461037157611b95611b7036612a92565b91611b9073037bb9c718f3f7fe5ecbdb0b600d607b527067763314612d85565b614590565b80f35b50346103715780600319360112610371576020604051620f42408152f35b5034610371576020806003193601126108af576001600160a01b03611bd96129ad565b1682526005602052604082209160405180926020855492838152019483526020832092905b828210611c215761048685611c1581890382612b91565b60405191829182612bfa565b835486529485019460019384019390910190611bfe565b5034610371576020366003190112610371576020906040906001600160a01b03611c606129ad565b168152600b83522054604051908152f35b5034610371576020806003193601126108af57611c8f610ca46129ad565b90818352600381526040832060018060a01b03611cb0338284541614612cd4565b6006820180549260ff84166003811015611e7b57600214611e41576003810154611dfc57600290810180549088905560ff199490941617905560405163a9059cbb60e01b8152336004820152602481018390529083908290604490829089907f0000000000000000000000000000000000000000000000000000000000000000165af1908115611df1578591611dd4575b5015611d995782917f1de10dc7adf633383767e576a9953d1b3c4f31a05c1635d7656d25604aca6b1f91604051908152a27fd06ef1be920eaf099a4e446ec48846abae39f5eb6b0877fea0913a68731af5518280a280f35b60405162461bcd60e51b815260048101839052601360248201527215934e881dda5d1a191c985dc819985a5b1959606a1b6044820152606490fd5b611deb9150833d851161194a5761193c8183612b91565b38611d41565b6040513d87823e3d90fd5b60405162461bcd60e51b815260048101869052601e60248201527f564d3a20636c6f7365206f70656e20706f736974696f6e7320666972737400006044820152606490fd5b60405162461bcd60e51b815260048101869052601260248201527115934e88185b1c9958591e4818db1bdcd95960721b6044820152606490fd5b634e487b7160e01b88526021600452602488fd5b503461037157602036600319011261037157600435815260046020526040812060018060a01b03808254169181600182015416916002820154906003830154166004830154600584015460068501549160078601549360ff60088801541695600a6009890154980154986040519a8b5260208b015260408a01526060890152608088015260a087015260c086015260e08501526002811015611f44576101609450610100840152610120830152610140820152f35b634e487b7160e01b85526021600452602485fd5b503461037157602036600319011261037157611f75610ca46129ad565b80825260036020526040822054611f96906001600160a01b03163314612cd4565b808252600360205260ff6006604084200154166003811015610d6257600103611ff757808252600360205260408220600601805460ff191690557fa7b437a7c0be1eaaad481743f822acf86d00e9707a0c18a609f0e3ad97370ba88280a280f35b60405162461bcd60e51b815260206004820152600e60248201526d15934e881b9bdd081c185d5cd95960921b6044820152606490fd5b506040366003190112610371576120426129ad565b61207661204d6129c8565b918290612071336001600160a01b03808416918214918215612499575b5050614505565b6147b4565b908183526020600381526040842060ff600682015416600381101561089b5761245d57838552600a825260408520548015908115612447575b5015612402576120c2620f42409161485d565b11156123be57828452600a8152604080852042905551630ffeb17d60e11b81529173037bb9c718f3f7fe5ecbdb0b600d607b52706776908284600481855afa9384156112b757869461238f575b5067013fbe85edc9000084019384811161237b576702ea11e32ad50000810180911161237b5761213f9085612e3d565b341061231c5761214f83916148af565b916040518793600180549061216382612aef565b916001811690811561230057506001146122ba575b5050600c82858761219685612243999a6121b8975194859201612bb2565b016b02f6c61746573742d737761760a41b815203601319810184520182612b91565b6121fc60406121d281519382888601526060850190612bd5565b650242e737761760d41b8785830392601f1984018588015260068152015286810184520182612b91565b6040516345de5df160e11b815267b6d47da8dbbcb1b16004820152306024820152631f27541360e01b60448201526080606482015295869384928391906084830190612bd5565b03925af19182156111c057849261228a575b50600890828552528160408420557f7d0d4a45b610c689953ac3d1df4e7739f7ba0e76107b191b9170d4eb27b90b4e8380a380f35b9080925081813d83116122b3575b6122a28183612b91565b81010312610b275751906008612255565b503d612298565b60018b529095508990600080516020614fc08339815191525b8783106122eb57505050938101830193600c82612178565b805485840188015288969092019181016122d3565b60ff191685880152505080151502820184019450600c82612178565b60405162461bcd60e51b815260048101849052603160248201527f564d3a20696e73756666696369656e74206465706f73697420286e656564203e6044820152703d206a736f6e4665652b6c6c6d4665652960781b6064820152608490fd5b634e487b7160e01b87526011600452602487fd5b9093508281813d83116123b7575b6123a78183612b91565b810103126112ac5751923861210f565b503d61239d565b6064906040519062461bcd60e51b82526004820152601d60248201527f564d3a20696e73756666696369656e7420667265652062616c616e63650000006044820152fd5b60405162461bcd60e51b815260048101839052601c60248201527f564d3a20706970656c696e6520616c72656164792072756e6e696e67000000006044820152606490fd5b90506102588101809111610a0e574211386120af565b60405162461bcd60e51b8152600481018390526014602482015273564d3a207661756c74206e6f742061637469766560601b6044820152606490fd5b909150875260076020526040872054163314388061206a565b5034610371576040366003190112610371576124cc6129ad565b6124d960243591336147b4565b9081835260206003815260ff6006604086200154166003811015611f44576002146126025781156125cc576040516323b872dd60e01b815233600482015230602482015260448101839052918183606481886001600160a01b037f0000000000000000000000000000000000000000000000000000000000000000165af1928315611df1577ff4d5f4313db9d90750b55863740862117f1a26005f470df515d532580be167b2936125909187916125b557506144c4565b83855260038252600260408620016125a9828254612e3d565b9055604051908152a280f35b6119449150843d861161194a5761193c8183612b91565b6064906040519062461bcd60e51b82526004820152600f60248201526e15934e881e995c9bc8185b5bdd5b9d608a1b6044820152fd5b6064906040519062461bcd60e51b82526004820152601060248201526f15934e881d985d5b1d0818db1bdcd95960821b6044820152fd5b5034610371576020366003190112610371576020906001600160a01b0390604090826126636129ad565b16815260078452205416604051908152f35b50346103715780600319360112610371576040517f00000000000000000000000000000000000000000000000000000000000000006001600160a01b03168152602090f35b5034610371578060031936011261037157602060405167b24ac1afbcefc7088152f35b50346103715780600319360112610371576040519080826001926001549361270485612aef565b9384845260209586600182169182600014610fd8575050600114612730575050610f7c92500383612b91565b9085925060018252600080516020614fc08339815191525b858310612760575050610f7c93508201013880610f6e565b80548389018501528794508693909201918101612748565b5034610371576040366003190112610371576127926129ad565b6001600160a01b0316815260056020526040812080546024359290831015610371576020610c798484612ac1565b503461037157611b956127d236612a92565b916127f273037bb9c718f3f7fe5ecbdb0b600d607b527067763314612d85565b612e4a565b5034610371576128199061280a36612a22565b91610ca4839592951515612c96565b90818352602093600360205260018060a01b0361283d338260408820541614612cd4565b83855260036020526040852060050195855b84811061288b57505050907f6daa1ff9696b2f02619a3f88b4b180ef2a65d070354484a2689f745bd640b764916114e860405192839283612d39565b8261289a61155b838888612d15565b1615612930576128b76128b161155b838888612d15565b89614812565b156128c5575b60010161284f565b6128d361155b828787612d15565b8854600160401b81101561291c57600192916128f7828561291594018d558c612ac1565b90919060018060a01b038084549260031b9316831b921b1916179055565b90506128bd565b634e487b7160e01b89526041600452602489fd5b60405162461bcd60e51b8152600481018390526016602482015275564d3a207a65726f20746f6b656e206164647265737360501b6044820152606490fd5b503461037157806003193601126103715760206040516102588152f35b9050346108af57816003193601126108af578067b6d47da8dbbcb1b160209252f35b600435906001600160a01b03821682036129c357565b600080fd5b602435906001600160a01b03821682036129c357565b35906001600160a01b03821682036129c357565b9181601f840112156129c3578235916001600160401b0383116129c3576020808501948460051b0101116129c357565b9060406003198301126129c3576004356001600160a01b03811681036129c35791602435906001600160401b0382116129c357612a61916004016129f2565b9091565b9181601f840112156129c3578235916001600160401b0383116129c357602083818601950101116129c357565b9060406003198301126129c35760043591602435906001600160401b0382116129c357612a6191600401612a65565b8054821015612ad95760005260206000200190600090565b634e487b7160e01b600052603260045260246000fd5b90600182811c92168015612b1f575b6020831014612b0957565b634e487b7160e01b600052602260045260246000fd5b91607f1691612afe565b61010081019081106001600160401b03821117612b4557604052565b634e487b7160e01b600052604160045260246000fd5b606081019081106001600160401b03821117612b4557604052565b604081019081106001600160401b03821117612b4557604052565b90601f801991011681019081106001600160401b03821117612b4557604052565b60005b838110612bc55750506000910152565b8181015183820152602001612bb5565b90602091612bee81518092818552858086019101612bb2565b601f01601f1916010190565b602090602060408183019282815285518094520193019160005b828110612c22575050505090565b835185529381019392810192600101612c14565b90815180825260208080930193019160005b828110612c56575050505090565b83516001600160a01b031685529381019392810192600101612c48565b906003821015612c805752565b634e487b7160e01b600052602160045260246000fd5b15612c9d57565b60405162461bcd60e51b815260206004820152600f60248201526e564d3a20656d70747920617272617960881b6044820152606490fd5b15612cdb57565b60405162461bcd60e51b815260206004820152601260248201527115934e881b9bdd081e5bdd5c881d985d5b1d60721b6044820152606490fd5b9190811015612ad95760051b0190565b356001600160a01b03811681036129c35790565b909160406020928260208201602083525201929160005b828110612d5e575050505090565b909192938280600192838060a01b03612d76896129de565b16815201950193929101612d50565b15612d8c57565b606460405162461bcd60e51b815260206004820152602060248201527f564d3a2063616c6c6572206973206e6f74206167656e7420706c6174666f726d6044820152fd5b91908203918211612ddd57565b634e487b7160e01b600052601160045260246000fd5b818110612dfe575050565b60008155600101612df3565b81810292918115918404141715612ddd57565b8115612e27570490565b634e487b7160e01b600052601260045260246000fd5b91908201809211612ddd57565b91826000526008602052604060002054928315614467578060005260086020526000604081205583600052600360205260406000209060a08484810103126129c35784612e96856129de565b917f71ed9d4e5866fca58bdb5ed3d76986653d0b7f7776d965590aaea10fac75ce526080612ec6602089016129de565b604080516001600160a01b0397881681529682166020880152898101359087015281890135606087015294a361012c612f03608086013542612dd0565b1161441d57612f1e6001600160a01b03821660058401614812565b156143c857612f2c8261485d565b92620f424084111561436b578560005260096020526040600020906001600160401b038111612b4557612f5f8254612aef565b601f8111614339575b506000601f82116001146142d2579080612f98926000916142c7575b508160011b916000199060031b1c19161790565b90555b6002820154936004830154916064612fb960ff8560081c1688612e0a565b04938585116142bf575b600101546001600160a01b038281166000908152600b60205260409020549116939092612ff4608082013542612dd0565b9780156142b75787606481020460641488151715612ddd576130198160648a02612e1d565b935b81156142af57604083013560648082028290041490151715612ddd57613048826064604086013502612e1d565b955b89156142a857604084013560648082028290041490151715612ddd576130778a6064604087013502612e1d565b613085620f42408b04614ec4565b97613094621e84808c04614ec4565b604080517f596f75206172652061207269736b206d616e6167656d656e7420656e67696e656020808301919091527f20666f722041696f6e69732c206120636f70792d74726164696e6720706c6174928201929092526f3337b9369037b71029b7b6b734b0970560811b60608201527f4576616c75617465207468652074726164652062656c6f7720616e642064656360708201527f69646520776861742070657263656e74616765206f662074686520666f6c6c6f60908201527f776572207661756c7420746f20616c6c6f636174652e0a0a000000000000000060b08201527f4f55545055543a20526573706f6e642077697468204f4e4c5920612073696e6760c88201527f6c6520696e746567657220302d3130302e204e6f206578706c616e6174696f6e60e88201527f2e204e6f20746578742e204a75737420746865206e756d6265722e0a0a0000006101088201526e29a1a7a924a7239029a1a0a6229d0560891b6101258201527f20203020202020202020203d20736b6970207468697320747261646520656e746101348201526534b932b63c8560d11b6101548201527f2020312d333320202020203d206c6f7720636f6e666964656e6365202028736d61015a8201526f30b6361030b63637b1b0ba34b7b7148560811b61017a8201527f202033342d3636202020203d206d656469756d20636f6e666964656e6365202061018a820152751436b7b232b930ba329030b63637b1b0ba34b7b7148560511b6101aa8201527f202036372d3939202020203d206869676820636f6e666964656e6365202028736101c08201527f69676e69666963616e7420616c6c6f636174696f6e290a0000000000000000006101e08201527f20203130302020202020203d206d6178696d756d20636f6e666964656e6365206101f78201527f202866756c6c206d61782d7065722d747261646520616c6c6f636174696f6e2961021782015261050560f11b6102378201527320a62627a1a0aa24a7a7102327a926aaa6209d0560611b6102398201527f2020616c6c6f636174696f6e203d202873636f7265202f20313030292078206d61024d8201526c30bc2fb832b92fba3930b2328560991b61026d820152720808105d081cd8dbdc994f4c4c0c080b4f8809606a1b61027a8201528b51909c909b90928d92909161028d91613401918f918487019101612bb2565b6a1030b63637b1b0ba32b20560a91b908d840101528b820161029801720808105d081cd8dbdc994f4d4c08080b4f8809606a1b90526102ab9b818d9251809383860101916020019161345292612bb2565b8201016b1030b63637b1b0ba32b2050560a11b8c8201520361029781018c526102b70161347f908c612b91565b613488906148af565b9361349b906001600160a01b03166148af565b9560400135620f424090046134af90614ec4565b9c6134b990614ec4565b926402540be40090046134cb90614ec4565b906134d590614ec4565b916134df90614ec4565b926040519d8e956d169696902a2920a222901696968560911b6020880152602e87017f4c65616465722077616c6c65743a20202020202020202020202020000000000090528051908160498901916020019161353a92612bb2565b860197600560f91b98896049820152604a81017f546f6b656e20626f756768743a2020202020202020202020202020000000000090528151918260658301916020019161358692612bb2565b01886065820152606681017f5472616465205553442076616c75653a202020202020202020202024000000009052815191826082830191602001916135ca92612bb2565b01876082820152608381017f5472616465206167653a20202020202020202020202020202020200000000000905281519182609e8301916020019161360e92612bb2565b0165399030b3b78560d11b609e82015260a481017f43757272656e7420746f6b656e2070726963653a20202020202020240000000090528151918260c08301916020019161365b92612bb2565b016e10143c18b29898103ab734ba39948560891b60c082015260cf81017f54726164652073697a6520767320666f6c6c6f776572207661756c743a20000090528151918260ed830191602001916136b192612bb2565b01906a129037b3103b30bab63a0560a91b60ed83015260f882017f54726164652073697a6520767320667265652062616c616e63653a202020000090526101169181519182848301916020019161370792612bb2565b019072129037b310333932b29031b0b834ba30b6050560691b908201520361010981018a526101290161373a908a612b91565b620f4240900461374990614ec4565b96620f4240900461375990614ec4565b9261376390614ec4565b95620f4240900461377390614ec4565b9160ff1661378090614ec4565b9160405196879460208601997f2d2d2d20464f4c4c4f574552205641554c54202d2d2d0a0000000000000000008b52603787017215985d5b1d081d1bdd185b0e88080808080809606a1b905280519081604a890191602001916137e292612bb2565b860184604a820152604b810172119c99594818985b185b98d94e880808080809606a1b905281519182605e8301916020019161381d92612bb2565b01605e810161040560f31b90528151918260608301916020019161384092612bb2565b016b129037b3103b30bab63a148560a11b6060820152606c81017213585e081c195c881d1c9859194e8808080809606a1b905281519182607f8301916020019161388992612bb2565b0190607f820152608081017102934b9b5903a37b632b930b731b29d1010160751b9052815191826092830191602001916138c292612bb2565b0164179898050560d91b6092820152036077810184526097016138e59084612b91565b604080517f2d2d2d2052554c455320286170706c79207374726963746c7920696e206f7264602082019081526732b914901696968560c11b928201929092527f312e20496620667265652062616c616e6365203c202431202d3e207265747572604882015264371018170560d91b60688201527f322e20496620747261646520616765203e2031323073202d3e2072657475726e606d820152721018101439ba30b6329039b4b3b730b614970560691b608d8201527f332e204966207472616465205553442076616c7565203c202435202d3e20726560a08201527f7475726e203020286e6f6973652074726164652c2069676e6f7265292e0a000060c08201527f342e20496620667265652062616c616e6365203c20243130202d3e207265747560de8201527f726e203020287661756c74206e6561726c7920656d707479292e0a0a0000000060fe820152732924a9a59029a1a7a9229021a2a4a624a7239d0560611b61011a8201527f20205269736b20312d3220202d3e206d61782073636f72652032300a0000000061012e8201527f20205269736b20332d3420202d3e206d61782073636f72652034300a0000000061014a8201527f20205269736b20352d3620202d3e206d61782073636f72652036350a000000006101668201527f20205269736b20372d3820202d3e206d61782073636f72652038350a000000006101828201527f20205269736b20392d3130202d3e206d61782073636f7265203130300a0a000061019e8201527f465245452042414c414e43452050454e414c544945533a0a00000000000000006101bc8201527f2020467265652062616c616e6365203c20313025206f66207661756c742020206101d48201527f2020202020202d3e207265647563652073636f7265206279203330250a0000006101f48201527f202054726164652073697a65203e20353025206f6620667265652062616c616e6102118201527f6365202020202d3e207265647563652073636f72652062792032302520286c616102318201527f7267652072656c6174697665206578706f73757265290a0000000000000000006102518201527f202054726164652073697a65203e2031303025206f6620667265652062616c616102688201527f6e63652020202d3e2072657475726e2030202863616e6e6f74206166666f72646102888201526214850560e91b6102a88201527f5349474e414c20535452454e47544820287573652074726164652073697a6520928101929092527f767320666f6c6c6f776572207661756c742c204e4f542072617720646f6c6c616102cb830152643939949d0560d91b6102eb8301527f20205472616465203c203525206f6620666f6c6c6f776572207661756c7420206102f08301527f2020202020202d3e207765616b207369676e616c2c206c65616e20636f6e736561031083015267393b30ba34bb328560c11b6103308301527f2020547261646520352d323025206f6620666f6c6c6f776572207661756c74206103388301527f2020202020202d3e206d6f646572617465207369676e616c0a000000000000006103588301527f20205472616465203e20323025206f6620666f6c6c6f776572207661756c74206103718301527f2020202020202d3e207374726f6e67207369676e616c2c206c6561646572206961039183015273399036b0b5b4b7339030903134b39036b7bb328560611b6103b18301527f20205472616465203e20353025206f6620666f6c6c6f776572207661756c74206103c58301527f2020202020202d3e2076657279207374726f6e67207369676e616c0a0a0000006103e583015270232922a9a42722a9a9902127a72aa99d0560791b6104028301527f2020547261646520616765203c203130732020202020202020202020202020206104138301527f2020202020202d3e2061646420757020746f20313020746f2066696e616c20736104338301526431b7b9328560d91b6104538301527f20205472616465206167652031302d33307320202020202020202020202020206104588301527f2020202020202d3e206e6f2061646a7573746d656e740a0000000000000000006104788301527f20205472616465206167652033302d313230732020202020202020202020202061048f8301527f2020202020202d3e207265647563652073636f72652062792031300a0a0000006104af8301527f494d504f5254414e543a20446f204e4f542074726561742024313030302061736104cc8301527f20696e686572656e746c79207369676e69666963616e742e0a000000000000006104ec8301527f202041202431303030207472616465206973207374726f6e67206966207468656105058301527f20666f6c6c6f776572207661756c742069732024323030302028353025292e0a6105258301527f202041202431303030207472616465206973207765616b2069662074686520666105458301527f6f6c6c6f776572207661756c74206973202431303030303020283125292e0a006105658301527f2020416c7761797320726561736f6e20696e2070657263656e74616765732c206105848301527f6e6f74206162736f6c75746520646f6c6c617220616d6f756e74732e0a0a00006105a48301527f526573706f6e64207769746820612073696e676c6520696e746567657220302d6105c2830152631898181760e11b6105e28301526105c68252610600820195919290916001600160401b03871184881017612b45576141259560209561410a614119938a604052610620956140e8815180928c8a8d019101612bb2565b88016140fc825180938c8a85019101612bb2565b019151809386840190612bb2565b01918451938491840190612bb2565b01038084520182612b91565b604051630ffeb17d60e11b81529073037bb9c718f3f7fe5ecbdb0b600d607b5270677690602083600481855afa92831561426857600093614274575b506702ea11e32ad500008301809311612ddd576020916141966141a46141eb9360405192839187808401526040830190612bd5565b03601f198101835282612b91565b6040516345de5df160e11b815267b24ac1afbcefc7086004820152306024820152636abcf6af60e01b60448201526080606482015294859384928391906084830190612bd5565b03925af190811561426857600091614236575b50806000526008602052816040600020557fbd39bca4ed5e29cb7d341fec377583e2cb5a5e06015ff024e1a933e2fe29c47e600080a3565b90506020813d602011614260575b8161425160209383612b91565b810103126129c35751386141fe565b3d9150614244565b6040513d6000823e3d90fd5b9092506020813d6020116142a0575b8161429060209383612b91565b810103126129c357519138614161565b3d9150614283565b6000613077565b60009561304a565b60009361301b565b859450612fc3565b905087013538612f84565b908260005260206000206000925b601f1983168410614321576001935082601f19811610614307575b5050811b019055612f9b565b880135600019600384901b60f8161c1916905538806142fb565b888101358255602093840193600190920191016142e0565b61436590836000526020600020601f840160051c8101916020851061034f57601f0160051c0190612df3565b38612f68565b505050505080600080516020614fa0833981519152606060405160208152601960208201527f696e73756666696369656e7420667265652062616c616e6365000000000000006040820152a2600052600a60205260006040812055565b5050505080600080516020614fa083398151915260606040516020815260166020820152751d1bdad95b881b9bdd081a5b88185b1b1bdddb1a5cdd60521b6040820152a2600052600a60205260006040812055565b5050505080600080516020614fa0833981519152606060405160208152600b60208201526a7374616c6520747261646560a81b6040820152a2600052600a60205260006040812055565b60405162461bcd60e51b815260206004820152601b60248201527f564d3a20756e6b6e6f776e2077617463686572207265717565737400000000006044820152606490fd5b908160209103126129c3575180151581036129c35790565b156144cb57565b60405162461bcd60e51b815260206004820152601260248201527115934e8819195c1bdcda5d0819985a5b195960721b6044820152606490fd5b1561450c57565b60405162461bcd60e51b815260206004820152601260248201527115934e881b9bdd08185d5d1a1bdc9a5e995960721b6044820152606490fd5b6145508154612aef565b908161455a575050565b81601f6000931160011461456d5750555b565b90808391825261458c601f60208420940160051c840160018501612df3565b5555565b600092818452602091600883526040938486205492831561468e57818591848952600883528888812055810103126112ac57600a9392919035606481111561468557506064905b8260ff8316917fac7c244f5a94874741bde286781fc342da57eb796ea3b4f271ba72c0b515b10588888510948151908152851589820152a36146375761461d90826149ef565b8085526009825261462f848620614546565b845252812055565b5080600080516020614fa083398151915260608651858152601586820152741cd8dbdc994818995b1bddc81d1a1c995cda1bdb19605a1b88820152a28085526009825261462f848620614546565b60ff16906145d7565b855162461bcd60e51b815260048101869052601e60248201527f564d3a20756e6b6e6f776e2073747261746567697374207265717565737400006044820152606490fd5b6001600160401b038111612b455760051b60200190565b8054600160401b811015612b455761470691600182018155612ac1565b819291549060031b91821b91600019901b1916179055565b1561472557565b60405162461bcd60e51b815260206004820152600d60248201526c2b269d103737ba1037bbb732b960991b6044820152606490fd5b90604051918281549182825260209260208301916000526020600020936000905b8282106147915750505061456b92500383612b91565b85546001600160a01b03168452600195860195889550938101939091019061477b565b6040519060208201926001600160601b0319809260601b16845260601b166034820152602881526147e481612b5b565b51902090565b81810392916000138015828513169184121617612ddd57565b6000198114612ddd5760010190565b9060005b8254811015614855576148298184612ac1565b905460039190911b1c6001600160a01b039081169083161461484d57600101614816565b505050600190565b505050600090565b60026003820154910154908181101561487c5761487991612dd0565b90565b5050600090565b6001600160401b038111612b4557601f01601f191660200190565b908151811015612ad9570160200190565b604051906001600160601b03199060601b16602082015260148082526148d482612b76565b604051906148e182612b76565b601082526f181899199a1a9b1b9c1cb0b131b232b360811b60208301526040519261490b84612b5b565b602a8452602084016040368237845115612ad9576030905383519260019360011015612ad9576078602186015360005b83811061494a57505050505090565b6001600160f81b0319908161496c614962838761489e565b5160fc1c8561489e565b51169181871b92600290838504821484151715612ddd57848201809211612ddd5761499b9060001a918a61489e565b536149b6600f6149ab848861489e565b5160f81c168561489e565b5116916003908101809111612ddd576149d4879360001a918961489e565b530161493b565b51906001600160a01b03821682036129c357565b8060005260036020526040600020600960205260406000209260405193600085825491614a1b83612aef565b928383526020830194600191600181169081600014614df15750600114614daf575b5050614a4b92500386612b91565b60a0858051810103126129c357614a61906149db565b506080614a70604086016149db565b94015193614a7d8361485d565b946064614a99600286015460ff600488015460081c1690612e0a565b04868111614da8575b614ab260649160ff861690612e0a565b0495620f42408710614d5957808711614d51575b506001600160a01b0382166000908152600b6020526040902054908115614d495750925b614af5600d54614803565b9283600d556040519360208501908782524260408701526001600160601b03198560601b1660608701526074860152607485526001600160401b03908560a08101108260a088011117612b455760a08601604081905286519091208454600186015491936001600160a01b039283169391909216916102008901908111911117612b4557610200870160405260a087015260c08601528660e086015260018060a01b03841661010086015287610120860152856101408601526000610160860152600061018086015260006101a0860152426101c086015260006101e086015280600052600460205260406000209060018060a01b0360a0870151166001600160601b0360a01b90818454161783556001830160018060a01b0360c0890151168282541617905560e08701516002840155600383019060018060a01b0361010089015116908254161790556101208601516004830155610140860151600583015561016086015160068301556101808601516007830155600882016101a08701516002811015612c80577f0fac05f01c50ae793f1a1fb2912053546d62525ac2dfad4adbc641f37c09bf8a98600360ff978c96600a6101e060409d7fb1eefddb5e15079c801481dd2d9558f62b8d6e4ba1d15d3e8da341e1d07ccd18986060988e801983541691161790556101c081015160098501550151910155866000526006602052614d06868c6000206146e9565b01614d128d8254612e3d565b905588516001600160a01b0389168152602081018d9052808a0191909152a383519687521660208601526001600160a01b031693a3565b905092614aea565b955038614ac6565b50505050509050600080516020614fa0833981519152606060405160208152601e60208201527f616c6c6f636174656420616d6f756e742062656c6f77206d696e696d756d00006040820152a2565b5085614aa2565b6000908152602081209092505b848310614dd65750614a4b93505081016020013880614a3d565b81935090816020925483858d01015201910190918892614dbc565b60ff1916875250614a4b94151560051b84016020019250389150819050614a3d565b6000915b81549283811015614ebe57614e2c8184612ac1565b90546003956001600160a01b0392909190871b1c821684831614614e565750506001019250614e17565b90925060001991828201918211612ddd576128f784614e78614e869488612ac1565b905490891b1c169186612ac1565b82548015614ea8570192614e9a8484612ac1565b81939154921b1b1916905555565b634e487b7160e01b600052603160045260246000fd5b50505050565b8015614f615780816000925b614f4d575080614edf83614883565b92614eed6040519485612b91565b808452601f19614efc82614883565b01366020860137905b614f0e57505090565b8015612ddd576000190190600a9060308282068101809111612ddd5760f81b6001600160f81b03191660001a614f44848661489e565b53049081614f05565b91614f59600a91614803565b920480614ed0565b50604051614f6e81612b76565b60018152600360fc1b60208201529056fe405787fa12a823e0f2b7631cc41b3ba8828b3321ca811111fa75cd3aa3bb5ace161609ed0659583c4124f93794aade207fa9fe3124c4ee08cb05a724f0e760cab10e2d527612073b26eecdfd717e6a320cf44b4afac2b0732d9fcbe2b7fa0cf6a264697066735822122068a00a7a29389e15444354348f328b6bb9ea9f72d8977123910799405b8974ca64736f6c63430008180033","opcodes":"PUSH1 0xA0 PUSH1 0x40 MSTORE CALLVALUE PUSH3 0x3AC JUMPI PUSH3 0x5475 DUP1 CODESIZE SUB DUP1 PUSH3 0x1D DUP2 PUSH3 0x3B1 JUMP JUMPDEST SWAP3 DUP4 CODECOPY DUP2 ADD SWAP1 PUSH1 0x60 DUP2 DUP4 SUB SLT PUSH3 0x3AC JUMPI DUP1 MLOAD SWAP2 PUSH1 0x1 PUSH1 0x1 PUSH1 0xA0 SHL SUB DUP4 AND SWAP1 DUP2 DUP5 SUB PUSH3 0x3AC JUMPI PUSH1 0x20 DUP4 DUP2 ADD MLOAD SWAP1 SWAP5 PUSH1 0x1 PUSH1 0x1 PUSH1 0x40 SHL SUB SWAP5 SWAP1 SWAP2 DUP6 DUP2 GT PUSH3 0x3AC JUMPI DUP4 PUSH3 0x6D SWAP2 DUP4 ADD PUSH3 0x3ED JUMP JUMPDEST SWAP3 PUSH1 0x40 DUP3 ADD MLOAD DUP7 DUP2 GT PUSH3 0x3AC JUMPI PUSH3 0x87 SWAP3 ADD PUSH3 0x3ED JUMP JUMPDEST SWAP3 ISZERO PUSH3 0x367 JUMPI PUSH1 0x80 MSTORE PUSH1 0x0 DUP1 SLOAD PUSH1 0x1 PUSH1 0x1 PUSH1 0xA0 SHL SUB NOT AND CALLER OR DUP2 SSTORE DUP2 MLOAD SWAP3 SWAP1 DUP5 DUP5 GT PUSH3 0x271 JUMPI PUSH1 0x1 SWAP4 DUP5 SLOAD SWAP4 DUP6 DUP6 DUP2 SHR SWAP6 AND DUP1 ISZERO PUSH3 0x35C JUMPI JUMPDEST DUP9 DUP7 LT EQ PUSH3 0x348 JUMPI DUP2 SWAP1 PUSH1 0x1F SWAP6 DUP7 DUP2 GT PUSH3 0x2F5 JUMPI JUMPDEST POP DUP9 SWAP1 DUP7 DUP4 GT PUSH1 0x1 EQ PUSH3 0x291 JUMPI DUP5 SWAP3 PUSH3 0x285 JUMPI JUMPDEST POP POP PUSH1 0x0 NOT PUSH1 0x3 DUP4 SWAP1 SHL SHR NOT AND SWAP1 DUP6 SHL OR DUP5 SSTORE JUMPDEST DUP2 MLOAD SWAP5 DUP6 GT PUSH3 0x271 JUMPI PUSH1 0x2 SLOAD DUP5 DUP2 DUP2 SHR SWAP2 AND DUP1 ISZERO PUSH3 0x266 JUMPI JUMPDEST DUP8 DUP3 LT EQ PUSH3 0x252 JUMPI DUP4 DUP2 GT PUSH3 0x209 JUMPI JUMPDEST POP DUP6 SWAP3 DUP6 GT PUSH1 0x1 EQ PUSH3 0x1A0 JUMPI SWAP4 SWAP5 POP DUP5 SWAP3 SWAP2 SWAP1 DUP4 PUSH3 0x194 JUMPI JUMPDEST POP POP SHL SWAP2 PUSH1 0x0 NOT SWAP1 PUSH1 0x3 SHL SHR NOT AND OR PUSH1 0x2 SSTORE JUMPDEST PUSH1 0x40 MLOAD PUSH2 0x5015 SWAP1 DUP2 PUSH3 0x460 DUP3 CODECOPY PUSH1 0x80 MLOAD DUP2 DUP2 DUP2 PUSH2 0x674 ADD MSTORE DUP2 DUP2 PUSH2 0x16BA ADD MSTORE DUP2 DUP2 PUSH2 0x1D11 ADD MSTORE DUP2 DUP2 PUSH2 0x2535 ADD MSTORE PUSH2 0x268B ADD MSTORE RETURN JUMPDEST ADD MLOAD SWAP3 POP CODESIZE DUP1 PUSH3 0x14C JUMP JUMPDEST PUSH1 0x2 DUP2 MSTORE DUP6 DUP2 KECCAK256 SWAP4 SWAP6 DUP6 SWAP2 PUSH1 0x1F NOT DUP4 AND SWAP2 JUMPDEST DUP9 DUP4 DUP4 LT PUSH3 0x1EE JUMPI POP POP POP LT PUSH3 0x1D4 JUMPI JUMPDEST POP POP POP DUP2 SHL ADD PUSH1 0x2 SSTORE PUSH3 0x15F JUMP JUMPDEST ADD MLOAD PUSH1 0x0 NOT PUSH1 0xF8 DUP5 PUSH1 0x3 SHL AND SHR NOT AND SWAP1 SSTORE CODESIZE DUP1 DUP1 PUSH3 0x1C5 JUMP JUMPDEST DUP6 DUP8 ADD MLOAD DUP9 SSTORE SWAP1 SWAP7 ADD SWAP6 SWAP5 DUP6 ADD SWAP5 DUP8 SWAP4 POP SWAP1 DUP2 ADD SWAP1 PUSH3 0x1B2 JUMP JUMPDEST PUSH1 0x2 DUP3 MSTORE DUP7 DUP3 KECCAK256 DUP5 DUP1 DUP9 ADD PUSH1 0x5 SHR DUP3 ADD SWAP3 DUP10 DUP10 LT PUSH3 0x248 JUMPI JUMPDEST ADD PUSH1 0x5 SHR ADD SWAP1 DUP6 SWAP1 JUMPDEST DUP3 DUP2 LT PUSH3 0x23C JUMPI POP POP PUSH3 0x131 JUMP JUMPDEST DUP4 DUP2 SSTORE ADD DUP6 SWAP1 PUSH3 0x22C JUMP JUMPDEST SWAP3 POP DUP2 SWAP3 PUSH3 0x223 JUMP JUMPDEST PUSH4 0x4E487B71 PUSH1 0xE0 SHL DUP3 MSTORE PUSH1 0x22 PUSH1 0x4 MSTORE PUSH1 0x24 DUP3 REVERT JUMPDEST SWAP1 PUSH1 0x7F AND SWAP1 PUSH3 0x11F JUMP JUMPDEST PUSH4 0x4E487B71 PUSH1 0xE0 SHL DUP2 MSTORE PUSH1 0x41 PUSH1 0x4 MSTORE PUSH1 0x24 SWAP1 REVERT JUMPDEST ADD MLOAD SWAP1 POP CODESIZE DUP1 PUSH3 0xF0 JUMP JUMPDEST DUP8 DUP6 MSTORE DUP10 DUP6 KECCAK256 DUP9 SWAP5 POP SWAP2 SWAP1 PUSH1 0x1F NOT DUP5 AND DUP7 JUMPDEST DUP13 DUP3 DUP3 LT PUSH3 0x2DE JUMPI POP POP DUP5 GT PUSH3 0x2C4 JUMPI JUMPDEST POP POP POP DUP2 SHL ADD DUP5 SSTORE PUSH3 0x104 JUMP JUMPDEST ADD MLOAD PUSH1 0x0 NOT PUSH1 0xF8 DUP5 PUSH1 0x3 SHL AND SHR NOT AND SWAP1 SSTORE CODESIZE DUP1 DUP1 PUSH3 0x2B6 JUMP JUMPDEST DUP4 DUP6 ADD MLOAD DUP7 SSTORE DUP12 SWAP8 SWAP1 SWAP6 ADD SWAP5 SWAP4 DUP5 ADD SWAP4 ADD PUSH3 0x2A3 JUMP JUMPDEST SWAP1 SWAP2 POP DUP7 DUP5 MSTORE DUP9 DUP5 KECCAK256 DUP7 DUP1 DUP6 ADD PUSH1 0x5 SHR DUP3 ADD SWAP3 DUP12 DUP7 LT PUSH3 0x33E JUMPI JUMPDEST SWAP2 DUP10 SWAP2 DUP7 SWAP6 SWAP5 SWAP4 ADD PUSH1 0x5 SHR ADD SWAP2 JUMPDEST DUP3 DUP2 LT PUSH3 0x32F JUMPI POP POP PUSH3 0xDA JUMP JUMPDEST DUP7 DUP2 SSTORE DUP6 SWAP5 POP DUP10 SWAP2 ADD PUSH3 0x31F JUMP JUMPDEST SWAP3 POP DUP2 SWAP3 PUSH3 0x311 JUMP JUMPDEST PUSH4 0x4E487B71 PUSH1 0xE0 SHL DUP4 MSTORE PUSH1 0x22 PUSH1 0x4 MSTORE PUSH1 0x24 DUP4 REVERT JUMPDEST SWAP5 PUSH1 0x7F AND SWAP5 PUSH3 0xC3 JUMP JUMPDEST PUSH1 0x40 MLOAD PUSH3 0x461BCD PUSH1 0xE5 SHL DUP2 MSTORE PUSH1 0x4 DUP2 ADD DUP7 SWAP1 MSTORE PUSH1 0x15 PUSH1 0x24 DUP3 ADD MSTORE PUSH32 0x564D3A207A65726F206155534420616464726573730000000000000000000000 PUSH1 0x44 DUP3 ADD MSTORE PUSH1 0x64 SWAP1 REVERT JUMPDEST PUSH1 0x0 DUP1 REVERT JUMPDEST PUSH1 0x40 MLOAD SWAP2 SWAP1 PUSH1 0x1F ADD PUSH1 0x1F NOT AND DUP3 ADD PUSH1 0x1 PUSH1 0x1 PUSH1 0x40 SHL SUB DUP2 GT DUP4 DUP3 LT OR PUSH3 0x3D7 JUMPI PUSH1 0x40 MSTORE JUMP JUMPDEST PUSH4 0x4E487B71 PUSH1 0xE0 SHL PUSH1 0x0 MSTORE PUSH1 0x41 PUSH1 0x4 MSTORE PUSH1 0x24 PUSH1 0x0 REVERT JUMPDEST SWAP2 SWAP1 DUP1 PUSH1 0x1F DUP5 ADD SLT ISZERO PUSH3 0x3AC JUMPI DUP3 MLOAD PUSH1 0x1 PUSH1 0x1 PUSH1 0x40 SHL SUB DUP2 GT PUSH3 0x3D7 JUMPI PUSH1 0x20 SWAP1 PUSH3 0x423 PUSH1 0x1F DUP3 ADD PUSH1 0x1F NOT AND DUP4 ADD PUSH3 0x3B1 JUMP JUMPDEST SWAP3 DUP2 DUP5 MSTORE DUP3 DUP3 DUP8 ADD ADD GT PUSH3 0x3AC JUMPI PUSH1 0x0 JUMPDEST DUP2 DUP2 LT PUSH3 0x44B JUMPI POP DUP3 PUSH1 0x0 SWAP4 SWAP5 SWAP6 POP ADD ADD MSTORE SWAP1 JUMP JUMPDEST DUP6 DUP2 ADD DUP4 ADD MLOAD DUP5 DUP3 ADD DUP5 ADD MSTORE DUP3 ADD PUSH3 0x435 JUMP INVALID PUSH1 0x80 DUP1 PUSH1 0x40 MSTORE PUSH1 0x4 CALLDATASIZE LT ISZERO PUSH2 0x1D JUMPI JUMPDEST POP CALLDATASIZE ISZERO PUSH2 0x1B JUMPI PUSH1 0x0 DUP1 REVERT JUMPDEST STOP JUMPDEST PUSH1 0x0 SWAP1 DUP2 CALLDATALOAD PUSH1 0xE0 SHR SWAP1 DUP2 PUSH4 0x11F8B1B EQ PUSH2 0x298B JUMPI POP DUP1 PUSH4 0x12BBE10C EQ PUSH2 0x296E JUMPI DUP1 PUSH4 0x1AAC9197 EQ PUSH2 0x27F7 JUMPI DUP1 PUSH4 0x1F275413 EQ PUSH2 0x27C0 JUMPI DUP1 PUSH4 0x1FB3E24E EQ PUSH2 0x2778 JUMPI DUP1 PUSH4 0x22EDF01A EQ PUSH2 0x26DD JUMPI DUP1 PUSH4 0x2E90C1A9 EQ PUSH2 0x26BA JUMPI DUP1 PUSH4 0x2FD7D1FD EQ PUSH2 0x2675 JUMPI DUP1 PUSH4 0x3C4CE221 EQ PUSH2 0x2639 JUMPI DUP1 PUSH4 0x47E7EF24 EQ PUSH2 0x24B2 JUMPI DUP1 PUSH4 0x4E17707A EQ PUSH2 0x202D JUMPI DUP1 PUSH4 0x4E6EC0E6 EQ PUSH2 0x1F58 JUMPI DUP1 PUSH4 0x514EA4BF EQ PUSH2 0x1E8F JUMPI DUP1 PUSH4 0x51CFF8D9 EQ PUSH2 0x1C71 JUMPI DUP1 PUSH4 0x53084EFF EQ PUSH2 0x1C38 JUMPI DUP1 PUSH4 0x572FCDCD EQ PUSH2 0x1BB6 JUMPI DUP1 PUSH4 0x5A2D6F5D EQ PUSH2 0x1B98 JUMPI DUP1 PUSH4 0x6ABCF6AF EQ PUSH2 0x1B5E JUMPI DUP1 PUSH4 0x748747E6 EQ PUSH2 0x1AF4 JUMPI DUP1 PUSH4 0x85F9805D EQ PUSH2 0x15BD JUMPI DUP1 PUSH4 0x8C728541 EQ PUSH2 0x1593 JUMPI DUP1 PUSH4 0x8DA5CB5B EQ PUSH2 0x156C JUMPI DUP1 PUSH4 0x92BC6914 EQ PUSH2 0x1454 JUMPI DUP1 PUSH4 0x932A1276 EQ PUSH2 0x1315 JUMPI DUP1 PUSH4 0x9530B30F EQ PUSH2 0x12F8 JUMPI DUP1 PUSH4 0x96E85CED EQ PUSH2 0xFFA JUMPI DUP1 PUSH4 0x989A83BF EQ PUSH2 0xF28 JUMPI DUP1 PUSH4 0xB8FF783D EQ PUSH2 0xF0C JUMPI DUP1 PUSH4 0xBBD7EDC5 EQ PUSH2 0xD95 JUMPI DUP1 PUSH4 0xBD44815F EQ PUSH2 0xD76 JUMPI DUP1 PUSH4 0xC0BD6F9E EQ PUSH2 0xC87 JUMPI DUP1 PUSH4 0xC81E62E6 EQ PUSH2 0xC3F JUMPI DUP1 PUSH4 0xCCA23BF2 EQ PUSH2 0xBBA JUMPI DUP1 PUSH4 0xD01EC4A6 EQ PUSH2 0xB70 JUMPI DUP1 PUSH4 0xD16B6921 EQ PUSH2 0xA39 JUMPI DUP1 PUSH4 0xD4805742 EQ PUSH2 0x916 JUMPI DUP1 PUSH4 0xD9C91FEA EQ PUSH2 0x8EC JUMPI DUP1 PUSH4 0xDE700DA6 EQ PUSH2 0x8B3 JUMPI DUP1 PUSH4 0xE54A2AD5 EQ PUSH2 0x5AE JUMPI DUP1 PUSH4 0xE55EE7EB EQ PUSH2 0x57F JUMPI DUP1 PUSH4 0xE8134712 EQ PUSH2 0x3F7 JUMPI DUP1 PUSH4 0xF2FDE38B EQ PUSH2 0x374 JUMPI PUSH4 0xFE202A18 SUB PUSH2 0xF JUMPI CALLVALUE PUSH2 0x371 JUMPI PUSH1 0x20 SWAP1 PUSH1 0x20 PUSH1 0x3 NOT CALLDATASIZE ADD SLT PUSH2 0x371 JUMPI PUSH1 0x1 PUSH1 0x1 PUSH1 0x40 SHL SUB PUSH1 0x4 CALLDATALOAD DUP2 DUP2 GT PUSH2 0x36D JUMPI PUSH2 0x233 SWAP1 CALLDATASIZE SWAP1 PUSH1 0x4 ADD PUSH2 0x2A65 JUMP JUMPDEST SWAP2 PUSH2 0x248 PUSH1 0x1 DUP1 PUSH1 0xA0 SHL SUB DUP6 SLOAD AND CALLER EQ PUSH2 0x471E JUMP JUMPDEST DUP3 GT PUSH2 0x359 JUMPI PUSH2 0x259 PUSH1 0x2 SLOAD PUSH2 0x2AEF JUMP JUMPDEST PUSH1 0x1F DUP2 GT PUSH2 0x311 JUMPI JUMPDEST POP DUP3 SWAP4 PUSH1 0x1F DUP4 GT PUSH1 0x1 EQ PUSH2 0x2A5 JUMPI POP DUP3 SWAP4 DUP3 SWAP2 PUSH2 0x294 SWAP5 SWAP3 PUSH2 0x29A JUMPI JUMPDEST POP POP DUP2 PUSH1 0x1 SHL SWAP2 PUSH1 0x0 NOT SWAP1 PUSH1 0x3 SHL SHR NOT AND OR SWAP1 JUMP JUMPDEST PUSH1 0x2 SSTORE DUP1 RETURN JUMPDEST ADD CALLDATALOAD SWAP1 POP CODESIZE DUP1 PUSH2 0x27F JUMP JUMPDEST PUSH1 0x1F NOT DUP4 AND SWAP5 PUSH1 0x0 DUP1 MLOAD PUSH1 0x20 PUSH2 0x4F80 DUP4 CODECOPY DUP2 MLOAD SWAP2 MSTORE SWAP3 SWAP2 DUP6 SWAP1 JUMPDEST DUP8 DUP3 LT PUSH2 0x2F9 JUMPI POP POP DUP4 PUSH1 0x1 SWAP6 SWAP7 LT PUSH2 0x2DF JUMPI JUMPDEST POP POP POP DUP2 SHL ADD PUSH1 0x2 SSTORE DUP1 RETURN JUMPDEST ADD CALLDATALOAD PUSH1 0x0 NOT PUSH1 0x3 DUP5 SWAP1 SHL PUSH1 0xF8 AND SHR NOT AND SWAP1 SSTORE CODESIZE DUP1 DUP1 PUSH2 0x2D3 JUMP JUMPDEST DUP1 PUSH1 0x1 DUP5 SWAP7 DUP3 SWAP5 SWAP6 DUP8 ADD CALLDATALOAD DUP2 SSTORE ADD SWAP6 ADD SWAP3 ADD SWAP1 PUSH2 0x2BF JUMP JUMPDEST PUSH2 0x349 SWAP1 PUSH1 0x2 PUSH1 0x0 MSTORE PUSH1 0x0 DUP1 MLOAD PUSH1 0x20 PUSH2 0x4F80 DUP4 CODECOPY DUP2 MLOAD SWAP2 MSTORE PUSH1 0x1F DUP6 ADD PUSH1 0x5 SHR DUP2 ADD SWAP2 PUSH1 0x20 DUP7 LT PUSH2 0x34F JUMPI JUMPDEST PUSH1 0x1F ADD PUSH1 0x5 SHR ADD SWAP1 PUSH2 0x2DF3 JUMP JUMPDEST CODESIZE PUSH2 0x262 JUMP JUMPDEST SWAP1 SWAP2 POP DUP2 SWAP1 PUSH2 0x33C JUMP JUMPDEST PUSH4 0x4E487B71 PUSH1 0xE0 SHL DUP4 MSTORE PUSH1 0x41 PUSH1 0x4 MSTORE PUSH1 0x24 DUP4 REVERT JUMPDEST DUP3 DUP1 REVERT JUMPDEST DUP1 REVERT JUMPDEST POP CALLVALUE PUSH2 0x371 JUMPI PUSH1 0x20 CALLDATASIZE PUSH1 0x3 NOT ADD SLT PUSH2 0x371 JUMPI PUSH2 0x38E PUSH2 0x29AD JUMP JUMPDEST DUP2 SLOAD SWAP1 PUSH1 0x1 PUSH1 0x1 PUSH1 0xA0 SHL SUB SWAP1 PUSH2 0x3A7 CALLER DUP4 DUP6 AND EQ PUSH2 0x471E JUMP JUMPDEST AND SWAP1 DUP2 ISZERO PUSH2 0x3BF JUMPI PUSH1 0x1 PUSH1 0x1 PUSH1 0xA0 SHL SUB NOT AND OR DUP2 SSTORE DUP1 RETURN JUMPDEST PUSH1 0x40 MLOAD PUSH3 0x461BCD PUSH1 0xE5 SHL DUP2 MSTORE PUSH1 0x20 PUSH1 0x4 DUP3 ADD MSTORE PUSH1 0x10 PUSH1 0x24 DUP3 ADD MSTORE PUSH16 0x564D3A207A65726F2061646472657373 PUSH1 0x80 SHL PUSH1 0x44 DUP3 ADD MSTORE PUSH1 0x64 SWAP1 REVERT JUMPDEST POP CALLVALUE PUSH2 0x371 JUMPI PUSH1 0x40 CALLDATASIZE PUSH1 0x3 NOT ADD SLT PUSH2 0x371 JUMPI PUSH2 0x422 PUSH2 0x414 PUSH2 0x29AD JUMP JUMPDEST PUSH2 0x41C PUSH2 0x29C8 JUMP JUMPDEST SWAP1 PUSH2 0x47B4 JUMP JUMPDEST DUP2 MSTORE PUSH1 0x20 PUSH1 0x6 PUSH1 0x20 MSTORE PUSH1 0x40 DUP3 KECCAK256 SWAP1 DUP3 SWAP2 DUP4 SWAP2 DUP2 SLOAD SWAP3 JUMPDEST DUP4 DUP2 LT PUSH2 0x51E JUMPI POP PUSH2 0x449 DUP5 PUSH2 0x46D2 JUMP JUMPDEST SWAP4 PUSH2 0x457 PUSH1 0x40 MLOAD SWAP6 DUP7 PUSH2 0x2B91 JUMP JUMPDEST DUP1 DUP6 MSTORE PUSH2 0x466 PUSH1 0x1F NOT SWAP2 PUSH2 0x46D2 JUMP JUMPDEST ADD CALLDATASIZE PUSH1 0x20 DUP7 ADD CALLDATACOPY DUP5 SWAP2 DUP6 JUMPDEST DUP5 DUP2 LT PUSH2 0x48A JUMPI PUSH1 0x40 MLOAD DUP1 PUSH2 0x486 DUP9 DUP3 PUSH2 0x2BFA JUMP JUMPDEST SUB SWAP1 RETURN JUMPDEST PUSH2 0x494 DUP2 DUP4 PUSH2 0x2AC1 JUMP JUMPDEST SWAP1 SLOAD PUSH1 0x3 SWAP2 DUP3 SHL SHR DUP9 MSTORE PUSH1 0x4 DUP5 MSTORE PUSH1 0xFF PUSH1 0x8 PUSH1 0x40 DUP11 KECCAK256 ADD SLOAD AND PUSH1 0x2 DUP2 LT ISZERO PUSH2 0x50A JUMPI ISZERO PUSH2 0x4C5 JUMPI JUMPDEST POP PUSH1 0x1 ADD PUSH2 0x471 JUMP JUMPDEST PUSH2 0x4CF DUP3 DUP5 PUSH2 0x2AC1 JUMP JUMPDEST SWAP1 SLOAD SWAP2 SHL SHR PUSH2 0x4DD DUP6 PUSH2 0x4803 JUMP JUMPDEST SWAP5 DUP8 MLOAD DUP2 LT ISZERO PUSH2 0x4F6 JUMPI PUSH1 0x5 SHL DUP8 ADD DUP5 ADD MSTORE PUSH1 0x1 PUSH2 0x4BC JUMP JUMPDEST PUSH4 0x4E487B71 PUSH1 0xE0 SHL DUP10 MSTORE PUSH1 0x32 PUSH1 0x4 MSTORE PUSH1 0x24 DUP10 REVERT JUMPDEST PUSH4 0x4E487B71 PUSH1 0xE0 SHL DUP10 MSTORE PUSH1 0x21 PUSH1 0x4 MSTORE PUSH1 0x24 DUP10 REVERT JUMPDEST PUSH2 0x528 DUP2 DUP5 PUSH2 0x2AC1 JUMP JUMPDEST SWAP1 SLOAD SWAP1 PUSH1 0x3 SHL SHR DUP7 MSTORE PUSH1 0x4 DUP3 MSTORE PUSH1 0xFF PUSH1 0x8 PUSH1 0x40 DUP9 KECCAK256 ADD SLOAD AND PUSH1 0x2 DUP2 LT ISZERO PUSH2 0x56B JUMPI ISZERO PUSH2 0x557 JUMPI JUMPDEST PUSH1 0x1 ADD PUSH2 0x438 JUMP JUMPDEST SWAP4 PUSH2 0x563 PUSH1 0x1 SWAP2 PUSH2 0x4803 JUMP JUMPDEST SWAP5 SWAP1 POP PUSH2 0x54F JUMP JUMPDEST PUSH4 0x4E487B71 PUSH1 0xE0 SHL DUP8 MSTORE PUSH1 0x21 PUSH1 0x4 MSTORE PUSH1 0x24 DUP8 REVERT JUMPDEST POP CALLVALUE PUSH2 0x371 JUMPI DUP1 PUSH1 0x3 NOT CALLDATASIZE ADD SLT PUSH2 0x371 JUMPI PUSH1 0x20 PUSH1 0x40 MLOAD PUSH20 0x37BB9C718F3F7FE5ECBDB0B600D607B52706776 DUP2 MSTORE RETURN JUMPDEST POP CALLVALUE PUSH2 0x371 JUMPI PUSH1 0x20 DUP1 PUSH1 0x3 NOT CALLDATASIZE ADD SLT PUSH2 0x8AF JUMPI PUSH1 0x4 CALLDATALOAD DUP1 DUP4 MSTORE PUSH1 0x4 DUP3 MSTORE PUSH1 0x40 DUP4 KECCAK256 SWAP2 PUSH1 0x8 DUP4 ADD PUSH1 0xFF DUP2 SLOAD AND PUSH1 0x2 DUP2 LT ISZERO PUSH2 0x89B JUMPI PUSH2 0x85E JUMPI DUP4 SLOAD PUSH1 0x1 PUSH1 0x1 PUSH1 0xA0 SHL SUB SWAP3 SWAP1 DUP4 AND CALLER DUP2 EQ DUP1 ISZERO PUSH2 0x846 JUMPI JUMPDEST PUSH2 0x608 SWAP2 POP PUSH2 0x4505 JUMP JUMPDEST PUSH1 0x2 DUP6 ADD SLOAD SWAP5 DUP6 DUP8 MSTORE PUSH1 0x3 DUP3 MSTORE PUSH1 0x40 DUP8 KECCAK256 SWAP3 DUP5 PUSH1 0x3 DUP4 ADD SLOAD AND DUP9 MSTORE PUSH1 0xB DUP4 MSTORE PUSH1 0x40 DUP9 KECCAK256 SLOAD SWAP4 DUP5 ISZERO PUSH2 0x7EA JUMPI PUSH1 0x4 DUP4 ADD DUP1 SLOAD SWAP7 PUSH2 0x652 PUSH2 0x647 DUP9 DUP11 PUSH2 0x2E0A JUMP JUMPDEST PUSH1 0x5 DUP8 ADD SLOAD SWAP1 PUSH2 0x2E1D JUMP JUMPDEST PUSH2 0x65C DUP10 DUP3 PUSH2 0x47EA JUMP JUMPDEST SWAP9 DUP1 DUP3 GT ISZERO PUSH2 0x787 JUMPI POP DUP3 SLOAD PUSH2 0x671 SWAP2 PUSH2 0x2DD0 JUMP JUMPDEST SWAP1 PUSH32 0x0 AND DUP1 EXTCODESIZE ISZERO PUSH2 0x783 JUMPI PUSH1 0x40 MLOAD PUSH4 0x40C10F19 PUSH1 0xE0 SHL DUP2 MSTORE ADDRESS PUSH1 0x4 DUP3 ADD MSTORE PUSH1 0x24 DUP2 ADD DUP4 SWAP1 MSTORE SWAP1 DUP13 SWAP1 DUP3 SWAP1 PUSH1 0x44 SWAP1 DUP3 SWAP1 DUP5 SWAP1 GAS CALL DUP1 ISZERO PUSH2 0x778 JUMPI PUSH2 0x747 JUMPI JUMPDEST POP SWAP2 PUSH2 0x71C PUSH1 0x3 PUSH32 0xB8AFEB408ACD10E29C21161F211B1E177A3CE18923199654650821F940CFF38A SWAP10 SWAP8 SWAP6 SWAP4 PUSH1 0x40 SWAP10 SWAP8 SWAP6 PUSH2 0x70E PUSH1 0x2 DUP7 ADD SWAP2 DUP3 SLOAD PUSH2 0x2E3D JUMP JUMPDEST SWAP1 SSTORE JUMPDEST SLOAD SWAP3 ADD SWAP2 DUP3 SLOAD PUSH2 0x2DD0 JUMP JUMPDEST SWAP1 SSTORE DUP4 PUSH1 0x6 DUP4 ADD SSTORE DUP5 PUSH1 0x7 DUP4 ADD SSTORE PUSH1 0x1 PUSH1 0xFF NOT DUP3 SLOAD AND OR SWAP1 SSTORE PUSH1 0xA TIMESTAMP SWAP2 ADD SSTORE DUP4 MLOAD SWAP3 DUP4 MSTORE DUP3 ADD MSTORE LOG3 DUP1 RETURN JUMPDEST PUSH1 0x1 PUSH1 0x1 PUSH1 0x40 SHL SUB DUP2 SWAP13 SWAP3 SWAP13 GT PUSH2 0x764 JUMPI PUSH1 0x40 MSTORE SWAP10 PUSH2 0x71C PUSH2 0x6CE JUMP JUMPDEST PUSH4 0x4E487B71 PUSH1 0xE0 SHL DUP3 MSTORE PUSH1 0x41 PUSH1 0x4 MSTORE PUSH1 0x24 DUP3 REVERT JUMPDEST PUSH1 0x40 MLOAD RETURNDATASIZE DUP15 DUP3 RETURNDATACOPY RETURNDATASIZE SWAP1 REVERT JUMPDEST DUP12 DUP1 REVERT JUMPDEST PUSH1 0x40 SWAP9 SWAP7 SWAP5 SWAP3 POP PUSH32 0xB8AFEB408ACD10E29C21161F211B1E177A3CE18923199654650821F940CFF38A SWAP10 SWAP8 SWAP6 SWAP4 DUP2 DUP4 PUSH1 0x3 SWAP4 PUSH2 0x71C SWAP6 LT PUSH2 0x7C9 JUMPI JUMPDEST POP POP PUSH2 0x711 JUMP JUMPDEST PUSH2 0x7D2 SWAP2 PUSH2 0x2DD0 JUMP JUMPDEST PUSH2 0x7E1 PUSH1 0x2 DUP7 ADD SWAP2 DUP3 SLOAD PUSH2 0x2DD0 JUMP JUMPDEST SWAP1 SSTORE CODESIZE DUP1 PUSH2 0x7C2 JUMP JUMPDEST PUSH1 0x40 MLOAD PUSH3 0x461BCD PUSH1 0xE5 SHL DUP2 MSTORE PUSH1 0x4 DUP2 ADD DUP6 SWAP1 MSTORE PUSH1 0x2E PUSH1 0x24 DUP3 ADD MSTORE PUSH32 0x564D3A206E6F20707269636520617661696C61626C652C2063616C6C20757064 PUSH1 0x44 DUP3 ADD MSTORE PUSH14 0x185D19541C9A58D948199A5C9CDD PUSH1 0x92 SHL PUSH1 0x64 DUP3 ADD MSTORE PUSH1 0x84 SWAP1 REVERT JUMPDEST POP DUP7 MSTORE PUSH1 0x7 DUP2 MSTORE PUSH2 0x608 DUP4 PUSH1 0x40 DUP9 KECCAK256 SLOAD AND CALLER EQ PUSH2 0x5FE JUMP JUMPDEST PUSH1 0x40 MLOAD PUSH3 0x461BCD PUSH1 0xE5 SHL DUP2 MSTORE PUSH1 0x4 DUP2 ADD DUP4 SWAP1 MSTORE PUSH1 0x15 PUSH1 0x24 DUP3 ADD MSTORE PUSH21 0x2B269D103837B9B4BA34B7B7103737BA1037B832B7 PUSH1 0x59 SHL PUSH1 0x44 DUP3 ADD MSTORE PUSH1 0x64 SWAP1 REVERT JUMPDEST PUSH4 0x4E487B71 PUSH1 0xE0 SHL DUP7 MSTORE PUSH1 0x21 PUSH1 0x4 MSTORE PUSH1 0x24 DUP7 REVERT JUMPDEST POP DUP1 REVERT JUMPDEST POP CALLVALUE PUSH2 0x371 JUMPI PUSH1 0x40 CALLDATASIZE PUSH1 0x3 NOT ADD SLT PUSH2 0x371 JUMPI PUSH2 0x8E4 PUSH1 0x40 PUSH1 0x20 SWAP3 PUSH2 0x8D8 PUSH2 0x414 PUSH2 0x29AD JUMP JUMPDEST DUP2 MSTORE PUSH1 0x3 DUP5 MSTORE KECCAK256 PUSH2 0x485D JUMP JUMPDEST PUSH1 0x40 MLOAD SWAP1 DUP2 MSTORE RETURN JUMPDEST POP CALLVALUE PUSH2 0x371 JUMPI PUSH1 0x20 CALLDATASIZE PUSH1 0x3 NOT ADD SLT PUSH2 0x371 JUMPI PUSH1 0x40 PUSH1 0x20 SWAP2 PUSH1 0x4 CALLDATALOAD DUP2 MSTORE PUSH1 0xA DUP4 MSTORE KECCAK256 SLOAD PUSH1 0x40 MLOAD SWAP1 DUP2 MSTORE RETURN JUMPDEST POP CALLVALUE PUSH2 0x371 JUMPI PUSH1 0x40 CALLDATASIZE PUSH1 0x3 NOT ADD SLT PUSH2 0x371 JUMPI PUSH2 0x930 PUSH2 0x29AD JUMP JUMPDEST PUSH2 0x942 PUSH2 0x93B PUSH2 0x29C8 JUMP JUMPDEST DUP4 SWAP3 PUSH2 0x47B4 JUMP JUMPDEST DUP3 MSTORE PUSH1 0x20 PUSH1 0x6 PUSH1 0x20 MSTORE PUSH1 0x40 DUP4 KECCAK256 DUP4 SWAP2 DUP2 SLOAD SWAP2 JUMPDEST DUP3 DUP5 LT PUSH2 0x967 JUMPI PUSH1 0x20 DUP6 PUSH1 0x40 MLOAD SWAP1 DUP2 MSTORE RETURN JUMPDEST SWAP1 SWAP2 SWAP3 SWAP4 PUSH2 0x975 DUP6 DUP4 PUSH2 0x2AC1 JUMP JUMPDEST SWAP1 SLOAD PUSH1 0x3 SWAP2 DUP3 SHL SHR DUP8 MSTORE PUSH1 0x4 DUP5 MSTORE PUSH1 0x40 DUP8 KECCAK256 SWAP1 PUSH1 0xFF PUSH1 0x8 DUP4 ADD SLOAD AND PUSH1 0x2 DUP2 LT ISZERO PUSH2 0x50A JUMPI PUSH2 0xA22 JUMPI DUP2 ADD SLOAD PUSH1 0x1 PUSH1 0x1 PUSH1 0xA0 SHL SUB AND DUP8 MSTORE PUSH1 0xB DUP5 MSTORE PUSH1 0x40 DUP8 KECCAK256 SLOAD SWAP1 DUP2 ISZERO DUP1 ISZERO PUSH2 0xA2D JUMPI JUMPDEST PUSH2 0xA22 JUMPI SWAP1 PUSH2 0x9E4 DUP3 PUSH1 0x5 PUSH2 0x9DB PUSH1 0x4 PUSH2 0x9E9 SWAP7 ADD SLOAD SWAP5 DUP6 PUSH2 0x2E0A JUMP JUMPDEST SWAP2 ADD SLOAD SWAP1 PUSH2 0x2E1D JUMP JUMPDEST PUSH2 0x47EA JUMP JUMPDEST SWAP1 DUP7 DUP3 DUP3 ADD SWAP3 DUP4 SLT SWAP2 SLT SWAP1 DUP1 ISZERO DUP3 AND SWAP2 ISZERO AND OR PUSH2 0xA0E JUMPI PUSH1 0x1 SWAP1 SWAP5 JUMPDEST ADD SWAP3 SWAP2 SWAP1 PUSH2 0x955 JUMP JUMPDEST PUSH4 0x4E487B71 PUSH1 0xE0 SHL DUP7 MSTORE PUSH1 0x11 PUSH1 0x4 MSTORE PUSH1 0x24 DUP7 REVERT JUMPDEST POP POP SWAP4 PUSH1 0x1 SWAP1 PUSH2 0xA05 JUMP JUMPDEST POP PUSH1 0x5 DUP2 ADD SLOAD ISZERO PUSH2 0x9BE JUMP JUMPDEST POP CALLVALUE PUSH2 0x371 JUMPI PUSH2 0xA48 CALLDATASIZE PUSH2 0x2A92 JUMP JUMPDEST SWAP1 PUSH2 0xA68 PUSH20 0x37BB9C718F3F7FE5ECBDB0B600D607B52706776 CALLER EQ PUSH2 0x2D85 JUMP JUMPDEST DUP3 DUP5 MSTORE PUSH1 0xC PUSH1 0x20 SWAP1 DUP2 MSTORE PUSH1 0x40 DUP6 KECCAK256 SLOAD PUSH1 0x1 PUSH1 0x1 PUSH1 0xA0 SHL SUB AND SWAP4 SWAP1 SWAP3 SWAP1 DUP5 ISZERO PUSH2 0xB2B JUMPI DUP6 MSTORE PUSH1 0xC DUP4 MSTORE PUSH1 0x40 DUP6 KECCAK256 DUP1 SLOAD PUSH1 0x1 PUSH1 0x1 PUSH1 0xA0 SHL SUB NOT AND SWAP1 SSTORE DUP2 ADD DUP2 SWAP1 SUB DUP3 SGT PUSH2 0xB27 JUMPI CALLDATALOAD DUP1 ISZERO PUSH2 0xAEE JUMPI SWAP1 PUSH32 0xD86730737B142FC160892FA8A0F2DB687A92A0E294D1AD70624CF5ACEF03B84 SWAP2 DUP4 DUP6 MSTORE PUSH1 0xB DUP3 MSTORE DUP1 PUSH1 0x40 DUP7 KECCAK256 SSTORE PUSH1 0x40 MLOAD SWAP1 DUP2 MSTORE LOG2 DUP1 RETURN JUMPDEST PUSH1 0x40 MLOAD PUSH3 0x461BCD PUSH1 0xE5 SHL DUP2 MSTORE PUSH1 0x4 DUP2 ADD DUP4 SWAP1 MSTORE PUSH1 0x11 PUSH1 0x24 DUP3 ADD MSTORE PUSH17 0x564D3A20696E76616C6964207072696365 PUSH1 0x78 SHL PUSH1 0x44 DUP3 ADD MSTORE PUSH1 0x64 SWAP1 REVERT JUMPDEST DUP4 DUP1 REVERT JUMPDEST PUSH1 0x40 MLOAD PUSH3 0x461BCD PUSH1 0xE5 SHL DUP2 MSTORE PUSH1 0x4 DUP2 ADD DUP6 SWAP1 MSTORE PUSH1 0x19 PUSH1 0x24 DUP3 ADD MSTORE PUSH32 0x564D3A20756E6B6E6F776E207072696365207265717565737400000000000000 PUSH1 0x44 DUP3 ADD MSTORE PUSH1 0x64 SWAP1 REVERT JUMPDEST POP CALLVALUE PUSH2 0x371 JUMPI PUSH1 0x40 CALLDATASIZE PUSH1 0x3 NOT ADD SLT PUSH2 0x371 JUMPI PUSH2 0xBA6 PUSH1 0x5 PUSH1 0x40 PUSH2 0x486 SWAP4 PUSH2 0xB98 PUSH2 0x414 PUSH2 0x29AD JUMP JUMPDEST DUP2 MSTORE PUSH1 0x3 PUSH1 0x20 MSTORE KECCAK256 ADD PUSH2 0x475A JUMP JUMPDEST PUSH1 0x40 MLOAD SWAP2 DUP3 SWAP2 PUSH1 0x20 DUP4 MSTORE PUSH1 0x20 DUP4 ADD SWAP1 PUSH2 0x2C36 JUMP JUMPDEST POP CALLVALUE PUSH2 0x371 JUMPI PUSH1 0x20 CALLDATASIZE PUSH1 0x3 NOT ADD SLT PUSH2 0x371 JUMPI PUSH1 0x40 PUSH1 0xE0 SWAP2 PUSH1 0x4 CALLDATALOAD DUP2 MSTORE PUSH1 0x3 PUSH1 0x20 MSTORE KECCAK256 PUSH2 0xC3D PUSH1 0x1 DUP1 PUSH1 0xA0 SHL SUB SWAP2 PUSH1 0xFF DUP4 DUP3 SLOAD AND SWAP4 PUSH1 0x1 DUP4 ADD SLOAD AND SWAP2 PUSH1 0x2 DUP2 ADD SLOAD PUSH1 0x3 DUP3 ADD SLOAD SWAP1 DUP4 PUSH1 0x6 PUSH1 0x4 DUP6 ADD SLOAD SWAP5 ADD SLOAD AND SWAP5 PUSH1 0x40 MLOAD SWAP8 DUP9 MSTORE PUSH1 0x20 DUP9 ADD MSTORE PUSH1 0x40 DUP8 ADD MSTORE PUSH1 0x60 DUP7 ADD MSTORE DUP2 DUP2 AND PUSH1 0x80 DUP7 ADD MSTORE PUSH1 0x8 SHR AND PUSH1 0xA0 DUP5 ADD MSTORE PUSH1 0xC0 DUP4 ADD SWAP1 PUSH2 0x2C73 JUMP JUMPDEST RETURN JUMPDEST POP CALLVALUE PUSH2 0x371 JUMPI PUSH1 0x40 CALLDATASIZE PUSH1 0x3 NOT ADD SLT PUSH2 0x371 JUMPI PUSH1 0x24 CALLDATALOAD SWAP1 PUSH1 0x4 CALLDATALOAD DUP2 MSTORE PUSH1 0x6 PUSH1 0x20 MSTORE PUSH1 0x40 DUP2 KECCAK256 SWAP1 DUP2 SLOAD DUP4 LT ISZERO PUSH2 0x371 JUMPI PUSH1 0x20 PUSH2 0xC79 DUP5 DUP5 PUSH2 0x2AC1 JUMP JUMPDEST SWAP1 SLOAD PUSH1 0x40 MLOAD SWAP2 PUSH1 0x3 SHL SHR DUP2 MSTORE RETURN JUMPDEST POP CALLVALUE PUSH2 0x371 JUMPI PUSH1 0x20 CALLDATASIZE PUSH1 0x3 NOT ADD SLT PUSH2 0x371 JUMPI PUSH2 0xCAA PUSH2 0xCA4 PUSH2 0x29AD JUMP JUMPDEST CALLER PUSH2 0x47B4 JUMP JUMPDEST DUP1 DUP3 MSTORE PUSH1 0x3 PUSH1 0x20 MSTORE PUSH1 0x40 DUP3 KECCAK256 SLOAD PUSH2 0xCCB SWAP1 PUSH1 0x1 PUSH1 0x1 PUSH1 0xA0 SHL SUB AND CALLER EQ PUSH2 0x2CD4 JUMP JUMPDEST DUP1 DUP3 MSTORE PUSH1 0x3 PUSH1 0x20 MSTORE PUSH1 0xFF PUSH1 0x6 PUSH1 0x40 DUP5 KECCAK256 ADD SLOAD AND PUSH1 0x3 DUP2 LT ISZERO PUSH2 0xD62 JUMPI PUSH2 0xD2C JUMPI DUP1 DUP3 MSTORE PUSH1 0x3 PUSH1 0x20 MSTORE PUSH1 0x40 DUP3 KECCAK256 PUSH1 0x6 ADD DUP1 SLOAD PUSH1 0xFF NOT AND PUSH1 0x1 OR SWAP1 SSTORE PUSH32 0x7CA948EDDCCF3A65F738292FE09D47DD38A0616763F1A1A78715430C7A18A18B DUP3 DUP1 LOG2 DUP1 RETURN JUMPDEST PUSH1 0x40 MLOAD PUSH3 0x461BCD PUSH1 0xE5 SHL DUP2 MSTORE PUSH1 0x20 PUSH1 0x4 DUP3 ADD MSTORE PUSH1 0xE PUSH1 0x24 DUP3 ADD MSTORE PUSH14 0x564D3A206E6F7420616374697665 PUSH1 0x90 SHL PUSH1 0x44 DUP3 ADD MSTORE PUSH1 0x64 SWAP1 REVERT JUMPDEST PUSH4 0x4E487B71 PUSH1 0xE0 SHL DUP4 MSTORE PUSH1 0x21 PUSH1 0x4 MSTORE PUSH1 0x24 DUP4 REVERT JUMPDEST POP CALLVALUE PUSH2 0x371 JUMPI PUSH1 0x40 CALLDATASIZE PUSH1 0x3 NOT ADD SLT PUSH2 0x371 JUMPI PUSH1 0x20 PUSH2 0x8E4 PUSH2 0x414 PUSH2 0x29AD JUMP JUMPDEST POP CALLVALUE PUSH2 0x371 JUMPI PUSH1 0x40 CALLDATASIZE PUSH1 0x3 NOT ADD SLT PUSH2 0x371 JUMPI PUSH2 0xDF9 PUSH2 0xDB2 PUSH2 0x29AD JUMP JUMPDEST PUSH2 0xDBA PUSH2 0x29C8 JUMP JUMPDEST SWAP1 DUP4 PUSH1 0xE0 PUSH1 0x40 MLOAD PUSH2 0xDCA DUP2 PUSH2 0x2B29 JUMP JUMPDEST DUP3 DUP2 MSTORE DUP3 PUSH1 0x20 DUP3 ADD MSTORE DUP3 PUSH1 0x40 DUP3 ADD MSTORE DUP3 PUSH1 0x60 DUP3 ADD MSTORE DUP3 PUSH1 0x80 DUP3 ADD MSTORE DUP3 PUSH1 0xA0 DUP3 ADD MSTORE PUSH1 0x60 PUSH1 0xC0 DUP3 ADD MSTORE ADD MSTORE PUSH2 0x47B4 JUMP JUMPDEST DUP2 MSTORE PUSH1 0x3 PUSH1 0x20 MSTORE PUSH1 0x40 DUP2 KECCAK256 PUSH1 0x40 MLOAD SWAP1 PUSH2 0xE11 DUP3 PUSH2 0x2B29 JUMP JUMPDEST PUSH1 0x1 DUP1 PUSH1 0xA0 SHL SUB SWAP1 DUP2 DUP2 SLOAD AND DUP4 MSTORE DUP2 PUSH1 0x1 DUP3 ADD SLOAD AND SWAP2 PUSH1 0x20 DUP5 ADD SWAP3 DUP4 MSTORE PUSH1 0x2 DUP3 ADD SLOAD SWAP1 PUSH1 0x40 DUP6 ADD SWAP2 DUP3 MSTORE PUSH1 0x3 DUP4 ADD SLOAD PUSH1 0x60 DUP7 ADD SWAP1 DUP2 MSTORE PUSH1 0x4 DUP5 ADD SLOAD SWAP3 PUSH1 0x80 DUP8 ADD SWAP3 PUSH1 0xFF DUP6 AND DUP5 MSTORE PUSH1 0xFF PUSH1 0xA0 DUP10 ADD SWAP6 PUSH1 0x8 SHR AND DUP6 MSTORE PUSH1 0xFF PUSH1 0x6 PUSH2 0xE75 PUSH1 0x5 DUP10 ADD PUSH2 0x475A JUMP JUMPDEST SWAP8 PUSH1 0xC0 DUP12 ADD SWAP9 DUP10 MSTORE ADD SLOAD AND SWAP7 PUSH1 0xE0 DUP10 ADD SWAP8 PUSH1 0x3 DUP2 LT ISZERO PUSH2 0xEF8 JUMPI SWAP4 PUSH2 0x486 SWAP7 SWAP4 PUSH1 0xFF SWAP6 SWAP4 DUP11 SWAP10 SWAP8 SWAP4 DUP8 SWAP6 PUSH1 0x20 SWAP13 MSTORE DUP2 PUSH1 0x40 MLOAD SWAP14 DUP15 SWAP14 DUP15 MSTORE MLOAD AND PUSH1 0x20 DUP14 ADD MSTORE MLOAD AND PUSH1 0x40 DUP12 ADD MSTORE MLOAD PUSH1 0x60 DUP11 ADD MSTORE MLOAD PUSH1 0x80 DUP10 ADD MSTORE MLOAD AND PUSH1 0xA0 DUP8 ADD MSTORE MLOAD AND PUSH1 0xC0 DUP6 ADD MSTORE MLOAD PUSH2 0xEED PUSH2 0x100 SWAP2 DUP3 PUSH1 0xE0 DUP8 ADD MSTORE PUSH2 0x120 DUP7 ADD SWAP1 PUSH2 0x2C36 JUMP JUMPDEST SWAP3 MLOAD SWAP1 DUP5 ADD SWAP1 PUSH2 0x2C73 JUMP JUMPDEST PUSH4 0x4E487B71 PUSH1 0xE0 SHL DUP12 MSTORE PUSH1 0x21 PUSH1 0x4 MSTORE PUSH1 0x24 DUP12 REVERT JUMPDEST POP CALLVALUE PUSH2 0x371 JUMPI DUP1 PUSH1 0x3 NOT CALLDATASIZE ADD SLT PUSH2 0x371 JUMPI PUSH1 0x20 PUSH1 0x40 MLOAD PUSH1 0xA DUP2 MSTORE RETURN JUMPDEST POP CALLVALUE PUSH2 0x371 JUMPI DUP1 PUSH1 0x3 NOT CALLDATASIZE ADD SLT PUSH2 0x371 JUMPI PUSH1 0x40 MLOAD SWAP1 DUP1 DUP3 PUSH1 0x2 SLOAD SWAP2 PUSH2 0xF4C DUP4 PUSH2 0x2AEF JUMP JUMPDEST SWAP3 DUP4 DUP4 MSTORE PUSH1 0x20 SWAP5 PUSH1 0x1 SWAP2 DUP7 PUSH1 0x1 DUP3 AND SWAP2 DUP3 PUSH1 0x0 EQ PUSH2 0xFD8 JUMPI POP POP PUSH1 0x1 EQ PUSH2 0xF90 JUMPI JUMPDEST POP POP PUSH2 0xF7C SWAP3 POP SUB DUP4 PUSH2 0x2B91 JUMP JUMPDEST PUSH2 0x486 PUSH1 0x40 MLOAD SWAP3 DUP3 DUP5 SWAP4 DUP5 MSTORE DUP4 ADD SWAP1 PUSH2 0x2BD5 JUMP JUMPDEST SWAP1 DUP6 SWAP3 POP PUSH1 0x2 DUP3 MSTORE PUSH1 0x0 DUP1 MLOAD PUSH1 0x20 PUSH2 0x4F80 DUP4 CODECOPY DUP2 MLOAD SWAP2 MSTORE JUMPDEST DUP6 DUP4 LT PUSH2 0xFC0 JUMPI POP POP PUSH2 0xF7C SWAP4 POP DUP3 ADD ADD CODESIZE DUP1 PUSH2 0xF6E JUMP JUMPDEST DUP1 SLOAD DUP4 DUP10 ADD DUP6 ADD MSTORE DUP8 SWAP5 POP DUP7 SWAP4 SWAP1 SWAP3 ADD SWAP2 DUP2 ADD PUSH2 0xFA8 JUMP JUMPDEST SWAP3 POP SWAP4 POP POP PUSH2 0xF7C SWAP5 SWAP2 POP PUSH1 0xFF NOT AND DUP3 DUP5 ADD MSTORE ISZERO ISZERO PUSH1 0x5 SHL DUP3 ADD ADD CODESIZE DUP1 PUSH2 0xF6E JUMP JUMPDEST POP PUSH1 0x20 DUP1 PUSH1 0x3 NOT CALLDATASIZE ADD SLT PUSH2 0x8AF JUMPI PUSH2 0x1010 PUSH2 0x29AD JUMP JUMPDEST PUSH1 0x1 PUSH1 0x1 PUSH1 0xA0 SHL SUB DUP2 AND SWAP2 SWAP1 DUP3 ISZERO PUSH2 0x12C2 JUMPI PUSH1 0x40 MLOAD PUSH4 0xFFEB17D PUSH1 0xE1 SHL DUP2 MSTORE PUSH20 0x37BB9C718F3F7FE5ECBDB0B600D607B52706776 SWAP2 SWAP1 DUP4 DUP2 PUSH1 0x4 DUP2 DUP7 GAS STATICCALL SWAP1 DUP2 ISZERO PUSH2 0x12B7 JUMPI DUP7 SWAP2 PUSH2 0x1286 JUMPI JUMPDEST POP PUSH8 0x13FBE85EDC90000 DUP2 ADD DUP1 SWAP2 GT PUSH2 0xA0E JUMPI CALLVALUE LT PUSH2 0x122F JUMPI PUSH2 0x107E SWAP1 PUSH2 0x48AF JUMP JUMPDEST SWAP1 PUSH1 0x40 MLOAD SWAP2 DUP6 SWAP1 PUSH1 0x2 SLOAD PUSH2 0x1091 DUP2 PUSH2 0x2AEF JUMP JUMPDEST SWAP1 PUSH1 0x1 SWAP1 DUP2 DUP2 AND SWAP1 DUP2 ISZERO PUSH2 0x1211 JUMPI POP PUSH1 0x1 EQ PUSH2 0x11CB JUMPI JUMPDEST POP POP SWAP2 PUSH2 0x111A PUSH1 0x40 DUP6 DUP8 DUP6 PUSH2 0x10C9 DUP9 DUP4 SWAP11 SWAP9 PUSH2 0x1160 SWAP13 SWAP11 MLOAD SWAP5 DUP6 SWAP3 ADD PUSH2 0x2BB2 JUMP JUMPDEST ADD SUB PUSH2 0x10DD PUSH1 0x1F NOT SWAP2 DUP3 DUP2 ADD DUP8 MSTORE DUP7 PUSH2 0x2B91 JUMP JUMPDEST PUSH7 0x242E7072696365 PUSH1 0xC8 SHL DUP7 PUSH2 0x10FE DUP5 MLOAD SWAP8 DUP6 DUP4 DUP11 ADD MSTORE PUSH1 0x60 DUP10 ADD SWAP1 PUSH2 0x2BD5 JUMP JUMPDEST DUP8 DUP2 SUB SWAP4 DUP5 ADD DUP6 DUP10 ADD MSTORE PUSH1 0x7 DUP2 MSTORE ADD MSTORE DUP6 DUP2 ADD DUP6 MSTORE ADD DUP4 PUSH2 0x2B91 JUMP JUMPDEST PUSH1 0x40 MLOAD PUSH4 0x45DE5DF1 PUSH1 0xE1 SHL DUP2 MSTORE PUSH8 0xB6D47DA8DBBCB1B1 PUSH1 0x4 DUP3 ADD MSTORE ADDRESS PUSH1 0x24 DUP3 ADD MSTORE PUSH4 0xD16B6921 PUSH1 0xE0 SHL PUSH1 0x44 DUP3 ADD MSTORE PUSH1 0x80 PUSH1 0x64 DUP3 ADD MSTORE SWAP5 DUP6 SWAP3 DUP4 SWAP2 DUP3 SWAP2 PUSH1 0x84 DUP4 ADD SWAP1 PUSH2 0x2BD5 JUMP JUMPDEST SUB SWAP2 CALLVALUE SWAP1 GAS CALL DUP1 ISZERO PUSH2 0x11C0 JUMPI DUP5 SWAP1 PUSH2 0x1192 JUMPI JUMPDEST DUP5 MSTORE PUSH1 0xC SWAP1 MSTORE POP PUSH1 0x40 DUP3 KECCAK256 DUP1 SLOAD PUSH1 0x1 PUSH1 0x1 PUSH1 0xA0 SHL SUB NOT AND SWAP1 SWAP2 OR SWAP1 SSTORE DUP1 RETURN JUMPDEST POP DUP1 DUP3 DUP2 RETURNDATASIZE DUP4 GT PUSH2 0x11B9 JUMPI JUMPDEST PUSH2 0x11A8 DUP2 DUP4 PUSH2 0x2B91 JUMP JUMPDEST DUP2 ADD SUB SLT PUSH2 0xB27 JUMPI PUSH1 0xC SWAP2 MLOAD PUSH2 0x1173 JUMP JUMPDEST POP RETURNDATASIZE PUSH2 0x119E JUMP JUMPDEST PUSH1 0x40 MLOAD RETURNDATASIZE DUP7 DUP3 RETURNDATACOPY RETURNDATASIZE SWAP1 REVERT JUMPDEST PUSH1 0x2 DUP10 MSTORE SWAP2 SWAP3 POP SWAP1 DUP8 SWAP1 PUSH1 0x0 DUP1 MLOAD PUSH1 0x20 PUSH2 0x4F80 DUP4 CODECOPY DUP2 MLOAD SWAP2 MSTORE JUMPDEST DUP4 DUP4 LT PUSH2 0x11FE JUMPI POP POP POP DUP4 ADD DUP5 ADD SWAP1 PUSH2 0x111A PUSH1 0x40 PUSH2 0x10A8 JUMP JUMPDEST DUP1 SLOAD DUP8 DUP5 ADD DUP10 ADD MSTORE SWAP2 DUP8 ADD SWAP2 DUP2 ADD PUSH2 0x11E5 JUMP JUMPDEST PUSH1 0xFF NOT AND DUP9 DUP9 ADD MSTORE POP POP DUP1 ISZERO ISZERO MUL DUP5 ADD DUP6 ADD SWAP2 POP PUSH2 0x111A PUSH1 0x40 PUSH2 0x10A8 JUMP JUMPDEST PUSH1 0x40 MLOAD PUSH3 0x461BCD PUSH1 0xE5 SHL DUP2 MSTORE PUSH1 0x4 DUP2 ADD DUP5 SWAP1 MSTORE PUSH1 0x29 PUSH1 0x24 DUP3 ADD MSTORE PUSH32 0x564D3A20696E73756666696369656E74206465706F73697420666F7220707269 PUSH1 0x44 DUP3 ADD MSTORE PUSH9 0x636520757064617465 PUSH1 0xB8 SHL PUSH1 0x64 DUP3 ADD MSTORE PUSH1 0x84 SWAP1 REVERT JUMPDEST SWAP1 POP DUP4 DUP2 DUP2 RETURNDATASIZE DUP4 GT PUSH2 0x12B0 JUMPI JUMPDEST PUSH2 0x129D DUP2 DUP4 PUSH2 0x2B91 JUMP JUMPDEST DUP2 ADD SUB SLT PUSH2 0x12AC JUMPI MLOAD CODESIZE PUSH2 0x105C JUMP JUMPDEST DUP6 DUP1 REVERT JUMPDEST POP RETURNDATASIZE PUSH2 0x1293 JUMP JUMPDEST PUSH1 0x40 MLOAD RETURNDATASIZE DUP9 DUP3 RETURNDATACOPY RETURNDATASIZE SWAP1 REVERT JUMPDEST PUSH1 0x40 MLOAD PUSH3 0x461BCD PUSH1 0xE5 SHL DUP2 MSTORE PUSH1 0x4 DUP2 ADD DUP4 SWAP1 MSTORE PUSH1 0xE PUSH1 0x24 DUP3 ADD MSTORE PUSH14 0x2B269D103D32B937903A37B5B2B7 PUSH1 0x91 SHL PUSH1 0x44 DUP3 ADD MSTORE PUSH1 0x64 SWAP1 REVERT JUMPDEST POP CALLVALUE PUSH2 0x371 JUMPI DUP1 PUSH1 0x3 NOT CALLDATASIZE ADD SLT PUSH2 0x371 JUMPI PUSH1 0x20 PUSH1 0x40 MLOAD PUSH2 0x12C DUP2 MSTORE RETURN JUMPDEST POP CALLVALUE PUSH2 0x371 JUMPI PUSH1 0x20 SWAP1 PUSH1 0x20 PUSH1 0x3 NOT CALLDATASIZE ADD SLT PUSH2 0x371 JUMPI PUSH1 0x1 PUSH1 0x1 PUSH1 0x40 SHL SUB PUSH1 0x4 CALLDATALOAD DUP2 DUP2 GT PUSH2 0x36D JUMPI PUSH2 0x134A SWAP1 CALLDATASIZE SWAP1 PUSH1 0x4 ADD PUSH2 0x2A65 JUMP JUMPDEST SWAP1 SWAP2 PUSH2 0x1360 PUSH1 0x1 DUP1 PUSH1 0xA0 SHL SUB DUP6 SLOAD AND CALLER EQ PUSH2 0x471E JUMP JUMPDEST DUP2 GT PUSH2 0x359 JUMPI PUSH1 0x1 SWAP2 PUSH2 0x1373 DUP4 SLOAD PUSH2 0x2AEF JUMP JUMPDEST PUSH1 0x1F DUP2 GT PUSH2 0x141C JUMPI JUMPDEST POP DUP4 SWAP5 PUSH1 0x1F DUP4 GT PUSH1 0x1 EQ PUSH2 0x13B3 JUMPI POP DUP4 SWAP5 DUP3 SWAP2 PUSH2 0x13AE SWAP5 SWAP6 SWAP3 PUSH2 0x29A JUMPI POP POP DUP2 PUSH1 0x1 SHL SWAP2 PUSH1 0x0 NOT SWAP1 PUSH1 0x3 SHL SHR NOT AND OR SWAP1 JUMP JUMPDEST SWAP1 SSTORE DUP1 RETURN JUMPDEST PUSH1 0x1F NOT DUP4 AND SWAP6 PUSH1 0x0 DUP1 MLOAD PUSH1 0x20 PUSH2 0x4FC0 DUP4 CODECOPY DUP2 MLOAD SWAP2 MSTORE SWAP3 SWAP2 DUP7 SWAP1 JUMPDEST DUP9 DUP3 LT PUSH2 0x1405 JUMPI POP POP DUP4 DUP6 SWAP7 SWAP8 LT PUSH2 0x13EB JUMPI JUMPDEST POP POP POP DUP2 SHL ADD SWAP1 SSTORE DUP1 RETURN JUMPDEST ADD CALLDATALOAD PUSH1 0x0 NOT PUSH1 0x3 DUP5 SWAP1 SHL PUSH1 0xF8 AND SHR NOT AND SWAP1 SSTORE CODESIZE DUP1 DUP1 PUSH2 0x13E0 JUMP JUMPDEST DUP1 DUP8 DUP5 SWAP7 DUP3 SWAP5 SWAP6 DUP8 ADD CALLDATALOAD DUP2 SSTORE ADD SWAP6 ADD SWAP3 ADD SWAP1 PUSH2 0x13CD JUMP JUMPDEST PUSH2 0x144E SWAP1 PUSH1 0x0 DUP1 MLOAD PUSH1 0x20 PUSH2 0x4FC0 DUP4 CODECOPY DUP2 MLOAD SWAP2 MSTORE PUSH1 0x1F DUP6 ADD PUSH1 0x5 SHR DUP2 ADD SWAP2 PUSH1 0x20 DUP7 LT PUSH2 0x34F JUMPI PUSH1 0x1F ADD PUSH1 0x5 SHR ADD SWAP1 PUSH2 0x2DF3 JUMP JUMPDEST CODESIZE PUSH2 0x137C JUMP JUMPDEST POP CALLVALUE PUSH2 0x371 JUMPI PUSH2 0x1474 PUSH2 0x1466 CALLDATASIZE PUSH2 0x2A22 JUMP JUMPDEST SWAP3 SWAP1 SWAP2 PUSH2 0xCA4 DUP5 ISZERO ISZERO PUSH2 0x2C96 JUMP JUMPDEST DUP1 DUP5 MSTORE PUSH1 0x3 PUSH1 0x20 MSTORE PUSH1 0x40 DUP5 KECCAK256 SLOAD SWAP1 SWAP3 SWAP1 PUSH2 0x1498 SWAP1 PUSH1 0x1 PUSH1 0x1 PUSH1 0xA0 SHL SUB AND CALLER EQ PUSH2 0x2CD4 JUMP JUMPDEST DUP3 DUP5 MSTORE PUSH1 0x3 PUSH1 0x20 MSTORE PUSH1 0x40 DUP5 KECCAK256 PUSH1 0x5 ADD DUP5 JUMPDEST DUP3 DUP2 LT PUSH2 0x1547 JUMPI POP SLOAD ISZERO PUSH2 0x14EE JUMPI PUSH32 0x89216286BABE3A315DB35C8A44501C50B04E4AF6DB52228800178FA93ABBCFA6 SWAP2 PUSH2 0x14E8 PUSH1 0x40 MLOAD SWAP3 DUP4 SWAP3 DUP4 PUSH2 0x2D39 JUMP JUMPDEST SUB SWAP1 LOG2 DUP1 RETURN JUMPDEST PUSH1 0x40 MLOAD PUSH3 0x461BCD PUSH1 0xE5 SHL DUP2 MSTORE PUSH1 0x20 PUSH1 0x4 DUP3 ADD MSTORE PUSH1 0x2B PUSH1 0x24 DUP3 ADD MSTORE PUSH32 0x564D3A2063616E6E6F742072656D6F766520616C6C20746F6B656E732066726F PUSH1 0x44 DUP3 ADD MSTORE PUSH11 0x1B48185B1B1BDDDB1A5CDD PUSH1 0xAA SHL PUSH1 0x64 DUP3 ADD MSTORE PUSH1 0x84 SWAP1 REVERT JUMPDEST DUP1 PUSH2 0x1566 PUSH2 0x1560 PUSH2 0x155B PUSH1 0x1 SWAP5 DUP8 DUP10 PUSH2 0x2D15 JUMP JUMPDEST PUSH2 0x2D25 JUMP JUMPDEST DUP5 PUSH2 0x4E13 JUMP JUMPDEST ADD PUSH2 0x14A9 JUMP JUMPDEST POP CALLVALUE PUSH2 0x371 JUMPI DUP1 PUSH1 0x3 NOT CALLDATASIZE ADD SLT PUSH2 0x371 JUMPI SLOAD PUSH1 0x40 MLOAD PUSH1 0x1 PUSH1 0x1 PUSH1 0xA0 SHL SUB SWAP1 SWAP2 AND DUP2 MSTORE PUSH1 0x20 SWAP1 RETURN JUMPDEST POP CALLVALUE PUSH2 0x371 JUMPI PUSH1 0x20 CALLDATASIZE PUSH1 0x3 NOT ADD SLT PUSH2 0x371 JUMPI PUSH1 0x40 PUSH1 0x20 SWAP2 PUSH1 0x4 CALLDATALOAD DUP2 MSTORE PUSH1 0x8 DUP4 MSTORE KECCAK256 SLOAD PUSH1 0x40 MLOAD SWAP1 DUP2 MSTORE RETURN JUMPDEST POP CALLVALUE PUSH2 0x371 JUMPI PUSH1 0xA0 CALLDATASIZE PUSH1 0x3 NOT ADD SLT PUSH2 0x371 JUMPI PUSH2 0x15D7 PUSH2 0x29AD JUMP JUMPDEST PUSH1 0x24 PUSH1 0x44 SWAP2 DUP3 CALLDATALOAD PUSH1 0xFF DUP2 AND DUP1 SWAP2 SUB PUSH2 0x1AF0 JUMPI PUSH1 0x64 DUP1 CALLDATALOAD PUSH1 0xFF DUP2 AND DUP1 SWAP2 SUB PUSH2 0x1AEC JUMPI PUSH1 0x84 CALLDATALOAD PUSH1 0x1 PUSH1 0x1 PUSH1 0x40 SHL SUB DUP2 GT PUSH2 0x1AE8 JUMPI PUSH2 0x1617 SWAP1 CALLDATASIZE SWAP1 PUSH1 0x4 ADD PUSH2 0x29F2 JUMP JUMPDEST SWAP1 SWAP3 SWAP1 SWAP2 SWAP1 PUSH1 0x1 PUSH1 0x1 PUSH1 0xA0 SHL SUB DUP7 AND ISZERO ISZERO DUP1 PUSH2 0x1AD5 JUMPI JUMPDEST ISZERO PUSH2 0x1AA0 JUMPI PUSH1 0x1 DUP6 LT ISZERO DUP1 PUSH2 0x1A95 JUMPI JUMPDEST ISZERO PUSH2 0x1A60 JUMPI PUSH1 0x1 DUP3 LT ISZERO DUP1 PUSH2 0x1A56 JUMPI JUMPDEST ISZERO PUSH2 0x1A23 JUMPI DUP3 ISZERO PUSH2 0x19D0 JUMPI DUP7 CALLDATALOAD ISZERO PUSH2 0x199D JUMPI PUSH2 0x166A DUP7 CALLER PUSH2 0x47B4 JUMP JUMPDEST DUP1 DUP11 MSTORE PUSH1 0x3 PUSH1 0x20 MSTORE PUSH1 0x40 DUP11 KECCAK256 SLOAD SWAP1 SWAP9 SWAP1 PUSH1 0x1 PUSH1 0x1 PUSH1 0xA0 SHL SUB AND PUSH2 0x195C JUMPI POP POP PUSH1 0x40 MLOAD PUSH4 0x23B872DD PUSH1 0xE0 SHL DUP2 MSTORE CALLER PUSH1 0x4 DUP3 ADD MSTORE ADDRESS PUSH1 0x24 DUP3 ADD MSTORE DUP7 CALLDATALOAD PUSH1 0x44 DUP3 ADD MSTORE PUSH1 0x20 DUP2 PUSH1 0x64 DUP2 DUP13 PUSH1 0x1 PUSH1 0x1 PUSH1 0xA0 SHL SUB PUSH32 0x0 AND GAS CALL DUP1 ISZERO PUSH2 0x1951 JUMPI PUSH2 0x16F3 SWAP2 DUP11 SWAP2 PUSH2 0x1922 JUMPI JUMPDEST POP PUSH2 0x44C4 JUMP JUMPDEST PUSH1 0x40 MLOAD SWAP4 PUSH2 0x1700 DUP6 PUSH2 0x2B29 JUMP JUMPDEST CALLER DUP6 MSTORE PUSH1 0x1 PUSH1 0x1 PUSH1 0xA0 SHL SUB DUP7 AND PUSH1 0x20 DUP7 ADD MSTORE DUP7 CALLDATALOAD PUSH1 0x40 DUP7 ADD MSTORE PUSH1 0x60 DUP6 ADD DUP10 SWAP1 MSTORE PUSH1 0x80 DUP6 ADD MSTORE PUSH1 0xA0 DUP5 ADD MSTORE PUSH2 0x1733 DUP2 PUSH2 0x46D2 JUMP JUMPDEST SWAP2 PUSH2 0x1741 PUSH1 0x40 MLOAD SWAP4 DUP5 PUSH2 0x2B91 JUMP JUMPDEST DUP2 DUP4 MSTORE PUSH1 0x20 DUP4 ADD SWAP1 CALLDATASIZE DUP4 PUSH1 0x5 SHL DUP3 ADD GT PUSH2 0x191E JUMPI DUP1 SWAP2 JUMPDEST DUP4 PUSH1 0x5 SHL DUP3 ADD DUP4 LT PUSH2 0x1906 JUMPI POP POP POP POP PUSH1 0xC0 DUP3 ADD MSTORE DUP5 PUSH1 0xE0 DUP3 ADD MSTORE DUP4 DUP6 MSTORE PUSH1 0x3 PUSH1 0x20 MSTORE PUSH1 0x40 DUP6 KECCAK256 PUSH1 0x1 DUP1 PUSH1 0xA0 SHL SUB DUP3 MLOAD AND PUSH1 0x1 PUSH1 0x1 PUSH1 0x60 SHL SUB PUSH1 0xA0 SHL SWAP1 DUP2 DUP4 SLOAD AND OR DUP3 SSTORE PUSH1 0x1 DUP3 ADD SWAP1 PUSH1 0x1 DUP1 PUSH1 0xA0 SHL SUB PUSH1 0x20 DUP6 ADD MLOAD AND SWAP1 DUP3 SLOAD AND OR SWAP1 SSTORE PUSH1 0x40 DUP3 ADD MLOAD PUSH1 0x2 DUP3 ADD SSTORE PUSH1 0x60 DUP3 ADD MLOAD PUSH1 0x3 DUP3 ADD SSTORE PUSH1 0x4 DUP2 ADD PUSH1 0xFF PUSH1 0x80 DUP5 ADD MLOAD AND DUP2 SLOAD SWAP1 PUSH2 0xFF00 PUSH1 0xA0 DUP7 ADD MLOAD PUSH1 0x8 SHL AND SWAP2 PUSH2 0xFFFF NOT AND OR OR SWAP1 SSTORE PUSH1 0x5 DUP2 ADD PUSH1 0xC0 DUP4 ADD MLOAD SWAP1 DUP2 MLOAD SWAP2 PUSH1 0x1 PUSH1 0x1 PUSH1 0x40 SHL SUB DUP4 GT PUSH2 0x18F3 JUMPI PUSH1 0x1 PUSH1 0x40 SHL DUP4 GT PUSH2 0x18F3 JUMPI PUSH1 0x20 SWAP1 DUP3 SLOAD DUP5 DUP5 SSTORE DUP1 DUP6 LT PUSH2 0x18D9 JUMPI JUMPDEST POP ADD SWAP1 DUP9 MSTORE PUSH1 0x20 DUP9 KECCAK256 DUP9 JUMPDEST DUP4 DUP2 LT PUSH2 0x18BC JUMPI POP POP POP POP PUSH1 0x6 PUSH1 0xE0 SWAP2 ADD SWAP2 ADD MLOAD PUSH1 0x3 DUP2 LT ISZERO PUSH2 0x18A9 JUMPI PUSH1 0xFF DUP1 NOT DUP4 SLOAD AND SWAP2 AND OR SWAP1 SSTORE CALLER DUP5 MSTORE PUSH1 0x5 PUSH1 0x20 MSTORE PUSH2 0x186D DUP4 PUSH1 0x40 DUP7 KECCAK256 PUSH2 0x46E9 JUMP JUMPDEST PUSH1 0x40 MLOAD SWAP2 CALLDATALOAD DUP3 MSTORE PUSH1 0x1 PUSH1 0x1 PUSH1 0xA0 SHL SUB AND SWAP1 CALLER SWAP1 PUSH32 0x6195D111F124DC39CB1AB083F9F1B6664E415BF60B71499B3A4B24CF07C337A8 SWAP1 PUSH1 0x20 SWAP1 LOG4 DUP1 RETURN JUMPDEST PUSH4 0x4E487B71 PUSH1 0xE0 SHL DUP7 MSTORE PUSH1 0x21 PUSH1 0x4 MSTORE DUP4 DUP7 REVERT JUMPDEST DUP3 MLOAD PUSH1 0x1 PUSH1 0x1 PUSH1 0xA0 SHL SUB AND DUP2 DUP4 ADD SSTORE PUSH1 0x20 SWAP1 SWAP3 ADD SWAP2 PUSH1 0x1 ADD PUSH2 0x182F JUMP JUMPDEST DUP4 DUP12 MSTORE DUP3 DUP12 KECCAK256 PUSH2 0x18ED SWAP2 DUP2 ADD SWAP1 DUP7 ADD PUSH2 0x2DF3 JUMP JUMPDEST CODESIZE PUSH2 0x1824 JUMP JUMPDEST PUSH4 0x4E487B71 PUSH1 0xE0 SHL DUP10 MSTORE PUSH1 0x41 PUSH1 0x4 MSTORE DUP7 DUP10 REVERT JUMPDEST PUSH1 0x20 DUP1 SWAP2 PUSH2 0x1913 DUP6 PUSH2 0x29DE JUMP JUMPDEST DUP2 MSTORE ADD SWAP3 ADD SWAP2 PUSH2 0x1758 JUMP JUMPDEST DUP9 DUP1 REVERT JUMPDEST PUSH2 0x1944 SWAP2 POP PUSH1 0x20 RETURNDATASIZE PUSH1 0x20 GT PUSH2 0x194A JUMPI JUMPDEST PUSH2 0x193C DUP2 DUP4 PUSH2 0x2B91 JUMP JUMPDEST DUP2 ADD SWAP1 PUSH2 0x44AC JUMP JUMPDEST CODESIZE PUSH2 0x16ED JUMP JUMPDEST POP RETURNDATASIZE PUSH2 0x1932 JUMP JUMPDEST PUSH1 0x40 MLOAD RETURNDATASIZE DUP12 DUP3 RETURNDATACOPY RETURNDATASIZE SWAP1 REVERT JUMPDEST PUSH32 0x564D3A207661756C7420616C7265616479206578697374730000000000000000 DUP9 SWAP2 PUSH1 0x18 PUSH1 0x40 MLOAD SWAP4 PUSH3 0x461BCD PUSH1 0xE5 SHL DUP6 MSTORE PUSH1 0x20 PUSH1 0x4 DUP7 ADD MSTORE DUP5 ADD MSTORE DUP3 ADD MSTORE REVERT JUMPDEST PUSH1 0x40 MLOAD PUSH3 0x461BCD PUSH1 0xE5 SHL DUP2 MSTORE PUSH1 0x20 PUSH1 0x4 DUP3 ADD MSTORE PUSH1 0x10 DUP2 DUP10 ADD MSTORE PUSH16 0x15934E881E995C9BC819195C1BDCDA5D PUSH1 0x82 SHL DUP2 DUP11 ADD MSTORE REVERT JUMPDEST DUP7 PUSH8 0x696C6C20636F7079 PUSH1 0xC0 SHL PUSH1 0x84 SWAP3 PUSH32 0x564D3A20616C6C6F776C69737420656D7074792C206E6F207472616465732077 DUP12 PUSH1 0x28 PUSH1 0x40 MLOAD SWAP6 PUSH3 0x461BCD PUSH1 0xE5 SHL DUP8 MSTORE PUSH1 0x20 PUSH1 0x4 DUP9 ADD MSTORE DUP7 ADD MSTORE DUP5 ADD MSTORE DUP3 ADD MSTORE REVERT JUMPDEST PUSH1 0x40 MLOAD PUSH3 0x461BCD PUSH1 0xE5 SHL DUP2 MSTORE PUSH1 0x20 PUSH1 0x4 DUP3 ADD MSTORE PUSH1 0x10 DUP2 DUP10 ADD MSTORE PUSH16 0x564D3A206D617850637420312D31303 PUSH1 0x84 SHL DUP2 DUP11 ADD MSTORE REVERT JUMPDEST POP DUP1 DUP3 GT ISZERO PUSH2 0x164E JUMP JUMPDEST PUSH1 0x40 MLOAD PUSH3 0x461BCD PUSH1 0xE5 SHL DUP2 MSTORE PUSH1 0x20 PUSH1 0x4 DUP3 ADD MSTORE PUSH1 0x12 DUP2 DUP10 ADD MSTORE PUSH18 0x564D3A207269736B4C6576656C20312D313 PUSH1 0x74 SHL DUP2 DUP11 ADD MSTORE REVERT JUMPDEST POP PUSH1 0xA DUP6 GT ISZERO PUSH2 0x163E JUMP JUMPDEST PUSH1 0x40 MLOAD PUSH3 0x461BCD PUSH1 0xE5 SHL DUP2 MSTORE PUSH1 0x20 PUSH1 0x4 DUP3 ADD MSTORE PUSH1 0x12 DUP2 DUP10 ADD MSTORE PUSH18 0x2B269D1034B73B30B634B2103632B0B232B9 PUSH1 0x71 SHL DUP2 DUP11 ADD MSTORE REVERT JUMPDEST POP PUSH1 0x1 PUSH1 0x1 PUSH1 0xA0 SHL SUB DUP7 AND CALLER EQ ISZERO PUSH2 0x162E JUMP JUMPDEST DUP8 DUP1 REVERT JUMPDEST DUP7 DUP1 REVERT JUMPDEST DUP5 DUP1 REVERT JUMPDEST POP CALLVALUE PUSH2 0x371 JUMPI PUSH1 0x20 CALLDATASIZE PUSH1 0x3 NOT ADD SLT PUSH2 0x371 JUMPI PUSH2 0x1B0E PUSH2 0x29AD JUMP JUMPDEST CALLER DUP1 DUP4 MSTORE PUSH1 0x7 PUSH1 0x20 MSTORE PUSH1 0x40 DUP4 KECCAK256 DUP1 SLOAD PUSH1 0x1 PUSH1 0x1 PUSH1 0xA0 SHL SUB NOT AND PUSH1 0x1 PUSH1 0x1 PUSH1 0xA0 SHL SUB SWAP1 SWAP4 AND SWAP3 DUP4 OR SWAP1 SSTORE PUSH32 0x50697E88BD427923002F5D3844F352091C05C0C9C3B69E43830863D222463173 DUP4 DUP1 LOG3 DUP1 RETURN JUMPDEST POP CALLVALUE PUSH2 0x371 JUMPI PUSH2 0x1B95 PUSH2 0x1B70 CALLDATASIZE PUSH2 0x2A92 JUMP JUMPDEST SWAP2 PUSH2 0x1B90 PUSH20 0x37BB9C718F3F7FE5ECBDB0B600D607B52706776 CALLER EQ PUSH2 0x2D85 JUMP JUMPDEST PUSH2 0x4590 JUMP JUMPDEST DUP1 RETURN JUMPDEST POP CALLVALUE PUSH2 0x371 JUMPI DUP1 PUSH1 0x3 NOT CALLDATASIZE ADD SLT PUSH2 0x371 JUMPI PUSH1 0x20 PUSH1 0x40 MLOAD PUSH3 0xF4240 DUP2 MSTORE RETURN JUMPDEST POP CALLVALUE PUSH2 0x371 JUMPI PUSH1 0x20 DUP1 PUSH1 0x3 NOT CALLDATASIZE ADD SLT PUSH2 0x8AF JUMPI PUSH1 0x1 PUSH1 0x1 PUSH1 0xA0 SHL SUB PUSH2 0x1BD9 PUSH2 0x29AD JUMP JUMPDEST AND DUP3 MSTORE PUSH1 0x5 PUSH1 0x20 MSTORE PUSH1 0x40 DUP3 KECCAK256 SWAP2 PUSH1 0x40 MLOAD DUP1 SWAP3 PUSH1 0x20 DUP6 SLOAD SWAP3 DUP4 DUP2 MSTORE ADD SWAP5 DUP4 MSTORE PUSH1 0x20 DUP4 KECCAK256 SWAP3 SWAP1 JUMPDEST DUP3 DUP3 LT PUSH2 0x1C21 JUMPI PUSH2 0x486 DUP6 PUSH2 0x1C15 DUP2 DUP10 SUB DUP3 PUSH2 0x2B91 JUMP JUMPDEST PUSH1 0x40 MLOAD SWAP2 DUP3 SWAP2 DUP3 PUSH2 0x2BFA JUMP JUMPDEST DUP4 SLOAD DUP7 MSTORE SWAP5 DUP6 ADD SWAP5 PUSH1 0x1 SWAP4 DUP5 ADD SWAP4 SWAP1 SWAP2 ADD SWAP1 PUSH2 0x1BFE JUMP JUMPDEST POP CALLVALUE PUSH2 0x371 JUMPI PUSH1 0x20 CALLDATASIZE PUSH1 0x3 NOT ADD SLT PUSH2 0x371 JUMPI PUSH1 0x20 SWAP1 PUSH1 0x40 SWAP1 PUSH1 0x1 PUSH1 0x1 PUSH1 0xA0 SHL SUB PUSH2 0x1C60 PUSH2 0x29AD JUMP JUMPDEST AND DUP2 MSTORE PUSH1 0xB DUP4 MSTORE KECCAK256 SLOAD PUSH1 0x40 MLOAD SWAP1 DUP2 MSTORE RETURN JUMPDEST POP CALLVALUE PUSH2 0x371 JUMPI PUSH1 0x20 DUP1 PUSH1 0x3 NOT CALLDATASIZE ADD SLT PUSH2 0x8AF JUMPI PUSH2 0x1C8F PUSH2 0xCA4 PUSH2 0x29AD JUMP JUMPDEST SWAP1 DUP2 DUP4 MSTORE PUSH1 0x3 DUP2 MSTORE PUSH1 0x40 DUP4 KECCAK256 PUSH1 0x1 DUP1 PUSH1 0xA0 SHL SUB PUSH2 0x1CB0 CALLER DUP3 DUP5 SLOAD AND EQ PUSH2 0x2CD4 JUMP JUMPDEST PUSH1 0x6 DUP3 ADD DUP1 SLOAD SWAP3 PUSH1 0xFF DUP5 AND PUSH1 0x3 DUP2 LT ISZERO PUSH2 0x1E7B JUMPI PUSH1 0x2 EQ PUSH2 0x1E41 JUMPI PUSH1 0x3 DUP2 ADD SLOAD PUSH2 0x1DFC JUMPI PUSH1 0x2 SWAP1 DUP2 ADD DUP1 SLOAD SWAP1 DUP9 SWAP1 SSTORE PUSH1 0xFF NOT SWAP5 SWAP1 SWAP5 AND OR SWAP1 SSTORE PUSH1 0x40 MLOAD PUSH4 0xA9059CBB PUSH1 0xE0 SHL DUP2 MSTORE CALLER PUSH1 0x4 DUP3 ADD MSTORE PUSH1 0x24 DUP2 ADD DUP4 SWAP1 MSTORE SWAP1 DUP4 SWAP1 DUP3 SWAP1 PUSH1 0x44 SWAP1 DUP3 SWAP1 DUP10 SWAP1 PUSH32 0x0 AND GAS CALL SWAP1 DUP2 ISZERO PUSH2 0x1DF1 JUMPI DUP6 SWAP2 PUSH2 0x1DD4 JUMPI JUMPDEST POP ISZERO PUSH2 0x1D99 JUMPI DUP3 SWAP2 PUSH32 0x1DE10DC7ADF633383767E576A9953D1B3C4F31A05C1635D7656D25604ACA6B1F SWAP2 PUSH1 0x40 MLOAD SWAP1 DUP2 MSTORE LOG2 PUSH32 0xD06EF1BE920EAF099A4E446EC48846ABAE39F5EB6B0877FEA0913A68731AF551 DUP3 DUP1 LOG2 DUP1 RETURN JUMPDEST PUSH1 0x40 MLOAD PUSH3 0x461BCD PUSH1 0xE5 SHL DUP2 MSTORE PUSH1 0x4 DUP2 ADD DUP4 SWAP1 MSTORE PUSH1 0x13 PUSH1 0x24 DUP3 ADD MSTORE PUSH19 0x15934E881DDA5D1A191C985DC819985A5B1959 PUSH1 0x6A SHL PUSH1 0x44 DUP3 ADD MSTORE PUSH1 0x64 SWAP1 REVERT JUMPDEST PUSH2 0x1DEB SWAP2 POP DUP4 RETURNDATASIZE DUP6 GT PUSH2 0x194A JUMPI PUSH2 0x193C DUP2 DUP4 PUSH2 0x2B91 JUMP JUMPDEST CODESIZE PUSH2 0x1D41 JUMP JUMPDEST PUSH1 0x40 MLOAD RETURNDATASIZE DUP8 DUP3 RETURNDATACOPY RETURNDATASIZE SWAP1 REVERT JUMPDEST PUSH1 0x40 MLOAD PUSH3 0x461BCD PUSH1 0xE5 SHL DUP2 MSTORE PUSH1 0x4 DUP2 ADD DUP7 SWAP1 MSTORE PUSH1 0x1E PUSH1 0x24 DUP3 ADD MSTORE PUSH32 0x564D3A20636C6F7365206F70656E20706F736974696F6E732066697273740000 PUSH1 0x44 DUP3 ADD MSTORE PUSH1 0x64 SWAP1 REVERT JUMPDEST PUSH1 0x40 MLOAD PUSH3 0x461BCD PUSH1 0xE5 SHL DUP2 MSTORE PUSH1 0x4 DUP2 ADD DUP7 SWAP1 MSTORE PUSH1 0x12 PUSH1 0x24 DUP3 ADD MSTORE PUSH18 0x15934E88185B1C9958591E4818DB1BDCD959 PUSH1 0x72 SHL PUSH1 0x44 DUP3 ADD MSTORE PUSH1 0x64 SWAP1 REVERT JUMPDEST PUSH4 0x4E487B71 PUSH1 0xE0 SHL DUP9 MSTORE PUSH1 0x21 PUSH1 0x4 MSTORE PUSH1 0x24 DUP9 REVERT JUMPDEST POP CALLVALUE PUSH2 0x371 JUMPI PUSH1 0x20 CALLDATASIZE PUSH1 0x3 NOT ADD SLT PUSH2 0x371 JUMPI PUSH1 0x4 CALLDATALOAD DUP2 MSTORE PUSH1 0x4 PUSH1 0x20 MSTORE PUSH1 0x40 DUP2 KECCAK256 PUSH1 0x1 DUP1 PUSH1 0xA0 SHL SUB DUP1 DUP3 SLOAD AND SWAP2 DUP2 PUSH1 0x1 DUP3 ADD SLOAD AND SWAP2 PUSH1 0x2 DUP3 ADD SLOAD SWAP1 PUSH1 0x3 DUP4 ADD SLOAD AND PUSH1 0x4 DUP4 ADD SLOAD PUSH1 0x5 DUP5 ADD SLOAD PUSH1 0x6 DUP6 ADD SLOAD SWAP2 PUSH1 0x7 DUP7 ADD SLOAD SWAP4 PUSH1 0xFF PUSH1 0x8 DUP9 ADD SLOAD AND SWAP6 PUSH1 0xA PUSH1 0x9 DUP10 ADD SLOAD SWAP9 ADD SLOAD SWAP9 PUSH1 0x40 MLOAD SWAP11 DUP12 MSTORE PUSH1 0x20 DUP12 ADD MSTORE PUSH1 0x40 DUP11 ADD MSTORE PUSH1 0x60 DUP10 ADD MSTORE PUSH1 0x80 DUP9 ADD MSTORE PUSH1 0xA0 DUP8 ADD MSTORE PUSH1 0xC0 DUP7 ADD MSTORE PUSH1 0xE0 DUP6 ADD MSTORE PUSH1 0x2 DUP2 LT ISZERO PUSH2 0x1F44 JUMPI PUSH2 0x160 SWAP5 POP PUSH2 0x100 DUP5 ADD MSTORE PUSH2 0x120 DUP4 ADD MSTORE PUSH2 0x140 DUP3 ADD MSTORE RETURN JUMPDEST PUSH4 0x4E487B71 PUSH1 0xE0 SHL DUP6 MSTORE PUSH1 0x21 PUSH1 0x4 MSTORE PUSH1 0x24 DUP6 REVERT JUMPDEST POP CALLVALUE PUSH2 0x371 JUMPI PUSH1 0x20 CALLDATASIZE PUSH1 0x3 NOT ADD SLT PUSH2 0x371 JUMPI PUSH2 0x1F75 PUSH2 0xCA4 PUSH2 0x29AD JUMP JUMPDEST DUP1 DUP3 MSTORE PUSH1 0x3 PUSH1 0x20 MSTORE PUSH1 0x40 DUP3 KECCAK256 SLOAD PUSH2 0x1F96 SWAP1 PUSH1 0x1 PUSH1 0x1 PUSH1 0xA0 SHL SUB AND CALLER EQ PUSH2 0x2CD4 JUMP JUMPDEST DUP1 DUP3 MSTORE PUSH1 0x3 PUSH1 0x20 MSTORE PUSH1 0xFF PUSH1 0x6 PUSH1 0x40 DUP5 KECCAK256 ADD SLOAD AND PUSH1 0x3 DUP2 LT ISZERO PUSH2 0xD62 JUMPI PUSH1 0x1 SUB PUSH2 0x1FF7 JUMPI DUP1 DUP3 MSTORE PUSH1 0x3 PUSH1 0x20 MSTORE PUSH1 0x40 DUP3 KECCAK256 PUSH1 0x6 ADD DUP1 SLOAD PUSH1 0xFF NOT AND SWAP1 SSTORE PUSH32 0xA7B437A7C0BE1EAAAD481743F822ACF86D00E9707A0C18A609F0E3AD97370BA8 DUP3 DUP1 LOG2 DUP1 RETURN JUMPDEST PUSH1 0x40 MLOAD PUSH3 0x461BCD PUSH1 0xE5 SHL DUP2 MSTORE PUSH1 0x20 PUSH1 0x4 DUP3 ADD MSTORE PUSH1 0xE PUSH1 0x24 DUP3 ADD MSTORE PUSH14 0x15934E881B9BDD081C185D5CD959 PUSH1 0x92 SHL PUSH1 0x44 DUP3 ADD MSTORE PUSH1 0x64 SWAP1 REVERT JUMPDEST POP PUSH1 0x40 CALLDATASIZE PUSH1 0x3 NOT ADD SLT PUSH2 0x371 JUMPI PUSH2 0x2042 PUSH2 0x29AD JUMP JUMPDEST PUSH2 0x2076 PUSH2 0x204D PUSH2 0x29C8 JUMP JUMPDEST SWAP2 DUP3 SWAP1 PUSH2 0x2071 CALLER PUSH1 0x1 PUSH1 0x1 PUSH1 0xA0 SHL SUB DUP1 DUP5 AND SWAP2 DUP3 EQ SWAP2 DUP3 ISZERO PUSH2 0x2499 JUMPI JUMPDEST POP POP PUSH2 0x4505 JUMP JUMPDEST PUSH2 0x47B4 JUMP JUMPDEST SWAP1 DUP2 DUP4 MSTORE PUSH1 0x20 PUSH1 0x3 DUP2 MSTORE PUSH1 0x40 DUP5 KECCAK256 PUSH1 0xFF PUSH1 0x6 DUP3 ADD SLOAD AND PUSH1 0x3 DUP2 LT ISZERO PUSH2 0x89B JUMPI PUSH2 0x245D JUMPI DUP4 DUP6 MSTORE PUSH1 0xA DUP3 MSTORE PUSH1 0x40 DUP6 KECCAK256 SLOAD DUP1 ISZERO SWAP1 DUP2 ISZERO PUSH2 0x2447 JUMPI JUMPDEST POP ISZERO PUSH2 0x2402 JUMPI PUSH2 0x20C2 PUSH3 0xF4240 SWAP2 PUSH2 0x485D JUMP JUMPDEST GT ISZERO PUSH2 0x23BE JUMPI DUP3 DUP5 MSTORE PUSH1 0xA DUP2 MSTORE PUSH1 0x40 DUP1 DUP6 KECCAK256 TIMESTAMP SWAP1 SSTORE MLOAD PUSH4 0xFFEB17D PUSH1 0xE1 SHL DUP2 MSTORE SWAP2 PUSH20 0x37BB9C718F3F7FE5ECBDB0B600D607B52706776 SWAP1 DUP3 DUP5 PUSH1 0x4 DUP2 DUP6 GAS STATICCALL SWAP4 DUP5 ISZERO PUSH2 0x12B7 JUMPI DUP7 SWAP5 PUSH2 0x238F JUMPI JUMPDEST POP PUSH8 0x13FBE85EDC90000 DUP5 ADD SWAP4 DUP5 DUP2 GT PUSH2 0x237B JUMPI PUSH8 0x2EA11E32AD50000 DUP2 ADD DUP1 SWAP2 GT PUSH2 0x237B JUMPI PUSH2 0x213F SWAP1 DUP6 PUSH2 0x2E3D JUMP JUMPDEST CALLVALUE LT PUSH2 0x231C JUMPI PUSH2 0x214F DUP4 SWAP2 PUSH2 0x48AF JUMP JUMPDEST SWAP2 PUSH1 0x40 MLOAD DUP8 SWAP4 PUSH1 0x1 DUP1 SLOAD SWAP1 PUSH2 0x2163 DUP3 PUSH2 0x2AEF JUMP JUMPDEST SWAP2 PUSH1 0x1 DUP2 AND SWAP1 DUP2 ISZERO PUSH2 0x2300 JUMPI POP PUSH1 0x1 EQ PUSH2 0x22BA JUMPI JUMPDEST POP POP PUSH1 0xC DUP3 DUP6 DUP8 PUSH2 0x2196 DUP6 PUSH2 0x2243 SWAP10 SWAP11 PUSH2 0x21B8 SWAP8 MLOAD SWAP5 DUP6 SWAP3 ADD PUSH2 0x2BB2 JUMP JUMPDEST ADD PUSH12 0x2F6C61746573742D7377617 PUSH1 0xA4 SHL DUP2 MSTORE SUB PUSH1 0x13 NOT DUP2 ADD DUP5 MSTORE ADD DUP3 PUSH2 0x2B91 JUMP JUMPDEST PUSH2 0x21FC PUSH1 0x40 PUSH2 0x21D2 DUP2 MLOAD SWAP4 DUP3 DUP9 DUP7 ADD MSTORE PUSH1 0x60 DUP6 ADD SWAP1 PUSH2 0x2BD5 JUMP JUMPDEST PUSH6 0x242E7377617 PUSH1 0xD4 SHL DUP8 DUP6 DUP4 SUB SWAP3 PUSH1 0x1F NOT DUP5 ADD DUP6 DUP9 ADD MSTORE PUSH1 0x6 DUP2 MSTORE ADD MSTORE DUP7 DUP2 ADD DUP5 MSTORE ADD DUP3 PUSH2 0x2B91 JUMP JUMPDEST PUSH1 0x40 MLOAD PUSH4 0x45DE5DF1 PUSH1 0xE1 SHL DUP2 MSTORE PUSH8 0xB6D47DA8DBBCB1B1 PUSH1 0x4 DUP3 ADD MSTORE ADDRESS PUSH1 0x24 DUP3 ADD MSTORE PUSH4 0x1F275413 PUSH1 0xE0 SHL PUSH1 0x44 DUP3 ADD MSTORE PUSH1 0x80 PUSH1 0x64 DUP3 ADD MSTORE SWAP6 DUP7 SWAP4 DUP5 SWAP3 DUP4 SWAP2 SWAP1 PUSH1 0x84 DUP4 ADD SWAP1 PUSH2 0x2BD5 JUMP JUMPDEST SUB SWAP3 GAS CALL SWAP2 DUP3 ISZERO PUSH2 0x11C0 JUMPI DUP5 SWAP3 PUSH2 0x228A JUMPI JUMPDEST POP PUSH1 0x8 SWAP1 DUP3 DUP6 MSTORE MSTORE DUP2 PUSH1 0x40 DUP5 KECCAK256 SSTORE PUSH32 0x7D0D4A45B610C689953AC3D1DF4E7739F7BA0E76107B191B9170D4EB27B90B4E DUP4 DUP1 LOG3 DUP1 RETURN JUMPDEST SWAP1 DUP1 SWAP3 POP DUP2 DUP2 RETURNDATASIZE DUP4 GT PUSH2 0x22B3 JUMPI JUMPDEST PUSH2 0x22A2 DUP2 DUP4 PUSH2 0x2B91 JUMP JUMPDEST DUP2 ADD SUB SLT PUSH2 0xB27 JUMPI MLOAD SWAP1 PUSH1 0x8 PUSH2 0x2255 JUMP JUMPDEST POP RETURNDATASIZE PUSH2 0x2298 JUMP JUMPDEST PUSH1 0x1 DUP12 MSTORE SWAP1 SWAP6 POP DUP10 SWAP1 PUSH1 0x0 DUP1 MLOAD PUSH1 0x20 PUSH2 0x4FC0 DUP4 CODECOPY DUP2 MLOAD SWAP2 MSTORE JUMPDEST DUP8 DUP4 LT PUSH2 0x22EB JUMPI POP POP POP SWAP4 DUP2 ADD DUP4 ADD SWAP4 PUSH1 0xC DUP3 PUSH2 0x2178 JUMP JUMPDEST DUP1 SLOAD DUP6 DUP5 ADD DUP9 ADD MSTORE DUP9 SWAP7 SWAP1 SWAP3 ADD SWAP2 DUP2 ADD PUSH2 0x22D3 JUMP JUMPDEST PUSH1 0xFF NOT AND DUP6 DUP9 ADD MSTORE POP POP DUP1 ISZERO ISZERO MUL DUP3 ADD DUP5 ADD SWAP5 POP PUSH1 0xC DUP3 PUSH2 0x2178 JUMP JUMPDEST PUSH1 0x40 MLOAD PUSH3 0x461BCD PUSH1 0xE5 SHL DUP2 MSTORE PUSH1 0x4 DUP2 ADD DUP5 SWAP1 MSTORE PUSH1 0x31 PUSH1 0x24 DUP3 ADD MSTORE PUSH32 0x564D3A20696E73756666696369656E74206465706F73697420286E656564203E PUSH1 0x44 DUP3 ADD MSTORE PUSH17 0x3D206A736F6E4665652B6C6C6D46656529 PUSH1 0x78 SHL PUSH1 0x64 DUP3 ADD MSTORE PUSH1 0x84 SWAP1 REVERT JUMPDEST PUSH4 0x4E487B71 PUSH1 0xE0 SHL DUP8 MSTORE PUSH1 0x11 PUSH1 0x4 MSTORE PUSH1 0x24 DUP8 REVERT JUMPDEST SWAP1 SWAP4 POP DUP3 DUP2 DUP2 RETURNDATASIZE DUP4 GT PUSH2 0x23B7 JUMPI JUMPDEST PUSH2 0x23A7 DUP2 DUP4 PUSH2 0x2B91 JUMP JUMPDEST DUP2 ADD SUB SLT PUSH2 0x12AC JUMPI MLOAD SWAP3 CODESIZE PUSH2 0x210F JUMP JUMPDEST POP RETURNDATASIZE PUSH2 0x239D JUMP JUMPDEST PUSH1 0x64 SWAP1 PUSH1 0x40 MLOAD SWAP1 PUSH3 0x461BCD PUSH1 0xE5 SHL DUP3 MSTORE PUSH1 0x4 DUP3 ADD MSTORE PUSH1 0x1D PUSH1 0x24 DUP3 ADD MSTORE PUSH32 0x564D3A20696E73756666696369656E7420667265652062616C616E6365000000 PUSH1 0x44 DUP3 ADD MSTORE REVERT JUMPDEST PUSH1 0x40 MLOAD PUSH3 0x461BCD PUSH1 0xE5 SHL DUP2 MSTORE PUSH1 0x4 DUP2 ADD DUP4 SWAP1 MSTORE PUSH1 0x1C PUSH1 0x24 DUP3 ADD MSTORE PUSH32 0x564D3A20706970656C696E6520616C72656164792072756E6E696E6700000000 PUSH1 0x44 DUP3 ADD MSTORE PUSH1 0x64 SWAP1 REVERT JUMPDEST SWAP1 POP PUSH2 0x258 DUP2 ADD DUP1 SWAP2 GT PUSH2 0xA0E JUMPI TIMESTAMP GT CODESIZE PUSH2 0x20AF JUMP JUMPDEST PUSH1 0x40 MLOAD PUSH3 0x461BCD PUSH1 0xE5 SHL DUP2 MSTORE PUSH1 0x4 DUP2 ADD DUP4 SWAP1 MSTORE PUSH1 0x14 PUSH1 0x24 DUP3 ADD MSTORE PUSH20 0x564D3A207661756C74206E6F7420616374697665 PUSH1 0x60 SHL PUSH1 0x44 DUP3 ADD MSTORE PUSH1 0x64 SWAP1 REVERT JUMPDEST SWAP1 SWAP2 POP DUP8 MSTORE PUSH1 0x7 PUSH1 0x20 MSTORE PUSH1 0x40 DUP8 KECCAK256 SLOAD AND CALLER EQ CODESIZE DUP1 PUSH2 0x206A JUMP JUMPDEST POP CALLVALUE PUSH2 0x371 JUMPI PUSH1 0x40 CALLDATASIZE PUSH1 0x3 NOT ADD SLT PUSH2 0x371 JUMPI PUSH2 0x24CC PUSH2 0x29AD JUMP JUMPDEST PUSH2 0x24D9 PUSH1 0x24 CALLDATALOAD SWAP2 CALLER PUSH2 0x47B4 JUMP JUMPDEST SWAP1 DUP2 DUP4 MSTORE PUSH1 0x20 PUSH1 0x3 DUP2 MSTORE PUSH1 0xFF PUSH1 0x6 PUSH1 0x40 DUP7 KECCAK256 ADD SLOAD AND PUSH1 0x3 DUP2 LT ISZERO PUSH2 0x1F44 JUMPI PUSH1 0x2 EQ PUSH2 0x2602 JUMPI DUP2 ISZERO PUSH2 0x25CC JUMPI PUSH1 0x40 MLOAD PUSH4 0x23B872DD PUSH1 0xE0 SHL DUP2 MSTORE CALLER PUSH1 0x4 DUP3 ADD MSTORE ADDRESS PUSH1 0x24 DUP3 ADD MSTORE PUSH1 0x44 DUP2 ADD DUP4 SWAP1 MSTORE SWAP2 DUP2 DUP4 PUSH1 0x64 DUP2 DUP9 PUSH1 0x1 PUSH1 0x1 PUSH1 0xA0 SHL SUB PUSH32 0x0 AND GAS CALL SWAP3 DUP4 ISZERO PUSH2 0x1DF1 JUMPI PUSH32 0xF4D5F4313DB9D90750B55863740862117F1A26005F470DF515D532580BE167B2 SWAP4 PUSH2 0x2590 SWAP2 DUP8 SWAP2 PUSH2 0x25B5 JUMPI POP PUSH2 0x44C4 JUMP JUMPDEST DUP4 DUP6 MSTORE PUSH1 0x3 DUP3 MSTORE PUSH1 0x2 PUSH1 0x40 DUP7 KECCAK256 ADD PUSH2 0x25A9 DUP3 DUP3 SLOAD PUSH2 0x2E3D JUMP JUMPDEST SWAP1 SSTORE PUSH1 0x40 MLOAD SWAP1 DUP2 MSTORE LOG2 DUP1 RETURN JUMPDEST PUSH2 0x1944 SWAP2 POP DUP5 RETURNDATASIZE DUP7 GT PUSH2 0x194A JUMPI PUSH2 0x193C DUP2 DUP4 PUSH2 0x2B91 JUMP JUMPDEST PUSH1 0x64 SWAP1 PUSH1 0x40 MLOAD SWAP1 PUSH3 0x461BCD PUSH1 0xE5 SHL DUP3 MSTORE PUSH1 0x4 DUP3 ADD MSTORE PUSH1 0xF PUSH1 0x24 DUP3 ADD MSTORE PUSH15 0x15934E881E995C9BC8185B5BDD5B9D PUSH1 0x8A SHL PUSH1 0x44 DUP3 ADD MSTORE REVERT JUMPDEST PUSH1 0x64 SWAP1 PUSH1 0x40 MLOAD SWAP1 PUSH3 0x461BCD PUSH1 0xE5 SHL DUP3 MSTORE PUSH1 0x4 DUP3 ADD MSTORE PUSH1 0x10 PUSH1 0x24 DUP3 ADD MSTORE PUSH16 0x15934E881D985D5B1D0818DB1BDCD959 PUSH1 0x82 SHL PUSH1 0x44 DUP3 ADD MSTORE REVERT JUMPDEST POP CALLVALUE PUSH2 0x371 JUMPI PUSH1 0x20 CALLDATASIZE PUSH1 0x3 NOT ADD SLT PUSH2 0x371 JUMPI PUSH1 0x20 SWAP1 PUSH1 0x1 PUSH1 0x1 PUSH1 0xA0 SHL SUB SWAP1 PUSH1 0x40 SWAP1 DUP3 PUSH2 0x2663 PUSH2 0x29AD JUMP JUMPDEST AND DUP2 MSTORE PUSH1 0x7 DUP5 MSTORE KECCAK256 SLOAD AND PUSH1 0x40 MLOAD SWAP1 DUP2 MSTORE RETURN JUMPDEST POP CALLVALUE PUSH2 0x371 JUMPI DUP1 PUSH1 0x3 NOT CALLDATASIZE ADD SLT PUSH2 0x371 JUMPI PUSH1 0x40 MLOAD PUSH32 0x0 PUSH1 0x1 PUSH1 0x1 PUSH1 0xA0 SHL SUB AND DUP2 MSTORE PUSH1 0x20 SWAP1 RETURN JUMPDEST POP CALLVALUE PUSH2 0x371 JUMPI DUP1 PUSH1 0x3 NOT CALLDATASIZE ADD SLT PUSH2 0x371 JUMPI PUSH1 0x20 PUSH1 0x40 MLOAD PUSH8 0xB24AC1AFBCEFC708 DUP2 MSTORE RETURN JUMPDEST POP CALLVALUE PUSH2 0x371 JUMPI DUP1 PUSH1 0x3 NOT CALLDATASIZE ADD SLT PUSH2 0x371 JUMPI PUSH1 0x40 MLOAD SWAP1 DUP1 DUP3 PUSH1 0x1 SWAP3 PUSH1 0x1 SLOAD SWAP4 PUSH2 0x2704 DUP6 PUSH2 0x2AEF JUMP JUMPDEST SWAP4 DUP5 DUP5 MSTORE PUSH1 0x20 SWAP6 DUP7 PUSH1 0x1 DUP3 AND SWAP2 DUP3 PUSH1 0x0 EQ PUSH2 0xFD8 JUMPI POP POP PUSH1 0x1 EQ PUSH2 0x2730 JUMPI POP POP PUSH2 0xF7C SWAP3 POP SUB DUP4 PUSH2 0x2B91 JUMP JUMPDEST SWAP1 DUP6 SWAP3 POP PUSH1 0x1 DUP3 MSTORE PUSH1 0x0 DUP1 MLOAD PUSH1 0x20 PUSH2 0x4FC0 DUP4 CODECOPY DUP2 MLOAD SWAP2 MSTORE JUMPDEST DUP6 DUP4 LT PUSH2 0x2760 JUMPI POP POP PUSH2 0xF7C SWAP4 POP DUP3 ADD ADD CODESIZE DUP1 PUSH2 0xF6E JUMP JUMPDEST DUP1 SLOAD DUP4 DUP10 ADD DUP6 ADD MSTORE DUP8 SWAP5 POP DUP7 SWAP4 SWAP1 SWAP3 ADD SWAP2 DUP2 ADD PUSH2 0x2748 JUMP JUMPDEST POP CALLVALUE PUSH2 0x371 JUMPI PUSH1 0x40 CALLDATASIZE PUSH1 0x3 NOT ADD SLT PUSH2 0x371 JUMPI PUSH2 0x2792 PUSH2 0x29AD JUMP JUMPDEST PUSH1 0x1 PUSH1 0x1 PUSH1 0xA0 SHL SUB AND DUP2 MSTORE PUSH1 0x5 PUSH1 0x20 MSTORE PUSH1 0x40 DUP2 KECCAK256 DUP1 SLOAD PUSH1 0x24 CALLDATALOAD SWAP3 SWAP1 DUP4 LT ISZERO PUSH2 0x371 JUMPI PUSH1 0x20 PUSH2 0xC79 DUP5 DUP5 PUSH2 0x2AC1 JUMP JUMPDEST POP CALLVALUE PUSH2 0x371 JUMPI PUSH2 0x1B95 PUSH2 0x27D2 CALLDATASIZE PUSH2 0x2A92 JUMP JUMPDEST SWAP2 PUSH2 0x27F2 PUSH20 0x37BB9C718F3F7FE5ECBDB0B600D607B52706776 CALLER EQ PUSH2 0x2D85 JUMP JUMPDEST PUSH2 0x2E4A JUMP JUMPDEST POP CALLVALUE PUSH2 0x371 JUMPI PUSH2 0x2819 SWAP1 PUSH2 0x280A CALLDATASIZE PUSH2 0x2A22 JUMP JUMPDEST SWAP2 PUSH2 0xCA4 DUP4 SWAP6 SWAP3 SWAP6 ISZERO ISZERO PUSH2 0x2C96 JUMP JUMPDEST SWAP1 DUP2 DUP4 MSTORE PUSH1 0x20 SWAP4 PUSH1 0x3 PUSH1 0x20 MSTORE PUSH1 0x1 DUP1 PUSH1 0xA0 SHL SUB PUSH2 0x283D CALLER DUP3 PUSH1 0x40 DUP9 KECCAK256 SLOAD AND EQ PUSH2 0x2CD4 JUMP JUMPDEST DUP4 DUP6 MSTORE PUSH1 0x3 PUSH1 0x20 MSTORE PUSH1 0x40 DUP6 KECCAK256 PUSH1 0x5 ADD SWAP6 DUP6 JUMPDEST DUP5 DUP2 LT PUSH2 0x288B JUMPI POP POP POP SWAP1 PUSH32 0x6DAA1FF9696B2F02619A3F88B4B180EF2A65D070354484A2689F745BD640B764 SWAP2 PUSH2 0x14E8 PUSH1 0x40 MLOAD SWAP3 DUP4 SWAP3 DUP4 PUSH2 0x2D39 JUMP JUMPDEST DUP3 PUSH2 0x289A PUSH2 0x155B DUP4 DUP9 DUP9 PUSH2 0x2D15 JUMP JUMPDEST AND ISZERO PUSH2 0x2930 JUMPI PUSH2 0x28B7 PUSH2 0x28B1 PUSH2 0x155B DUP4 DUP9 DUP9 PUSH2 0x2D15 JUMP JUMPDEST DUP10 PUSH2 0x4812 JUMP JUMPDEST ISZERO PUSH2 0x28C5 JUMPI JUMPDEST PUSH1 0x1 ADD PUSH2 0x284F JUMP JUMPDEST PUSH2 0x28D3 PUSH2 0x155B DUP3 DUP8 DUP8 PUSH2 0x2D15 JUMP JUMPDEST DUP9 SLOAD PUSH1 0x1 PUSH1 0x40 SHL DUP2 LT ISZERO PUSH2 0x291C JUMPI PUSH1 0x1 SWAP3 SWAP2 PUSH2 0x28F7 DUP3 DUP6 PUSH2 0x2915 SWAP5 ADD DUP14 SSTORE DUP13 PUSH2 0x2AC1 JUMP JUMPDEST SWAP1 SWAP2 SWAP1 PUSH1 0x1 DUP1 PUSH1 0xA0 SHL SUB DUP1 DUP5 SLOAD SWAP3 PUSH1 0x3 SHL SWAP4 AND DUP4 SHL SWAP3 SHL NOT AND OR SWAP1 SSTORE JUMP JUMPDEST SWAP1 POP PUSH2 0x28BD JUMP JUMPDEST PUSH4 0x4E487B71 PUSH1 0xE0 SHL DUP10 MSTORE PUSH1 0x41 PUSH1 0x4 MSTORE PUSH1 0x24 DUP10 REVERT JUMPDEST PUSH1 0x40 MLOAD PUSH3 0x461BCD PUSH1 0xE5 SHL DUP2 MSTORE PUSH1 0x4 DUP2 ADD DUP4 SWAP1 MSTORE PUSH1 0x16 PUSH1 0x24 DUP3 ADD MSTORE PUSH22 0x564D3A207A65726F20746F6B656E2061646472657373 PUSH1 0x50 SHL PUSH1 0x44 DUP3 ADD MSTORE PUSH1 0x64 SWAP1 REVERT JUMPDEST POP CALLVALUE PUSH2 0x371 JUMPI DUP1 PUSH1 0x3 NOT CALLDATASIZE ADD SLT PUSH2 0x371 JUMPI PUSH1 0x20 PUSH1 0x40 MLOAD PUSH2 0x258 DUP2 MSTORE RETURN JUMPDEST SWAP1 POP CALLVALUE PUSH2 0x8AF JUMPI DUP2 PUSH1 0x3 NOT CALLDATASIZE ADD SLT PUSH2 0x8AF JUMPI DUP1 PUSH8 0xB6D47DA8DBBCB1B1 PUSH1 0x20 SWAP3 MSTORE RETURN JUMPDEST PUSH1 0x4 CALLDATALOAD SWAP1 PUSH1 0x1 PUSH1 0x1 PUSH1 0xA0 SHL SUB DUP3 AND DUP3 SUB PUSH2 0x29C3 JUMPI JUMP JUMPDEST PUSH1 0x0 DUP1 REVERT JUMPDEST PUSH1 0x24 CALLDATALOAD SWAP1 PUSH1 0x1 PUSH1 0x1 PUSH1 0xA0 SHL SUB DUP3 AND DUP3 SUB PUSH2 0x29C3 JUMPI JUMP JUMPDEST CALLDATALOAD SWAP1 PUSH1 0x1 PUSH1 0x1 PUSH1 0xA0 SHL SUB DUP3 AND DUP3 SUB PUSH2 0x29C3 JUMPI JUMP JUMPDEST SWAP2 DUP2 PUSH1 0x1F DUP5 ADD SLT ISZERO PUSH2 0x29C3 JUMPI DUP3 CALLDATALOAD SWAP2 PUSH1 0x1 PUSH1 0x1 PUSH1 0x40 SHL SUB DUP4 GT PUSH2 0x29C3 JUMPI PUSH1 0x20 DUP1 DUP6 ADD SWAP5 DUP5 PUSH1 0x5 SHL ADD ADD GT PUSH2 0x29C3 JUMPI JUMP JUMPDEST SWAP1 PUSH1 0x40 PUSH1 0x3 NOT DUP4 ADD SLT PUSH2 0x29C3 JUMPI PUSH1 0x4 CALLDATALOAD PUSH1 0x1 PUSH1 0x1 PUSH1 0xA0 SHL SUB DUP2 AND DUP2 SUB PUSH2 0x29C3 JUMPI SWAP2 PUSH1 0x24 CALLDATALOAD SWAP1 PUSH1 0x1 PUSH1 0x1 PUSH1 0x40 SHL SUB DUP3 GT PUSH2 0x29C3 JUMPI PUSH2 0x2A61 SWAP2 PUSH1 0x4 ADD PUSH2 0x29F2 JUMP JUMPDEST SWAP1 SWAP2 JUMP JUMPDEST SWAP2 DUP2 PUSH1 0x1F DUP5 ADD SLT ISZERO PUSH2 0x29C3 JUMPI DUP3 CALLDATALOAD SWAP2 PUSH1 0x1 PUSH1 0x1 PUSH1 0x40 SHL SUB DUP4 GT PUSH2 0x29C3 JUMPI PUSH1 0x20 DUP4 DUP2 DUP7 ADD SWAP6 ADD ADD GT PUSH2 0x29C3 JUMPI JUMP JUMPDEST SWAP1 PUSH1 0x40 PUSH1 0x3 NOT DUP4 ADD SLT PUSH2 0x29C3 JUMPI PUSH1 0x4 CALLDATALOAD SWAP2 PUSH1 0x24 CALLDATALOAD SWAP1 PUSH1 0x1 PUSH1 0x1 PUSH1 0x40 SHL SUB DUP3 GT PUSH2 0x29C3 JUMPI PUSH2 0x2A61 SWAP2 PUSH1 0x4 ADD PUSH2 0x2A65 JUMP JUMPDEST DUP1 SLOAD DUP3 LT ISZERO PUSH2 0x2AD9 JUMPI PUSH1 0x0 MSTORE PUSH1 0x20 PUSH1 0x0 KECCAK256 ADD SWAP1 PUSH1 0x0 SWAP1 JUMP JUMPDEST PUSH4 0x4E487B71 PUSH1 0xE0 SHL PUSH1 0x0 MSTORE PUSH1 0x32 PUSH1 0x4 MSTORE PUSH1 0x24 PUSH1 0x0 REVERT JUMPDEST SWAP1 PUSH1 0x1 DUP3 DUP2 SHR SWAP3 AND DUP1 ISZERO PUSH2 0x2B1F JUMPI JUMPDEST PUSH1 0x20 DUP4 LT EQ PUSH2 0x2B09 JUMPI JUMP JUMPDEST PUSH4 0x4E487B71 PUSH1 0xE0 SHL PUSH1 0x0 MSTORE PUSH1 0x22 PUSH1 0x4 MSTORE PUSH1 0x24 PUSH1 0x0 REVERT JUMPDEST SWAP2 PUSH1 0x7F AND SWAP2 PUSH2 0x2AFE JUMP JUMPDEST PUSH2 0x100 DUP2 ADD SWAP1 DUP2 LT PUSH1 0x1 PUSH1 0x1 PUSH1 0x40 SHL SUB DUP3 GT OR PUSH2 0x2B45 JUMPI PUSH1 0x40 MSTORE JUMP JUMPDEST PUSH4 0x4E487B71 PUSH1 0xE0 SHL PUSH1 0x0 MSTORE PUSH1 0x41 PUSH1 0x4 MSTORE PUSH1 0x24 PUSH1 0x0 REVERT JUMPDEST PUSH1 0x60 DUP2 ADD SWAP1 DUP2 LT PUSH1 0x1 PUSH1 0x1 PUSH1 0x40 SHL SUB DUP3 GT OR PUSH2 0x2B45 JUMPI PUSH1 0x40 MSTORE JUMP JUMPDEST PUSH1 0x40 DUP2 ADD SWAP1 DUP2 LT PUSH1 0x1 PUSH1 0x1 PUSH1 0x40 SHL SUB DUP3 GT OR PUSH2 0x2B45 JUMPI PUSH1 0x40 MSTORE JUMP JUMPDEST SWAP1 PUSH1 0x1F DUP1 NOT SWAP2 ADD AND DUP2 ADD SWAP1 DUP2 LT PUSH1 0x1 PUSH1 0x1 PUSH1 0x40 SHL SUB DUP3 GT OR PUSH2 0x2B45 JUMPI PUSH1 0x40 MSTORE JUMP JUMPDEST PUSH1 0x0 JUMPDEST DUP4 DUP2 LT PUSH2 0x2BC5 JUMPI POP POP PUSH1 0x0 SWAP2 ADD MSTORE JUMP JUMPDEST DUP2 DUP2 ADD MLOAD DUP4 DUP3 ADD MSTORE PUSH1 0x20 ADD PUSH2 0x2BB5 JUMP JUMPDEST SWAP1 PUSH1 0x20 SWAP2 PUSH2 0x2BEE DUP2 MLOAD DUP1 SWAP3 DUP2 DUP6 MSTORE DUP6 DUP1 DUP7 ADD SWAP2 ADD PUSH2 0x2BB2 JUMP JUMPDEST PUSH1 0x1F ADD PUSH1 0x1F NOT AND ADD ADD SWAP1 JUMP JUMPDEST PUSH1 0x20 SWAP1 PUSH1 0x20 PUSH1 0x40 DUP2 DUP4 ADD SWAP3 DUP3 DUP2 MSTORE DUP6 MLOAD DUP1 SWAP5 MSTORE ADD SWAP4 ADD SWAP2 PUSH1 0x0 JUMPDEST DUP3 DUP2 LT PUSH2 0x2C22 JUMPI POP POP POP POP SWAP1 JUMP JUMPDEST DUP4 MLOAD DUP6 MSTORE SWAP4 DUP2 ADD SWAP4 SWAP3 DUP2 ADD SWAP3 PUSH1 0x1 ADD PUSH2 0x2C14 JUMP JUMPDEST SWAP1 DUP2 MLOAD DUP1 DUP3 MSTORE PUSH1 0x20 DUP1 DUP1 SWAP4 ADD SWAP4 ADD SWAP2 PUSH1 0x0 JUMPDEST DUP3 DUP2 LT PUSH2 0x2C56 JUMPI POP POP POP POP SWAP1 JUMP JUMPDEST DUP4 MLOAD PUSH1 0x1 PUSH1 0x1 PUSH1 0xA0 SHL SUB AND DUP6 MSTORE SWAP4 DUP2 ADD SWAP4 SWAP3 DUP2 ADD SWAP3 PUSH1 0x1 ADD PUSH2 0x2C48 JUMP JUMPDEST SWAP1 PUSH1 0x3 DUP3 LT ISZERO PUSH2 0x2C80 JUMPI MSTORE JUMP JUMPDEST PUSH4 0x4E487B71 PUSH1 0xE0 SHL PUSH1 0x0 MSTORE PUSH1 0x21 PUSH1 0x4 MSTORE PUSH1 0x24 PUSH1 0x0 REVERT JUMPDEST ISZERO PUSH2 0x2C9D JUMPI JUMP JUMPDEST PUSH1 0x40 MLOAD PUSH3 0x461BCD PUSH1 0xE5 SHL DUP2 MSTORE PUSH1 0x20 PUSH1 0x4 DUP3 ADD MSTORE PUSH1 0xF PUSH1 0x24 DUP3 ADD MSTORE PUSH15 0x564D3A20656D707479206172726179 PUSH1 0x88 SHL PUSH1 0x44 DUP3 ADD MSTORE PUSH1 0x64 SWAP1 REVERT JUMPDEST ISZERO PUSH2 0x2CDB JUMPI JUMP JUMPDEST PUSH1 0x40 MLOAD PUSH3 0x461BCD PUSH1 0xE5 SHL DUP2 MSTORE PUSH1 0x20 PUSH1 0x4 DUP3 ADD MSTORE PUSH1 0x12 PUSH1 0x24 DUP3 ADD MSTORE PUSH18 0x15934E881B9BDD081E5BDD5C881D985D5B1D PUSH1 0x72 SHL PUSH1 0x44 DUP3 ADD MSTORE PUSH1 0x64 SWAP1 REVERT JUMPDEST SWAP2 SWAP1 DUP2 LT ISZERO PUSH2 0x2AD9 JUMPI PUSH1 0x5 SHL ADD SWAP1 JUMP JUMPDEST CALLDATALOAD PUSH1 0x1 PUSH1 0x1 PUSH1 0xA0 SHL SUB DUP2 AND DUP2 SUB PUSH2 0x29C3 JUMPI SWAP1 JUMP JUMPDEST SWAP1 SWAP2 PUSH1 0x40 PUSH1 0x20 SWAP3 DUP3 PUSH1 0x20 DUP3 ADD PUSH1 0x20 DUP4 MSTORE MSTORE ADD SWAP3 SWAP2 PUSH1 0x0 JUMPDEST DUP3 DUP2 LT PUSH2 0x2D5E JUMPI POP POP POP POP SWAP1 JUMP JUMPDEST SWAP1 SWAP2 SWAP3 SWAP4 DUP3 DUP1 PUSH1 0x1 SWAP3 DUP4 DUP1 PUSH1 0xA0 SHL SUB PUSH2 0x2D76 DUP10 PUSH2 0x29DE JUMP JUMPDEST AND DUP2 MSTORE ADD SWAP6 ADD SWAP4 SWAP3 SWAP2 ADD PUSH2 0x2D50 JUMP JUMPDEST ISZERO PUSH2 0x2D8C JUMPI JUMP JUMPDEST PUSH1 0x64 PUSH1 0x40 MLOAD PUSH3 0x461BCD PUSH1 0xE5 SHL DUP2 MSTORE PUSH1 0x20 PUSH1 0x4 DUP3 ADD MSTORE PUSH1 0x20 PUSH1 0x24 DUP3 ADD MSTORE PUSH32 0x564D3A2063616C6C6572206973206E6F74206167656E7420706C6174666F726D PUSH1 0x44 DUP3 ADD MSTORE REVERT JUMPDEST SWAP2 SWAP1 DUP3 SUB SWAP2 DUP3 GT PUSH2 0x2DDD JUMPI JUMP JUMPDEST PUSH4 0x4E487B71 PUSH1 0xE0 SHL PUSH1 0x0 MSTORE PUSH1 0x11 PUSH1 0x4 MSTORE PUSH1 0x24 PUSH1 0x0 REVERT JUMPDEST DUP2 DUP2 LT PUSH2 0x2DFE JUMPI POP POP JUMP JUMPDEST PUSH1 0x0 DUP2 SSTORE PUSH1 0x1 ADD PUSH2 0x2DF3 JUMP JUMPDEST DUP2 DUP2 MUL SWAP3 SWAP2 DUP2 ISZERO SWAP2 DUP5 DIV EQ OR ISZERO PUSH2 0x2DDD JUMPI JUMP JUMPDEST DUP2 ISZERO PUSH2 0x2E27 JUMPI DIV SWAP1 JUMP JUMPDEST PUSH4 0x4E487B71 PUSH1 0xE0 SHL PUSH1 0x0 MSTORE PUSH1 0x12 PUSH1 0x4 MSTORE PUSH1 0x24 PUSH1 0x0 REVERT JUMPDEST SWAP2 SWAP1 DUP3 ADD DUP1 SWAP3 GT PUSH2 0x2DDD JUMPI JUMP JUMPDEST SWAP2 DUP3 PUSH1 0x0 MSTORE PUSH1 0x8 PUSH1 0x20 MSTORE PUSH1 0x40 PUSH1 0x0 KECCAK256 SLOAD SWAP3 DUP4 ISZERO PUSH2 0x4467 JUMPI DUP1 PUSH1 0x0 MSTORE PUSH1 0x8 PUSH1 0x20 MSTORE PUSH1 0x0 PUSH1 0x40 DUP2 KECCAK256 SSTORE DUP4 PUSH1 0x0 MSTORE PUSH1 0x3 PUSH1 0x20 MSTORE PUSH1 0x40 PUSH1 0x0 KECCAK256 SWAP1 PUSH1 0xA0 DUP5 DUP5 DUP2 ADD SUB SLT PUSH2 0x29C3 JUMPI DUP5 PUSH2 0x2E96 DUP6 PUSH2 0x29DE JUMP JUMPDEST SWAP2 PUSH32 0x71ED9D4E5866FCA58BDB5ED3D76986653D0B7F7776D965590AAEA10FAC75CE52 PUSH1 0x80 PUSH2 0x2EC6 PUSH1 0x20 DUP10 ADD PUSH2 0x29DE JUMP JUMPDEST PUSH1 0x40 DUP1 MLOAD PUSH1 0x1 PUSH1 0x1 PUSH1 0xA0 SHL SUB SWAP8 DUP9 AND DUP2 MSTORE SWAP7 DUP3 AND PUSH1 0x20 DUP9 ADD MSTORE DUP10 DUP2 ADD CALLDATALOAD SWAP1 DUP8 ADD MSTORE DUP2 DUP10 ADD CALLDATALOAD PUSH1 0x60 DUP8 ADD MSTORE SWAP5 LOG3 PUSH2 0x12C PUSH2 0x2F03 PUSH1 0x80 DUP7 ADD CALLDATALOAD TIMESTAMP PUSH2 0x2DD0 JUMP JUMPDEST GT PUSH2 0x441D JUMPI PUSH2 0x2F1E PUSH1 0x1 PUSH1 0x1 PUSH1 0xA0 SHL SUB DUP3 AND PUSH1 0x5 DUP5 ADD PUSH2 0x4812 JUMP JUMPDEST ISZERO PUSH2 0x43C8 JUMPI PUSH2 0x2F2C DUP3 PUSH2 0x485D JUMP JUMPDEST SWAP3 PUSH3 0xF4240 DUP5 GT ISZERO PUSH2 0x436B JUMPI DUP6 PUSH1 0x0 MSTORE PUSH1 0x9 PUSH1 0x20 MSTORE PUSH1 0x40 PUSH1 0x0 KECCAK256 SWAP1 PUSH1 0x1 PUSH1 0x1 PUSH1 0x40 SHL SUB DUP2 GT PUSH2 0x2B45 JUMPI PUSH2 0x2F5F DUP3 SLOAD PUSH2 0x2AEF JUMP JUMPDEST PUSH1 0x1F DUP2 GT PUSH2 0x4339 JUMPI JUMPDEST POP PUSH1 0x0 PUSH1 0x1F DUP3 GT PUSH1 0x1 EQ PUSH2 0x42D2 JUMPI SWAP1 DUP1 PUSH2 0x2F98 SWAP3 PUSH1 0x0 SWAP2 PUSH2 0x42C7 JUMPI JUMPDEST POP DUP2 PUSH1 0x1 SHL SWAP2 PUSH1 0x0 NOT SWAP1 PUSH1 0x3 SHL SHR NOT AND OR SWAP1 JUMP JUMPDEST SWAP1 SSTORE JUMPDEST PUSH1 0x2 DUP3 ADD SLOAD SWAP4 PUSH1 0x4 DUP4 ADD SLOAD SWAP2 PUSH1 0x64 PUSH2 0x2FB9 PUSH1 0xFF DUP6 PUSH1 0x8 SHR AND DUP9 PUSH2 0x2E0A JUMP JUMPDEST DIV SWAP4 DUP6 DUP6 GT PUSH2 0x42BF JUMPI JUMPDEST PUSH1 0x1 ADD SLOAD PUSH1 0x1 PUSH1 0x1 PUSH1 0xA0 SHL SUB DUP3 DUP2 AND PUSH1 0x0 SWAP1 DUP2 MSTORE PUSH1 0xB PUSH1 0x20 MSTORE PUSH1 0x40 SWAP1 KECCAK256 SLOAD SWAP2 AND SWAP4 SWAP1 SWAP3 PUSH2 0x2FF4 PUSH1 0x80 DUP3 ADD CALLDATALOAD TIMESTAMP PUSH2 0x2DD0 JUMP JUMPDEST SWAP8 DUP1 ISZERO PUSH2 0x42B7 JUMPI DUP8 PUSH1 0x64 DUP2 MUL DIV PUSH1 0x64 EQ DUP9 ISZERO OR ISZERO PUSH2 0x2DDD JUMPI PUSH2 0x3019 DUP2 PUSH1 0x64 DUP11 MUL PUSH2 0x2E1D JUMP JUMPDEST SWAP4 JUMPDEST DUP2 ISZERO PUSH2 0x42AF JUMPI PUSH1 0x40 DUP4 ADD CALLDATALOAD PUSH1 0x64 DUP1 DUP3 MUL DUP3 SWAP1 DIV EQ SWAP1 ISZERO OR ISZERO PUSH2 0x2DDD JUMPI PUSH2 0x3048 DUP3 PUSH1 0x64 PUSH1 0x40 DUP7 ADD CALLDATALOAD MUL PUSH2 0x2E1D JUMP JUMPDEST SWAP6 JUMPDEST DUP10 ISZERO PUSH2 0x42A8 JUMPI PUSH1 0x40 DUP5 ADD CALLDATALOAD PUSH1 0x64 DUP1 DUP3 MUL DUP3 SWAP1 DIV EQ SWAP1 ISZERO OR ISZERO PUSH2 0x2DDD JUMPI PUSH2 0x3077 DUP11 PUSH1 0x64 PUSH1 0x40 DUP8 ADD CALLDATALOAD MUL PUSH2 0x2E1D JUMP JUMPDEST PUSH2 0x3085 PUSH3 0xF4240 DUP12 DIV PUSH2 0x4EC4 JUMP JUMPDEST SWAP8 PUSH2 0x3094 PUSH3 0x1E8480 DUP13 DIV PUSH2 0x4EC4 JUMP JUMPDEST PUSH1 0x40 DUP1 MLOAD PUSH32 0x596F75206172652061207269736B206D616E6167656D656E7420656E67696E65 PUSH1 0x20 DUP1 DUP4 ADD SWAP2 SWAP1 SWAP2 MSTORE PUSH32 0x20666F722041696F6E69732C206120636F70792D74726164696E6720706C6174 SWAP3 DUP3 ADD SWAP3 SWAP1 SWAP3 MSTORE PUSH16 0x3337B9369037B71029B7B6B734B09705 PUSH1 0x81 SHL PUSH1 0x60 DUP3 ADD MSTORE PUSH32 0x4576616C75617465207468652074726164652062656C6F7720616E6420646563 PUSH1 0x70 DUP3 ADD MSTORE PUSH32 0x69646520776861742070657263656E74616765206F662074686520666F6C6C6F PUSH1 0x90 DUP3 ADD MSTORE PUSH32 0x776572207661756C7420746F20616C6C6F636174652E0A0A0000000000000000 PUSH1 0xB0 DUP3 ADD MSTORE PUSH32 0x4F55545055543A20526573706F6E642077697468204F4E4C5920612073696E67 PUSH1 0xC8 DUP3 ADD MSTORE PUSH32 0x6C6520696E746567657220302D3130302E204E6F206578706C616E6174696F6E PUSH1 0xE8 DUP3 ADD MSTORE PUSH32 0x2E204E6F20746578742E204A75737420746865206E756D6265722E0A0A000000 PUSH2 0x108 DUP3 ADD MSTORE PUSH15 0x29A1A7A924A7239029A1A0A6229D05 PUSH1 0x89 SHL PUSH2 0x125 DUP3 ADD MSTORE PUSH32 0x20203020202020202020203D20736B6970207468697320747261646520656E74 PUSH2 0x134 DUP3 ADD MSTORE PUSH6 0x34B932B63C85 PUSH1 0xD1 SHL PUSH2 0x154 DUP3 ADD MSTORE PUSH32 0x2020312D333320202020203D206C6F7720636F6E666964656E6365202028736D PUSH2 0x15A DUP3 ADD MSTORE PUSH16 0x30B6361030B63637B1B0BA34B7B71485 PUSH1 0x81 SHL PUSH2 0x17A DUP3 ADD MSTORE PUSH32 0x202033342D3636202020203D206D656469756D20636F6E666964656E63652020 PUSH2 0x18A DUP3 ADD MSTORE PUSH22 0x1436B7B232B930BA329030B63637B1B0BA34B7B71485 PUSH1 0x51 SHL PUSH2 0x1AA DUP3 ADD MSTORE PUSH32 0x202036372D3939202020203D206869676820636F6E666964656E636520202873 PUSH2 0x1C0 DUP3 ADD MSTORE PUSH32 0x69676E69666963616E7420616C6C6F636174696F6E290A000000000000000000 PUSH2 0x1E0 DUP3 ADD MSTORE PUSH32 0x20203130302020202020203D206D6178696D756D20636F6E666964656E636520 PUSH2 0x1F7 DUP3 ADD MSTORE PUSH32 0x202866756C6C206D61782D7065722D747261646520616C6C6F636174696F6E29 PUSH2 0x217 DUP3 ADD MSTORE PUSH2 0x505 PUSH1 0xF1 SHL PUSH2 0x237 DUP3 ADD MSTORE PUSH20 0x20A62627A1A0AA24A7A7102327A926AAA6209D05 PUSH1 0x61 SHL PUSH2 0x239 DUP3 ADD MSTORE PUSH32 0x2020616C6C6F636174696F6E203D202873636F7265202F20313030292078206D PUSH2 0x24D DUP3 ADD MSTORE PUSH13 0x30BC2FB832B92FBA3930B23285 PUSH1 0x99 SHL PUSH2 0x26D DUP3 ADD MSTORE PUSH19 0x808105D081CD8DBDC994F4C4C0C080B4F8809 PUSH1 0x6A SHL PUSH2 0x27A DUP3 ADD MSTORE DUP12 MLOAD SWAP1 SWAP13 SWAP1 SWAP12 SWAP1 SWAP3 DUP14 SWAP3 SWAP1 SWAP2 PUSH2 0x28D SWAP2 PUSH2 0x3401 SWAP2 DUP16 SWAP2 DUP5 DUP8 ADD SWAP2 ADD PUSH2 0x2BB2 JUMP JUMPDEST PUSH11 0x1030B63637B1B0BA32B205 PUSH1 0xA9 SHL SWAP1 DUP14 DUP5 ADD ADD MSTORE DUP12 DUP3 ADD PUSH2 0x298 ADD PUSH19 0x808105D081CD8DBDC994F4D4C08080B4F8809 PUSH1 0x6A SHL SWAP1 MSTORE PUSH2 0x2AB SWAP12 DUP2 DUP14 SWAP3 MLOAD DUP1 SWAP4 DUP4 DUP7 ADD ADD SWAP2 PUSH1 0x20 ADD SWAP2 PUSH2 0x3452 SWAP3 PUSH2 0x2BB2 JUMP JUMPDEST DUP3 ADD ADD PUSH12 0x1030B63637B1B0BA32B20505 PUSH1 0xA1 SHL DUP13 DUP3 ADD MSTORE SUB PUSH2 0x297 DUP2 ADD DUP13 MSTORE PUSH2 0x2B7 ADD PUSH2 0x347F SWAP1 DUP13 PUSH2 0x2B91 JUMP JUMPDEST PUSH2 0x3488 SWAP1 PUSH2 0x48AF JUMP JUMPDEST SWAP4 PUSH2 0x349B SWAP1 PUSH1 0x1 PUSH1 0x1 PUSH1 0xA0 SHL SUB AND PUSH2 0x48AF JUMP JUMPDEST SWAP6 PUSH1 0x40 ADD CALLDATALOAD PUSH3 0xF4240 SWAP1 DIV PUSH2 0x34AF SWAP1 PUSH2 0x4EC4 JUMP JUMPDEST SWAP13 PUSH2 0x34B9 SWAP1 PUSH2 0x4EC4 JUMP JUMPDEST SWAP3 PUSH5 0x2540BE400 SWAP1 DIV PUSH2 0x34CB SWAP1 PUSH2 0x4EC4 JUMP JUMPDEST SWAP1 PUSH2 0x34D5 SWAP1 PUSH2 0x4EC4 JUMP JUMPDEST SWAP2 PUSH2 0x34DF SWAP1 PUSH2 0x4EC4 JUMP JUMPDEST SWAP3 PUSH1 0x40 MLOAD SWAP14 DUP15 SWAP6 PUSH14 0x169696902A2920A2229016969685 PUSH1 0x91 SHL PUSH1 0x20 DUP9 ADD MSTORE PUSH1 0x2E DUP8 ADD PUSH32 0x4C65616465722077616C6C65743A202020202020202020202020200000000000 SWAP1 MSTORE DUP1 MLOAD SWAP1 DUP2 PUSH1 0x49 DUP10 ADD SWAP2 PUSH1 0x20 ADD SWAP2 PUSH2 0x353A SWAP3 PUSH2 0x2BB2 JUMP JUMPDEST DUP7 ADD SWAP8 PUSH1 0x5 PUSH1 0xF9 SHL SWAP9 DUP10 PUSH1 0x49 DUP3 ADD MSTORE PUSH1 0x4A DUP2 ADD PUSH32 0x546F6B656E20626F756768743A20202020202020202020202020200000000000 SWAP1 MSTORE DUP2 MLOAD SWAP2 DUP3 PUSH1 0x65 DUP4 ADD SWAP2 PUSH1 0x20 ADD SWAP2 PUSH2 0x3586 SWAP3 PUSH2 0x2BB2 JUMP JUMPDEST ADD DUP9 PUSH1 0x65 DUP3 ADD MSTORE PUSH1 0x66 DUP2 ADD PUSH32 0x5472616465205553442076616C75653A20202020202020202020202400000000 SWAP1 MSTORE DUP2 MLOAD SWAP2 DUP3 PUSH1 0x82 DUP4 ADD SWAP2 PUSH1 0x20 ADD SWAP2 PUSH2 0x35CA SWAP3 PUSH2 0x2BB2 JUMP JUMPDEST ADD DUP8 PUSH1 0x82 DUP3 ADD MSTORE PUSH1 0x83 DUP2 ADD PUSH32 0x5472616465206167653A20202020202020202020202020202020200000000000 SWAP1 MSTORE DUP2 MLOAD SWAP2 DUP3 PUSH1 0x9E DUP4 ADD SWAP2 PUSH1 0x20 ADD SWAP2 PUSH2 0x360E SWAP3 PUSH2 0x2BB2 JUMP JUMPDEST ADD PUSH6 0x399030B3B785 PUSH1 0xD1 SHL PUSH1 0x9E DUP3 ADD MSTORE PUSH1 0xA4 DUP2 ADD PUSH32 0x43757272656E7420746F6B656E2070726963653A202020202020202400000000 SWAP1 MSTORE DUP2 MLOAD SWAP2 DUP3 PUSH1 0xC0 DUP4 ADD SWAP2 PUSH1 0x20 ADD SWAP2 PUSH2 0x365B SWAP3 PUSH2 0x2BB2 JUMP JUMPDEST ADD PUSH15 0x10143C18B29898103AB734BA399485 PUSH1 0x89 SHL PUSH1 0xC0 DUP3 ADD MSTORE PUSH1 0xCF DUP2 ADD PUSH32 0x54726164652073697A6520767320666F6C6C6F776572207661756C743A200000 SWAP1 MSTORE DUP2 MLOAD SWAP2 DUP3 PUSH1 0xED DUP4 ADD SWAP2 PUSH1 0x20 ADD SWAP2 PUSH2 0x36B1 SWAP3 PUSH2 0x2BB2 JUMP JUMPDEST ADD SWAP1 PUSH11 0x129037B3103B30BAB63A05 PUSH1 0xA9 SHL PUSH1 0xED DUP4 ADD MSTORE PUSH1 0xF8 DUP3 ADD PUSH32 0x54726164652073697A6520767320667265652062616C616E63653A2020200000 SWAP1 MSTORE PUSH2 0x116 SWAP2 DUP2 MLOAD SWAP2 DUP3 DUP5 DUP4 ADD SWAP2 PUSH1 0x20 ADD SWAP2 PUSH2 0x3707 SWAP3 PUSH2 0x2BB2 JUMP JUMPDEST ADD SWAP1 PUSH19 0x129037B310333932B29031B0B834BA30B60505 PUSH1 0x69 SHL SWAP1 DUP3 ADD MSTORE SUB PUSH2 0x109 DUP2 ADD DUP11 MSTORE PUSH2 0x129 ADD PUSH2 0x373A SWAP1 DUP11 PUSH2 0x2B91 JUMP JUMPDEST PUSH3 0xF4240 SWAP1 DIV PUSH2 0x3749 SWAP1 PUSH2 0x4EC4 JUMP JUMPDEST SWAP7 PUSH3 0xF4240 SWAP1 DIV PUSH2 0x3759 SWAP1 PUSH2 0x4EC4 JUMP JUMPDEST SWAP3 PUSH2 0x3763 SWAP1 PUSH2 0x4EC4 JUMP JUMPDEST SWAP6 PUSH3 0xF4240 SWAP1 DIV PUSH2 0x3773 SWAP1 PUSH2 0x4EC4 JUMP JUMPDEST SWAP2 PUSH1 0xFF AND PUSH2 0x3780 SWAP1 PUSH2 0x4EC4 JUMP JUMPDEST SWAP2 PUSH1 0x40 MLOAD SWAP7 DUP8 SWAP5 PUSH1 0x20 DUP7 ADD SWAP10 PUSH32 0x2D2D2D20464F4C4C4F574552205641554C54202D2D2D0A000000000000000000 DUP12 MSTORE PUSH1 0x37 DUP8 ADD PUSH19 0x15985D5B1D081D1BDD185B0E88080808080809 PUSH1 0x6A SHL SWAP1 MSTORE DUP1 MLOAD SWAP1 DUP2 PUSH1 0x4A DUP10 ADD SWAP2 PUSH1 0x20 ADD SWAP2 PUSH2 0x37E2 SWAP3 PUSH2 0x2BB2 JUMP JUMPDEST DUP7 ADD DUP5 PUSH1 0x4A DUP3 ADD MSTORE PUSH1 0x4B DUP2 ADD PUSH19 0x119C99594818985B185B98D94E880808080809 PUSH1 0x6A SHL SWAP1 MSTORE DUP2 MLOAD SWAP2 DUP3 PUSH1 0x5E DUP4 ADD SWAP2 PUSH1 0x20 ADD SWAP2 PUSH2 0x381D SWAP3 PUSH2 0x2BB2 JUMP JUMPDEST ADD PUSH1 0x5E DUP2 ADD PUSH2 0x405 PUSH1 0xF3 SHL SWAP1 MSTORE DUP2 MLOAD SWAP2 DUP3 PUSH1 0x60 DUP4 ADD SWAP2 PUSH1 0x20 ADD SWAP2 PUSH2 0x3840 SWAP3 PUSH2 0x2BB2 JUMP JUMPDEST ADD PUSH12 0x129037B3103B30BAB63A1485 PUSH1 0xA1 SHL PUSH1 0x60 DUP3 ADD MSTORE PUSH1 0x6C DUP2 ADD PUSH19 0x13585E081C195C881D1C9859194E8808080809 PUSH1 0x6A SHL SWAP1 MSTORE DUP2 MLOAD SWAP2 DUP3 PUSH1 0x7F DUP4 ADD SWAP2 PUSH1 0x20 ADD SWAP2 PUSH2 0x3889 SWAP3 PUSH2 0x2BB2 JUMP JUMPDEST ADD SWAP1 PUSH1 0x7F DUP3 ADD MSTORE PUSH1 0x80 DUP2 ADD PUSH18 0x2934B9B5903A37B632B930B731B29D10101 PUSH1 0x75 SHL SWAP1 MSTORE DUP2 MLOAD SWAP2 DUP3 PUSH1 0x92 DUP4 ADD SWAP2 PUSH1 0x20 ADD SWAP2 PUSH2 0x38C2 SWAP3 PUSH2 0x2BB2 JUMP JUMPDEST ADD PUSH5 0x1798980505 PUSH1 0xD9 SHL PUSH1 0x92 DUP3 ADD MSTORE SUB PUSH1 0x77 DUP2 ADD DUP5 MSTORE PUSH1 0x97 ADD PUSH2 0x38E5 SWAP1 DUP5 PUSH2 0x2B91 JUMP JUMPDEST PUSH1 0x40 DUP1 MLOAD PUSH32 0x2D2D2D2052554C455320286170706C79207374726963746C7920696E206F7264 PUSH1 0x20 DUP3 ADD SWAP1 DUP2 MSTORE PUSH8 0x32B9149016969685 PUSH1 0xC1 SHL SWAP3 DUP3 ADD SWAP3 SWAP1 SWAP3 MSTORE PUSH32 0x312E20496620667265652062616C616E6365203C202431202D3E207265747572 PUSH1 0x48 DUP3 ADD MSTORE PUSH5 0x3710181705 PUSH1 0xD9 SHL PUSH1 0x68 DUP3 ADD MSTORE PUSH32 0x322E20496620747261646520616765203E2031323073202D3E2072657475726E PUSH1 0x6D DUP3 ADD MSTORE PUSH19 0x1018101439BA30B6329039B4B3B730B6149705 PUSH1 0x69 SHL PUSH1 0x8D DUP3 ADD MSTORE PUSH32 0x332E204966207472616465205553442076616C7565203C202435202D3E207265 PUSH1 0xA0 DUP3 ADD MSTORE PUSH32 0x7475726E203020286E6F6973652074726164652C2069676E6F7265292E0A0000 PUSH1 0xC0 DUP3 ADD MSTORE PUSH32 0x342E20496620667265652062616C616E6365203C20243130202D3E2072657475 PUSH1 0xDE DUP3 ADD MSTORE PUSH32 0x726E203020287661756C74206E6561726C7920656D707479292E0A0A00000000 PUSH1 0xFE DUP3 ADD MSTORE PUSH20 0x2924A9A59029A1A7A9229021A2A4A624A7239D05 PUSH1 0x61 SHL PUSH2 0x11A DUP3 ADD MSTORE PUSH32 0x20205269736B20312D3220202D3E206D61782073636F72652032300A00000000 PUSH2 0x12E DUP3 ADD MSTORE PUSH32 0x20205269736B20332D3420202D3E206D61782073636F72652034300A00000000 PUSH2 0x14A DUP3 ADD MSTORE PUSH32 0x20205269736B20352D3620202D3E206D61782073636F72652036350A00000000 PUSH2 0x166 DUP3 ADD MSTORE PUSH32 0x20205269736B20372D3820202D3E206D61782073636F72652038350A00000000 PUSH2 0x182 DUP3 ADD MSTORE PUSH32 0x20205269736B20392D3130202D3E206D61782073636F7265203130300A0A0000 PUSH2 0x19E DUP3 ADD MSTORE PUSH32 0x465245452042414C414E43452050454E414C544945533A0A0000000000000000 PUSH2 0x1BC DUP3 ADD MSTORE PUSH32 0x2020467265652062616C616E6365203C20313025206F66207661756C74202020 PUSH2 0x1D4 DUP3 ADD MSTORE PUSH32 0x2020202020202D3E207265647563652073636F7265206279203330250A000000 PUSH2 0x1F4 DUP3 ADD MSTORE PUSH32 0x202054726164652073697A65203E20353025206F6620667265652062616C616E PUSH2 0x211 DUP3 ADD MSTORE PUSH32 0x6365202020202D3E207265647563652073636F72652062792032302520286C61 PUSH2 0x231 DUP3 ADD MSTORE PUSH32 0x7267652072656C6174697665206578706F73757265290A000000000000000000 PUSH2 0x251 DUP3 ADD MSTORE PUSH32 0x202054726164652073697A65203E2031303025206F6620667265652062616C61 PUSH2 0x268 DUP3 ADD MSTORE PUSH32 0x6E63652020202D3E2072657475726E2030202863616E6E6F74206166666F7264 PUSH2 0x288 DUP3 ADD MSTORE PUSH3 0x148505 PUSH1 0xE9 SHL PUSH2 0x2A8 DUP3 ADD MSTORE PUSH32 0x5349474E414C20535452454E47544820287573652074726164652073697A6520 SWAP3 DUP2 ADD SWAP3 SWAP1 SWAP3 MSTORE PUSH32 0x767320666F6C6C6F776572207661756C742C204E4F542072617720646F6C6C61 PUSH2 0x2CB DUP4 ADD MSTORE PUSH5 0x3939949D05 PUSH1 0xD9 SHL PUSH2 0x2EB DUP4 ADD MSTORE PUSH32 0x20205472616465203C203525206F6620666F6C6C6F776572207661756C742020 PUSH2 0x2F0 DUP4 ADD MSTORE PUSH32 0x2020202020202D3E207765616B207369676E616C2C206C65616E20636F6E7365 PUSH2 0x310 DUP4 ADD MSTORE PUSH8 0x393B30BA34BB3285 PUSH1 0xC1 SHL PUSH2 0x330 DUP4 ADD MSTORE PUSH32 0x2020547261646520352D323025206F6620666F6C6C6F776572207661756C7420 PUSH2 0x338 DUP4 ADD MSTORE PUSH32 0x2020202020202D3E206D6F646572617465207369676E616C0A00000000000000 PUSH2 0x358 DUP4 ADD MSTORE PUSH32 0x20205472616465203E20323025206F6620666F6C6C6F776572207661756C7420 PUSH2 0x371 DUP4 ADD MSTORE PUSH32 0x2020202020202D3E207374726F6E67207369676E616C2C206C65616465722069 PUSH2 0x391 DUP4 ADD MSTORE PUSH20 0x399036B0B5B4B7339030903134B39036B7BB3285 PUSH1 0x61 SHL PUSH2 0x3B1 DUP4 ADD MSTORE PUSH32 0x20205472616465203E20353025206F6620666F6C6C6F776572207661756C7420 PUSH2 0x3C5 DUP4 ADD MSTORE PUSH32 0x2020202020202D3E2076657279207374726F6E67207369676E616C0A0A000000 PUSH2 0x3E5 DUP4 ADD MSTORE PUSH17 0x232922A9A42722A9A9902127A72AA99D05 PUSH1 0x79 SHL PUSH2 0x402 DUP4 ADD MSTORE PUSH32 0x2020547261646520616765203C20313073202020202020202020202020202020 PUSH2 0x413 DUP4 ADD MSTORE PUSH32 0x2020202020202D3E2061646420757020746F20313020746F2066696E616C2073 PUSH2 0x433 DUP4 ADD MSTORE PUSH5 0x31B7B93285 PUSH1 0xD9 SHL PUSH2 0x453 DUP4 ADD MSTORE PUSH32 0x20205472616465206167652031302D3330732020202020202020202020202020 PUSH2 0x458 DUP4 ADD MSTORE PUSH32 0x2020202020202D3E206E6F2061646A7573746D656E740A000000000000000000 PUSH2 0x478 DUP4 ADD MSTORE PUSH32 0x20205472616465206167652033302D3132307320202020202020202020202020 PUSH2 0x48F DUP4 ADD MSTORE PUSH32 0x2020202020202D3E207265647563652073636F72652062792031300A0A000000 PUSH2 0x4AF DUP4 ADD MSTORE PUSH32 0x494D504F5254414E543A20446F204E4F54207472656174202431303030206173 PUSH2 0x4CC DUP4 ADD MSTORE PUSH32 0x20696E686572656E746C79207369676E69666963616E742E0A00000000000000 PUSH2 0x4EC DUP4 ADD MSTORE PUSH32 0x202041202431303030207472616465206973207374726F6E6720696620746865 PUSH2 0x505 DUP4 ADD MSTORE PUSH32 0x20666F6C6C6F776572207661756C742069732024323030302028353025292E0A PUSH2 0x525 DUP4 ADD MSTORE PUSH32 0x202041202431303030207472616465206973207765616B206966207468652066 PUSH2 0x545 DUP4 ADD MSTORE PUSH32 0x6F6C6C6F776572207661756C74206973202431303030303020283125292E0A00 PUSH2 0x565 DUP4 ADD MSTORE PUSH32 0x2020416C7761797320726561736F6E20696E2070657263656E74616765732C20 PUSH2 0x584 DUP4 ADD MSTORE PUSH32 0x6E6F74206162736F6C75746520646F6C6C617220616D6F756E74732E0A0A0000 PUSH2 0x5A4 DUP4 ADD MSTORE PUSH32 0x526573706F6E64207769746820612073696E676C6520696E746567657220302D PUSH2 0x5C2 DUP4 ADD MSTORE PUSH4 0x18981817 PUSH1 0xE1 SHL PUSH2 0x5E2 DUP4 ADD MSTORE PUSH2 0x5C6 DUP3 MSTORE PUSH2 0x600 DUP3 ADD SWAP6 SWAP2 SWAP3 SWAP1 SWAP2 PUSH1 0x1 PUSH1 0x1 PUSH1 0x40 SHL SUB DUP8 GT DUP5 DUP9 LT OR PUSH2 0x2B45 JUMPI PUSH2 0x4125 SWAP6 PUSH1 0x20 SWAP6 PUSH2 0x410A PUSH2 0x4119 SWAP4 DUP11 PUSH1 0x40 MSTORE PUSH2 0x620 SWAP6 PUSH2 0x40E8 DUP2 MLOAD DUP1 SWAP3 DUP13 DUP11 DUP14 ADD SWAP2 ADD PUSH2 0x2BB2 JUMP JUMPDEST DUP9 ADD PUSH2 0x40FC DUP3 MLOAD DUP1 SWAP4 DUP13 DUP11 DUP6 ADD SWAP2 ADD PUSH2 0x2BB2 JUMP JUMPDEST ADD SWAP2 MLOAD DUP1 SWAP4 DUP7 DUP5 ADD SWAP1 PUSH2 0x2BB2 JUMP JUMPDEST ADD SWAP2 DUP5 MLOAD SWAP4 DUP5 SWAP2 DUP5 ADD SWAP1 PUSH2 0x2BB2 JUMP JUMPDEST ADD SUB DUP1 DUP5 MSTORE ADD DUP3 PUSH2 0x2B91 JUMP JUMPDEST PUSH1 0x40 MLOAD PUSH4 0xFFEB17D PUSH1 0xE1 SHL DUP2 MSTORE SWAP1 PUSH20 0x37BB9C718F3F7FE5ECBDB0B600D607B52706776 SWAP1 PUSH1 0x20 DUP4 PUSH1 0x4 DUP2 DUP6 GAS STATICCALL SWAP3 DUP4 ISZERO PUSH2 0x4268 JUMPI PUSH1 0x0 SWAP4 PUSH2 0x4274 JUMPI JUMPDEST POP PUSH8 0x2EA11E32AD50000 DUP4 ADD DUP1 SWAP4 GT PUSH2 0x2DDD JUMPI PUSH1 0x20 SWAP2 PUSH2 0x4196 PUSH2 0x41A4 PUSH2 0x41EB SWAP4 PUSH1 0x40 MLOAD SWAP3 DUP4 SWAP2 DUP8 DUP1 DUP5 ADD MSTORE PUSH1 0x40 DUP4 ADD SWAP1 PUSH2 0x2BD5 JUMP JUMPDEST SUB PUSH1 0x1F NOT DUP2 ADD DUP4 MSTORE DUP3 PUSH2 0x2B91 JUMP JUMPDEST PUSH1 0x40 MLOAD PUSH4 0x45DE5DF1 PUSH1 0xE1 SHL DUP2 MSTORE PUSH8 0xB24AC1AFBCEFC708 PUSH1 0x4 DUP3 ADD MSTORE ADDRESS PUSH1 0x24 DUP3 ADD MSTORE PUSH4 0x6ABCF6AF PUSH1 0xE0 SHL PUSH1 0x44 DUP3 ADD MSTORE PUSH1 0x80 PUSH1 0x64 DUP3 ADD MSTORE SWAP5 DUP6 SWAP4 DUP5 SWAP3 DUP4 SWAP2 SWAP1 PUSH1 0x84 DUP4 ADD SWAP1 PUSH2 0x2BD5 JUMP JUMPDEST SUB SWAP3 GAS CALL SWAP1 DUP2 ISZERO PUSH2 0x4268 JUMPI PUSH1 0x0 SWAP2 PUSH2 0x4236 JUMPI JUMPDEST POP DUP1 PUSH1 0x0 MSTORE PUSH1 0x8 PUSH1 0x20 MSTORE DUP2 PUSH1 0x40 PUSH1 0x0 KECCAK256 SSTORE PUSH32 0xBD39BCA4ED5E29CB7D341FEC377583E2CB5A5E06015FF024E1A933E2FE29C47E PUSH1 0x0 DUP1 LOG3 JUMP JUMPDEST SWAP1 POP PUSH1 0x20 DUP2 RETURNDATASIZE PUSH1 0x20 GT PUSH2 0x4260 JUMPI JUMPDEST DUP2 PUSH2 0x4251 PUSH1 0x20 SWAP4 DUP4 PUSH2 0x2B91 JUMP JUMPDEST DUP2 ADD SUB SLT PUSH2 0x29C3 JUMPI MLOAD CODESIZE PUSH2 0x41FE JUMP JUMPDEST RETURNDATASIZE SWAP2 POP PUSH2 0x4244 JUMP JUMPDEST PUSH1 0x40 MLOAD RETURNDATASIZE PUSH1 0x0 DUP3 RETURNDATACOPY RETURNDATASIZE SWAP1 REVERT JUMPDEST SWAP1 SWAP3 POP PUSH1 0x20 DUP2 RETURNDATASIZE PUSH1 0x20 GT PUSH2 0x42A0 JUMPI JUMPDEST DUP2 PUSH2 0x4290 PUSH1 0x20 SWAP4 DUP4 PUSH2 0x2B91 JUMP JUMPDEST DUP2 ADD SUB SLT PUSH2 0x29C3 JUMPI MLOAD SWAP2 CODESIZE PUSH2 0x4161 JUMP JUMPDEST RETURNDATASIZE SWAP2 POP PUSH2 0x4283 JUMP JUMPDEST PUSH1 0x0 PUSH2 0x3077 JUMP JUMPDEST PUSH1 0x0 SWAP6 PUSH2 0x304A JUMP JUMPDEST PUSH1 0x0 SWAP4 PUSH2 0x301B JUMP JUMPDEST DUP6 SWAP5 POP PUSH2 0x2FC3 JUMP JUMPDEST SWAP1 POP DUP8 ADD CALLDATALOAD CODESIZE PUSH2 0x2F84 JUMP JUMPDEST SWAP1 DUP3 PUSH1 0x0 MSTORE PUSH1 0x20 PUSH1 0x0 KECCAK256 PUSH1 0x0 SWAP3 JUMPDEST PUSH1 0x1F NOT DUP4 AND DUP5 LT PUSH2 0x4321 JUMPI PUSH1 0x1 SWAP4 POP DUP3 PUSH1 0x1F NOT DUP2 AND LT PUSH2 0x4307 JUMPI JUMPDEST POP POP DUP2 SHL ADD SWAP1 SSTORE PUSH2 0x2F9B JUMP JUMPDEST DUP9 ADD CALLDATALOAD PUSH1 0x0 NOT PUSH1 0x3 DUP5 SWAP1 SHL PUSH1 0xF8 AND SHR NOT AND SWAP1 SSTORE CODESIZE DUP1 PUSH2 0x42FB JUMP JUMPDEST DUP9 DUP2 ADD CALLDATALOAD DUP3 SSTORE PUSH1 0x20 SWAP4 DUP5 ADD SWAP4 PUSH1 0x1 SWAP1 SWAP3 ADD SWAP2 ADD PUSH2 0x42E0 JUMP JUMPDEST PUSH2 0x4365 SWAP1 DUP4 PUSH1 0x0 MSTORE PUSH1 0x20 PUSH1 0x0 KECCAK256 PUSH1 0x1F DUP5 ADD PUSH1 0x5 SHR DUP2 ADD SWAP2 PUSH1 0x20 DUP6 LT PUSH2 0x34F JUMPI PUSH1 0x1F ADD PUSH1 0x5 SHR ADD SWAP1 PUSH2 0x2DF3 JUMP JUMPDEST CODESIZE PUSH2 0x2F68 JUMP JUMPDEST POP POP POP POP POP DUP1 PUSH1 0x0 DUP1 MLOAD PUSH1 0x20 PUSH2 0x4FA0 DUP4 CODECOPY DUP2 MLOAD SWAP2 MSTORE PUSH1 0x60 PUSH1 0x40 MLOAD PUSH1 0x20 DUP2 MSTORE PUSH1 0x19 PUSH1 0x20 DUP3 ADD MSTORE PUSH32 0x696E73756666696369656E7420667265652062616C616E636500000000000000 PUSH1 0x40 DUP3 ADD MSTORE LOG2 PUSH1 0x0 MSTORE PUSH1 0xA PUSH1 0x20 MSTORE PUSH1 0x0 PUSH1 0x40 DUP2 KECCAK256 SSTORE JUMP JUMPDEST POP POP POP POP DUP1 PUSH1 0x0 DUP1 MLOAD PUSH1 0x20 PUSH2 0x4FA0 DUP4 CODECOPY DUP2 MLOAD SWAP2 MSTORE PUSH1 0x60 PUSH1 0x40 MLOAD PUSH1 0x20 DUP2 MSTORE PUSH1 0x16 PUSH1 0x20 DUP3 ADD MSTORE PUSH22 0x1D1BDAD95B881B9BDD081A5B88185B1B1BDDDB1A5CDD PUSH1 0x52 SHL PUSH1 0x40 DUP3 ADD MSTORE LOG2 PUSH1 0x0 MSTORE PUSH1 0xA PUSH1 0x20 MSTORE PUSH1 0x0 PUSH1 0x40 DUP2 KECCAK256 SSTORE JUMP JUMPDEST POP POP POP POP DUP1 PUSH1 0x0 DUP1 MLOAD PUSH1 0x20 PUSH2 0x4FA0 DUP4 CODECOPY DUP2 MLOAD SWAP2 MSTORE PUSH1 0x60 PUSH1 0x40 MLOAD PUSH1 0x20 DUP2 MSTORE PUSH1 0xB PUSH1 0x20 DUP3 ADD MSTORE PUSH11 0x7374616C65207472616465 PUSH1 0xA8 SHL PUSH1 0x40 DUP3 ADD MSTORE LOG2 PUSH1 0x0 MSTORE PUSH1 0xA PUSH1 0x20 MSTORE PUSH1 0x0 PUSH1 0x40 DUP2 KECCAK256 SSTORE JUMP JUMPDEST PUSH1 0x40 MLOAD PUSH3 0x461BCD PUSH1 0xE5 SHL DUP2 MSTORE PUSH1 0x20 PUSH1 0x4 DUP3 ADD MSTORE PUSH1 0x1B PUSH1 0x24 DUP3 ADD MSTORE PUSH32 0x564D3A20756E6B6E6F776E207761746368657220726571756573740000000000 PUSH1 0x44 DUP3 ADD MSTORE PUSH1 0x64 SWAP1 REVERT JUMPDEST SWAP1 DUP2 PUSH1 0x20 SWAP2 SUB SLT PUSH2 0x29C3 JUMPI MLOAD DUP1 ISZERO ISZERO DUP2 SUB PUSH2 0x29C3 JUMPI SWAP1 JUMP JUMPDEST ISZERO PUSH2 0x44CB JUMPI JUMP JUMPDEST PUSH1 0x40 MLOAD PUSH3 0x461BCD PUSH1 0xE5 SHL DUP2 MSTORE PUSH1 0x20 PUSH1 0x4 DUP3 ADD MSTORE PUSH1 0x12 PUSH1 0x24 DUP3 ADD MSTORE PUSH18 0x15934E8819195C1BDCDA5D0819985A5B1959 PUSH1 0x72 SHL PUSH1 0x44 DUP3 ADD MSTORE PUSH1 0x64 SWAP1 REVERT JUMPDEST ISZERO PUSH2 0x450C JUMPI JUMP JUMPDEST PUSH1 0x40 MLOAD PUSH3 0x461BCD PUSH1 0xE5 SHL DUP2 MSTORE PUSH1 0x20 PUSH1 0x4 DUP3 ADD MSTORE PUSH1 0x12 PUSH1 0x24 DUP3 ADD MSTORE PUSH18 0x15934E881B9BDD08185D5D1A1BDC9A5E9959 PUSH1 0x72 SHL PUSH1 0x44 DUP3 ADD MSTORE PUSH1 0x64 SWAP1 REVERT JUMPDEST PUSH2 0x4550 DUP2 SLOAD PUSH2 0x2AEF JUMP JUMPDEST SWAP1 DUP2 PUSH2 0x455A JUMPI POP POP JUMP JUMPDEST DUP2 PUSH1 0x1F PUSH1 0x0 SWAP4 GT PUSH1 0x1 EQ PUSH2 0x456D JUMPI POP SSTORE JUMPDEST JUMP JUMPDEST SWAP1 DUP1 DUP4 SWAP2 DUP3 MSTORE PUSH2 0x458C PUSH1 0x1F PUSH1 0x20 DUP5 KECCAK256 SWAP5 ADD PUSH1 0x5 SHR DUP5 ADD PUSH1 0x1 DUP6 ADD PUSH2 0x2DF3 JUMP JUMPDEST SSTORE SSTORE JUMP JUMPDEST PUSH1 0x0 SWAP3 DUP2 DUP5 MSTORE PUSH1 0x20 SWAP2 PUSH1 0x8 DUP4 MSTORE PUSH1 0x40 SWAP4 DUP5 DUP7 KECCAK256 SLOAD SWAP3 DUP4 ISZERO PUSH2 0x468E JUMPI DUP2 DUP6 SWAP2 DUP5 DUP10 MSTORE PUSH1 0x8 DUP4 MSTORE DUP9 DUP9 DUP2 KECCAK256 SSTORE DUP2 ADD SUB SLT PUSH2 0x12AC JUMPI PUSH1 0xA SWAP4 SWAP3 SWAP2 SWAP1 CALLDATALOAD PUSH1 0x64 DUP2 GT ISZERO PUSH2 0x4685 JUMPI POP PUSH1 0x64 SWAP1 JUMPDEST DUP3 PUSH1 0xFF DUP4 AND SWAP2 PUSH32 0xAC7C244F5A94874741BDE286781FC342DA57EB796EA3B4F271BA72C0B515B105 DUP9 DUP9 DUP6 LT SWAP5 DUP2 MLOAD SWAP1 DUP2 MSTORE DUP6 ISZERO DUP10 DUP3 ADD MSTORE LOG3 PUSH2 0x4637 JUMPI PUSH2 0x461D SWAP1 DUP3 PUSH2 0x49EF JUMP JUMPDEST DUP1 DUP6 MSTORE PUSH1 0x9 DUP3 MSTORE PUSH2 0x462F DUP5 DUP7 KECCAK256 PUSH2 0x4546 JUMP JUMPDEST DUP5 MSTORE MSTORE DUP2 KECCAK256 SSTORE JUMP JUMPDEST POP DUP1 PUSH1 0x0 DUP1 MLOAD PUSH1 0x20 PUSH2 0x4FA0 DUP4 CODECOPY DUP2 MLOAD SWAP2 MSTORE PUSH1 0x60 DUP7 MLOAD DUP6 DUP2 MSTORE PUSH1 0x15 DUP7 DUP3 ADD MSTORE PUSH21 0x1CD8DBDC994818995B1BDDC81D1A1C995CDA1BDB19 PUSH1 0x5A SHL DUP9 DUP3 ADD MSTORE LOG2 DUP1 DUP6 MSTORE PUSH1 0x9 DUP3 MSTORE PUSH2 0x462F DUP5 DUP7 KECCAK256 PUSH2 0x4546 JUMP JUMPDEST PUSH1 0xFF AND SWAP1 PUSH2 0x45D7 JUMP JUMPDEST DUP6 MLOAD PUSH3 0x461BCD PUSH1 0xE5 SHL DUP2 MSTORE PUSH1 0x4 DUP2 ADD DUP7 SWAP1 MSTORE PUSH1 0x1E PUSH1 0x24 DUP3 ADD MSTORE PUSH32 0x564D3A20756E6B6E6F776E207374726174656769737420726571756573740000 PUSH1 0x44 DUP3 ADD MSTORE PUSH1 0x64 SWAP1 REVERT JUMPDEST PUSH1 0x1 PUSH1 0x1 PUSH1 0x40 SHL SUB DUP2 GT PUSH2 0x2B45 JUMPI PUSH1 0x5 SHL PUSH1 0x20 ADD SWAP1 JUMP JUMPDEST DUP1 SLOAD PUSH1 0x1 PUSH1 0x40 SHL DUP2 LT ISZERO PUSH2 0x2B45 JUMPI PUSH2 0x4706 SWAP2 PUSH1 0x1 DUP3 ADD DUP2 SSTORE PUSH2 0x2AC1 JUMP JUMPDEST DUP2 SWAP3 SWAP2 SLOAD SWAP1 PUSH1 0x3 SHL SWAP2 DUP3 SHL SWAP2 PUSH1 0x0 NOT SWAP1 SHL NOT AND OR SWAP1 SSTORE JUMP JUMPDEST ISZERO PUSH2 0x4725 JUMPI JUMP JUMPDEST PUSH1 0x40 MLOAD PUSH3 0x461BCD PUSH1 0xE5 SHL DUP2 MSTORE PUSH1 0x20 PUSH1 0x4 DUP3 ADD MSTORE PUSH1 0xD PUSH1 0x24 DUP3 ADD MSTORE PUSH13 0x2B269D103737BA1037BBB732B9 PUSH1 0x99 SHL PUSH1 0x44 DUP3 ADD MSTORE PUSH1 0x64 SWAP1 REVERT JUMPDEST SWAP1 PUSH1 0x40 MLOAD SWAP2 DUP3 DUP2 SLOAD SWAP2 DUP3 DUP3 MSTORE PUSH1 0x20 SWAP3 PUSH1 0x20 DUP4 ADD SWAP2 PUSH1 0x0 MSTORE PUSH1 0x20 PUSH1 0x0 KECCAK256 SWAP4 PUSH1 0x0 SWAP1 JUMPDEST DUP3 DUP3 LT PUSH2 0x4791 JUMPI POP POP POP PUSH2 0x456B SWAP3 POP SUB DUP4 PUSH2 0x2B91 JUMP JUMPDEST DUP6 SLOAD PUSH1 0x1 PUSH1 0x1 PUSH1 0xA0 SHL SUB AND DUP5 MSTORE PUSH1 0x1 SWAP6 DUP7 ADD SWAP6 DUP9 SWAP6 POP SWAP4 DUP2 ADD SWAP4 SWAP1 SWAP2 ADD SWAP1 PUSH2 0x477B JUMP JUMPDEST PUSH1 0x40 MLOAD SWAP1 PUSH1 0x20 DUP3 ADD SWAP3 PUSH1 0x1 PUSH1 0x1 PUSH1 0x60 SHL SUB NOT DUP1 SWAP3 PUSH1 0x60 SHL AND DUP5 MSTORE PUSH1 0x60 SHL AND PUSH1 0x34 DUP3 ADD MSTORE PUSH1 0x28 DUP2 MSTORE PUSH2 0x47E4 DUP2 PUSH2 0x2B5B JUMP JUMPDEST MLOAD SWAP1 KECCAK256 SWAP1 JUMP JUMPDEST DUP2 DUP2 SUB SWAP3 SWAP2 PUSH1 0x0 SGT DUP1 ISZERO DUP3 DUP6 SGT AND SWAP2 DUP5 SLT AND OR PUSH2 0x2DDD JUMPI JUMP JUMPDEST PUSH1 0x0 NOT DUP2 EQ PUSH2 0x2DDD JUMPI PUSH1 0x1 ADD SWAP1 JUMP JUMPDEST SWAP1 PUSH1 0x0 JUMPDEST DUP3 SLOAD DUP2 LT ISZERO PUSH2 0x4855 JUMPI PUSH2 0x4829 DUP2 DUP5 PUSH2 0x2AC1 JUMP JUMPDEST SWAP1 SLOAD PUSH1 0x3 SWAP2 SWAP1 SWAP2 SHL SHR PUSH1 0x1 PUSH1 0x1 PUSH1 0xA0 SHL SUB SWAP1 DUP2 AND SWAP1 DUP4 AND EQ PUSH2 0x484D JUMPI PUSH1 0x1 ADD PUSH2 0x4816 JUMP JUMPDEST POP POP POP PUSH1 0x1 SWAP1 JUMP JUMPDEST POP POP POP PUSH1 0x0 SWAP1 JUMP JUMPDEST PUSH1 0x2 PUSH1 0x3 DUP3 ADD SLOAD SWAP2 ADD SLOAD SWAP1 DUP2 DUP2 LT ISZERO PUSH2 0x487C JUMPI PUSH2 0x4879 SWAP2 PUSH2 0x2DD0 JUMP JUMPDEST SWAP1 JUMP JUMPDEST POP POP PUSH1 0x0 SWAP1 JUMP JUMPDEST PUSH1 0x1 PUSH1 0x1 PUSH1 0x40 SHL SUB DUP2 GT PUSH2 0x2B45 JUMPI PUSH1 0x1F ADD PUSH1 0x1F NOT AND PUSH1 0x20 ADD SWAP1 JUMP JUMPDEST SWAP1 DUP2 MLOAD DUP2 LT ISZERO PUSH2 0x2AD9 JUMPI ADD PUSH1 0x20 ADD SWAP1 JUMP JUMPDEST PUSH1 0x40 MLOAD SWAP1 PUSH1 0x1 PUSH1 0x1 PUSH1 0x60 SHL SUB NOT SWAP1 PUSH1 0x60 SHL AND PUSH1 0x20 DUP3 ADD MSTORE PUSH1 0x14 DUP1 DUP3 MSTORE PUSH2 0x48D4 DUP3 PUSH2 0x2B76 JUMP JUMPDEST PUSH1 0x40 MLOAD SWAP1 PUSH2 0x48E1 DUP3 PUSH2 0x2B76 JUMP JUMPDEST PUSH1 0x10 DUP3 MSTORE PUSH16 0x181899199A1A9B1B9C1CB0B131B232B3 PUSH1 0x81 SHL PUSH1 0x20 DUP4 ADD MSTORE PUSH1 0x40 MLOAD SWAP3 PUSH2 0x490B DUP5 PUSH2 0x2B5B JUMP JUMPDEST PUSH1 0x2A DUP5 MSTORE PUSH1 0x20 DUP5 ADD PUSH1 0x40 CALLDATASIZE DUP3 CALLDATACOPY DUP5 MLOAD ISZERO PUSH2 0x2AD9 JUMPI PUSH1 0x30 SWAP1 MSTORE8 DUP4 MLOAD SWAP3 PUSH1 0x1 SWAP4 PUSH1 0x1 LT ISZERO PUSH2 0x2AD9 JUMPI PUSH1 0x78 PUSH1 0x21 DUP7 ADD MSTORE8 PUSH1 0x0 JUMPDEST DUP4 DUP2 LT PUSH2 0x494A JUMPI POP POP POP POP POP SWAP1 JUMP JUMPDEST PUSH1 0x1 PUSH1 0x1 PUSH1 0xF8 SHL SUB NOT SWAP1 DUP2 PUSH2 0x496C PUSH2 0x4962 DUP4 DUP8 PUSH2 0x489E JUMP JUMPDEST MLOAD PUSH1 0xFC SHR DUP6 PUSH2 0x489E JUMP JUMPDEST MLOAD AND SWAP2 DUP2 DUP8 SHL SWAP3 PUSH1 0x2 SWAP1 DUP4 DUP6 DIV DUP3 EQ DUP5 ISZERO OR ISZERO PUSH2 0x2DDD JUMPI DUP5 DUP3 ADD DUP1 SWAP3 GT PUSH2 0x2DDD JUMPI PUSH2 0x499B SWAP1 PUSH1 0x0 BYTE SWAP2 DUP11 PUSH2 0x489E JUMP JUMPDEST MSTORE8 PUSH2 0x49B6 PUSH1 0xF PUSH2 0x49AB DUP5 DUP9 PUSH2 0x489E JUMP JUMPDEST MLOAD PUSH1 0xF8 SHR AND DUP6 PUSH2 0x489E JUMP JUMPDEST MLOAD AND SWAP2 PUSH1 0x3 SWAP1 DUP2 ADD DUP1 SWAP2 GT PUSH2 0x2DDD JUMPI PUSH2 0x49D4 DUP8 SWAP4 PUSH1 0x0 BYTE SWAP2 DUP10 PUSH2 0x489E JUMP JUMPDEST MSTORE8 ADD PUSH2 0x493B JUMP JUMPDEST MLOAD SWAP1 PUSH1 0x1 PUSH1 0x1 PUSH1 0xA0 SHL SUB DUP3 AND DUP3 SUB PUSH2 0x29C3 JUMPI JUMP JUMPDEST DUP1 PUSH1 0x0 MSTORE PUSH1 0x3 PUSH1 0x20 MSTORE PUSH1 0x40 PUSH1 0x0 KECCAK256 PUSH1 0x9 PUSH1 0x20 MSTORE PUSH1 0x40 PUSH1 0x0 KECCAK256 SWAP3 PUSH1 0x40 MLOAD SWAP4 PUSH1 0x0 DUP6 DUP3 SLOAD SWAP2 PUSH2 0x4A1B DUP4 PUSH2 0x2AEF JUMP JUMPDEST SWAP3 DUP4 DUP4 MSTORE PUSH1 0x20 DUP4 ADD SWAP5 PUSH1 0x1 SWAP2 PUSH1 0x1 DUP2 AND SWAP1 DUP2 PUSH1 0x0 EQ PUSH2 0x4DF1 JUMPI POP PUSH1 0x1 EQ PUSH2 0x4DAF JUMPI JUMPDEST POP POP PUSH2 0x4A4B SWAP3 POP SUB DUP7 PUSH2 0x2B91 JUMP JUMPDEST PUSH1 0xA0 DUP6 DUP1 MLOAD DUP2 ADD SUB SLT PUSH2 0x29C3 JUMPI PUSH2 0x4A61 SWAP1 PUSH2 0x49DB JUMP JUMPDEST POP PUSH1 0x80 PUSH2 0x4A70 PUSH1 0x40 DUP7 ADD PUSH2 0x49DB JUMP JUMPDEST SWAP5 ADD MLOAD SWAP4 PUSH2 0x4A7D DUP4 PUSH2 0x485D JUMP JUMPDEST SWAP5 PUSH1 0x64 PUSH2 0x4A99 PUSH1 0x2 DUP7 ADD SLOAD PUSH1 0xFF PUSH1 0x4 DUP9 ADD SLOAD PUSH1 0x8 SHR AND SWAP1 PUSH2 0x2E0A JUMP JUMPDEST DIV DUP7 DUP2 GT PUSH2 0x4DA8 JUMPI JUMPDEST PUSH2 0x4AB2 PUSH1 0x64 SWAP2 PUSH1 0xFF DUP7 AND SWAP1 PUSH2 0x2E0A JUMP JUMPDEST DIV SWAP6 PUSH3 0xF4240 DUP8 LT PUSH2 0x4D59 JUMPI DUP1 DUP8 GT PUSH2 0x4D51 JUMPI JUMPDEST POP PUSH1 0x1 PUSH1 0x1 PUSH1 0xA0 SHL SUB DUP3 AND PUSH1 0x0 SWAP1 DUP2 MSTORE PUSH1 0xB PUSH1 0x20 MSTORE PUSH1 0x40 SWAP1 KECCAK256 SLOAD SWAP1 DUP2 ISZERO PUSH2 0x4D49 JUMPI POP SWAP3 JUMPDEST PUSH2 0x4AF5 PUSH1 0xD SLOAD PUSH2 0x4803 JUMP JUMPDEST SWAP3 DUP4 PUSH1 0xD SSTORE PUSH1 0x40 MLOAD SWAP4 PUSH1 0x20 DUP6 ADD SWAP1 DUP8 DUP3 MSTORE TIMESTAMP PUSH1 0x40 DUP8 ADD MSTORE PUSH1 0x1 PUSH1 0x1 PUSH1 0x60 SHL SUB NOT DUP6 PUSH1 0x60 SHL AND PUSH1 0x60 DUP8 ADD MSTORE PUSH1 0x74 DUP7 ADD MSTORE PUSH1 0x74 DUP6 MSTORE PUSH1 0x1 PUSH1 0x1 PUSH1 0x40 SHL SUB SWAP1 DUP6 PUSH1 0xA0 DUP2 ADD LT DUP3 PUSH1 0xA0 DUP9 ADD GT OR PUSH2 0x2B45 JUMPI PUSH1 0xA0 DUP7 ADD PUSH1 0x40 DUP2 SWAP1 MSTORE DUP7 MLOAD SWAP1 SWAP2 KECCAK256 DUP5 SLOAD PUSH1 0x1 DUP7 ADD SLOAD SWAP2 SWAP4 PUSH1 0x1 PUSH1 0x1 PUSH1 0xA0 SHL SUB SWAP3 DUP4 AND SWAP4 SWAP2 SWAP1 SWAP3 AND SWAP2 PUSH2 0x200 DUP10 ADD SWAP1 DUP2 GT SWAP2 GT OR PUSH2 0x2B45 JUMPI PUSH2 0x200 DUP8 ADD PUSH1 0x40 MSTORE PUSH1 0xA0 DUP8 ADD MSTORE PUSH1 0xC0 DUP7 ADD MSTORE DUP7 PUSH1 0xE0 DUP7 ADD MSTORE PUSH1 0x1 DUP1 PUSH1 0xA0 SHL SUB DUP5 AND PUSH2 0x100 DUP7 ADD MSTORE DUP8 PUSH2 0x120 DUP7 ADD MSTORE DUP6 PUSH2 0x140 DUP7 ADD MSTORE PUSH1 0x0 PUSH2 0x160 DUP7 ADD MSTORE PUSH1 0x0 PUSH2 0x180 DUP7 ADD MSTORE PUSH1 0x0 PUSH2 0x1A0 DUP7 ADD MSTORE TIMESTAMP PUSH2 0x1C0 DUP7 ADD MSTORE PUSH1 0x0 PUSH2 0x1E0 DUP7 ADD MSTORE DUP1 PUSH1 0x0 MSTORE PUSH1 0x4 PUSH1 0x20 MSTORE PUSH1 0x40 PUSH1 0x0 KECCAK256 SWAP1 PUSH1 0x1 DUP1 PUSH1 0xA0 SHL SUB PUSH1 0xA0 DUP8 ADD MLOAD AND PUSH1 0x1 PUSH1 0x1 PUSH1 0x60 SHL SUB PUSH1 0xA0 SHL SWAP1 DUP2 DUP5 SLOAD AND OR DUP4 SSTORE PUSH1 0x1 DUP4 ADD PUSH1 0x1 DUP1 PUSH1 0xA0 SHL SUB PUSH1 0xC0 DUP10 ADD MLOAD AND DUP3 DUP3 SLOAD AND OR SWAP1 SSTORE PUSH1 0xE0 DUP8 ADD MLOAD PUSH1 0x2 DUP5 ADD SSTORE PUSH1 0x3 DUP4 ADD SWAP1 PUSH1 0x1 DUP1 PUSH1 0xA0 SHL SUB PUSH2 0x100 DUP10 ADD MLOAD AND SWAP1 DUP3 SLOAD AND OR SWAP1 SSTORE PUSH2 0x120 DUP7 ADD MLOAD PUSH1 0x4 DUP4 ADD SSTORE PUSH2 0x140 DUP7 ADD MLOAD PUSH1 0x5 DUP4 ADD SSTORE PUSH2 0x160 DUP7 ADD MLOAD PUSH1 0x6 DUP4 ADD SSTORE PUSH2 0x180 DUP7 ADD MLOAD PUSH1 0x7 DUP4 ADD SSTORE PUSH1 0x8 DUP3 ADD PUSH2 0x1A0 DUP8 ADD MLOAD PUSH1 0x2 DUP2 LT ISZERO PUSH2 0x2C80 JUMPI PUSH32 0xFAC05F01C50AE793F1A1FB2912053546D62525AC2DFAD4ADBC641F37C09BF8A SWAP9 PUSH1 0x3 PUSH1 0xFF SWAP8 DUP13 SWAP7 PUSH1 0xA PUSH2 0x1E0 PUSH1 0x40 SWAP14 PUSH32 0xB1EEFDDB5E15079C801481DD2D9558F62B8D6E4BA1D15D3E8DA341E1D07CCD18 SWAP9 PUSH1 0x60 SWAP9 DUP15 DUP1 NOT DUP4 SLOAD AND SWAP2 AND OR SWAP1 SSTORE PUSH2 0x1C0 DUP2 ADD MLOAD PUSH1 0x9 DUP6 ADD SSTORE ADD MLOAD SWAP2 ADD SSTORE DUP7 PUSH1 0x0 MSTORE PUSH1 0x6 PUSH1 0x20 MSTORE PUSH2 0x4D06 DUP7 DUP13 PUSH1 0x0 KECCAK256 PUSH2 0x46E9 JUMP JUMPDEST ADD PUSH2 0x4D12 DUP14 DUP3 SLOAD PUSH2 0x2E3D JUMP JUMPDEST SWAP1 SSTORE DUP9 MLOAD PUSH1 0x1 PUSH1 0x1 PUSH1 0xA0 SHL SUB DUP10 AND DUP2 MSTORE PUSH1 0x20 DUP2 ADD DUP14 SWAP1 MSTORE DUP1 DUP11 ADD SWAP2 SWAP1 SWAP2 MSTORE LOG3 DUP4 MLOAD SWAP7 DUP8 MSTORE AND PUSH1 0x20 DUP7 ADD MSTORE PUSH1 0x1 PUSH1 0x1 PUSH1 0xA0 SHL SUB AND SWAP4 LOG3 JUMP JUMPDEST SWAP1 POP SWAP3 PUSH2 0x4AEA JUMP JUMPDEST SWAP6 POP CODESIZE PUSH2 0x4AC6 JUMP JUMPDEST POP POP POP POP POP SWAP1 POP PUSH1 0x0 DUP1 MLOAD PUSH1 0x20 PUSH2 0x4FA0 DUP4 CODECOPY DUP2 MLOAD SWAP2 MSTORE PUSH1 0x60 PUSH1 0x40 MLOAD PUSH1 0x20 DUP2 MSTORE PUSH1 0x1E PUSH1 0x20 DUP3 ADD MSTORE PUSH32 0x616C6C6F636174656420616D6F756E742062656C6F77206D696E696D756D0000 PUSH1 0x40 DUP3 ADD MSTORE LOG2 JUMP JUMPDEST POP DUP6 PUSH2 0x4AA2 JUMP JUMPDEST PUSH1 0x0 SWAP1 DUP2 MSTORE PUSH1 0x20 DUP2 KECCAK256 SWAP1 SWAP3 POP JUMPDEST DUP5 DUP4 LT PUSH2 0x4DD6 JUMPI POP PUSH2 0x4A4B SWAP4 POP POP DUP2 ADD PUSH1 0x20 ADD CODESIZE DUP1 PUSH2 0x4A3D JUMP JUMPDEST DUP2 SWAP4 POP SWAP1 DUP2 PUSH1 0x20 SWAP3 SLOAD DUP4 DUP6 DUP14 ADD ADD MSTORE ADD SWAP2 ADD SWAP1 SWAP2 DUP9 SWAP3 PUSH2 0x4DBC JUMP JUMPDEST PUSH1 0xFF NOT AND DUP8 MSTORE POP PUSH2 0x4A4B SWAP5 ISZERO ISZERO PUSH1 0x5 SHL DUP5 ADD PUSH1 0x20 ADD SWAP3 POP CODESIZE SWAP2 POP DUP2 SWAP1 POP PUSH2 0x4A3D JUMP JUMPDEST PUSH1 0x0 SWAP2 JUMPDEST DUP2 SLOAD SWAP3 DUP4 DUP2 LT ISZERO PUSH2 0x4EBE JUMPI PUSH2 0x4E2C DUP2 DUP5 PUSH2 0x2AC1 JUMP JUMPDEST SWAP1 SLOAD PUSH1 0x3 SWAP6 PUSH1 0x1 PUSH1 0x1 PUSH1 0xA0 SHL SUB SWAP3 SWAP1 SWAP2 SWAP1 DUP8 SHL SHR DUP3 AND DUP5 DUP4 AND EQ PUSH2 0x4E56 JUMPI POP POP PUSH1 0x1 ADD SWAP3 POP PUSH2 0x4E17 JUMP JUMPDEST SWAP1 SWAP3 POP PUSH1 0x0 NOT SWAP2 DUP3 DUP3 ADD SWAP2 DUP3 GT PUSH2 0x2DDD JUMPI PUSH2 0x28F7 DUP5 PUSH2 0x4E78 PUSH2 0x4E86 SWAP5 DUP9 PUSH2 0x2AC1 JUMP JUMPDEST SWAP1 SLOAD SWAP1 DUP10 SHL SHR AND SWAP2 DUP7 PUSH2 0x2AC1 JUMP JUMPDEST DUP3 SLOAD DUP1 ISZERO PUSH2 0x4EA8 JUMPI ADD SWAP3 PUSH2 0x4E9A DUP5 DUP5 PUSH2 0x2AC1 JUMP JUMPDEST DUP2 SWAP4 SWAP2 SLOAD SWAP3 SHL SHL NOT AND SWAP1 SSTORE SSTORE JUMP JUMPDEST PUSH4 0x4E487B71 PUSH1 0xE0 SHL PUSH1 0x0 MSTORE PUSH1 0x31 PUSH1 0x4 MSTORE PUSH1 0x24 PUSH1 0x0 REVERT JUMPDEST POP POP POP POP JUMP JUMPDEST DUP1 ISZERO PUSH2 0x4F61 JUMPI DUP1 DUP2 PUSH1 0x0 SWAP3 JUMPDEST PUSH2 0x4F4D JUMPI POP DUP1 PUSH2 0x4EDF DUP4 PUSH2 0x4883 JUMP JUMPDEST SWAP3 PUSH2 0x4EED PUSH1 0x40 MLOAD SWAP5 DUP6 PUSH2 0x2B91 JUMP JUMPDEST DUP1 DUP5 MSTORE PUSH1 0x1F NOT PUSH2 0x4EFC DUP3 PUSH2 0x4883 JUMP JUMPDEST ADD CALLDATASIZE PUSH1 0x20 DUP7 ADD CALLDATACOPY SWAP1 JUMPDEST PUSH2 0x4F0E JUMPI POP POP SWAP1 JUMP JUMPDEST DUP1 ISZERO PUSH2 0x2DDD JUMPI PUSH1 0x0 NOT ADD SWAP1 PUSH1 0xA SWAP1 PUSH1 0x30 DUP3 DUP3 MOD DUP2 ADD DUP1 SWAP2 GT PUSH2 0x2DDD JUMPI PUSH1 0xF8 SHL PUSH1 0x1 PUSH1 0x1 PUSH1 0xF8 SHL SUB NOT AND PUSH1 0x0 BYTE PUSH2 0x4F44 DUP5 DUP7 PUSH2 0x489E JUMP JUMPDEST MSTORE8 DIV SWAP1 DUP2 PUSH2 0x4F05 JUMP JUMPDEST SWAP2 PUSH2 0x4F59 PUSH1 0xA SWAP2 PUSH2 0x4803 JUMP JUMPDEST SWAP3 DIV DUP1 PUSH2 0x4ED0 JUMP JUMPDEST POP PUSH1 0x40 MLOAD PUSH2 0x4F6E DUP2 PUSH2 0x2B76 JUMP JUMPDEST PUSH1 0x1 DUP2 MSTORE PUSH1 0x3 PUSH1 0xFC SHL PUSH1 0x20 DUP3 ADD MSTORE SWAP1 JUMP INVALID BLOCKHASH JUMPI DUP8 STATICCALL SLT 0xA8 0x23 0xE0 CALLCODE 0xB7 PUSH4 0x1CC41B3B 0xA8 DUP3 DUP12 CALLER 0x21 0xCA DUP2 GT GT STATICCALL PUSH22 0xCD3AA3BB5ACE161609ED0659583C4124F93794AADE20 PUSH32 0xA9FE3124C4EE08CB05A724F0E760CAB10E2D527612073B26EECDFD717E6A320C DELEGATECALL 0x4B BLOBBASEFEE STATICCALL 0xC2 0xB0 PUSH20 0x2D9FCBE2B7FA0CF6A264697066735822122068A0 EXP PUSH27 0x29389E15444354348F328B6BB9EA9F72D8977123910799405B8974 0xCA PUSH5 0x736F6C6343 STOP ADDMOD XOR STOP CALLER "},"methodIdentifiers":{"AGENT_PLATFORM()":"e55ee7eb","API_BASE()":"22edf01a","AUSD()":"2fd7d1fd","JSON_API_AGENT_ID()":"011f8b1b","LLM_AGENT_ID()":"2e90c1a9","MAX_TRADE_AGE()":"9530b30f","MIN_COPY_SCORE()":"b8ff783d","MIN_TRADE_AUSD()":"5a2d6f5d","PIPELINE_TIMEOUT()":"12bbe10c","PRICE_API_BASE()":"989a83bf","addToAllowlist(address,address[])":"1aac9197","checkLeaderActivity(address,address)":"4e17707a","closePosition(bytes32)":"e54a2ad5","createVault(address,uint256,uint8,uint8,address[])":"85f9805d","deposit(address,uint256)":"47e7ef24","followerVaults(address,uint256)":"1fb3e24e","getAllowlist(address,address)":"d01ec4a6","getFollowerVaults(address)":"572fcdcd","getFreeBalance(address,address)":"de700da6","getOpenPositions(address,address)":"e8134712","getUnrealizedPnL(address,address)":"d4805742","getVault(address,address)":"bbd7edc5","keeperOf(address)":"3c4ce221","latestPrice(address)":"53084eff","onPriceUpdate(uint256,bytes)":"d16b6921","onStrategistResponse(uint256,bytes)":"6abcf6af","onWatcherResponse(uint256,bytes)":"1f275413","owner()":"8da5cb5b","pauseVault(address)":"c0bd6f9e","pipelineActiveAt(bytes32)":"d9c91fea","positions(bytes32)":"514ea4bf","removeFromAllowlist(address,address[])":"92bc6914","requestToVault(uint256)":"8c728541","resumeVault(address)":"4e6ec0e6","setApiBase(string)":"932a1276","setKeeper(address)":"748747e6","setPriceApiBase(string)":"fe202a18","transferOwnership(address)":"f2fde38b","updatePrice(address)":"96e85ced","vaultId(address,address)":"bd44815f","vaultPositions(bytes32,uint256)":"c81e62e6","vaults(bytes32)":"cca23bf2","withdraw(address)":"51cff8d9"}}}}}