{
  "_format": "hh-sol-artifact-1",
  "contractName": "VaultManager",
  "sourceName": "contracts/VaultManager.sol",
  "abi": [
    {
      "inputs": [
        {
          "internalType": "address",
          "name": "_ausd",
          "type": "address"
        },
        {
          "internalType": "string",
          "name": "_apiBase",
          "type": "string"
        },
        {
          "internalType": "string",
          "name": "_priceApiBase",
          "type": "string"
        }
      ],
      "stateMutability": "nonpayable",
      "type": "constructor"
    },
    {
      "anonymous": false,
      "inputs": [
        {
          "indexed": true,
          "internalType": "bytes32",
          "name": "vaultId",
          "type": "bytes32"
        },
        {
          "indexed": false,
          "internalType": "address[]",
          "name": "tokens",
          "type": "address[]"
        }
      ],
      "name": "AllowlistAdded",
      "type": "event"
    },
    {
      "anonymous": false,
      "inputs": [
        {
          "indexed": true,
          "internalType": "bytes32",
          "name": "vaultId",
          "type": "bytes32"
        },
        {
          "indexed": false,
          "internalType": "address[]",
          "name": "tokens",
          "type": "address[]"
        }
      ],
      "name": "AllowlistRemoved",
      "type": "event"
    },
    {
      "anonymous": false,
      "inputs": [
        {
          "indexed": true,
          "internalType": "address",
          "name": "follower",
          "type": "address"
        },
        {
          "indexed": true,
          "internalType": "address",
          "name": "keeper",
          "type": "address"
        }
      ],
      "name": "KeeperSet",
      "type": "event"
    },
    {
      "anonymous": false,
      "inputs": [
        {
          "indexed": true,
          "internalType": "bytes32",
          "name": "positionId",
          "type": "bytes32"
        },
        {
          "indexed": true,
          "internalType": "bytes32",
          "name": "vaultId",
          "type": "bytes32"
        },
        {
          "indexed": false,
          "internalType": "int256",
          "name": "pnl",
          "type": "int256"
        },
        {
          "indexed": false,
          "internalType": "uint256",
          "name": "exitPrice",
          "type": "uint256"
        }
      ],
      "name": "PositionClosed",
      "type": "event"
    },
    {
      "anonymous": false,
      "inputs": [
        {
          "indexed": true,
          "internalType": "bytes32",
          "name": "positionId",
          "type": "bytes32"
        },
        {
          "indexed": true,
          "internalType": "bytes32",
          "name": "vaultId",
          "type": "bytes32"
        },
        {
          "indexed": false,
          "internalType": "address",
          "name": "token",
          "type": "address"
        },
        {
          "indexed": false,
          "internalType": "uint256",
          "name": "ausdAllocated",
          "type": "uint256"
        },
        {
          "indexed": false,
          "internalType": "uint256",
          "name": "entryPrice",
          "type": "uint256"
        }
      ],
      "name": "PositionOpened",
      "type": "event"
    },
    {
      "anonymous": false,
      "inputs": [
        {
          "indexed": true,
          "internalType": "address",
          "name": "token",
          "type": "address"
        },
        {
          "indexed": false,
          "internalType": "uint256",
          "name": "price",
          "type": "uint256"
        }
      ],
      "name": "PriceUpdated",
      "type": "event"
    },
    {
      "anonymous": false,
      "inputs": [
        {
          "indexed": true,
          "internalType": "bytes32",
          "name": "requestId",
          "type": "bytes32"
        },
        {
          "indexed": true,
          "internalType": "bytes32",
          "name": "vaultId",
          "type": "bytes32"
        }
      ],
      "name": "StrategistRequested",
      "type": "event"
    },
    {
      "anonymous": false,
      "inputs": [
        {
          "indexed": true,
          "internalType": "bytes32",
          "name": "requestId",
          "type": "bytes32"
        },
        {
          "indexed": true,
          "internalType": "bytes32",
          "name": "vaultId",
          "type": "bytes32"
        },
        {
          "indexed": false,
          "internalType": "uint8",
          "name": "score",
          "type": "uint8"
        },
        {
          "indexed": false,
          "internalType": "bool",
          "name": "willExecute",
          "type": "bool"
        }
      ],
      "name": "StrategistResponse",
      "type": "event"
    },
    {
      "anonymous": false,
      "inputs": [
        {
          "indexed": true,
          "internalType": "bytes32",
          "name": "vaultId",
          "type": "bytes32"
        },
        {
          "indexed": true,
          "internalType": "address",
          "name": "token",
          "type": "address"
        },
        {
          "indexed": false,
          "internalType": "uint256",
          "name": "ausdAllocated",
          "type": "uint256"
        },
        {
          "indexed": false,
          "internalType": "uint8",
          "name": "copyScore",
          "type": "uint8"
        }
      ],
      "name": "TradeCopied",
      "type": "event"
    },
    {
      "anonymous": false,
      "inputs": [
        {
          "indexed": true,
          "internalType": "bytes32",
          "name": "vaultId",
          "type": "bytes32"
        },
        {
          "indexed": false,
          "internalType": "string",
          "name": "reason",
          "type": "string"
        }
      ],
      "name": "TradeSkipped",
      "type": "event"
    },
    {
      "anonymous": false,
      "inputs": [
        {
          "indexed": true,
          "internalType": "bytes32",
          "name": "vaultId",
          "type": "bytes32"
        }
      ],
      "name": "VaultClosed",
      "type": "event"
    },
    {
      "anonymous": false,
      "inputs": [
        {
          "indexed": true,
          "internalType": "address",
          "name": "follower",
          "type": "address"
        },
        {
          "indexed": true,
          "internalType": "address",
          "name": "leader",
          "type": "address"
        },
        {
          "indexed": true,
          "internalType": "bytes32",
          "name": "vaultId",
          "type": "bytes32"
        },
        {
          "indexed": false,
          "internalType": "uint256",
          "name": "amount",
          "type": "uint256"
        }
      ],
      "name": "VaultCreated",
      "type": "event"
    },
    {
      "anonymous": false,
      "inputs": [
        {
          "indexed": true,
          "internalType": "bytes32",
          "name": "vaultId",
          "type": "bytes32"
        },
        {
          "indexed": false,
          "internalType": "uint256",
          "name": "amount",
          "type": "uint256"
        }
      ],
      "name": "VaultDeposited",
      "type": "event"
    },
    {
      "anonymous": false,
      "inputs": [
        {
          "indexed": true,
          "internalType": "bytes32",
          "name": "vaultId",
          "type": "bytes32"
        }
      ],
      "name": "VaultPaused",
      "type": "event"
    },
    {
      "anonymous": false,
      "inputs": [
        {
          "indexed": true,
          "internalType": "bytes32",
          "name": "vaultId",
          "type": "bytes32"
        }
      ],
      "name": "VaultResumed",
      "type": "event"
    },
    {
      "anonymous": false,
      "inputs": [
        {
          "indexed": true,
          "internalType": "bytes32",
          "name": "vaultId",
          "type": "bytes32"
        },
        {
          "indexed": false,
          "internalType": "uint256",
          "name": "amount",
          "type": "uint256"
        }
      ],
      "name": "VaultWithdrawn",
      "type": "event"
    },
    {
      "anonymous": false,
      "inputs": [
        {
          "indexed": true,
          "internalType": "bytes32",
          "name": "requestId",
          "type": "bytes32"
        },
        {
          "indexed": true,
          "internalType": "bytes32",
          "name": "vaultId",
          "type": "bytes32"
        }
      ],
      "name": "WatcherRequested",
      "type": "event"
    },
    {
      "anonymous": false,
      "inputs": [
        {
          "indexed": true,
          "internalType": "bytes32",
          "name": "requestId",
          "type": "bytes32"
        },
        {
          "indexed": true,
          "internalType": "bytes32",
          "name": "vaultId",
          "type": "bytes32"
        },
        {
          "indexed": false,
          "internalType": "address",
          "name": "tokenIn",
          "type": "address"
        },
        {
          "indexed": false,
          "internalType": "address",
          "name": "tokenOut",
          "type": "address"
        },
        {
          "indexed": false,
          "internalType": "uint256",
          "name": "usdValue",
          "type": "uint256"
        },
        {
          "indexed": false,
          "internalType": "uint256",
          "name": "tradeTimestamp",
          "type": "uint256"
        }
      ],
      "name": "WatcherResponse",
      "type": "event"
    },
    {
      "inputs": [],
      "name": "AGENT_PLATFORM",
      "outputs": [
        {
          "internalType": "address",
          "name": "",
          "type": "address"
        }
      ],
      "stateMutability": "view",
      "type": "function"
    },
    {
      "inputs": [],
      "name": "API_BASE",
      "outputs": [
        {
          "internalType": "string",
          "name": "",
          "type": "string"
        }
      ],
      "stateMutability": "view",
      "type": "function"
    },
    {
      "inputs": [],
      "name": "AUSD",
      "outputs": [
        {
          "internalType": "address",
          "name": "",
          "type": "address"
        }
      ],
      "stateMutability": "view",
      "type": "function"
    },
    {
      "inputs": [],
      "name": "JSON_API_AGENT_ID",
      "outputs": [
        {
          "internalType": "uint256",
          "name": "",
          "type": "uint256"
        }
      ],
      "stateMutability": "view",
      "type": "function"
    },
    {
      "inputs": [],
      "name": "LLM_AGENT_ID",
      "outputs": [
        {
          "internalType": "uint256",
          "name": "",
          "type": "uint256"
        }
      ],
      "stateMutability": "view",
      "type": "function"
    },
    {
      "inputs": [],
      "name": "MAX_TRADE_AGE",
      "outputs": [
        {
          "internalType": "uint256",
          "name": "",
          "type": "uint256"
        }
      ],
      "stateMutability": "view",
      "type": "function"
    },
    {
      "inputs": [],
      "name": "MIN_COPY_SCORE",
      "outputs": [
        {
          "internalType": "uint8",
          "name": "",
          "type": "uint8"
        }
      ],
      "stateMutability": "view",
      "type": "function"
    },
    {
      "inputs": [],
      "name": "MIN_TRADE_AUSD",
      "outputs": [
        {
          "internalType": "uint256",
          "name": "",
          "type": "uint256"
        }
      ],
      "stateMutability": "view",
      "type": "function"
    },
    {
      "inputs": [],
      "name": "PRICE_API_BASE",
      "outputs": [
        {
          "internalType": "string",
          "name": "",
          "type": "string"
        }
      ],
      "stateMutability": "view",
      "type": "function"
    },
    {
      "inputs": [
        {
          "internalType": "address",
          "name": "leader",
          "type": "address"
        },
        {
          "internalType": "address[]",
          "name": "tokens",
          "type": "address[]"
        }
      ],
      "name": "addToAllowlist",
      "outputs": [],
      "stateMutability": "nonpayable",
      "type": "function"
    },
    {
      "inputs": [
        {
          "internalType": "address",
          "name": "follower",
          "type": "address"
        },
        {
          "internalType": "address",
          "name": "leader",
          "type": "address"
        }
      ],
      "name": "checkLeaderActivity",
      "outputs": [],
      "stateMutability": "payable",
      "type": "function"
    },
    {
      "inputs": [
        {
          "internalType": "bytes32",
          "name": "positionId",
          "type": "bytes32"
        }
      ],
      "name": "closePosition",
      "outputs": [],
      "stateMutability": "nonpayable",
      "type": "function"
    },
    {
      "inputs": [
        {
          "internalType": "address",
          "name": "leader",
          "type": "address"
        },
        {
          "internalType": "uint256",
          "name": "amount",
          "type": "uint256"
        },
        {
          "internalType": "uint8",
          "name": "riskLevel",
          "type": "uint8"
        },
        {
          "internalType": "uint8",
          "name": "maxPerTradePct",
          "type": "uint8"
        },
        {
          "internalType": "address[]",
          "name": "allowlist",
          "type": "address[]"
        }
      ],
      "name": "createVault",
      "outputs": [],
      "stateMutability": "nonpayable",
      "type": "function"
    },
    {
      "inputs": [
        {
          "internalType": "address",
          "name": "leader",
          "type": "address"
        },
        {
          "internalType": "uint256",
          "name": "amount",
          "type": "uint256"
        }
      ],
      "name": "deposit",
      "outputs": [],
      "stateMutability": "nonpayable",
      "type": "function"
    },
    {
      "inputs": [
        {
          "internalType": "address",
          "name": "",
          "type": "address"
        },
        {
          "internalType": "uint256",
          "name": "",
          "type": "uint256"
        }
      ],
      "name": "followerVaults",
      "outputs": [
        {
          "internalType": "bytes32",
          "name": "",
          "type": "bytes32"
        }
      ],
      "stateMutability": "view",
      "type": "function"
    },
    {
      "inputs": [
        {
          "internalType": "address",
          "name": "follower",
          "type": "address"
        },
        {
          "internalType": "address",
          "name": "leader",
          "type": "address"
        }
      ],
      "name": "getAllowlist",
      "outputs": [
        {
          "internalType": "address[]",
          "name": "",
          "type": "address[]"
        }
      ],
      "stateMutability": "view",
      "type": "function"
    },
    {
      "inputs": [
        {
          "internalType": "address",
          "name": "follower",
          "type": "address"
        }
      ],
      "name": "getFollowerVaults",
      "outputs": [
        {
          "internalType": "bytes32[]",
          "name": "",
          "type": "bytes32[]"
        }
      ],
      "stateMutability": "view",
      "type": "function"
    },
    {
      "inputs": [
        {
          "internalType": "address",
          "name": "follower",
          "type": "address"
        },
        {
          "internalType": "address",
          "name": "leader",
          "type": "address"
        }
      ],
      "name": "getFreeBalance",
      "outputs": [
        {
          "internalType": "uint256",
          "name": "",
          "type": "uint256"
        }
      ],
      "stateMutability": "view",
      "type": "function"
    },
    {
      "inputs": [
        {
          "internalType": "address",
          "name": "follower",
          "type": "address"
        },
        {
          "internalType": "address",
          "name": "leader",
          "type": "address"
        }
      ],
      "name": "getOpenPositions",
      "outputs": [
        {
          "internalType": "bytes32[]",
          "name": "openIds",
          "type": "bytes32[]"
        }
      ],
      "stateMutability": "view",
      "type": "function"
    },
    {
      "inputs": [
        {
          "internalType": "address",
          "name": "follower",
          "type": "address"
        },
        {
          "internalType": "address",
          "name": "leader",
          "type": "address"
        }
      ],
      "name": "getUnrealizedPnL",
      "outputs": [
        {
          "internalType": "int256",
          "name": "totalPnl",
          "type": "int256"
        }
      ],
      "stateMutability": "view",
      "type": "function"
    },
    {
      "inputs": [
        {
          "internalType": "address",
          "name": "follower",
          "type": "address"
        },
        {
          "internalType": "address",
          "name": "leader",
          "type": "address"
        }
      ],
      "name": "getVault",
      "outputs": [
        {
          "components": [
            {
              "internalType": "address",
              "name": "follower",
              "type": "address"
            },
            {
              "internalType": "address",
              "name": "leader",
              "type": "address"
            },
            {
              "internalType": "uint256",
              "name": "ausdLocked",
              "type": "uint256"
            },
            {
              "internalType": "uint256",
              "name": "ausdAllocated",
              "type": "uint256"
            },
            {
              "internalType": "uint8",
              "name": "riskLevel",
              "type": "uint8"
            },
            {
              "internalType": "uint8",
              "name": "maxPerTradePct",
              "type": "uint8"
            },
            {
              "internalType": "address[]",
              "name": "allowlist",
              "type": "address[]"
            },
            {
              "internalType": "enum VaultManager.VaultStatus",
              "name": "status",
              "type": "uint8"
            }
          ],
          "internalType": "struct VaultManager.VaultConfig",
          "name": "",
          "type": "tuple"
        }
      ],
      "stateMutability": "view",
      "type": "function"
    },
    {
      "inputs": [
        {
          "internalType": "address",
          "name": "",
          "type": "address"
        }
      ],
      "name": "keeperOf",
      "outputs": [
        {
          "internalType": "address",
          "name": "",
          "type": "address"
        }
      ],
      "stateMutability": "view",
      "type": "function"
    },
    {
      "inputs": [
        {
          "internalType": "address",
          "name": "",
          "type": "address"
        }
      ],
      "name": "latestPrice",
      "outputs": [
        {
          "internalType": "uint256",
          "name": "",
          "type": "uint256"
        }
      ],
      "stateMutability": "view",
      "type": "function"
    },
    {
      "inputs": [
        {
          "internalType": "bytes32",
          "name": "requestId",
          "type": "bytes32"
        },
        {
          "internalType": "bytes",
          "name": "response",
          "type": "bytes"
        }
      ],
      "name": "onPriceUpdate",
      "outputs": [],
      "stateMutability": "nonpayable",
      "type": "function"
    },
    {
      "inputs": [
        {
          "internalType": "bytes32",
          "name": "requestId",
          "type": "bytes32"
        },
        {
          "internalType": "bytes",
          "name": "response",
          "type": "bytes"
        }
      ],
      "name": "onStrategistResponse",
      "outputs": [],
      "stateMutability": "nonpayable",
      "type": "function"
    },
    {
      "inputs": [
        {
          "internalType": "bytes32",
          "name": "requestId",
          "type": "bytes32"
        },
        {
          "internalType": "bytes",
          "name": "response",
          "type": "bytes"
        }
      ],
      "name": "onWatcherResponse",
      "outputs": [],
      "stateMutability": "nonpayable",
      "type": "function"
    },
    {
      "inputs": [
        {
          "internalType": "address",
          "name": "leader",
          "type": "address"
        }
      ],
      "name": "pauseVault",
      "outputs": [],
      "stateMutability": "nonpayable",
      "type": "function"
    },
    {
      "inputs": [
        {
          "internalType": "bytes32",
          "name": "",
          "type": "bytes32"
        }
      ],
      "name": "pipelineActive",
      "outputs": [
        {
          "internalType": "bool",
          "name": "",
          "type": "bool"
        }
      ],
      "stateMutability": "view",
      "type": "function"
    },
    {
      "inputs": [
        {
          "internalType": "bytes32",
          "name": "",
          "type": "bytes32"
        }
      ],
      "name": "positions",
      "outputs": [
        {
          "internalType": "address",
          "name": "follower",
          "type": "address"
        },
        {
          "internalType": "address",
          "name": "leader",
          "type": "address"
        },
        {
          "internalType": "bytes32",
          "name": "vaultId",
          "type": "bytes32"
        },
        {
          "internalType": "address",
          "name": "token",
          "type": "address"
        },
        {
          "internalType": "uint256",
          "name": "ausdAllocated",
          "type": "uint256"
        },
        {
          "internalType": "uint256",
          "name": "entryPrice",
          "type": "uint256"
        },
        {
          "internalType": "uint256",
          "name": "exitPrice",
          "type": "uint256"
        },
        {
          "internalType": "int256",
          "name": "pnl",
          "type": "int256"
        },
        {
          "internalType": "enum VaultManager.PositionStatus",
          "name": "status",
          "type": "uint8"
        },
        {
          "internalType": "uint256",
          "name": "openedAt",
          "type": "uint256"
        },
        {
          "internalType": "uint256",
          "name": "closedAt",
          "type": "uint256"
        }
      ],
      "stateMutability": "view",
      "type": "function"
    },
    {
      "inputs": [
        {
          "internalType": "address",
          "name": "leader",
          "type": "address"
        },
        {
          "internalType": "address[]",
          "name": "tokens",
          "type": "address[]"
        }
      ],
      "name": "removeFromAllowlist",
      "outputs": [],
      "stateMutability": "nonpayable",
      "type": "function"
    },
    {
      "inputs": [
        {
          "internalType": "bytes32",
          "name": "",
          "type": "bytes32"
        }
      ],
      "name": "requestToVault",
      "outputs": [
        {
          "internalType": "bytes32",
          "name": "",
          "type": "bytes32"
        }
      ],
      "stateMutability": "view",
      "type": "function"
    },
    {
      "inputs": [
        {
          "internalType": "address",
          "name": "leader",
          "type": "address"
        }
      ],
      "name": "resumeVault",
      "outputs": [],
      "stateMutability": "nonpayable",
      "type": "function"
    },
    {
      "inputs": [
        {
          "internalType": "address",
          "name": "keeper",
          "type": "address"
        }
      ],
      "name": "setKeeper",
      "outputs": [],
      "stateMutability": "nonpayable",
      "type": "function"
    },
    {
      "inputs": [
        {
          "internalType": "address",
          "name": "token",
          "type": "address"
        }
      ],
      "name": "updatePrice",
      "outputs": [],
      "stateMutability": "payable",
      "type": "function"
    },
    {
      "inputs": [
        {
          "internalType": "address",
          "name": "follower",
          "type": "address"
        },
        {
          "internalType": "address",
          "name": "leader",
          "type": "address"
        }
      ],
      "name": "vaultId",
      "outputs": [
        {
          "internalType": "bytes32",
          "name": "",
          "type": "bytes32"
        }
      ],
      "stateMutability": "pure",
      "type": "function"
    },
    {
      "inputs": [
        {
          "internalType": "bytes32",
          "name": "",
          "type": "bytes32"
        },
        {
          "internalType": "uint256",
          "name": "",
          "type": "uint256"
        }
      ],
      "name": "vaultPositions",
      "outputs": [
        {
          "internalType": "bytes32",
          "name": "",
          "type": "bytes32"
        }
      ],
      "stateMutability": "view",
      "type": "function"
    },
    {
      "inputs": [
        {
          "internalType": "bytes32",
          "name": "",
          "type": "bytes32"
        }
      ],
      "name": "vaults",
      "outputs": [
        {
          "internalType": "address",
          "name": "follower",
          "type": "address"
        },
        {
          "internalType": "address",
          "name": "leader",
          "type": "address"
        },
        {
          "internalType": "uint256",
          "name": "ausdLocked",
          "type": "uint256"
        },
        {
          "internalType": "uint256",
          "name": "ausdAllocated",
          "type": "uint256"
        },
        {
          "internalType": "uint8",
          "name": "riskLevel",
          "type": "uint8"
        },
        {
          "internalType": "uint8",
          "name": "maxPerTradePct",
          "type": "uint8"
        },
        {
          "internalType": "enum VaultManager.VaultStatus",
          "name": "status",
          "type": "uint8"
        }
      ],
      "stateMutability": "view",
      "type": "function"
    },
    {
      "inputs": [
        {
          "internalType": "address",
          "name": "leader",
          "type": "address"
        }
      ],
      "name": "withdraw",
      "outputs": [],
      "stateMutability": "nonpayable",
      "type": "function"
    },
    {
      "stateMutability": "payable",
      "type": "receive"
    }
  ],
  "bytecode": "0x60a060405234620003a75762004897803803806200001d81620003ac565b9283398101606082820312620003a7578151916001600160a01b038316808403620003a75760208281015190946001600160401b03939091848111620003a757856200006b918301620003d2565b946040820151858111620003a757620000859201620003d2565b911562000362576080528251908282116200034c5760008054926001958685811c9516801562000341575b888610146200032d578190601f95868111620002da575b508890868311600114620002765784926200026a575b5050600019600383901b1c191690861b1781555b8151938411620002565784548581811c911680156200024b575b878210146200023757838111620001ef575b50859284116001146200018a5783949550926200017e575b5050600019600383901b1c191690821b1790555b604051614452908162000445823960805181818161048101528181611182015281816118d201528181611faf01526121050152f35b01519050388062000135565b9190601f1984169585845280842093905b878210620001d757505083859610620001bd575b505050811b01905562000149565b015160001960f88460031b161c19169055388080620001af565b8087859682949686015181550195019301906200019b565b8582528682208480870160051c8201928988106200022d575b0160051c019086905b828110620002215750506200011d565b83815501869062000211565b9250819262000208565b634e487b7160e01b82526022600452602482fd5b90607f16906200010b565b634e487b7160e01b81526041600452602490fd5b015190503880620000dd565b8480528985208994509190601f198416865b8c828210620002c35750508411620002a9575b505050811b018155620000f1565b015160001960f88460031b161c191690553880806200029b565b8385015186558c9790950194938401930162000288565b9091508380528884208680850160051c8201928b861062000323575b918a91869594930160051c01915b82811062000314575050620000c7565b8681558594508a910162000304565b92508192620002f6565b634e487b7160e01b83526022600452602483fd5b94607f1694620000b0565b634e487b7160e01b600052604160045260246000fd5b60405162461bcd60e51b815260048101869052601560248201527f564d3a207a65726f2061555344206164647265737300000000000000000000006044820152606490fd5b600080fd5b6040519190601f01601f191682016001600160401b038111838210176200034c57604052565b919080601f84011215620003a75782516001600160401b0381116200034c5760209062000408601f8201601f19168301620003ac565b92818452828287010111620003a75760005b8181106200043057508260009394955001015290565b85810183015184820184015282016200041a56fe608080604052600436101561001d575b50361561001b57600080fd5b005b600090813560e01c908163011f8b1b146123e9575080631aac9197146122725780631fb3e24e1461222a57806322edf01a1461217f5780632c493e90146121505780632e90c1a9146121345780632fd7d1fd146120ef5780633c4ce221146120b357806347e7ef2414611f2c5780634e17707a14611bda5780634e6ec0e614611b05578063514ea4bf14611a3c57806351cff8d91461183257806353084eff146117f9578063572fcdcd146117775780635a2d6f5d14611759578063748747e6146116ef5780637c42e644146115bc57806385f9805d146110855780638b50817b1461104e57806392bc691414610f365780639530b30f14610f1957806396e85ced14610ce5578063989a83bf14610c01578063b8ff783d14610be5578063bbd7edc514610a6e578063bd44815f14610a4f578063c0bd6f9e14610960578063c81e62e614610918578063c8f6fcdf146108ee578063cca23bf214610869578063d01ec4a61461081f578063d4805742146106f9578063de700da6146106c0578063e54a2ad5146103bb578063e55ee7eb1461038c578063e8134712146102045763e9e425960361000f5734610201576101fe6101d936612631565b916101f973037bb9c718f3f7fe5ecbdb0b600d607b527067763314612889565b613b72565b80f35b80fd5b50346102015760403660031901126102015761022f610221612404565b61022961241f565b90613acb565b8152600560209060056020526040832090839284928054935b84811061032c5750610259856128d4565b94610267604051968761258c565b808652610276601f19916128d4565b013660208701378590865b85811061029a576040518061029689826125f5565b0390f35b6102a481836124bc565b9054600391821b1c895280855260ff600860408b20015416600281101561031857156102d4575b50600101610281565b6102de82846124bc565b9054911b1c6102ec84613b1a565b93885181101561030457861b880185015260016102cb565b634e487b7160e01b8a52603260045260248afd5b634e487b7160e01b8a52602160045260248afd5b61033681836124bc565b9054600391821b1c8852835260ff60086040892001541660028110156103785715610364575b600101610248565b94610370600191613b1a565b95905061035c565b634e487b7160e01b88526021600452602488fd5b5034610201578060031936011261020157602060405173037bb9c718f3f7fe5ecbdb0b600d607b527067768152f35b5034610201576020806003193601126106bc576004358083526003825260408320916008830160ff81541660028110156106a85761066b5783546001600160a01b03929083163381148015610653575b6104159150612848565b600285015494858752600282526040872092846003830154168852600a835260408820549384156105f7576004830180549661045f610454888a6128eb565b600587015490612957565b6104698982613b01565b98808211156105945750825461047e9161294a565b907f000000000000000000000000000000000000000000000000000000000000000016803b15610590576040516340c10f1960e01b815230600482015260248101839052908c908290604490829084905af1801561058557610554575b509161052960037fb8afeb408acd10e29c21161f211b1e177a3ce18923199654650821f940cff38a99979593604099979561051b60028601918254612825565b90555b54920191825461294a565b9055836006830155846007830155600160ff19825416179055600a429101558351928352820152a380f35b6001600160401b03819c929c1161057157604052996105296104db565b634e487b7160e01b82526041600452602482fd5b6040513d8e823e3d90fd5b8b80fd5b604098969492507fb8afeb408acd10e29c21161f211b1e177a3ce18923199654650821f940cff38a99979593818360039361052995106105d6575b505061051e565b6105df9161294a565b6105ee6002860191825461294a565b905538806105cf565b60405162461bcd60e51b815260048101859052602e60248201527f564d3a206e6f20707269636520617661696c61626c652c2063616c6c2075706460448201526d185d19541c9a58d948199a5c9cdd60921b6064820152608490fd5b5086526006815261041583604088205416331461040b565b60405162461bcd60e51b81526004810183905260156024820152742b269d103837b9b4ba34b7b7103737ba1037b832b760591b6044820152606490fd5b634e487b7160e01b86526021600452602486fd5b5080fd5b5034610201576040366003190112610201576106f160406020926106e5610221612404565b81526002845220613d09565b604051908152f35b503461020157604036600319011261020157610713612404565b61072561071e61241f565b8392613acb565b825260056020906005602052604084209084928254925b83851061074e57602086604051908152f35b909192939461075d86836124bc565b9054600391821b1c8852808452604088209060ff600883015416600281101561031857610809578101546001600160a01b03168852600a845260408820549081158015610814575b61080957906107ca82876107c160046107cf96015494856128eb565b91015490612957565b613b01565b908782820192831291129080158216911516176107f557600190955b019392919061073c565b634e487b7160e01b87526011600452602487fd5b5050946001906107eb565b5085810154156107a5565b5034610201576040366003190112610201576108556005604061029693610847610221612404565b815260026020522001613a6f565b60405191829160208352602083019061267d565b503461020157602036600319011261020157604060e09160043581526002602052206108ec60018060a01b039160ff838254169360018301541691600281015460038201549083600660048501549401541694604051978852602088015260408701526060860152818116608086015260081c1660a084015260c08301906126ba565bf35b50346102015760203660031901126102015760406020916004358152600783522054604051908152f35b50346102015760403660031901126102015760243590600435815260056020526040812090815483101561020157602061095284846124bc565b90546040519160031b1c8152f35b50346102015760203660031901126102015761098361097d612404565b33613acb565b808252600260205260408220546109a4906001600160a01b0316331461271b565b808252600260205260ff6006604084200154166003811015610a3b57610a0557808252600260205260408220600601805460ff191660011790557f7ca948eddccf3a65f738292fe09d47dd38a0616763f1a1a78715430c7a18a18b8280a280f35b60405162461bcd60e51b815260206004820152600e60248201526d564d3a206e6f742061637469766560901b6044820152606490fd5b634e487b7160e01b83526021600452602483fd5b50346102015760403660031901126102015760206106f1610221612404565b503461020157604036600319011261020157610ad2610a8b612404565b610a9361241f565b908360e0604051610aa381612524565b8281528260208201528260408201528260608201528260808201528260a0820152606060c08201520152613acb565b815260026020526040812060405190610aea82612524565b60018060a01b039081815416835281600182015416916020840192835260028201549060408501918252600383015460608601908152600484015492608087019260ff8516845260ff60a089019560081c16855260ff6006610b4e60058901613a6f565b9760c08b019889520154169660e08901976003811015610bd15793610296969360ff95938a999793879560209c52816040519d8e9d8e52511660208d0152511660408b01525160608a0152516080890152511660a0870152511660c085015251610bc6610100918260e087015261012086019061267d565b9251908401906126ba565b634e487b7160e01b8b52602160045260248bfd5b50346102015780600319360112610201576020604051600a8152f35b503461020157806003193601126102015760405190808260019260015493610c28856124ea565b9384845260209586600182169182600014610cc3575050600114610c69575b5050610c559250038361258c565b6102966040519282849384528301906125d0565b90859250600182527fb10e2d527612073b26eecdfd717e6a320cf44b4afac2b0732d9fcbe2b7fa0cf65b858310610cab575050610c5593508201013880610c47565b80548389018501528794508693909201918101610c93565b9250935050610c5594915060ff191682840152151560051b8201013880610c47565b506020908160031936011261020157610cfc612404565b6001600160a01b038116908115610ee357610d1690613d5b565b92604051836001805490610d29826124ea565b9160018116908115610ec55750600114610e6f575b505090610db06040828585610d5f8b8398610dd99b9c9d51948592016125ad565b0103610d73601f199182810186528561258c565b66242e707269636560c81b85610d94845196858389015260608801906125d0565b868103938401858801526007815201528481018452018261258c565b604051809481926322e05a0160e21b8352600160048401526080602484015260848301906125d0565b306044830152631f10b99160e21b606483015203813473037bb9c718f3f7fe5ecbdb0b600d607b527067765af18015610e64578490610e32575b8452600b9052506040822080546001600160a01b031916909117905580f35b508082813d8311610e5d575b610e48818361258c565b81010312610e5957600b9151610e13565b8380fd5b503d610e3e565b6040513d86823e3d90fd5b6001875290915085907fb10e2d527612073b26eecdfd717e6a320cf44b4afac2b0732d9fcbe2b7fa0cf65b838310610eb25750505081018201610db06040610d3e565b8054858401870152918501918101610e9a565b60ff191686860152505080151502820183019050610db06040610d3e565b60405162461bcd60e51b815260048101859052600e60248201526d2b269d103d32b937903a37b5b2b760911b6044820152606490fd5b5034610201578060031936011261020157602060405161012c8152f35b503461020157610f56610f4836612479565b92909161097d8415156126dd565b80845260026020526040842054909290610f7a906001600160a01b0316331461271b565b828452600260205260408420600501845b82811061102957505415610fd0577f89216286babe3a315db35c8a44501c50b04e4af6db52228800178fa93abbcfa691610fca60405192839283612780565b0390a280f35b60405162461bcd60e51b815260206004820152602b60248201527f564d3a2063616e6e6f742072656d6f766520616c6c20746f6b656e732066726f60448201526a1b48185b1b1bdddb1a5cdd60aa1b6064820152608490fd5b8061104861104261103d600194878961275c565b61276c565b84613e87565b01610f8b565b5034610201576101fe61106036612631565b9161108073037bb9c718f3f7fe5ecbdb0b600d607b527067763314612889565b612977565b50346102015760a03660031901126102015761109f612404565b6024604491823560ff81168091036115b8576064803560ff81168091036115b4576084356001600160401b0381116115b0576110df903690600401612449565b90929091906001600160a01b03861615158061159d575b156115685760018510158061155d575b156115285760018210158061151e575b156114eb57821561149857863515611465576111328633613acb565b808a52600260205260408a20549098906001600160a01b03166114245750506040516323b872dd60e01b8152336004820152306024820152863560448201526020816064818c6001600160a01b037f0000000000000000000000000000000000000000000000000000000000000000165af18015611419576111bb918a916113ea575b506127e4565b604051936111c885612524565b3385526001600160a01b03861660208601528635604086015260608501899052608085015260a08401526111fb816128d4565b91611209604051938461258c565b8183526020830190368360051b8201116113e65780915b8360051b820183106113ce575050505060c08201528460e082015283855260026020526040852060018060a01b038251166001600160601b0360a01b9081835416178255600182019060018060a01b036020850151169082541617905560408201516002820155606082015160038201556004810160ff60808401511681549061ff0060a086015160081b169161ffff1916171790556005810160c0830151908151916001600160401b0383116113bb57600160401b83116113bb5760209082548484558085106113a1575b500190885260208820885b8381106113845750505050600660e0910191015160038110156113715760ff8019835416911617905533845260046020526113358360408620612915565b604051913582526001600160a01b03169033907f6195d111f124dc39cb1ab083f9f1b6664e415bf60b71499b3a4b24cf07c337a890602090a480f35b634e487b7160e01b865260216004528386fd5b82516001600160a01b0316818301556020909201916001016112f7565b838b52828b206113b59181019086016128fe565b386112ec565b634e487b7160e01b895260416004528689fd5b602080916113db85612435565b815201920191611220565b8880fd5b61140c915060203d602011611412575b611404818361258c565b8101906127cc565b386111b5565b503d6113fa565b6040513d8b823e3d90fd5b7f564d3a207661756c7420616c7265616479206578697374730000000000000000889160186040519362461bcd60e51b855260206004860152840152820152fd5b60405162461bcd60e51b8152602060048201526010818901526f15934e881e995c9bc819195c1bdcda5d60821b818a0152fd5b8667696c6c20636f707960c01b6084927f564d3a20616c6c6f776c69737420656d7074792c206e6f2074726164657320778b60286040519562461bcd60e51b875260206004880152860152840152820152fd5b60405162461bcd60e51b8152602060048201526010818901526f0564d3a206d617850637420312d3130360841b818a0152fd5b5080821115611116565b60405162461bcd60e51b815260206004820152601281890152710564d3a207269736b4c6576656c20312d31360741b818a0152fd5b50600a851115611106565b60405162461bcd60e51b815260206004820152601281890152712b269d1034b73b30b634b2103632b0b232b960711b818a0152fd5b506001600160a01b0386163314156110f6565b8780fd5b8680fd5b8480fd5b5034610201576115cb36612631565b906115eb73037bb9c718f3f7fe5ecbdb0b600d607b527067763314612889565b828452600b602090815260408520546001600160a01b03169390929084156116aa578552600b83526040852080546001600160a01b031916905581018190038213610e595735801561167157907f0d86730737b142fc160892fa8a0f2db687a92a0e294d1ad70624cf5acef03b8491838552600a8252806040862055604051908152a280f35b60405162461bcd60e51b8152600481018390526011602482015270564d3a20696e76616c696420707269636560781b6044820152606490fd5b60405162461bcd60e51b815260048101859052601960248201527f564d3a20756e6b6e6f776e2070726963652072657175657374000000000000006044820152606490fd5b503461020157602036600319011261020157611709612404565b3380835260066020526040832080546001600160a01b0319166001600160a01b0390931692831790557f50697e88bd427923002f5d3844f352091c05c0c9c3b69e43830863d2224631738380a380f35b50346102015780600319360112610201576020604051620f42408152f35b5034610201576020806003193601126106bc576001600160a01b0361179a612404565b1682526004602052604082209160405180926020855492838152019483526020832092905b8282106117e257610296856117d68189038261258c565b604051918291826125f5565b8354865294850194600193840193909101906117bf565b5034610201576020366003190112610201576020906040906001600160a01b03611821612404565b168152600a83522054604051908152f35b5034610201576020806003193601126106bc5761185061097d612404565b90818352600281526040832060018060a01b0361187133828454161461271b565b6006820180549260ff8416600381101561037857600214611a025760038101546119bd57600290810180549088905560ff199490941617905560405163a9059cbb60e01b8152336004820152602481018390529083908290604490829089907f0000000000000000000000000000000000000000000000000000000000000000165af19081156119b2578591611995575b501561195a5782917f1de10dc7adf633383767e576a9953d1b3c4f31a05c1635d7656d25604aca6b1f91604051908152a27fd06ef1be920eaf099a4e446ec48846abae39f5eb6b0877fea0913a68731af5518280a280f35b60405162461bcd60e51b815260048101839052601360248201527215934e881dda5d1a191c985dc819985a5b1959606a1b6044820152606490fd5b6119ac9150833d851161141257611404818361258c565b38611902565b6040513d87823e3d90fd5b60405162461bcd60e51b815260048101869052601e60248201527f564d3a20636c6f7365206f70656e20706f736974696f6e7320666972737400006044820152606490fd5b60405162461bcd60e51b815260048101869052601260248201527115934e88185b1c9958591e4818db1bdcd95960721b6044820152606490fd5b503461020157602036600319011261020157600435815260036020526040812060018060a01b03808254169181600182015416916002820154906003830154166004830154600584015460068501549160078601549360ff60088801541695600a6009890154980154986040519a8b5260208b015260408a01526060890152608088015260a087015260c086015260e08501526002811015611af1576101609450610100840152610120830152610140820152f35b634e487b7160e01b85526021600452602485fd5b503461020157602036600319011261020157611b2261097d612404565b80825260026020526040822054611b43906001600160a01b0316331461271b565b808252600260205260ff6006604084200154166003811015610a3b57600103611ba457808252600260205260408220600601805460ff191690557fa7b437a7c0be1eaaad481743f822acf86d00e9707a0c18a609f0e3ad97370ba88280a280f35b60405162461bcd60e51b815260206004820152600e60248201526d15934e881b9bdd081c185d5cd95960921b6044820152606490fd5b50604036600319011261020157611bef612404565b90611c24611bfb61241f565b928390611c1f336001600160a01b03808416918214918215611f13575b5050612848565b613acb565b8082526020600281526040832060ff6006820154166003811015611af157611ed7578284526009825260ff604085205416611e9257611c66620f424091613d09565b1115611e4e578183526009815260408320611c8f60019560ff1992600184825416179055613d5b565b946040519185918654611ca1816124ea565b9260018216918215611e33575050600114611dde575b505090611cfa600c828585611cd88b8398611d3e9b9c9d51948592016125ad565b016b02f6c61746573742d737761760a41b81520360131981018452018261258c565b610db06040611d14815193828686015260608501906125d0565b650242e737761760d41b8585830392601f198401858801526006815201528481018452018261258c565b306044830152638b50817b60e01b606483015203813473037bb9c718f3f7fe5ecbdb0b600d607b527067765af1918215610e64578492611dae575b50600790828552528160408420557f475c2a67ead2c59d50f20474835961db7e1689b6b1972ff56ef9fc5309ce7be78380a380f35b9080925081813d8311611dd7575b611dc6818361258c565b81010312610e595751906007611d79565b503d611dbc565b86805290915085907f290decd9548b62a8d60345a988386fc84ba6bc95484008f6362f93160ef3e5635b838310611e205750505081018201611cfa600c611cb7565b8054858401870152918501918101611e08565b1686860152505080151502820183019050611cfa600c611cb7565b6064906040519062461bcd60e51b82526004820152601d60248201527f564d3a20696e73756666696369656e7420667265652062616c616e63650000006044820152fd5b60405162461bcd60e51b815260048101839052601c60248201527f564d3a20706970656c696e6520616c72656164792072756e6e696e67000000006044820152606490fd5b60405162461bcd60e51b8152600481018390526014602482015273564d3a207661756c74206e6f742061637469766560601b6044820152606490fd5b9091508652600660205260408620541633143880611c18565b503461020157604036600319011261020157611f46612404565b611f536024359133613acb565b9081835260206002815260ff6006604086200154166003811015611af15760021461207c578115612046576040516323b872dd60e01b815233600482015230602482015260448101839052918183606481886001600160a01b037f0000000000000000000000000000000000000000000000000000000000000000165af19283156119b2577ff4d5f4313db9d90750b55863740862117f1a26005f470df515d532580be167b29361200a91879161202f57506127e4565b8385526002825260026040862001612023828254612825565b9055604051908152a280f35b61140c9150843d861161141257611404818361258c565b6064906040519062461bcd60e51b82526004820152600f60248201526e15934e881e995c9bc8185b5bdd5b9d608a1b6044820152fd5b6064906040519062461bcd60e51b82526004820152601060248201526f15934e881d985d5b1d0818db1bdcd95960821b6044820152fd5b5034610201576020366003190112610201576020906001600160a01b0390604090826120dd612404565b16815260068452205416604051908152f35b50346102015780600319360112610201576040517f00000000000000000000000000000000000000000000000000000000000000006001600160a01b03168152602090f35b5034610201578060031936011261020157602060405160028152f35b50346102015760203660031901126102015760ff60406020926004358152600984522054166040519015158152f35b50346102015780600319360112610201576040519080828254916121a2836124ea565b9283835260209460019186600182169182600014610cc35750506001146121d1575050610c559250038361258c565b908592508180527f290decd9548b62a8d60345a988386fc84ba6bc95484008f6362f93160ef3e5635b858310612212575050610c5593508201013880610c47565b805483890185015287945086939092019181016121fa565b503461020157604036600319011261020157612244612404565b6001600160a01b031681526004602052604081208054602435929083101561020157602061095284846124bc565b5034610201576122949061228536612479565b9161097d8395929515156126dd565b90818352602093600260205260018060a01b036122b833826040882054161461271b565b83855260026020526040852060050195855b84811061230657505050907f6daa1ff9696b2f02619a3f88b4b180ef2a65d070354484a2689f745bd640b76491610fca60405192839283612780565b8261231561103d83888861275c565b16156123ab5761233261232c61103d83888861275c565b89613cbe565b15612340575b6001016122ca565b61234e61103d82878761275c565b8854600160401b8110156123975760019291612372828561239094018d558c6124bc565b90919060018060a01b038084549260031b9316831b921b1916179055565b9050612338565b634e487b7160e01b89526041600452602489fd5b60405162461bcd60e51b8152600481018390526016602482015275564d3a207a65726f20746f6b656e206164647265737360501b6044820152606490fd5b9050346106bc57816003193601126106bc5780600160209252f35b600435906001600160a01b038216820361241a57565b600080fd5b602435906001600160a01b038216820361241a57565b35906001600160a01b038216820361241a57565b9181601f8401121561241a578235916001600160401b03831161241a576020808501948460051b01011161241a57565b90604060031983011261241a576004356001600160a01b038116810361241a5791602435906001600160401b03821161241a576124b891600401612449565b9091565b80548210156124d45760005260206000200190600090565b634e487b7160e01b600052603260045260246000fd5b90600182811c9216801561251a575b602083101461250457565b634e487b7160e01b600052602260045260246000fd5b91607f16916124f9565b61010081019081106001600160401b0382111761254057604052565b634e487b7160e01b600052604160045260246000fd5b606081019081106001600160401b0382111761254057604052565b604081019081106001600160401b0382111761254057604052565b90601f801991011681019081106001600160401b0382111761254057604052565b60005b8381106125c05750506000910152565b81810151838201526020016125b0565b906020916125e9815180928185528580860191016125ad565b601f01601f1916010190565b602090602060408183019282815285518094520193019160005b82811061261d575050505090565b83518552938101939281019260010161260f565b604060031982011261241a57600435916024356001600160401b039283821161241a578060238301121561241a57816004013593841161241a576024848301011161241a576024019190565b90815180825260208080930193019160005b82811061269d575050505090565b83516001600160a01b03168552938101939281019260010161268f565b9060038210156126c75752565b634e487b7160e01b600052602160045260246000fd5b156126e457565b60405162461bcd60e51b815260206004820152600f60248201526e564d3a20656d70747920617272617960881b6044820152606490fd5b1561272257565b60405162461bcd60e51b815260206004820152601260248201527115934e881b9bdd081e5bdd5c881d985d5b1d60721b6044820152606490fd5b91908110156124d45760051b0190565b356001600160a01b038116810361241a5790565b909160406020928260208201602083525201929160005b8281106127a5575050505090565b909192938280600192838060a01b036127bd89612435565b16815201950193929101612797565b9081602091031261241a5751801515810361241a5790565b156127eb57565b60405162461bcd60e51b815260206004820152601260248201527115934e8819195c1bdcda5d0819985a5b195960721b6044820152606490fd5b9190820180921161283257565b634e487b7160e01b600052601160045260246000fd5b1561284f57565b60405162461bcd60e51b815260206004820152601260248201527115934e881b9bdd08185d5d1a1bdc9a5e995960721b6044820152606490fd5b1561289057565b606460405162461bcd60e51b815260206004820152602060248201527f564d3a2063616c6c6572206973206e6f74206167656e7420706c6174666f726d6044820152fd5b6001600160401b0381116125405760051b60200190565b8181029291811591840414171561283257565b818110612909575050565b600081556001016128fe565b8054600160401b81101561254057612932916001820181556124bc565b819291549060031b91821b91600019901b1916179055565b9190820391821161283257565b8115612961570490565b634e487b7160e01b600052601260045260246000fd5b919060009183835260076020526040832054938415613a2a57808452600760205283604081205584845260026020526040842060a08484810103126115b8576129bf84612435565b6129cb60208601612435565b94876080820135947fa84f2d5f6dc3e2d48faf97fdf254a0792c7bc3785bee1df107ff0d1ee596453e608060018060a01b03958660405191168152868b16602082015260408601356040820152886060820152a361012c612a2c854261294a565b116139dc57612a4082871660058501613cbe565b1561398357612a4e83613d09565b94620f424086111561392257888852600860205260408820906001600160401b03811161239757612a7f82546124ea565b601f81116138e7575b508089601f8211600114613882578a91613877575b508160011b916000199060031b1c19161790555b6002830154906004840154916064612acf60ff8560081c16836128eb565b049487861161386f575b60018591015416978481168a52600a602052612afa60408b2054974261294a565b96821561386857606489028981046064148a1517156138545783612b1d91612957565b955b604080517f596f75206172652061207269736b206d616e6167656d656e7420656e67696e6560208201527f20666f722041696f6e69732c206120636f70792d74726164696e6720706c6174918101919091526f3337b9369037b71029b7b6b734b0970560811b60608201527f4576616c75617465207468652074726164652062656c6f7720616e642064656360708201527f69646520776861742070657263656e74616765206f662074686520666f6c6c6f60908201527f776572207661756c7420746f20616c6c6f636174652e0a0a000000000000000060b08201527f4f55545055543a20526573706f6e642077697468204f4e4c5920612073696e6760c88201527f6c6520696e746567657220302d3130302e204e6f206578706c616e6174696f6e60e88201527f2e204e6f20746578742e204a75737420746865206e756d6265722e0a0a0000006101088201526e29a1a7a924a7239029a1a0a6229d0560891b6101258201527f20203020202020202020203d20736b6970207468697320747261646520656e746101348201526534b932b63c8560d11b6101548201527f2020312d333320202020203d206c6f7720636f6e666964656e6365202028736d61015a8201526f30b6361030b63637b1b0ba34b7b7148560811b61017a8201527f202033342d3636202020203d206d656469756d20636f6e666964656e6365202061018a820152751436b7b232b930ba329030b63637b1b0ba34b7b7148560511b6101aa8201527f202036372d3939202020203d206869676820636f6e666964656e6365202028736101c08201527f69676e69666963616e7420616c6c6f636174696f6e290a0000000000000000006101e08201527f20203130302020202020203d206d6178696d756d20636f6e666964656e6365206101f78201527f202866756c6c206d61782d7065722d747261646520616c6c6f636174696f6e2961021782015261050560f11b6102378201527320a62627a1a0aa24a7a7102327a926aaa6209d0560611b6102398201527f2020616c6c6f636174696f6e203d202873636f7265202f20313030292078206d61024d8201526c30bc2fb832b92fba3930b2328560991b61026d8201527f20204578616d706c653a2073636f72653d36302c206d61785f7065725f74726161027a8201527f64653d24323030202d3e202431323020616c6c6f63617465642066726f6d207661029a8201526530bab63a050560d11b6102ba8201526102a081529a6001600160401b036102c08d01908111908d1117613840576102c08c01604052612ed890613d5b565b9216612ee390613d5b565b9360400135620f42409004612ef790614341565b97612f0190614341565b906402540be4009004612f1390614341565b906040519889936d169696902a2920a222901696968560911b6020860152602e85017102632b0b232b9103bb0b63632ba1d101010160751b905280519081604087019160200191612f63926125ad565b840195600560f91b96876040820152604181017102a37b5b2b7103137bab3b43a1d10101010160751b905281519182605383019160200191612fa4926125ad565b018660538201526054810172151c985919481554d1081d985b1d594e880809606a1b905281519182606783019160200191612fde926125ad565b01856067820152606881017102a3930b2329030b3b29d10101010101010160751b905281519182607a83019160200191613017926125ad565b0165399030b3b78560d11b607a820152608081017210dd5c9c995b9d081c1c9a58d94e8808080809606a1b90528151918260938301916020019161305a926125ad565b016f10143c18b29898103ab734ba3994850560811b60938201520360838101875260a301613088908761258c565b620f4240900461309790614341565b95620f424090046130a790614341565b926130b190614341565b93620f424090046130c190614341565b9160ff166130ce90614341565b9160405194859460208601987f2d2d2d20464f4c4c4f574552205641554c54202d2d2d0a0000000000000000008a52603787017215985d5b1d081d1bdd185b0e88080808080809606a1b905280519081604a89019160200191613130926125ad565b860184604a820152604b810172119c99594818985b185b98d94e880808080809606a1b905281519182605e8301916020019161316b926125ad565b01605e810161040560f31b90528151918260608301916020019161318e926125ad565b016b129037b3103b30bab63a148560a11b6060820152606c81017213585e081c195c881d1c9859194e8808080809606a1b905281519182607f830191602001916131d7926125ad565b0190607f820152608081017102934b9b5903a37b632b930b731b29d1010160751b905281519182609283019160200191613210926125ad565b0164179898050560d91b609282015203607781018252609701613233908261258c565b604080517f2d2d2d2052554c455320286170706c79207374726963746c7920696e206f7264602082019081526732b914901696968560c11b928201929092527f312e20496620667265652062616c616e6365203c202431202d3e207265747572604882015264371018170560d91b60688201527f322e20496620747261646520616765203e2031323073202d3e2072657475726e606d820152721018101439ba30b6329039b4b3b730b614970560691b608d8201527f332e204966207472616465205553442076616c7565203c202435202d3e20726560a08201527f7475726e203020286e6f6973652074726164652c2069676e6f7265292e0a000060c08201527f342e20496620667265652062616c616e6365203c20243130202d3e207265747560de8201527f726e203020287661756c74206e6561726c7920656d707479292e0a0a0000000060fe820152732924a9a59029a1a7a9229021a2a4a624a7239d0560611b61011a8201527f20205269736b20312d3220202d3e206d61782073636f72652032300a0000000061012e8201527f20205269736b20332d3420202d3e206d61782073636f72652034300a0000000061014a8201527f20205269736b20352d3620202d3e206d61782073636f72652036350a000000006101668201527f20205269736b20372d3820202d3e206d61782073636f72652038350a000000006101828201527f20205269736b20392d3130202d3e206d61782073636f7265203130300a0a000061019e8201527f465245452042414c414e43452050454e414c544945533a0a00000000000000006101bc8201527f2020467265652062616c616e6365203c20313025206f66207661756c7420202d6101d4820152751f103932b23ab1b29039b1b7b93290313c901998128560511b6101f48201527f202054726164652073697a65203e2031307820667265652062616c616e63652061020a8201527f2d3e207265647563652073636f7265206279203530250a0a000000000000000061022a8201527421a7a72324a222a721a2902127a7a9aa22a9299d0560591b6102428201527f2020547261646520616765203c2031307320202020202020202020202020202d6102578201527f3e2061646420757020746f20313020746f2073636f72652028766572792066726102778201526432b9b4148560d91b6102978201527f20205472616465205553442076616c7565203e2024353030202020202020202d61029c8201527f3e207369676e69666963616e74206d6f76652c207765696768742068696768656102bc82015261390560f11b6102dc8201527f20205472616465205553442076616c7565203e2024313030302020202020202d6102de8201527f3e206d616a6f7220706f736974696f6e206279206c65616465720a0a000000006102fe8201527f526573706f6e64207769746820612073696e676c6520696e746567657220302d61031a820152631898181760e11b61033a82015261031e815261034080820196919590949293909290916001600160401b038811878910176123975794613746948761370d8a96613723966136fe60209c9761376f9f9e9c6137389d6040526136da61036097602092899381519485930191016125ad565b89016136f0825160209381948a850191016125ad565b0191518093868401906125ad565b019185519384918401906125ad565b01010361033f198101835261031f19018261258c565b604051928391858084015260408301906125d0565b03601f19810183528261258c565b604051809481926322e05a0160e21b8352600260048401526080602484015260848301906125d0565b3060448301526374f212cb60e11b606483015203818473037bb9c718f3f7fe5ecbdb0b600d607b527067765af19182156138335781926137df575b5080827f8df036c7f8f7abba90aaa45adc08c00dc16e017713fd45e09ae7422c4d113a499252600760205283604082205580a3565b9091506020813d60201161382b575b816137fb6020938361258c565b810103126106bc5751907f8df036c7f8f7abba90aaa45adc08c00dc16e017713fd45e09ae7422c4d113a496137aa565b3d91506137ee565b50604051903d90823e3d90fd5b634e487b7160e01b8d52604160045260248dfd5b634e487b7160e01b8c52601160045260248cfd5b8a95612b1f565b879550612ad9565b905083013538612a9d565b9150828a5260208a208a925b601f19831684106138cf576001935082601f198116106138b5575b5050811b019055612ab1565b850135600019600384901b60f8161c1916905538806138a9565b8581013582556020938401936001909201910161388e565b61391290838b5260208b20601f840160051c81019160208510613918575b601f0160051c01906128fe565b38612a88565b9091508190613905565b50505050505050816040926000805160206143fd8339815191526060855160208152601960208201527f696e73756666696369656e7420667265652062616c616e63650000000000000087820152a28152600960205220805460ff19169055565b505050505050816040926000805160206143fd833981519152606085516020815260166020820152751d1bdad95b881b9bdd081a5b88185b1b1bdddb1a5cdd60521b87820152a28152600960205220805460ff19169055565b505050505050816040926000805160206143fd8339815191526060855160208152600b60208201526a7374616c6520747261646560a81b87820152a28152600960205220805460ff19169055565b60405162461bcd60e51b815260206004820152601b60248201527f564d3a20756e6b6e6f776e2077617463686572207265717565737400000000006044820152606490fd5b90604051918281549182825260209260208301916000526020600020936000905b828210613aa857505050613aa69250038361258c565b565b85546001600160a01b031684526001958601958895509381019390910190613a90565b6040519060208201926001600160601b0319809260601b16845260601b16603482015260288152613afb81612556565b51902090565b8181039291600013801582851316918412161761283257565b60001981146128325760010190565b613b3381546124ea565b9081613b3d575050565b81601f60009311600114613b4f575055565b908083918252613b6e601f60208420940160051c8401600185016128fe565b5555565b9190916000918183526020916007835260409485852054928315613c7a57818591848852600783528789812055810103126115b857600993929190356064811115613c7157506064905b8260ff8316917ffa8cd370ed165419bee5744cd0cf123578c057a1384f8aee00a20891dfc6fbce89600a8510948151908152851589820152a3613c2357613c039082613f4c565b80845260088252613c15858520613b29565b83525220805460ff19169055565b50806000805160206143fd83398151915260608751858152601586820152741cd8dbdc994818995b1bddc81d1a1c995cda1bdb19605a1b89820152a280845260088252613c15858520613b29565b60ff1690613bbc565b865162461bcd60e51b815260048101869052601e60248201527f564d3a20756e6b6e6f776e2073747261746567697374207265717565737400006044820152606490fd5b9060005b8254811015613d0157613cd581846124bc565b905460039190911b1c6001600160a01b0390811690831614613cf957600101613cc2565b505050600190565b505050600090565b600260038201549101549081811015613d2857613d259161294a565b90565b5050600090565b6001600160401b03811161254057601f01601f191660200190565b9081518110156124d4570160200190565b604051906001600160601b03199060601b1660208201526014808252613d8082612571565b60405190613d8d82612571565b601082526f181899199a1a9b1b9c1cb0b131b232b360811b602083015260405192613db784612556565b602a84526020840160403682378451156124d45760309053835192600193600110156124d4576078602186015360005b838110613df657505050505090565b6001600160f81b03199081613e18613e0e8387613d4a565b5160fc1c85613d4a565b51169181871b926002908385048214841517156128325784820180921161283257613e479060001a918a613d4a565b53613e62600f613e578488613d4a565b5160f81c1685613d4a565b511691600390810180911161283257613e80879360001a9189613d4a565b5301613de7565b6000915b81549283811015613f3257613ea081846124bc565b90546003956001600160a01b0392909190871b1c821684831614613eca5750506001019250613e8b565b909250600019918282019182116128325761237284613eec613efa94886124bc565b905490891b1c1691866124bc565b82548015613f1c570192613f0e84846124bc565b81939154921b1b1916905555565b634e487b7160e01b600052603160045260246000fd5b50505050565b51906001600160a01b038216820361241a57565b8060005260026020526040600020916008602052604060002060405190600082825491613f78836124ea565b92838352602083019460019160018116908160001461431f57506001146142dd575b5050613fa89250038361258c565b60a08280518101031261241a57613fbe90613f38565b506080613fcd60408301613f38565b9101516001600160a01b03821694613fe481613d09565b916064614000600284015460ff600486015460081c16906128eb565b048381116142d6575b61401960649160ff8816906128eb565b0492620f424084106142865780841161427e575b506000878152600a60205260409020549081156142765750935b614052600c54613b1a565b9384600c556040519460208601918883524260408801526001600160601b03199060601b16606087015260748601526074855260a08501906001600160401b039086831082841117612540576040839052865190208454600186015491926001600160a01b0392831692919091169061020089019081118582101761254057604052835260c087015260e086018881528961010088015285610120880152876101408801526000610160880152600061018088015260006101a0880152426101c088015260006101e088015281600052600360205260406000209260018060a01b03905116906001600160601b0360a01b91828554161784556001840160018060a01b0360c08a01511683825416179055516002840155600383019060018060a01b0361010089015116908254161790556101208601516004830155610140860151600583015561016086015160068301556101808601516007830155600882016101a087015160028110156126c7577f0fac05f01c50ae793f1a1fb2912053546d62525ac2dfad4adbc641f37c09bf8a98600360ff978c96600a6101e060409d7fb1eefddb5e15079c801481dd2d9558f62b8d6e4ba1d15d3e8da341e1d07ccd18986060988e801983541691161790556101c081015160098501550151910155866000526005602052614249868c600020612915565b01614255898254612825565b90558851908c825288602083015289820152a38351928352166020820152a3565b905093614047565b92503861402d565b50505050505090506000805160206143fd833981519152606060405160208152601e60208201527f616c6c6f636174656420616d6f756e742062656c6f77206d696e696d756d00006040820152a2565b5082614009565b6000908152602081209092505b8483106143045750613fa893505081016020013880613f9a565b81935090816020925483858a010152019101909185926142ea565b60ff1916875250613fa894151560051b84016020019250389150819050613f9a565b80156143de5780816000925b6143ca57508061435c83613d2f565b9261436a604051948561258c565b808452601f1961437982613d2f565b01366020860137905b61438b57505090565b8015612832576000190190600a90603082820681018091116128325760f81b6001600160f81b03191660001a6143c18486613d4a565b53049081614382565b916143d6600a91613b1a565b92048061434d565b506040516143eb81612571565b60018152600360fc1b60208201529056fe161609ed0659583c4124f93794aade207fa9fe3124c4ee08cb05a724f0e760caa2646970667358221220d5e599e6d1a2cffda896e0a2f02f20c6634bf8e6252880f2b8a4a43202f59b5a64736f6c63430008180033",
  "linkReferences": {},
  "deployedLinkReferences": {}
}