{
  "_format": "hh-sol-artifact-1",
  "contractName": "VaultManager",
  "sourceName": "contracts/VaultManager.sol",
  "abi": [
    {
      "inputs": [
        {
          "internalType": "address",
          "name": "_ausd",
          "type": "address"
        },
        {
          "internalType": "string",
          "name": "_apiBase",
          "type": "string"
        },
        {
          "internalType": "string",
          "name": "_priceApiBase",
          "type": "string"
        }
      ],
      "stateMutability": "nonpayable",
      "type": "constructor"
    },
    {
      "anonymous": false,
      "inputs": [
        {
          "indexed": true,
          "internalType": "bytes32",
          "name": "vaultId",
          "type": "bytes32"
        },
        {
          "indexed": false,
          "internalType": "address[]",
          "name": "tokens",
          "type": "address[]"
        }
      ],
      "name": "AllowlistAdded",
      "type": "event"
    },
    {
      "anonymous": false,
      "inputs": [
        {
          "indexed": true,
          "internalType": "bytes32",
          "name": "vaultId",
          "type": "bytes32"
        },
        {
          "indexed": false,
          "internalType": "address[]",
          "name": "tokens",
          "type": "address[]"
        }
      ],
      "name": "AllowlistRemoved",
      "type": "event"
    },
    {
      "anonymous": false,
      "inputs": [
        {
          "indexed": true,
          "internalType": "address",
          "name": "follower",
          "type": "address"
        },
        {
          "indexed": true,
          "internalType": "address",
          "name": "keeper",
          "type": "address"
        }
      ],
      "name": "KeeperSet",
      "type": "event"
    },
    {
      "anonymous": false,
      "inputs": [
        {
          "indexed": true,
          "internalType": "bytes32",
          "name": "positionId",
          "type": "bytes32"
        },
        {
          "indexed": true,
          "internalType": "bytes32",
          "name": "vaultId",
          "type": "bytes32"
        },
        {
          "indexed": false,
          "internalType": "int256",
          "name": "pnl",
          "type": "int256"
        },
        {
          "indexed": false,
          "internalType": "uint256",
          "name": "exitPrice",
          "type": "uint256"
        }
      ],
      "name": "PositionClosed",
      "type": "event"
    },
    {
      "anonymous": false,
      "inputs": [
        {
          "indexed": true,
          "internalType": "bytes32",
          "name": "positionId",
          "type": "bytes32"
        },
        {
          "indexed": true,
          "internalType": "bytes32",
          "name": "vaultId",
          "type": "bytes32"
        },
        {
          "indexed": false,
          "internalType": "address",
          "name": "token",
          "type": "address"
        },
        {
          "indexed": false,
          "internalType": "uint256",
          "name": "ausdAllocated",
          "type": "uint256"
        },
        {
          "indexed": false,
          "internalType": "uint256",
          "name": "entryPrice",
          "type": "uint256"
        }
      ],
      "name": "PositionOpened",
      "type": "event"
    },
    {
      "anonymous": false,
      "inputs": [
        {
          "indexed": true,
          "internalType": "address",
          "name": "token",
          "type": "address"
        },
        {
          "indexed": false,
          "internalType": "uint256",
          "name": "price",
          "type": "uint256"
        }
      ],
      "name": "PriceUpdated",
      "type": "event"
    },
    {
      "anonymous": false,
      "inputs": [
        {
          "indexed": true,
          "internalType": "uint256",
          "name": "requestId",
          "type": "uint256"
        },
        {
          "indexed": true,
          "internalType": "bytes32",
          "name": "vaultId",
          "type": "bytes32"
        }
      ],
      "name": "StrategistRequested",
      "type": "event"
    },
    {
      "anonymous": false,
      "inputs": [
        {
          "indexed": true,
          "internalType": "uint256",
          "name": "requestId",
          "type": "uint256"
        },
        {
          "indexed": true,
          "internalType": "bytes32",
          "name": "vaultId",
          "type": "bytes32"
        },
        {
          "indexed": false,
          "internalType": "uint8",
          "name": "score",
          "type": "uint8"
        },
        {
          "indexed": false,
          "internalType": "bool",
          "name": "willExecute",
          "type": "bool"
        }
      ],
      "name": "StrategistResponse",
      "type": "event"
    },
    {
      "anonymous": false,
      "inputs": [
        {
          "indexed": true,
          "internalType": "bytes32",
          "name": "vaultId",
          "type": "bytes32"
        },
        {
          "indexed": true,
          "internalType": "address",
          "name": "token",
          "type": "address"
        },
        {
          "indexed": false,
          "internalType": "uint256",
          "name": "ausdAllocated",
          "type": "uint256"
        },
        {
          "indexed": false,
          "internalType": "uint8",
          "name": "copyScore",
          "type": "uint8"
        }
      ],
      "name": "TradeCopied",
      "type": "event"
    },
    {
      "anonymous": false,
      "inputs": [
        {
          "indexed": true,
          "internalType": "bytes32",
          "name": "vaultId",
          "type": "bytes32"
        },
        {
          "indexed": false,
          "internalType": "string",
          "name": "reason",
          "type": "string"
        }
      ],
      "name": "TradeSkipped",
      "type": "event"
    },
    {
      "anonymous": false,
      "inputs": [
        {
          "indexed": true,
          "internalType": "bytes32",
          "name": "vaultId",
          "type": "bytes32"
        }
      ],
      "name": "VaultClosed",
      "type": "event"
    },
    {
      "anonymous": false,
      "inputs": [
        {
          "indexed": true,
          "internalType": "address",
          "name": "follower",
          "type": "address"
        },
        {
          "indexed": true,
          "internalType": "address",
          "name": "leader",
          "type": "address"
        },
        {
          "indexed": true,
          "internalType": "bytes32",
          "name": "vaultId",
          "type": "bytes32"
        },
        {
          "indexed": false,
          "internalType": "uint256",
          "name": "amount",
          "type": "uint256"
        }
      ],
      "name": "VaultCreated",
      "type": "event"
    },
    {
      "anonymous": false,
      "inputs": [
        {
          "indexed": true,
          "internalType": "bytes32",
          "name": "vaultId",
          "type": "bytes32"
        },
        {
          "indexed": false,
          "internalType": "uint256",
          "name": "amount",
          "type": "uint256"
        }
      ],
      "name": "VaultDeposited",
      "type": "event"
    },
    {
      "anonymous": false,
      "inputs": [
        {
          "indexed": true,
          "internalType": "bytes32",
          "name": "vaultId",
          "type": "bytes32"
        }
      ],
      "name": "VaultPaused",
      "type": "event"
    },
    {
      "anonymous": false,
      "inputs": [
        {
          "indexed": true,
          "internalType": "address",
          "name": "follower",
          "type": "address"
        },
        {
          "indexed": true,
          "internalType": "address",
          "name": "leader",
          "type": "address"
        },
        {
          "indexed": true,
          "internalType": "bytes32",
          "name": "vaultId",
          "type": "bytes32"
        },
        {
          "indexed": false,
          "internalType": "uint256",
          "name": "amount",
          "type": "uint256"
        }
      ],
      "name": "VaultReopened",
      "type": "event"
    },
    {
      "anonymous": false,
      "inputs": [
        {
          "indexed": true,
          "internalType": "bytes32",
          "name": "vaultId",
          "type": "bytes32"
        }
      ],
      "name": "VaultResumed",
      "type": "event"
    },
    {
      "anonymous": false,
      "inputs": [
        {
          "indexed": true,
          "internalType": "bytes32",
          "name": "vaultId",
          "type": "bytes32"
        },
        {
          "indexed": false,
          "internalType": "uint256",
          "name": "amount",
          "type": "uint256"
        }
      ],
      "name": "VaultWithdrawn",
      "type": "event"
    },
    {
      "anonymous": false,
      "inputs": [
        {
          "indexed": true,
          "internalType": "uint256",
          "name": "requestId",
          "type": "uint256"
        },
        {
          "indexed": true,
          "internalType": "bytes32",
          "name": "vaultId",
          "type": "bytes32"
        }
      ],
      "name": "WatcherRequested",
      "type": "event"
    },
    {
      "anonymous": false,
      "inputs": [
        {
          "indexed": true,
          "internalType": "uint256",
          "name": "requestId",
          "type": "uint256"
        },
        {
          "indexed": true,
          "internalType": "bytes32",
          "name": "vaultId",
          "type": "bytes32"
        },
        {
          "indexed": false,
          "internalType": "address",
          "name": "tokenIn",
          "type": "address"
        },
        {
          "indexed": false,
          "internalType": "address",
          "name": "tokenOut",
          "type": "address"
        },
        {
          "indexed": false,
          "internalType": "uint256",
          "name": "usdValue",
          "type": "uint256"
        },
        {
          "indexed": false,
          "internalType": "uint256",
          "name": "tradeTimestamp",
          "type": "uint256"
        }
      ],
      "name": "WatcherResponse",
      "type": "event"
    },
    {
      "inputs": [],
      "name": "AGENT_PLATFORM",
      "outputs": [
        {
          "internalType": "address",
          "name": "",
          "type": "address"
        }
      ],
      "stateMutability": "view",
      "type": "function"
    },
    {
      "inputs": [],
      "name": "API_BASE",
      "outputs": [
        {
          "internalType": "string",
          "name": "",
          "type": "string"
        }
      ],
      "stateMutability": "view",
      "type": "function"
    },
    {
      "inputs": [],
      "name": "AUSD",
      "outputs": [
        {
          "internalType": "address",
          "name": "",
          "type": "address"
        }
      ],
      "stateMutability": "view",
      "type": "function"
    },
    {
      "inputs": [],
      "name": "JSON_API_AGENT_ID",
      "outputs": [
        {
          "internalType": "uint256",
          "name": "",
          "type": "uint256"
        }
      ],
      "stateMutability": "view",
      "type": "function"
    },
    {
      "inputs": [],
      "name": "LLM_AGENT_ID",
      "outputs": [
        {
          "internalType": "uint256",
          "name": "",
          "type": "uint256"
        }
      ],
      "stateMutability": "view",
      "type": "function"
    },
    {
      "inputs": [],
      "name": "MAX_TRADE_AGE",
      "outputs": [
        {
          "internalType": "uint256",
          "name": "",
          "type": "uint256"
        }
      ],
      "stateMutability": "view",
      "type": "function"
    },
    {
      "inputs": [],
      "name": "MIN_COPY_SCORE",
      "outputs": [
        {
          "internalType": "uint8",
          "name": "",
          "type": "uint8"
        }
      ],
      "stateMutability": "view",
      "type": "function"
    },
    {
      "inputs": [],
      "name": "MIN_TRADE_AUSD",
      "outputs": [
        {
          "internalType": "uint256",
          "name": "",
          "type": "uint256"
        }
      ],
      "stateMutability": "view",
      "type": "function"
    },
    {
      "inputs": [],
      "name": "PIPELINE_TIMEOUT",
      "outputs": [
        {
          "internalType": "uint256",
          "name": "",
          "type": "uint256"
        }
      ],
      "stateMutability": "view",
      "type": "function"
    },
    {
      "inputs": [],
      "name": "PRICE_API_BASE",
      "outputs": [
        {
          "internalType": "string",
          "name": "",
          "type": "string"
        }
      ],
      "stateMutability": "view",
      "type": "function"
    },
    {
      "inputs": [
        {
          "internalType": "address",
          "name": "leader",
          "type": "address"
        },
        {
          "internalType": "address[]",
          "name": "tokens",
          "type": "address[]"
        }
      ],
      "name": "addToAllowlist",
      "outputs": [],
      "stateMutability": "nonpayable",
      "type": "function"
    },
    {
      "inputs": [
        {
          "internalType": "address",
          "name": "follower",
          "type": "address"
        },
        {
          "internalType": "address",
          "name": "leader",
          "type": "address"
        }
      ],
      "name": "checkLeaderActivity",
      "outputs": [],
      "stateMutability": "payable",
      "type": "function"
    },
    {
      "inputs": [
        {
          "internalType": "bytes32",
          "name": "positionId",
          "type": "bytes32"
        }
      ],
      "name": "closePosition",
      "outputs": [],
      "stateMutability": "nonpayable",
      "type": "function"
    },
    {
      "inputs": [
        {
          "internalType": "address",
          "name": "leader",
          "type": "address"
        },
        {
          "internalType": "uint256",
          "name": "amount",
          "type": "uint256"
        },
        {
          "internalType": "uint8",
          "name": "riskLevel",
          "type": "uint8"
        },
        {
          "internalType": "uint8",
          "name": "maxPerTradePct",
          "type": "uint8"
        },
        {
          "internalType": "address[]",
          "name": "allowlist",
          "type": "address[]"
        }
      ],
      "name": "createVault",
      "outputs": [],
      "stateMutability": "nonpayable",
      "type": "function"
    },
    {
      "inputs": [
        {
          "internalType": "address",
          "name": "leader",
          "type": "address"
        },
        {
          "internalType": "uint256",
          "name": "amount",
          "type": "uint256"
        }
      ],
      "name": "deposit",
      "outputs": [],
      "stateMutability": "nonpayable",
      "type": "function"
    },
    {
      "inputs": [
        {
          "internalType": "address",
          "name": "",
          "type": "address"
        },
        {
          "internalType": "uint256",
          "name": "",
          "type": "uint256"
        }
      ],
      "name": "followerVaults",
      "outputs": [
        {
          "internalType": "bytes32",
          "name": "",
          "type": "bytes32"
        }
      ],
      "stateMutability": "view",
      "type": "function"
    },
    {
      "inputs": [
        {
          "internalType": "address",
          "name": "follower",
          "type": "address"
        },
        {
          "internalType": "address",
          "name": "leader",
          "type": "address"
        }
      ],
      "name": "getAllowlist",
      "outputs": [
        {
          "internalType": "address[]",
          "name": "",
          "type": "address[]"
        }
      ],
      "stateMutability": "view",
      "type": "function"
    },
    {
      "inputs": [
        {
          "internalType": "address",
          "name": "follower",
          "type": "address"
        }
      ],
      "name": "getFollowerVaults",
      "outputs": [
        {
          "internalType": "bytes32[]",
          "name": "",
          "type": "bytes32[]"
        }
      ],
      "stateMutability": "view",
      "type": "function"
    },
    {
      "inputs": [
        {
          "internalType": "address",
          "name": "follower",
          "type": "address"
        },
        {
          "internalType": "address",
          "name": "leader",
          "type": "address"
        }
      ],
      "name": "getFreeBalance",
      "outputs": [
        {
          "internalType": "uint256",
          "name": "",
          "type": "uint256"
        }
      ],
      "stateMutability": "view",
      "type": "function"
    },
    {
      "inputs": [
        {
          "internalType": "address",
          "name": "follower",
          "type": "address"
        },
        {
          "internalType": "address",
          "name": "leader",
          "type": "address"
        }
      ],
      "name": "getOpenPositions",
      "outputs": [
        {
          "internalType": "bytes32[]",
          "name": "openIds",
          "type": "bytes32[]"
        }
      ],
      "stateMutability": "view",
      "type": "function"
    },
    {
      "inputs": [
        {
          "internalType": "address",
          "name": "follower",
          "type": "address"
        },
        {
          "internalType": "address",
          "name": "leader",
          "type": "address"
        }
      ],
      "name": "getUnrealizedPnL",
      "outputs": [
        {
          "internalType": "int256",
          "name": "totalPnl",
          "type": "int256"
        }
      ],
      "stateMutability": "view",
      "type": "function"
    },
    {
      "inputs": [
        {
          "internalType": "address",
          "name": "follower",
          "type": "address"
        },
        {
          "internalType": "address",
          "name": "leader",
          "type": "address"
        }
      ],
      "name": "getVault",
      "outputs": [
        {
          "components": [
            {
              "internalType": "address",
              "name": "follower",
              "type": "address"
            },
            {
              "internalType": "address",
              "name": "leader",
              "type": "address"
            },
            {
              "internalType": "uint256",
              "name": "ausdLocked",
              "type": "uint256"
            },
            {
              "internalType": "uint256",
              "name": "ausdAllocated",
              "type": "uint256"
            },
            {
              "internalType": "uint8",
              "name": "riskLevel",
              "type": "uint8"
            },
            {
              "internalType": "uint8",
              "name": "maxPerTradePct",
              "type": "uint8"
            },
            {
              "internalType": "address[]",
              "name": "allowlist",
              "type": "address[]"
            },
            {
              "internalType": "enum VaultManager.VaultStatus",
              "name": "status",
              "type": "uint8"
            }
          ],
          "internalType": "struct VaultManager.VaultConfig",
          "name": "",
          "type": "tuple"
        }
      ],
      "stateMutability": "view",
      "type": "function"
    },
    {
      "inputs": [
        {
          "internalType": "address",
          "name": "",
          "type": "address"
        }
      ],
      "name": "keeperOf",
      "outputs": [
        {
          "internalType": "address",
          "name": "",
          "type": "address"
        }
      ],
      "stateMutability": "view",
      "type": "function"
    },
    {
      "inputs": [
        {
          "internalType": "address",
          "name": "",
          "type": "address"
        }
      ],
      "name": "latestPrice",
      "outputs": [
        {
          "internalType": "uint256",
          "name": "",
          "type": "uint256"
        }
      ],
      "stateMutability": "view",
      "type": "function"
    },
    {
      "inputs": [
        {
          "internalType": "uint256",
          "name": "requestId",
          "type": "uint256"
        },
        {
          "internalType": "bytes",
          "name": "response",
          "type": "bytes"
        }
      ],
      "name": "onPriceUpdate",
      "outputs": [],
      "stateMutability": "nonpayable",
      "type": "function"
    },
    {
      "inputs": [
        {
          "internalType": "uint256",
          "name": "requestId",
          "type": "uint256"
        },
        {
          "internalType": "bytes",
          "name": "response",
          "type": "bytes"
        }
      ],
      "name": "onStrategistResponse",
      "outputs": [],
      "stateMutability": "nonpayable",
      "type": "function"
    },
    {
      "inputs": [
        {
          "internalType": "uint256",
          "name": "requestId",
          "type": "uint256"
        },
        {
          "internalType": "bytes",
          "name": "response",
          "type": "bytes"
        }
      ],
      "name": "onWatcherResponse",
      "outputs": [],
      "stateMutability": "nonpayable",
      "type": "function"
    },
    {
      "inputs": [],
      "name": "owner",
      "outputs": [
        {
          "internalType": "address",
          "name": "",
          "type": "address"
        }
      ],
      "stateMutability": "view",
      "type": "function"
    },
    {
      "inputs": [
        {
          "internalType": "address",
          "name": "leader",
          "type": "address"
        }
      ],
      "name": "pauseVault",
      "outputs": [],
      "stateMutability": "nonpayable",
      "type": "function"
    },
    {
      "inputs": [
        {
          "internalType": "bytes32",
          "name": "",
          "type": "bytes32"
        }
      ],
      "name": "pipelineActiveAt",
      "outputs": [
        {
          "internalType": "uint256",
          "name": "",
          "type": "uint256"
        }
      ],
      "stateMutability": "view",
      "type": "function"
    },
    {
      "inputs": [
        {
          "internalType": "bytes32",
          "name": "",
          "type": "bytes32"
        }
      ],
      "name": "positions",
      "outputs": [
        {
          "internalType": "address",
          "name": "follower",
          "type": "address"
        },
        {
          "internalType": "address",
          "name": "leader",
          "type": "address"
        },
        {
          "internalType": "bytes32",
          "name": "vaultId",
          "type": "bytes32"
        },
        {
          "internalType": "address",
          "name": "token",
          "type": "address"
        },
        {
          "internalType": "uint256",
          "name": "ausdAllocated",
          "type": "uint256"
        },
        {
          "internalType": "uint256",
          "name": "entryPrice",
          "type": "uint256"
        },
        {
          "internalType": "uint256",
          "name": "exitPrice",
          "type": "uint256"
        },
        {
          "internalType": "int256",
          "name": "pnl",
          "type": "int256"
        },
        {
          "internalType": "enum VaultManager.PositionStatus",
          "name": "status",
          "type": "uint8"
        },
        {
          "internalType": "uint256",
          "name": "openedAt",
          "type": "uint256"
        },
        {
          "internalType": "uint256",
          "name": "closedAt",
          "type": "uint256"
        }
      ],
      "stateMutability": "view",
      "type": "function"
    },
    {
      "inputs": [
        {
          "internalType": "address",
          "name": "leader",
          "type": "address"
        },
        {
          "internalType": "address[]",
          "name": "tokens",
          "type": "address[]"
        }
      ],
      "name": "removeFromAllowlist",
      "outputs": [],
      "stateMutability": "nonpayable",
      "type": "function"
    },
    {
      "inputs": [
        {
          "internalType": "address",
          "name": "leader",
          "type": "address"
        },
        {
          "internalType": "uint256",
          "name": "amount",
          "type": "uint256"
        },
        {
          "internalType": "uint8",
          "name": "riskLevel",
          "type": "uint8"
        },
        {
          "internalType": "uint8",
          "name": "maxPerTradePct",
          "type": "uint8"
        },
        {
          "internalType": "address[]",
          "name": "allowlist",
          "type": "address[]"
        }
      ],
      "name": "reopenVault",
      "outputs": [],
      "stateMutability": "nonpayable",
      "type": "function"
    },
    {
      "inputs": [
        {
          "internalType": "uint256",
          "name": "",
          "type": "uint256"
        }
      ],
      "name": "requestToVault",
      "outputs": [
        {
          "internalType": "bytes32",
          "name": "",
          "type": "bytes32"
        }
      ],
      "stateMutability": "view",
      "type": "function"
    },
    {
      "inputs": [
        {
          "internalType": "address",
          "name": "leader",
          "type": "address"
        }
      ],
      "name": "resumeVault",
      "outputs": [],
      "stateMutability": "nonpayable",
      "type": "function"
    },
    {
      "inputs": [
        {
          "internalType": "string",
          "name": "base",
          "type": "string"
        }
      ],
      "name": "setApiBase",
      "outputs": [],
      "stateMutability": "nonpayable",
      "type": "function"
    },
    {
      "inputs": [
        {
          "internalType": "address",
          "name": "keeper",
          "type": "address"
        }
      ],
      "name": "setKeeper",
      "outputs": [],
      "stateMutability": "nonpayable",
      "type": "function"
    },
    {
      "inputs": [
        {
          "internalType": "string",
          "name": "base",
          "type": "string"
        }
      ],
      "name": "setPriceApiBase",
      "outputs": [],
      "stateMutability": "nonpayable",
      "type": "function"
    },
    {
      "inputs": [
        {
          "internalType": "address",
          "name": "newOwner",
          "type": "address"
        }
      ],
      "name": "transferOwnership",
      "outputs": [],
      "stateMutability": "nonpayable",
      "type": "function"
    },
    {
      "inputs": [
        {
          "internalType": "address",
          "name": "token",
          "type": "address"
        }
      ],
      "name": "updatePrice",
      "outputs": [],
      "stateMutability": "payable",
      "type": "function"
    },
    {
      "inputs": [
        {
          "internalType": "address",
          "name": "follower",
          "type": "address"
        },
        {
          "internalType": "address",
          "name": "leader",
          "type": "address"
        }
      ],
      "name": "vaultId",
      "outputs": [
        {
          "internalType": "bytes32",
          "name": "",
          "type": "bytes32"
        }
      ],
      "stateMutability": "pure",
      "type": "function"
    },
    {
      "inputs": [
        {
          "internalType": "bytes32",
          "name": "",
          "type": "bytes32"
        },
        {
          "internalType": "uint256",
          "name": "",
          "type": "uint256"
        }
      ],
      "name": "vaultPositions",
      "outputs": [
        {
          "internalType": "bytes32",
          "name": "",
          "type": "bytes32"
        }
      ],
      "stateMutability": "view",
      "type": "function"
    },
    {
      "inputs": [
        {
          "internalType": "bytes32",
          "name": "",
          "type": "bytes32"
        }
      ],
      "name": "vaults",
      "outputs": [
        {
          "internalType": "address",
          "name": "follower",
          "type": "address"
        },
        {
          "internalType": "address",
          "name": "leader",
          "type": "address"
        },
        {
          "internalType": "uint256",
          "name": "ausdLocked",
          "type": "uint256"
        },
        {
          "internalType": "uint256",
          "name": "ausdAllocated",
          "type": "uint256"
        },
        {
          "internalType": "uint8",
          "name": "riskLevel",
          "type": "uint8"
        },
        {
          "internalType": "uint8",
          "name": "maxPerTradePct",
          "type": "uint8"
        },
        {
          "internalType": "enum VaultManager.VaultStatus",
          "name": "status",
          "type": "uint8"
        }
      ],
      "stateMutability": "view",
      "type": "function"
    },
    {
      "inputs": [
        {
          "internalType": "address",
          "name": "leader",
          "type": "address"
        }
      ],
      "name": "withdraw",
      "outputs": [],
      "stateMutability": "nonpayable",
      "type": "function"
    },
    {
      "stateMutability": "payable",
      "type": "receive"
    }
  ],
  "bytecode": "0x60a060405234620003b3576200574f803803806200001d81620003b8565b928339810190606081830312620003b3578051916001600160a01b03831690818403620003b35760208381015190946001600160401b03949091858111620003b357836200006d918301620003f4565b926040820151868111620003b357620000879201620003f4565b92156200036e57608052600080546001600160a01b031916331781558151929084841162000278576001938454938585811c9516801562000363575b888610146200034f578190601f95868111620002fc575b508890868311600114620002985784926200028c575b5050600019600383901b1c191690851b1784555b815194851162000278576002548481811c911680156200026d575b87821014620002595783811162000210575b5085928511600114620001a75793945084929190836200019b575b50501b916000199060031b1c1916176002555b6040516152e8908162000467823960805181818161067f01528181610fea0152818161191501528181611e360152818161265a01526127b00152f35b0151925038806200014c565b6002815285812093958591601f198316915b88838310620001f55750505010620001db575b505050811b016002556200015f565b015160001960f88460031b161c19169055388080620001cc565b858701518855909601959485019487935090810190620001b9565b600282528682208480880160051c8201928989106200024f575b0160051c019085905b8281106200024357505062000131565b83815501859062000233565b925081926200022a565b634e487b7160e01b82526022600452602482fd5b90607f16906200011f565b634e487b7160e01b81526041600452602490fd5b015190503880620000f0565b8785528985208894509190601f198416865b8c828210620002e55750508411620002cb575b505050811b01845562000104565b015160001960f88460031b161c19169055388080620002bd565b8385015186558b97909501949384019301620002aa565b9091508684528884208680850160051c8201928b861062000345575b918991869594930160051c01915b82811062000336575050620000da565b86815585945089910162000326565b9250819262000318565b634e487b7160e01b83526022600452602483fd5b94607f1694620000c3565b60405162461bcd60e51b815260048101869052601560248201527f564d3a207a65726f2061555344206164647265737300000000000000000000006044820152606490fd5b600080fd5b6040519190601f01601f191682016001600160401b03811183821017620003de57604052565b634e487b7160e01b600052604160045260246000fd5b919080601f84011215620003b35782516001600160401b038111620003de576020906200042a601f8201601f19168301620003b8565b92818452828287010111620003b35760005b8181106200045257508260009394955001015290565b85810183015184820184015282016200043c56fe608080604052600436101561001d575b50361561001b57600080fd5b005b600090813560e01c908163011f8b1b14612ab05750806312bbe10c14612a935780631aac91971461291c5780631f275413146128e55780631fb3e24e1461289d57806322edf01a146128025780632e90c1a9146127df5780632fd7d1fd1461279a5780633c4ce2211461275e57806347e7ef24146125d75780634e17707a146121525780634e6ec0e61461207d578063514ea4bf14611fb457806351cff8d914611d9657806353084eff14611d5d578063572fcdcd14611cdb5780635a2d6f5d14611cbd5780636abcf6af14611c83578063748747e614611c1957806385f9805d1461184c5780638c728541146118225780638da5cb5b146117fb57806392bc6914146116e3578063932a1276146115a45780639530b30f1461158757806396e85ced14611289578063989a83bf146111b7578063b8ff783d1461119b578063baf404d314610f17578063bbd7edc514610da0578063bd44815f14610d81578063c0bd6f9e14610c92578063c81e62e614610c4a578063cca23bf214610bc5578063d01ec4a614610b7b578063d16b692114610a44578063d480574214610921578063d9c91fea146108f7578063de700da6146108be578063e54a2ad5146105b9578063e55ee7eb1461058a578063e813471214610402578063f2fde38b1461037f5763fe202a180361000f573461037c57602090602060031936011261037c576001600160401b036004358181116103785761023e903690600401612b8a565b9161025360018060a01b0385541633146149f1565b821161036457610264600254612c14565b601f811161031c575b508293601f83116001146102b057508293829161029f94926102a5575b50508160011b916000199060031b1c19161790565b60025580f35b01359050388061028a565b601f19831694600080516020615253833981519152929185905b8782106103045750508360019596106102ea575b505050811b0160025580f35b0135600019600384901b60f8161c191690553880806102de565b806001849682949587013581550195019201906102ca565b610354906002600052600080516020615253833981519152601f850160051c8101916020861061035a575b601f0160051c0190612f76565b3861026d565b9091508190610347565b634e487b7160e01b83526041600452602483fd5b8280fd5b80fd5b503461037c57602036600319011261037c57610399612ad2565b8154906001600160a01b03906103b233838516146149f1565b169081156103ca576001600160a01b03191617815580f35b60405162461bcd60e51b815260206004820152601060248201526f564d3a207a65726f206164647265737360801b6044820152606490fd5b503461037c57604036600319011261037c5761042d61041f612ad2565b610427612aed565b90614a87565b8152602060066020526040822090829183918154925b838110610529575061045484614971565b936104626040519586612cb6565b808552610471601f1991614971565b013660208601378491855b84811061049557604051806104918882612d1f565b0390f35b61049f8183612be6565b9054600391821b1c88526004845260ff600860408a20015416600281101561051557156104d0575b5060010161047c565b6104da8284612be6565b9054911b1c6104e885614ad6565b9487518110156105015760051b870184015260016104c7565b634e487b7160e01b89526032600452602489fd5b634e487b7160e01b89526021600452602489fd5b6105338184612be6565b90549060031b1c86526004825260ff60086040882001541660028110156105765715610562575b600101610443565b9361056e600191614ad6565b94905061055a565b634e487b7160e01b87526021600452602487fd5b503461037c578060031936011261037c57602060405173037bb9c718f3f7fe5ecbdb0b600d607b527067768152f35b503461037c576020806003193601126108ba576004358083526004825260408320916008830160ff81541660028110156108a6576108695783546001600160a01b03929083163381148015610851575b6106139150614688565b600285015494858752600382526040872092846003830154168852600b835260408820549384156107f5576004830180549661065d610652888a612f8d565b600587015490612fa0565b6106678982614abd565b98808211156107925750825461067c91612f53565b907f000000000000000000000000000000000000000000000000000000000000000016803b1561078e576040516340c10f1960e01b815230600482015260248101839052908c908290604490829084905af1801561078357610752575b509161072760037fb8afeb408acd10e29c21161f211b1e177a3ce18923199654650821f940cff38a99979593604099979561071960028601918254612fc0565b90555b549201918254612f53565b9055836006830155846007830155600160ff19825416179055600a429101558351928352820152a380f35b6001600160401b03819c929c1161076f57604052996107276106d9565b634e487b7160e01b82526041600452602482fd5b6040513d8e823e3d90fd5b8b80fd5b604098969492507fb8afeb408acd10e29c21161f211b1e177a3ce18923199654650821f940cff38a99979593818360039361072795106107d4575b505061071c565b6107dd91612f53565b6107ec60028601918254612f53565b905538806107cd565b60405162461bcd60e51b815260048101859052602e60248201527f564d3a206e6f20707269636520617661696c61626c652c2063616c6c2075706460448201526d185d19541c9a58d948199a5c9cdd60921b6064820152608490fd5b50865260078152610613836040882054163314610609565b60405162461bcd60e51b81526004810183905260156024820152742b269d103837b9b4ba34b7b7103737ba1037b832b760591b6044820152606490fd5b634e487b7160e01b86526021600452602486fd5b5080fd5b503461037c57604036600319011261037c576108ef60406020926108e361041f612ad2565b81526003845220614b30565b604051908152f35b503461037c57602036600319011261037c5760406020916004358152600a83522054604051908152f35b503461037c57604036600319011261037c5761093b612ad2565b61094d610946612aed565b8392614a87565b8252602060066020526040832083918154915b82841061097257602085604051908152f35b909192936109808583612be6565b9054600391821b1c875260048452604087209060ff600883015416600281101561051557610a2d578101546001600160a01b03168752600b845260408720549081158015610a38575b610a2d57906109ef8260056109e660046109f49601549485612f8d565b91015490612fa0565b614abd565b90868282019283129112908015821691151617610a1957600190945b01929190610960565b634e487b7160e01b86526011600452602486fd5b505093600190610a10565b506005810154156109c9565b503461037c57610a5336612bb7565b90610a7373037bb9c718f3f7fe5ecbdb0b600d607b527067763314612f08565b828452600c602090815260408520546001600160a01b0316939092908415610b36578552600c83526040852080546001600160a01b031916905581018190038213610b3257358015610af957907f0d86730737b142fc160892fa8a0f2db687a92a0e294d1ad70624cf5acef03b8491838552600b8252806040862055604051908152a280f35b60405162461bcd60e51b8152600481018390526011602482015270564d3a20696e76616c696420707269636560781b6044820152606490fd5b8380fd5b60405162461bcd60e51b815260048101859052601960248201527f564d3a20756e6b6e6f776e2070726963652072657175657374000000000000006044820152606490fd5b503461037c57604036600319011261037c57610bb16005604061049193610ba361041f612ad2565b815260036020522001614a2d565b604051918291602083526020830190612db9565b503461037c57602036600319011261037c57604060e0916004358152600360205220610c4860018060a01b039160ff838254169360018301541691600281015460038201549083600660048501549401541694604051978852602088015260408701526060860152818116608086015260081c1660a084015260c0830190612df6565bf35b503461037c57604036600319011261037c5760243590600435815260066020526040812090815483101561037c576020610c848484612be6565b90546040519160031b1c8152f35b503461037c57602036600319011261037c57610cb5610caf612ad2565b33614a87565b80825260036020526040822054610cd6906001600160a01b03163314612e57565b808252600360205260ff6006604084200154166003811015610d6d57610d3757808252600360205260408220600601805460ff191660011790557f7ca948eddccf3a65f738292fe09d47dd38a0616763f1a1a78715430c7a18a18b8280a280f35b60405162461bcd60e51b815260206004820152600e60248201526d564d3a206e6f742061637469766560901b6044820152606490fd5b634e487b7160e01b83526021600452602483fd5b503461037c57604036600319011261037c5760206108ef61041f612ad2565b503461037c57604036600319011261037c57610e04610dbd612ad2565b610dc5612aed565b908360e0604051610dd581612c4e565b8281528260208201528260408201528260608201528260808201528260a0820152606060c08201520152614a87565b815260036020526040812060405190610e1c82612c4e565b60018060a01b039081815416835281600182015416916020840192835260028201549060408501918252600383015460608601908152600484015492608087019260ff8516845260ff60a089019560081c16855260ff6006610e8060058901614a2d565b9760c08b019889520154169660e08901976003811015610f035793610491969360ff95938a999793879560209c52816040519d8e9d8e52511660208d0152511660408b01525160608a0152516080890152511660a0870152511660c085015251610ef8610100918260e0870152610120860190612db9565b925190840190612df6565b634e487b7160e01b8b52602160045260248bfd5b503461037c57610f2636612d5b565b949190939260018060ff831610158061118d575b610f4390614855565b610f5c60ff841660018110159081611181575b50614896565b610f678715156148d5565b610f72851515614932565b610f7c8433614a87565b968789526020966003885260408a2094610fa03360018060a01b0388541614612e57565b60ff600687015416600381101561116d57600203611137576040516323b872dd60e01b815233600482015230602482015260448101899052908b8a83606481846001600160a01b037f0000000000000000000000000000000000000000000000000000000000000000165af1801561112a576110599361102692916110fd575b50614647565b8860028801558b60038801556004870160ff80199716878254161781559061ff0082549160081b169061ff001916179055565b60058501906001600160401b0383116110e9576110768383614988565b908a52878a208a5b8381106110d0575050506006909301805490921690915550506040519182526001600160a01b03169133917fde9d4af6dc6156415163633265210b1348683a9a7e9b955616130ce9d6c58cb29190a480f35b84908a6110dc85612ea8565b940193818401550161107e565b634e487b7160e01b8b52604160045260248bfd5b61111d91508c8d3d10611123575b6111158183612cb6565b81019061462f565b38611020565b503d61110b565b50604051903d90823e3d90fd5b60405162461bcd60e51b8152600481018a9052600e60248201526d15934e881b9bdd0818db1bdcd95960921b6044820152606490fd5b634e487b7160e01b8c52602160045260248cfd5b60649150111538610f56565b50600a60ff83161115610f3a565b503461037c578060031936011261037c576020604051600a8152f35b503461037c578060031936011261037c57604051908082600254916111db83612c14565b928383526020946001918660018216918260001461126757505060011461121f575b505061120b92500383612cb6565b610491604051928284938452830190612cfa565b90859250600282526000805160206152538339815191525b85831061124f57505061120b935082010138806111fd565b80548389018501528794508693909201918101611237565b925093505061120b94915060ff191682840152151560051b82010138806111fd565b506020806003193601126108ba5761129f612ad2565b6001600160a01b0381169190821561155157604051630ffeb17d60e11b815273037bb9c718f3f7fe5ecbdb0b600d607b5270677691908381600481865afa908115611546578691611515575b5067013fbe85edc900008101809111610a195734106114be5761130d90614b82565b9060405191859060025461132081612c14565b906001908181169081156114a0575060011461145a575b5050916113a9604085878561135888839a986113ef9c9a5194859201612cd7565b010361136c601f1991828101875286612cb6565b66242e707269636560c81b8661138d84519785838a01526060890190612cfa565b8781039384018589015260078152015285810185520183612cb6565b6040516345de5df160e11b815267b6d47da8dbbcb1b1600482015230602482015263d16b692160e01b604482015260806064820152948592839182916084830190612cfa565b039134905af1801561144f578490611421575b8452600c9052506040822080546001600160a01b031916909117905580f35b508082813d8311611448575b6114378183612cb6565b81010312610b3257600c9151611402565b503d61142d565b6040513d86823e3d90fd5b600289529192509087906000805160206152538339815191525b83831061148d5750505083018401906113a96040611337565b8054878401890152918701918101611474565b60ff1916888801525050801515028401850191506113a96040611337565b60405162461bcd60e51b815260048101849052602960248201527f564d3a20696e73756666696369656e74206465706f73697420666f722070726960448201526863652075706461746560b81b6064820152608490fd5b90508381813d831161153f575b61152c8183612cb6565b8101031261153b5751386112eb565b8580fd5b503d611522565b6040513d88823e3d90fd5b60405162461bcd60e51b815260048101839052600e60248201526d2b269d103d32b937903a37b5b2b760911b6044820152606490fd5b503461037c578060031936011261037c57602060405161012c8152f35b503461037c57602090602060031936011261037c576001600160401b03600435818111610378576115d9903690600401612b8a565b90916115ef60018060a01b0385541633146149f1565b8111610364576001916116028354612c14565b601f81116116ab575b508394601f831160011461164257508394829161163d9495926102a55750508160011b916000199060031b1c19161790565b905580f35b601f19831695600080516020615293833981519152929186905b888210611694575050838596971061167a575b505050811b01905580f35b0135600019600384901b60f8161c1916905538808061166f565b80878496829495870135815501950192019061165c565b6116dd90600080516020615293833981519152601f850160051c8101916020861061035a57601f0160051c0190612f76565b3861160b565b503461037c576117036116f536612b47565b929091610caf841515612e19565b80845260036020526040842054909290611727906001600160a01b03163314612e57565b828452600360205260408420600501845b8281106117d65750541561177d577f89216286babe3a315db35c8a44501c50b04e4af6db52228800178fa93abbcfa69161177760405192839283612ebc565b0390a280f35b60405162461bcd60e51b815260206004820152602b60248201527f564d3a2063616e6e6f742072656d6f766520616c6c20746f6b656e732066726f60448201526a1b48185b1b1bdddb1a5cdd60aa1b6064820152608490fd5b806117f56117ef6117ea6001948789612e98565b612ea8565b846150e6565b01611738565b503461037c578060031936011261037c57546040516001600160a01b039091168152602090f35b503461037c57602036600319011261037c5760406020916004358152600883522054604051908152f35b503461037c5761185b36612d5b565b94929091906001600160a01b038416151580611c06575b15611bcc5760ff80911691600183101580611bc1575b61189190614855565b1694600186101580611bb6575b6118a790614896565b6118b28115156148d5565b6118bd851515614932565b6118c78433614a87565b808852600360205260408820549096906001600160a01b0316611b71576040516323b872dd60e01b8152336004820152306024820152604481018790526020816064818c6001600160a01b037f0000000000000000000000000000000000000000000000000000000000000000165af18015611b665761194d918a91611b4d5750614647565b6040519261195a84612c4e565b3384526001600160a01b03861660208501526040840187905260608401899052608084015260a083015261198d81614971565b9261199b6040519485612cb6565b8184526020840190368360051b820111611b495780915b8360051b82018310611b31575050505060c0810191825260e08101918683528587526003602052604087209060018060a01b038351166001600160601b0360a01b9081845416178355600183019060018060a01b03602086015116908254161790556040830151600283015560608301516003830155611a5d6004830160ff60a081608088015116968219978885541617845501511661ff0082549160081b169061ff001916179055565b5180519060058301906001600160401b038311611b1d57602090611a818484614988565b0190895260208920895b838110611b00575050505060060191519060038210156105765760ff9083541691161790553384526005602052611ac583604086206149bc565b6040519182526001600160a01b03169033907f6195d111f124dc39cb1ab083f9f1b6664e415bf60b71499b3a4b24cf07c337a890602090a480f35b82516001600160a01b031681830155602090920191600101611a8b565b634e487b7160e01b8a52604160045260248afd5b60208091611b3e85612b03565b8152019201916119b2565b8880fd5b61111d915060203d602011611123576111158183612cb6565b6040513d8b823e3d90fd5b60405162461bcd60e51b815260206004820152601860248201527f564d3a207661756c7420616c72656164792065786973747300000000000000006044820152606490fd5b50606486111561189e565b50600a831115611888565b60405162461bcd60e51b81526020600482015260126024820152712b269d1034b73b30b634b2103632b0b232b960711b6044820152606490fd5b506001600160a01b038416331415611872565b503461037c57602036600319011261037c57611c33612ad2565b3380835260076020526040832080546001600160a01b0319166001600160a01b0390931692831790557f50697e88bd427923002f5d3844f352091c05c0c9c3b69e43830863d2224631738380a380f35b503461037c57611cba611c9536612bb7565b91611cb573037bb9c718f3f7fe5ecbdb0b600d607b527067763314612f08565b614713565b80f35b503461037c578060031936011261037c576020604051620f42408152f35b503461037c576020806003193601126108ba576001600160a01b03611cfe612ad2565b1682526005602052604082209160405180926020855492838152019483526020832092905b828210611d465761049185611d3a81890382612cb6565b60405191829182612d1f565b835486529485019460019384019390910190611d23565b503461037c57602036600319011261037c576020906040906001600160a01b03611d85612ad2565b168152600b83522054604051908152f35b503461037c576020806003193601126108ba57611db4610caf612ad2565b90818352600381526040832060018060a01b03611dd5338284541614612e57565b6006820180549260ff84166003811015611fa057600214611f66576003810154611f2157600290810180549088905560ff199490941617905560405163a9059cbb60e01b8152336004820152602481018390529083908290604490829089907f0000000000000000000000000000000000000000000000000000000000000000165af1908115611f16578591611ef9575b5015611ebe5782917f1de10dc7adf633383767e576a9953d1b3c4f31a05c1635d7656d25604aca6b1f91604051908152a27fd06ef1be920eaf099a4e446ec48846abae39f5eb6b0877fea0913a68731af5518280a280f35b60405162461bcd60e51b815260048101839052601360248201527215934e881dda5d1a191c985dc819985a5b1959606a1b6044820152606490fd5b611f109150833d8511611123576111158183612cb6565b38611e66565b6040513d87823e3d90fd5b60405162461bcd60e51b815260048101869052601e60248201527f564d3a20636c6f7365206f70656e20706f736974696f6e7320666972737400006044820152606490fd5b60405162461bcd60e51b815260048101869052601260248201527115934e88185b1c9958591e4818db1bdcd95960721b6044820152606490fd5b634e487b7160e01b88526021600452602488fd5b503461037c57602036600319011261037c57600435815260046020526040812060018060a01b03808254169181600182015416916002820154906003830154166004830154600584015460068501549160078601549360ff60088801541695600a6009890154980154986040519a8b5260208b015260408a01526060890152608088015260a087015260c086015260e08501526002811015612069576101609450610100840152610120830152610140820152f35b634e487b7160e01b85526021600452602485fd5b503461037c57602036600319011261037c5761209a610caf612ad2565b808252600360205260408220546120bb906001600160a01b03163314612e57565b808252600360205260ff6006604084200154166003811015610d6d5760010361211c57808252600360205260408220600601805460ff191690557fa7b437a7c0be1eaaad481743f822acf86d00e9707a0c18a609f0e3ad97370ba88280a280f35b60405162461bcd60e51b815260206004820152600e60248201526d15934e881b9bdd081c185d5cd95960921b6044820152606490fd5b50604036600319011261037c57612167612ad2565b61219b612172612aed565b918290612196336001600160a01b038084169182149182156125be575b5050614688565b614a87565b908183526020600381526040842060ff60068201541660038110156108a65761258257838552600a82526040852054801590811561256c575b5015612527576121e7620f424091614b30565b11156124e357828452600a8152604080852042905551630ffeb17d60e11b81529173037bb9c718f3f7fe5ecbdb0b600d607b52706776908284600481855afa9384156115465786946124b4575b5067013fbe85edc900008401938481116124a0576702ea11e32ad5000081018091116124a0576122649085612fc0565b3410612441576122748391614b82565b916040518793600180549061228882612c14565b916001811690811561242557506001146123df575b5050600c8285876122bb85612368999a6122dd975194859201612cd7565b016b02f6c61746573742d737761760a41b815203601319810184520182612cb6565b61232160406122f781519382888601526060850190612cfa565b650242e737761760d41b8785830392601f1984018588015260068152015286810184520182612cb6565b6040516345de5df160e11b815267b6d47da8dbbcb1b16004820152306024820152631f27541360e01b60448201526080606482015295869384928391906084830190612cfa565b03925af191821561144f5784926123af575b50600890828552528160408420557f7d0d4a45b610c689953ac3d1df4e7739f7ba0e76107b191b9170d4eb27b90b4e8380a380f35b9080925081813d83116123d8575b6123c78183612cb6565b81010312610b32575190600861237a565b503d6123bd565b60018b5290955089906000805160206152938339815191525b87831061241057505050938101830193600c8261229d565b805485840188015288969092019181016123f8565b60ff191685880152505080151502820184019450600c8261229d565b60405162461bcd60e51b815260048101849052603160248201527f564d3a20696e73756666696369656e74206465706f73697420286e656564203e6044820152703d206a736f6e4665652b6c6c6d4665652960781b6064820152608490fd5b634e487b7160e01b87526011600452602487fd5b9093508281813d83116124dc575b6124cc8183612cb6565b8101031261153b57519238612234565b503d6124c2565b6064906040519062461bcd60e51b82526004820152601d60248201527f564d3a20696e73756666696369656e7420667265652062616c616e63650000006044820152fd5b60405162461bcd60e51b815260048101839052601c60248201527f564d3a20706970656c696e6520616c72656164792072756e6e696e67000000006044820152606490fd5b90506102588101809111610a19574211386121d4565b60405162461bcd60e51b8152600481018390526014602482015273564d3a207661756c74206e6f742061637469766560601b6044820152606490fd5b909150875260076020526040872054163314388061218f565b503461037c57604036600319011261037c576125f1612ad2565b6125fe6024359133614a87565b9081835260206003815260ff6006604086200154166003811015612069576002146127275781156126f1576040516323b872dd60e01b815233600482015230602482015260448101839052918183606481886001600160a01b037f0000000000000000000000000000000000000000000000000000000000000000165af1928315611f16577ff4d5f4313db9d90750b55863740862117f1a26005f470df515d532580be167b2936126b59187916126da5750614647565b83855260038252600260408620016126ce828254612fc0565b9055604051908152a280f35b61111d9150843d8611611123576111158183612cb6565b6064906040519062461bcd60e51b82526004820152600f60248201526e15934e881e995c9bc8185b5bdd5b9d608a1b6044820152fd5b6064906040519062461bcd60e51b82526004820152601060248201526f15934e881d985d5b1d0818db1bdcd95960821b6044820152fd5b503461037c57602036600319011261037c576020906001600160a01b039060409082612788612ad2565b16815260078452205416604051908152f35b503461037c578060031936011261037c576040517f00000000000000000000000000000000000000000000000000000000000000006001600160a01b03168152602090f35b503461037c578060031936011261037c57602060405167b24ac1afbcefc7088152f35b503461037c578060031936011261037c576040519080826001926001549361282985612c14565b938484526020958660018216918260001461126757505060011461285557505061120b92500383612cb6565b90859250600182526000805160206152938339815191525b85831061288557505061120b935082010138806111fd565b8054838901850152879450869390920191810161286d565b503461037c57604036600319011261037c576128b7612ad2565b6001600160a01b031681526005602052604081208054602435929083101561037c576020610c848484612be6565b503461037c57611cba6128f736612bb7565b9161291773037bb9c718f3f7fe5ecbdb0b600d607b527067763314612f08565b612fcd565b503461037c5761293e9061292f36612b47565b91610caf839592951515612e19565b90818352602093600360205260018060a01b03612962338260408820541614612e57565b83855260036020526040852060050195855b8481106129b057505050907f6daa1ff9696b2f02619a3f88b4b180ef2a65d070354484a2689f745bd640b7649161177760405192839283612ebc565b826129bf6117ea838888612e98565b1615612a55576129dc6129d66117ea838888612e98565b89614ae5565b156129ea575b600101612974565b6129f86117ea828787612e98565b8854600160401b811015612a415760019291612a1c8285612a3a94018d558c612be6565b90919060018060a01b038084549260031b9316831b921b1916179055565b90506129e2565b634e487b7160e01b89526041600452602489fd5b60405162461bcd60e51b8152600481018390526016602482015275564d3a207a65726f20746f6b656e206164647265737360501b6044820152606490fd5b503461037c578060031936011261037c5760206040516102588152f35b9050346108ba57816003193601126108ba578067b6d47da8dbbcb1b160209252f35b600435906001600160a01b0382168203612ae857565b600080fd5b602435906001600160a01b0382168203612ae857565b35906001600160a01b0382168203612ae857565b9181601f84011215612ae8578235916001600160401b038311612ae8576020808501948460051b010111612ae857565b906040600319830112612ae8576004356001600160a01b0381168103612ae85791602435906001600160401b038211612ae857612b8691600401612b17565b9091565b9181601f84011215612ae8578235916001600160401b038311612ae85760208381860195010111612ae857565b906040600319830112612ae85760043591602435906001600160401b038211612ae857612b8691600401612b8a565b8054821015612bfe5760005260206000200190600090565b634e487b7160e01b600052603260045260246000fd5b90600182811c92168015612c44575b6020831014612c2e57565b634e487b7160e01b600052602260045260246000fd5b91607f1691612c23565b61010081019081106001600160401b03821117612c6a57604052565b634e487b7160e01b600052604160045260246000fd5b606081019081106001600160401b03821117612c6a57604052565b604081019081106001600160401b03821117612c6a57604052565b90601f801991011681019081106001600160401b03821117612c6a57604052565b60005b838110612cea5750506000910152565b8181015183820152602001612cda565b90602091612d1381518092818552858086019101612cd7565b601f01601f1916010190565b602090602060408183019282815285518094520193019160005b828110612d47575050505090565b835185529381019392810192600101612d39565b60a0600319820112612ae8576004356001600160a01b0381168103612ae857916024359160443560ff81168103612ae8579160643560ff81168103612ae85791608435906001600160401b038211612ae857612b8691600401612b17565b90815180825260208080930193019160005b828110612dd9575050505090565b83516001600160a01b031685529381019392810192600101612dcb565b906003821015612e035752565b634e487b7160e01b600052602160045260246000fd5b15612e2057565b60405162461bcd60e51b815260206004820152600f60248201526e564d3a20656d70747920617272617960881b6044820152606490fd5b15612e5e57565b60405162461bcd60e51b815260206004820152601260248201527115934e881b9bdd081e5bdd5c881d985d5b1d60721b6044820152606490fd5b9190811015612bfe5760051b0190565b356001600160a01b0381168103612ae85790565b909160406020928260208201602083525201929160005b828110612ee1575050505090565b909192938280600192838060a01b03612ef989612b03565b16815201950193929101612ed3565b15612f0f57565b606460405162461bcd60e51b815260206004820152602060248201527f564d3a2063616c6c6572206973206e6f74206167656e7420706c6174666f726d6044820152fd5b91908203918211612f6057565b634e487b7160e01b600052601160045260246000fd5b818110612f81575050565b60008155600101612f76565b81810292918115918404141715612f6057565b8115612faa570490565b634e487b7160e01b600052601260045260246000fd5b91908201809211612f6057565b918260005260086020526040600020549283156145ea578060005260086020526000604081205583600052600360205260406000209060a0848481010312612ae8578461301985612b03565b917f71ed9d4e5866fca58bdb5ed3d76986653d0b7f7776d965590aaea10fac75ce52608061304960208901612b03565b604080516001600160a01b0397881681529682166020880152898101359087015281890135606087015294a361012c613086608086013542612f53565b116145a0576130a16001600160a01b03821660058401614ae5565b1561454b576130af82614b30565b92620f42408411156144ee578560005260096020526040600020906001600160401b038111612c6a576130e28254612c14565b601f81116144bc575b506000601f821160011461445557908061311b9260009161444a575b508160011b916000199060031b1c19161790565b90555b600282015493600483015491606461313c60ff8560081c1688612f8d565b0493858511614442575b600101546001600160a01b038281166000908152600b60205260409020549116939092613177608082013542612f53565b97801561443a5787606481020460641488151715612f605761319c8160648a02612fa0565b935b811561443257604083013560648082028290041490151715612f60576131cb826064604086013502612fa0565b955b891561442b57604084013560648082028290041490151715612f60576131fa8a6064604087013502612fa0565b613208620f42408b04615197565b97613217621e84808c04615197565b604080517f596f75206172652061207269736b206d616e6167656d656e7420656e67696e656020808301919091527f20666f722041696f6e69732c206120636f70792d74726164696e6720706c6174928201929092526f3337b9369037b71029b7b6b734b0970560811b60608201527f4576616c75617465207468652074726164652062656c6f7720616e642064656360708201527f69646520776861742070657263656e74616765206f662074686520666f6c6c6f60908201527f776572207661756c7420746f20616c6c6f636174652e0a0a000000000000000060b08201527f4f55545055543a20526573706f6e642077697468204f4e4c5920612073696e6760c88201527f6c6520696e746567657220302d3130302e204e6f206578706c616e6174696f6e60e88201527f2e204e6f20746578742e204a75737420746865206e756d6265722e0a0a0000006101088201526e29a1a7a924a7239029a1a0a6229d0560891b6101258201527f20203020202020202020203d20736b6970207468697320747261646520656e746101348201526534b932b63c8560d11b6101548201527f2020312d333320202020203d206c6f7720636f6e666964656e6365202028736d61015a8201526f30b6361030b63637b1b0ba34b7b7148560811b61017a8201527f202033342d3636202020203d206d656469756d20636f6e666964656e6365202061018a820152751436b7b232b930ba329030b63637b1b0ba34b7b7148560511b6101aa8201527f202036372d3939202020203d206869676820636f6e666964656e6365202028736101c08201527f69676e69666963616e7420616c6c6f636174696f6e290a0000000000000000006101e08201527f20203130302020202020203d206d6178696d756d20636f6e666964656e6365206101f78201527f202866756c6c206d61782d7065722d747261646520616c6c6f636174696f6e2961021782015261050560f11b6102378201527320a62627a1a0aa24a7a7102327a926aaa6209d0560611b6102398201527f2020616c6c6f636174696f6e203d202873636f7265202f20313030292078206d61024d8201526c30bc2fb832b92fba3930b2328560991b61026d820152720808105d081cd8dbdc994f4c4c0c080b4f8809606a1b61027a8201528b51909c909b90928d92909161028d91613584918f918487019101612cd7565b6a1030b63637b1b0ba32b20560a91b908d840101528b820161029801720808105d081cd8dbdc994f4d4c08080b4f8809606a1b90526102ab9b818d925180938386010191602001916135d592612cd7565b8201016b1030b63637b1b0ba32b2050560a11b8c8201520361029781018c526102b701613602908c612cb6565b61360b90614b82565b9361361e906001600160a01b0316614b82565b9560400135620f4240900461363290615197565b9c61363c90615197565b926402540be400900461364e90615197565b9061365890615197565b9161366290615197565b926040519d8e956d169696902a2920a222901696968560911b6020880152602e87017f4c65616465722077616c6c65743a2020202020202020202020202000000000009052805190816049890191602001916136bd92612cd7565b860197600560f91b98896049820152604a81017f546f6b656e20626f756768743a2020202020202020202020202020000000000090528151918260658301916020019161370992612cd7565b01886065820152606681017f5472616465205553442076616c75653a2020202020202020202020240000000090528151918260828301916020019161374d92612cd7565b01876082820152608381017f5472616465206167653a20202020202020202020202020202020200000000000905281519182609e8301916020019161379192612cd7565b0165399030b3b78560d11b609e82015260a481017f43757272656e7420746f6b656e2070726963653a20202020202020240000000090528151918260c0830191602001916137de92612cd7565b016e10143c18b29898103ab734ba39948560891b60c082015260cf81017f54726164652073697a6520767320666f6c6c6f776572207661756c743a20000090528151918260ed8301916020019161383492612cd7565b01906a129037b3103b30bab63a0560a91b60ed83015260f882017f54726164652073697a6520767320667265652062616c616e63653a202020000090526101169181519182848301916020019161388a92612cd7565b019072129037b310333932b29031b0b834ba30b6050560691b908201520361010981018a52610129016138bd908a612cb6565b620f424090046138cc90615197565b96620f424090046138dc90615197565b926138e690615197565b95620f424090046138f690615197565b9160ff1661390390615197565b9160405196879460208601997f2d2d2d20464f4c4c4f574552205641554c54202d2d2d0a0000000000000000008b52603787017215985d5b1d081d1bdd185b0e88080808080809606a1b905280519081604a8901916020019161396592612cd7565b860184604a820152604b810172119c99594818985b185b98d94e880808080809606a1b905281519182605e830191602001916139a092612cd7565b01605e810161040560f31b9052815191826060830191602001916139c392612cd7565b016b129037b3103b30bab63a148560a11b6060820152606c81017213585e081c195c881d1c9859194e8808080809606a1b905281519182607f83019160200191613a0c92612cd7565b0190607f820152608081017102934b9b5903a37b632b930b731b29d1010160751b905281519182609283019160200191613a4592612cd7565b0164179898050560d91b609282015203607781018452609701613a689084612cb6565b604080517f2d2d2d2052554c455320286170706c79207374726963746c7920696e206f7264602082019081526732b914901696968560c11b928201929092527f312e20496620667265652062616c616e6365203c202431202d3e207265747572604882015264371018170560d91b60688201527f322e20496620747261646520616765203e2031323073202d3e2072657475726e606d820152721018101439ba30b6329039b4b3b730b614970560691b608d8201527f332e204966207472616465205553442076616c7565203c202435202d3e20726560a08201527f7475726e203020286e6f6973652074726164652c2069676e6f7265292e0a000060c08201527f342e20496620667265652062616c616e6365203c20243130202d3e207265747560de8201527f726e203020287661756c74206e6561726c7920656d707479292e0a0a0000000060fe820152732924a9a59029a1a7a9229021a2a4a624a7239d0560611b61011a8201527f20205269736b20312d3220202d3e206d61782073636f72652032300a0000000061012e8201527f20205269736b20332d3420202d3e206d61782073636f72652034300a0000000061014a8201527f20205269736b20352d3620202d3e206d61782073636f72652036350a000000006101668201527f20205269736b20372d3820202d3e206d61782073636f72652038350a000000006101828201527f20205269736b20392d3130202d3e206d61782073636f7265203130300a0a000061019e8201527f465245452042414c414e43452050454e414c544945533a0a00000000000000006101bc8201527f2020467265652062616c616e6365203c20313025206f66207661756c742020206101d48201527f2020202020202d3e207265647563652073636f7265206279203330250a0000006101f48201527f202054726164652073697a65203e20353025206f6620667265652062616c616e6102118201527f6365202020202d3e207265647563652073636f72652062792032302520286c616102318201527f7267652072656c6174697665206578706f73757265290a0000000000000000006102518201527f202054726164652073697a65203e2031303025206f6620667265652062616c616102688201527f6e63652020202d3e2072657475726e2030202863616e6e6f74206166666f72646102888201526214850560e91b6102a88201527f5349474e414c20535452454e47544820287573652074726164652073697a6520928101929092527f767320666f6c6c6f776572207661756c742c204e4f542072617720646f6c6c616102cb830152643939949d0560d91b6102eb8301527f20205472616465203c203525206f6620666f6c6c6f776572207661756c7420206102f08301527f2020202020202d3e207765616b207369676e616c2c206c65616e20636f6e736561031083015267393b30ba34bb328560c11b6103308301527f2020547261646520352d323025206f6620666f6c6c6f776572207661756c74206103388301527f2020202020202d3e206d6f646572617465207369676e616c0a000000000000006103588301527f20205472616465203e20323025206f6620666f6c6c6f776572207661756c74206103718301527f2020202020202d3e207374726f6e67207369676e616c2c206c6561646572206961039183015273399036b0b5b4b7339030903134b39036b7bb328560611b6103b18301527f20205472616465203e20353025206f6620666f6c6c6f776572207661756c74206103c58301527f2020202020202d3e2076657279207374726f6e67207369676e616c0a0a0000006103e583015270232922a9a42722a9a9902127a72aa99d0560791b6104028301527f2020547261646520616765203c203130732020202020202020202020202020206104138301527f2020202020202d3e2061646420757020746f20313020746f2066696e616c20736104338301526431b7b9328560d91b6104538301527f20205472616465206167652031302d33307320202020202020202020202020206104588301527f2020202020202d3e206e6f2061646a7573746d656e740a0000000000000000006104788301527f20205472616465206167652033302d313230732020202020202020202020202061048f8301527f2020202020202d3e207265647563652073636f72652062792031300a0a0000006104af8301527f494d504f5254414e543a20446f204e4f542074726561742024313030302061736104cc8301527f20696e686572656e746c79207369676e69666963616e742e0a000000000000006104ec8301527f202041202431303030207472616465206973207374726f6e67206966207468656105058301527f20666f6c6c6f776572207661756c742069732024323030302028353025292e0a6105258301527f202041202431303030207472616465206973207765616b2069662074686520666105458301527f6f6c6c6f776572207661756c74206973202431303030303020283125292e0a006105658301527f2020416c7761797320726561736f6e20696e2070657263656e74616765732c206105848301527f6e6f74206162736f6c75746520646f6c6c617220616d6f756e74732e0a0a00006105a48301527f526573706f6e64207769746820612073696e676c6520696e746567657220302d6105c2830152631898181760e11b6105e28301526105c68252610600820195919290916001600160401b03871184881017612c6a576142a89560209561428d61429c938a6040526106209561426b815180928c8a8d019101612cd7565b880161427f825180938c8a85019101612cd7565b019151809386840190612cd7565b01918451938491840190612cd7565b01038084520182612cb6565b604051630ffeb17d60e11b81529073037bb9c718f3f7fe5ecbdb0b600d607b5270677690602083600481855afa9283156143eb576000936143f7575b506702ea11e32ad500008301809311612f605760209161431961432761436e9360405192839187808401526040830190612cfa565b03601f198101835282612cb6565b6040516345de5df160e11b815267b24ac1afbcefc7086004820152306024820152636abcf6af60e01b60448201526080606482015294859384928391906084830190612cfa565b03925af19081156143eb576000916143b9575b50806000526008602052816040600020557fbd39bca4ed5e29cb7d341fec377583e2cb5a5e06015ff024e1a933e2fe29c47e600080a3565b90506020813d6020116143e3575b816143d460209383612cb6565b81010312612ae8575138614381565b3d91506143c7565b6040513d6000823e3d90fd5b9092506020813d602011614423575b8161441360209383612cb6565b81010312612ae8575191386142e4565b3d9150614406565b60006131fa565b6000956131cd565b60009361319e565b859450613146565b905087013538613107565b908260005260206000206000925b601f19831684106144a4576001935082601f1981161061448a575b5050811b01905561311e565b880135600019600384901b60f8161c19169055388061447e565b88810135825560209384019360019092019101614463565b6144e890836000526020600020601f840160051c8101916020851061035a57601f0160051c0190612f76565b386130eb565b505050505080600080516020615273833981519152606060405160208152601960208201527f696e73756666696369656e7420667265652062616c616e6365000000000000006040820152a2600052600a60205260006040812055565b505050508060008051602061527383398151915260606040516020815260166020820152751d1bdad95b881b9bdd081a5b88185b1b1bdddb1a5cdd60521b6040820152a2600052600a60205260006040812055565b5050505080600080516020615273833981519152606060405160208152600b60208201526a7374616c6520747261646560a81b6040820152a2600052600a60205260006040812055565b60405162461bcd60e51b815260206004820152601b60248201527f564d3a20756e6b6e6f776e2077617463686572207265717565737400000000006044820152606490fd5b90816020910312612ae857518015158103612ae85790565b1561464e57565b60405162461bcd60e51b815260206004820152601260248201527115934e8819195c1bdcda5d0819985a5b195960721b6044820152606490fd5b1561468f57565b60405162461bcd60e51b815260206004820152601260248201527115934e881b9bdd08185d5d1a1bdc9a5e995960721b6044820152606490fd5b6146d38154612c14565b90816146dd575050565b81601f600093116001146146f05750555b565b90808391825261470f601f60208420940160051c840160018501612f76565b5555565b6000928184526020916008835260409384862054928315614811578185918489526008835288888120558101031261153b57600a9392919035606481111561480857506064905b8260ff8316917fac7c244f5a94874741bde286781fc342da57eb796ea3b4f271ba72c0b515b10588888510948151908152851589820152a36147ba576147a09082614cc2565b808552600982526147b28486206146c9565b845252812055565b508060008051602061527383398151915260608651858152601586820152741cd8dbdc994818995b1bddc81d1a1c995cda1bdb19605a1b88820152a2808552600982526147b28486206146c9565b60ff169061475a565b855162461bcd60e51b815260048101869052601e60248201527f564d3a20756e6b6e6f776e2073747261746567697374207265717565737400006044820152606490fd5b1561485c57565b60405162461bcd60e51b81526020600482015260126024820152710564d3a207269736b4c6576656c20312d31360741b6044820152606490fd5b1561489d57565b60405162461bcd60e51b815260206004820152601060248201526f0564d3a206d617850637420312d3130360841b6044820152606490fd5b156148dc57565b60405162461bcd60e51b815260206004820152602860248201527f564d3a20616c6c6f776c69737420656d7074792c206e6f207472616465732077604482015267696c6c20636f707960c01b6064820152608490fd5b1561493957565b60405162461bcd60e51b815260206004820152601060248201526f15934e881e995c9bc819195c1bdcda5d60821b6044820152606490fd5b6001600160401b038111612c6a5760051b60200190565b90600160401b8111612c6a578154908083558181106149a657505050565b6146ee9260005260206000209182019101612f76565b8054600160401b811015612c6a576149d991600182018155612be6565b819291549060031b91821b91600019901b1916179055565b156149f857565b60405162461bcd60e51b815260206004820152600d60248201526c2b269d103737ba1037bbb732b960991b6044820152606490fd5b90604051918281549182825260209260208301916000526020600020936000905b828210614a64575050506146ee92500383612cb6565b85546001600160a01b031684526001958601958895509381019390910190614a4e565b6040519060208201926001600160601b0319809260601b16845260601b16603482015260288152614ab781612c80565b51902090565b81810392916000138015828513169184121617612f6057565b6000198114612f605760010190565b9060005b8254811015614b2857614afc8184612be6565b905460039190911b1c6001600160a01b0390811690831614614b2057600101614ae9565b505050600190565b505050600090565b600260038201549101549081811015614b4f57614b4c91612f53565b90565b5050600090565b6001600160401b038111612c6a57601f01601f191660200190565b908151811015612bfe570160200190565b604051906001600160601b03199060601b1660208201526014808252614ba782612c9b565b60405190614bb482612c9b565b601082526f181899199a1a9b1b9c1cb0b131b232b360811b602083015260405192614bde84612c80565b602a8452602084016040368237845115612bfe576030905383519260019360011015612bfe576078602186015360005b838110614c1d57505050505090565b6001600160f81b03199081614c3f614c358387614b71565b5160fc1c85614b71565b51169181871b92600290838504821484151715612f6057848201809211612f6057614c6e9060001a918a614b71565b53614c89600f614c7e8488614b71565b5160f81c1685614b71565b5116916003908101809111612f6057614ca7879360001a9189614b71565b5301614c0e565b51906001600160a01b0382168203612ae857565b8060005260036020526040600020600960205260406000209260405193600085825491614cee83612c14565b9283835260208301946001916001811690816000146150c45750600114615082575b5050614d1e92500386612cb6565b60a085805181010312612ae857614d3490614cae565b506080614d4360408601614cae565b94015193614d5083614b30565b946064614d6c600286015460ff600488015460081c1690612f8d565b0486811161507b575b614d8560649160ff861690612f8d565b0495620f4240871061502c57808711615024575b506001600160a01b0382166000908152600b602052604090205490811561501c5750925b614dc8600d54614ad6565b9283600d556040519360208501908782524260408701526001600160601b03198560601b1660608701526074860152607485526001600160401b03908560a08101108260a088011117612c6a5760a08601604081905286519091208454600186015491936001600160a01b039283169391909216916102008901908111911117612c6a57610200870160405260a087015260c08601528660e086015260018060a01b03841661010086015287610120860152856101408601526000610160860152600061018086015260006101a0860152426101c086015260006101e086015280600052600460205260406000209060018060a01b0360a0870151166001600160601b0360a01b90818454161783556001830160018060a01b0360c0890151168282541617905560e08701516002840155600383019060018060a01b0361010089015116908254161790556101208601516004830155610140860151600583015561016086015160068301556101808601516007830155600882016101a08701516002811015612e03577f0fac05f01c50ae793f1a1fb2912053546d62525ac2dfad4adbc641f37c09bf8a98600360ff978c96600a6101e060409d7fb1eefddb5e15079c801481dd2d9558f62b8d6e4ba1d15d3e8da341e1d07ccd18986060988e801983541691161790556101c081015160098501550151910155866000526006602052614fd9868c6000206149bc565b01614fe58d8254612fc0565b905588516001600160a01b0389168152602081018d9052808a0191909152a383519687521660208601526001600160a01b031693a3565b905092614dbd565b955038614d99565b50505050509050600080516020615273833981519152606060405160208152601e60208201527f616c6c6f636174656420616d6f756e742062656c6f77206d696e696d756d00006040820152a2565b5085614d75565b6000908152602081209092505b8483106150a95750614d1e93505081016020013880614d10565b81935090816020925483858d0101520191019091889261508f565b60ff1916875250614d1e94151560051b84016020019250389150819050614d10565b6000915b81549283811015615191576150ff8184612be6565b90546003956001600160a01b0392909190871b1c82168483161461512957505060010192506150ea565b90925060001991828201918211612f6057612a1c8461514b6151599488612be6565b905490891b1c169186612be6565b8254801561517b57019261516d8484612be6565b81939154921b1b1916905555565b634e487b7160e01b600052603160045260246000fd5b50505050565b80156152345780816000925b6152205750806151b283614b56565b926151c06040519485612cb6565b808452601f196151cf82614b56565b01366020860137905b6151e157505090565b8015612f60576000190190600a9060308282068101809111612f605760f81b6001600160f81b03191660001a6152178486614b71565b530490816151d8565b9161522c600a91614ad6565b9204806151a3565b5060405161524181612c9b565b60018152600360fc1b60208201529056fe405787fa12a823e0f2b7631cc41b3ba8828b3321ca811111fa75cd3aa3bb5ace161609ed0659583c4124f93794aade207fa9fe3124c4ee08cb05a724f0e760cab10e2d527612073b26eecdfd717e6a320cf44b4afac2b0732d9fcbe2b7fa0cf6a264697066735822122077f326504f51d550119d058b42c68c06d2a141784627b2c47168059906104be164736f6c63430008180033",
  "linkReferences": {},
  "deployedLinkReferences": {}
}