{
  "_format": "hh-sol-artifact-1",
  "contractName": "SomniaGreeting",
  "sourceName": "contracts/SomniaGreeting.sol",
  "abi": [
    {
      "inputs": [
        {
          "internalType": "string",
          "name": "_greeting",
          "type": "string"
        }
      ],
      "stateMutability": "nonpayable",
      "type": "constructor"
    },
    {
      "anonymous": false,
      "inputs": [
        {
          "indexed": true,
          "internalType": "address",
          "name": "updatedBy",
          "type": "address"
        },
        {
          "indexed": false,
          "internalType": "string",
          "name": "newGreeting",
          "type": "string"
        }
      ],
      "name": "GreetingChanged",
      "type": "event"
    },
    {
      "inputs": [],
      "name": "greeting",
      "outputs": [
        {
          "internalType": "string",
          "name": "",
          "type": "string"
        }
      ],
      "stateMutability": "view",
      "type": "function"
    },
    {
      "inputs": [],
      "name": "owner",
      "outputs": [
        {
          "internalType": "address",
          "name": "",
          "type": "address"
        }
      ],
      "stateMutability": "view",
      "type": "function"
    },
    {
      "inputs": [
        {
          "internalType": "string",
          "name": "_greeting",
          "type": "string"
        }
      ],
      "name": "setGreeting",
      "outputs": [],
      "stateMutability": "nonpayable",
      "type": "function"
    }
  ],
  "bytecode": "0x608060405234610200576106698038038061001981610205565b92833981019060209081818403126102005780516001600160401b0391828211610200570191601f908482850112156102005783518381116101d657601f199461006882850187168401610205565b9682885283838301011161020057829060005b8381106101ec5750506000918701015284519283116101d657600054936001948581811c911680156101cc575b838210146101b657838111610170575b5081928411600114610110575050819293600092610105575b5050600019600383901b1c191690821b176000555b80546001600160a01b0319163317905560405161043e908161022b8239f35b0151905038806100d1565b6000808052828120918516969193925b87821061015957505083859610610140575b505050811b016000556100e6565b015160001960f88460031b161c19169055388080610132565b808785968294968601518155019501930190610120565b60008052826000208480870160051c8201928588106101ad575b0160051c019086905b8281106101a15750506100b8565b60008155018690610193565b9250819261018a565b634e487b7160e01b600052602260045260246000fd5b90607f16906100a8565b634e487b7160e01b600052604160045260246000fd5b81810183015189820184015284920161007b565b600080fd5b6040519190601f01601f191682016001600160401b038111838210176101d65760405256fe608080604052600436101561001357600080fd5b600090813560e01c9081638da5cb5b1461032457508063a4136862146101275763ef690cc01461004257600080fd5b34610124578060031936011261012457604051908080549061006382610385565b808552916020916001918281169081156100f757506001146100a0575b61009c866100908188038261034d565b604051918291826103bf565b0390f35b80809550527f290decd9548b62a8d60345a988386fc84ba6bc95484008f6362f93160ef3e5635b8385106100e4575050505081016020016100908261009c38610080565b80548686018401529382019381016100c7565b905086955061009c9693506020925061009094915060ff191682840152151560051b820101929338610080565b80fd5b503461012457602090816003193601126101245760043567ffffffffffffffff80821161032057366023830112156103205781600401359381851161030857601f19946040519361017f8388601f850116018661034d565b818552366024838301011161031c57818692602485930183880137850101528251918211610308576101b18454610385565b601f81116102a7575b508094601f831160011461022a57505082938192939161021f575b508160011b916000199060031b1c19161782555b7fea07f7ca8b8b2cfaab1214b6e1459ad859cf1ff2d60a948a1f9c4644970c8950604051806102193394826103bf565b0390a280f35b9050820151386101d5565b8216948480527f290decd9548b62a8d60345a988386fc84ba6bc95484008f6362f93160ef3e5639185905b87821061028f57505082600194959610610276575b5050811b0182556101e9565b84015160001960f88460031b161c19169055388061026a565b80600184958294958901518155019401920190610255565b8480527f290decd9548b62a8d60345a988386fc84ba6bc95484008f6362f93160ef3e563601f840160051c8101918385106102fe575b601f0160051c01905b8181106102f357506101ba565b8581556001016102e6565b90915081906102dd565b634e487b7160e01b84526041600452602484fd5b8580fd5b8280fd5b9050346103495781600319360112610349576001546001600160a01b03168152602090f35b5080fd5b90601f8019910116810190811067ffffffffffffffff82111761036f57604052565b634e487b7160e01b600052604160045260246000fd5b90600182811c921680156103b5575b602083101461039f57565b634e487b7160e01b600052602260045260246000fd5b91607f1691610394565b6020808252825181830181905290939260005b8281106103f457505060409293506000838284010152601f8019910116010190565b8181018601518482016040015285016103d256fea26469706673582212203301138c713e85c6484a57070b91c28dd61cb63d223804189c1a81d637bf9d5464736f6c63430008180033",
  "linkReferences": {},
  "deployedLinkReferences": {}
}