{
  "_format": "hh-sol-artifact-1",
  "contractName": "VaultManager",
  "sourceName": "contracts/VaultManager.sol",
  "abi": [
    {
      "inputs": [
        {
          "internalType": "address",
          "name": "_ausd",
          "type": "address"
        },
        {
          "internalType": "string",
          "name": "_apiBase",
          "type": "string"
        },
        {
          "internalType": "string",
          "name": "_priceApiBase",
          "type": "string"
        }
      ],
      "stateMutability": "nonpayable",
      "type": "constructor"
    },
    {
      "anonymous": false,
      "inputs": [
        {
          "indexed": true,
          "internalType": "bytes32",
          "name": "vaultId",
          "type": "bytes32"
        },
        {
          "indexed": false,
          "internalType": "address[]",
          "name": "tokens",
          "type": "address[]"
        }
      ],
      "name": "AllowlistAdded",
      "type": "event"
    },
    {
      "anonymous": false,
      "inputs": [
        {
          "indexed": true,
          "internalType": "bytes32",
          "name": "vaultId",
          "type": "bytes32"
        },
        {
          "indexed": false,
          "internalType": "address[]",
          "name": "tokens",
          "type": "address[]"
        }
      ],
      "name": "AllowlistRemoved",
      "type": "event"
    },
    {
      "anonymous": false,
      "inputs": [
        {
          "indexed": true,
          "internalType": "address",
          "name": "follower",
          "type": "address"
        },
        {
          "indexed": true,
          "internalType": "address",
          "name": "keeper",
          "type": "address"
        }
      ],
      "name": "KeeperSet",
      "type": "event"
    },
    {
      "anonymous": false,
      "inputs": [
        {
          "indexed": true,
          "internalType": "bytes32",
          "name": "positionId",
          "type": "bytes32"
        },
        {
          "indexed": true,
          "internalType": "bytes32",
          "name": "vaultId",
          "type": "bytes32"
        },
        {
          "indexed": false,
          "internalType": "int256",
          "name": "pnl",
          "type": "int256"
        },
        {
          "indexed": false,
          "internalType": "uint256",
          "name": "exitPrice",
          "type": "uint256"
        }
      ],
      "name": "PositionClosed",
      "type": "event"
    },
    {
      "anonymous": false,
      "inputs": [
        {
          "indexed": true,
          "internalType": "bytes32",
          "name": "positionId",
          "type": "bytes32"
        },
        {
          "indexed": true,
          "internalType": "bytes32",
          "name": "vaultId",
          "type": "bytes32"
        },
        {
          "indexed": false,
          "internalType": "address",
          "name": "token",
          "type": "address"
        },
        {
          "indexed": false,
          "internalType": "uint256",
          "name": "ausdAllocated",
          "type": "uint256"
        },
        {
          "indexed": false,
          "internalType": "uint256",
          "name": "entryPrice",
          "type": "uint256"
        }
      ],
      "name": "PositionOpened",
      "type": "event"
    },
    {
      "anonymous": false,
      "inputs": [
        {
          "indexed": true,
          "internalType": "address",
          "name": "token",
          "type": "address"
        },
        {
          "indexed": false,
          "internalType": "uint256",
          "name": "price",
          "type": "uint256"
        }
      ],
      "name": "PriceUpdated",
      "type": "event"
    },
    {
      "anonymous": false,
      "inputs": [
        {
          "indexed": true,
          "internalType": "uint256",
          "name": "requestId",
          "type": "uint256"
        },
        {
          "indexed": true,
          "internalType": "bytes32",
          "name": "vaultId",
          "type": "bytes32"
        }
      ],
      "name": "StrategistRequested",
      "type": "event"
    },
    {
      "anonymous": false,
      "inputs": [
        {
          "indexed": true,
          "internalType": "uint256",
          "name": "requestId",
          "type": "uint256"
        },
        {
          "indexed": true,
          "internalType": "bytes32",
          "name": "vaultId",
          "type": "bytes32"
        },
        {
          "indexed": false,
          "internalType": "uint8",
          "name": "score",
          "type": "uint8"
        },
        {
          "indexed": false,
          "internalType": "bool",
          "name": "willExecute",
          "type": "bool"
        }
      ],
      "name": "StrategistResponse",
      "type": "event"
    },
    {
      "anonymous": false,
      "inputs": [
        {
          "indexed": true,
          "internalType": "bytes32",
          "name": "vaultId",
          "type": "bytes32"
        },
        {
          "indexed": true,
          "internalType": "address",
          "name": "token",
          "type": "address"
        },
        {
          "indexed": false,
          "internalType": "uint256",
          "name": "ausdAllocated",
          "type": "uint256"
        },
        {
          "indexed": false,
          "internalType": "uint8",
          "name": "copyScore",
          "type": "uint8"
        }
      ],
      "name": "TradeCopied",
      "type": "event"
    },
    {
      "anonymous": false,
      "inputs": [
        {
          "indexed": true,
          "internalType": "bytes32",
          "name": "vaultId",
          "type": "bytes32"
        },
        {
          "indexed": false,
          "internalType": "string",
          "name": "reason",
          "type": "string"
        }
      ],
      "name": "TradeSkipped",
      "type": "event"
    },
    {
      "anonymous": false,
      "inputs": [
        {
          "indexed": true,
          "internalType": "bytes32",
          "name": "vaultId",
          "type": "bytes32"
        }
      ],
      "name": "VaultClosed",
      "type": "event"
    },
    {
      "anonymous": false,
      "inputs": [
        {
          "indexed": true,
          "internalType": "address",
          "name": "follower",
          "type": "address"
        },
        {
          "indexed": true,
          "internalType": "address",
          "name": "leader",
          "type": "address"
        },
        {
          "indexed": true,
          "internalType": "bytes32",
          "name": "vaultId",
          "type": "bytes32"
        },
        {
          "indexed": false,
          "internalType": "uint256",
          "name": "amount",
          "type": "uint256"
        }
      ],
      "name": "VaultCreated",
      "type": "event"
    },
    {
      "anonymous": false,
      "inputs": [
        {
          "indexed": true,
          "internalType": "bytes32",
          "name": "vaultId",
          "type": "bytes32"
        },
        {
          "indexed": false,
          "internalType": "uint256",
          "name": "amount",
          "type": "uint256"
        }
      ],
      "name": "VaultDeposited",
      "type": "event"
    },
    {
      "anonymous": false,
      "inputs": [
        {
          "indexed": true,
          "internalType": "bytes32",
          "name": "vaultId",
          "type": "bytes32"
        }
      ],
      "name": "VaultPaused",
      "type": "event"
    },
    {
      "anonymous": false,
      "inputs": [
        {
          "indexed": true,
          "internalType": "bytes32",
          "name": "vaultId",
          "type": "bytes32"
        }
      ],
      "name": "VaultResumed",
      "type": "event"
    },
    {
      "anonymous": false,
      "inputs": [
        {
          "indexed": true,
          "internalType": "bytes32",
          "name": "vaultId",
          "type": "bytes32"
        },
        {
          "indexed": false,
          "internalType": "uint256",
          "name": "amount",
          "type": "uint256"
        }
      ],
      "name": "VaultWithdrawn",
      "type": "event"
    },
    {
      "anonymous": false,
      "inputs": [
        {
          "indexed": true,
          "internalType": "uint256",
          "name": "requestId",
          "type": "uint256"
        },
        {
          "indexed": true,
          "internalType": "bytes32",
          "name": "vaultId",
          "type": "bytes32"
        }
      ],
      "name": "WatcherRequested",
      "type": "event"
    },
    {
      "anonymous": false,
      "inputs": [
        {
          "indexed": true,
          "internalType": "uint256",
          "name": "requestId",
          "type": "uint256"
        },
        {
          "indexed": true,
          "internalType": "bytes32",
          "name": "vaultId",
          "type": "bytes32"
        },
        {
          "indexed": false,
          "internalType": "address",
          "name": "tokenIn",
          "type": "address"
        },
        {
          "indexed": false,
          "internalType": "address",
          "name": "tokenOut",
          "type": "address"
        },
        {
          "indexed": false,
          "internalType": "uint256",
          "name": "usdValue",
          "type": "uint256"
        },
        {
          "indexed": false,
          "internalType": "uint256",
          "name": "tradeTimestamp",
          "type": "uint256"
        }
      ],
      "name": "WatcherResponse",
      "type": "event"
    },
    {
      "inputs": [],
      "name": "AGENT_PLATFORM",
      "outputs": [
        {
          "internalType": "address",
          "name": "",
          "type": "address"
        }
      ],
      "stateMutability": "view",
      "type": "function"
    },
    {
      "inputs": [],
      "name": "API_BASE",
      "outputs": [
        {
          "internalType": "string",
          "name": "",
          "type": "string"
        }
      ],
      "stateMutability": "view",
      "type": "function"
    },
    {
      "inputs": [],
      "name": "AUSD",
      "outputs": [
        {
          "internalType": "address",
          "name": "",
          "type": "address"
        }
      ],
      "stateMutability": "view",
      "type": "function"
    },
    {
      "inputs": [],
      "name": "JSON_API_AGENT_ID",
      "outputs": [
        {
          "internalType": "uint256",
          "name": "",
          "type": "uint256"
        }
      ],
      "stateMutability": "view",
      "type": "function"
    },
    {
      "inputs": [],
      "name": "LLM_AGENT_ID",
      "outputs": [
        {
          "internalType": "uint256",
          "name": "",
          "type": "uint256"
        }
      ],
      "stateMutability": "view",
      "type": "function"
    },
    {
      "inputs": [],
      "name": "MAX_TRADE_AGE",
      "outputs": [
        {
          "internalType": "uint256",
          "name": "",
          "type": "uint256"
        }
      ],
      "stateMutability": "view",
      "type": "function"
    },
    {
      "inputs": [],
      "name": "MIN_COPY_SCORE",
      "outputs": [
        {
          "internalType": "uint8",
          "name": "",
          "type": "uint8"
        }
      ],
      "stateMutability": "view",
      "type": "function"
    },
    {
      "inputs": [],
      "name": "MIN_TRADE_AUSD",
      "outputs": [
        {
          "internalType": "uint256",
          "name": "",
          "type": "uint256"
        }
      ],
      "stateMutability": "view",
      "type": "function"
    },
    {
      "inputs": [],
      "name": "PIPELINE_TIMEOUT",
      "outputs": [
        {
          "internalType": "uint256",
          "name": "",
          "type": "uint256"
        }
      ],
      "stateMutability": "view",
      "type": "function"
    },
    {
      "inputs": [],
      "name": "PRICE_API_BASE",
      "outputs": [
        {
          "internalType": "string",
          "name": "",
          "type": "string"
        }
      ],
      "stateMutability": "view",
      "type": "function"
    },
    {
      "inputs": [
        {
          "internalType": "address",
          "name": "leader",
          "type": "address"
        },
        {
          "internalType": "address[]",
          "name": "tokens",
          "type": "address[]"
        }
      ],
      "name": "addToAllowlist",
      "outputs": [],
      "stateMutability": "nonpayable",
      "type": "function"
    },
    {
      "inputs": [
        {
          "internalType": "address",
          "name": "follower",
          "type": "address"
        },
        {
          "internalType": "address",
          "name": "leader",
          "type": "address"
        }
      ],
      "name": "checkLeaderActivity",
      "outputs": [],
      "stateMutability": "payable",
      "type": "function"
    },
    {
      "inputs": [
        {
          "internalType": "bytes32",
          "name": "positionId",
          "type": "bytes32"
        }
      ],
      "name": "closePosition",
      "outputs": [],
      "stateMutability": "nonpayable",
      "type": "function"
    },
    {
      "inputs": [
        {
          "internalType": "address",
          "name": "leader",
          "type": "address"
        },
        {
          "internalType": "uint256",
          "name": "amount",
          "type": "uint256"
        },
        {
          "internalType": "uint8",
          "name": "riskLevel",
          "type": "uint8"
        },
        {
          "internalType": "uint8",
          "name": "maxPerTradePct",
          "type": "uint8"
        },
        {
          "internalType": "address[]",
          "name": "allowlist",
          "type": "address[]"
        }
      ],
      "name": "createVault",
      "outputs": [],
      "stateMutability": "nonpayable",
      "type": "function"
    },
    {
      "inputs": [
        {
          "internalType": "address",
          "name": "leader",
          "type": "address"
        },
        {
          "internalType": "uint256",
          "name": "amount",
          "type": "uint256"
        }
      ],
      "name": "deposit",
      "outputs": [],
      "stateMutability": "nonpayable",
      "type": "function"
    },
    {
      "inputs": [
        {
          "internalType": "address",
          "name": "",
          "type": "address"
        },
        {
          "internalType": "uint256",
          "name": "",
          "type": "uint256"
        }
      ],
      "name": "followerVaults",
      "outputs": [
        {
          "internalType": "bytes32",
          "name": "",
          "type": "bytes32"
        }
      ],
      "stateMutability": "view",
      "type": "function"
    },
    {
      "inputs": [
        {
          "internalType": "address",
          "name": "follower",
          "type": "address"
        },
        {
          "internalType": "address",
          "name": "leader",
          "type": "address"
        }
      ],
      "name": "getAllowlist",
      "outputs": [
        {
          "internalType": "address[]",
          "name": "",
          "type": "address[]"
        }
      ],
      "stateMutability": "view",
      "type": "function"
    },
    {
      "inputs": [
        {
          "internalType": "address",
          "name": "follower",
          "type": "address"
        }
      ],
      "name": "getFollowerVaults",
      "outputs": [
        {
          "internalType": "bytes32[]",
          "name": "",
          "type": "bytes32[]"
        }
      ],
      "stateMutability": "view",
      "type": "function"
    },
    {
      "inputs": [
        {
          "internalType": "address",
          "name": "follower",
          "type": "address"
        },
        {
          "internalType": "address",
          "name": "leader",
          "type": "address"
        }
      ],
      "name": "getFreeBalance",
      "outputs": [
        {
          "internalType": "uint256",
          "name": "",
          "type": "uint256"
        }
      ],
      "stateMutability": "view",
      "type": "function"
    },
    {
      "inputs": [
        {
          "internalType": "address",
          "name": "follower",
          "type": "address"
        },
        {
          "internalType": "address",
          "name": "leader",
          "type": "address"
        }
      ],
      "name": "getOpenPositions",
      "outputs": [
        {
          "internalType": "bytes32[]",
          "name": "openIds",
          "type": "bytes32[]"
        }
      ],
      "stateMutability": "view",
      "type": "function"
    },
    {
      "inputs": [
        {
          "internalType": "address",
          "name": "follower",
          "type": "address"
        },
        {
          "internalType": "address",
          "name": "leader",
          "type": "address"
        }
      ],
      "name": "getUnrealizedPnL",
      "outputs": [
        {
          "internalType": "int256",
          "name": "totalPnl",
          "type": "int256"
        }
      ],
      "stateMutability": "view",
      "type": "function"
    },
    {
      "inputs": [
        {
          "internalType": "address",
          "name": "follower",
          "type": "address"
        },
        {
          "internalType": "address",
          "name": "leader",
          "type": "address"
        }
      ],
      "name": "getVault",
      "outputs": [
        {
          "components": [
            {
              "internalType": "address",
              "name": "follower",
              "type": "address"
            },
            {
              "internalType": "address",
              "name": "leader",
              "type": "address"
            },
            {
              "internalType": "uint256",
              "name": "ausdLocked",
              "type": "uint256"
            },
            {
              "internalType": "uint256",
              "name": "ausdAllocated",
              "type": "uint256"
            },
            {
              "internalType": "uint8",
              "name": "riskLevel",
              "type": "uint8"
            },
            {
              "internalType": "uint8",
              "name": "maxPerTradePct",
              "type": "uint8"
            },
            {
              "internalType": "address[]",
              "name": "allowlist",
              "type": "address[]"
            },
            {
              "internalType": "enum VaultManager.VaultStatus",
              "name": "status",
              "type": "uint8"
            }
          ],
          "internalType": "struct VaultManager.VaultConfig",
          "name": "",
          "type": "tuple"
        }
      ],
      "stateMutability": "view",
      "type": "function"
    },
    {
      "inputs": [
        {
          "internalType": "address",
          "name": "",
          "type": "address"
        }
      ],
      "name": "keeperOf",
      "outputs": [
        {
          "internalType": "address",
          "name": "",
          "type": "address"
        }
      ],
      "stateMutability": "view",
      "type": "function"
    },
    {
      "inputs": [
        {
          "internalType": "address",
          "name": "",
          "type": "address"
        }
      ],
      "name": "latestPrice",
      "outputs": [
        {
          "internalType": "uint256",
          "name": "",
          "type": "uint256"
        }
      ],
      "stateMutability": "view",
      "type": "function"
    },
    {
      "inputs": [
        {
          "internalType": "uint256",
          "name": "requestId",
          "type": "uint256"
        },
        {
          "internalType": "bytes",
          "name": "response",
          "type": "bytes"
        }
      ],
      "name": "onPriceUpdate",
      "outputs": [],
      "stateMutability": "nonpayable",
      "type": "function"
    },
    {
      "inputs": [
        {
          "internalType": "uint256",
          "name": "requestId",
          "type": "uint256"
        },
        {
          "internalType": "bytes",
          "name": "response",
          "type": "bytes"
        }
      ],
      "name": "onStrategistResponse",
      "outputs": [],
      "stateMutability": "nonpayable",
      "type": "function"
    },
    {
      "inputs": [
        {
          "internalType": "uint256",
          "name": "requestId",
          "type": "uint256"
        },
        {
          "internalType": "bytes",
          "name": "response",
          "type": "bytes"
        }
      ],
      "name": "onWatcherResponse",
      "outputs": [],
      "stateMutability": "nonpayable",
      "type": "function"
    },
    {
      "inputs": [],
      "name": "owner",
      "outputs": [
        {
          "internalType": "address",
          "name": "",
          "type": "address"
        }
      ],
      "stateMutability": "view",
      "type": "function"
    },
    {
      "inputs": [
        {
          "internalType": "address",
          "name": "leader",
          "type": "address"
        }
      ],
      "name": "pauseVault",
      "outputs": [],
      "stateMutability": "nonpayable",
      "type": "function"
    },
    {
      "inputs": [
        {
          "internalType": "bytes32",
          "name": "",
          "type": "bytes32"
        }
      ],
      "name": "pipelineActiveAt",
      "outputs": [
        {
          "internalType": "uint256",
          "name": "",
          "type": "uint256"
        }
      ],
      "stateMutability": "view",
      "type": "function"
    },
    {
      "inputs": [
        {
          "internalType": "bytes32",
          "name": "",
          "type": "bytes32"
        }
      ],
      "name": "positions",
      "outputs": [
        {
          "internalType": "address",
          "name": "follower",
          "type": "address"
        },
        {
          "internalType": "address",
          "name": "leader",
          "type": "address"
        },
        {
          "internalType": "bytes32",
          "name": "vaultId",
          "type": "bytes32"
        },
        {
          "internalType": "address",
          "name": "token",
          "type": "address"
        },
        {
          "internalType": "uint256",
          "name": "ausdAllocated",
          "type": "uint256"
        },
        {
          "internalType": "uint256",
          "name": "entryPrice",
          "type": "uint256"
        },
        {
          "internalType": "uint256",
          "name": "exitPrice",
          "type": "uint256"
        },
        {
          "internalType": "int256",
          "name": "pnl",
          "type": "int256"
        },
        {
          "internalType": "enum VaultManager.PositionStatus",
          "name": "status",
          "type": "uint8"
        },
        {
          "internalType": "uint256",
          "name": "openedAt",
          "type": "uint256"
        },
        {
          "internalType": "uint256",
          "name": "closedAt",
          "type": "uint256"
        }
      ],
      "stateMutability": "view",
      "type": "function"
    },
    {
      "inputs": [
        {
          "internalType": "address",
          "name": "leader",
          "type": "address"
        },
        {
          "internalType": "address[]",
          "name": "tokens",
          "type": "address[]"
        }
      ],
      "name": "removeFromAllowlist",
      "outputs": [],
      "stateMutability": "nonpayable",
      "type": "function"
    },
    {
      "inputs": [
        {
          "internalType": "uint256",
          "name": "",
          "type": "uint256"
        }
      ],
      "name": "requestToVault",
      "outputs": [
        {
          "internalType": "bytes32",
          "name": "",
          "type": "bytes32"
        }
      ],
      "stateMutability": "view",
      "type": "function"
    },
    {
      "inputs": [
        {
          "internalType": "address",
          "name": "leader",
          "type": "address"
        }
      ],
      "name": "resumeVault",
      "outputs": [],
      "stateMutability": "nonpayable",
      "type": "function"
    },
    {
      "inputs": [
        {
          "internalType": "string",
          "name": "base",
          "type": "string"
        }
      ],
      "name": "setApiBase",
      "outputs": [],
      "stateMutability": "nonpayable",
      "type": "function"
    },
    {
      "inputs": [
        {
          "internalType": "address",
          "name": "keeper",
          "type": "address"
        }
      ],
      "name": "setKeeper",
      "outputs": [],
      "stateMutability": "nonpayable",
      "type": "function"
    },
    {
      "inputs": [
        {
          "internalType": "string",
          "name": "base",
          "type": "string"
        }
      ],
      "name": "setPriceApiBase",
      "outputs": [],
      "stateMutability": "nonpayable",
      "type": "function"
    },
    {
      "inputs": [
        {
          "internalType": "address",
          "name": "newOwner",
          "type": "address"
        }
      ],
      "name": "transferOwnership",
      "outputs": [],
      "stateMutability": "nonpayable",
      "type": "function"
    },
    {
      "inputs": [
        {
          "internalType": "address",
          "name": "token",
          "type": "address"
        }
      ],
      "name": "updatePrice",
      "outputs": [],
      "stateMutability": "payable",
      "type": "function"
    },
    {
      "inputs": [
        {
          "internalType": "address",
          "name": "follower",
          "type": "address"
        },
        {
          "internalType": "address",
          "name": "leader",
          "type": "address"
        }
      ],
      "name": "vaultId",
      "outputs": [
        {
          "internalType": "bytes32",
          "name": "",
          "type": "bytes32"
        }
      ],
      "stateMutability": "pure",
      "type": "function"
    },
    {
      "inputs": [
        {
          "internalType": "bytes32",
          "name": "",
          "type": "bytes32"
        },
        {
          "internalType": "uint256",
          "name": "",
          "type": "uint256"
        }
      ],
      "name": "vaultPositions",
      "outputs": [
        {
          "internalType": "bytes32",
          "name": "",
          "type": "bytes32"
        }
      ],
      "stateMutability": "view",
      "type": "function"
    },
    {
      "inputs": [
        {
          "internalType": "bytes32",
          "name": "",
          "type": "bytes32"
        }
      ],
      "name": "vaults",
      "outputs": [
        {
          "internalType": "address",
          "name": "follower",
          "type": "address"
        },
        {
          "internalType": "address",
          "name": "leader",
          "type": "address"
        },
        {
          "internalType": "uint256",
          "name": "ausdLocked",
          "type": "uint256"
        },
        {
          "internalType": "uint256",
          "name": "ausdAllocated",
          "type": "uint256"
        },
        {
          "internalType": "uint8",
          "name": "riskLevel",
          "type": "uint8"
        },
        {
          "internalType": "uint8",
          "name": "maxPerTradePct",
          "type": "uint8"
        },
        {
          "internalType": "enum VaultManager.VaultStatus",
          "name": "status",
          "type": "uint8"
        }
      ],
      "stateMutability": "view",
      "type": "function"
    },
    {
      "inputs": [
        {
          "internalType": "address",
          "name": "leader",
          "type": "address"
        }
      ],
      "name": "withdraw",
      "outputs": [],
      "stateMutability": "nonpayable",
      "type": "function"
    },
    {
      "stateMutability": "payable",
      "type": "receive"
    }
  ],
  "bytecode": "0x60a060405234620003ac5762005475803803806200001d81620003b1565b928339810190606081830312620003ac578051916001600160a01b03831690818403620003ac5760208381015190946001600160401b03949091858111620003ac57836200006d918301620003ed565b926040820151868111620003ac57620000879201620003ed565b92156200036757608052600080546001600160a01b031916331781558151929084841162000271576001938454938585811c951680156200035c575b8886101462000348578190601f95868111620002f5575b5088908683116001146200029157849262000285575b5050600019600383901b1c191690851b1784555b815194851162000271576002548481811c9116801562000266575b87821014620002525783811162000209575b5085928511600114620001a057939450849291908362000194575b50501b916000199060031b1c1916176002555b6040516150159081620004608239608051818181610674015281816116ba01528181611d1101528181612535015261268b0152f35b0151925038806200014c565b6002815285812093958591601f198316915b88838310620001ee5750505010620001d4575b505050811b016002556200015f565b015160001960f88460031b161c19169055388080620001c5565b858701518855909601959485019487935090810190620001b2565b600282528682208480880160051c82019289891062000248575b0160051c019085905b8281106200023c57505062000131565b8381550185906200022c565b9250819262000223565b634e487b7160e01b82526022600452602482fd5b90607f16906200011f565b634e487b7160e01b81526041600452602490fd5b015190503880620000f0565b8785528985208894509190601f198416865b8c828210620002de5750508411620002c4575b505050811b01845562000104565b015160001960f88460031b161c19169055388080620002b6565b8385015186558b97909501949384019301620002a3565b9091508684528884208680850160051c8201928b86106200033e575b918991869594930160051c01915b8281106200032f575050620000da565b8681558594508991016200031f565b9250819262000311565b634e487b7160e01b83526022600452602483fd5b94607f1694620000c3565b60405162461bcd60e51b815260048101869052601560248201527f564d3a207a65726f2061555344206164647265737300000000000000000000006044820152606490fd5b600080fd5b6040519190601f01601f191682016001600160401b03811183821017620003d757604052565b634e487b7160e01b600052604160045260246000fd5b919080601f84011215620003ac5782516001600160401b038111620003d75760209062000423601f8201601f19168301620003b1565b92818452828287010111620003ac5760005b8181106200044b57508260009394955001015290565b85810183015184820184015282016200043556fe608080604052600436101561001d575b50361561001b57600080fd5b005b600090813560e01c908163011f8b1b1461298b5750806312bbe10c1461296e5780631aac9197146127f75780631f275413146127c05780631fb3e24e1461277857806322edf01a146126dd5780632e90c1a9146126ba5780632fd7d1fd146126755780633c4ce2211461263957806347e7ef24146124b25780634e17707a1461202d5780634e6ec0e614611f58578063514ea4bf14611e8f57806351cff8d914611c7157806353084eff14611c38578063572fcdcd14611bb65780635a2d6f5d14611b985780636abcf6af14611b5e578063748747e614611af457806385f9805d146115bd5780638c728541146115935780638da5cb5b1461156c57806392bc691414611454578063932a1276146113155780639530b30f146112f857806396e85ced14610ffa578063989a83bf14610f28578063b8ff783d14610f0c578063bbd7edc514610d95578063bd44815f14610d76578063c0bd6f9e14610c87578063c81e62e614610c3f578063cca23bf214610bba578063d01ec4a614610b70578063d16b692114610a39578063d480574214610916578063d9c91fea146108ec578063de700da6146108b3578063e54a2ad5146105ae578063e55ee7eb1461057f578063e8134712146103f7578063f2fde38b146103745763fe202a180361000f5734610371576020906020600319360112610371576001600160401b0360043581811161036d57610233903690600401612a65565b9161024860018060a01b03855416331461471e565b821161035957610259600254612aef565b601f8111610311575b508293601f83116001146102a5575082938291610294949261029a575b50508160011b916000199060031b1c19161790565b60025580f35b01359050388061027f565b601f19831694600080516020614f80833981519152929185905b8782106102f95750508360019596106102df575b505050811b0160025580f35b0135600019600384901b60f8161c191690553880806102d3565b806001849682949587013581550195019201906102bf565b610349906002600052600080516020614f80833981519152601f850160051c8101916020861061034f575b601f0160051c0190612df3565b38610262565b909150819061033c565b634e487b7160e01b83526041600452602483fd5b8280fd5b80fd5b50346103715760203660031901126103715761038e6129ad565b8154906001600160a01b03906103a7338385161461471e565b169081156103bf576001600160a01b03191617815580f35b60405162461bcd60e51b815260206004820152601060248201526f564d3a207a65726f206164647265737360801b6044820152606490fd5b5034610371576040366003190112610371576104226104146129ad565b61041c6129c8565b906147b4565b8152602060066020526040822090829183918154925b83811061051e5750610449846146d2565b936104576040519586612b91565b808552610466601f19916146d2565b013660208601378491855b84811061048a57604051806104868882612bfa565b0390f35b6104948183612ac1565b9054600391821b1c88526004845260ff600860408a20015416600281101561050a57156104c5575b50600101610471565b6104cf8284612ac1565b9054911b1c6104dd85614803565b9487518110156104f65760051b870184015260016104bc565b634e487b7160e01b89526032600452602489fd5b634e487b7160e01b89526021600452602489fd5b6105288184612ac1565b90549060031b1c86526004825260ff600860408820015416600281101561056b5715610557575b600101610438565b93610563600191614803565b94905061054f565b634e487b7160e01b87526021600452602487fd5b5034610371578060031936011261037157602060405173037bb9c718f3f7fe5ecbdb0b600d607b527067768152f35b5034610371576020806003193601126108af576004358083526004825260408320916008830160ff815416600281101561089b5761085e5783546001600160a01b03929083163381148015610846575b6106089150614505565b600285015494858752600382526040872092846003830154168852600b835260408820549384156107ea5760048301805496610652610647888a612e0a565b600587015490612e1d565b61065c89826147ea565b98808211156107875750825461067191612dd0565b907f000000000000000000000000000000000000000000000000000000000000000016803b15610783576040516340c10f1960e01b815230600482015260248101839052908c908290604490829084905af1801561077857610747575b509161071c60037fb8afeb408acd10e29c21161f211b1e177a3ce18923199654650821f940cff38a99979593604099979561070e60028601918254612e3d565b90555b549201918254612dd0565b9055836006830155846007830155600160ff19825416179055600a429101558351928352820152a380f35b6001600160401b03819c929c11610764576040529961071c6106ce565b634e487b7160e01b82526041600452602482fd5b6040513d8e823e3d90fd5b8b80fd5b604098969492507fb8afeb408acd10e29c21161f211b1e177a3ce18923199654650821f940cff38a99979593818360039361071c95106107c9575b5050610711565b6107d291612dd0565b6107e160028601918254612dd0565b905538806107c2565b60405162461bcd60e51b815260048101859052602e60248201527f564d3a206e6f20707269636520617661696c61626c652c2063616c6c2075706460448201526d185d19541c9a58d948199a5c9cdd60921b6064820152608490fd5b508652600781526106088360408820541633146105fe565b60405162461bcd60e51b81526004810183905260156024820152742b269d103837b9b4ba34b7b7103737ba1037b832b760591b6044820152606490fd5b634e487b7160e01b86526021600452602486fd5b5080fd5b5034610371576040366003190112610371576108e460406020926108d86104146129ad565b8152600384522061485d565b604051908152f35b50346103715760203660031901126103715760406020916004358152600a83522054604051908152f35b5034610371576040366003190112610371576109306129ad565b61094261093b6129c8565b83926147b4565b8252602060066020526040832083918154915b82841061096757602085604051908152f35b909192936109758583612ac1565b9054600391821b1c875260048452604087209060ff600883015416600281101561050a57610a22578101546001600160a01b03168752600b845260408720549081158015610a2d575b610a2257906109e48260056109db60046109e99601549485612e0a565b91015490612e1d565b6147ea565b90868282019283129112908015821691151617610a0e57600190945b01929190610955565b634e487b7160e01b86526011600452602486fd5b505093600190610a05565b506005810154156109be565b503461037157610a4836612a92565b90610a6873037bb9c718f3f7fe5ecbdb0b600d607b527067763314612d85565b828452600c602090815260408520546001600160a01b0316939092908415610b2b578552600c83526040852080546001600160a01b031916905581018190038213610b2757358015610aee57907f0d86730737b142fc160892fa8a0f2db687a92a0e294d1ad70624cf5acef03b8491838552600b8252806040862055604051908152a280f35b60405162461bcd60e51b8152600481018390526011602482015270564d3a20696e76616c696420707269636560781b6044820152606490fd5b8380fd5b60405162461bcd60e51b815260048101859052601960248201527f564d3a20756e6b6e6f776e2070726963652072657175657374000000000000006044820152606490fd5b503461037157604036600319011261037157610ba66005604061048693610b986104146129ad565b81526003602052200161475a565b604051918291602083526020830190612c36565b503461037157602036600319011261037157604060e0916004358152600360205220610c3d60018060a01b039160ff838254169360018301541691600281015460038201549083600660048501549401541694604051978852602088015260408701526060860152818116608086015260081c1660a084015260c0830190612c73565bf35b503461037157604036600319011261037157602435906004358152600660205260408120908154831015610371576020610c798484612ac1565b90546040519160031b1c8152f35b503461037157602036600319011261037157610caa610ca46129ad565b336147b4565b80825260036020526040822054610ccb906001600160a01b03163314612cd4565b808252600360205260ff6006604084200154166003811015610d6257610d2c57808252600360205260408220600601805460ff191660011790557f7ca948eddccf3a65f738292fe09d47dd38a0616763f1a1a78715430c7a18a18b8280a280f35b60405162461bcd60e51b815260206004820152600e60248201526d564d3a206e6f742061637469766560901b6044820152606490fd5b634e487b7160e01b83526021600452602483fd5b50346103715760403660031901126103715760206108e46104146129ad565b503461037157604036600319011261037157610df9610db26129ad565b610dba6129c8565b908360e0604051610dca81612b29565b8281528260208201528260408201528260608201528260808201528260a0820152606060c082015201526147b4565b815260036020526040812060405190610e1182612b29565b60018060a01b039081815416835281600182015416916020840192835260028201549060408501918252600383015460608601908152600484015492608087019260ff8516845260ff60a089019560081c16855260ff6006610e756005890161475a565b9760c08b019889520154169660e08901976003811015610ef85793610486969360ff95938a999793879560209c52816040519d8e9d8e52511660208d0152511660408b01525160608a0152516080890152511660a0870152511660c085015251610eed610100918260e0870152610120860190612c36565b925190840190612c73565b634e487b7160e01b8b52602160045260248bfd5b50346103715780600319360112610371576020604051600a8152f35b503461037157806003193601126103715760405190808260025491610f4c83612aef565b9283835260209460019186600182169182600014610fd8575050600114610f90575b5050610f7c92500383612b91565b610486604051928284938452830190612bd5565b9085925060028252600080516020614f808339815191525b858310610fc0575050610f7c93508201013880610f6e565b80548389018501528794508693909201918101610fa8565b9250935050610f7c94915060ff191682840152151560051b8201013880610f6e565b506020806003193601126108af576110106129ad565b6001600160a01b038116919082156112c257604051630ffeb17d60e11b815273037bb9c718f3f7fe5ecbdb0b600d607b5270677691908381600481865afa9081156112b7578691611286575b5067013fbe85edc900008101809111610a0e57341061122f5761107e906148af565b9060405191859060025461109181612aef565b9060019081811690811561121157506001146111cb575b50509161111a60408587856110c988839a986111609c9a5194859201612bb2565b01036110dd601f1991828101875286612b91565b66242e707269636560c81b866110fe84519785838a01526060890190612bd5565b8781039384018589015260078152015285810185520183612b91565b6040516345de5df160e11b815267b6d47da8dbbcb1b1600482015230602482015263d16b692160e01b604482015260806064820152948592839182916084830190612bd5565b039134905af180156111c0578490611192575b8452600c9052506040822080546001600160a01b031916909117905580f35b508082813d83116111b9575b6111a88183612b91565b81010312610b2757600c9151611173565b503d61119e565b6040513d86823e3d90fd5b60028952919250908790600080516020614f808339815191525b8383106111fe57505050830184019061111a60406110a8565b80548784018901529187019181016111e5565b60ff19168888015250508015150284018501915061111a60406110a8565b60405162461bcd60e51b815260048101849052602960248201527f564d3a20696e73756666696369656e74206465706f73697420666f722070726960448201526863652075706461746560b81b6064820152608490fd5b90508381813d83116112b0575b61129d8183612b91565b810103126112ac57513861105c565b8580fd5b503d611293565b6040513d88823e3d90fd5b60405162461bcd60e51b815260048101839052600e60248201526d2b269d103d32b937903a37b5b2b760911b6044820152606490fd5b5034610371578060031936011261037157602060405161012c8152f35b5034610371576020906020600319360112610371576001600160401b0360043581811161036d5761134a903690600401612a65565b909161136060018060a01b03855416331461471e565b8111610359576001916113738354612aef565b601f811161141c575b508394601f83116001146113b35750839482916113ae94959261029a5750508160011b916000199060031b1c19161790565b905580f35b601f19831695600080516020614fc0833981519152929186905b88821061140557505083859697106113eb575b505050811b01905580f35b0135600019600384901b60f8161c191690553880806113e0565b8087849682949587013581550195019201906113cd565b61144e90600080516020614fc0833981519152601f850160051c8101916020861061034f57601f0160051c0190612df3565b3861137c565b50346103715761147461146636612a22565b929091610ca4841515612c96565b80845260036020526040842054909290611498906001600160a01b03163314612cd4565b828452600360205260408420600501845b828110611547575054156114ee577f89216286babe3a315db35c8a44501c50b04e4af6db52228800178fa93abbcfa6916114e860405192839283612d39565b0390a280f35b60405162461bcd60e51b815260206004820152602b60248201527f564d3a2063616e6e6f742072656d6f766520616c6c20746f6b656e732066726f60448201526a1b48185b1b1bdddb1a5cdd60aa1b6064820152608490fd5b8061156661156061155b6001948789612d15565b612d25565b84614e13565b016114a9565b5034610371578060031936011261037157546040516001600160a01b039091168152602090f35b50346103715760203660031901126103715760406020916004358152600883522054604051908152f35b50346103715760a0366003190112610371576115d76129ad565b6024604491823560ff8116809103611af0576064803560ff8116809103611aec576084356001600160401b038111611ae8576116179036906004016129f2565b90929091906001600160a01b038616151580611ad5575b15611aa057600185101580611a95575b15611a6057600182101580611a56575b15611a235782156119d05786351561199d5761166a86336147b4565b808a52600360205260408a20549098906001600160a01b031661195c5750506040516323b872dd60e01b8152336004820152306024820152863560448201526020816064818c6001600160a01b037f0000000000000000000000000000000000000000000000000000000000000000165af18015611951576116f3918a91611922575b506144c4565b6040519361170085612b29565b3385526001600160a01b03861660208601528635604086015260608501899052608085015260a0840152611733816146d2565b916117416040519384612b91565b8183526020830190368360051b82011161191e5780915b8360051b82018310611906575050505060c08201528460e082015283855260036020526040852060018060a01b038251166001600160601b0360a01b9081835416178255600182019060018060a01b036020850151169082541617905560408201516002820155606082015160038201556004810160ff60808401511681549061ff0060a086015160081b169161ffff1916171790556005810160c0830151908151916001600160401b0383116118f357600160401b83116118f35760209082548484558085106118d9575b500190885260208820885b8381106118bc5750505050600660e0910191015160038110156118a95760ff80198354169116179055338452600560205261186d83604086206146e9565b604051913582526001600160a01b03169033907f6195d111f124dc39cb1ab083f9f1b6664e415bf60b71499b3a4b24cf07c337a890602090a480f35b634e487b7160e01b865260216004528386fd5b82516001600160a01b03168183015560209092019160010161182f565b838b52828b206118ed918101908601612df3565b38611824565b634e487b7160e01b895260416004528689fd5b60208091611913856129de565b815201920191611758565b8880fd5b611944915060203d60201161194a575b61193c8183612b91565b8101906144ac565b386116ed565b503d611932565b6040513d8b823e3d90fd5b7f564d3a207661756c7420616c7265616479206578697374730000000000000000889160186040519362461bcd60e51b855260206004860152840152820152fd5b60405162461bcd60e51b8152602060048201526010818901526f15934e881e995c9bc819195c1bdcda5d60821b818a0152fd5b8667696c6c20636f707960c01b6084927f564d3a20616c6c6f776c69737420656d7074792c206e6f2074726164657320778b60286040519562461bcd60e51b875260206004880152860152840152820152fd5b60405162461bcd60e51b8152602060048201526010818901526f0564d3a206d617850637420312d3130360841b818a0152fd5b508082111561164e565b60405162461bcd60e51b815260206004820152601281890152710564d3a207269736b4c6576656c20312d31360741b818a0152fd5b50600a85111561163e565b60405162461bcd60e51b815260206004820152601281890152712b269d1034b73b30b634b2103632b0b232b960711b818a0152fd5b506001600160a01b03861633141561162e565b8780fd5b8680fd5b8480fd5b503461037157602036600319011261037157611b0e6129ad565b3380835260076020526040832080546001600160a01b0319166001600160a01b0390931692831790557f50697e88bd427923002f5d3844f352091c05c0c9c3b69e43830863d2224631738380a380f35b503461037157611b95611b7036612a92565b91611b9073037bb9c718f3f7fe5ecbdb0b600d607b527067763314612d85565b614590565b80f35b50346103715780600319360112610371576020604051620f42408152f35b5034610371576020806003193601126108af576001600160a01b03611bd96129ad565b1682526005602052604082209160405180926020855492838152019483526020832092905b828210611c215761048685611c1581890382612b91565b60405191829182612bfa565b835486529485019460019384019390910190611bfe565b5034610371576020366003190112610371576020906040906001600160a01b03611c606129ad565b168152600b83522054604051908152f35b5034610371576020806003193601126108af57611c8f610ca46129ad565b90818352600381526040832060018060a01b03611cb0338284541614612cd4565b6006820180549260ff84166003811015611e7b57600214611e41576003810154611dfc57600290810180549088905560ff199490941617905560405163a9059cbb60e01b8152336004820152602481018390529083908290604490829089907f0000000000000000000000000000000000000000000000000000000000000000165af1908115611df1578591611dd4575b5015611d995782917f1de10dc7adf633383767e576a9953d1b3c4f31a05c1635d7656d25604aca6b1f91604051908152a27fd06ef1be920eaf099a4e446ec48846abae39f5eb6b0877fea0913a68731af5518280a280f35b60405162461bcd60e51b815260048101839052601360248201527215934e881dda5d1a191c985dc819985a5b1959606a1b6044820152606490fd5b611deb9150833d851161194a5761193c8183612b91565b38611d41565b6040513d87823e3d90fd5b60405162461bcd60e51b815260048101869052601e60248201527f564d3a20636c6f7365206f70656e20706f736974696f6e7320666972737400006044820152606490fd5b60405162461bcd60e51b815260048101869052601260248201527115934e88185b1c9958591e4818db1bdcd95960721b6044820152606490fd5b634e487b7160e01b88526021600452602488fd5b503461037157602036600319011261037157600435815260046020526040812060018060a01b03808254169181600182015416916002820154906003830154166004830154600584015460068501549160078601549360ff60088801541695600a6009890154980154986040519a8b5260208b015260408a01526060890152608088015260a087015260c086015260e08501526002811015611f44576101609450610100840152610120830152610140820152f35b634e487b7160e01b85526021600452602485fd5b503461037157602036600319011261037157611f75610ca46129ad565b80825260036020526040822054611f96906001600160a01b03163314612cd4565b808252600360205260ff6006604084200154166003811015610d6257600103611ff757808252600360205260408220600601805460ff191690557fa7b437a7c0be1eaaad481743f822acf86d00e9707a0c18a609f0e3ad97370ba88280a280f35b60405162461bcd60e51b815260206004820152600e60248201526d15934e881b9bdd081c185d5cd95960921b6044820152606490fd5b506040366003190112610371576120426129ad565b61207661204d6129c8565b918290612071336001600160a01b03808416918214918215612499575b5050614505565b6147b4565b908183526020600381526040842060ff600682015416600381101561089b5761245d57838552600a825260408520548015908115612447575b5015612402576120c2620f42409161485d565b11156123be57828452600a8152604080852042905551630ffeb17d60e11b81529173037bb9c718f3f7fe5ecbdb0b600d607b52706776908284600481855afa9384156112b757869461238f575b5067013fbe85edc9000084019384811161237b576702ea11e32ad50000810180911161237b5761213f9085612e3d565b341061231c5761214f83916148af565b916040518793600180549061216382612aef565b916001811690811561230057506001146122ba575b5050600c82858761219685612243999a6121b8975194859201612bb2565b016b02f6c61746573742d737761760a41b815203601319810184520182612b91565b6121fc60406121d281519382888601526060850190612bd5565b650242e737761760d41b8785830392601f1984018588015260068152015286810184520182612b91565b6040516345de5df160e11b815267b6d47da8dbbcb1b16004820152306024820152631f27541360e01b60448201526080606482015295869384928391906084830190612bd5565b03925af19182156111c057849261228a575b50600890828552528160408420557f7d0d4a45b610c689953ac3d1df4e7739f7ba0e76107b191b9170d4eb27b90b4e8380a380f35b9080925081813d83116122b3575b6122a28183612b91565b81010312610b275751906008612255565b503d612298565b60018b529095508990600080516020614fc08339815191525b8783106122eb57505050938101830193600c82612178565b805485840188015288969092019181016122d3565b60ff191685880152505080151502820184019450600c82612178565b60405162461bcd60e51b815260048101849052603160248201527f564d3a20696e73756666696369656e74206465706f73697420286e656564203e6044820152703d206a736f6e4665652b6c6c6d4665652960781b6064820152608490fd5b634e487b7160e01b87526011600452602487fd5b9093508281813d83116123b7575b6123a78183612b91565b810103126112ac5751923861210f565b503d61239d565b6064906040519062461bcd60e51b82526004820152601d60248201527f564d3a20696e73756666696369656e7420667265652062616c616e63650000006044820152fd5b60405162461bcd60e51b815260048101839052601c60248201527f564d3a20706970656c696e6520616c72656164792072756e6e696e67000000006044820152606490fd5b90506102588101809111610a0e574211386120af565b60405162461bcd60e51b8152600481018390526014602482015273564d3a207661756c74206e6f742061637469766560601b6044820152606490fd5b909150875260076020526040872054163314388061206a565b5034610371576040366003190112610371576124cc6129ad565b6124d960243591336147b4565b9081835260206003815260ff6006604086200154166003811015611f44576002146126025781156125cc576040516323b872dd60e01b815233600482015230602482015260448101839052918183606481886001600160a01b037f0000000000000000000000000000000000000000000000000000000000000000165af1928315611df1577ff4d5f4313db9d90750b55863740862117f1a26005f470df515d532580be167b2936125909187916125b557506144c4565b83855260038252600260408620016125a9828254612e3d565b9055604051908152a280f35b6119449150843d861161194a5761193c8183612b91565b6064906040519062461bcd60e51b82526004820152600f60248201526e15934e881e995c9bc8185b5bdd5b9d608a1b6044820152fd5b6064906040519062461bcd60e51b82526004820152601060248201526f15934e881d985d5b1d0818db1bdcd95960821b6044820152fd5b5034610371576020366003190112610371576020906001600160a01b0390604090826126636129ad565b16815260078452205416604051908152f35b50346103715780600319360112610371576040517f00000000000000000000000000000000000000000000000000000000000000006001600160a01b03168152602090f35b5034610371578060031936011261037157602060405167b24ac1afbcefc7088152f35b50346103715780600319360112610371576040519080826001926001549361270485612aef565b9384845260209586600182169182600014610fd8575050600114612730575050610f7c92500383612b91565b9085925060018252600080516020614fc08339815191525b858310612760575050610f7c93508201013880610f6e565b80548389018501528794508693909201918101612748565b5034610371576040366003190112610371576127926129ad565b6001600160a01b0316815260056020526040812080546024359290831015610371576020610c798484612ac1565b503461037157611b956127d236612a92565b916127f273037bb9c718f3f7fe5ecbdb0b600d607b527067763314612d85565b612e4a565b5034610371576128199061280a36612a22565b91610ca4839592951515612c96565b90818352602093600360205260018060a01b0361283d338260408820541614612cd4565b83855260036020526040852060050195855b84811061288b57505050907f6daa1ff9696b2f02619a3f88b4b180ef2a65d070354484a2689f745bd640b764916114e860405192839283612d39565b8261289a61155b838888612d15565b1615612930576128b76128b161155b838888612d15565b89614812565b156128c5575b60010161284f565b6128d361155b828787612d15565b8854600160401b81101561291c57600192916128f7828561291594018d558c612ac1565b90919060018060a01b038084549260031b9316831b921b1916179055565b90506128bd565b634e487b7160e01b89526041600452602489fd5b60405162461bcd60e51b8152600481018390526016602482015275564d3a207a65726f20746f6b656e206164647265737360501b6044820152606490fd5b503461037157806003193601126103715760206040516102588152f35b9050346108af57816003193601126108af578067b6d47da8dbbcb1b160209252f35b600435906001600160a01b03821682036129c357565b600080fd5b602435906001600160a01b03821682036129c357565b35906001600160a01b03821682036129c357565b9181601f840112156129c3578235916001600160401b0383116129c3576020808501948460051b0101116129c357565b9060406003198301126129c3576004356001600160a01b03811681036129c35791602435906001600160401b0382116129c357612a61916004016129f2565b9091565b9181601f840112156129c3578235916001600160401b0383116129c357602083818601950101116129c357565b9060406003198301126129c35760043591602435906001600160401b0382116129c357612a6191600401612a65565b8054821015612ad95760005260206000200190600090565b634e487b7160e01b600052603260045260246000fd5b90600182811c92168015612b1f575b6020831014612b0957565b634e487b7160e01b600052602260045260246000fd5b91607f1691612afe565b61010081019081106001600160401b03821117612b4557604052565b634e487b7160e01b600052604160045260246000fd5b606081019081106001600160401b03821117612b4557604052565b604081019081106001600160401b03821117612b4557604052565b90601f801991011681019081106001600160401b03821117612b4557604052565b60005b838110612bc55750506000910152565b8181015183820152602001612bb5565b90602091612bee81518092818552858086019101612bb2565b601f01601f1916010190565b602090602060408183019282815285518094520193019160005b828110612c22575050505090565b835185529381019392810192600101612c14565b90815180825260208080930193019160005b828110612c56575050505090565b83516001600160a01b031685529381019392810192600101612c48565b906003821015612c805752565b634e487b7160e01b600052602160045260246000fd5b15612c9d57565b60405162461bcd60e51b815260206004820152600f60248201526e564d3a20656d70747920617272617960881b6044820152606490fd5b15612cdb57565b60405162461bcd60e51b815260206004820152601260248201527115934e881b9bdd081e5bdd5c881d985d5b1d60721b6044820152606490fd5b9190811015612ad95760051b0190565b356001600160a01b03811681036129c35790565b909160406020928260208201602083525201929160005b828110612d5e575050505090565b909192938280600192838060a01b03612d76896129de565b16815201950193929101612d50565b15612d8c57565b606460405162461bcd60e51b815260206004820152602060248201527f564d3a2063616c6c6572206973206e6f74206167656e7420706c6174666f726d6044820152fd5b91908203918211612ddd57565b634e487b7160e01b600052601160045260246000fd5b818110612dfe575050565b60008155600101612df3565b81810292918115918404141715612ddd57565b8115612e27570490565b634e487b7160e01b600052601260045260246000fd5b91908201809211612ddd57565b91826000526008602052604060002054928315614467578060005260086020526000604081205583600052600360205260406000209060a08484810103126129c35784612e96856129de565b917f71ed9d4e5866fca58bdb5ed3d76986653d0b7f7776d965590aaea10fac75ce526080612ec6602089016129de565b604080516001600160a01b0397881681529682166020880152898101359087015281890135606087015294a361012c612f03608086013542612dd0565b1161441d57612f1e6001600160a01b03821660058401614812565b156143c857612f2c8261485d565b92620f424084111561436b578560005260096020526040600020906001600160401b038111612b4557612f5f8254612aef565b601f8111614339575b506000601f82116001146142d2579080612f98926000916142c7575b508160011b916000199060031b1c19161790565b90555b6002820154936004830154916064612fb960ff8560081c1688612e0a565b04938585116142bf575b600101546001600160a01b038281166000908152600b60205260409020549116939092612ff4608082013542612dd0565b9780156142b75787606481020460641488151715612ddd576130198160648a02612e1d565b935b81156142af57604083013560648082028290041490151715612ddd57613048826064604086013502612e1d565b955b89156142a857604084013560648082028290041490151715612ddd576130778a6064604087013502612e1d565b613085620f42408b04614ec4565b97613094621e84808c04614ec4565b604080517f596f75206172652061207269736b206d616e6167656d656e7420656e67696e656020808301919091527f20666f722041696f6e69732c206120636f70792d74726164696e6720706c6174928201929092526f3337b9369037b71029b7b6b734b0970560811b60608201527f4576616c75617465207468652074726164652062656c6f7720616e642064656360708201527f69646520776861742070657263656e74616765206f662074686520666f6c6c6f60908201527f776572207661756c7420746f20616c6c6f636174652e0a0a000000000000000060b08201527f4f55545055543a20526573706f6e642077697468204f4e4c5920612073696e6760c88201527f6c6520696e746567657220302d3130302e204e6f206578706c616e6174696f6e60e88201527f2e204e6f20746578742e204a75737420746865206e756d6265722e0a0a0000006101088201526e29a1a7a924a7239029a1a0a6229d0560891b6101258201527f20203020202020202020203d20736b6970207468697320747261646520656e746101348201526534b932b63c8560d11b6101548201527f2020312d333320202020203d206c6f7720636f6e666964656e6365202028736d61015a8201526f30b6361030b63637b1b0ba34b7b7148560811b61017a8201527f202033342d3636202020203d206d656469756d20636f6e666964656e6365202061018a820152751436b7b232b930ba329030b63637b1b0ba34b7b7148560511b6101aa8201527f202036372d3939202020203d206869676820636f6e666964656e6365202028736101c08201527f69676e69666963616e7420616c6c6f636174696f6e290a0000000000000000006101e08201527f20203130302020202020203d206d6178696d756d20636f6e666964656e6365206101f78201527f202866756c6c206d61782d7065722d747261646520616c6c6f636174696f6e2961021782015261050560f11b6102378201527320a62627a1a0aa24a7a7102327a926aaa6209d0560611b6102398201527f2020616c6c6f636174696f6e203d202873636f7265202f20313030292078206d61024d8201526c30bc2fb832b92fba3930b2328560991b61026d820152720808105d081cd8dbdc994f4c4c0c080b4f8809606a1b61027a8201528b51909c909b90928d92909161028d91613401918f918487019101612bb2565b6a1030b63637b1b0ba32b20560a91b908d840101528b820161029801720808105d081cd8dbdc994f4d4c08080b4f8809606a1b90526102ab9b818d9251809383860101916020019161345292612bb2565b8201016b1030b63637b1b0ba32b2050560a11b8c8201520361029781018c526102b70161347f908c612b91565b613488906148af565b9361349b906001600160a01b03166148af565b9560400135620f424090046134af90614ec4565b9c6134b990614ec4565b926402540be40090046134cb90614ec4565b906134d590614ec4565b916134df90614ec4565b926040519d8e956d169696902a2920a222901696968560911b6020880152602e87017f4c65616465722077616c6c65743a20202020202020202020202020000000000090528051908160498901916020019161353a92612bb2565b860197600560f91b98896049820152604a81017f546f6b656e20626f756768743a2020202020202020202020202020000000000090528151918260658301916020019161358692612bb2565b01886065820152606681017f5472616465205553442076616c75653a202020202020202020202024000000009052815191826082830191602001916135ca92612bb2565b01876082820152608381017f5472616465206167653a20202020202020202020202020202020200000000000905281519182609e8301916020019161360e92612bb2565b0165399030b3b78560d11b609e82015260a481017f43757272656e7420746f6b656e2070726963653a20202020202020240000000090528151918260c08301916020019161365b92612bb2565b016e10143c18b29898103ab734ba39948560891b60c082015260cf81017f54726164652073697a6520767320666f6c6c6f776572207661756c743a20000090528151918260ed830191602001916136b192612bb2565b01906a129037b3103b30bab63a0560a91b60ed83015260f882017f54726164652073697a6520767320667265652062616c616e63653a202020000090526101169181519182848301916020019161370792612bb2565b019072129037b310333932b29031b0b834ba30b6050560691b908201520361010981018a526101290161373a908a612b91565b620f4240900461374990614ec4565b96620f4240900461375990614ec4565b9261376390614ec4565b95620f4240900461377390614ec4565b9160ff1661378090614ec4565b9160405196879460208601997f2d2d2d20464f4c4c4f574552205641554c54202d2d2d0a0000000000000000008b52603787017215985d5b1d081d1bdd185b0e88080808080809606a1b905280519081604a890191602001916137e292612bb2565b860184604a820152604b810172119c99594818985b185b98d94e880808080809606a1b905281519182605e8301916020019161381d92612bb2565b01605e810161040560f31b90528151918260608301916020019161384092612bb2565b016b129037b3103b30bab63a148560a11b6060820152606c81017213585e081c195c881d1c9859194e8808080809606a1b905281519182607f8301916020019161388992612bb2565b0190607f820152608081017102934b9b5903a37b632b930b731b29d1010160751b9052815191826092830191602001916138c292612bb2565b0164179898050560d91b6092820152036077810184526097016138e59084612b91565b604080517f2d2d2d2052554c455320286170706c79207374726963746c7920696e206f7264602082019081526732b914901696968560c11b928201929092527f312e20496620667265652062616c616e6365203c202431202d3e207265747572604882015264371018170560d91b60688201527f322e20496620747261646520616765203e2031323073202d3e2072657475726e606d820152721018101439ba30b6329039b4b3b730b614970560691b608d8201527f332e204966207472616465205553442076616c7565203c202435202d3e20726560a08201527f7475726e203020286e6f6973652074726164652c2069676e6f7265292e0a000060c08201527f342e20496620667265652062616c616e6365203c20243130202d3e207265747560de8201527f726e203020287661756c74206e6561726c7920656d707479292e0a0a0000000060fe820152732924a9a59029a1a7a9229021a2a4a624a7239d0560611b61011a8201527f20205269736b20312d3220202d3e206d61782073636f72652032300a0000000061012e8201527f20205269736b20332d3420202d3e206d61782073636f72652034300a0000000061014a8201527f20205269736b20352d3620202d3e206d61782073636f72652036350a000000006101668201527f20205269736b20372d3820202d3e206d61782073636f72652038350a000000006101828201527f20205269736b20392d3130202d3e206d61782073636f7265203130300a0a000061019e8201527f465245452042414c414e43452050454e414c544945533a0a00000000000000006101bc8201527f2020467265652062616c616e6365203c20313025206f66207661756c742020206101d48201527f2020202020202d3e207265647563652073636f7265206279203330250a0000006101f48201527f202054726164652073697a65203e20353025206f6620667265652062616c616e6102118201527f6365202020202d3e207265647563652073636f72652062792032302520286c616102318201527f7267652072656c6174697665206578706f73757265290a0000000000000000006102518201527f202054726164652073697a65203e2031303025206f6620667265652062616c616102688201527f6e63652020202d3e2072657475726e2030202863616e6e6f74206166666f72646102888201526214850560e91b6102a88201527f5349474e414c20535452454e47544820287573652074726164652073697a6520928101929092527f767320666f6c6c6f776572207661756c742c204e4f542072617720646f6c6c616102cb830152643939949d0560d91b6102eb8301527f20205472616465203c203525206f6620666f6c6c6f776572207661756c7420206102f08301527f2020202020202d3e207765616b207369676e616c2c206c65616e20636f6e736561031083015267393b30ba34bb328560c11b6103308301527f2020547261646520352d323025206f6620666f6c6c6f776572207661756c74206103388301527f2020202020202d3e206d6f646572617465207369676e616c0a000000000000006103588301527f20205472616465203e20323025206f6620666f6c6c6f776572207661756c74206103718301527f2020202020202d3e207374726f6e67207369676e616c2c206c6561646572206961039183015273399036b0b5b4b7339030903134b39036b7bb328560611b6103b18301527f20205472616465203e20353025206f6620666f6c6c6f776572207661756c74206103c58301527f2020202020202d3e2076657279207374726f6e67207369676e616c0a0a0000006103e583015270232922a9a42722a9a9902127a72aa99d0560791b6104028301527f2020547261646520616765203c203130732020202020202020202020202020206104138301527f2020202020202d3e2061646420757020746f20313020746f2066696e616c20736104338301526431b7b9328560d91b6104538301527f20205472616465206167652031302d33307320202020202020202020202020206104588301527f2020202020202d3e206e6f2061646a7573746d656e740a0000000000000000006104788301527f20205472616465206167652033302d313230732020202020202020202020202061048f8301527f2020202020202d3e207265647563652073636f72652062792031300a0a0000006104af8301527f494d504f5254414e543a20446f204e4f542074726561742024313030302061736104cc8301527f20696e686572656e746c79207369676e69666963616e742e0a000000000000006104ec8301527f202041202431303030207472616465206973207374726f6e67206966207468656105058301527f20666f6c6c6f776572207661756c742069732024323030302028353025292e0a6105258301527f202041202431303030207472616465206973207765616b2069662074686520666105458301527f6f6c6c6f776572207661756c74206973202431303030303020283125292e0a006105658301527f2020416c7761797320726561736f6e20696e2070657263656e74616765732c206105848301527f6e6f74206162736f6c75746520646f6c6c617220616d6f756e74732e0a0a00006105a48301527f526573706f6e64207769746820612073696e676c6520696e746567657220302d6105c2830152631898181760e11b6105e28301526105c68252610600820195919290916001600160401b03871184881017612b45576141259560209561410a614119938a604052610620956140e8815180928c8a8d019101612bb2565b88016140fc825180938c8a85019101612bb2565b019151809386840190612bb2565b01918451938491840190612bb2565b01038084520182612b91565b604051630ffeb17d60e11b81529073037bb9c718f3f7fe5ecbdb0b600d607b5270677690602083600481855afa92831561426857600093614274575b506702ea11e32ad500008301809311612ddd576020916141966141a46141eb9360405192839187808401526040830190612bd5565b03601f198101835282612b91565b6040516345de5df160e11b815267b24ac1afbcefc7086004820152306024820152636abcf6af60e01b60448201526080606482015294859384928391906084830190612bd5565b03925af190811561426857600091614236575b50806000526008602052816040600020557fbd39bca4ed5e29cb7d341fec377583e2cb5a5e06015ff024e1a933e2fe29c47e600080a3565b90506020813d602011614260575b8161425160209383612b91565b810103126129c35751386141fe565b3d9150614244565b6040513d6000823e3d90fd5b9092506020813d6020116142a0575b8161429060209383612b91565b810103126129c357519138614161565b3d9150614283565b6000613077565b60009561304a565b60009361301b565b859450612fc3565b905087013538612f84565b908260005260206000206000925b601f1983168410614321576001935082601f19811610614307575b5050811b019055612f9b565b880135600019600384901b60f8161c1916905538806142fb565b888101358255602093840193600190920191016142e0565b61436590836000526020600020601f840160051c8101916020851061034f57601f0160051c0190612df3565b38612f68565b505050505080600080516020614fa0833981519152606060405160208152601960208201527f696e73756666696369656e7420667265652062616c616e6365000000000000006040820152a2600052600a60205260006040812055565b5050505080600080516020614fa083398151915260606040516020815260166020820152751d1bdad95b881b9bdd081a5b88185b1b1bdddb1a5cdd60521b6040820152a2600052600a60205260006040812055565b5050505080600080516020614fa0833981519152606060405160208152600b60208201526a7374616c6520747261646560a81b6040820152a2600052600a60205260006040812055565b60405162461bcd60e51b815260206004820152601b60248201527f564d3a20756e6b6e6f776e2077617463686572207265717565737400000000006044820152606490fd5b908160209103126129c3575180151581036129c35790565b156144cb57565b60405162461bcd60e51b815260206004820152601260248201527115934e8819195c1bdcda5d0819985a5b195960721b6044820152606490fd5b1561450c57565b60405162461bcd60e51b815260206004820152601260248201527115934e881b9bdd08185d5d1a1bdc9a5e995960721b6044820152606490fd5b6145508154612aef565b908161455a575050565b81601f6000931160011461456d5750555b565b90808391825261458c601f60208420940160051c840160018501612df3565b5555565b600092818452602091600883526040938486205492831561468e57818591848952600883528888812055810103126112ac57600a9392919035606481111561468557506064905b8260ff8316917fac7c244f5a94874741bde286781fc342da57eb796ea3b4f271ba72c0b515b10588888510948151908152851589820152a36146375761461d90826149ef565b8085526009825261462f848620614546565b845252812055565b5080600080516020614fa083398151915260608651858152601586820152741cd8dbdc994818995b1bddc81d1a1c995cda1bdb19605a1b88820152a28085526009825261462f848620614546565b60ff16906145d7565b855162461bcd60e51b815260048101869052601e60248201527f564d3a20756e6b6e6f776e2073747261746567697374207265717565737400006044820152606490fd5b6001600160401b038111612b455760051b60200190565b8054600160401b811015612b455761470691600182018155612ac1565b819291549060031b91821b91600019901b1916179055565b1561472557565b60405162461bcd60e51b815260206004820152600d60248201526c2b269d103737ba1037bbb732b960991b6044820152606490fd5b90604051918281549182825260209260208301916000526020600020936000905b8282106147915750505061456b92500383612b91565b85546001600160a01b03168452600195860195889550938101939091019061477b565b6040519060208201926001600160601b0319809260601b16845260601b166034820152602881526147e481612b5b565b51902090565b81810392916000138015828513169184121617612ddd57565b6000198114612ddd5760010190565b9060005b8254811015614855576148298184612ac1565b905460039190911b1c6001600160a01b039081169083161461484d57600101614816565b505050600190565b505050600090565b60026003820154910154908181101561487c5761487991612dd0565b90565b5050600090565b6001600160401b038111612b4557601f01601f191660200190565b908151811015612ad9570160200190565b604051906001600160601b03199060601b16602082015260148082526148d482612b76565b604051906148e182612b76565b601082526f181899199a1a9b1b9c1cb0b131b232b360811b60208301526040519261490b84612b5b565b602a8452602084016040368237845115612ad9576030905383519260019360011015612ad9576078602186015360005b83811061494a57505050505090565b6001600160f81b0319908161496c614962838761489e565b5160fc1c8561489e565b51169181871b92600290838504821484151715612ddd57848201809211612ddd5761499b9060001a918a61489e565b536149b6600f6149ab848861489e565b5160f81c168561489e565b5116916003908101809111612ddd576149d4879360001a918961489e565b530161493b565b51906001600160a01b03821682036129c357565b8060005260036020526040600020600960205260406000209260405193600085825491614a1b83612aef565b928383526020830194600191600181169081600014614df15750600114614daf575b5050614a4b92500386612b91565b60a0858051810103126129c357614a61906149db565b506080614a70604086016149db565b94015193614a7d8361485d565b946064614a99600286015460ff600488015460081c1690612e0a565b04868111614da8575b614ab260649160ff861690612e0a565b0495620f42408710614d5957808711614d51575b506001600160a01b0382166000908152600b6020526040902054908115614d495750925b614af5600d54614803565b9283600d556040519360208501908782524260408701526001600160601b03198560601b1660608701526074860152607485526001600160401b03908560a08101108260a088011117612b455760a08601604081905286519091208454600186015491936001600160a01b039283169391909216916102008901908111911117612b4557610200870160405260a087015260c08601528660e086015260018060a01b03841661010086015287610120860152856101408601526000610160860152600061018086015260006101a0860152426101c086015260006101e086015280600052600460205260406000209060018060a01b0360a0870151166001600160601b0360a01b90818454161783556001830160018060a01b0360c0890151168282541617905560e08701516002840155600383019060018060a01b0361010089015116908254161790556101208601516004830155610140860151600583015561016086015160068301556101808601516007830155600882016101a08701516002811015612c80577f0fac05f01c50ae793f1a1fb2912053546d62525ac2dfad4adbc641f37c09bf8a98600360ff978c96600a6101e060409d7fb1eefddb5e15079c801481dd2d9558f62b8d6e4ba1d15d3e8da341e1d07ccd18986060988e801983541691161790556101c081015160098501550151910155866000526006602052614d06868c6000206146e9565b01614d128d8254612e3d565b905588516001600160a01b0389168152602081018d9052808a0191909152a383519687521660208601526001600160a01b031693a3565b905092614aea565b955038614ac6565b50505050509050600080516020614fa0833981519152606060405160208152601e60208201527f616c6c6f636174656420616d6f756e742062656c6f77206d696e696d756d00006040820152a2565b5085614aa2565b6000908152602081209092505b848310614dd65750614a4b93505081016020013880614a3d565b81935090816020925483858d01015201910190918892614dbc565b60ff1916875250614a4b94151560051b84016020019250389150819050614a3d565b6000915b81549283811015614ebe57614e2c8184612ac1565b90546003956001600160a01b0392909190871b1c821684831614614e565750506001019250614e17565b90925060001991828201918211612ddd576128f784614e78614e869488612ac1565b905490891b1c169186612ac1565b82548015614ea8570192614e9a8484612ac1565b81939154921b1b1916905555565b634e487b7160e01b600052603160045260246000fd5b50505050565b8015614f615780816000925b614f4d575080614edf83614883565b92614eed6040519485612b91565b808452601f19614efc82614883565b01366020860137905b614f0e57505090565b8015612ddd576000190190600a9060308282068101809111612ddd5760f81b6001600160f81b03191660001a614f44848661489e565b53049081614f05565b91614f59600a91614803565b920480614ed0565b50604051614f6e81612b76565b60018152600360fc1b60208201529056fe405787fa12a823e0f2b7631cc41b3ba8828b3321ca811111fa75cd3aa3bb5ace161609ed0659583c4124f93794aade207fa9fe3124c4ee08cb05a724f0e760cab10e2d527612073b26eecdfd717e6a320cf44b4afac2b0732d9fcbe2b7fa0cf6a264697066735822122068a00a7a29389e15444354348f328b6bb9ea9f72d8977123910799405b8974ca64736f6c63430008180033",
  "linkReferences": {},
  "deployedLinkReferences": {}
}